{
	"contracts/Buidl11.sol": {
		"BUIDL11": {
			"abi": [
				{
					"inputs": [],
					"stateMutability": "nonpayable",
					"type": "constructor"
				},
				{
					"inputs": [
						{
							"internalType": "string",
							"name": "teamName",
							"type": "string"
						}
					],
					"name": "addFantasyTeam",
					"outputs": [],
					"stateMutability": "nonpayable",
					"type": "function"
				},
				{
					"inputs": [
						{
							"internalType": "uint256[]",
							"name": "_playerIDs",
							"type": "uint256[]"
						}
					],
					"name": "addPlayerToFantasyTeam",
					"outputs": [],
					"stateMutability": "nonpayable",
					"type": "function"
				},
				{
					"inputs": [
						{
							"internalType": "string[]",
							"name": "_playerNames",
							"type": "string[]"
						}
					],
					"name": "addPlayerToGame",
					"outputs": [],
					"stateMutability": "nonpayable",
					"type": "function"
				},
				{
					"inputs": [],
					"name": "bid",
					"outputs": [],
					"stateMutability": "payable",
					"type": "function"
				},
				{
					"inputs": [],
					"name": "calculateTeamsScore",
					"outputs": [],
					"stateMutability": "nonpayable",
					"type": "function"
				},
				{
					"inputs": [],
					"name": "gameBegins",
					"outputs": [],
					"stateMutability": "nonpayable",
					"type": "function"
				},
				{
					"inputs": [],
					"name": "gameStops",
					"outputs": [],
					"stateMutability": "nonpayable",
					"type": "function"
				},
				{
					"inputs": [],
					"name": "getAdmin",
					"outputs": [
						{
							"internalType": "address",
							"name": "",
							"type": "address"
						}
					],
					"stateMutability": "view",
					"type": "function"
				},
				{
					"inputs": [],
					"name": "listPlayers",
					"outputs": [
						{
							"internalType": "string",
							"name": "",
							"type": "string"
						}
					],
					"stateMutability": "view",
					"type": "function"
				},
				{
					"inputs": [],
					"name": "playersAddedToGame",
					"outputs": [],
					"stateMutability": "nonpayable",
					"type": "function"
				},
				{
					"inputs": [
						{
							"internalType": "uint256",
							"name": "captainID",
							"type": "uint256"
						},
						{
							"internalType": "uint256",
							"name": "viceCaptainID",
							"type": "uint256"
						}
					],
					"name": "setCaptains",
					"outputs": [],
					"stateMutability": "nonpayable",
					"type": "function"
				},
				{
					"inputs": [
						{
							"internalType": "uint256",
							"name": "playerID",
							"type": "uint256"
						},
						{
							"internalType": "uint256",
							"name": "runs",
							"type": "uint256"
						},
						{
							"internalType": "uint256",
							"name": "wickets",
							"type": "uint256"
						}
					],
					"name": "setplayerStats",
					"outputs": [],
					"stateMutability": "nonpayable",
					"type": "function"
				},
				{
					"inputs": [
						{
							"internalType": "uint256",
							"name": "teamSize",
							"type": "uint256"
						},
						{
							"internalType": "uint256",
							"name": "runMul",
							"type": "uint256"
						},
						{
							"internalType": "uint256",
							"name": "wicketMul",
							"type": "uint256"
						}
					],
					"name": "startGame",
					"outputs": [],
					"stateMutability": "nonpayable",
					"type": "function"
				}
			],
			"devdoc": {
				"kind": "dev",
				"methods": {},
				"version": 1
			},
			"evm": {
				"assembly": "    /* \"contracts/Buidl11.sol\":64:11120  contract BUIDL11 {\r... */\n  mstore(0x40, 0x80)\n    /* \"contracts/Buidl11.sol\":873:899  Status.NO_GAME_IN_PROGRESS */\n  0x00\n    /* \"contracts/Buidl11.sol\":853:899  Status gameStatus = Status.NO_GAME_IN_PROGRESS */\n  dup1\n  exp(0x0100, 0x14)\n  dup2\n  sload\n  dup2\n  0xff\n  mul\n  not\n  and\n  swap1\n  dup4\n  0x04\n  dup2\n  gt\n  iszero\n  tag_1\n  jumpi\n  tag_2\n  tag_3\n  jump\t// in\ntag_2:\ntag_1:\n  mul\n  or\n  swap1\n  sstore\n  pop\n    /* \"contracts/Buidl11.sol\":982:983  1 */\n  0x01\n    /* \"contracts/Buidl11.sol\":962:983  uint256 TEAM_SIZE = 1 */\n  0x03\n  sstore\n    /* \"contracts/Buidl11.sol\":1008:1009  1 */\n  0x01\n    /* \"contracts/Buidl11.sol\":990:1009  uint256 RUN_MUL = 1 */\n  0x04\n  sstore\n    /* \"contracts/Buidl11.sol\":1037:1039  50 */\n  0x32\n    /* \"contracts/Buidl11.sol\":1016:1039  uint256 WICKET_MUL = 50 */\n  0x05\n  sstore\n    /* \"contracts/Buidl11.sol\":113:170  constructor() public{\r... */\n  callvalue\n  dup1\n  iszero\n  tag_4\n  jumpi\n  0x00\n  dup1\n  revert\ntag_4:\n  pop\n    /* \"contracts/Buidl11.sol\":152:162  msg.sender */\n  caller\n    /* \"contracts/Buidl11.sol\":144:149  owner */\n  0x00\n  dup1\n    /* \"contracts/Buidl11.sol\":144:162  owner = msg.sender */\n  0x0100\n  exp\n  dup2\n  sload\n  dup2\n  0xffffffffffffffffffffffffffffffffffffffff\n  mul\n  not\n  and\n  swap1\n  dup4\n  0xffffffffffffffffffffffffffffffffffffffff\n  and\n  mul\n  or\n  swap1\n  sstore\n  pop\n    /* \"contracts/Buidl11.sol\":64:11120  contract BUIDL11 {\r... */\n  jump(tag_7)\n    /* \"#utility.yul\":7:187   */\ntag_3:\n    /* \"#utility.yul\":55:132   */\n  0x4e487b7100000000000000000000000000000000000000000000000000000000\n    /* \"#utility.yul\":52:53   */\n  0x00\n    /* \"#utility.yul\":45:133   */\n  mstore\n    /* \"#utility.yul\":152:156   */\n  0x21\n    /* \"#utility.yul\":149:150   */\n  0x04\n    /* \"#utility.yul\":142:157   */\n  mstore\n    /* \"#utility.yul\":176:180   */\n  0x24\n    /* \"#utility.yul\":173:174   */\n  0x00\n    /* \"#utility.yul\":166:181   */\n  revert\n    /* \"contracts/Buidl11.sol\":64:11120  contract BUIDL11 {\r... */\ntag_7:\n  dataSize(sub_0)\n  dup1\n  dataOffset(sub_0)\n  0x00\n  codecopy\n  0x00\n  return\nstop\n\nsub_0: assembly {\n        /* \"contracts/Buidl11.sol\":64:11120  contract BUIDL11 {\r... */\n      mstore(0x40, 0x80)\n      jumpi(tag_1, lt(calldatasize, 0x04))\n      shr(0xe0, calldataload(0x00))\n      dup1\n      0x4c4501c8\n      gt\n      tag_15\n      jumpi\n      dup1\n      0x8791c0b4\n      gt\n      tag_16\n      jumpi\n      dup1\n      0x8791c0b4\n      eq\n      tag_11\n      jumpi\n      dup1\n      0x8cc80480\n      eq\n      tag_12\n      jumpi\n      dup1\n      0x92506fae\n      eq\n      tag_13\n      jumpi\n      dup1\n      0xaf5af0ce\n      eq\n      tag_14\n      jumpi\n      jump(tag_1)\n    tag_16:\n      dup1\n      0x4c4501c8\n      eq\n      tag_8\n      jumpi\n      dup1\n      0x64605d51\n      eq\n      tag_9\n      jumpi\n      dup1\n      0x6e9960c3\n      eq\n      tag_10\n      jumpi\n      jump(tag_1)\n    tag_15:\n      dup1\n      0x106ecb0a\n      eq\n      tag_2\n      jumpi\n      dup1\n      0x1998aeef\n      eq\n      tag_3\n      jumpi\n      dup1\n      0x219b596b\n      eq\n      tag_4\n      jumpi\n      dup1\n      0x2c31d085\n      eq\n      tag_5\n      jumpi\n      dup1\n      0x2f290bfd\n      eq\n      tag_6\n      jumpi\n      dup1\n      0x4526e08b\n      eq\n      tag_7\n      jumpi\n    tag_1:\n      0x00\n      dup1\n      revert\n        /* \"contracts/Buidl11.sol\":4587:5477  function setCaptains(uint256 captainID, uint256 viceCaptainID) public \r... */\n    tag_2:\n      callvalue\n      dup1\n      iszero\n      tag_17\n      jumpi\n      0x00\n      dup1\n      revert\n    tag_17:\n      pop\n      tag_18\n      0x04\n      dup1\n      calldatasize\n      sub\n      dup2\n      add\n      swap1\n      tag_19\n      swap2\n      swap1\n      tag_20\n      jump\t// in\n    tag_19:\n      tag_21\n      jump\t// in\n    tag_18:\n      stop\n        /* \"contracts/Buidl11.sol\":5490:6050  function bid() public payable {\r... */\n    tag_3:\n      tag_22\n      tag_23\n      jump\t// in\n    tag_22:\n      stop\n        /* \"contracts/Buidl11.sol\":6630:6789  function gameStops() public isOwner{\r... */\n    tag_4:\n      callvalue\n      dup1\n      iszero\n      tag_24\n      jumpi\n      0x00\n      dup1\n      revert\n    tag_24:\n      pop\n      tag_25\n      tag_26\n      jump\t// in\n    tag_25:\n      stop\n        /* \"contracts/Buidl11.sol\":1197:1607  function startGame(uint256 teamSize, uint256 runMul, uint256 wicketMul) public isOwner{\r... */\n    tag_5:\n      callvalue\n      dup1\n      iszero\n      tag_27\n      jumpi\n      0x00\n      dup1\n      revert\n    tag_27:\n      pop\n      tag_28\n      0x04\n      dup1\n      calldatasize\n      sub\n      dup2\n      add\n      swap1\n      tag_29\n      swap2\n      swap1\n      tag_30\n      jump\t// in\n    tag_29:\n      tag_31\n      jump\t// in\n    tag_28:\n      stop\n        /* \"contracts/Buidl11.sol\":2845:3010  function playersAddedToGame() public {\r... */\n    tag_6:\n      callvalue\n      dup1\n      iszero\n      tag_32\n      jumpi\n      0x00\n      dup1\n      revert\n    tag_32:\n      pop\n      tag_33\n      tag_34\n      jump\t// in\n    tag_33:\n      stop\n        /* \"contracts/Buidl11.sol\":6063:6226  function gameBegins() public isOwner{\r... */\n    tag_7:\n      callvalue\n      dup1\n      iszero\n      tag_35\n      jumpi\n      0x00\n      dup1\n      revert\n    tag_35:\n      pop\n      tag_36\n      tag_37\n      jump\t// in\n    tag_36:\n      stop\n        /* \"contracts/Buidl11.sol\":1701:2118  function addPlayerToGame(string[] memory _playerNames) public {\r... */\n    tag_8:\n      callvalue\n      dup1\n      iszero\n      tag_38\n      jumpi\n      0x00\n      dup1\n      revert\n    tag_38:\n      pop\n      tag_39\n      0x04\n      dup1\n      calldatasize\n      sub\n      dup2\n      add\n      swap1\n      tag_40\n      swap2\n      swap1\n      tag_41\n      jump\t// in\n    tag_40:\n      tag_42\n      jump\t// in\n    tag_39:\n      stop\n        /* \"contracts/Buidl11.sol\":10281:11117  function listPlayers() public view returns (string memory) {\r... */\n    tag_9:\n      callvalue\n      dup1\n      iszero\n      tag_43\n      jumpi\n      0x00\n      dup1\n      revert\n    tag_43:\n      pop\n      tag_44\n      tag_45\n      jump\t// in\n    tag_44:\n      mload(0x40)\n      tag_46\n      swap2\n      swap1\n      tag_47\n      jump\t// in\n    tag_46:\n      mload(0x40)\n      dup1\n      swap2\n      sub\n      swap1\n      return\n        /* \"contracts/Buidl11.sol\":1613:1692  function getAdmin() public view returns(address){\r... */\n    tag_10:\n      callvalue\n      dup1\n      iszero\n      tag_48\n      jumpi\n      0x00\n      dup1\n      revert\n    tag_48:\n      pop\n      tag_49\n      tag_50\n      jump\t// in\n    tag_49:\n      mload(0x40)\n      tag_51\n      swap2\n      swap1\n      tag_52\n      jump\t// in\n    tag_51:\n      mload(0x40)\n      dup1\n      swap2\n      sub\n      swap1\n      return\n        /* \"contracts/Buidl11.sol\":3634:4573  function addPlayerToFantasyTeam(uint256[] memory _playerIDs) public \r... */\n    tag_11:\n      callvalue\n      dup1\n      iszero\n      tag_53\n      jumpi\n      0x00\n      dup1\n      revert\n    tag_53:\n      pop\n      tag_54\n      0x04\n      dup1\n      calldatasize\n      sub\n      dup2\n      add\n      swap1\n      tag_55\n      swap2\n      swap1\n      tag_56\n      jump\t// in\n    tag_55:\n      tag_57\n      jump\t// in\n    tag_54:\n      stop\n        /* \"contracts/Buidl11.sol\":8331:8987  function calculateTeamsScore() public {\r... */\n    tag_12:\n      callvalue\n      dup1\n      iszero\n      tag_58\n      jumpi\n      0x00\n      dup1\n      revert\n    tag_58:\n      pop\n      tag_59\n      tag_60\n      jump\t// in\n    tag_59:\n      stop\n        /* \"contracts/Buidl11.sol\":3023:3624  function addFantasyTeam(string memory teamName) public {\r... */\n    tag_13:\n      callvalue\n      dup1\n      iszero\n      tag_61\n      jumpi\n      0x00\n      dup1\n      revert\n    tag_61:\n      pop\n      tag_62\n      0x04\n      dup1\n      calldatasize\n      sub\n      dup2\n      add\n      swap1\n      tag_63\n      swap2\n      swap1\n      tag_64\n      jump\t// in\n    tag_63:\n      tag_65\n      jump\t// in\n    tag_62:\n      stop\n        /* \"contracts/Buidl11.sol\":6240:6622  function setplayerStats(\r... */\n    tag_14:\n      callvalue\n      dup1\n      iszero\n      tag_66\n      jumpi\n      0x00\n      dup1\n      revert\n    tag_66:\n      pop\n      tag_67\n      0x04\n      dup1\n      calldatasize\n      sub\n      dup2\n      add\n      swap1\n      tag_68\n      swap2\n      swap1\n      tag_30\n      jump\t// in\n    tag_68:\n      tag_69\n      jump\t// in\n    tag_67:\n      stop\n        /* \"contracts/Buidl11.sol\":4587:5477  function setCaptains(uint256 captainID, uint256 viceCaptainID) public \r... */\n    tag_21:\n        /* \"contracts/Buidl11.sol\":4681:4690  captainID */\n      dup2\n        /* \"contracts/Buidl11.sol\":1129:1136  players */\n      0x01\n        /* \"contracts/Buidl11.sol\":1129:1143  players.length */\n      dup1\n      sload\n      swap1\n      pop\n        /* \"contracts/Buidl11.sol\":1118:1126  playerID */\n      dup2\n        /* \"contracts/Buidl11.sol\":1118:1143  playerID < players.length */\n      lt\n        /* \"contracts/Buidl11.sol\":1110:1169  require(playerID < players.length, \"Player does not exist\") */\n      tag_71\n      jumpi\n      mload(0x40)\n      0x08c379a000000000000000000000000000000000000000000000000000000000\n      dup2\n      mstore\n      0x04\n      add\n      tag_72\n      swap1\n      tag_73\n      jump\t// in\n    tag_72:\n      mload(0x40)\n      dup1\n      swap2\n      sub\n      swap1\n      revert\n    tag_71:\n        /* \"contracts/Buidl11.sol\":4715:4728  viceCaptainID */\n      dup2\n        /* \"contracts/Buidl11.sol\":1129:1136  players */\n      0x01\n        /* \"contracts/Buidl11.sol\":1129:1143  players.length */\n      dup1\n      sload\n      swap1\n      pop\n        /* \"contracts/Buidl11.sol\":1118:1126  playerID */\n      dup2\n        /* \"contracts/Buidl11.sol\":1118:1143  playerID < players.length */\n      lt\n        /* \"contracts/Buidl11.sol\":1110:1169  require(playerID < players.length, \"Player does not exist\") */\n      tag_75\n      jumpi\n      mload(0x40)\n      0x08c379a000000000000000000000000000000000000000000000000000000000\n      dup2\n      mstore\n      0x04\n      add\n      tag_76\n      swap1\n      tag_73\n      jump\t// in\n    tag_76:\n      mload(0x40)\n      dup1\n      swap2\n      sub\n      swap1\n      revert\n    tag_75:\n        /* \"contracts/Buidl11.sol\":4782:4802  Status.PRE_GAME_USER */\n      0x02\n        /* \"contracts/Buidl11.sol\":4768:4802  gameStatus == Status.PRE_GAME_USER */\n      0x04\n      dup2\n      gt\n      iszero\n      tag_78\n      jumpi\n      tag_79\n      tag_80\n      jump\t// in\n    tag_79:\n    tag_78:\n        /* \"contracts/Buidl11.sol\":4768:4778  gameStatus */\n      0x00\n      0x14\n      swap1\n      sload\n      swap1\n      0x0100\n      exp\n      swap1\n      div\n      0xff\n      and\n        /* \"contracts/Buidl11.sol\":4768:4802  gameStatus == Status.PRE_GAME_USER */\n      0x04\n      dup2\n      gt\n      iszero\n      tag_81\n      jumpi\n      tag_82\n      tag_80\n      jump\t// in\n    tag_82:\n    tag_81:\n      eq\n        /* \"contracts/Buidl11.sol\":4746:4873  require(\r... */\n      tag_83\n      jumpi\n      mload(0x40)\n      0x08c379a000000000000000000000000000000000000000000000000000000000\n      dup2\n      mstore\n      0x04\n      add\n      tag_84\n      swap1\n      tag_85\n      jump\t// in\n    tag_84:\n      mload(0x40)\n      dup1\n      swap2\n      sub\n      swap1\n      revert\n    tag_83:\n        /* \"contracts/Buidl11.sol\":4886:4907  uint256 fantasyTeamID */\n      0x00\n        /* \"contracts/Buidl11.sol\":4910:4938  getFantasyTeamID(msg.sender) */\n      tag_86\n        /* \"contracts/Buidl11.sol\":4927:4937  msg.sender */\n      caller\n        /* \"contracts/Buidl11.sol\":4910:4926  getFantasyTeamID */\n      tag_87\n        /* \"contracts/Buidl11.sol\":4910:4938  getFantasyTeamID(msg.sender) */\n      jump\t// in\n    tag_86:\n        /* \"contracts/Buidl11.sol\":4886:4938  uint256 fantasyTeamID = getFantasyTeamID(msg.sender) */\n      swap1\n      pop\n        /* \"contracts/Buidl11.sol\":4988:5000  fantasyTeams */\n      0x02\n        /* \"contracts/Buidl11.sol\":4988:5007  fantasyTeams.length */\n      dup1\n      sload\n      swap1\n      pop\n        /* \"contracts/Buidl11.sol\":4971:4984  fantasyTeamID */\n      dup2\n        /* \"contracts/Buidl11.sol\":4971:5007  fantasyTeamID != fantasyTeams.length */\n      eq\n      iszero\n        /* \"contracts/Buidl11.sol\":4949:5068  require(\r... */\n      tag_88\n      jumpi\n      mload(0x40)\n      0x08c379a000000000000000000000000000000000000000000000000000000000\n      dup2\n      mstore\n      0x04\n      add\n      tag_89\n      swap1\n      tag_90\n      jump\t// in\n    tag_89:\n      mload(0x40)\n      dup1\n      swap2\n      sub\n      swap1\n      revert\n    tag_88:\n        /* \"contracts/Buidl11.sol\":5101:5154  existsPlayerIdInFantasyTeam(captainID, fantasyTeamID) */\n      tag_91\n        /* \"contracts/Buidl11.sol\":5129:5138  captainID */\n      dup6\n        /* \"contracts/Buidl11.sol\":5140:5153  fantasyTeamID */\n      dup3\n        /* \"contracts/Buidl11.sol\":5101:5128  existsPlayerIdInFantasyTeam */\n      tag_92\n        /* \"contracts/Buidl11.sol\":5101:5154  existsPlayerIdInFantasyTeam(captainID, fantasyTeamID) */\n      jump\t// in\n    tag_91:\n        /* \"contracts/Buidl11.sol\":5079:5199  require(\r... */\n      tag_93\n      jumpi\n      mload(0x40)\n      0x08c379a000000000000000000000000000000000000000000000000000000000\n      dup2\n      mstore\n      0x04\n      add\n      tag_94\n      swap1\n      tag_95\n      jump\t// in\n    tag_94:\n      mload(0x40)\n      dup1\n      swap2\n      sub\n      swap1\n      revert\n    tag_93:\n        /* \"contracts/Buidl11.sol\":5232:5289  existsPlayerIdInFantasyTeam(viceCaptainID, fantasyTeamID) */\n      tag_96\n        /* \"contracts/Buidl11.sol\":5260:5273  viceCaptainID */\n      dup5\n        /* \"contracts/Buidl11.sol\":5275:5288  fantasyTeamID */\n      dup3\n        /* \"contracts/Buidl11.sol\":5232:5259  existsPlayerIdInFantasyTeam */\n      tag_92\n        /* \"contracts/Buidl11.sol\":5232:5289  existsPlayerIdInFantasyTeam(viceCaptainID, fantasyTeamID) */\n      jump\t// in\n    tag_96:\n        /* \"contracts/Buidl11.sol\":5210:5339  require(\r... */\n      tag_97\n      jumpi\n      mload(0x40)\n      0x08c379a000000000000000000000000000000000000000000000000000000000\n      dup2\n      mstore\n      0x04\n      add\n      tag_98\n      swap1\n      tag_99\n      jump\t// in\n    tag_98:\n      mload(0x40)\n      dup1\n      swap2\n      sub\n      swap1\n      revert\n    tag_97:\n        /* \"contracts/Buidl11.sol\":5392:5401  captainID */\n      dup5\n        /* \"contracts/Buidl11.sol\":5352:5364  fantasyTeams */\n      0x02\n        /* \"contracts/Buidl11.sol\":5365:5378  fantasyTeamID */\n      dup3\n        /* \"contracts/Buidl11.sol\":5352:5379  fantasyTeams[fantasyTeamID] */\n      dup2\n      sload\n      dup2\n      lt\n      tag_100\n      jumpi\n      tag_101\n      tag_102\n      jump\t// in\n    tag_101:\n    tag_100:\n      swap1\n      0x00\n      mstore\n      keccak256(0x00, 0x20)\n      swap1\n      0x07\n      mul\n      add\n        /* \"contracts/Buidl11.sol\":5352:5389  fantasyTeams[fantasyTeamID].captainId */\n      0x03\n      add\n        /* \"contracts/Buidl11.sol\":5352:5401  fantasyTeams[fantasyTeamID].captainId = captainID */\n      dup2\n      swap1\n      sstore\n      pop\n        /* \"contracts/Buidl11.sol\":5456:5469  viceCaptainID */\n      dup4\n        /* \"contracts/Buidl11.sol\":5412:5424  fantasyTeams */\n      0x02\n        /* \"contracts/Buidl11.sol\":5425:5438  fantasyTeamID */\n      dup3\n        /* \"contracts/Buidl11.sol\":5412:5439  fantasyTeams[fantasyTeamID] */\n      dup2\n      sload\n      dup2\n      lt\n      tag_104\n      jumpi\n      tag_105\n      tag_102\n      jump\t// in\n    tag_105:\n    tag_104:\n      swap1\n      0x00\n      mstore\n      keccak256(0x00, 0x20)\n      swap1\n      0x07\n      mul\n      add\n        /* \"contracts/Buidl11.sol\":5412:5453  fantasyTeams[fantasyTeamID].viceCaptainId */\n      0x04\n      add\n        /* \"contracts/Buidl11.sol\":5412:5469  fantasyTeams[fantasyTeamID].viceCaptainId = viceCaptainID */\n      dup2\n      swap1\n      sstore\n      pop\n        /* \"contracts/Buidl11.sol\":4735:5477  {\r... */\n      pop\n        /* \"contracts/Buidl11.sol\":1180:1181  _ */\n      pop\n        /* \"contracts/Buidl11.sol\":4587:5477  function setCaptains(uint256 captainID, uint256 viceCaptainID) public \r... */\n      pop\n      pop\n      pop\n      jump\t// out\n        /* \"contracts/Buidl11.sol\":5490:6050  function bid() public payable {\r... */\n    tag_23:\n        /* \"contracts/Buidl11.sol\":5553:5573  Status.PRE_GAME_USER */\n      0x02\n        /* \"contracts/Buidl11.sol\":5539:5573  gameStatus == Status.PRE_GAME_USER */\n      0x04\n      dup2\n      gt\n      iszero\n      tag_108\n      jumpi\n      tag_109\n      tag_80\n      jump\t// in\n    tag_109:\n    tag_108:\n        /* \"contracts/Buidl11.sol\":5539:5549  gameStatus */\n      0x00\n      0x14\n      swap1\n      sload\n      swap1\n      0x0100\n      exp\n      swap1\n      div\n      0xff\n      and\n        /* \"contracts/Buidl11.sol\":5539:5573  gameStatus == Status.PRE_GAME_USER */\n      0x04\n      dup2\n      gt\n      iszero\n      tag_110\n      jumpi\n      tag_111\n      tag_80\n      jump\t// in\n    tag_111:\n    tag_110:\n      eq\n        /* \"contracts/Buidl11.sol\":5531:5602  require(gameStatus == Status.PRE_GAME_USER, \"Bids can't be placed now\") */\n      tag_112\n      jumpi\n      mload(0x40)\n      0x08c379a000000000000000000000000000000000000000000000000000000000\n      dup2\n      mstore\n      0x04\n      add\n      tag_113\n      swap1\n      tag_114\n      jump\t// in\n    tag_113:\n      mload(0x40)\n      dup1\n      swap2\n      sub\n      swap1\n      revert\n    tag_112:\n        /* \"contracts/Buidl11.sol\":5615:5636  uint256 fantasyTeamID */\n      0x00\n        /* \"contracts/Buidl11.sol\":5639:5667  getFantasyTeamID(msg.sender) */\n      tag_115\n        /* \"contracts/Buidl11.sol\":5656:5666  msg.sender */\n      caller\n        /* \"contracts/Buidl11.sol\":5639:5655  getFantasyTeamID */\n      tag_87\n        /* \"contracts/Buidl11.sol\":5639:5667  getFantasyTeamID(msg.sender) */\n      jump\t// in\n    tag_115:\n        /* \"contracts/Buidl11.sol\":5615:5667  uint256 fantasyTeamID = getFantasyTeamID(msg.sender) */\n      swap1\n      pop\n        /* \"contracts/Buidl11.sol\":5717:5729  fantasyTeams */\n      0x02\n        /* \"contracts/Buidl11.sol\":5717:5736  fantasyTeams.length */\n      dup1\n      sload\n      swap1\n      pop\n        /* \"contracts/Buidl11.sol\":5700:5713  fantasyTeamID */\n      dup2\n        /* \"contracts/Buidl11.sol\":5700:5736  fantasyTeamID != fantasyTeams.length */\n      eq\n      iszero\n        /* \"contracts/Buidl11.sol\":5678:5797  require(\r... */\n      tag_116\n      jumpi\n      mload(0x40)\n      0x08c379a000000000000000000000000000000000000000000000000000000000\n      dup2\n      mstore\n      0x04\n      add\n      tag_117\n      swap1\n      tag_90\n      jump\t// in\n    tag_117:\n      mload(0x40)\n      dup1\n      swap2\n      sub\n      swap1\n      revert\n    tag_116:\n        /* \"contracts/Buidl11.sol\":5810:5833  FantasyTeam memory team */\n      0x00\n        /* \"contracts/Buidl11.sol\":5836:5848  fantasyTeams */\n      0x02\n        /* \"contracts/Buidl11.sol\":5849:5862  fantasyTeamID */\n      dup3\n        /* \"contracts/Buidl11.sol\":5836:5863  fantasyTeams[fantasyTeamID] */\n      dup2\n      sload\n      dup2\n      lt\n      tag_118\n      jumpi\n      tag_119\n      tag_102\n      jump\t// in\n    tag_119:\n    tag_118:\n      swap1\n      0x00\n      mstore\n      keccak256(0x00, 0x20)\n      swap1\n      0x07\n      mul\n      add\n        /* \"contracts/Buidl11.sol\":5810:5863  FantasyTeam memory team = fantasyTeams[fantasyTeamID] */\n      mload(0x40)\n      dup1\n      0xe0\n      add\n      0x40\n      mstore\n      swap1\n      dup2\n      0x00\n      dup3\n      add\n      0x00\n      swap1\n      sload\n      swap1\n      0x0100\n      exp\n      swap1\n      div\n      0xffffffffffffffffffffffffffffffffffffffff\n      and\n      0xffffffffffffffffffffffffffffffffffffffff\n      and\n      0xffffffffffffffffffffffffffffffffffffffff\n      and\n      dup2\n      mstore\n      0x20\n      add\n      0x01\n      dup3\n      add\n      dup1\n      sload\n      tag_121\n      swap1\n      tag_122\n      jump\t// in\n    tag_121:\n      dup1\n      0x1f\n      add\n      0x20\n      dup1\n      swap2\n      div\n      mul\n      0x20\n      add\n      mload(0x40)\n      swap1\n      dup2\n      add\n      0x40\n      mstore\n      dup1\n      swap3\n      swap2\n      swap1\n      dup2\n      dup2\n      mstore\n      0x20\n      add\n      dup3\n      dup1\n      sload\n      tag_123\n      swap1\n      tag_122\n      jump\t// in\n    tag_123:\n      dup1\n      iszero\n      tag_124\n      jumpi\n      dup1\n      0x1f\n      lt\n      tag_125\n      jumpi\n      0x0100\n      dup1\n      dup4\n      sload\n      div\n      mul\n      dup4\n      mstore\n      swap2\n      0x20\n      add\n      swap2\n      jump(tag_124)\n    tag_125:\n      dup3\n      add\n      swap2\n      swap1\n      0x00\n      mstore\n      keccak256(0x00, 0x20)\n      swap1\n    tag_126:\n      dup2\n      sload\n      dup2\n      mstore\n      swap1\n      0x01\n      add\n      swap1\n      0x20\n      add\n      dup1\n      dup4\n      gt\n      tag_126\n      jumpi\n      dup3\n      swap1\n      sub\n      0x1f\n      and\n      dup3\n      add\n      swap2\n    tag_124:\n      pop\n      pop\n      pop\n      pop\n      pop\n      dup2\n      mstore\n      0x20\n      add\n      0x02\n      dup3\n      add\n      dup1\n      sload\n      dup1\n      0x20\n      mul\n      0x20\n      add\n      mload(0x40)\n      swap1\n      dup2\n      add\n      0x40\n      mstore\n      dup1\n      swap3\n      swap2\n      swap1\n      dup2\n      dup2\n      mstore\n      0x20\n      add\n      dup3\n      dup1\n      sload\n      dup1\n      iszero\n      tag_127\n      jumpi\n      0x20\n      mul\n      dup3\n      add\n      swap2\n      swap1\n      0x00\n      mstore\n      keccak256(0x00, 0x20)\n      swap1\n    tag_128:\n      dup2\n      sload\n      dup2\n      mstore\n      0x20\n      add\n      swap1\n      0x01\n      add\n      swap1\n      dup1\n      dup4\n      gt\n      tag_128\n      jumpi\n    tag_127:\n      pop\n      pop\n      pop\n      pop\n      pop\n      dup2\n      mstore\n      0x20\n      add\n      0x03\n      dup3\n      add\n      sload\n      dup2\n      mstore\n      0x20\n      add\n      0x04\n      dup3\n      add\n      sload\n      dup2\n      mstore\n      0x20\n      add\n      0x05\n      dup3\n      add\n      sload\n      dup2\n      mstore\n      0x20\n      add\n      0x06\n      dup3\n      add\n      sload\n      dup2\n      mstore\n      pop\n      pop\n      swap1\n      pop\n        /* \"contracts/Buidl11.sol\":5907:5916  TEAM_SIZE */\n      sload(0x03)\n        /* \"contracts/Buidl11.sol\":5882:5886  team */\n      dup2\n        /* \"contracts/Buidl11.sol\":5882:5896  team.playerIds */\n      0x40\n      add\n      mload\n        /* \"contracts/Buidl11.sol\":5882:5903  team.playerIds.length */\n      mload\n        /* \"contracts/Buidl11.sol\":5882:5916  team.playerIds.length == TEAM_SIZE */\n      eq\n        /* \"contracts/Buidl11.sol\":5874:5936  require(team.playerIds.length == TEAM_SIZE, \"Team Incomplete\") */\n      tag_129\n      jumpi\n      mload(0x40)\n      0x08c379a000000000000000000000000000000000000000000000000000000000\n      dup2\n      mstore\n      0x04\n      add\n      tag_130\n      swap1\n      tag_131\n      jump\t// in\n    tag_130:\n      mload(0x40)\n      dup1\n      swap2\n      sub\n      swap1\n      revert\n    tag_129:\n        /* \"contracts/Buidl11.sol\":5967:5968  0 */\n      0x00\n        /* \"contracts/Buidl11.sol\":5955:5959  team */\n      dup2\n        /* \"contracts/Buidl11.sol\":5955:5963  team.bid */\n      0xa0\n      add\n      mload\n        /* \"contracts/Buidl11.sol\":5955:5968  team.bid == 0 */\n      eq\n        /* \"contracts/Buidl11.sol\":5947:5988  require(team.bid == 0, \"Can't bid again\") */\n      tag_132\n      jumpi\n      mload(0x40)\n      0x08c379a000000000000000000000000000000000000000000000000000000000\n      dup2\n      mstore\n      0x04\n      add\n      tag_133\n      swap1\n      tag_134\n      jump\t// in\n    tag_133:\n      mload(0x40)\n      dup1\n      swap2\n      sub\n      swap1\n      revert\n    tag_132:\n        /* \"contracts/Buidl11.sol\":6033:6042  msg.value */\n      callvalue\n        /* \"contracts/Buidl11.sol\":5999:6011  fantasyTeams */\n      0x02\n        /* \"contracts/Buidl11.sol\":6012:6025  fantasyTeamID */\n      dup4\n        /* \"contracts/Buidl11.sol\":5999:6026  fantasyTeams[fantasyTeamID] */\n      dup2\n      sload\n      dup2\n      lt\n      tag_135\n      jumpi\n      tag_136\n      tag_102\n      jump\t// in\n    tag_136:\n    tag_135:\n      swap1\n      0x00\n      mstore\n      keccak256(0x00, 0x20)\n      swap1\n      0x07\n      mul\n      add\n        /* \"contracts/Buidl11.sol\":5999:6030  fantasyTeams[fantasyTeamID].bid */\n      0x05\n      add\n        /* \"contracts/Buidl11.sol\":5999:6042  fantasyTeams[fantasyTeamID].bid = msg.value */\n      dup2\n      swap1\n      sstore\n      pop\n        /* \"contracts/Buidl11.sol\":5520:6050  {\r... */\n      pop\n      pop\n        /* \"contracts/Buidl11.sol\":5490:6050  function bid() public payable {\r... */\n      jump\t// out\n        /* \"contracts/Buidl11.sol\":6630:6789  function gameStops() public isOwner{\r... */\n    tag_26:\n        /* \"contracts/Buidl11.sol\":225:230  owner */\n      0x00\n      dup1\n      sload\n      swap1\n      0x0100\n      exp\n      swap1\n      div\n      0xffffffffffffffffffffffffffffffffffffffff\n      and\n        /* \"contracts/Buidl11.sol\":213:230  msg.sender==owner */\n      0xffffffffffffffffffffffffffffffffffffffff\n      and\n        /* \"contracts/Buidl11.sol\":213:223  msg.sender */\n      caller\n        /* \"contracts/Buidl11.sol\":213:230  msg.sender==owner */\n      0xffffffffffffffffffffffffffffffffffffffff\n      and\n      eq\n        /* \"contracts/Buidl11.sol\":205:268  require(msg.sender==owner,\"Must be admin to use this funciton\") */\n      tag_139\n      jumpi\n      mload(0x40)\n      0x08c379a000000000000000000000000000000000000000000000000000000000\n      dup2\n      mstore\n      0x04\n      add\n      tag_140\n      swap1\n      tag_141\n      jump\t// in\n    tag_140:\n      mload(0x40)\n      dup1\n      swap2\n      sub\n      swap1\n      revert\n    tag_139:\n        /* \"contracts/Buidl11.sol\":6698:6716  Status.GAME_BEGINS */\n      0x03\n        /* \"contracts/Buidl11.sol\":6684:6716  gameStatus == Status.GAME_BEGINS */\n      0x04\n      dup2\n      gt\n      iszero\n      tag_143\n      jumpi\n      tag_144\n      tag_80\n      jump\t// in\n    tag_144:\n    tag_143:\n        /* \"contracts/Buidl11.sol\":6684:6694  gameStatus */\n      0x00\n      0x14\n      swap1\n      sload\n      swap1\n      0x0100\n      exp\n      swap1\n      div\n      0xff\n      and\n        /* \"contracts/Buidl11.sol\":6684:6716  gameStatus == Status.GAME_BEGINS */\n      0x04\n      dup2\n      gt\n      iszero\n      tag_145\n      jumpi\n      tag_146\n      tag_80\n      jump\t// in\n    tag_146:\n    tag_145:\n      eq\n        /* \"contracts/Buidl11.sol\":6676:6740  require(gameStatus == Status.GAME_BEGINS, \"Can't change status\") */\n      tag_147\n      jumpi\n      mload(0x40)\n      0x08c379a000000000000000000000000000000000000000000000000000000000\n      dup2\n      mstore\n      0x04\n      add\n      tag_148\n      swap1\n      tag_149\n      jump\t// in\n    tag_148:\n      mload(0x40)\n      dup1\n      swap2\n      sub\n      swap1\n      revert\n    tag_147:\n        /* \"contracts/Buidl11.sol\":6764:6781  Status.GAME_STOPS */\n      0x04\n        /* \"contracts/Buidl11.sol\":6751:6761  gameStatus */\n      0x00\n      0x14\n        /* \"contracts/Buidl11.sol\":6751:6781  gameStatus = Status.GAME_STOPS */\n      0x0100\n      exp\n      dup2\n      sload\n      dup2\n      0xff\n      mul\n      not\n      and\n      swap1\n      dup4\n      0x04\n      dup2\n      gt\n      iszero\n      tag_150\n      jumpi\n      tag_151\n      tag_80\n      jump\t// in\n    tag_151:\n    tag_150:\n      mul\n      or\n      swap1\n      sstore\n      pop\n        /* \"contracts/Buidl11.sol\":6630:6789  function gameStops() public isOwner{\r... */\n      jump\t// out\n        /* \"contracts/Buidl11.sol\":1197:1607  function startGame(uint256 teamSize, uint256 runMul, uint256 wicketMul) public isOwner{\r... */\n    tag_31:\n        /* \"contracts/Buidl11.sol\":225:230  owner */\n      0x00\n      dup1\n      sload\n      swap1\n      0x0100\n      exp\n      swap1\n      div\n      0xffffffffffffffffffffffffffffffffffffffff\n      and\n        /* \"contracts/Buidl11.sol\":213:230  msg.sender==owner */\n      0xffffffffffffffffffffffffffffffffffffffff\n      and\n        /* \"contracts/Buidl11.sol\":213:223  msg.sender */\n      caller\n        /* \"contracts/Buidl11.sol\":213:230  msg.sender==owner */\n      0xffffffffffffffffffffffffffffffffffffffff\n      and\n      eq\n        /* \"contracts/Buidl11.sol\":205:268  require(msg.sender==owner,\"Must be admin to use this funciton\") */\n      tag_153\n      jumpi\n      mload(0x40)\n      0x08c379a000000000000000000000000000000000000000000000000000000000\n      dup2\n      mstore\n      0x04\n      add\n      tag_154\n      swap1\n      tag_141\n      jump\t// in\n    tag_154:\n      mload(0x40)\n      dup1\n      swap2\n      sub\n      swap1\n      revert\n    tag_153:\n        /* \"contracts/Buidl11.sol\":1330:1356  Status.NO_GAME_IN_PROGRESS */\n      0x00\n        /* \"contracts/Buidl11.sol\":1316:1356  gameStatus == Status.NO_GAME_IN_PROGRESS */\n      0x04\n      dup2\n      gt\n      iszero\n      tag_156\n      jumpi\n      tag_157\n      tag_80\n      jump\t// in\n    tag_157:\n    tag_156:\n        /* \"contracts/Buidl11.sol\":1316:1326  gameStatus */\n      0x00\n      0x14\n      swap1\n      sload\n      swap1\n      0x0100\n      exp\n      swap1\n      div\n      0xff\n      and\n        /* \"contracts/Buidl11.sol\":1316:1356  gameStatus == Status.NO_GAME_IN_PROGRESS */\n      0x04\n      dup2\n      gt\n      iszero\n      tag_158\n      jumpi\n      tag_159\n      tag_80\n      jump\t// in\n    tag_159:\n    tag_158:\n      eq\n        /* \"contracts/Buidl11.sol\":1294:1408  require(\r... */\n      tag_160\n      jumpi\n      mload(0x40)\n      0x08c379a000000000000000000000000000000000000000000000000000000000\n      dup2\n      mstore\n      0x04\n      add\n      tag_161\n      swap1\n      tag_162\n      jump\t// in\n    tag_161:\n      mload(0x40)\n      dup1\n      swap2\n      sub\n      swap1\n      revert\n    tag_160:\n        /* \"contracts/Buidl11.sol\":1428:1435  players */\n      0x01\n      0x00\n        /* \"contracts/Buidl11.sol\":1421:1435  delete players */\n      tag_163\n      swap2\n      swap1\n      tag_164\n      jump\t// in\n    tag_163:\n        /* \"contracts/Buidl11.sol\":1453:1465  fantasyTeams */\n      0x02\n      0x00\n        /* \"contracts/Buidl11.sol\":1446:1465  delete fantasyTeams */\n      tag_165\n      swap2\n      swap1\n      tag_166\n      jump\t// in\n    tag_165:\n        /* \"contracts/Buidl11.sol\":1489:1508  Status.PRE_GAME_API */\n      0x01\n        /* \"contracts/Buidl11.sol\":1476:1486  gameStatus */\n      0x00\n      0x14\n        /* \"contracts/Buidl11.sol\":1476:1508  gameStatus = Status.PRE_GAME_API */\n      0x0100\n      exp\n      dup2\n      sload\n      dup2\n      0xff\n      mul\n      not\n      and\n      swap1\n      dup4\n      0x04\n      dup2\n      gt\n      iszero\n      tag_167\n      jumpi\n      tag_168\n      tag_80\n      jump\t// in\n    tag_168:\n    tag_167:\n      mul\n      or\n      swap1\n      sstore\n      pop\n        /* \"contracts/Buidl11.sol\":1531:1539  teamSize */\n      dup3\n        /* \"contracts/Buidl11.sol\":1519:1528  TEAM_SIZE */\n      0x03\n        /* \"contracts/Buidl11.sol\":1519:1539  TEAM_SIZE = teamSize */\n      dup2\n      swap1\n      sstore\n      pop\n        /* \"contracts/Buidl11.sol\":1560:1566  runMul */\n      dup2\n        /* \"contracts/Buidl11.sol\":1550:1557  RUN_MUL */\n      0x04\n        /* \"contracts/Buidl11.sol\":1550:1566  RUN_MUL = runMul */\n      dup2\n      swap1\n      sstore\n      pop\n        /* \"contracts/Buidl11.sol\":1590:1599  wicketMul */\n      dup1\n        /* \"contracts/Buidl11.sol\":1577:1587  WICKET_MUL */\n      0x05\n        /* \"contracts/Buidl11.sol\":1577:1599  WICKET_MUL = wicketMul */\n      dup2\n      swap1\n      sstore\n      pop\n        /* \"contracts/Buidl11.sol\":1197:1607  function startGame(uint256 teamSize, uint256 runMul, uint256 wicketMul) public isOwner{\r... */\n      pop\n      pop\n      pop\n      jump\t// out\n        /* \"contracts/Buidl11.sol\":2845:3010  function playersAddedToGame() public {\r... */\n    tag_34:\n        /* \"contracts/Buidl11.sol\":2915:2934  Status.PRE_GAME_API */\n      0x01\n        /* \"contracts/Buidl11.sol\":2901:2934  gameStatus == Status.PRE_GAME_API */\n      0x04\n      dup2\n      gt\n      iszero\n      tag_170\n      jumpi\n      tag_171\n      tag_80\n      jump\t// in\n    tag_171:\n    tag_170:\n        /* \"contracts/Buidl11.sol\":2901:2911  gameStatus */\n      0x00\n      0x14\n      swap1\n      sload\n      swap1\n      0x0100\n      exp\n      swap1\n      div\n      0xff\n      and\n        /* \"contracts/Buidl11.sol\":2901:2934  gameStatus == Status.PRE_GAME_API */\n      0x04\n      dup2\n      gt\n      iszero\n      tag_172\n      jumpi\n      tag_173\n      tag_80\n      jump\t// in\n    tag_173:\n    tag_172:\n      eq\n        /* \"contracts/Buidl11.sol\":2893:2958  require(gameStatus == Status.PRE_GAME_API, \"Can't change status\") */\n      tag_174\n      jumpi\n      mload(0x40)\n      0x08c379a000000000000000000000000000000000000000000000000000000000\n      dup2\n      mstore\n      0x04\n      add\n      tag_175\n      swap1\n      tag_149\n      jump\t// in\n    tag_175:\n      mload(0x40)\n      dup1\n      swap2\n      sub\n      swap1\n      revert\n    tag_174:\n        /* \"contracts/Buidl11.sol\":2982:3002  Status.PRE_GAME_USER */\n      0x02\n        /* \"contracts/Buidl11.sol\":2969:2979  gameStatus */\n      0x00\n      0x14\n        /* \"contracts/Buidl11.sol\":2969:3002  gameStatus = Status.PRE_GAME_USER */\n      0x0100\n      exp\n      dup2\n      sload\n      dup2\n      0xff\n      mul\n      not\n      and\n      swap1\n      dup4\n      0x04\n      dup2\n      gt\n      iszero\n      tag_176\n      jumpi\n      tag_177\n      tag_80\n      jump\t// in\n    tag_177:\n    tag_176:\n      mul\n      or\n      swap1\n      sstore\n      pop\n        /* \"contracts/Buidl11.sol\":2845:3010  function playersAddedToGame() public {\r... */\n      jump\t// out\n        /* \"contracts/Buidl11.sol\":6063:6226  function gameBegins() public isOwner{\r... */\n    tag_37:\n        /* \"contracts/Buidl11.sol\":225:230  owner */\n      0x00\n      dup1\n      sload\n      swap1\n      0x0100\n      exp\n      swap1\n      div\n      0xffffffffffffffffffffffffffffffffffffffff\n      and\n        /* \"contracts/Buidl11.sol\":213:230  msg.sender==owner */\n      0xffffffffffffffffffffffffffffffffffffffff\n      and\n        /* \"contracts/Buidl11.sol\":213:223  msg.sender */\n      caller\n        /* \"contracts/Buidl11.sol\":213:230  msg.sender==owner */\n      0xffffffffffffffffffffffffffffffffffffffff\n      and\n      eq\n        /* \"contracts/Buidl11.sol\":205:268  require(msg.sender==owner,\"Must be admin to use this funciton\") */\n      tag_179\n      jumpi\n      mload(0x40)\n      0x08c379a000000000000000000000000000000000000000000000000000000000\n      dup2\n      mstore\n      0x04\n      add\n      tag_180\n      swap1\n      tag_141\n      jump\t// in\n    tag_180:\n      mload(0x40)\n      dup1\n      swap2\n      sub\n      swap1\n      revert\n    tag_179:\n        /* \"contracts/Buidl11.sol\":6132:6152  Status.PRE_GAME_USER */\n      0x02\n        /* \"contracts/Buidl11.sol\":6118:6152  gameStatus == Status.PRE_GAME_USER */\n      0x04\n      dup2\n      gt\n      iszero\n      tag_182\n      jumpi\n      tag_183\n      tag_80\n      jump\t// in\n    tag_183:\n    tag_182:\n        /* \"contracts/Buidl11.sol\":6118:6128  gameStatus */\n      0x00\n      0x14\n      swap1\n      sload\n      swap1\n      0x0100\n      exp\n      swap1\n      div\n      0xff\n      and\n        /* \"contracts/Buidl11.sol\":6118:6152  gameStatus == Status.PRE_GAME_USER */\n      0x04\n      dup2\n      gt\n      iszero\n      tag_184\n      jumpi\n      tag_185\n      tag_80\n      jump\t// in\n    tag_185:\n    tag_184:\n      eq\n        /* \"contracts/Buidl11.sol\":6110:6176  require(gameStatus == Status.PRE_GAME_USER, \"Can't change status\") */\n      tag_186\n      jumpi\n      mload(0x40)\n      0x08c379a000000000000000000000000000000000000000000000000000000000\n      dup2\n      mstore\n      0x04\n      add\n      tag_187\n      swap1\n      tag_149\n      jump\t// in\n    tag_187:\n      mload(0x40)\n      dup1\n      swap2\n      sub\n      swap1\n      revert\n    tag_186:\n        /* \"contracts/Buidl11.sol\":6200:6218  Status.GAME_BEGINS */\n      0x03\n        /* \"contracts/Buidl11.sol\":6187:6197  gameStatus */\n      0x00\n      0x14\n        /* \"contracts/Buidl11.sol\":6187:6218  gameStatus = Status.GAME_BEGINS */\n      0x0100\n      exp\n      dup2\n      sload\n      dup2\n      0xff\n      mul\n      not\n      and\n      swap1\n      dup4\n      0x04\n      dup2\n      gt\n      iszero\n      tag_188\n      jumpi\n      tag_189\n      tag_80\n      jump\t// in\n    tag_189:\n    tag_188:\n      mul\n      or\n      swap1\n      sstore\n      pop\n        /* \"contracts/Buidl11.sol\":6063:6226  function gameBegins() public isOwner{\r... */\n      jump\t// out\n        /* \"contracts/Buidl11.sol\":1701:2118  function addPlayerToGame(string[] memory _playerNames) public {\r... */\n    tag_42:\n        /* \"contracts/Buidl11.sol\":1796:1815  Status.PRE_GAME_API */\n      0x01\n        /* \"contracts/Buidl11.sol\":1782:1815  gameStatus == Status.PRE_GAME_API */\n      0x04\n      dup2\n      gt\n      iszero\n      tag_191\n      jumpi\n      tag_192\n      tag_80\n      jump\t// in\n    tag_192:\n    tag_191:\n        /* \"contracts/Buidl11.sol\":1782:1792  gameStatus */\n      0x00\n      0x14\n      swap1\n      sload\n      swap1\n      0x0100\n      exp\n      swap1\n      div\n      0xff\n      and\n        /* \"contracts/Buidl11.sol\":1782:1815  gameStatus == Status.PRE_GAME_API */\n      0x04\n      dup2\n      gt\n      iszero\n      tag_193\n      jumpi\n      tag_194\n      tag_80\n      jump\t// in\n    tag_194:\n    tag_193:\n      eq\n        /* \"contracts/Buidl11.sol\":1774:1840  require(gameStatus == Status.PRE_GAME_API, \"Can't add player now\") */\n      tag_195\n      jumpi\n      mload(0x40)\n      0x08c379a000000000000000000000000000000000000000000000000000000000\n      dup2\n      mstore\n      0x04\n      add\n      tag_196\n      swap1\n      tag_197\n      jump\t// in\n    tag_196:\n      mload(0x40)\n      dup1\n      swap2\n      sub\n      swap1\n      revert\n    tag_195:\n        /* \"contracts/Buidl11.sol\":1857:1863  uint i */\n      0x00\n        /* \"contracts/Buidl11.sol\":1853:2111  for(uint i=0;i<_playerNames.length;i++){\r... */\n    tag_198:\n        /* \"contracts/Buidl11.sol\":1868:1880  _playerNames */\n      dup2\n        /* \"contracts/Buidl11.sol\":1868:1887  _playerNames.length */\n      mload\n        /* \"contracts/Buidl11.sol\":1866:1867  i */\n      dup2\n        /* \"contracts/Buidl11.sol\":1866:1887  i<_playerNames.length */\n      lt\n        /* \"contracts/Buidl11.sol\":1853:2111  for(uint i=0;i<_playerNames.length;i++){\r... */\n      iszero\n      tag_199\n      jumpi\n        /* \"contracts/Buidl11.sol\":1907:1931  string memory playerName */\n      0x00\n        /* \"contracts/Buidl11.sol\":1934:1946  _playerNames */\n      dup3\n        /* \"contracts/Buidl11.sol\":1947:1948  i */\n      dup3\n        /* \"contracts/Buidl11.sol\":1934:1949  _playerNames[i] */\n      dup2\n      mload\n      dup2\n      lt\n      tag_201\n      jumpi\n      tag_202\n      tag_102\n      jump\t// in\n    tag_202:\n    tag_201:\n      0x20\n      mul\n      0x20\n      add\n      add\n      mload\n        /* \"contracts/Buidl11.sol\":1907:1949  string memory playerName = _playerNames[i] */\n      swap1\n      pop\n        /* \"contracts/Buidl11.sol\":1964:1987  Player memory newPlayer */\n      tag_203\n      tag_204\n      jump\t// in\n    tag_203:\n        /* \"contracts/Buidl11.sol\":2015:2025  playerName */\n      dup2\n        /* \"contracts/Buidl11.sol\":1998:2007  newPlayer */\n      dup2\n        /* \"contracts/Buidl11.sol\":1998:2012  newPlayer.name */\n      0x20\n      add\n        /* \"contracts/Buidl11.sol\":1998:2025  newPlayer.name = playerName */\n      dup2\n      swap1\n      mstore\n      pop\n        /* \"contracts/Buidl11.sol\":2051:2058  players */\n      0x01\n        /* \"contracts/Buidl11.sol\":2051:2065  players.length */\n      dup1\n      sload\n      swap1\n      pop\n        /* \"contracts/Buidl11.sol\":2036:2045  newPlayer */\n      dup2\n        /* \"contracts/Buidl11.sol\":2036:2048  newPlayer.id */\n      0x00\n      add\n        /* \"contracts/Buidl11.sol\":2036:2065  newPlayer.id = players.length */\n      dup2\n      dup2\n      mstore\n      pop\n      pop\n        /* \"contracts/Buidl11.sol\":2076:2083  players */\n      0x01\n        /* \"contracts/Buidl11.sol\":2089:2098  newPlayer */\n      dup2\n        /* \"contracts/Buidl11.sol\":2076:2099  players.push(newPlayer) */\n      swap1\n      dup1\n      0x01\n      dup2\n      sload\n      add\n      dup1\n      dup3\n      sstore\n      dup1\n      swap2\n      pop\n      pop\n      0x01\n      swap1\n      sub\n      swap1\n      0x00\n      mstore\n      keccak256(0x00, 0x20)\n      swap1\n      0x04\n      mul\n      add\n      0x00\n      swap1\n      swap2\n      swap1\n      swap2\n      swap1\n      swap2\n      pop\n      0x00\n      dup3\n      add\n      mload\n      dup2\n      0x00\n      add\n      sstore\n      0x20\n      dup3\n      add\n      mload\n      dup2\n      0x01\n      add\n      swap1\n      dup1\n      mload\n      swap1\n      0x20\n      add\n      swap1\n      tag_206\n      swap3\n      swap2\n      swap1\n      tag_207\n      jump\t// in\n    tag_206:\n      pop\n      0x40\n      dup3\n      add\n      mload\n      dup2\n      0x02\n      add\n      0x00\n      dup3\n      add\n      mload\n      dup2\n      0x00\n      add\n      sstore\n      0x20\n      dup3\n      add\n      mload\n      dup2\n      0x01\n      add\n      sstore\n      pop\n      pop\n      pop\n      pop\n        /* \"contracts/Buidl11.sol\":1892:2111  {\r... */\n      pop\n      pop\n        /* \"contracts/Buidl11.sol\":1888:1891  i++ */\n      dup1\n      dup1\n      tag_208\n      swap1\n      tag_209\n      jump\t// in\n    tag_208:\n      swap2\n      pop\n      pop\n        /* \"contracts/Buidl11.sol\":1853:2111  for(uint i=0;i<_playerNames.length;i++){\r... */\n      jump(tag_198)\n    tag_199:\n      pop\n        /* \"contracts/Buidl11.sol\":1701:2118  function addPlayerToGame(string[] memory _playerNames) public {\r... */\n      pop\n      jump\t// out\n        /* \"contracts/Buidl11.sol\":10281:11117  function listPlayers() public view returns (string memory) {\r... */\n    tag_45:\n        /* \"contracts/Buidl11.sol\":10325:10338  string memory */\n      0x60\n        /* \"contracts/Buidl11.sol\":10387:10407  Status.PRE_GAME_USER */\n      0x02\n        /* \"contracts/Buidl11.sol\":10373:10407  gameStatus == Status.PRE_GAME_USER */\n      0x04\n      dup2\n      gt\n      iszero\n      tag_211\n      jumpi\n      tag_212\n      tag_80\n      jump\t// in\n    tag_212:\n    tag_211:\n        /* \"contracts/Buidl11.sol\":10373:10383  gameStatus */\n      0x00\n      0x14\n      swap1\n      sload\n      swap1\n      0x0100\n      exp\n      swap1\n      div\n      0xff\n      and\n        /* \"contracts/Buidl11.sol\":10373:10407  gameStatus == Status.PRE_GAME_USER */\n      0x04\n      dup2\n      gt\n      iszero\n      tag_213\n      jumpi\n      tag_214\n      tag_80\n      jump\t// in\n    tag_214:\n    tag_213:\n      eq\n        /* \"contracts/Buidl11.sol\":10351:10462  require(\r... */\n      tag_215\n      jumpi\n      mload(0x40)\n      0x08c379a000000000000000000000000000000000000000000000000000000000\n      dup2\n      mstore\n      0x04\n      add\n      tag_216\n      swap1\n      tag_217\n      jump\t// in\n    tag_216:\n      mload(0x40)\n      dup1\n      swap2\n      sub\n      swap1\n      revert\n    tag_215:\n        /* \"contracts/Buidl11.sol\":10475:10500  string memory playersList */\n      0x00\n        /* \"contracts/Buidl11.sol\":10475:10505  string memory playersList = \"\" */\n      mload(0x40)\n      dup1\n      0x20\n      add\n      0x40\n      mstore\n      dup1\n      0x00\n      dup2\n      mstore\n      pop\n      swap1\n      pop\n        /* \"contracts/Buidl11.sol\":10521:10530  uint256 i */\n      0x00\n        /* \"contracts/Buidl11.sol\":10516:11081  for (uint256 i = 0; i < players.length; i++) {\r... */\n    tag_218:\n        /* \"contracts/Buidl11.sol\":10540:10547  players */\n      0x01\n        /* \"contracts/Buidl11.sol\":10540:10554  players.length */\n      dup1\n      sload\n      swap1\n      pop\n        /* \"contracts/Buidl11.sol\":10536:10537  i */\n      dup2\n        /* \"contracts/Buidl11.sol\":10536:10554  i < players.length */\n      lt\n        /* \"contracts/Buidl11.sol\":10516:11081  for (uint256 i = 0; i < players.length; i++) {\r... */\n      iszero\n      tag_219\n      jumpi\n        /* \"contracts/Buidl11.sol\":10614:10625  playersList */\n      dup2\n        /* \"contracts/Buidl11.sol\":10597:10641  abi.encodePacked(playersList, \"Player ID: \") */\n      add(0x20, mload(0x40))\n      tag_221\n      swap2\n      swap1\n      tag_222\n      jump\t// in\n    tag_221:\n      mload(0x40)\n      0x20\n      dup2\n      dup4\n      sub\n      sub\n      dup2\n      mstore\n      swap1\n      0x40\n      mstore\n        /* \"contracts/Buidl11.sol\":10576:10642  playersList = string(abi.encodePacked(playersList, \"Player ID: \")) */\n      swap2\n      pop\n        /* \"contracts/Buidl11.sol\":10713:10724  playersList */\n      dup2\n        /* \"contracts/Buidl11.sol\":10726:10749  uint2str(players[i].id) */\n      tag_223\n        /* \"contracts/Buidl11.sol\":10735:10742  players */\n      0x01\n        /* \"contracts/Buidl11.sol\":10743:10744  i */\n      dup4\n        /* \"contracts/Buidl11.sol\":10735:10745  players[i] */\n      dup2\n      sload\n      dup2\n      lt\n      tag_224\n      jumpi\n      tag_225\n      tag_102\n      jump\t// in\n    tag_225:\n    tag_224:\n      swap1\n      0x00\n      mstore\n      keccak256(0x00, 0x20)\n      swap1\n      0x04\n      mul\n      add\n        /* \"contracts/Buidl11.sol\":10735:10748  players[i].id */\n      0x00\n      add\n      sload\n        /* \"contracts/Buidl11.sol\":10726:10734  uint2str */\n      tag_227\n        /* \"contracts/Buidl11.sol\":10726:10749  uint2str(players[i].id) */\n      jump\t// in\n    tag_223:\n        /* \"contracts/Buidl11.sol\":10696:10750  abi.encodePacked(playersList, uint2str(players[i].id)) */\n      add(0x20, mload(0x40))\n      tag_228\n      swap3\n      swap2\n      swap1\n      tag_229\n      jump\t// in\n    tag_228:\n      mload(0x40)\n      0x20\n      dup2\n      dup4\n      sub\n      sub\n      dup2\n      mstore\n      swap1\n      0x40\n      mstore\n        /* \"contracts/Buidl11.sol\":10657:10765  playersList = string(\r... */\n      swap2\n      pop\n        /* \"contracts/Buidl11.sol\":10836:10847  playersList */\n      dup2\n        /* \"contracts/Buidl11.sol\":10819:10867  abi.encodePacked(playersList, \"; Player Name: \") */\n      add(0x20, mload(0x40))\n      tag_230\n      swap2\n      swap1\n      tag_231\n      jump\t// in\n    tag_230:\n      mload(0x40)\n      0x20\n      dup2\n      dup4\n      sub\n      sub\n      dup2\n      mstore\n      swap1\n      0x40\n      mstore\n        /* \"contracts/Buidl11.sol\":10780:10882  playersList = string(\r... */\n      swap2\n      pop\n        /* \"contracts/Buidl11.sol\":10953:10964  playersList */\n      dup2\n        /* \"contracts/Buidl11.sol\":10966:10973  players */\n      0x01\n        /* \"contracts/Buidl11.sol\":10974:10975  i */\n      dup3\n        /* \"contracts/Buidl11.sol\":10966:10976  players[i] */\n      dup2\n      sload\n      dup2\n      lt\n      tag_232\n      jumpi\n      tag_233\n      tag_102\n      jump\t// in\n    tag_233:\n    tag_232:\n      swap1\n      0x00\n      mstore\n      keccak256(0x00, 0x20)\n      swap1\n      0x04\n      mul\n      add\n        /* \"contracts/Buidl11.sol\":10966:10981  players[i].name */\n      0x01\n      add\n        /* \"contracts/Buidl11.sol\":10936:10982  abi.encodePacked(playersList, players[i].name) */\n      add(0x20, mload(0x40))\n      tag_235\n      swap3\n      swap2\n      swap1\n      tag_236\n      jump\t// in\n    tag_235:\n      mload(0x40)\n      0x20\n      dup2\n      dup4\n      sub\n      sub\n      dup2\n      mstore\n      swap1\n      0x40\n      mstore\n        /* \"contracts/Buidl11.sol\":10897:10997  playersList = string(\r... */\n      swap2\n      pop\n        /* \"contracts/Buidl11.sol\":11050:11061  playersList */\n      dup2\n        /* \"contracts/Buidl11.sol\":11033:11068  abi.encodePacked(playersList, \"\\n\") */\n      add(0x20, mload(0x40))\n      tag_237\n      swap2\n      swap1\n      tag_238\n      jump\t// in\n    tag_237:\n      mload(0x40)\n      0x20\n      dup2\n      dup4\n      sub\n      sub\n      dup2\n      mstore\n      swap1\n      0x40\n      mstore\n        /* \"contracts/Buidl11.sol\":11012:11069  playersList = string(abi.encodePacked(playersList, \"\\n\")) */\n      swap2\n      pop\n        /* \"contracts/Buidl11.sol\":10556:10559  i++ */\n      dup1\n      dup1\n      tag_239\n      swap1\n      tag_209\n      jump\t// in\n    tag_239:\n      swap2\n      pop\n      pop\n        /* \"contracts/Buidl11.sol\":10516:11081  for (uint256 i = 0; i < players.length; i++) {\r... */\n      jump(tag_218)\n    tag_219:\n      pop\n        /* \"contracts/Buidl11.sol\":11098:11109  playersList */\n      dup1\n        /* \"contracts/Buidl11.sol\":11091:11109  return playersList */\n      swap2\n      pop\n      pop\n        /* \"contracts/Buidl11.sol\":10281:11117  function listPlayers() public view returns (string memory) {\r... */\n      swap1\n      jump\t// out\n        /* \"contracts/Buidl11.sol\":1613:1692  function getAdmin() public view returns(address){\r... */\n    tag_50:\n        /* \"contracts/Buidl11.sol\":1653:1660  address */\n      0x00\n        /* \"contracts/Buidl11.sol\":1679:1684  owner */\n      dup1\n      0x00\n      swap1\n      sload\n      swap1\n      0x0100\n      exp\n      swap1\n      div\n      0xffffffffffffffffffffffffffffffffffffffff\n      and\n        /* \"contracts/Buidl11.sol\":1672:1684  return owner */\n      swap1\n      pop\n        /* \"contracts/Buidl11.sol\":1613:1692  function getAdmin() public view returns(address){\r... */\n      swap1\n      jump\t// out\n        /* \"contracts/Buidl11.sol\":3634:4573  function addPlayerToFantasyTeam(uint256[] memory _playerIDs) public \r... */\n    tag_57:\n        /* \"contracts/Buidl11.sol\":3723:3729  uint i */\n      0x00\n        /* \"contracts/Buidl11.sol\":3719:4566  for(uint i=0;i<_playerIDs.length;i++){\r... */\n    tag_242:\n        /* \"contracts/Buidl11.sol\":3734:3744  _playerIDs */\n      dup2\n        /* \"contracts/Buidl11.sol\":3734:3751  _playerIDs.length */\n      mload\n        /* \"contracts/Buidl11.sol\":3732:3733  i */\n      dup2\n        /* \"contracts/Buidl11.sol\":3732:3751  i<_playerIDs.length */\n      lt\n        /* \"contracts/Buidl11.sol\":3719:4566  for(uint i=0;i<_playerIDs.length;i++){\r... */\n      iszero\n      tag_243\n      jumpi\n        /* \"contracts/Buidl11.sol\":3773:3789  uint256 playerID */\n      0x00\n        /* \"contracts/Buidl11.sol\":3792:3802  _playerIDs */\n      dup3\n        /* \"contracts/Buidl11.sol\":3803:3804  i */\n      dup3\n        /* \"contracts/Buidl11.sol\":3792:3805  _playerIDs[i] */\n      dup2\n      mload\n      dup2\n      lt\n      tag_245\n      jumpi\n      tag_246\n      tag_102\n      jump\t// in\n    tag_246:\n    tag_245:\n      0x20\n      mul\n      0x20\n      add\n      add\n      mload\n        /* \"contracts/Buidl11.sol\":3773:3805  uint256 playerID = _playerIDs[i] */\n      swap1\n      pop\n        /* \"contracts/Buidl11.sol\":3839:3846  players */\n      0x01\n        /* \"contracts/Buidl11.sol\":3839:3853  players.length */\n      dup1\n      sload\n      swap1\n      pop\n        /* \"contracts/Buidl11.sol\":3828:3836  playerID */\n      dup2\n        /* \"contracts/Buidl11.sol\":3828:3853  playerID < players.length */\n      lt\n        /* \"contracts/Buidl11.sol\":3820:3879  require(playerID < players.length, \"Player does not exist\") */\n      tag_247\n      jumpi\n      mload(0x40)\n      0x08c379a000000000000000000000000000000000000000000000000000000000\n      dup2\n      mstore\n      0x04\n      add\n      tag_248\n      swap1\n      tag_73\n      jump\t// in\n    tag_248:\n      mload(0x40)\n      dup1\n      swap2\n      sub\n      swap1\n      revert\n    tag_247:\n        /* \"contracts/Buidl11.sol\":3930:3950  Status.PRE_GAME_USER */\n      0x02\n        /* \"contracts/Buidl11.sol\":3916:3950  gameStatus == Status.PRE_GAME_USER */\n      0x04\n      dup2\n      gt\n      iszero\n      tag_249\n      jumpi\n      tag_250\n      tag_80\n      jump\t// in\n    tag_250:\n    tag_249:\n        /* \"contracts/Buidl11.sol\":3916:3926  gameStatus */\n      0x00\n      0x14\n      swap1\n      sload\n      swap1\n      0x0100\n      exp\n      swap1\n      div\n      0xff\n      and\n        /* \"contracts/Buidl11.sol\":3916:3950  gameStatus == Status.PRE_GAME_USER */\n      0x04\n      dup2\n      gt\n      iszero\n      tag_251\n      jumpi\n      tag_252\n      tag_80\n      jump\t// in\n    tag_252:\n    tag_251:\n      eq\n        /* \"contracts/Buidl11.sol\":3894:4020  require(\r... */\n      tag_253\n      jumpi\n      mload(0x40)\n      0x08c379a000000000000000000000000000000000000000000000000000000000\n      dup2\n      mstore\n      0x04\n      add\n      tag_254\n      swap1\n      tag_255\n      jump\t// in\n    tag_254:\n      mload(0x40)\n      dup1\n      swap2\n      sub\n      swap1\n      revert\n    tag_253:\n        /* \"contracts/Buidl11.sol\":4033:4054  uint256 fantasyTeamID */\n      0x00\n        /* \"contracts/Buidl11.sol\":4057:4085  getFantasyTeamID(msg.sender) */\n      tag_256\n        /* \"contracts/Buidl11.sol\":4074:4084  msg.sender */\n      caller\n        /* \"contracts/Buidl11.sol\":4057:4073  getFantasyTeamID */\n      tag_87\n        /* \"contracts/Buidl11.sol\":4057:4085  getFantasyTeamID(msg.sender) */\n      jump\t// in\n    tag_256:\n        /* \"contracts/Buidl11.sol\":4033:4085  uint256 fantasyTeamID = getFantasyTeamID(msg.sender) */\n      swap1\n      pop\n        /* \"contracts/Buidl11.sol\":4135:4147  fantasyTeams */\n      0x02\n        /* \"contracts/Buidl11.sol\":4135:4154  fantasyTeams.length */\n      dup1\n      sload\n      swap1\n      pop\n        /* \"contracts/Buidl11.sol\":4118:4131  fantasyTeamID */\n      dup2\n        /* \"contracts/Buidl11.sol\":4118:4154  fantasyTeamID != fantasyTeams.length */\n      eq\n      iszero\n        /* \"contracts/Buidl11.sol\":4096:4215  require(\r... */\n      tag_257\n      jumpi\n      mload(0x40)\n      0x08c379a000000000000000000000000000000000000000000000000000000000\n      dup2\n      mstore\n      0x04\n      add\n      tag_258\n      swap1\n      tag_90\n      jump\t// in\n    tag_258:\n      mload(0x40)\n      dup1\n      swap2\n      sub\n      swap1\n      revert\n    tag_257:\n        /* \"contracts/Buidl11.sol\":4249:4301  existsPlayerIdInFantasyTeam(playerID, fantasyTeamID) */\n      tag_259\n        /* \"contracts/Buidl11.sol\":4277:4285  playerID */\n      dup3\n        /* \"contracts/Buidl11.sol\":4287:4300  fantasyTeamID */\n      dup3\n        /* \"contracts/Buidl11.sol\":4249:4276  existsPlayerIdInFantasyTeam */\n      tag_92\n        /* \"contracts/Buidl11.sol\":4249:4301  existsPlayerIdInFantasyTeam(playerID, fantasyTeamID) */\n      jump\t// in\n    tag_259:\n        /* \"contracts/Buidl11.sol\":4248:4301  !existsPlayerIdInFantasyTeam(playerID, fantasyTeamID) */\n      iszero\n        /* \"contracts/Buidl11.sol\":4226:4355  require(\r... */\n      tag_260\n      jumpi\n      mload(0x40)\n      0x08c379a000000000000000000000000000000000000000000000000000000000\n      dup2\n      mstore\n      0x04\n      add\n      tag_261\n      swap1\n      tag_262\n      jump\t// in\n    tag_261:\n      mload(0x40)\n      dup1\n      swap2\n      sub\n      swap1\n      revert\n    tag_260:\n        /* \"contracts/Buidl11.sol\":4435:4444  TEAM_SIZE */\n      sload(0x03)\n        /* \"contracts/Buidl11.sol\":4388:4400  fantasyTeams */\n      0x02\n        /* \"contracts/Buidl11.sol\":4401:4414  fantasyTeamID */\n      dup3\n        /* \"contracts/Buidl11.sol\":4388:4415  fantasyTeams[fantasyTeamID] */\n      dup2\n      sload\n      dup2\n      lt\n      tag_263\n      jumpi\n      tag_264\n      tag_102\n      jump\t// in\n    tag_264:\n    tag_263:\n      swap1\n      0x00\n      mstore\n      keccak256(0x00, 0x20)\n      swap1\n      0x07\n      mul\n      add\n        /* \"contracts/Buidl11.sol\":4388:4425  fantasyTeams[fantasyTeamID].playerIds */\n      0x02\n      add\n        /* \"contracts/Buidl11.sol\":4388:4432  fantasyTeams[fantasyTeamID].playerIds.length */\n      dup1\n      sload\n      swap1\n      pop\n        /* \"contracts/Buidl11.sol\":4388:4444  fantasyTeams[fantasyTeamID].playerIds.length < TEAM_SIZE */\n      lt\n        /* \"contracts/Buidl11.sol\":4366:4489  require(\r... */\n      tag_266\n      jumpi\n      mload(0x40)\n      0x08c379a000000000000000000000000000000000000000000000000000000000\n      dup2\n      mstore\n      0x04\n      add\n      tag_267\n      swap1\n      tag_268\n      jump\t// in\n    tag_267:\n      mload(0x40)\n      dup1\n      swap2\n      sub\n      swap1\n      revert\n    tag_266:\n        /* \"contracts/Buidl11.sol\":4502:4514  fantasyTeams */\n      0x02\n        /* \"contracts/Buidl11.sol\":4515:4528  fantasyTeamID */\n      dup2\n        /* \"contracts/Buidl11.sol\":4502:4529  fantasyTeams[fantasyTeamID] */\n      dup2\n      sload\n      dup2\n      lt\n      tag_269\n      jumpi\n      tag_270\n      tag_102\n      jump\t// in\n    tag_270:\n    tag_269:\n      swap1\n      0x00\n      mstore\n      keccak256(0x00, 0x20)\n      swap1\n      0x07\n      mul\n      add\n        /* \"contracts/Buidl11.sol\":4502:4539  fantasyTeams[fantasyTeamID].playerIds */\n      0x02\n      add\n        /* \"contracts/Buidl11.sol\":4545:4553  playerID */\n      dup3\n        /* \"contracts/Buidl11.sol\":4502:4554  fantasyTeams[fantasyTeamID].playerIds.push(playerID) */\n      swap1\n      dup1\n      0x01\n      dup2\n      sload\n      add\n      dup1\n      dup3\n      sstore\n      dup1\n      swap2\n      pop\n      pop\n      0x01\n      swap1\n      sub\n      swap1\n      0x00\n      mstore\n      keccak256(0x00, 0x20)\n      add\n      0x00\n      swap1\n      swap2\n      swap1\n      swap2\n      swap1\n      swap2\n      pop\n      sstore\n        /* \"contracts/Buidl11.sol\":3756:4566  {\r... */\n      pop\n      pop\n        /* \"contracts/Buidl11.sol\":3752:3755  i++ */\n      dup1\n      dup1\n      tag_273\n      swap1\n      tag_209\n      jump\t// in\n    tag_273:\n      swap2\n      pop\n      pop\n        /* \"contracts/Buidl11.sol\":3719:4566  for(uint i=0;i<_playerIDs.length;i++){\r... */\n      jump(tag_242)\n    tag_243:\n      pop\n        /* \"contracts/Buidl11.sol\":3634:4573  function addPlayerToFantasyTeam(uint256[] memory _playerIDs) public \r... */\n      pop\n      jump\t// out\n        /* \"contracts/Buidl11.sol\":8331:8987  function calculateTeamsScore() public {\r... */\n    tag_60:\n        /* \"contracts/Buidl11.sol\":8402:8419  Status.GAME_STOPS */\n      0x04\n        /* \"contracts/Buidl11.sol\":8388:8419  gameStatus == Status.GAME_STOPS */\n      dup1\n      dup2\n      gt\n      iszero\n      tag_275\n      jumpi\n      tag_276\n      tag_80\n      jump\t// in\n    tag_276:\n    tag_275:\n        /* \"contracts/Buidl11.sol\":8388:8398  gameStatus */\n      0x00\n      0x14\n      swap1\n      sload\n      swap1\n      0x0100\n      exp\n      swap1\n      div\n      0xff\n      and\n        /* \"contracts/Buidl11.sol\":8388:8419  gameStatus == Status.GAME_STOPS */\n      0x04\n      dup2\n      gt\n      iszero\n      tag_277\n      jumpi\n      tag_278\n      tag_80\n      jump\t// in\n    tag_278:\n    tag_277:\n      eq\n        /* \"contracts/Buidl11.sol\":8380:8444  require(gameStatus == Status.GAME_STOPS, \"Game has not stopped\") */\n      tag_279\n      jumpi\n      mload(0x40)\n      0x08c379a000000000000000000000000000000000000000000000000000000000\n      dup2\n      mstore\n      0x04\n      add\n      tag_280\n      swap1\n      tag_281\n      jump\t// in\n    tag_280:\n      mload(0x40)\n      dup1\n      swap2\n      sub\n      swap1\n      revert\n    tag_279:\n        /* \"contracts/Buidl11.sol\":8462:8471  uint256 i */\n      0x00\n        /* \"contracts/Buidl11.sol\":8457:8900  for (uint256 i = 0; i < fantasyTeams.length; i++) {\r... */\n    tag_282:\n        /* \"contracts/Buidl11.sol\":8481:8493  fantasyTeams */\n      0x02\n        /* \"contracts/Buidl11.sol\":8481:8500  fantasyTeams.length */\n      dup1\n      sload\n      swap1\n      pop\n        /* \"contracts/Buidl11.sol\":8477:8478  i */\n      dup2\n        /* \"contracts/Buidl11.sol\":8477:8500  i < fantasyTeams.length */\n      lt\n        /* \"contracts/Buidl11.sol\":8457:8900  for (uint256 i = 0; i < fantasyTeams.length; i++) {\r... */\n      iszero\n      tag_283\n      jumpi\n        /* \"contracts/Buidl11.sol\":8522:8545  FantasyTeam memory team */\n      0x00\n        /* \"contracts/Buidl11.sol\":8548:8560  fantasyTeams */\n      0x02\n        /* \"contracts/Buidl11.sol\":8561:8562  i */\n      dup3\n        /* \"contracts/Buidl11.sol\":8548:8563  fantasyTeams[i] */\n      dup2\n      sload\n      dup2\n      lt\n      tag_285\n      jumpi\n      tag_286\n      tag_102\n      jump\t// in\n    tag_286:\n    tag_285:\n      swap1\n      0x00\n      mstore\n      keccak256(0x00, 0x20)\n      swap1\n      0x07\n      mul\n      add\n        /* \"contracts/Buidl11.sol\":8522:8563  FantasyTeam memory team = fantasyTeams[i] */\n      mload(0x40)\n      dup1\n      0xe0\n      add\n      0x40\n      mstore\n      swap1\n      dup2\n      0x00\n      dup3\n      add\n      0x00\n      swap1\n      sload\n      swap1\n      0x0100\n      exp\n      swap1\n      div\n      0xffffffffffffffffffffffffffffffffffffffff\n      and\n      0xffffffffffffffffffffffffffffffffffffffff\n      and\n      0xffffffffffffffffffffffffffffffffffffffff\n      and\n      dup2\n      mstore\n      0x20\n      add\n      0x01\n      dup3\n      add\n      dup1\n      sload\n      tag_288\n      swap1\n      tag_122\n      jump\t// in\n    tag_288:\n      dup1\n      0x1f\n      add\n      0x20\n      dup1\n      swap2\n      div\n      mul\n      0x20\n      add\n      mload(0x40)\n      swap1\n      dup2\n      add\n      0x40\n      mstore\n      dup1\n      swap3\n      swap2\n      swap1\n      dup2\n      dup2\n      mstore\n      0x20\n      add\n      dup3\n      dup1\n      sload\n      tag_289\n      swap1\n      tag_122\n      jump\t// in\n    tag_289:\n      dup1\n      iszero\n      tag_290\n      jumpi\n      dup1\n      0x1f\n      lt\n      tag_291\n      jumpi\n      0x0100\n      dup1\n      dup4\n      sload\n      div\n      mul\n      dup4\n      mstore\n      swap2\n      0x20\n      add\n      swap2\n      jump(tag_290)\n    tag_291:\n      dup3\n      add\n      swap2\n      swap1\n      0x00\n      mstore\n      keccak256(0x00, 0x20)\n      swap1\n    tag_292:\n      dup2\n      sload\n      dup2\n      mstore\n      swap1\n      0x01\n      add\n      swap1\n      0x20\n      add\n      dup1\n      dup4\n      gt\n      tag_292\n      jumpi\n      dup3\n      swap1\n      sub\n      0x1f\n      and\n      dup3\n      add\n      swap2\n    tag_290:\n      pop\n      pop\n      pop\n      pop\n      pop\n      dup2\n      mstore\n      0x20\n      add\n      0x02\n      dup3\n      add\n      dup1\n      sload\n      dup1\n      0x20\n      mul\n      0x20\n      add\n      mload(0x40)\n      swap1\n      dup2\n      add\n      0x40\n      mstore\n      dup1\n      swap3\n      swap2\n      swap1\n      dup2\n      dup2\n      mstore\n      0x20\n      add\n      dup3\n      dup1\n      sload\n      dup1\n      iszero\n      tag_293\n      jumpi\n      0x20\n      mul\n      dup3\n      add\n      swap2\n      swap1\n      0x00\n      mstore\n      keccak256(0x00, 0x20)\n      swap1\n    tag_294:\n      dup2\n      sload\n      dup2\n      mstore\n      0x20\n      add\n      swap1\n      0x01\n      add\n      swap1\n      dup1\n      dup4\n      gt\n      tag_294\n      jumpi\n    tag_293:\n      pop\n      pop\n      pop\n      pop\n      pop\n      dup2\n      mstore\n      0x20\n      add\n      0x03\n      dup3\n      add\n      sload\n      dup2\n      mstore\n      0x20\n      add\n      0x04\n      dup3\n      add\n      sload\n      dup2\n      mstore\n      0x20\n      add\n      0x05\n      dup3\n      add\n      sload\n      dup2\n      mstore\n      0x20\n      add\n      0x06\n      dup3\n      add\n      sload\n      dup2\n      mstore\n      pop\n      pop\n      swap1\n      pop\n        /* \"contracts/Buidl11.sol\":8583:8592  uint256 j */\n      0x00\n        /* \"contracts/Buidl11.sol\":8578:8889  for (uint256 j = 0; j < team.playerIds.length; j++) {\r... */\n    tag_295:\n        /* \"contracts/Buidl11.sol\":8602:8606  team */\n      dup2\n        /* \"contracts/Buidl11.sol\":8602:8616  team.playerIds */\n      0x40\n      add\n      mload\n        /* \"contracts/Buidl11.sol\":8602:8623  team.playerIds.length */\n      mload\n        /* \"contracts/Buidl11.sol\":8598:8599  j */\n      dup2\n        /* \"contracts/Buidl11.sol\":8598:8623  j < team.playerIds.length */\n      lt\n        /* \"contracts/Buidl11.sol\":8578:8889  for (uint256 j = 0; j < team.playerIds.length; j++) {\r... */\n      iszero\n      tag_296\n      jumpi\n        /* \"contracts/Buidl11.sol\":8674:8873  calculatePlayerScore(\r... */\n      tag_298\n        /* \"contracts/Buidl11.sol\":8717:8721  team */\n      dup3\n        /* \"contracts/Buidl11.sol\":8717:8731  team.playerIds */\n      0x40\n      add\n      mload\n        /* \"contracts/Buidl11.sol\":8732:8733  j */\n      dup3\n        /* \"contracts/Buidl11.sol\":8717:8734  team.playerIds[j] */\n      dup2\n      mload\n      dup2\n      lt\n      tag_299\n      jumpi\n      tag_300\n      tag_102\n      jump\t// in\n    tag_300:\n    tag_299:\n      0x20\n      mul\n      0x20\n      add\n      add\n      mload\n        /* \"contracts/Buidl11.sol\":8775:8779  team */\n      dup4\n        /* \"contracts/Buidl11.sol\":8775:8789  team.playerIds */\n      0x40\n      add\n      mload\n        /* \"contracts/Buidl11.sol\":8790:8791  j */\n      dup4\n        /* \"contracts/Buidl11.sol\":8775:8792  team.playerIds[j] */\n      dup2\n      mload\n      dup2\n      lt\n      tag_301\n      jumpi\n      tag_302\n      tag_102\n      jump\t// in\n    tag_302:\n    tag_301:\n      0x20\n      mul\n      0x20\n      add\n      add\n      mload\n        /* \"contracts/Buidl11.sol\":8757:8761  team */\n      dup5\n        /* \"contracts/Buidl11.sol\":8757:8771  team.captainId */\n      0x60\n      add\n      mload\n        /* \"contracts/Buidl11.sol\":8757:8792  team.captainId == team.playerIds[j] */\n      eq\n        /* \"contracts/Buidl11.sol\":8837:8841  team */\n      dup5\n        /* \"contracts/Buidl11.sol\":8837:8851  team.playerIds */\n      0x40\n      add\n      mload\n        /* \"contracts/Buidl11.sol\":8852:8853  j */\n      dup5\n        /* \"contracts/Buidl11.sol\":8837:8854  team.playerIds[j] */\n      dup2\n      mload\n      dup2\n      lt\n      tag_303\n      jumpi\n      tag_304\n      tag_102\n      jump\t// in\n    tag_304:\n    tag_303:\n      0x20\n      mul\n      0x20\n      add\n      add\n      mload\n        /* \"contracts/Buidl11.sol\":8815:8819  team */\n      dup6\n        /* \"contracts/Buidl11.sol\":8815:8833  team.viceCaptainId */\n      0x80\n      add\n      mload\n        /* \"contracts/Buidl11.sol\":8815:8854  team.viceCaptainId == team.playerIds[j] */\n      eq\n        /* \"contracts/Buidl11.sol\":8674:8694  calculatePlayerScore */\n      tag_305\n        /* \"contracts/Buidl11.sol\":8674:8873  calculatePlayerScore(\r... */\n      jump\t// in\n    tag_298:\n        /* \"contracts/Buidl11.sol\":8649:8661  fantasyTeams */\n      0x02\n        /* \"contracts/Buidl11.sol\":8662:8663  i */\n      dup5\n        /* \"contracts/Buidl11.sol\":8649:8664  fantasyTeams[i] */\n      dup2\n      sload\n      dup2\n      lt\n      tag_306\n      jumpi\n      tag_307\n      tag_102\n      jump\t// in\n    tag_307:\n    tag_306:\n      swap1\n      0x00\n      mstore\n      keccak256(0x00, 0x20)\n      swap1\n      0x07\n      mul\n      add\n        /* \"contracts/Buidl11.sol\":8649:8670  fantasyTeams[i].score */\n      0x06\n      add\n      0x00\n        /* \"contracts/Buidl11.sol\":8649:8873  fantasyTeams[i].score += calculatePlayerScore(\r... */\n      dup3\n      dup3\n      sload\n      tag_309\n      swap2\n      swap1\n      tag_310\n      jump\t// in\n    tag_309:\n      swap3\n      pop\n      pop\n      dup2\n      swap1\n      sstore\n      pop\n        /* \"contracts/Buidl11.sol\":8625:8628  j++ */\n      dup1\n      dup1\n      tag_311\n      swap1\n      tag_209\n      jump\t// in\n    tag_311:\n      swap2\n      pop\n      pop\n        /* \"contracts/Buidl11.sol\":8578:8889  for (uint256 j = 0; j < team.playerIds.length; j++) {\r... */\n      jump(tag_295)\n    tag_296:\n      pop\n        /* \"contracts/Buidl11.sol\":8507:8900  {\r... */\n      pop\n        /* \"contracts/Buidl11.sol\":8502:8505  i++ */\n      dup1\n      dup1\n      tag_312\n      swap1\n      tag_209\n      jump\t// in\n    tag_312:\n      swap2\n      pop\n      pop\n        /* \"contracts/Buidl11.sol\":8457:8900  for (uint256 i = 0; i < fantasyTeams.length; i++) {\r... */\n      jump(tag_282)\n    tag_283:\n      pop\n        /* \"contracts/Buidl11.sol\":8910:8929  distributeRewards() */\n      tag_313\n        /* \"contracts/Buidl11.sol\":8910:8927  distributeRewards */\n      tag_314\n        /* \"contracts/Buidl11.sol\":8910:8929  distributeRewards() */\n      jump\t// in\n    tag_313:\n        /* \"contracts/Buidl11.sol\":8953:8979  Status.NO_GAME_IN_PROGRESS */\n      0x00\n        /* \"contracts/Buidl11.sol\":8940:8950  gameStatus */\n      dup1\n      0x14\n        /* \"contracts/Buidl11.sol\":8940:8979  gameStatus = Status.NO_GAME_IN_PROGRESS */\n      0x0100\n      exp\n      dup2\n      sload\n      dup2\n      0xff\n      mul\n      not\n      and\n      swap1\n      dup4\n      0x04\n      dup2\n      gt\n      iszero\n      tag_315\n      jumpi\n      tag_316\n      tag_80\n      jump\t// in\n    tag_316:\n    tag_315:\n      mul\n      or\n      swap1\n      sstore\n      pop\n        /* \"contracts/Buidl11.sol\":8331:8987  function calculateTeamsScore() public {\r... */\n      jump\t// out\n        /* \"contracts/Buidl11.sol\":3023:3624  function addFantasyTeam(string memory teamName) public {\r... */\n    tag_65:\n        /* \"contracts/Buidl11.sol\":3125:3145  Status.PRE_GAME_USER */\n      0x02\n        /* \"contracts/Buidl11.sol\":3111:3145  gameStatus == Status.PRE_GAME_USER */\n      0x04\n      dup2\n      gt\n      iszero\n      tag_318\n      jumpi\n      tag_319\n      tag_80\n      jump\t// in\n    tag_319:\n    tag_318:\n        /* \"contracts/Buidl11.sol\":3111:3121  gameStatus */\n      0x00\n      0x14\n      swap1\n      sload\n      swap1\n      0x0100\n      exp\n      swap1\n      div\n      0xff\n      and\n        /* \"contracts/Buidl11.sol\":3111:3145  gameStatus == Status.PRE_GAME_USER */\n      0x04\n      dup2\n      gt\n      iszero\n      tag_320\n      jumpi\n      tag_321\n      tag_80\n      jump\t// in\n    tag_321:\n    tag_320:\n      eq\n        /* \"contracts/Buidl11.sol\":3089:3205  require(\r... */\n      tag_322\n      jumpi\n      mload(0x40)\n      0x08c379a000000000000000000000000000000000000000000000000000000000\n      dup2\n      mstore\n      0x04\n      add\n      tag_323\n      swap1\n      tag_324\n      jump\t// in\n    tag_323:\n      mload(0x40)\n      dup1\n      swap2\n      sub\n      swap1\n      revert\n    tag_322:\n        /* \"contracts/Buidl11.sol\":3218:3239  uint256 fantasyTeamID */\n      0x00\n        /* \"contracts/Buidl11.sol\":3242:3270  getFantasyTeamID(msg.sender) */\n      tag_325\n        /* \"contracts/Buidl11.sol\":3259:3269  msg.sender */\n      caller\n        /* \"contracts/Buidl11.sol\":3242:3258  getFantasyTeamID */\n      tag_87\n        /* \"contracts/Buidl11.sol\":3242:3270  getFantasyTeamID(msg.sender) */\n      jump\t// in\n    tag_325:\n        /* \"contracts/Buidl11.sol\":3218:3270  uint256 fantasyTeamID = getFantasyTeamID(msg.sender) */\n      swap1\n      pop\n        /* \"contracts/Buidl11.sol\":3320:3332  fantasyTeams */\n      0x02\n        /* \"contracts/Buidl11.sol\":3320:3339  fantasyTeams.length */\n      dup1\n      sload\n      swap1\n      pop\n        /* \"contracts/Buidl11.sol\":3303:3316  fantasyTeamID */\n      dup2\n        /* \"contracts/Buidl11.sol\":3303:3339  fantasyTeamID == fantasyTeams.length */\n      eq\n        /* \"contracts/Buidl11.sol\":3281:3399  require(\r... */\n      tag_326\n      jumpi\n      mload(0x40)\n      0x08c379a000000000000000000000000000000000000000000000000000000000\n      dup2\n      mstore\n      0x04\n      add\n      tag_327\n      swap1\n      tag_328\n      jump\t// in\n    tag_327:\n      mload(0x40)\n      dup1\n      swap2\n      sub\n      swap1\n      revert\n    tag_326:\n        /* \"contracts/Buidl11.sol\":3412:3438  FantasyTeam memory newTeam */\n      tag_329\n      tag_330\n      jump\t// in\n    tag_329:\n        /* \"contracts/Buidl11.sol\":3464:3472  teamName */\n      dup3\n        /* \"contracts/Buidl11.sol\":3449:3456  newTeam */\n      dup2\n        /* \"contracts/Buidl11.sol\":3449:3461  newTeam.name */\n      0x20\n      add\n        /* \"contracts/Buidl11.sol\":3449:3472  newTeam.name = teamName */\n      dup2\n      swap1\n      mstore\n      pop\n        /* \"contracts/Buidl11.sol\":3501:3511  msg.sender */\n      caller\n        /* \"contracts/Buidl11.sol\":3483:3490  newTeam */\n      dup2\n        /* \"contracts/Buidl11.sol\":3483:3498  newTeam.ownerId */\n      0x00\n      add\n        /* \"contracts/Buidl11.sol\":3483:3511  newTeam.ownerId = msg.sender */\n      swap1\n      0xffffffffffffffffffffffffffffffffffffffff\n      and\n      swap1\n      dup2\n      0xffffffffffffffffffffffffffffffffffffffff\n      and\n      dup2\n      mstore\n      pop\n      pop\n        /* \"contracts/Buidl11.sol\":3542:3543  0 */\n      0x00\n        /* \"contracts/Buidl11.sol\":3522:3529  newTeam */\n      dup2\n        /* \"contracts/Buidl11.sol\":3522:3539  newTeam.captainId */\n      0x60\n      add\n        /* \"contracts/Buidl11.sol\":3522:3543  newTeam.captainId = 0 */\n      dup2\n      dup2\n      mstore\n      pop\n      pop\n        /* \"contracts/Buidl11.sol\":3578:3579  1 */\n      0x01\n        /* \"contracts/Buidl11.sol\":3554:3561  newTeam */\n      dup2\n        /* \"contracts/Buidl11.sol\":3554:3575  newTeam.viceCaptainId */\n      0x80\n      add\n        /* \"contracts/Buidl11.sol\":3554:3579  newTeam.viceCaptainId = 1 */\n      dup2\n      dup2\n      mstore\n      pop\n      pop\n        /* \"contracts/Buidl11.sol\":3590:3602  fantasyTeams */\n      0x02\n        /* \"contracts/Buidl11.sol\":3608:3615  newTeam */\n      dup2\n        /* \"contracts/Buidl11.sol\":3590:3616  fantasyTeams.push(newTeam) */\n      swap1\n      dup1\n      0x01\n      dup2\n      sload\n      add\n      dup1\n      dup3\n      sstore\n      dup1\n      swap2\n      pop\n      pop\n      0x01\n      swap1\n      sub\n      swap1\n      0x00\n      mstore\n      keccak256(0x00, 0x20)\n      swap1\n      0x07\n      mul\n      add\n      0x00\n      swap1\n      swap2\n      swap1\n      swap2\n      swap1\n      swap2\n      pop\n      0x00\n      dup3\n      add\n      mload\n      dup2\n      0x00\n      add\n      exp(0x0100, 0x00)\n      dup2\n      sload\n      dup2\n      0xffffffffffffffffffffffffffffffffffffffff\n      mul\n      not\n      and\n      swap1\n      dup4\n      0xffffffffffffffffffffffffffffffffffffffff\n      and\n      mul\n      or\n      swap1\n      sstore\n      pop\n      0x20\n      dup3\n      add\n      mload\n      dup2\n      0x01\n      add\n      swap1\n      dup1\n      mload\n      swap1\n      0x20\n      add\n      swap1\n      tag_332\n      swap3\n      swap2\n      swap1\n      tag_207\n      jump\t// in\n    tag_332:\n      pop\n      0x40\n      dup3\n      add\n      mload\n      dup2\n      0x02\n      add\n      swap1\n      dup1\n      mload\n      swap1\n      0x20\n      add\n      swap1\n      tag_333\n      swap3\n      swap2\n      swap1\n      tag_334\n      jump\t// in\n    tag_333:\n      pop\n      0x60\n      dup3\n      add\n      mload\n      dup2\n      0x03\n      add\n      sstore\n      0x80\n      dup3\n      add\n      mload\n      dup2\n      0x04\n      add\n      sstore\n      0xa0\n      dup3\n      add\n      mload\n      dup2\n      0x05\n      add\n      sstore\n      0xc0\n      dup3\n      add\n      mload\n      dup2\n      0x06\n      add\n      sstore\n      pop\n      pop\n        /* \"contracts/Buidl11.sol\":3078:3624  {\r... */\n      pop\n      pop\n        /* \"contracts/Buidl11.sol\":3023:3624  function addFantasyTeam(string memory teamName) public {\r... */\n      pop\n      jump\t// out\n        /* \"contracts/Buidl11.sol\":6240:6622  function setplayerStats(\r... */\n    tag_69:\n        /* \"contracts/Buidl11.sol\":6378:6386  playerID */\n      dup3\n        /* \"contracts/Buidl11.sol\":1129:1136  players */\n      0x01\n        /* \"contracts/Buidl11.sol\":1129:1143  players.length */\n      dup1\n      sload\n      swap1\n      pop\n        /* \"contracts/Buidl11.sol\":1118:1126  playerID */\n      dup2\n        /* \"contracts/Buidl11.sol\":1118:1143  playerID < players.length */\n      lt\n        /* \"contracts/Buidl11.sol\":1110:1169  require(playerID < players.length, \"Player does not exist\") */\n      tag_336\n      jumpi\n      mload(0x40)\n      0x08c379a000000000000000000000000000000000000000000000000000000000\n      dup2\n      mstore\n      0x04\n      add\n      tag_337\n      swap1\n      tag_73\n      jump\t// in\n    tag_337:\n      mload(0x40)\n      dup1\n      swap2\n      sub\n      swap1\n      revert\n    tag_336:\n        /* \"contracts/Buidl11.sol\":6440:6458  Status.GAME_BEGINS */\n      0x03\n        /* \"contracts/Buidl11.sol\":6426:6458  gameStatus == Status.GAME_BEGINS */\n      0x04\n      dup2\n      gt\n      iszero\n      tag_339\n      jumpi\n      tag_340\n      tag_80\n      jump\t// in\n    tag_340:\n    tag_339:\n        /* \"contracts/Buidl11.sol\":6426:6436  gameStatus */\n      0x00\n      0x14\n      swap1\n      sload\n      swap1\n      0x0100\n      exp\n      swap1\n      div\n      0xff\n      and\n        /* \"contracts/Buidl11.sol\":6426:6458  gameStatus == Status.GAME_BEGINS */\n      0x04\n      dup2\n      gt\n      iszero\n      tag_341\n      jumpi\n      tag_342\n      tag_80\n      jump\t// in\n    tag_342:\n    tag_341:\n      eq\n        /* \"contracts/Buidl11.sol\":6404:6514  require(\r... */\n      tag_343\n      jumpi\n      mload(0x40)\n      0x08c379a000000000000000000000000000000000000000000000000000000000\n      dup2\n      mstore\n      0x04\n      add\n      tag_344\n      swap1\n      tag_345\n      jump\t// in\n    tag_344:\n      mload(0x40)\n      dup1\n      swap2\n      sub\n      swap1\n      revert\n    tag_343:\n        /* \"contracts/Buidl11.sol\":6558:6562  runs */\n      dup3\n        /* \"contracts/Buidl11.sol\":6527:6534  players */\n      0x01\n        /* \"contracts/Buidl11.sol\":6535:6543  playerID */\n      dup6\n        /* \"contracts/Buidl11.sol\":6527:6544  players[playerID] */\n      dup2\n      sload\n      dup2\n      lt\n      tag_346\n      jumpi\n      tag_347\n      tag_102\n      jump\t// in\n    tag_347:\n    tag_346:\n      swap1\n      0x00\n      mstore\n      keccak256(0x00, 0x20)\n      swap1\n      0x04\n      mul\n      add\n        /* \"contracts/Buidl11.sol\":6527:6550  players[playerID].stats */\n      0x02\n      add\n        /* \"contracts/Buidl11.sol\":6527:6555  players[playerID].stats.runs */\n      0x00\n      add\n        /* \"contracts/Buidl11.sol\":6527:6562  players[playerID].stats.runs = runs */\n      dup2\n      swap1\n      sstore\n      pop\n        /* \"contracts/Buidl11.sol\":6607:6614  wickets */\n      dup2\n        /* \"contracts/Buidl11.sol\":6573:6580  players */\n      0x01\n        /* \"contracts/Buidl11.sol\":6581:6589  playerID */\n      dup6\n        /* \"contracts/Buidl11.sol\":6573:6590  players[playerID] */\n      dup2\n      sload\n      dup2\n      lt\n      tag_349\n      jumpi\n      tag_350\n      tag_102\n      jump\t// in\n    tag_350:\n    tag_349:\n      swap1\n      0x00\n      mstore\n      keccak256(0x00, 0x20)\n      swap1\n      0x04\n      mul\n      add\n        /* \"contracts/Buidl11.sol\":6573:6596  players[playerID].stats */\n      0x02\n      add\n        /* \"contracts/Buidl11.sol\":6573:6604  players[playerID].stats.wickets */\n      0x01\n      add\n        /* \"contracts/Buidl11.sol\":6573:6614  players[playerID].stats.wickets = wickets */\n      dup2\n      swap1\n      sstore\n      pop\n        /* \"contracts/Buidl11.sol\":6240:6622  function setplayerStats(\r... */\n      pop\n      pop\n      pop\n      pop\n      jump\t// out\n        /* \"contracts/Buidl11.sol\":2132:2420  function getFantasyTeamID(address ownerId) private view returns (uint256) {\r... */\n    tag_87:\n        /* \"contracts/Buidl11.sol\":2197:2204  uint256 */\n      0x00\n        /* \"contracts/Buidl11.sol\":2222:2231  uint256 i */\n      dup1\n        /* \"contracts/Buidl11.sol\":2234:2235  0 */\n      0x00\n        /* \"contracts/Buidl11.sol\":2222:2235  uint256 i = 0 */\n      swap1\n      pop\n        /* \"contracts/Buidl11.sol\":2217:2376  for (uint256 i = 0; i < fantasyTeams.length; i++) {\r... */\n    tag_353:\n        /* \"contracts/Buidl11.sol\":2241:2253  fantasyTeams */\n      0x02\n        /* \"contracts/Buidl11.sol\":2241:2260  fantasyTeams.length */\n      dup1\n      sload\n      swap1\n      pop\n        /* \"contracts/Buidl11.sol\":2237:2238  i */\n      dup2\n        /* \"contracts/Buidl11.sol\":2237:2260  i < fantasyTeams.length */\n      lt\n        /* \"contracts/Buidl11.sol\":2217:2376  for (uint256 i = 0; i < fantasyTeams.length; i++) {\r... */\n      iszero\n      tag_354\n      jumpi\n        /* \"contracts/Buidl11.sol\":2313:2320  ownerId */\n      dup3\n        /* \"contracts/Buidl11.sol\":2286:2320  fantasyTeams[i].ownerId == ownerId */\n      0xffffffffffffffffffffffffffffffffffffffff\n      and\n        /* \"contracts/Buidl11.sol\":2286:2298  fantasyTeams */\n      0x02\n        /* \"contracts/Buidl11.sol\":2299:2300  i */\n      dup3\n        /* \"contracts/Buidl11.sol\":2286:2301  fantasyTeams[i] */\n      dup2\n      sload\n      dup2\n      lt\n      tag_356\n      jumpi\n      tag_357\n      tag_102\n      jump\t// in\n    tag_357:\n    tag_356:\n      swap1\n      0x00\n      mstore\n      keccak256(0x00, 0x20)\n      swap1\n      0x07\n      mul\n      add\n        /* \"contracts/Buidl11.sol\":2286:2309  fantasyTeams[i].ownerId */\n      0x00\n      add\n      0x00\n      swap1\n      sload\n      swap1\n      0x0100\n      exp\n      swap1\n      div\n      0xffffffffffffffffffffffffffffffffffffffff\n      and\n        /* \"contracts/Buidl11.sol\":2286:2320  fantasyTeams[i].ownerId == ownerId */\n      0xffffffffffffffffffffffffffffffffffffffff\n      and\n      eq\n        /* \"contracts/Buidl11.sol\":2282:2365  if (fantasyTeams[i].ownerId == ownerId) {\r... */\n      iszero\n      tag_359\n      jumpi\n        /* \"contracts/Buidl11.sol\":2348:2349  i */\n      dup1\n        /* \"contracts/Buidl11.sol\":2341:2349  return i */\n      swap2\n      pop\n      pop\n      jump(tag_352)\n        /* \"contracts/Buidl11.sol\":2282:2365  if (fantasyTeams[i].ownerId == ownerId) {\r... */\n    tag_359:\n        /* \"contracts/Buidl11.sol\":2262:2265  i++ */\n      dup1\n      dup1\n      tag_360\n      swap1\n      tag_209\n      jump\t// in\n    tag_360:\n      swap2\n      pop\n      pop\n        /* \"contracts/Buidl11.sol\":2217:2376  for (uint256 i = 0; i < fantasyTeams.length; i++) {\r... */\n      jump(tag_353)\n    tag_354:\n      pop\n        /* \"contracts/Buidl11.sol\":2393:2405  fantasyTeams */\n      0x02\n        /* \"contracts/Buidl11.sol\":2393:2412  fantasyTeams.length */\n      dup1\n      sload\n      swap1\n      pop\n        /* \"contracts/Buidl11.sol\":2386:2412  return fantasyTeams.length */\n      swap1\n      pop\n        /* \"contracts/Buidl11.sol\":2132:2420  function getFantasyTeamID(address ownerId) private view returns (uint256) {\r... */\n    tag_352:\n      swap2\n      swap1\n      pop\n      jump\t// out\n        /* \"contracts/Buidl11.sol\":2433:2831  function existsPlayerIdInFantasyTeam(\r... */\n    tag_92:\n        /* \"contracts/Buidl11.sol\":2558:2562  bool */\n      0x00\n        /* \"contracts/Buidl11.sol\":2575:2601  uint256[] memory playerIds */\n      dup1\n        /* \"contracts/Buidl11.sol\":2604:2616  fantasyTeams */\n      0x02\n        /* \"contracts/Buidl11.sol\":2617:2630  fantasyTeamID */\n      dup4\n        /* \"contracts/Buidl11.sol\":2604:2631  fantasyTeams[fantasyTeamID] */\n      dup2\n      sload\n      dup2\n      lt\n      tag_362\n      jumpi\n      tag_363\n      tag_102\n      jump\t// in\n    tag_363:\n    tag_362:\n      swap1\n      0x00\n      mstore\n      keccak256(0x00, 0x20)\n      swap1\n      0x07\n      mul\n      add\n        /* \"contracts/Buidl11.sol\":2604:2641  fantasyTeams[fantasyTeamID].playerIds */\n      0x02\n      add\n        /* \"contracts/Buidl11.sol\":2575:2641  uint256[] memory playerIds = fantasyTeams[fantasyTeamID].playerIds */\n      dup1\n      sload\n      dup1\n      0x20\n      mul\n      0x20\n      add\n      mload(0x40)\n      swap1\n      dup2\n      add\n      0x40\n      mstore\n      dup1\n      swap3\n      swap2\n      swap1\n      dup2\n      dup2\n      mstore\n      0x20\n      add\n      dup3\n      dup1\n      sload\n      dup1\n      iszero\n      tag_365\n      jumpi\n      0x20\n      mul\n      dup3\n      add\n      swap2\n      swap1\n      0x00\n      mstore\n      keccak256(0x00, 0x20)\n      swap1\n    tag_366:\n      dup2\n      sload\n      dup2\n      mstore\n      0x20\n      add\n      swap1\n      0x01\n      add\n      swap1\n      dup1\n      dup4\n      gt\n      tag_366\n      jumpi\n    tag_365:\n      pop\n      pop\n      pop\n      pop\n      pop\n      swap1\n      pop\n        /* \"contracts/Buidl11.sol\":2657:2666  uint256 i */\n      0x00\n        /* \"contracts/Buidl11.sol\":2652:2801  for (uint256 i = 0; i < playerIds.length; i++) {\r... */\n    tag_367:\n        /* \"contracts/Buidl11.sol\":2676:2685  playerIds */\n      dup2\n        /* \"contracts/Buidl11.sol\":2676:2692  playerIds.length */\n      mload\n        /* \"contracts/Buidl11.sol\":2672:2673  i */\n      dup2\n        /* \"contracts/Buidl11.sol\":2672:2692  i < playerIds.length */\n      lt\n        /* \"contracts/Buidl11.sol\":2652:2801  for (uint256 i = 0; i < playerIds.length; i++) {\r... */\n      iszero\n      tag_368\n      jumpi\n        /* \"contracts/Buidl11.sol\":2734:2742  playerID */\n      dup5\n        /* \"contracts/Buidl11.sol\":2718:2727  playerIds */\n      dup3\n        /* \"contracts/Buidl11.sol\":2728:2729  i */\n      dup3\n        /* \"contracts/Buidl11.sol\":2718:2730  playerIds[i] */\n      dup2\n      mload\n      dup2\n      lt\n      tag_370\n      jumpi\n      tag_371\n      tag_102\n      jump\t// in\n    tag_371:\n    tag_370:\n      0x20\n      mul\n      0x20\n      add\n      add\n      mload\n        /* \"contracts/Buidl11.sol\":2718:2742  playerIds[i] == playerID */\n      eq\n        /* \"contracts/Buidl11.sol\":2714:2790  if (playerIds[i] == playerID) {\r... */\n      iszero\n      tag_372\n      jumpi\n        /* \"contracts/Buidl11.sol\":2770:2774  true */\n      0x01\n        /* \"contracts/Buidl11.sol\":2763:2774  return true */\n      swap3\n      pop\n      pop\n      pop\n      jump(tag_361)\n        /* \"contracts/Buidl11.sol\":2714:2790  if (playerIds[i] == playerID) {\r... */\n    tag_372:\n        /* \"contracts/Buidl11.sol\":2694:2697  i++ */\n      dup1\n      dup1\n      tag_373\n      swap1\n      tag_209\n      jump\t// in\n    tag_373:\n      swap2\n      pop\n      pop\n        /* \"contracts/Buidl11.sol\":2652:2801  for (uint256 i = 0; i < playerIds.length; i++) {\r... */\n      jump(tag_367)\n    tag_368:\n      pop\n        /* \"contracts/Buidl11.sol\":2818:2823  false */\n      0x00\n        /* \"contracts/Buidl11.sol\":2811:2823  return false */\n      swap2\n      pop\n      pop\n        /* \"contracts/Buidl11.sol\":2433:2831  function existsPlayerIdInFantasyTeam(\r... */\n    tag_361:\n      swap3\n      swap2\n      pop\n      pop\n      jump\t// out\n        /* \"contracts/Buidl11.sol\":8995:9616  function uint2str(uint256 _i)\r... */\n    tag_227:\n        /* \"contracts/Buidl11.sol\":9075:9102  string memory _uintAsString */\n      0x60\n        /* \"contracts/Buidl11.sol\":9130:9131  0 */\n      0x00\n        /* \"contracts/Buidl11.sol\":9124:9126  _i */\n      dup3\n        /* \"contracts/Buidl11.sol\":9124:9131  _i == 0 */\n      eq\n        /* \"contracts/Buidl11.sol\":9120:9170  if (_i == 0) {\r... */\n      iszero\n      tag_375\n      jumpi\n        /* \"contracts/Buidl11.sol\":9148:9158  return \"0\" */\n      mload(0x40)\n      dup1\n      0x40\n      add\n      0x40\n      mstore\n      dup1\n      0x01\n      dup2\n      mstore\n      0x20\n      add\n      0x3000000000000000000000000000000000000000000000000000000000000000\n      dup2\n      mstore\n      pop\n      swap1\n      pop\n      jump(tag_374)\n        /* \"contracts/Buidl11.sol\":9120:9170  if (_i == 0) {\r... */\n    tag_375:\n        /* \"contracts/Buidl11.sol\":9180:9189  uint256 j */\n      0x00\n        /* \"contracts/Buidl11.sol\":9192:9194  _i */\n      dup3\n        /* \"contracts/Buidl11.sol\":9180:9194  uint256 j = _i */\n      swap1\n      pop\n        /* \"contracts/Buidl11.sol\":9205:9216  uint256 len */\n      0x00\n        /* \"contracts/Buidl11.sol\":9227:9296  while (j != 0) {\r... */\n    tag_376:\n        /* \"contracts/Buidl11.sol\":9239:9240  0 */\n      0x00\n        /* \"contracts/Buidl11.sol\":9234:9235  j */\n      dup3\n        /* \"contracts/Buidl11.sol\":9234:9240  j != 0 */\n      eq\n        /* \"contracts/Buidl11.sol\":9227:9296  while (j != 0) {\r... */\n      tag_377\n      jumpi\n        /* \"contracts/Buidl11.sol\":9257:9262  len++ */\n      dup1\n      dup1\n      tag_378\n      swap1\n      tag_209\n      jump\t// in\n    tag_378:\n      swap2\n      pop\n      pop\n        /* \"contracts/Buidl11.sol\":9282:9284  10 */\n      0x0a\n        /* \"contracts/Buidl11.sol\":9277:9284  j /= 10 */\n      dup3\n      tag_379\n      swap2\n      swap1\n      tag_380\n      jump\t// in\n    tag_379:\n      swap2\n      pop\n        /* \"contracts/Buidl11.sol\":9227:9296  while (j != 0) {\r... */\n      jump(tag_376)\n    tag_377:\n        /* \"contracts/Buidl11.sol\":9306:9323  bytes memory bstr */\n      0x00\n        /* \"contracts/Buidl11.sol\":9336:9339  len */\n      dup2\n        /* \"contracts/Buidl11.sol\":9326:9340  new bytes(len) */\n      0xffffffffffffffff\n      dup2\n      gt\n      iszero\n      tag_381\n      jumpi\n      tag_382\n      tag_383\n      jump\t// in\n    tag_382:\n    tag_381:\n      mload(0x40)\n      swap1\n      dup1\n      dup3\n      mstore\n      dup1\n      0x1f\n      add\n      not(0x1f)\n      and\n      0x20\n      add\n      dup3\n      add\n      0x40\n      mstore\n      dup1\n      iszero\n      tag_384\n      jumpi\n      dup2\n      0x20\n      add\n      0x01\n      dup3\n      mul\n      dup1\n      calldatasize\n      dup4\n      calldatacopy\n      dup1\n      dup3\n      add\n      swap2\n      pop\n      pop\n      swap1\n      pop\n    tag_384:\n      pop\n        /* \"contracts/Buidl11.sol\":9306:9340  bytes memory bstr = new bytes(len) */\n      swap1\n      pop\n        /* \"contracts/Buidl11.sol\":9351:9360  uint256 k */\n      0x00\n        /* \"contracts/Buidl11.sol\":9363:9366  len */\n      dup3\n        /* \"contracts/Buidl11.sol\":9351:9366  uint256 k = len */\n      swap1\n      pop\n        /* \"contracts/Buidl11.sol\":9377:9579  while (_i != 0) {\r... */\n    tag_385:\n        /* \"contracts/Buidl11.sol\":9390:9391  0 */\n      0x00\n        /* \"contracts/Buidl11.sol\":9384:9386  _i */\n      dup7\n        /* \"contracts/Buidl11.sol\":9384:9391  _i != 0 */\n      eq\n        /* \"contracts/Buidl11.sol\":9377:9579  while (_i != 0) {\r... */\n      tag_386\n      jumpi\n        /* \"contracts/Buidl11.sol\":9416:9417  1 */\n      0x01\n        /* \"contracts/Buidl11.sol\":9412:9413  k */\n      dup2\n        /* \"contracts/Buidl11.sol\":9412:9417  k - 1 */\n      tag_387\n      swap2\n      swap1\n      tag_388\n      jump\t// in\n    tag_387:\n        /* \"contracts/Buidl11.sol\":9408:9417  k = k - 1 */\n      swap1\n      pop\n        /* \"contracts/Buidl11.sol\":9432:9442  uint8 temp */\n      0x00\n        /* \"contracts/Buidl11.sol\":9474:9476  10 */\n      0x0a\n        /* \"contracts/Buidl11.sol\":9468:9470  10 */\n      dup1\n        /* \"contracts/Buidl11.sol\":9463:9465  _i */\n      dup9\n        /* \"contracts/Buidl11.sol\":9463:9470  _i / 10 */\n      tag_389\n      swap2\n      swap1\n      tag_380\n      jump\t// in\n    tag_389:\n        /* \"contracts/Buidl11.sol\":9462:9476  (_i / 10) * 10 */\n      tag_390\n      swap2\n      swap1\n      tag_391\n      jump\t// in\n    tag_390:\n        /* \"contracts/Buidl11.sol\":9457:9459  _i */\n      dup8\n        /* \"contracts/Buidl11.sol\":9457:9476  _i - (_i / 10) * 10 */\n      tag_392\n      swap2\n      swap1\n      tag_388\n      jump\t// in\n    tag_392:\n        /* \"contracts/Buidl11.sol\":9446:9448  48 */\n      0x30\n        /* \"contracts/Buidl11.sol\":9446:9477  48 + uint8(_i - (_i / 10) * 10) */\n      tag_393\n      swap2\n      swap1\n      tag_394\n      jump\t// in\n    tag_393:\n        /* \"contracts/Buidl11.sol\":9432:9478  uint8 temp = (48 + uint8(_i - (_i / 10) * 10)) */\n      swap1\n      pop\n        /* \"contracts/Buidl11.sol\":9493:9502  bytes1 b1 */\n      0x00\n        /* \"contracts/Buidl11.sol\":9512:9516  temp */\n      dup2\n        /* \"contracts/Buidl11.sol\":9505:9517  bytes1(temp) */\n      0xf8\n      shl\n        /* \"contracts/Buidl11.sol\":9493:9517  bytes1 b1 = bytes1(temp) */\n      swap1\n      pop\n        /* \"contracts/Buidl11.sol\":9542:9544  b1 */\n      dup1\n        /* \"contracts/Buidl11.sol\":9532:9536  bstr */\n      dup5\n        /* \"contracts/Buidl11.sol\":9537:9538  k */\n      dup5\n        /* \"contracts/Buidl11.sol\":9532:9539  bstr[k] */\n      dup2\n      mload\n      dup2\n      lt\n      tag_395\n      jumpi\n      tag_396\n      tag_102\n      jump\t// in\n    tag_396:\n    tag_395:\n      0x20\n      add\n      add\n        /* \"contracts/Buidl11.sol\":9532:9544  bstr[k] = b1 */\n      swap1\n      not(0xffffffffffffffffffffffffffffffffffffffffffffffffffffffffffffff)\n      and\n      swap1\n      dup2\n      0x00\n      byte\n      swap1\n      mstore8\n      pop\n        /* \"contracts/Buidl11.sol\":9565:9567  10 */\n      0x0a\n        /* \"contracts/Buidl11.sol\":9559:9567  _i /= 10 */\n      dup9\n      tag_397\n      swap2\n      swap1\n      tag_380\n      jump\t// in\n    tag_397:\n      swap8\n      pop\n        /* \"contracts/Buidl11.sol\":9393:9579  {\r... */\n      pop\n      pop\n        /* \"contracts/Buidl11.sol\":9377:9579  while (_i != 0) {\r... */\n      jump(tag_385)\n    tag_386:\n        /* \"contracts/Buidl11.sol\":9603:9607  bstr */\n      dup2\n        /* \"contracts/Buidl11.sol\":9589:9608  return string(bstr) */\n      swap5\n      pop\n      pop\n      pop\n      pop\n      pop\n        /* \"contracts/Buidl11.sol\":8995:9616  function uint2str(uint256 _i)\r... */\n    tag_374:\n      swap2\n      swap1\n      pop\n      jump\t// out\n        /* \"contracts/Buidl11.sol\":6797:7407  function calculatePlayerScore(\r... */\n    tag_305:\n        /* \"contracts/Buidl11.sol\":6937:6944  uint256 */\n      0x00\n        /* \"contracts/Buidl11.sol\":6981:6990  isCaptain */\n      dup3\n        /* \"contracts/Buidl11.sol\":6981:7007  isCaptain && isViceCaptain */\n      dup1\n      iszero\n      tag_399\n      jumpi\n      pop\n        /* \"contracts/Buidl11.sol\":6994:7007  isViceCaptain */\n      dup2\n        /* \"contracts/Buidl11.sol\":6981:7007  isCaptain && isViceCaptain */\n    tag_399:\n        /* \"contracts/Buidl11.sol\":6979:7008  !(isCaptain && isViceCaptain) */\n      iszero\n        /* \"contracts/Buidl11.sol\":6957:7097  require(\r... */\n      tag_400\n      jumpi\n      mload(0x40)\n      0x08c379a000000000000000000000000000000000000000000000000000000000\n      dup2\n      mstore\n      0x04\n      add\n      tag_401\n      swap1\n      tag_402\n      jump\t// in\n    tag_401:\n      mload(0x40)\n      dup1\n      swap2\n      sub\n      swap1\n      revert\n    tag_400:\n        /* \"contracts/Buidl11.sol\":7110:7123  uint256 score */\n      0x00\n        /* \"contracts/Buidl11.sol\":7240:7250  WICKET_MUL */\n      sload(0x05)\n        /* \"contracts/Buidl11.sol\":7193:7200  players */\n      0x01\n        /* \"contracts/Buidl11.sol\":7201:7209  playerID */\n      dup7\n        /* \"contracts/Buidl11.sol\":7193:7210  players[playerID] */\n      dup2\n      sload\n      dup2\n      lt\n      tag_403\n      jumpi\n      tag_404\n      tag_102\n      jump\t// in\n    tag_404:\n    tag_403:\n      swap1\n      0x00\n      mstore\n      keccak256(0x00, 0x20)\n      swap1\n      0x04\n      mul\n      add\n        /* \"contracts/Buidl11.sol\":7193:7216  players[playerID].stats */\n      0x02\n      add\n        /* \"contracts/Buidl11.sol\":7193:7224  players[playerID].stats.wickets */\n      0x01\n      add\n      sload\n        /* \"contracts/Buidl11.sol\":7193:7250  players[playerID].stats.wickets *\r... */\n      tag_406\n      swap2\n      swap1\n      tag_391\n      jump\t// in\n    tag_406:\n        /* \"contracts/Buidl11.sol\":7170:7177  RUN_MUL */\n      sload(0x04)\n        /* \"contracts/Buidl11.sol\":7126:7133  players */\n      0x01\n        /* \"contracts/Buidl11.sol\":7134:7142  playerID */\n      dup8\n        /* \"contracts/Buidl11.sol\":7126:7143  players[playerID] */\n      dup2\n      sload\n      dup2\n      lt\n      tag_407\n      jumpi\n      tag_408\n      tag_102\n      jump\t// in\n    tag_408:\n    tag_407:\n      swap1\n      0x00\n      mstore\n      keccak256(0x00, 0x20)\n      swap1\n      0x04\n      mul\n      add\n        /* \"contracts/Buidl11.sol\":7126:7149  players[playerID].stats */\n      0x02\n      add\n        /* \"contracts/Buidl11.sol\":7126:7154  players[playerID].stats.runs */\n      0x00\n      add\n      sload\n        /* \"contracts/Buidl11.sol\":7126:7177  players[playerID].stats.runs *\r... */\n      tag_410\n      swap2\n      swap1\n      tag_391\n      jump\t// in\n    tag_410:\n        /* \"contracts/Buidl11.sol\":7126:7250  players[playerID].stats.runs *\r... */\n      tag_411\n      swap2\n      swap1\n      tag_310\n      jump\t// in\n    tag_411:\n        /* \"contracts/Buidl11.sol\":7110:7250  uint256 score = players[playerID].stats.runs *\r... */\n      swap1\n      pop\n        /* \"contracts/Buidl11.sol\":7265:7274  isCaptain */\n      dup4\n        /* \"contracts/Buidl11.sol\":7261:7375  if (isCaptain) {\r... */\n      iszero\n      tag_412\n      jumpi\n        /* \"contracts/Buidl11.sol\":7300:7301  3 */\n      0x03\n        /* \"contracts/Buidl11.sol\":7291:7301  score *= 3 */\n      dup2\n      tag_413\n      swap2\n      swap1\n      tag_391\n      jump\t// in\n    tag_413:\n      swap1\n      pop\n        /* \"contracts/Buidl11.sol\":7261:7375  if (isCaptain) {\r... */\n      jump(tag_414)\n    tag_412:\n        /* \"contracts/Buidl11.sol\":7323:7336  isViceCaptain */\n      dup3\n        /* \"contracts/Buidl11.sol\":7319:7375  if (isViceCaptain) {\r... */\n      iszero\n      tag_415\n      jumpi\n        /* \"contracts/Buidl11.sol\":7362:7363  2 */\n      0x02\n        /* \"contracts/Buidl11.sol\":7353:7363  score *= 2 */\n      dup2\n      tag_416\n      swap2\n      swap1\n      tag_391\n      jump\t// in\n    tag_416:\n      swap1\n      pop\n        /* \"contracts/Buidl11.sol\":7319:7375  if (isViceCaptain) {\r... */\n    tag_415:\n        /* \"contracts/Buidl11.sol\":7261:7375  if (isCaptain) {\r... */\n    tag_414:\n        /* \"contracts/Buidl11.sol\":7392:7397  score */\n      dup1\n        /* \"contracts/Buidl11.sol\":7385:7397  return score */\n      swap2\n      pop\n      pop\n        /* \"contracts/Buidl11.sol\":6797:7407  function calculatePlayerScore(\r... */\n      swap4\n      swap3\n      pop\n      pop\n      pop\n      jump\t// out\n        /* \"contracts/Buidl11.sol\":7419:8321  function distributeRewards() private isOwner{\r... */\n    tag_314:\n        /* \"contracts/Buidl11.sol\":225:230  owner */\n      0x00\n      dup1\n      sload\n      swap1\n      0x0100\n      exp\n      swap1\n      div\n      0xffffffffffffffffffffffffffffffffffffffff\n      and\n        /* \"contracts/Buidl11.sol\":213:230  msg.sender==owner */\n      0xffffffffffffffffffffffffffffffffffffffff\n      and\n        /* \"contracts/Buidl11.sol\":213:223  msg.sender */\n      caller\n        /* \"contracts/Buidl11.sol\":213:230  msg.sender==owner */\n      0xffffffffffffffffffffffffffffffffffffffff\n      and\n      eq\n        /* \"contracts/Buidl11.sol\":205:268  require(msg.sender==owner,\"Must be admin to use this funciton\") */\n      tag_418\n      jumpi\n      mload(0x40)\n      0x08c379a000000000000000000000000000000000000000000000000000000000\n      dup2\n      mstore\n      0x04\n      add\n      tag_419\n      swap1\n      tag_141\n      jump\t// in\n    tag_419:\n      mload(0x40)\n      dup1\n      swap2\n      sub\n      swap1\n      revert\n    tag_418:\n        /* \"contracts/Buidl11.sol\":7474:7485  uint256 sum */\n      0x00\n        /* \"contracts/Buidl11.sol\":7500:7516  uint256 totalBid */\n      dup1\n        /* \"contracts/Buidl11.sol\":7536:7545  uint256 i */\n      0x00\n        /* \"contracts/Buidl11.sol\":7531:7718  for (uint256 i = 0; i < fantasyTeams.length; i++) {\r... */\n    tag_421:\n        /* \"contracts/Buidl11.sol\":7555:7567  fantasyTeams */\n      0x02\n        /* \"contracts/Buidl11.sol\":7555:7574  fantasyTeams.length */\n      dup1\n      sload\n      swap1\n      pop\n        /* \"contracts/Buidl11.sol\":7551:7552  i */\n      dup2\n        /* \"contracts/Buidl11.sol\":7551:7574  i < fantasyTeams.length */\n      lt\n        /* \"contracts/Buidl11.sol\":7531:7718  for (uint256 i = 0; i < fantasyTeams.length; i++) {\r... */\n      iszero\n      tag_422\n      jumpi\n        /* \"contracts/Buidl11.sol\":7625:7637  fantasyTeams */\n      0x02\n        /* \"contracts/Buidl11.sol\":7638:7639  i */\n      dup2\n        /* \"contracts/Buidl11.sol\":7625:7640  fantasyTeams[i] */\n      dup2\n      sload\n      dup2\n      lt\n      tag_424\n      jumpi\n      tag_425\n      tag_102\n      jump\t// in\n    tag_425:\n    tag_424:\n      swap1\n      0x00\n      mstore\n      keccak256(0x00, 0x20)\n      swap1\n      0x07\n      mul\n      add\n        /* \"contracts/Buidl11.sol\":7625:7646  fantasyTeams[i].score */\n      0x06\n      add\n      sload\n        /* \"contracts/Buidl11.sol\":7603:7615  fantasyTeams */\n      0x02\n        /* \"contracts/Buidl11.sol\":7616:7617  i */\n      dup3\n        /* \"contracts/Buidl11.sol\":7603:7618  fantasyTeams[i] */\n      dup2\n      sload\n      dup2\n      lt\n      tag_427\n      jumpi\n      tag_428\n      tag_102\n      jump\t// in\n    tag_428:\n    tag_427:\n      swap1\n      0x00\n      mstore\n      keccak256(0x00, 0x20)\n      swap1\n      0x07\n      mul\n      add\n        /* \"contracts/Buidl11.sol\":7603:7622  fantasyTeams[i].bid */\n      0x05\n      add\n      sload\n        /* \"contracts/Buidl11.sol\":7603:7646  fantasyTeams[i].bid * fantasyTeams[i].score */\n      tag_430\n      swap2\n      swap1\n      tag_391\n      jump\t// in\n    tag_430:\n        /* \"contracts/Buidl11.sol\":7596:7646  sum += fantasyTeams[i].bid * fantasyTeams[i].score */\n      dup4\n      tag_431\n      swap2\n      swap1\n      tag_310\n      jump\t// in\n    tag_431:\n      swap3\n      pop\n        /* \"contracts/Buidl11.sol\":7673:7685  fantasyTeams */\n      0x02\n        /* \"contracts/Buidl11.sol\":7686:7687  i */\n      dup2\n        /* \"contracts/Buidl11.sol\":7673:7688  fantasyTeams[i] */\n      dup2\n      sload\n      dup2\n      lt\n      tag_432\n      jumpi\n      tag_433\n      tag_102\n      jump\t// in\n    tag_433:\n    tag_432:\n      swap1\n      0x00\n      mstore\n      keccak256(0x00, 0x20)\n      swap1\n      0x07\n      mul\n      add\n        /* \"contracts/Buidl11.sol\":7673:7692  fantasyTeams[i].bid */\n      0x05\n      add\n      sload\n        /* \"contracts/Buidl11.sol\":7661:7692  totalBid += fantasyTeams[i].bid */\n      dup3\n      tag_435\n      swap2\n      swap1\n      tag_310\n      jump\t// in\n    tag_435:\n      swap2\n      pop\n        /* \"contracts/Buidl11.sol\":7576:7579  i++ */\n      dup1\n      dup1\n      tag_436\n      swap1\n      tag_209\n      jump\t// in\n    tag_436:\n      swap2\n      pop\n      pop\n        /* \"contracts/Buidl11.sol\":7531:7718  for (uint256 i = 0; i < fantasyTeams.length; i++) {\r... */\n      jump(tag_421)\n    tag_422:\n      pop\n        /* \"contracts/Buidl11.sol\":7728:7740  uint percent */\n      0x00\n        /* \"contracts/Buidl11.sol\":7757:7760  100 */\n      0x64\n        /* \"contracts/Buidl11.sol\":7747:7755  totalBid */\n      dup3\n        /* \"contracts/Buidl11.sol\":7744:7746  10 */\n      0x0a\n        /* \"contracts/Buidl11.sol\":7744:7755  10*totalBid */\n      tag_437\n      swap2\n      swap1\n      tag_391\n      jump\t// in\n    tag_437:\n        /* \"contracts/Buidl11.sol\":7743:7760  (10*totalBid)/100 */\n      tag_438\n      swap2\n      swap1\n      tag_380\n      jump\t// in\n    tag_438:\n        /* \"contracts/Buidl11.sol\":7728:7760  uint percent = (10*totalBid)/100 */\n      swap1\n      pop\n        /* \"contracts/Buidl11.sol\":7789:7796  percent */\n      dup1\n        /* \"contracts/Buidl11.sol\":7780:7788  totalBid */\n      dup3\n        /* \"contracts/Buidl11.sol\":7780:7796  totalBid-percent */\n      tag_439\n      swap2\n      swap1\n      tag_388\n      jump\t// in\n    tag_439:\n        /* \"contracts/Buidl11.sol\":7771:7796  totalBid=totalBid-percent */\n      swap2\n      pop\n        /* \"contracts/Buidl11.sol\":7815:7820  owner */\n      0x00\n      dup1\n      sload\n      swap1\n      0x0100\n      exp\n      swap1\n      div\n      0xffffffffffffffffffffffffffffffffffffffff\n      and\n        /* \"contracts/Buidl11.sol\":7807:7830  payable(owner).transfer */\n      0xffffffffffffffffffffffffffffffffffffffff\n      and\n        /* \"contracts/Buidl11.sol\":7807:7839  payable(owner).transfer(percent) */\n      0x08fc\n        /* \"contracts/Buidl11.sol\":7831:7838  percent */\n      dup3\n        /* \"contracts/Buidl11.sol\":7807:7839  payable(owner).transfer(percent) */\n      swap1\n      dup2\n      iszero\n      mul\n      swap1\n      mload(0x40)\n      0x00\n      mload(0x40)\n      dup1\n      dup4\n      sub\n      dup2\n      dup6\n      dup9\n      dup9\n      call\n      swap4\n      pop\n      pop\n      pop\n      pop\n      iszero\n      dup1\n      iszero\n      tag_441\n      jumpi\n      returndatasize\n      0x00\n      dup1\n      returndatacopy\n      revert(0x00, returndatasize)\n    tag_441:\n      pop\n        /* \"contracts/Buidl11.sol\":7865:7874  uint256 i */\n      0x00\n        /* \"contracts/Buidl11.sol\":7860:8314  for (uint256 i = 0; i < fantasyTeams.length; i++) {\r... */\n    tag_442:\n        /* \"contracts/Buidl11.sol\":7884:7896  fantasyTeams */\n      0x02\n        /* \"contracts/Buidl11.sol\":7884:7903  fantasyTeams.length */\n      dup1\n      sload\n      swap1\n      pop\n        /* \"contracts/Buidl11.sol\":7880:7881  i */\n      dup2\n        /* \"contracts/Buidl11.sol\":7880:7903  i < fantasyTeams.length */\n      lt\n        /* \"contracts/Buidl11.sol\":7860:8314  for (uint256 i = 0; i < fantasyTeams.length; i++) {\r... */\n      iszero\n      tag_443\n      jumpi\n        /* \"contracts/Buidl11.sol\":7939:7953  uint256 reward */\n      0x00\n        /* \"contracts/Buidl11.sol\":7977:7978  0 */\n      dup1\n        /* \"contracts/Buidl11.sol\":7972:7975  sum */\n      dup6\n        /* \"contracts/Buidl11.sol\":7972:7978  sum==0 */\n      eq\n        /* \"contracts/Buidl11.sol\":7969:8239  if(sum==0)\r... */\n      iszero\n      tag_445\n      jumpi\n        /* \"contracts/Buidl11.sol\":8021:8033  fantasyTeams */\n      0x02\n        /* \"contracts/Buidl11.sol\":8034:8035  i */\n      dup3\n        /* \"contracts/Buidl11.sol\":8021:8036  fantasyTeams[i] */\n      dup2\n      sload\n      dup2\n      lt\n      tag_446\n      jumpi\n      tag_447\n      tag_102\n      jump\t// in\n    tag_447:\n    tag_446:\n      swap1\n      0x00\n      mstore\n      keccak256(0x00, 0x20)\n      swap1\n      0x07\n      mul\n      add\n        /* \"contracts/Buidl11.sol\":8021:8040  fantasyTeams[i].bid */\n      0x05\n      add\n      sload\n        /* \"contracts/Buidl11.sol\":8012:8040  reward = fantasyTeams[i].bid */\n      swap1\n      pop\n        /* \"contracts/Buidl11.sol\":7969:8239  if(sum==0)\r... */\n      jump(tag_449)\n    tag_445:\n        /* \"contracts/Buidl11.sol\":8218:8221  sum */\n      dup5\n        /* \"contracts/Buidl11.sol\":8206:8214  totalBid */\n      dup5\n        /* \"contracts/Buidl11.sol\":8161:8173  fantasyTeams */\n      0x02\n        /* \"contracts/Buidl11.sol\":8174:8175  i */\n      dup5\n        /* \"contracts/Buidl11.sol\":8161:8176  fantasyTeams[i] */\n      dup2\n      sload\n      dup2\n      lt\n      tag_450\n      jumpi\n      tag_451\n      tag_102\n      jump\t// in\n    tag_451:\n    tag_450:\n      swap1\n      0x00\n      mstore\n      keccak256(0x00, 0x20)\n      swap1\n      0x07\n      mul\n      add\n        /* \"contracts/Buidl11.sol\":8161:8182  fantasyTeams[i].score */\n      0x06\n      add\n      sload\n        /* \"contracts/Buidl11.sol\":8118:8130  fantasyTeams */\n      0x02\n        /* \"contracts/Buidl11.sol\":8131:8132  i */\n      dup6\n        /* \"contracts/Buidl11.sol\":8118:8133  fantasyTeams[i] */\n      dup2\n      sload\n      dup2\n      lt\n      tag_453\n      jumpi\n      tag_454\n      tag_102\n      jump\t// in\n    tag_454:\n    tag_453:\n      swap1\n      0x00\n      mstore\n      keccak256(0x00, 0x20)\n      swap1\n      0x07\n      mul\n      add\n        /* \"contracts/Buidl11.sol\":8118:8137  fantasyTeams[i].bid */\n      0x05\n      add\n      sload\n        /* \"contracts/Buidl11.sol\":8118:8182  fantasyTeams[i].bid *\r... */\n      tag_456\n      swap2\n      swap1\n      tag_391\n      jump\t// in\n    tag_456:\n        /* \"contracts/Buidl11.sol\":8118:8214  fantasyTeams[i].bid *\r... */\n      tag_457\n      swap2\n      swap1\n      tag_391\n      jump\t// in\n    tag_457:\n        /* \"contracts/Buidl11.sol\":8117:8221  (fantasyTeams[i].bid *\r... */\n      tag_458\n      swap2\n      swap1\n      tag_380\n      jump\t// in\n    tag_458:\n        /* \"contracts/Buidl11.sol\":8108:8221  reward = (fantasyTeams[i].bid *\r... */\n      swap1\n      pop\n        /* \"contracts/Buidl11.sol\":7969:8239  if(sum==0)\r... */\n    tag_449:\n        /* \"contracts/Buidl11.sol\":8261:8273  fantasyTeams */\n      0x02\n        /* \"contracts/Buidl11.sol\":8274:8275  i */\n      dup3\n        /* \"contracts/Buidl11.sol\":8261:8276  fantasyTeams[i] */\n      dup2\n      sload\n      dup2\n      lt\n      tag_459\n      jumpi\n      tag_460\n      tag_102\n      jump\t// in\n    tag_460:\n    tag_459:\n      swap1\n      0x00\n      mstore\n      keccak256(0x00, 0x20)\n      swap1\n      0x07\n      mul\n      add\n        /* \"contracts/Buidl11.sol\":8261:8284  fantasyTeams[i].ownerId */\n      0x00\n      add\n      0x00\n      swap1\n      sload\n      swap1\n      0x0100\n      exp\n      swap1\n      div\n      0xffffffffffffffffffffffffffffffffffffffff\n      and\n        /* \"contracts/Buidl11.sol\":8253:8294  payable(fantasyTeams[i].ownerId).transfer */\n      0xffffffffffffffffffffffffffffffffffffffff\n      and\n        /* \"contracts/Buidl11.sol\":8253:8302  payable(fantasyTeams[i].ownerId).transfer(reward) */\n      0x08fc\n        /* \"contracts/Buidl11.sol\":8295:8301  reward */\n      dup3\n        /* \"contracts/Buidl11.sol\":8253:8302  payable(fantasyTeams[i].ownerId).transfer(reward) */\n      swap1\n      dup2\n      iszero\n      mul\n      swap1\n      mload(0x40)\n      0x00\n      mload(0x40)\n      dup1\n      dup4\n      sub\n      dup2\n      dup6\n      dup9\n      dup9\n      call\n      swap4\n      pop\n      pop\n      pop\n      pop\n      iszero\n      dup1\n      iszero\n      tag_463\n      jumpi\n      returndatasize\n      0x00\n      dup1\n      returndatacopy\n      revert(0x00, returndatasize)\n    tag_463:\n      pop\n        /* \"contracts/Buidl11.sol\":7910:8314  {\r... */\n      pop\n        /* \"contracts/Buidl11.sol\":7905:7908  i++ */\n      dup1\n      dup1\n      tag_464\n      swap1\n      tag_209\n      jump\t// in\n    tag_464:\n      swap2\n      pop\n      pop\n        /* \"contracts/Buidl11.sol\":7860:8314  for (uint256 i = 0; i < fantasyTeams.length; i++) {\r... */\n      jump(tag_442)\n    tag_443:\n      pop\n        /* \"contracts/Buidl11.sol\":7463:8321  {\r... */\n      pop\n      pop\n      pop\n        /* \"contracts/Buidl11.sol\":7419:8321  function distributeRewards() private isOwner{\r... */\n      jump\t// out\n    tag_164:\n      pop\n      dup1\n      sload\n      0x00\n      dup3\n      sstore\n      0x04\n      mul\n      swap1\n      0x00\n      mstore\n      keccak256(0x00, 0x20)\n      swap1\n      dup2\n      add\n      swap1\n      tag_466\n      swap2\n      swap1\n      tag_467\n      jump\t// in\n    tag_466:\n      pop\n      jump\t// out\n    tag_166:\n      pop\n      dup1\n      sload\n      0x00\n      dup3\n      sstore\n      0x07\n      mul\n      swap1\n      0x00\n      mstore\n      keccak256(0x00, 0x20)\n      swap1\n      dup2\n      add\n      swap1\n      tag_469\n      swap2\n      swap1\n      tag_470\n      jump\t// in\n    tag_469:\n      pop\n      jump\t// out\n    tag_204:\n      mload(0x40)\n      dup1\n      0x60\n      add\n      0x40\n      mstore\n      dup1\n      0x00\n      dup2\n      mstore\n      0x20\n      add\n      0x60\n      dup2\n      mstore\n      0x20\n      add\n      tag_471\n      tag_472\n      jump\t// in\n    tag_471:\n      dup2\n      mstore\n      pop\n      swap1\n      jump\t// out\n    tag_207:\n      dup3\n      dup1\n      sload\n      tag_473\n      swap1\n      tag_122\n      jump\t// in\n    tag_473:\n      swap1\n      0x00\n      mstore\n      keccak256(0x00, 0x20)\n      swap1\n      0x1f\n      add\n      0x20\n      swap1\n      div\n      dup2\n      add\n      swap3\n      dup3\n      tag_475\n      jumpi\n      0x00\n      dup6\n      sstore\n      jump(tag_474)\n    tag_475:\n      dup3\n      0x1f\n      lt\n      tag_476\n      jumpi\n      dup1\n      mload\n      not(0xff)\n      and\n      dup4\n      dup1\n      add\n      or\n      dup6\n      sstore\n      jump(tag_474)\n    tag_476:\n      dup3\n      dup1\n      add\n      0x01\n      add\n      dup6\n      sstore\n      dup3\n      iszero\n      tag_474\n      jumpi\n      swap2\n      dup3\n      add\n    tag_477:\n      dup3\n      dup2\n      gt\n      iszero\n      tag_478\n      jumpi\n      dup3\n      mload\n      dup3\n      sstore\n      swap2\n      0x20\n      add\n      swap2\n      swap1\n      0x01\n      add\n      swap1\n      jump(tag_477)\n    tag_478:\n    tag_474:\n      pop\n      swap1\n      pop\n      tag_479\n      swap2\n      swap1\n      tag_480\n      jump\t// in\n    tag_479:\n      pop\n      swap1\n      jump\t// out\n    tag_330:\n      mload(0x40)\n      dup1\n      0xe0\n      add\n      0x40\n      mstore\n      dup1\n      and(0xffffffffffffffffffffffffffffffffffffffff, 0x00)\n      dup2\n      mstore\n      0x20\n      add\n      0x60\n      dup2\n      mstore\n      0x20\n      add\n      0x60\n      dup2\n      mstore\n      0x20\n      add\n      0x00\n      dup2\n      mstore\n      0x20\n      add\n      0x00\n      dup2\n      mstore\n      0x20\n      add\n      0x00\n      dup2\n      mstore\n      0x20\n      add\n      0x00\n      dup2\n      mstore\n      pop\n      swap1\n      jump\t// out\n    tag_334:\n      dup3\n      dup1\n      sload\n      dup3\n      dup3\n      sstore\n      swap1\n      0x00\n      mstore\n      keccak256(0x00, 0x20)\n      swap1\n      dup2\n      add\n      swap3\n      dup3\n      iszero\n      tag_481\n      jumpi\n      swap2\n      0x20\n      mul\n      dup3\n      add\n    tag_482:\n      dup3\n      dup2\n      gt\n      iszero\n      tag_483\n      jumpi\n      dup3\n      mload\n      dup3\n      sstore\n      swap2\n      0x20\n      add\n      swap2\n      swap1\n      0x01\n      add\n      swap1\n      jump(tag_482)\n    tag_483:\n    tag_481:\n      pop\n      swap1\n      pop\n      tag_484\n      swap2\n      swap1\n      tag_480\n      jump\t// in\n    tag_484:\n      pop\n      swap1\n      jump\t// out\n    tag_467:\n    tag_485:\n      dup1\n      dup3\n      gt\n      iszero\n      tag_486\n      jumpi\n      0x00\n      dup1\n      dup3\n      add\n      0x00\n      swap1\n      sstore\n      0x01\n      dup3\n      add\n      0x00\n      tag_487\n      swap2\n      swap1\n      tag_488\n      jump\t// in\n    tag_487:\n      0x02\n      dup3\n      add\n      0x00\n      dup1\n      dup3\n      add\n      0x00\n      swap1\n      sstore\n      0x01\n      dup3\n      add\n      0x00\n      swap1\n      sstore\n      pop\n      pop\n      pop\n      0x04\n      add\n      jump(tag_485)\n    tag_486:\n      pop\n      swap1\n      jump\t// out\n    tag_470:\n    tag_489:\n      dup1\n      dup3\n      gt\n      iszero\n      tag_490\n      jumpi\n      0x00\n      dup1\n      dup3\n      add\n      exp(0x0100, 0x00)\n      dup2\n      sload\n      swap1\n      0xffffffffffffffffffffffffffffffffffffffff\n      mul\n      not\n      and\n      swap1\n      sstore\n      0x01\n      dup3\n      add\n      0x00\n      tag_491\n      swap2\n      swap1\n      tag_488\n      jump\t// in\n    tag_491:\n      0x02\n      dup3\n      add\n      0x00\n      tag_492\n      swap2\n      swap1\n      tag_493\n      jump\t// in\n    tag_492:\n      0x03\n      dup3\n      add\n      0x00\n      swap1\n      sstore\n      0x04\n      dup3\n      add\n      0x00\n      swap1\n      sstore\n      0x05\n      dup3\n      add\n      0x00\n      swap1\n      sstore\n      0x06\n      dup3\n      add\n      0x00\n      swap1\n      sstore\n      pop\n      0x07\n      add\n      jump(tag_489)\n    tag_490:\n      pop\n      swap1\n      jump\t// out\n    tag_472:\n      mload(0x40)\n      dup1\n      0x40\n      add\n      0x40\n      mstore\n      dup1\n      0x00\n      dup2\n      mstore\n      0x20\n      add\n      0x00\n      dup2\n      mstore\n      pop\n      swap1\n      jump\t// out\n    tag_480:\n    tag_494:\n      dup1\n      dup3\n      gt\n      iszero\n      tag_495\n      jumpi\n      0x00\n      dup2\n      0x00\n      swap1\n      sstore\n      pop\n      0x01\n      add\n      jump(tag_494)\n    tag_495:\n      pop\n      swap1\n      jump\t// out\n    tag_488:\n      pop\n      dup1\n      sload\n      tag_496\n      swap1\n      tag_122\n      jump\t// in\n    tag_496:\n      0x00\n      dup3\n      sstore\n      dup1\n      0x1f\n      lt\n      tag_498\n      jumpi\n      pop\n      jump(tag_497)\n    tag_498:\n      0x1f\n      add\n      0x20\n      swap1\n      div\n      swap1\n      0x00\n      mstore\n      keccak256(0x00, 0x20)\n      swap1\n      dup2\n      add\n      swap1\n      tag_499\n      swap2\n      swap1\n      tag_480\n      jump\t// in\n    tag_499:\n    tag_497:\n      pop\n      jump\t// out\n    tag_493:\n      pop\n      dup1\n      sload\n      0x00\n      dup3\n      sstore\n      swap1\n      0x00\n      mstore\n      keccak256(0x00, 0x20)\n      swap1\n      dup2\n      add\n      swap1\n      tag_501\n      swap2\n      swap1\n      tag_480\n      jump\t// in\n    tag_501:\n      pop\n      jump\t// out\n        /* \"#utility.yul\":23:980   */\n    tag_503:\n        /* \"#utility.yul\":129:134   */\n      0x00\n        /* \"#utility.yul\":154:245   */\n      tag_505\n        /* \"#utility.yul\":170:244   */\n      tag_506\n        /* \"#utility.yul\":237:243   */\n      dup5\n        /* \"#utility.yul\":170:244   */\n      tag_507\n      jump\t// in\n    tag_506:\n        /* \"#utility.yul\":154:245   */\n      tag_508\n      jump\t// in\n    tag_505:\n        /* \"#utility.yul\":145:245   */\n      swap1\n      pop\n        /* \"#utility.yul\":265:270   */\n      dup1\n        /* \"#utility.yul\":294:300   */\n      dup4\n        /* \"#utility.yul\":287:292   */\n      dup3\n        /* \"#utility.yul\":280:301   */\n      mstore\n        /* \"#utility.yul\":328:332   */\n      0x20\n        /* \"#utility.yul\":321:326   */\n      dup3\n        /* \"#utility.yul\":317:333   */\n      add\n        /* \"#utility.yul\":310:333   */\n      swap1\n      pop\n        /* \"#utility.yul\":354:360   */\n      dup3\n        /* \"#utility.yul\":404:407   */\n      dup6\n        /* \"#utility.yul\":396:400   */\n      0x20\n        /* \"#utility.yul\":388:394   */\n      dup7\n        /* \"#utility.yul\":384:401   */\n      mul\n        /* \"#utility.yul\":379:382   */\n      dup3\n        /* \"#utility.yul\":375:402   */\n      add\n        /* \"#utility.yul\":372:408   */\n      gt\n        /* \"#utility.yul\":369:512   */\n      iszero\n      tag_509\n      jumpi\n        /* \"#utility.yul\":423:502   */\n      tag_510\n      tag_511\n      jump\t// in\n    tag_510:\n        /* \"#utility.yul\":369:512   */\n    tag_509:\n        /* \"#utility.yul\":536:537   */\n      0x00\n        /* \"#utility.yul\":521:974   */\n    tag_512:\n        /* \"#utility.yul\":546:552   */\n      dup6\n        /* \"#utility.yul\":543:544   */\n      dup2\n        /* \"#utility.yul\":540:553   */\n      lt\n        /* \"#utility.yul\":521:974   */\n      iszero\n      tag_514\n      jumpi\n        /* \"#utility.yul\":628:631   */\n      dup2\n        /* \"#utility.yul\":615:632   */\n      calldataload\n        /* \"#utility.yul\":664:682   */\n      0xffffffffffffffff\n        /* \"#utility.yul\":651:662   */\n      dup2\n        /* \"#utility.yul\":648:683   */\n      gt\n        /* \"#utility.yul\":645:767   */\n      iszero\n      tag_515\n      jumpi\n        /* \"#utility.yul\":686:765   */\n      tag_516\n      tag_517\n      jump\t// in\n    tag_516:\n        /* \"#utility.yul\":645:767   */\n    tag_515:\n        /* \"#utility.yul\":810:821   */\n      dup1\n        /* \"#utility.yul\":802:808   */\n      dup7\n        /* \"#utility.yul\":798:822   */\n      add\n        /* \"#utility.yul\":848:895   */\n      tag_518\n        /* \"#utility.yul\":891:894   */\n      dup10\n        /* \"#utility.yul\":879:889   */\n      dup3\n        /* \"#utility.yul\":848:895   */\n      tag_519\n      jump\t// in\n    tag_518:\n        /* \"#utility.yul\":843:846   */\n      dup6\n        /* \"#utility.yul\":836:896   */\n      mstore\n        /* \"#utility.yul\":925:929   */\n      0x20\n        /* \"#utility.yul\":920:923   */\n      dup6\n        /* \"#utility.yul\":916:930   */\n      add\n        /* \"#utility.yul\":909:930   */\n      swap5\n      pop\n        /* \"#utility.yul\":959:963   */\n      0x20\n        /* \"#utility.yul\":954:957   */\n      dup5\n        /* \"#utility.yul\":950:964   */\n      add\n        /* \"#utility.yul\":943:964   */\n      swap4\n      pop\n        /* \"#utility.yul\":581:974   */\n      pop\n      pop\n        /* \"#utility.yul\":568:569   */\n      0x01\n        /* \"#utility.yul\":565:566   */\n      dup2\n        /* \"#utility.yul\":561:570   */\n      add\n        /* \"#utility.yul\":556:570   */\n      swap1\n      pop\n        /* \"#utility.yul\":521:974   */\n      jump(tag_512)\n    tag_514:\n        /* \"#utility.yul\":525:539   */\n      pop\n        /* \"#utility.yul\":135:980   */\n      pop\n      pop\n        /* \"#utility.yul\":23:980   */\n      swap4\n      swap3\n      pop\n      pop\n      pop\n      jump\t// out\n        /* \"#utility.yul\":1003:1725   */\n    tag_520:\n        /* \"#utility.yul\":1099:1104   */\n      0x00\n        /* \"#utility.yul\":1124:1205   */\n      tag_522\n        /* \"#utility.yul\":1140:1204   */\n      tag_523\n        /* \"#utility.yul\":1197:1203   */\n      dup5\n        /* \"#utility.yul\":1140:1204   */\n      tag_524\n      jump\t// in\n    tag_523:\n        /* \"#utility.yul\":1124:1205   */\n      tag_508\n      jump\t// in\n    tag_522:\n        /* \"#utility.yul\":1115:1205   */\n      swap1\n      pop\n        /* \"#utility.yul\":1225:1230   */\n      dup1\n        /* \"#utility.yul\":1254:1260   */\n      dup4\n        /* \"#utility.yul\":1247:1252   */\n      dup3\n        /* \"#utility.yul\":1240:1261   */\n      mstore\n        /* \"#utility.yul\":1288:1292   */\n      0x20\n        /* \"#utility.yul\":1281:1286   */\n      dup3\n        /* \"#utility.yul\":1277:1293   */\n      add\n        /* \"#utility.yul\":1270:1293   */\n      swap1\n      pop\n        /* \"#utility.yul\":1314:1320   */\n      dup3\n        /* \"#utility.yul\":1364:1367   */\n      dup6\n        /* \"#utility.yul\":1356:1360   */\n      0x20\n        /* \"#utility.yul\":1348:1354   */\n      dup7\n        /* \"#utility.yul\":1344:1361   */\n      mul\n        /* \"#utility.yul\":1339:1342   */\n      dup3\n        /* \"#utility.yul\":1335:1362   */\n      add\n        /* \"#utility.yul\":1332:1368   */\n      gt\n        /* \"#utility.yul\":1329:1472   */\n      iszero\n      tag_525\n      jumpi\n        /* \"#utility.yul\":1383:1462   */\n      tag_526\n      tag_511\n      jump\t// in\n    tag_526:\n        /* \"#utility.yul\":1329:1472   */\n    tag_525:\n        /* \"#utility.yul\":1496:1497   */\n      0x00\n        /* \"#utility.yul\":1481:1719   */\n    tag_527:\n        /* \"#utility.yul\":1506:1512   */\n      dup6\n        /* \"#utility.yul\":1503:1504   */\n      dup2\n        /* \"#utility.yul\":1500:1513   */\n      lt\n        /* \"#utility.yul\":1481:1719   */\n      iszero\n      tag_529\n      jumpi\n        /* \"#utility.yul\":1574:1577   */\n      dup2\n        /* \"#utility.yul\":1603:1640   */\n      tag_530\n        /* \"#utility.yul\":1636:1639   */\n      dup9\n        /* \"#utility.yul\":1624:1634   */\n      dup3\n        /* \"#utility.yul\":1603:1640   */\n      tag_531\n      jump\t// in\n    tag_530:\n        /* \"#utility.yul\":1598:1601   */\n      dup5\n        /* \"#utility.yul\":1591:1641   */\n      mstore\n        /* \"#utility.yul\":1670:1674   */\n      0x20\n        /* \"#utility.yul\":1665:1668   */\n      dup5\n        /* \"#utility.yul\":1661:1675   */\n      add\n        /* \"#utility.yul\":1654:1675   */\n      swap4\n      pop\n        /* \"#utility.yul\":1704:1708   */\n      0x20\n        /* \"#utility.yul\":1699:1702   */\n      dup4\n        /* \"#utility.yul\":1695:1709   */\n      add\n        /* \"#utility.yul\":1688:1709   */\n      swap3\n      pop\n        /* \"#utility.yul\":1541:1719   */\n      pop\n        /* \"#utility.yul\":1528:1529   */\n      0x01\n        /* \"#utility.yul\":1525:1526   */\n      dup2\n        /* \"#utility.yul\":1521:1530   */\n      add\n        /* \"#utility.yul\":1516:1530   */\n      swap1\n      pop\n        /* \"#utility.yul\":1481:1719   */\n      jump(tag_527)\n    tag_529:\n        /* \"#utility.yul\":1485:1499   */\n      pop\n        /* \"#utility.yul\":1105:1725   */\n      pop\n      pop\n        /* \"#utility.yul\":1003:1725   */\n      swap4\n      swap3\n      pop\n      pop\n      pop\n      jump\t// out\n        /* \"#utility.yul\":1731:2143   */\n    tag_532:\n        /* \"#utility.yul\":1809:1814   */\n      0x00\n        /* \"#utility.yul\":1834:1900   */\n      tag_534\n        /* \"#utility.yul\":1850:1899   */\n      tag_535\n        /* \"#utility.yul\":1892:1898   */\n      dup5\n        /* \"#utility.yul\":1850:1899   */\n      tag_536\n      jump\t// in\n    tag_535:\n        /* \"#utility.yul\":1834:1900   */\n      tag_508\n      jump\t// in\n    tag_534:\n        /* \"#utility.yul\":1825:1900   */\n      swap1\n      pop\n        /* \"#utility.yul\":1923:1929   */\n      dup3\n        /* \"#utility.yul\":1916:1921   */\n      dup2\n        /* \"#utility.yul\":1909:1930   */\n      mstore\n        /* \"#utility.yul\":1961:1965   */\n      0x20\n        /* \"#utility.yul\":1954:1959   */\n      dup2\n        /* \"#utility.yul\":1950:1966   */\n      add\n        /* \"#utility.yul\":1999:2002   */\n      dup5\n        /* \"#utility.yul\":1990:1996   */\n      dup5\n        /* \"#utility.yul\":1985:1988   */\n      dup5\n        /* \"#utility.yul\":1981:1997   */\n      add\n        /* \"#utility.yul\":1978:2003   */\n      gt\n        /* \"#utility.yul\":1975:2087   */\n      iszero\n      tag_537\n      jumpi\n        /* \"#utility.yul\":2006:2085   */\n      tag_538\n      tag_539\n      jump\t// in\n    tag_538:\n        /* \"#utility.yul\":1975:2087   */\n    tag_537:\n        /* \"#utility.yul\":2096:2137   */\n      tag_540\n        /* \"#utility.yul\":2130:2136   */\n      dup5\n        /* \"#utility.yul\":2125:2128   */\n      dup3\n        /* \"#utility.yul\":2120:2123   */\n      dup6\n        /* \"#utility.yul\":2096:2137   */\n      tag_541\n      jump\t// in\n    tag_540:\n        /* \"#utility.yul\":1815:2143   */\n      pop\n        /* \"#utility.yul\":1731:2143   */\n      swap4\n      swap3\n      pop\n      pop\n      pop\n      jump\t// out\n        /* \"#utility.yul\":2165:2555   */\n    tag_542:\n        /* \"#utility.yul\":2246:2251   */\n      0x00\n        /* \"#utility.yul\":2295:2298   */\n      dup3\n        /* \"#utility.yul\":2288:2292   */\n      0x1f\n        /* \"#utility.yul\":2280:2286   */\n      dup4\n        /* \"#utility.yul\":2276:2293   */\n      add\n        /* \"#utility.yul\":2272:2299   */\n      slt\n        /* \"#utility.yul\":2262:2384   */\n      tag_544\n      jumpi\n        /* \"#utility.yul\":2303:2382   */\n      tag_545\n      tag_517\n      jump\t// in\n    tag_545:\n        /* \"#utility.yul\":2262:2384   */\n    tag_544:\n        /* \"#utility.yul\":2420:2426   */\n      dup2\n        /* \"#utility.yul\":2407:2427   */\n      calldataload\n        /* \"#utility.yul\":2445:2549   */\n      tag_546\n        /* \"#utility.yul\":2545:2548   */\n      dup5\n        /* \"#utility.yul\":2537:2543   */\n      dup3\n        /* \"#utility.yul\":2530:2534   */\n      0x20\n        /* \"#utility.yul\":2522:2528   */\n      dup7\n        /* \"#utility.yul\":2518:2535   */\n      add\n        /* \"#utility.yul\":2445:2549   */\n      tag_503\n      jump\t// in\n    tag_546:\n        /* \"#utility.yul\":2436:2549   */\n      swap2\n      pop\n        /* \"#utility.yul\":2252:2555   */\n      pop\n        /* \"#utility.yul\":2165:2555   */\n      swap3\n      swap2\n      pop\n      pop\n      jump\t// out\n        /* \"#utility.yul\":2578:2948   */\n    tag_547:\n        /* \"#utility.yul\":2649:2654   */\n      0x00\n        /* \"#utility.yul\":2698:2701   */\n      dup3\n        /* \"#utility.yul\":2691:2695   */\n      0x1f\n        /* \"#utility.yul\":2683:2689   */\n      dup4\n        /* \"#utility.yul\":2679:2696   */\n      add\n        /* \"#utility.yul\":2675:2702   */\n      slt\n        /* \"#utility.yul\":2665:2787   */\n      tag_549\n      jumpi\n        /* \"#utility.yul\":2706:2785   */\n      tag_550\n      tag_517\n      jump\t// in\n    tag_550:\n        /* \"#utility.yul\":2665:2787   */\n    tag_549:\n        /* \"#utility.yul\":2823:2829   */\n      dup2\n        /* \"#utility.yul\":2810:2830   */\n      calldataload\n        /* \"#utility.yul\":2848:2942   */\n      tag_551\n        /* \"#utility.yul\":2938:2941   */\n      dup5\n        /* \"#utility.yul\":2930:2936   */\n      dup3\n        /* \"#utility.yul\":2923:2927   */\n      0x20\n        /* \"#utility.yul\":2915:2921   */\n      dup7\n        /* \"#utility.yul\":2911:2928   */\n      add\n        /* \"#utility.yul\":2848:2942   */\n      tag_520\n      jump\t// in\n    tag_551:\n        /* \"#utility.yul\":2839:2942   */\n      swap2\n      pop\n        /* \"#utility.yul\":2655:2948   */\n      pop\n        /* \"#utility.yul\":2578:2948   */\n      swap3\n      swap2\n      pop\n      pop\n      jump\t// out\n        /* \"#utility.yul\":2968:3308   */\n    tag_519:\n        /* \"#utility.yul\":3024:3029   */\n      0x00\n        /* \"#utility.yul\":3073:3076   */\n      dup3\n        /* \"#utility.yul\":3066:3070   */\n      0x1f\n        /* \"#utility.yul\":3058:3064   */\n      dup4\n        /* \"#utility.yul\":3054:3071   */\n      add\n        /* \"#utility.yul\":3050:3077   */\n      slt\n        /* \"#utility.yul\":3040:3162   */\n      tag_553\n      jumpi\n        /* \"#utility.yul\":3081:3160   */\n      tag_554\n      tag_517\n      jump\t// in\n    tag_554:\n        /* \"#utility.yul\":3040:3162   */\n    tag_553:\n        /* \"#utility.yul\":3198:3204   */\n      dup2\n        /* \"#utility.yul\":3185:3205   */\n      calldataload\n        /* \"#utility.yul\":3223:3302   */\n      tag_555\n        /* \"#utility.yul\":3298:3301   */\n      dup5\n        /* \"#utility.yul\":3290:3296   */\n      dup3\n        /* \"#utility.yul\":3283:3287   */\n      0x20\n        /* \"#utility.yul\":3275:3281   */\n      dup7\n        /* \"#utility.yul\":3271:3288   */\n      add\n        /* \"#utility.yul\":3223:3302   */\n      tag_532\n      jump\t// in\n    tag_555:\n        /* \"#utility.yul\":3214:3302   */\n      swap2\n      pop\n        /* \"#utility.yul\":3030:3308   */\n      pop\n        /* \"#utility.yul\":2968:3308   */\n      swap3\n      swap2\n      pop\n      pop\n      jump\t// out\n        /* \"#utility.yul\":3314:3453   */\n    tag_531:\n        /* \"#utility.yul\":3360:3365   */\n      0x00\n        /* \"#utility.yul\":3398:3404   */\n      dup2\n        /* \"#utility.yul\":3385:3405   */\n      calldataload\n        /* \"#utility.yul\":3376:3405   */\n      swap1\n      pop\n        /* \"#utility.yul\":3414:3447   */\n      tag_557\n        /* \"#utility.yul\":3441:3446   */\n      dup2\n        /* \"#utility.yul\":3414:3447   */\n      tag_558\n      jump\t// in\n    tag_557:\n        /* \"#utility.yul\":3314:3453   */\n      swap3\n      swap2\n      pop\n      pop\n      jump\t// out\n        /* \"#utility.yul\":3459:4018   */\n    tag_41:\n        /* \"#utility.yul\":3553:3559   */\n      0x00\n        /* \"#utility.yul\":3602:3604   */\n      0x20\n        /* \"#utility.yul\":3590:3599   */\n      dup3\n        /* \"#utility.yul\":3581:3588   */\n      dup5\n        /* \"#utility.yul\":3577:3600   */\n      sub\n        /* \"#utility.yul\":3573:3605   */\n      slt\n        /* \"#utility.yul\":3570:3689   */\n      iszero\n      tag_560\n      jumpi\n        /* \"#utility.yul\":3608:3687   */\n      tag_561\n      tag_562\n      jump\t// in\n    tag_561:\n        /* \"#utility.yul\":3570:3689   */\n    tag_560:\n        /* \"#utility.yul\":3756:3757   */\n      0x00\n        /* \"#utility.yul\":3745:3754   */\n      dup3\n        /* \"#utility.yul\":3741:3758   */\n      add\n        /* \"#utility.yul\":3728:3759   */\n      calldataload\n        /* \"#utility.yul\":3786:3804   */\n      0xffffffffffffffff\n        /* \"#utility.yul\":3778:3784   */\n      dup2\n        /* \"#utility.yul\":3775:3805   */\n      gt\n        /* \"#utility.yul\":3772:3889   */\n      iszero\n      tag_563\n      jumpi\n        /* \"#utility.yul\":3808:3887   */\n      tag_564\n      tag_565\n      jump\t// in\n    tag_564:\n        /* \"#utility.yul\":3772:3889   */\n    tag_563:\n        /* \"#utility.yul\":3913:4001   */\n      tag_566\n        /* \"#utility.yul\":3993:4000   */\n      dup5\n        /* \"#utility.yul\":3984:3990   */\n      dup3\n        /* \"#utility.yul\":3973:3982   */\n      dup6\n        /* \"#utility.yul\":3969:3991   */\n      add\n        /* \"#utility.yul\":3913:4001   */\n      tag_542\n      jump\t// in\n    tag_566:\n        /* \"#utility.yul\":3903:4001   */\n      swap2\n      pop\n        /* \"#utility.yul\":3699:4011   */\n      pop\n        /* \"#utility.yul\":3459:4018   */\n      swap3\n      swap2\n      pop\n      pop\n      jump\t// out\n        /* \"#utility.yul\":4024:4563   */\n    tag_56:\n        /* \"#utility.yul\":4108:4114   */\n      0x00\n        /* \"#utility.yul\":4157:4159   */\n      0x20\n        /* \"#utility.yul\":4145:4154   */\n      dup3\n        /* \"#utility.yul\":4136:4143   */\n      dup5\n        /* \"#utility.yul\":4132:4155   */\n      sub\n        /* \"#utility.yul\":4128:4160   */\n      slt\n        /* \"#utility.yul\":4125:4244   */\n      iszero\n      tag_568\n      jumpi\n        /* \"#utility.yul\":4163:4242   */\n      tag_569\n      tag_562\n      jump\t// in\n    tag_569:\n        /* \"#utility.yul\":4125:4244   */\n    tag_568:\n        /* \"#utility.yul\":4311:4312   */\n      0x00\n        /* \"#utility.yul\":4300:4309   */\n      dup3\n        /* \"#utility.yul\":4296:4313   */\n      add\n        /* \"#utility.yul\":4283:4314   */\n      calldataload\n        /* \"#utility.yul\":4341:4359   */\n      0xffffffffffffffff\n        /* \"#utility.yul\":4333:4339   */\n      dup2\n        /* \"#utility.yul\":4330:4360   */\n      gt\n        /* \"#utility.yul\":4327:4444   */\n      iszero\n      tag_570\n      jumpi\n        /* \"#utility.yul\":4363:4442   */\n      tag_571\n      tag_565\n      jump\t// in\n    tag_571:\n        /* \"#utility.yul\":4327:4444   */\n    tag_570:\n        /* \"#utility.yul\":4468:4546   */\n      tag_572\n        /* \"#utility.yul\":4538:4545   */\n      dup5\n        /* \"#utility.yul\":4529:4535   */\n      dup3\n        /* \"#utility.yul\":4518:4527   */\n      dup6\n        /* \"#utility.yul\":4514:4536   */\n      add\n        /* \"#utility.yul\":4468:4546   */\n      tag_547\n      jump\t// in\n    tag_572:\n        /* \"#utility.yul\":4458:4546   */\n      swap2\n      pop\n        /* \"#utility.yul\":4254:4556   */\n      pop\n        /* \"#utility.yul\":4024:4563   */\n      swap3\n      swap2\n      pop\n      pop\n      jump\t// out\n        /* \"#utility.yul\":4569:5078   */\n    tag_64:\n        /* \"#utility.yul\":4638:4644   */\n      0x00\n        /* \"#utility.yul\":4687:4689   */\n      0x20\n        /* \"#utility.yul\":4675:4684   */\n      dup3\n        /* \"#utility.yul\":4666:4673   */\n      dup5\n        /* \"#utility.yul\":4662:4685   */\n      sub\n        /* \"#utility.yul\":4658:4690   */\n      slt\n        /* \"#utility.yul\":4655:4774   */\n      iszero\n      tag_574\n      jumpi\n        /* \"#utility.yul\":4693:4772   */\n      tag_575\n      tag_562\n      jump\t// in\n    tag_575:\n        /* \"#utility.yul\":4655:4774   */\n    tag_574:\n        /* \"#utility.yul\":4841:4842   */\n      0x00\n        /* \"#utility.yul\":4830:4839   */\n      dup3\n        /* \"#utility.yul\":4826:4843   */\n      add\n        /* \"#utility.yul\":4813:4844   */\n      calldataload\n        /* \"#utility.yul\":4871:4889   */\n      0xffffffffffffffff\n        /* \"#utility.yul\":4863:4869   */\n      dup2\n        /* \"#utility.yul\":4860:4890   */\n      gt\n        /* \"#utility.yul\":4857:4974   */\n      iszero\n      tag_576\n      jumpi\n        /* \"#utility.yul\":4893:4972   */\n      tag_577\n      tag_565\n      jump\t// in\n    tag_577:\n        /* \"#utility.yul\":4857:4974   */\n    tag_576:\n        /* \"#utility.yul\":4998:5061   */\n      tag_578\n        /* \"#utility.yul\":5053:5060   */\n      dup5\n        /* \"#utility.yul\":5044:5050   */\n      dup3\n        /* \"#utility.yul\":5033:5042   */\n      dup6\n        /* \"#utility.yul\":5029:5051   */\n      add\n        /* \"#utility.yul\":4998:5061   */\n      tag_519\n      jump\t// in\n    tag_578:\n        /* \"#utility.yul\":4988:5061   */\n      swap2\n      pop\n        /* \"#utility.yul\":4784:5071   */\n      pop\n        /* \"#utility.yul\":4569:5078   */\n      swap3\n      swap2\n      pop\n      pop\n      jump\t// out\n        /* \"#utility.yul\":5084:5558   */\n    tag_20:\n        /* \"#utility.yul\":5152:5158   */\n      0x00\n        /* \"#utility.yul\":5160:5166   */\n      dup1\n        /* \"#utility.yul\":5209:5211   */\n      0x40\n        /* \"#utility.yul\":5197:5206   */\n      dup4\n        /* \"#utility.yul\":5188:5195   */\n      dup6\n        /* \"#utility.yul\":5184:5207   */\n      sub\n        /* \"#utility.yul\":5180:5212   */\n      slt\n        /* \"#utility.yul\":5177:5296   */\n      iszero\n      tag_580\n      jumpi\n        /* \"#utility.yul\":5215:5294   */\n      tag_581\n      tag_562\n      jump\t// in\n    tag_581:\n        /* \"#utility.yul\":5177:5296   */\n    tag_580:\n        /* \"#utility.yul\":5335:5336   */\n      0x00\n        /* \"#utility.yul\":5360:5413   */\n      tag_582\n        /* \"#utility.yul\":5405:5412   */\n      dup6\n        /* \"#utility.yul\":5396:5402   */\n      dup3\n        /* \"#utility.yul\":5385:5394   */\n      dup7\n        /* \"#utility.yul\":5381:5403   */\n      add\n        /* \"#utility.yul\":5360:5413   */\n      tag_531\n      jump\t// in\n    tag_582:\n        /* \"#utility.yul\":5350:5413   */\n      swap3\n      pop\n        /* \"#utility.yul\":5306:5423   */\n      pop\n        /* \"#utility.yul\":5462:5464   */\n      0x20\n        /* \"#utility.yul\":5488:5541   */\n      tag_583\n        /* \"#utility.yul\":5533:5540   */\n      dup6\n        /* \"#utility.yul\":5524:5530   */\n      dup3\n        /* \"#utility.yul\":5513:5522   */\n      dup7\n        /* \"#utility.yul\":5509:5531   */\n      add\n        /* \"#utility.yul\":5488:5541   */\n      tag_531\n      jump\t// in\n    tag_583:\n        /* \"#utility.yul\":5478:5541   */\n      swap2\n      pop\n        /* \"#utility.yul\":5433:5551   */\n      pop\n        /* \"#utility.yul\":5084:5558   */\n      swap3\n      pop\n      swap3\n      swap1\n      pop\n      jump\t// out\n        /* \"#utility.yul\":5564:6183   */\n    tag_30:\n        /* \"#utility.yul\":5641:5647   */\n      0x00\n        /* \"#utility.yul\":5649:5655   */\n      dup1\n        /* \"#utility.yul\":5657:5663   */\n      0x00\n        /* \"#utility.yul\":5706:5708   */\n      0x60\n        /* \"#utility.yul\":5694:5703   */\n      dup5\n        /* \"#utility.yul\":5685:5692   */\n      dup7\n        /* \"#utility.yul\":5681:5704   */\n      sub\n        /* \"#utility.yul\":5677:5709   */\n      slt\n        /* \"#utility.yul\":5674:5793   */\n      iszero\n      tag_585\n      jumpi\n        /* \"#utility.yul\":5712:5791   */\n      tag_586\n      tag_562\n      jump\t// in\n    tag_586:\n        /* \"#utility.yul\":5674:5793   */\n    tag_585:\n        /* \"#utility.yul\":5832:5833   */\n      0x00\n        /* \"#utility.yul\":5857:5910   */\n      tag_587\n        /* \"#utility.yul\":5902:5909   */\n      dup7\n        /* \"#utility.yul\":5893:5899   */\n      dup3\n        /* \"#utility.yul\":5882:5891   */\n      dup8\n        /* \"#utility.yul\":5878:5900   */\n      add\n        /* \"#utility.yul\":5857:5910   */\n      tag_531\n      jump\t// in\n    tag_587:\n        /* \"#utility.yul\":5847:5910   */\n      swap4\n      pop\n        /* \"#utility.yul\":5803:5920   */\n      pop\n        /* \"#utility.yul\":5959:5961   */\n      0x20\n        /* \"#utility.yul\":5985:6038   */\n      tag_588\n        /* \"#utility.yul\":6030:6037   */\n      dup7\n        /* \"#utility.yul\":6021:6027   */\n      dup3\n        /* \"#utility.yul\":6010:6019   */\n      dup8\n        /* \"#utility.yul\":6006:6028   */\n      add\n        /* \"#utility.yul\":5985:6038   */\n      tag_531\n      jump\t// in\n    tag_588:\n        /* \"#utility.yul\":5975:6038   */\n      swap3\n      pop\n        /* \"#utility.yul\":5930:6048   */\n      pop\n        /* \"#utility.yul\":6087:6089   */\n      0x40\n        /* \"#utility.yul\":6113:6166   */\n      tag_589\n        /* \"#utility.yul\":6158:6165   */\n      dup7\n        /* \"#utility.yul\":6149:6155   */\n      dup3\n        /* \"#utility.yul\":6138:6147   */\n      dup8\n        /* \"#utility.yul\":6134:6156   */\n      add\n        /* \"#utility.yul\":6113:6166   */\n      tag_531\n      jump\t// in\n    tag_589:\n        /* \"#utility.yul\":6103:6166   */\n      swap2\n      pop\n        /* \"#utility.yul\":6058:6176   */\n      pop\n        /* \"#utility.yul\":5564:6183   */\n      swap3\n      pop\n      swap3\n      pop\n      swap3\n      jump\t// out\n        /* \"#utility.yul\":6189:6307   */\n    tag_590:\n        /* \"#utility.yul\":6276:6300   */\n      tag_592\n        /* \"#utility.yul\":6294:6299   */\n      dup2\n        /* \"#utility.yul\":6276:6300   */\n      tag_593\n      jump\t// in\n    tag_592:\n        /* \"#utility.yul\":6271:6274   */\n      dup3\n        /* \"#utility.yul\":6264:6301   */\n      mstore\n        /* \"#utility.yul\":6189:6307   */\n      pop\n      pop\n      jump\t// out\n        /* \"#utility.yul\":6313:6677   */\n    tag_594:\n        /* \"#utility.yul\":6401:6404   */\n      0x00\n        /* \"#utility.yul\":6429:6468   */\n      tag_596\n        /* \"#utility.yul\":6462:6467   */\n      dup3\n        /* \"#utility.yul\":6429:6468   */\n      tag_597\n      jump\t// in\n    tag_596:\n        /* \"#utility.yul\":6484:6555   */\n      tag_598\n        /* \"#utility.yul\":6548:6554   */\n      dup2\n        /* \"#utility.yul\":6543:6546   */\n      dup6\n        /* \"#utility.yul\":6484:6555   */\n      tag_599\n      jump\t// in\n    tag_598:\n        /* \"#utility.yul\":6477:6555   */\n      swap4\n      pop\n        /* \"#utility.yul\":6564:6616   */\n      tag_600\n        /* \"#utility.yul\":6609:6615   */\n      dup2\n        /* \"#utility.yul\":6604:6607   */\n      dup6\n        /* \"#utility.yul\":6597:6601   */\n      0x20\n        /* \"#utility.yul\":6590:6595   */\n      dup7\n        /* \"#utility.yul\":6586:6602   */\n      add\n        /* \"#utility.yul\":6564:6616   */\n      tag_601\n      jump\t// in\n    tag_600:\n        /* \"#utility.yul\":6641:6670   */\n      tag_602\n        /* \"#utility.yul\":6663:6669   */\n      dup2\n        /* \"#utility.yul\":6641:6670   */\n      tag_603\n      jump\t// in\n    tag_602:\n        /* \"#utility.yul\":6636:6639   */\n      dup5\n        /* \"#utility.yul\":6632:6671   */\n      add\n        /* \"#utility.yul\":6625:6671   */\n      swap2\n      pop\n        /* \"#utility.yul\":6405:6677   */\n      pop\n        /* \"#utility.yul\":6313:6677   */\n      swap3\n      swap2\n      pop\n      pop\n      jump\t// out\n        /* \"#utility.yul\":6683:7060   */\n    tag_604:\n        /* \"#utility.yul\":6789:6792   */\n      0x00\n        /* \"#utility.yul\":6817:6856   */\n      tag_606\n        /* \"#utility.yul\":6850:6855   */\n      dup3\n        /* \"#utility.yul\":6817:6856   */\n      tag_597\n      jump\t// in\n    tag_606:\n        /* \"#utility.yul\":6872:6961   */\n      tag_607\n        /* \"#utility.yul\":6954:6960   */\n      dup2\n        /* \"#utility.yul\":6949:6952   */\n      dup6\n        /* \"#utility.yul\":6872:6961   */\n      tag_608\n      jump\t// in\n    tag_607:\n        /* \"#utility.yul\":6865:6961   */\n      swap4\n      pop\n        /* \"#utility.yul\":6970:7022   */\n      tag_609\n        /* \"#utility.yul\":7015:7021   */\n      dup2\n        /* \"#utility.yul\":7010:7013   */\n      dup6\n        /* \"#utility.yul\":7003:7007   */\n      0x20\n        /* \"#utility.yul\":6996:7001   */\n      dup7\n        /* \"#utility.yul\":6992:7008   */\n      add\n        /* \"#utility.yul\":6970:7022   */\n      tag_601\n      jump\t// in\n    tag_609:\n        /* \"#utility.yul\":7047:7053   */\n      dup1\n        /* \"#utility.yul\":7042:7045   */\n      dup5\n        /* \"#utility.yul\":7038:7054   */\n      add\n        /* \"#utility.yul\":7031:7054   */\n      swap2\n      pop\n        /* \"#utility.yul\":6793:7060   */\n      pop\n        /* \"#utility.yul\":6683:7060   */\n      swap3\n      swap2\n      pop\n      pop\n      jump\t// out\n        /* \"#utility.yul\":7090:7935   */\n    tag_610:\n        /* \"#utility.yul\":7193:7196   */\n      0x00\n        /* \"#utility.yul\":7230:7235   */\n      dup2\n        /* \"#utility.yul\":7224:7236   */\n      sload\n        /* \"#utility.yul\":7259:7295   */\n      tag_612\n        /* \"#utility.yul\":7285:7294   */\n      dup2\n        /* \"#utility.yul\":7259:7295   */\n      tag_122\n      jump\t// in\n    tag_612:\n        /* \"#utility.yul\":7311:7400   */\n      tag_613\n        /* \"#utility.yul\":7393:7399   */\n      dup2\n        /* \"#utility.yul\":7388:7391   */\n      dup7\n        /* \"#utility.yul\":7311:7400   */\n      tag_608\n      jump\t// in\n    tag_613:\n        /* \"#utility.yul\":7304:7400   */\n      swap5\n      pop\n        /* \"#utility.yul\":7431:7432   */\n      0x01\n        /* \"#utility.yul\":7420:7429   */\n      dup3\n        /* \"#utility.yul\":7416:7433   */\n      and\n        /* \"#utility.yul\":7447:7448   */\n      0x00\n        /* \"#utility.yul\":7442:7579   */\n      dup2\n      eq\n      tag_615\n      jumpi\n        /* \"#utility.yul\":7593:7594   */\n      0x01\n        /* \"#utility.yul\":7588:7929   */\n      dup2\n      eq\n      tag_616\n      jumpi\n        /* \"#utility.yul\":7409:7929   */\n      jump(tag_614)\n        /* \"#utility.yul\":7442:7579   */\n    tag_615:\n        /* \"#utility.yul\":7526:7530   */\n      0xff\n        /* \"#utility.yul\":7522:7531   */\n      not\n        /* \"#utility.yul\":7511:7520   */\n      dup4\n        /* \"#utility.yul\":7507:7532   */\n      and\n        /* \"#utility.yul\":7502:7505   */\n      dup7\n        /* \"#utility.yul\":7495:7533   */\n      mstore\n        /* \"#utility.yul\":7562:7568   */\n      dup2\n        /* \"#utility.yul\":7557:7560   */\n      dup7\n        /* \"#utility.yul\":7553:7569   */\n      add\n        /* \"#utility.yul\":7546:7569   */\n      swap4\n      pop\n        /* \"#utility.yul\":7442:7579   */\n      jump(tag_614)\n        /* \"#utility.yul\":7588:7929   */\n    tag_616:\n        /* \"#utility.yul\":7655:7693   */\n      tag_617\n        /* \"#utility.yul\":7687:7692   */\n      dup6\n        /* \"#utility.yul\":7655:7693   */\n      tag_618\n      jump\t// in\n    tag_617:\n        /* \"#utility.yul\":7715:7716   */\n      0x00\n        /* \"#utility.yul\":7729:7883   */\n    tag_619:\n        /* \"#utility.yul\":7743:7749   */\n      dup4\n        /* \"#utility.yul\":7740:7741   */\n      dup2\n        /* \"#utility.yul\":7737:7750   */\n      lt\n        /* \"#utility.yul\":7729:7883   */\n      iszero\n      tag_621\n      jumpi\n        /* \"#utility.yul\":7817:7824   */\n      dup2\n        /* \"#utility.yul\":7811:7825   */\n      sload\n        /* \"#utility.yul\":7807:7808   */\n      dup2\n        /* \"#utility.yul\":7802:7805   */\n      dup10\n        /* \"#utility.yul\":7798:7809   */\n      add\n        /* \"#utility.yul\":7791:7826   */\n      mstore\n        /* \"#utility.yul\":7867:7868   */\n      0x01\n        /* \"#utility.yul\":7858:7865   */\n      dup3\n        /* \"#utility.yul\":7854:7869   */\n      add\n        /* \"#utility.yul\":7843:7869   */\n      swap2\n      pop\n        /* \"#utility.yul\":7765:7769   */\n      0x20\n        /* \"#utility.yul\":7762:7763   */\n      dup2\n        /* \"#utility.yul\":7758:7770   */\n      add\n        /* \"#utility.yul\":7753:7770   */\n      swap1\n      pop\n        /* \"#utility.yul\":7729:7883   */\n      jump(tag_619)\n    tag_621:\n        /* \"#utility.yul\":7912:7918   */\n      dup4\n        /* \"#utility.yul\":7907:7910   */\n      dup9\n        /* \"#utility.yul\":7903:7919   */\n      add\n        /* \"#utility.yul\":7896:7919   */\n      swap6\n      pop\n        /* \"#utility.yul\":7595:7929   */\n      pop\n      pop\n        /* \"#utility.yul\":7409:7929   */\n    tag_614:\n      pop\n        /* \"#utility.yul\":7197:7935   */\n      pop\n      pop\n        /* \"#utility.yul\":7090:7935   */\n      swap3\n      swap2\n      pop\n      pop\n      jump\t// out\n        /* \"#utility.yul\":7941:8307   */\n    tag_622:\n        /* \"#utility.yul\":8083:8086   */\n      0x00\n        /* \"#utility.yul\":8104:8171   */\n      tag_624\n        /* \"#utility.yul\":8168:8170   */\n      0x2b\n        /* \"#utility.yul\":8163:8166   */\n      dup4\n        /* \"#utility.yul\":8104:8171   */\n      tag_599\n      jump\t// in\n    tag_624:\n        /* \"#utility.yul\":8097:8171   */\n      swap2\n      pop\n        /* \"#utility.yul\":8180:8273   */\n      tag_625\n        /* \"#utility.yul\":8269:8272   */\n      dup3\n        /* \"#utility.yul\":8180:8273   */\n      tag_626\n      jump\t// in\n    tag_625:\n        /* \"#utility.yul\":8298:8300   */\n      0x40\n        /* \"#utility.yul\":8293:8296   */\n      dup3\n        /* \"#utility.yul\":8289:8301   */\n      add\n        /* \"#utility.yul\":8282:8301   */\n      swap1\n      pop\n        /* \"#utility.yul\":7941:8307   */\n      swap2\n      swap1\n      pop\n      jump\t// out\n        /* \"#utility.yul\":8313:8679   */\n    tag_627:\n        /* \"#utility.yul\":8455:8458   */\n      0x00\n        /* \"#utility.yul\":8476:8543   */\n      tag_629\n        /* \"#utility.yul\":8540:8542   */\n      0x21\n        /* \"#utility.yul\":8535:8538   */\n      dup4\n        /* \"#utility.yul\":8476:8543   */\n      tag_599\n      jump\t// in\n    tag_629:\n        /* \"#utility.yul\":8469:8543   */\n      swap2\n      pop\n        /* \"#utility.yul\":8552:8645   */\n      tag_630\n        /* \"#utility.yul\":8641:8644   */\n      dup3\n        /* \"#utility.yul\":8552:8645   */\n      tag_631\n      jump\t// in\n    tag_630:\n        /* \"#utility.yul\":8670:8672   */\n      0x40\n        /* \"#utility.yul\":8665:8668   */\n      dup3\n        /* \"#utility.yul\":8661:8673   */\n      add\n        /* \"#utility.yul\":8654:8673   */\n      swap1\n      pop\n        /* \"#utility.yul\":8313:8679   */\n      swap2\n      swap1\n      pop\n      jump\t// out\n        /* \"#utility.yul\":8685:9051   */\n    tag_632:\n        /* \"#utility.yul\":8827:8830   */\n      0x00\n        /* \"#utility.yul\":8848:8915   */\n      tag_634\n        /* \"#utility.yul\":8912:8914   */\n      0x20\n        /* \"#utility.yul\":8907:8910   */\n      dup4\n        /* \"#utility.yul\":8848:8915   */\n      tag_599\n      jump\t// in\n    tag_634:\n        /* \"#utility.yul\":8841:8915   */\n      swap2\n      pop\n        /* \"#utility.yul\":8924:9017   */\n      tag_635\n        /* \"#utility.yul\":9013:9016   */\n      dup3\n        /* \"#utility.yul\":8924:9017   */\n      tag_636\n      jump\t// in\n    tag_635:\n        /* \"#utility.yul\":9042:9044   */\n      0x20\n        /* \"#utility.yul\":9037:9040   */\n      dup3\n        /* \"#utility.yul\":9033:9045   */\n      add\n        /* \"#utility.yul\":9026:9045   */\n      swap1\n      pop\n        /* \"#utility.yul\":8685:9051   */\n      swap2\n      swap1\n      pop\n      jump\t// out\n        /* \"#utility.yul\":9057:9457   */\n    tag_637:\n        /* \"#utility.yul\":9217:9220   */\n      0x00\n        /* \"#utility.yul\":9238:9322   */\n      tag_639\n        /* \"#utility.yul\":9320:9321   */\n      0x01\n        /* \"#utility.yul\":9315:9318   */\n      dup4\n        /* \"#utility.yul\":9238:9322   */\n      tag_608\n      jump\t// in\n    tag_639:\n        /* \"#utility.yul\":9231:9322   */\n      swap2\n      pop\n        /* \"#utility.yul\":9331:9424   */\n      tag_640\n        /* \"#utility.yul\":9420:9423   */\n      dup3\n        /* \"#utility.yul\":9331:9424   */\n      tag_641\n      jump\t// in\n    tag_640:\n        /* \"#utility.yul\":9449:9450   */\n      0x01\n        /* \"#utility.yul\":9444:9447   */\n      dup3\n        /* \"#utility.yul\":9440:9451   */\n      add\n        /* \"#utility.yul\":9433:9451   */\n      swap1\n      pop\n        /* \"#utility.yul\":9057:9457   */\n      swap2\n      swap1\n      pop\n      jump\t// out\n        /* \"#utility.yul\":9463:9829   */\n    tag_642:\n        /* \"#utility.yul\":9605:9608   */\n      0x00\n        /* \"#utility.yul\":9626:9693   */\n      tag_644\n        /* \"#utility.yul\":9690:9692   */\n      0x14\n        /* \"#utility.yul\":9685:9688   */\n      dup4\n        /* \"#utility.yul\":9626:9693   */\n      tag_599\n      jump\t// in\n    tag_644:\n        /* \"#utility.yul\":9619:9693   */\n      swap2\n      pop\n        /* \"#utility.yul\":9702:9795   */\n      tag_645\n        /* \"#utility.yul\":9791:9794   */\n      dup3\n        /* \"#utility.yul\":9702:9795   */\n      tag_646\n      jump\t// in\n    tag_645:\n        /* \"#utility.yul\":9820:9822   */\n      0x20\n        /* \"#utility.yul\":9815:9818   */\n      dup3\n        /* \"#utility.yul\":9811:9823   */\n      add\n        /* \"#utility.yul\":9804:9823   */\n      swap1\n      pop\n        /* \"#utility.yul\":9463:9829   */\n      swap2\n      swap1\n      pop\n      jump\t// out\n        /* \"#utility.yul\":9835:10237   */\n    tag_647:\n        /* \"#utility.yul\":9995:9998   */\n      0x00\n        /* \"#utility.yul\":10016:10101   */\n      tag_649\n        /* \"#utility.yul\":10098:10100   */\n      0x0f\n        /* \"#utility.yul\":10093:10096   */\n      dup4\n        /* \"#utility.yul\":10016:10101   */\n      tag_608\n      jump\t// in\n    tag_649:\n        /* \"#utility.yul\":10009:10101   */\n      swap2\n      pop\n        /* \"#utility.yul\":10110:10203   */\n      tag_650\n        /* \"#utility.yul\":10199:10202   */\n      dup3\n        /* \"#utility.yul\":10110:10203   */\n      tag_651\n      jump\t// in\n    tag_650:\n        /* \"#utility.yul\":10228:10230   */\n      0x0f\n        /* \"#utility.yul\":10223:10226   */\n      dup3\n        /* \"#utility.yul\":10219:10231   */\n      add\n        /* \"#utility.yul\":10212:10231   */\n      swap1\n      pop\n        /* \"#utility.yul\":9835:10237   */\n      swap2\n      swap1\n      pop\n      jump\t// out\n        /* \"#utility.yul\":10243:10609   */\n    tag_652:\n        /* \"#utility.yul\":10385:10388   */\n      0x00\n        /* \"#utility.yul\":10406:10473   */\n      tag_654\n        /* \"#utility.yul\":10470:10472   */\n      0x3d\n        /* \"#utility.yul\":10465:10468   */\n      dup4\n        /* \"#utility.yul\":10406:10473   */\n      tag_599\n      jump\t// in\n    tag_654:\n        /* \"#utility.yul\":10399:10473   */\n      swap2\n      pop\n        /* \"#utility.yul\":10482:10575   */\n      tag_655\n        /* \"#utility.yul\":10571:10574   */\n      dup3\n        /* \"#utility.yul\":10482:10575   */\n      tag_656\n      jump\t// in\n    tag_655:\n        /* \"#utility.yul\":10600:10602   */\n      0x40\n        /* \"#utility.yul\":10595:10598   */\n      dup3\n        /* \"#utility.yul\":10591:10603   */\n      add\n        /* \"#utility.yul\":10584:10603   */\n      swap1\n      pop\n        /* \"#utility.yul\":10243:10609   */\n      swap2\n      swap1\n      pop\n      jump\t// out\n        /* \"#utility.yul\":10615:10981   */\n    tag_657:\n        /* \"#utility.yul\":10757:10760   */\n      0x00\n        /* \"#utility.yul\":10778:10845   */\n      tag_659\n        /* \"#utility.yul\":10842:10844   */\n      0x2a\n        /* \"#utility.yul\":10837:10840   */\n      dup4\n        /* \"#utility.yul\":10778:10845   */\n      tag_599\n      jump\t// in\n    tag_659:\n        /* \"#utility.yul\":10771:10845   */\n      swap2\n      pop\n        /* \"#utility.yul\":10854:10947   */\n      tag_660\n        /* \"#utility.yul\":10943:10946   */\n      dup3\n        /* \"#utility.yul\":10854:10947   */\n      tag_661\n      jump\t// in\n    tag_660:\n        /* \"#utility.yul\":10972:10974   */\n      0x40\n        /* \"#utility.yul\":10967:10970   */\n      dup3\n        /* \"#utility.yul\":10963:10975   */\n      add\n        /* \"#utility.yul\":10956:10975   */\n      swap1\n      pop\n        /* \"#utility.yul\":10615:10981   */\n      swap2\n      swap1\n      pop\n      jump\t// out\n        /* \"#utility.yul\":10987:11353   */\n    tag_662:\n        /* \"#utility.yul\":11129:11132   */\n      0x00\n        /* \"#utility.yul\":11150:11217   */\n      tag_664\n        /* \"#utility.yul\":11214:11216   */\n      0x1a\n        /* \"#utility.yul\":11209:11212   */\n      dup4\n        /* \"#utility.yul\":11150:11217   */\n      tag_599\n      jump\t// in\n    tag_664:\n        /* \"#utility.yul\":11143:11217   */\n      swap2\n      pop\n        /* \"#utility.yul\":11226:11319   */\n      tag_665\n        /* \"#utility.yul\":11315:11318   */\n      dup3\n        /* \"#utility.yul\":11226:11319   */\n      tag_666\n      jump\t// in\n    tag_665:\n        /* \"#utility.yul\":11344:11346   */\n      0x20\n        /* \"#utility.yul\":11339:11342   */\n      dup3\n        /* \"#utility.yul\":11335:11347   */\n      add\n        /* \"#utility.yul\":11328:11347   */\n      swap1\n      pop\n        /* \"#utility.yul\":10987:11353   */\n      swap2\n      swap1\n      pop\n      jump\t// out\n        /* \"#utility.yul\":11359:11725   */\n    tag_667:\n        /* \"#utility.yul\":11501:11504   */\n      0x00\n        /* \"#utility.yul\":11522:11589   */\n      tag_669\n        /* \"#utility.yul\":11586:11588   */\n      0x1c\n        /* \"#utility.yul\":11581:11584   */\n      dup4\n        /* \"#utility.yul\":11522:11589   */\n      tag_599\n      jump\t// in\n    tag_669:\n        /* \"#utility.yul\":11515:11589   */\n      swap2\n      pop\n        /* \"#utility.yul\":11598:11691   */\n      tag_670\n        /* \"#utility.yul\":11687:11690   */\n      dup3\n        /* \"#utility.yul\":11598:11691   */\n      tag_671\n      jump\t// in\n    tag_670:\n        /* \"#utility.yul\":11716:11718   */\n      0x20\n        /* \"#utility.yul\":11711:11714   */\n      dup3\n        /* \"#utility.yul\":11707:11719   */\n      add\n        /* \"#utility.yul\":11700:11719   */\n      swap1\n      pop\n        /* \"#utility.yul\":11359:11725   */\n      swap2\n      swap1\n      pop\n      jump\t// out\n        /* \"#utility.yul\":11731:12097   */\n    tag_672:\n        /* \"#utility.yul\":11873:11876   */\n      0x00\n        /* \"#utility.yul\":11894:11961   */\n      tag_674\n        /* \"#utility.yul\":11958:11960   */\n      0x0f\n        /* \"#utility.yul\":11953:11956   */\n      dup4\n        /* \"#utility.yul\":11894:11961   */\n      tag_599\n      jump\t// in\n    tag_674:\n        /* \"#utility.yul\":11887:11961   */\n      swap2\n      pop\n        /* \"#utility.yul\":11970:12063   */\n      tag_675\n        /* \"#utility.yul\":12059:12062   */\n      dup3\n        /* \"#utility.yul\":11970:12063   */\n      tag_676\n      jump\t// in\n    tag_675:\n        /* \"#utility.yul\":12088:12090   */\n      0x20\n        /* \"#utility.yul\":12083:12086   */\n      dup3\n        /* \"#utility.yul\":12079:12091   */\n      add\n        /* \"#utility.yul\":12072:12091   */\n      swap1\n      pop\n        /* \"#utility.yul\":11731:12097   */\n      swap2\n      swap1\n      pop\n      jump\t// out\n        /* \"#utility.yul\":12103:12505   */\n    tag_677:\n        /* \"#utility.yul\":12263:12266   */\n      0x00\n        /* \"#utility.yul\":12284:12369   */\n      tag_679\n        /* \"#utility.yul\":12366:12368   */\n      0x0b\n        /* \"#utility.yul\":12361:12364   */\n      dup4\n        /* \"#utility.yul\":12284:12369   */\n      tag_608\n      jump\t// in\n    tag_679:\n        /* \"#utility.yul\":12277:12369   */\n      swap2\n      pop\n        /* \"#utility.yul\":12378:12471   */\n      tag_680\n        /* \"#utility.yul\":12467:12470   */\n      dup3\n        /* \"#utility.yul\":12378:12471   */\n      tag_681\n      jump\t// in\n    tag_680:\n        /* \"#utility.yul\":12496:12498   */\n      0x0b\n        /* \"#utility.yul\":12491:12494   */\n      dup3\n        /* \"#utility.yul\":12487:12499   */\n      add\n        /* \"#utility.yul\":12480:12499   */\n      swap1\n      pop\n        /* \"#utility.yul\":12103:12505   */\n      swap2\n      swap1\n      pop\n      jump\t// out\n        /* \"#utility.yul\":12511:12877   */\n    tag_682:\n        /* \"#utility.yul\":12653:12656   */\n      0x00\n        /* \"#utility.yul\":12674:12741   */\n      tag_684\n        /* \"#utility.yul\":12738:12740   */\n      0x1b\n        /* \"#utility.yul\":12733:12736   */\n      dup4\n        /* \"#utility.yul\":12674:12741   */\n      tag_599\n      jump\t// in\n    tag_684:\n        /* \"#utility.yul\":12667:12741   */\n      swap2\n      pop\n        /* \"#utility.yul\":12750:12843   */\n      tag_685\n        /* \"#utility.yul\":12839:12842   */\n      dup3\n        /* \"#utility.yul\":12750:12843   */\n      tag_686\n      jump\t// in\n    tag_685:\n        /* \"#utility.yul\":12868:12870   */\n      0x20\n        /* \"#utility.yul\":12863:12866   */\n      dup3\n        /* \"#utility.yul\":12859:12871   */\n      add\n        /* \"#utility.yul\":12852:12871   */\n      swap1\n      pop\n        /* \"#utility.yul\":12511:12877   */\n      swap2\n      swap1\n      pop\n      jump\t// out\n        /* \"#utility.yul\":12883:13249   */\n    tag_687:\n        /* \"#utility.yul\":13025:13028   */\n      0x00\n        /* \"#utility.yul\":13046:13113   */\n      tag_689\n        /* \"#utility.yul\":13110:13112   */\n      0x18\n        /* \"#utility.yul\":13105:13108   */\n      dup4\n        /* \"#utility.yul\":13046:13113   */\n      tag_599\n      jump\t// in\n    tag_689:\n        /* \"#utility.yul\":13039:13113   */\n      swap2\n      pop\n        /* \"#utility.yul\":13122:13215   */\n      tag_690\n        /* \"#utility.yul\":13211:13214   */\n      dup3\n        /* \"#utility.yul\":13122:13215   */\n      tag_691\n      jump\t// in\n    tag_690:\n        /* \"#utility.yul\":13240:13242   */\n      0x20\n        /* \"#utility.yul\":13235:13238   */\n      dup3\n        /* \"#utility.yul\":13231:13243   */\n      add\n        /* \"#utility.yul\":13224:13243   */\n      swap1\n      pop\n        /* \"#utility.yul\":12883:13249   */\n      swap2\n      swap1\n      pop\n      jump\t// out\n        /* \"#utility.yul\":13255:13621   */\n    tag_692:\n        /* \"#utility.yul\":13397:13400   */\n      0x00\n        /* \"#utility.yul\":13418:13485   */\n      tag_694\n        /* \"#utility.yul\":13482:13484   */\n      0x16\n        /* \"#utility.yul\":13477:13480   */\n      dup4\n        /* \"#utility.yul\":13418:13485   */\n      tag_599\n      jump\t// in\n    tag_694:\n        /* \"#utility.yul\":13411:13485   */\n      swap2\n      pop\n        /* \"#utility.yul\":13494:13587   */\n      tag_695\n        /* \"#utility.yul\":13583:13586   */\n      dup3\n        /* \"#utility.yul\":13494:13587   */\n      tag_696\n      jump\t// in\n    tag_695:\n        /* \"#utility.yul\":13612:13614   */\n      0x20\n        /* \"#utility.yul\":13607:13610   */\n      dup3\n        /* \"#utility.yul\":13603:13615   */\n      add\n        /* \"#utility.yul\":13596:13615   */\n      swap1\n      pop\n        /* \"#utility.yul\":13255:13621   */\n      swap2\n      swap1\n      pop\n      jump\t// out\n        /* \"#utility.yul\":13627:13993   */\n    tag_697:\n        /* \"#utility.yul\":13769:13772   */\n      0x00\n        /* \"#utility.yul\":13790:13857   */\n      tag_699\n        /* \"#utility.yul\":13854:13856   */\n      0x15\n        /* \"#utility.yul\":13849:13852   */\n      dup4\n        /* \"#utility.yul\":13790:13857   */\n      tag_599\n      jump\t// in\n    tag_699:\n        /* \"#utility.yul\":13783:13857   */\n      swap2\n      pop\n        /* \"#utility.yul\":13866:13959   */\n      tag_700\n        /* \"#utility.yul\":13955:13958   */\n      dup3\n        /* \"#utility.yul\":13866:13959   */\n      tag_701\n      jump\t// in\n    tag_700:\n        /* \"#utility.yul\":13984:13986   */\n      0x20\n        /* \"#utility.yul\":13979:13982   */\n      dup3\n        /* \"#utility.yul\":13975:13987   */\n      add\n        /* \"#utility.yul\":13968:13987   */\n      swap1\n      pop\n        /* \"#utility.yul\":13627:13993   */\n      swap2\n      swap1\n      pop\n      jump\t// out\n        /* \"#utility.yul\":13999:14365   */\n    tag_702:\n        /* \"#utility.yul\":14141:14144   */\n      0x00\n        /* \"#utility.yul\":14162:14229   */\n      tag_704\n        /* \"#utility.yul\":14226:14228   */\n      0x20\n        /* \"#utility.yul\":14221:14224   */\n      dup4\n        /* \"#utility.yul\":14162:14229   */\n      tag_599\n      jump\t// in\n    tag_704:\n        /* \"#utility.yul\":14155:14229   */\n      swap2\n      pop\n        /* \"#utility.yul\":14238:14331   */\n      tag_705\n        /* \"#utility.yul\":14327:14330   */\n      dup3\n        /* \"#utility.yul\":14238:14331   */\n      tag_706\n      jump\t// in\n    tag_705:\n        /* \"#utility.yul\":14356:14358   */\n      0x20\n        /* \"#utility.yul\":14351:14354   */\n      dup3\n        /* \"#utility.yul\":14347:14359   */\n      add\n        /* \"#utility.yul\":14340:14359   */\n      swap1\n      pop\n        /* \"#utility.yul\":13999:14365   */\n      swap2\n      swap1\n      pop\n      jump\t// out\n        /* \"#utility.yul\":14371:14737   */\n    tag_707:\n        /* \"#utility.yul\":14513:14516   */\n      0x00\n        /* \"#utility.yul\":14534:14601   */\n      tag_709\n        /* \"#utility.yul\":14598:14600   */\n      0x14\n        /* \"#utility.yul\":14593:14596   */\n      dup4\n        /* \"#utility.yul\":14534:14601   */\n      tag_599\n      jump\t// in\n    tag_709:\n        /* \"#utility.yul\":14527:14601   */\n      swap2\n      pop\n        /* \"#utility.yul\":14610:14703   */\n      tag_710\n        /* \"#utility.yul\":14699:14702   */\n      dup3\n        /* \"#utility.yul\":14610:14703   */\n      tag_711\n      jump\t// in\n    tag_710:\n        /* \"#utility.yul\":14728:14730   */\n      0x20\n        /* \"#utility.yul\":14723:14726   */\n      dup3\n        /* \"#utility.yul\":14719:14731   */\n      add\n        /* \"#utility.yul\":14712:14731   */\n      swap1\n      pop\n        /* \"#utility.yul\":14371:14737   */\n      swap2\n      swap1\n      pop\n      jump\t// out\n        /* \"#utility.yul\":14743:15109   */\n    tag_712:\n        /* \"#utility.yul\":14885:14888   */\n      0x00\n        /* \"#utility.yul\":14906:14973   */\n      tag_714\n        /* \"#utility.yul\":14970:14972   */\n      0x18\n        /* \"#utility.yul\":14965:14968   */\n      dup4\n        /* \"#utility.yul\":14906:14973   */\n      tag_599\n      jump\t// in\n    tag_714:\n        /* \"#utility.yul\":14899:14973   */\n      swap2\n      pop\n        /* \"#utility.yul\":14982:15075   */\n      tag_715\n        /* \"#utility.yul\":15071:15074   */\n      dup3\n        /* \"#utility.yul\":14982:15075   */\n      tag_716\n      jump\t// in\n    tag_715:\n        /* \"#utility.yul\":15100:15102   */\n      0x20\n        /* \"#utility.yul\":15095:15098   */\n      dup3\n        /* \"#utility.yul\":15091:15103   */\n      add\n        /* \"#utility.yul\":15084:15103   */\n      swap1\n      pop\n        /* \"#utility.yul\":14743:15109   */\n      swap2\n      swap1\n      pop\n      jump\t// out\n        /* \"#utility.yul\":15115:15481   */\n    tag_717:\n        /* \"#utility.yul\":15257:15260   */\n      0x00\n        /* \"#utility.yul\":15278:15345   */\n      tag_719\n        /* \"#utility.yul\":15342:15344   */\n      0x22\n        /* \"#utility.yul\":15337:15340   */\n      dup4\n        /* \"#utility.yul\":15278:15345   */\n      tag_599\n      jump\t// in\n    tag_719:\n        /* \"#utility.yul\":15271:15345   */\n      swap2\n      pop\n        /* \"#utility.yul\":15354:15447   */\n      tag_720\n        /* \"#utility.yul\":15443:15446   */\n      dup3\n        /* \"#utility.yul\":15354:15447   */\n      tag_721\n      jump\t// in\n    tag_720:\n        /* \"#utility.yul\":15472:15474   */\n      0x40\n        /* \"#utility.yul\":15467:15470   */\n      dup3\n        /* \"#utility.yul\":15463:15475   */\n      add\n        /* \"#utility.yul\":15456:15475   */\n      swap1\n      pop\n        /* \"#utility.yul\":15115:15481   */\n      swap2\n      swap1\n      pop\n      jump\t// out\n        /* \"#utility.yul\":15487:15853   */\n    tag_722:\n        /* \"#utility.yul\":15629:15632   */\n      0x00\n        /* \"#utility.yul\":15650:15717   */\n      tag_724\n        /* \"#utility.yul\":15714:15716   */\n      0x11\n        /* \"#utility.yul\":15709:15712   */\n      dup4\n        /* \"#utility.yul\":15650:15717   */\n      tag_599\n      jump\t// in\n    tag_724:\n        /* \"#utility.yul\":15643:15717   */\n      swap2\n      pop\n        /* \"#utility.yul\":15726:15819   */\n      tag_725\n        /* \"#utility.yul\":15815:15818   */\n      dup3\n        /* \"#utility.yul\":15726:15819   */\n      tag_726\n      jump\t// in\n    tag_725:\n        /* \"#utility.yul\":15844:15846   */\n      0x20\n        /* \"#utility.yul\":15839:15842   */\n      dup3\n        /* \"#utility.yul\":15835:15847   */\n      add\n        /* \"#utility.yul\":15828:15847   */\n      swap1\n      pop\n        /* \"#utility.yul\":15487:15853   */\n      swap2\n      swap1\n      pop\n      jump\t// out\n        /* \"#utility.yul\":15859:16225   */\n    tag_727:\n        /* \"#utility.yul\":16001:16004   */\n      0x00\n        /* \"#utility.yul\":16022:16089   */\n      tag_729\n        /* \"#utility.yul\":16086:16088   */\n      0x11\n        /* \"#utility.yul\":16081:16084   */\n      dup4\n        /* \"#utility.yul\":16022:16089   */\n      tag_599\n      jump\t// in\n    tag_729:\n        /* \"#utility.yul\":16015:16089   */\n      swap2\n      pop\n        /* \"#utility.yul\":16098:16191   */\n      tag_730\n        /* \"#utility.yul\":16187:16190   */\n      dup3\n        /* \"#utility.yul\":16098:16191   */\n      tag_731\n      jump\t// in\n    tag_730:\n        /* \"#utility.yul\":16216:16218   */\n      0x20\n        /* \"#utility.yul\":16211:16214   */\n      dup3\n        /* \"#utility.yul\":16207:16219   */\n      add\n        /* \"#utility.yul\":16200:16219   */\n      swap1\n      pop\n        /* \"#utility.yul\":15859:16225   */\n      swap2\n      swap1\n      pop\n      jump\t// out\n        /* \"#utility.yul\":16231:16597   */\n    tag_732:\n        /* \"#utility.yul\":16373:16376   */\n      0x00\n        /* \"#utility.yul\":16394:16461   */\n      tag_734\n        /* \"#utility.yul\":16458:16460   */\n      0x13\n        /* \"#utility.yul\":16453:16456   */\n      dup4\n        /* \"#utility.yul\":16394:16461   */\n      tag_599\n      jump\t// in\n    tag_734:\n        /* \"#utility.yul\":16387:16461   */\n      swap2\n      pop\n        /* \"#utility.yul\":16470:16563   */\n      tag_735\n        /* \"#utility.yul\":16559:16562   */\n      dup3\n        /* \"#utility.yul\":16470:16563   */\n      tag_736\n      jump\t// in\n    tag_735:\n        /* \"#utility.yul\":16588:16590   */\n      0x20\n        /* \"#utility.yul\":16583:16586   */\n      dup3\n        /* \"#utility.yul\":16579:16591   */\n      add\n        /* \"#utility.yul\":16572:16591   */\n      swap1\n      pop\n        /* \"#utility.yul\":16231:16597   */\n      swap2\n      swap1\n      pop\n      jump\t// out\n        /* \"#utility.yul\":16603:16969   */\n    tag_737:\n        /* \"#utility.yul\":16745:16748   */\n      0x00\n        /* \"#utility.yul\":16766:16833   */\n      tag_739\n        /* \"#utility.yul\":16830:16832   */\n      0x0f\n        /* \"#utility.yul\":16825:16828   */\n      dup4\n        /* \"#utility.yul\":16766:16833   */\n      tag_599\n      jump\t// in\n    tag_739:\n        /* \"#utility.yul\":16759:16833   */\n      swap2\n      pop\n        /* \"#utility.yul\":16842:16935   */\n      tag_740\n        /* \"#utility.yul\":16931:16934   */\n      dup3\n        /* \"#utility.yul\":16842:16935   */\n      tag_741\n      jump\t// in\n    tag_740:\n        /* \"#utility.yul\":16960:16962   */\n      0x20\n        /* \"#utility.yul\":16955:16958   */\n      dup3\n        /* \"#utility.yul\":16951:16963   */\n      add\n        /* \"#utility.yul\":16944:16963   */\n      swap1\n      pop\n        /* \"#utility.yul\":16603:16969   */\n      swap2\n      swap1\n      pop\n      jump\t// out\n        /* \"#utility.yul\":16975:17410   */\n    tag_229:\n        /* \"#utility.yul\":17155:17158   */\n      0x00\n        /* \"#utility.yul\":17177:17272   */\n      tag_743\n        /* \"#utility.yul\":17268:17271   */\n      dup3\n        /* \"#utility.yul\":17259:17265   */\n      dup6\n        /* \"#utility.yul\":17177:17272   */\n      tag_604\n      jump\t// in\n    tag_743:\n        /* \"#utility.yul\":17170:17272   */\n      swap2\n      pop\n        /* \"#utility.yul\":17289:17384   */\n      tag_744\n        /* \"#utility.yul\":17380:17383   */\n      dup3\n        /* \"#utility.yul\":17371:17377   */\n      dup5\n        /* \"#utility.yul\":17289:17384   */\n      tag_604\n      jump\t// in\n    tag_744:\n        /* \"#utility.yul\":17282:17384   */\n      swap2\n      pop\n        /* \"#utility.yul\":17401:17404   */\n      dup2\n        /* \"#utility.yul\":17394:17404   */\n      swap1\n      pop\n        /* \"#utility.yul\":16975:17410   */\n      swap4\n      swap3\n      pop\n      pop\n      pop\n      jump\t// out\n        /* \"#utility.yul\":17416:17845   */\n    tag_236:\n        /* \"#utility.yul\":17593:17596   */\n      0x00\n        /* \"#utility.yul\":17615:17710   */\n      tag_746\n        /* \"#utility.yul\":17706:17709   */\n      dup3\n        /* \"#utility.yul\":17697:17703   */\n      dup6\n        /* \"#utility.yul\":17615:17710   */\n      tag_604\n      jump\t// in\n    tag_746:\n        /* \"#utility.yul\":17608:17710   */\n      swap2\n      pop\n        /* \"#utility.yul\":17727:17819   */\n      tag_747\n        /* \"#utility.yul\":17815:17818   */\n      dup3\n        /* \"#utility.yul\":17806:17812   */\n      dup5\n        /* \"#utility.yul\":17727:17819   */\n      tag_610\n      jump\t// in\n    tag_747:\n        /* \"#utility.yul\":17720:17819   */\n      swap2\n      pop\n        /* \"#utility.yul\":17836:17839   */\n      dup2\n        /* \"#utility.yul\":17829:17839   */\n      swap1\n      pop\n        /* \"#utility.yul\":17416:17845   */\n      swap4\n      swap3\n      pop\n      pop\n      pop\n      jump\t// out\n        /* \"#utility.yul\":17851:18392   */\n    tag_238:\n        /* \"#utility.yul\":18084:18087   */\n      0x00\n        /* \"#utility.yul\":18106:18201   */\n      tag_749\n        /* \"#utility.yul\":18197:18200   */\n      dup3\n        /* \"#utility.yul\":18188:18194   */\n      dup5\n        /* \"#utility.yul\":18106:18201   */\n      tag_604\n      jump\t// in\n    tag_749:\n        /* \"#utility.yul\":18099:18201   */\n      swap2\n      pop\n        /* \"#utility.yul\":18218:18366   */\n      tag_750\n        /* \"#utility.yul\":18362:18365   */\n      dup3\n        /* \"#utility.yul\":18218:18366   */\n      tag_637\n      jump\t// in\n    tag_750:\n        /* \"#utility.yul\":18211:18366   */\n      swap2\n      pop\n        /* \"#utility.yul\":18383:18386   */\n      dup2\n        /* \"#utility.yul\":18376:18386   */\n      swap1\n      pop\n        /* \"#utility.yul\":17851:18392   */\n      swap3\n      swap2\n      pop\n      pop\n      jump\t// out\n        /* \"#utility.yul\":18398:18939   */\n    tag_231:\n        /* \"#utility.yul\":18631:18634   */\n      0x00\n        /* \"#utility.yul\":18653:18748   */\n      tag_752\n        /* \"#utility.yul\":18744:18747   */\n      dup3\n        /* \"#utility.yul\":18735:18741   */\n      dup5\n        /* \"#utility.yul\":18653:18748   */\n      tag_604\n      jump\t// in\n    tag_752:\n        /* \"#utility.yul\":18646:18748   */\n      swap2\n      pop\n        /* \"#utility.yul\":18765:18913   */\n      tag_753\n        /* \"#utility.yul\":18909:18912   */\n      dup3\n        /* \"#utility.yul\":18765:18913   */\n      tag_647\n      jump\t// in\n    tag_753:\n        /* \"#utility.yul\":18758:18913   */\n      swap2\n      pop\n        /* \"#utility.yul\":18930:18933   */\n      dup2\n        /* \"#utility.yul\":18923:18933   */\n      swap1\n      pop\n        /* \"#utility.yul\":18398:18939   */\n      swap3\n      swap2\n      pop\n      pop\n      jump\t// out\n        /* \"#utility.yul\":18945:19486   */\n    tag_222:\n        /* \"#utility.yul\":19178:19181   */\n      0x00\n        /* \"#utility.yul\":19200:19295   */\n      tag_755\n        /* \"#utility.yul\":19291:19294   */\n      dup3\n        /* \"#utility.yul\":19282:19288   */\n      dup5\n        /* \"#utility.yul\":19200:19295   */\n      tag_604\n      jump\t// in\n    tag_755:\n        /* \"#utility.yul\":19193:19295   */\n      swap2\n      pop\n        /* \"#utility.yul\":19312:19460   */\n      tag_756\n        /* \"#utility.yul\":19456:19459   */\n      dup3\n        /* \"#utility.yul\":19312:19460   */\n      tag_677\n      jump\t// in\n    tag_756:\n        /* \"#utility.yul\":19305:19460   */\n      swap2\n      pop\n        /* \"#utility.yul\":19477:19480   */\n      dup2\n        /* \"#utility.yul\":19470:19480   */\n      swap1\n      pop\n        /* \"#utility.yul\":18945:19486   */\n      swap3\n      swap2\n      pop\n      pop\n      jump\t// out\n        /* \"#utility.yul\":19492:19714   */\n    tag_52:\n        /* \"#utility.yul\":19585:19589   */\n      0x00\n        /* \"#utility.yul\":19623:19625   */\n      0x20\n        /* \"#utility.yul\":19612:19621   */\n      dup3\n        /* \"#utility.yul\":19608:19626   */\n      add\n        /* \"#utility.yul\":19600:19626   */\n      swap1\n      pop\n        /* \"#utility.yul\":19636:19707   */\n      tag_758\n        /* \"#utility.yul\":19704:19705   */\n      0x00\n        /* \"#utility.yul\":19693:19702   */\n      dup4\n        /* \"#utility.yul\":19689:19706   */\n      add\n        /* \"#utility.yul\":19680:19686   */\n      dup5\n        /* \"#utility.yul\":19636:19707   */\n      tag_590\n      jump\t// in\n    tag_758:\n        /* \"#utility.yul\":19492:19714   */\n      swap3\n      swap2\n      pop\n      pop\n      jump\t// out\n        /* \"#utility.yul\":19720:20033   */\n    tag_47:\n        /* \"#utility.yul\":19833:19837   */\n      0x00\n        /* \"#utility.yul\":19871:19873   */\n      0x20\n        /* \"#utility.yul\":19860:19869   */\n      dup3\n        /* \"#utility.yul\":19856:19874   */\n      add\n        /* \"#utility.yul\":19848:19874   */\n      swap1\n      pop\n        /* \"#utility.yul\":19920:19929   */\n      dup2\n        /* \"#utility.yul\":19914:19918   */\n      dup2\n        /* \"#utility.yul\":19910:19930   */\n      sub\n        /* \"#utility.yul\":19906:19907   */\n      0x00\n        /* \"#utility.yul\":19895:19904   */\n      dup4\n        /* \"#utility.yul\":19891:19908   */\n      add\n        /* \"#utility.yul\":19884:19931   */\n      mstore\n        /* \"#utility.yul\":19948:20026   */\n      tag_760\n        /* \"#utility.yul\":20021:20025   */\n      dup2\n        /* \"#utility.yul\":20012:20018   */\n      dup5\n        /* \"#utility.yul\":19948:20026   */\n      tag_594\n      jump\t// in\n    tag_760:\n        /* \"#utility.yul\":19940:20026   */\n      swap1\n      pop\n        /* \"#utility.yul\":19720:20033   */\n      swap3\n      swap2\n      pop\n      pop\n      jump\t// out\n        /* \"#utility.yul\":20039:20458   */\n    tag_85:\n        /* \"#utility.yul\":20205:20209   */\n      0x00\n        /* \"#utility.yul\":20243:20245   */\n      0x20\n        /* \"#utility.yul\":20232:20241   */\n      dup3\n        /* \"#utility.yul\":20228:20246   */\n      add\n        /* \"#utility.yul\":20220:20246   */\n      swap1\n      pop\n        /* \"#utility.yul\":20292:20301   */\n      dup2\n        /* \"#utility.yul\":20286:20290   */\n      dup2\n        /* \"#utility.yul\":20282:20302   */\n      sub\n        /* \"#utility.yul\":20278:20279   */\n      0x00\n        /* \"#utility.yul\":20267:20276   */\n      dup4\n        /* \"#utility.yul\":20263:20280   */\n      add\n        /* \"#utility.yul\":20256:20303   */\n      mstore\n        /* \"#utility.yul\":20320:20451   */\n      tag_762\n        /* \"#utility.yul\":20446:20450   */\n      dup2\n        /* \"#utility.yul\":20320:20451   */\n      tag_622\n      jump\t// in\n    tag_762:\n        /* \"#utility.yul\":20312:20451   */\n      swap1\n      pop\n        /* \"#utility.yul\":20039:20458   */\n      swap2\n      swap1\n      pop\n      jump\t// out\n        /* \"#utility.yul\":20464:20883   */\n    tag_90:\n        /* \"#utility.yul\":20630:20634   */\n      0x00\n        /* \"#utility.yul\":20668:20670   */\n      0x20\n        /* \"#utility.yul\":20657:20666   */\n      dup3\n        /* \"#utility.yul\":20653:20671   */\n      add\n        /* \"#utility.yul\":20645:20671   */\n      swap1\n      pop\n        /* \"#utility.yul\":20717:20726   */\n      dup2\n        /* \"#utility.yul\":20711:20715   */\n      dup2\n        /* \"#utility.yul\":20707:20727   */\n      sub\n        /* \"#utility.yul\":20703:20704   */\n      0x00\n        /* \"#utility.yul\":20692:20701   */\n      dup4\n        /* \"#utility.yul\":20688:20705   */\n      add\n        /* \"#utility.yul\":20681:20728   */\n      mstore\n        /* \"#utility.yul\":20745:20876   */\n      tag_764\n        /* \"#utility.yul\":20871:20875   */\n      dup2\n        /* \"#utility.yul\":20745:20876   */\n      tag_627\n      jump\t// in\n    tag_764:\n        /* \"#utility.yul\":20737:20876   */\n      swap1\n      pop\n        /* \"#utility.yul\":20464:20883   */\n      swap2\n      swap1\n      pop\n      jump\t// out\n        /* \"#utility.yul\":20889:21308   */\n    tag_328:\n        /* \"#utility.yul\":21055:21059   */\n      0x00\n        /* \"#utility.yul\":21093:21095   */\n      0x20\n        /* \"#utility.yul\":21082:21091   */\n      dup3\n        /* \"#utility.yul\":21078:21096   */\n      add\n        /* \"#utility.yul\":21070:21096   */\n      swap1\n      pop\n        /* \"#utility.yul\":21142:21151   */\n      dup2\n        /* \"#utility.yul\":21136:21140   */\n      dup2\n        /* \"#utility.yul\":21132:21152   */\n      sub\n        /* \"#utility.yul\":21128:21129   */\n      0x00\n        /* \"#utility.yul\":21117:21126   */\n      dup4\n        /* \"#utility.yul\":21113:21130   */\n      add\n        /* \"#utility.yul\":21106:21153   */\n      mstore\n        /* \"#utility.yul\":21170:21301   */\n      tag_766\n        /* \"#utility.yul\":21296:21300   */\n      dup2\n        /* \"#utility.yul\":21170:21301   */\n      tag_632\n      jump\t// in\n    tag_766:\n        /* \"#utility.yul\":21162:21301   */\n      swap1\n      pop\n        /* \"#utility.yul\":20889:21308   */\n      swap2\n      swap1\n      pop\n      jump\t// out\n        /* \"#utility.yul\":21314:21733   */\n    tag_281:\n        /* \"#utility.yul\":21480:21484   */\n      0x00\n        /* \"#utility.yul\":21518:21520   */\n      0x20\n        /* \"#utility.yul\":21507:21516   */\n      dup3\n        /* \"#utility.yul\":21503:21521   */\n      add\n        /* \"#utility.yul\":21495:21521   */\n      swap1\n      pop\n        /* \"#utility.yul\":21567:21576   */\n      dup2\n        /* \"#utility.yul\":21561:21565   */\n      dup2\n        /* \"#utility.yul\":21557:21577   */\n      sub\n        /* \"#utility.yul\":21553:21554   */\n      0x00\n        /* \"#utility.yul\":21542:21551   */\n      dup4\n        /* \"#utility.yul\":21538:21555   */\n      add\n        /* \"#utility.yul\":21531:21578   */\n      mstore\n        /* \"#utility.yul\":21595:21726   */\n      tag_768\n        /* \"#utility.yul\":21721:21725   */\n      dup2\n        /* \"#utility.yul\":21595:21726   */\n      tag_642\n      jump\t// in\n    tag_768:\n        /* \"#utility.yul\":21587:21726   */\n      swap1\n      pop\n        /* \"#utility.yul\":21314:21733   */\n      swap2\n      swap1\n      pop\n      jump\t// out\n        /* \"#utility.yul\":21739:22158   */\n    tag_402:\n        /* \"#utility.yul\":21905:21909   */\n      0x00\n        /* \"#utility.yul\":21943:21945   */\n      0x20\n        /* \"#utility.yul\":21932:21941   */\n      dup3\n        /* \"#utility.yul\":21928:21946   */\n      add\n        /* \"#utility.yul\":21920:21946   */\n      swap1\n      pop\n        /* \"#utility.yul\":21992:22001   */\n      dup2\n        /* \"#utility.yul\":21986:21990   */\n      dup2\n        /* \"#utility.yul\":21982:22002   */\n      sub\n        /* \"#utility.yul\":21978:21979   */\n      0x00\n        /* \"#utility.yul\":21967:21976   */\n      dup4\n        /* \"#utility.yul\":21963:21980   */\n      add\n        /* \"#utility.yul\":21956:22003   */\n      mstore\n        /* \"#utility.yul\":22020:22151   */\n      tag_770\n        /* \"#utility.yul\":22146:22150   */\n      dup2\n        /* \"#utility.yul\":22020:22151   */\n      tag_652\n      jump\t// in\n    tag_770:\n        /* \"#utility.yul\":22012:22151   */\n      swap1\n      pop\n        /* \"#utility.yul\":21739:22158   */\n      swap2\n      swap1\n      pop\n      jump\t// out\n        /* \"#utility.yul\":22164:22583   */\n    tag_255:\n        /* \"#utility.yul\":22330:22334   */\n      0x00\n        /* \"#utility.yul\":22368:22370   */\n      0x20\n        /* \"#utility.yul\":22357:22366   */\n      dup3\n        /* \"#utility.yul\":22353:22371   */\n      add\n        /* \"#utility.yul\":22345:22371   */\n      swap1\n      pop\n        /* \"#utility.yul\":22417:22426   */\n      dup2\n        /* \"#utility.yul\":22411:22415   */\n      dup2\n        /* \"#utility.yul\":22407:22427   */\n      sub\n        /* \"#utility.yul\":22403:22404   */\n      0x00\n        /* \"#utility.yul\":22392:22401   */\n      dup4\n        /* \"#utility.yul\":22388:22405   */\n      add\n        /* \"#utility.yul\":22381:22428   */\n      mstore\n        /* \"#utility.yul\":22445:22576   */\n      tag_772\n        /* \"#utility.yul\":22571:22575   */\n      dup2\n        /* \"#utility.yul\":22445:22576   */\n      tag_657\n      jump\t// in\n    tag_772:\n        /* \"#utility.yul\":22437:22576   */\n      swap1\n      pop\n        /* \"#utility.yul\":22164:22583   */\n      swap2\n      swap1\n      pop\n      jump\t// out\n        /* \"#utility.yul\":22589:23008   */\n    tag_262:\n        /* \"#utility.yul\":22755:22759   */\n      0x00\n        /* \"#utility.yul\":22793:22795   */\n      0x20\n        /* \"#utility.yul\":22782:22791   */\n      dup3\n        /* \"#utility.yul\":22778:22796   */\n      add\n        /* \"#utility.yul\":22770:22796   */\n      swap1\n      pop\n        /* \"#utility.yul\":22842:22851   */\n      dup2\n        /* \"#utility.yul\":22836:22840   */\n      dup2\n        /* \"#utility.yul\":22832:22852   */\n      sub\n        /* \"#utility.yul\":22828:22829   */\n      0x00\n        /* \"#utility.yul\":22817:22826   */\n      dup4\n        /* \"#utility.yul\":22813:22830   */\n      add\n        /* \"#utility.yul\":22806:22853   */\n      mstore\n        /* \"#utility.yul\":22870:23001   */\n      tag_774\n        /* \"#utility.yul\":22996:23000   */\n      dup2\n        /* \"#utility.yul\":22870:23001   */\n      tag_662\n      jump\t// in\n    tag_774:\n        /* \"#utility.yul\":22862:23001   */\n      swap1\n      pop\n        /* \"#utility.yul\":22589:23008   */\n      swap2\n      swap1\n      pop\n      jump\t// out\n        /* \"#utility.yul\":23014:23433   */\n    tag_345:\n        /* \"#utility.yul\":23180:23184   */\n      0x00\n        /* \"#utility.yul\":23218:23220   */\n      0x20\n        /* \"#utility.yul\":23207:23216   */\n      dup3\n        /* \"#utility.yul\":23203:23221   */\n      add\n        /* \"#utility.yul\":23195:23221   */\n      swap1\n      pop\n        /* \"#utility.yul\":23267:23276   */\n      dup2\n        /* \"#utility.yul\":23261:23265   */\n      dup2\n        /* \"#utility.yul\":23257:23277   */\n      sub\n        /* \"#utility.yul\":23253:23254   */\n      0x00\n        /* \"#utility.yul\":23242:23251   */\n      dup4\n        /* \"#utility.yul\":23238:23255   */\n      add\n        /* \"#utility.yul\":23231:23278   */\n      mstore\n        /* \"#utility.yul\":23295:23426   */\n      tag_776\n        /* \"#utility.yul\":23421:23425   */\n      dup2\n        /* \"#utility.yul\":23295:23426   */\n      tag_667\n      jump\t// in\n    tag_776:\n        /* \"#utility.yul\":23287:23426   */\n      swap1\n      pop\n        /* \"#utility.yul\":23014:23433   */\n      swap2\n      swap1\n      pop\n      jump\t// out\n        /* \"#utility.yul\":23439:23858   */\n    tag_134:\n        /* \"#utility.yul\":23605:23609   */\n      0x00\n        /* \"#utility.yul\":23643:23645   */\n      0x20\n        /* \"#utility.yul\":23632:23641   */\n      dup3\n        /* \"#utility.yul\":23628:23646   */\n      add\n        /* \"#utility.yul\":23620:23646   */\n      swap1\n      pop\n        /* \"#utility.yul\":23692:23701   */\n      dup2\n        /* \"#utility.yul\":23686:23690   */\n      dup2\n        /* \"#utility.yul\":23682:23702   */\n      sub\n        /* \"#utility.yul\":23678:23679   */\n      0x00\n        /* \"#utility.yul\":23667:23676   */\n      dup4\n        /* \"#utility.yul\":23663:23680   */\n      add\n        /* \"#utility.yul\":23656:23703   */\n      mstore\n        /* \"#utility.yul\":23720:23851   */\n      tag_778\n        /* \"#utility.yul\":23846:23850   */\n      dup2\n        /* \"#utility.yul\":23720:23851   */\n      tag_672\n      jump\t// in\n    tag_778:\n        /* \"#utility.yul\":23712:23851   */\n      swap1\n      pop\n        /* \"#utility.yul\":23439:23858   */\n      swap2\n      swap1\n      pop\n      jump\t// out\n        /* \"#utility.yul\":23864:24283   */\n    tag_217:\n        /* \"#utility.yul\":24030:24034   */\n      0x00\n        /* \"#utility.yul\":24068:24070   */\n      0x20\n        /* \"#utility.yul\":24057:24066   */\n      dup3\n        /* \"#utility.yul\":24053:24071   */\n      add\n        /* \"#utility.yul\":24045:24071   */\n      swap1\n      pop\n        /* \"#utility.yul\":24117:24126   */\n      dup2\n        /* \"#utility.yul\":24111:24115   */\n      dup2\n        /* \"#utility.yul\":24107:24127   */\n      sub\n        /* \"#utility.yul\":24103:24104   */\n      0x00\n        /* \"#utility.yul\":24092:24101   */\n      dup4\n        /* \"#utility.yul\":24088:24105   */\n      add\n        /* \"#utility.yul\":24081:24128   */\n      mstore\n        /* \"#utility.yul\":24145:24276   */\n      tag_780\n        /* \"#utility.yul\":24271:24275   */\n      dup2\n        /* \"#utility.yul\":24145:24276   */\n      tag_682\n      jump\t// in\n    tag_780:\n        /* \"#utility.yul\":24137:24276   */\n      swap1\n      pop\n        /* \"#utility.yul\":23864:24283   */\n      swap2\n      swap1\n      pop\n      jump\t// out\n        /* \"#utility.yul\":24289:24708   */\n    tag_114:\n        /* \"#utility.yul\":24455:24459   */\n      0x00\n        /* \"#utility.yul\":24493:24495   */\n      0x20\n        /* \"#utility.yul\":24482:24491   */\n      dup3\n        /* \"#utility.yul\":24478:24496   */\n      add\n        /* \"#utility.yul\":24470:24496   */\n      swap1\n      pop\n        /* \"#utility.yul\":24542:24551   */\n      dup2\n        /* \"#utility.yul\":24536:24540   */\n      dup2\n        /* \"#utility.yul\":24532:24552   */\n      sub\n        /* \"#utility.yul\":24528:24529   */\n      0x00\n        /* \"#utility.yul\":24517:24526   */\n      dup4\n        /* \"#utility.yul\":24513:24530   */\n      add\n        /* \"#utility.yul\":24506:24553   */\n      mstore\n        /* \"#utility.yul\":24570:24701   */\n      tag_782\n        /* \"#utility.yul\":24696:24700   */\n      dup2\n        /* \"#utility.yul\":24570:24701   */\n      tag_687\n      jump\t// in\n    tag_782:\n        /* \"#utility.yul\":24562:24701   */\n      swap1\n      pop\n        /* \"#utility.yul\":24289:24708   */\n      swap2\n      swap1\n      pop\n      jump\t// out\n        /* \"#utility.yul\":24714:25133   */\n    tag_99:\n        /* \"#utility.yul\":24880:24884   */\n      0x00\n        /* \"#utility.yul\":24918:24920   */\n      0x20\n        /* \"#utility.yul\":24907:24916   */\n      dup3\n        /* \"#utility.yul\":24903:24921   */\n      add\n        /* \"#utility.yul\":24895:24921   */\n      swap1\n      pop\n        /* \"#utility.yul\":24967:24976   */\n      dup2\n        /* \"#utility.yul\":24961:24965   */\n      dup2\n        /* \"#utility.yul\":24957:24977   */\n      sub\n        /* \"#utility.yul\":24953:24954   */\n      0x00\n        /* \"#utility.yul\":24942:24951   */\n      dup4\n        /* \"#utility.yul\":24938:24955   */\n      add\n        /* \"#utility.yul\":24931:24978   */\n      mstore\n        /* \"#utility.yul\":24995:25126   */\n      tag_784\n        /* \"#utility.yul\":25121:25125   */\n      dup2\n        /* \"#utility.yul\":24995:25126   */\n      tag_692\n      jump\t// in\n    tag_784:\n        /* \"#utility.yul\":24987:25126   */\n      swap1\n      pop\n        /* \"#utility.yul\":24714:25133   */\n      swap2\n      swap1\n      pop\n      jump\t// out\n        /* \"#utility.yul\":25139:25558   */\n    tag_73:\n        /* \"#utility.yul\":25305:25309   */\n      0x00\n        /* \"#utility.yul\":25343:25345   */\n      0x20\n        /* \"#utility.yul\":25332:25341   */\n      dup3\n        /* \"#utility.yul\":25328:25346   */\n      add\n        /* \"#utility.yul\":25320:25346   */\n      swap1\n      pop\n        /* \"#utility.yul\":25392:25401   */\n      dup2\n        /* \"#utility.yul\":25386:25390   */\n      dup2\n        /* \"#utility.yul\":25382:25402   */\n      sub\n        /* \"#utility.yul\":25378:25379   */\n      0x00\n        /* \"#utility.yul\":25367:25376   */\n      dup4\n        /* \"#utility.yul\":25363:25380   */\n      add\n        /* \"#utility.yul\":25356:25403   */\n      mstore\n        /* \"#utility.yul\":25420:25551   */\n      tag_786\n        /* \"#utility.yul\":25546:25550   */\n      dup2\n        /* \"#utility.yul\":25420:25551   */\n      tag_697\n      jump\t// in\n    tag_786:\n        /* \"#utility.yul\":25412:25551   */\n      swap1\n      pop\n        /* \"#utility.yul\":25139:25558   */\n      swap2\n      swap1\n      pop\n      jump\t// out\n        /* \"#utility.yul\":25564:25983   */\n    tag_324:\n        /* \"#utility.yul\":25730:25734   */\n      0x00\n        /* \"#utility.yul\":25768:25770   */\n      0x20\n        /* \"#utility.yul\":25757:25766   */\n      dup3\n        /* \"#utility.yul\":25753:25771   */\n      add\n        /* \"#utility.yul\":25745:25771   */\n      swap1\n      pop\n        /* \"#utility.yul\":25817:25826   */\n      dup2\n        /* \"#utility.yul\":25811:25815   */\n      dup2\n        /* \"#utility.yul\":25807:25827   */\n      sub\n        /* \"#utility.yul\":25803:25804   */\n      0x00\n        /* \"#utility.yul\":25792:25801   */\n      dup4\n        /* \"#utility.yul\":25788:25805   */\n      add\n        /* \"#utility.yul\":25781:25828   */\n      mstore\n        /* \"#utility.yul\":25845:25976   */\n      tag_788\n        /* \"#utility.yul\":25971:25975   */\n      dup2\n        /* \"#utility.yul\":25845:25976   */\n      tag_702\n      jump\t// in\n    tag_788:\n        /* \"#utility.yul\":25837:25976   */\n      swap1\n      pop\n        /* \"#utility.yul\":25564:25983   */\n      swap2\n      swap1\n      pop\n      jump\t// out\n        /* \"#utility.yul\":25989:26408   */\n    tag_197:\n        /* \"#utility.yul\":26155:26159   */\n      0x00\n        /* \"#utility.yul\":26193:26195   */\n      0x20\n        /* \"#utility.yul\":26182:26191   */\n      dup3\n        /* \"#utility.yul\":26178:26196   */\n      add\n        /* \"#utility.yul\":26170:26196   */\n      swap1\n      pop\n        /* \"#utility.yul\":26242:26251   */\n      dup2\n        /* \"#utility.yul\":26236:26240   */\n      dup2\n        /* \"#utility.yul\":26232:26252   */\n      sub\n        /* \"#utility.yul\":26228:26229   */\n      0x00\n        /* \"#utility.yul\":26217:26226   */\n      dup4\n        /* \"#utility.yul\":26213:26230   */\n      add\n        /* \"#utility.yul\":26206:26253   */\n      mstore\n        /* \"#utility.yul\":26270:26401   */\n      tag_790\n        /* \"#utility.yul\":26396:26400   */\n      dup2\n        /* \"#utility.yul\":26270:26401   */\n      tag_707\n      jump\t// in\n    tag_790:\n        /* \"#utility.yul\":26262:26401   */\n      swap1\n      pop\n        /* \"#utility.yul\":25989:26408   */\n      swap2\n      swap1\n      pop\n      jump\t// out\n        /* \"#utility.yul\":26414:26833   */\n    tag_162:\n        /* \"#utility.yul\":26580:26584   */\n      0x00\n        /* \"#utility.yul\":26618:26620   */\n      0x20\n        /* \"#utility.yul\":26607:26616   */\n      dup3\n        /* \"#utility.yul\":26603:26621   */\n      add\n        /* \"#utility.yul\":26595:26621   */\n      swap1\n      pop\n        /* \"#utility.yul\":26667:26676   */\n      dup2\n        /* \"#utility.yul\":26661:26665   */\n      dup2\n        /* \"#utility.yul\":26657:26677   */\n      sub\n        /* \"#utility.yul\":26653:26654   */\n      0x00\n        /* \"#utility.yul\":26642:26651   */\n      dup4\n        /* \"#utility.yul\":26638:26655   */\n      add\n        /* \"#utility.yul\":26631:26678   */\n      mstore\n        /* \"#utility.yul\":26695:26826   */\n      tag_792\n        /* \"#utility.yul\":26821:26825   */\n      dup2\n        /* \"#utility.yul\":26695:26826   */\n      tag_712\n      jump\t// in\n    tag_792:\n        /* \"#utility.yul\":26687:26826   */\n      swap1\n      pop\n        /* \"#utility.yul\":26414:26833   */\n      swap2\n      swap1\n      pop\n      jump\t// out\n        /* \"#utility.yul\":26839:27258   */\n    tag_141:\n        /* \"#utility.yul\":27005:27009   */\n      0x00\n        /* \"#utility.yul\":27043:27045   */\n      0x20\n        /* \"#utility.yul\":27032:27041   */\n      dup3\n        /* \"#utility.yul\":27028:27046   */\n      add\n        /* \"#utility.yul\":27020:27046   */\n      swap1\n      pop\n        /* \"#utility.yul\":27092:27101   */\n      dup2\n        /* \"#utility.yul\":27086:27090   */\n      dup2\n        /* \"#utility.yul\":27082:27102   */\n      sub\n        /* \"#utility.yul\":27078:27079   */\n      0x00\n        /* \"#utility.yul\":27067:27076   */\n      dup4\n        /* \"#utility.yul\":27063:27080   */\n      add\n        /* \"#utility.yul\":27056:27103   */\n      mstore\n        /* \"#utility.yul\":27120:27251   */\n      tag_794\n        /* \"#utility.yul\":27246:27250   */\n      dup2\n        /* \"#utility.yul\":27120:27251   */\n      tag_717\n      jump\t// in\n    tag_794:\n        /* \"#utility.yul\":27112:27251   */\n      swap1\n      pop\n        /* \"#utility.yul\":26839:27258   */\n      swap2\n      swap1\n      pop\n      jump\t// out\n        /* \"#utility.yul\":27264:27683   */\n    tag_95:\n        /* \"#utility.yul\":27430:27434   */\n      0x00\n        /* \"#utility.yul\":27468:27470   */\n      0x20\n        /* \"#utility.yul\":27457:27466   */\n      dup3\n        /* \"#utility.yul\":27453:27471   */\n      add\n        /* \"#utility.yul\":27445:27471   */\n      swap1\n      pop\n        /* \"#utility.yul\":27517:27526   */\n      dup2\n        /* \"#utility.yul\":27511:27515   */\n      dup2\n        /* \"#utility.yul\":27507:27527   */\n      sub\n        /* \"#utility.yul\":27503:27504   */\n      0x00\n        /* \"#utility.yul\":27492:27501   */\n      dup4\n        /* \"#utility.yul\":27488:27505   */\n      add\n        /* \"#utility.yul\":27481:27528   */\n      mstore\n        /* \"#utility.yul\":27545:27676   */\n      tag_796\n        /* \"#utility.yul\":27671:27675   */\n      dup2\n        /* \"#utility.yul\":27545:27676   */\n      tag_722\n      jump\t// in\n    tag_796:\n        /* \"#utility.yul\":27537:27676   */\n      swap1\n      pop\n        /* \"#utility.yul\":27264:27683   */\n      swap2\n      swap1\n      pop\n      jump\t// out\n        /* \"#utility.yul\":27689:28108   */\n    tag_268:\n        /* \"#utility.yul\":27855:27859   */\n      0x00\n        /* \"#utility.yul\":27893:27895   */\n      0x20\n        /* \"#utility.yul\":27882:27891   */\n      dup3\n        /* \"#utility.yul\":27878:27896   */\n      add\n        /* \"#utility.yul\":27870:27896   */\n      swap1\n      pop\n        /* \"#utility.yul\":27942:27951   */\n      dup2\n        /* \"#utility.yul\":27936:27940   */\n      dup2\n        /* \"#utility.yul\":27932:27952   */\n      sub\n        /* \"#utility.yul\":27928:27929   */\n      0x00\n        /* \"#utility.yul\":27917:27926   */\n      dup4\n        /* \"#utility.yul\":27913:27930   */\n      add\n        /* \"#utility.yul\":27906:27953   */\n      mstore\n        /* \"#utility.yul\":27970:28101   */\n      tag_798\n        /* \"#utility.yul\":28096:28100   */\n      dup2\n        /* \"#utility.yul\":27970:28101   */\n      tag_727\n      jump\t// in\n    tag_798:\n        /* \"#utility.yul\":27962:28101   */\n      swap1\n      pop\n        /* \"#utility.yul\":27689:28108   */\n      swap2\n      swap1\n      pop\n      jump\t// out\n        /* \"#utility.yul\":28114:28533   */\n    tag_149:\n        /* \"#utility.yul\":28280:28284   */\n      0x00\n        /* \"#utility.yul\":28318:28320   */\n      0x20\n        /* \"#utility.yul\":28307:28316   */\n      dup3\n        /* \"#utility.yul\":28303:28321   */\n      add\n        /* \"#utility.yul\":28295:28321   */\n      swap1\n      pop\n        /* \"#utility.yul\":28367:28376   */\n      dup2\n        /* \"#utility.yul\":28361:28365   */\n      dup2\n        /* \"#utility.yul\":28357:28377   */\n      sub\n        /* \"#utility.yul\":28353:28354   */\n      0x00\n        /* \"#utility.yul\":28342:28351   */\n      dup4\n        /* \"#utility.yul\":28338:28355   */\n      add\n        /* \"#utility.yul\":28331:28378   */\n      mstore\n        /* \"#utility.yul\":28395:28526   */\n      tag_800\n        /* \"#utility.yul\":28521:28525   */\n      dup2\n        /* \"#utility.yul\":28395:28526   */\n      tag_732\n      jump\t// in\n    tag_800:\n        /* \"#utility.yul\":28387:28526   */\n      swap1\n      pop\n        /* \"#utility.yul\":28114:28533   */\n      swap2\n      swap1\n      pop\n      jump\t// out\n        /* \"#utility.yul\":28539:28958   */\n    tag_131:\n        /* \"#utility.yul\":28705:28709   */\n      0x00\n        /* \"#utility.yul\":28743:28745   */\n      0x20\n        /* \"#utility.yul\":28732:28741   */\n      dup3\n        /* \"#utility.yul\":28728:28746   */\n      add\n        /* \"#utility.yul\":28720:28746   */\n      swap1\n      pop\n        /* \"#utility.yul\":28792:28801   */\n      dup2\n        /* \"#utility.yul\":28786:28790   */\n      dup2\n        /* \"#utility.yul\":28782:28802   */\n      sub\n        /* \"#utility.yul\":28778:28779   */\n      0x00\n        /* \"#utility.yul\":28767:28776   */\n      dup4\n        /* \"#utility.yul\":28763:28780   */\n      add\n        /* \"#utility.yul\":28756:28803   */\n      mstore\n        /* \"#utility.yul\":28820:28951   */\n      tag_802\n        /* \"#utility.yul\":28946:28950   */\n      dup2\n        /* \"#utility.yul\":28820:28951   */\n      tag_737\n      jump\t// in\n    tag_802:\n        /* \"#utility.yul\":28812:28951   */\n      swap1\n      pop\n        /* \"#utility.yul\":28539:28958   */\n      swap2\n      swap1\n      pop\n      jump\t// out\n        /* \"#utility.yul\":28964:29093   */\n    tag_508:\n        /* \"#utility.yul\":28998:29004   */\n      0x00\n        /* \"#utility.yul\":29025:29045   */\n      tag_804\n      tag_805\n      jump\t// in\n    tag_804:\n        /* \"#utility.yul\":29015:29045   */\n      swap1\n      pop\n        /* \"#utility.yul\":29054:29087   */\n      tag_806\n        /* \"#utility.yul\":29082:29086   */\n      dup3\n        /* \"#utility.yul\":29074:29080   */\n      dup3\n        /* \"#utility.yul\":29054:29087   */\n      tag_807\n      jump\t// in\n    tag_806:\n        /* \"#utility.yul\":28964:29093   */\n      swap2\n      swap1\n      pop\n      jump\t// out\n        /* \"#utility.yul\":29099:29174   */\n    tag_805:\n        /* \"#utility.yul\":29132:29138   */\n      0x00\n        /* \"#utility.yul\":29165:29167   */\n      0x40\n        /* \"#utility.yul\":29159:29168   */\n      mload\n        /* \"#utility.yul\":29149:29168   */\n      swap1\n      pop\n        /* \"#utility.yul\":29099:29174   */\n      swap1\n      jump\t// out\n        /* \"#utility.yul\":29180:29501   */\n    tag_507:\n        /* \"#utility.yul\":29267:29271   */\n      0x00\n        /* \"#utility.yul\":29357:29375   */\n      0xffffffffffffffff\n        /* \"#utility.yul\":29349:29355   */\n      dup3\n        /* \"#utility.yul\":29346:29376   */\n      gt\n        /* \"#utility.yul\":29343:29399   */\n      iszero\n      tag_810\n      jumpi\n        /* \"#utility.yul\":29379:29397   */\n      tag_811\n      tag_383\n      jump\t// in\n    tag_811:\n        /* \"#utility.yul\":29343:29399   */\n    tag_810:\n        /* \"#utility.yul\":29429:29433   */\n      0x20\n        /* \"#utility.yul\":29421:29427   */\n      dup3\n        /* \"#utility.yul\":29417:29434   */\n      mul\n        /* \"#utility.yul\":29409:29434   */\n      swap1\n      pop\n        /* \"#utility.yul\":29489:29493   */\n      0x20\n        /* \"#utility.yul\":29483:29487   */\n      dup2\n        /* \"#utility.yul\":29479:29494   */\n      add\n        /* \"#utility.yul\":29471:29494   */\n      swap1\n      pop\n        /* \"#utility.yul\":29180:29501   */\n      swap2\n      swap1\n      pop\n      jump\t// out\n        /* \"#utility.yul\":29507:29818   */\n    tag_524:\n        /* \"#utility.yul\":29584:29588   */\n      0x00\n        /* \"#utility.yul\":29674:29692   */\n      0xffffffffffffffff\n        /* \"#utility.yul\":29666:29672   */\n      dup3\n        /* \"#utility.yul\":29663:29693   */\n      gt\n        /* \"#utility.yul\":29660:29716   */\n      iszero\n      tag_813\n      jumpi\n        /* \"#utility.yul\":29696:29714   */\n      tag_814\n      tag_383\n      jump\t// in\n    tag_814:\n        /* \"#utility.yul\":29660:29716   */\n    tag_813:\n        /* \"#utility.yul\":29746:29750   */\n      0x20\n        /* \"#utility.yul\":29738:29744   */\n      dup3\n        /* \"#utility.yul\":29734:29751   */\n      mul\n        /* \"#utility.yul\":29726:29751   */\n      swap1\n      pop\n        /* \"#utility.yul\":29806:29810   */\n      0x20\n        /* \"#utility.yul\":29800:29804   */\n      dup2\n        /* \"#utility.yul\":29796:29811   */\n      add\n        /* \"#utility.yul\":29788:29811   */\n      swap1\n      pop\n        /* \"#utility.yul\":29507:29818   */\n      swap2\n      swap1\n      pop\n      jump\t// out\n        /* \"#utility.yul\":29824:30132   */\n    tag_536:\n        /* \"#utility.yul\":29886:29890   */\n      0x00\n        /* \"#utility.yul\":29976:29994   */\n      0xffffffffffffffff\n        /* \"#utility.yul\":29968:29974   */\n      dup3\n        /* \"#utility.yul\":29965:29995   */\n      gt\n        /* \"#utility.yul\":29962:30018   */\n      iszero\n      tag_816\n      jumpi\n        /* \"#utility.yul\":29998:30016   */\n      tag_817\n      tag_383\n      jump\t// in\n    tag_817:\n        /* \"#utility.yul\":29962:30018   */\n    tag_816:\n        /* \"#utility.yul\":30036:30065   */\n      tag_818\n        /* \"#utility.yul\":30058:30064   */\n      dup3\n        /* \"#utility.yul\":30036:30065   */\n      tag_603\n      jump\t// in\n    tag_818:\n        /* \"#utility.yul\":30028:30065   */\n      swap1\n      pop\n        /* \"#utility.yul\":30120:30124   */\n      0x20\n        /* \"#utility.yul\":30114:30118   */\n      dup2\n        /* \"#utility.yul\":30110:30125   */\n      add\n        /* \"#utility.yul\":30102:30125   */\n      swap1\n      pop\n        /* \"#utility.yul\":29824:30132   */\n      swap2\n      swap1\n      pop\n      jump\t// out\n        /* \"#utility.yul\":30138:30279   */\n    tag_618:\n        /* \"#utility.yul\":30187:30191   */\n      0x00\n        /* \"#utility.yul\":30210:30213   */\n      dup2\n        /* \"#utility.yul\":30202:30213   */\n      swap1\n      pop\n        /* \"#utility.yul\":30233:30236   */\n      dup2\n        /* \"#utility.yul\":30230:30231   */\n      0x00\n        /* \"#utility.yul\":30223:30237   */\n      mstore\n        /* \"#utility.yul\":30267:30271   */\n      0x20\n        /* \"#utility.yul\":30264:30265   */\n      0x00\n        /* \"#utility.yul\":30254:30272   */\n      keccak256\n        /* \"#utility.yul\":30246:30272   */\n      swap1\n      pop\n        /* \"#utility.yul\":30138:30279   */\n      swap2\n      swap1\n      pop\n      jump\t// out\n        /* \"#utility.yul\":30285:30384   */\n    tag_597:\n        /* \"#utility.yul\":30337:30343   */\n      0x00\n        /* \"#utility.yul\":30371:30376   */\n      dup2\n        /* \"#utility.yul\":30365:30377   */\n      mload\n        /* \"#utility.yul\":30355:30377   */\n      swap1\n      pop\n        /* \"#utility.yul\":30285:30384   */\n      swap2\n      swap1\n      pop\n      jump\t// out\n        /* \"#utility.yul\":30390:30559   */\n    tag_599:\n        /* \"#utility.yul\":30474:30485   */\n      0x00\n        /* \"#utility.yul\":30508:30514   */\n      dup3\n        /* \"#utility.yul\":30503:30506   */\n      dup3\n        /* \"#utility.yul\":30496:30515   */\n      mstore\n        /* \"#utility.yul\":30548:30552   */\n      0x20\n        /* \"#utility.yul\":30543:30546   */\n      dup3\n        /* \"#utility.yul\":30539:30553   */\n      add\n        /* \"#utility.yul\":30524:30553   */\n      swap1\n      pop\n        /* \"#utility.yul\":30390:30559   */\n      swap3\n      swap2\n      pop\n      pop\n      jump\t// out\n        /* \"#utility.yul\":30565:30713   */\n    tag_608:\n        /* \"#utility.yul\":30667:30678   */\n      0x00\n        /* \"#utility.yul\":30704:30707   */\n      dup2\n        /* \"#utility.yul\":30689:30707   */\n      swap1\n      pop\n        /* \"#utility.yul\":30565:30713   */\n      swap3\n      swap2\n      pop\n      pop\n      jump\t// out\n        /* \"#utility.yul\":30719:31024   */\n    tag_310:\n        /* \"#utility.yul\":30759:30762   */\n      0x00\n        /* \"#utility.yul\":30778:30798   */\n      tag_824\n        /* \"#utility.yul\":30796:30797   */\n      dup3\n        /* \"#utility.yul\":30778:30798   */\n      tag_825\n      jump\t// in\n    tag_824:\n        /* \"#utility.yul\":30773:30798   */\n      swap2\n      pop\n        /* \"#utility.yul\":30812:30832   */\n      tag_826\n        /* \"#utility.yul\":30830:30831   */\n      dup4\n        /* \"#utility.yul\":30812:30832   */\n      tag_825\n      jump\t// in\n    tag_826:\n        /* \"#utility.yul\":30807:30832   */\n      swap3\n      pop\n        /* \"#utility.yul\":30966:30967   */\n      dup3\n        /* \"#utility.yul\":30898:30964   */\n      0xffffffffffffffffffffffffffffffffffffffffffffffffffffffffffffffff\n        /* \"#utility.yul\":30894:30968   */\n      sub\n        /* \"#utility.yul\":30891:30892   */\n      dup3\n        /* \"#utility.yul\":30888:30969   */\n      gt\n        /* \"#utility.yul\":30885:30992   */\n      iszero\n      tag_827\n      jumpi\n        /* \"#utility.yul\":30972:30990   */\n      tag_828\n      tag_829\n      jump\t// in\n    tag_828:\n        /* \"#utility.yul\":30885:30992   */\n    tag_827:\n        /* \"#utility.yul\":31016:31017   */\n      dup3\n        /* \"#utility.yul\":31013:31014   */\n      dup3\n        /* \"#utility.yul\":31009:31018   */\n      add\n        /* \"#utility.yul\":31002:31018   */\n      swap1\n      pop\n        /* \"#utility.yul\":30719:31024   */\n      swap3\n      swap2\n      pop\n      pop\n      jump\t// out\n        /* \"#utility.yul\":31030:31267   */\n    tag_394:\n        /* \"#utility.yul\":31068:31071   */\n      0x00\n        /* \"#utility.yul\":31087:31105   */\n      tag_831\n        /* \"#utility.yul\":31103:31104   */\n      dup3\n        /* \"#utility.yul\":31087:31105   */\n      tag_832\n      jump\t// in\n    tag_831:\n        /* \"#utility.yul\":31082:31105   */\n      swap2\n      pop\n        /* \"#utility.yul\":31119:31137   */\n      tag_833\n        /* \"#utility.yul\":31135:31136   */\n      dup4\n        /* \"#utility.yul\":31119:31137   */\n      tag_832\n      jump\t// in\n    tag_833:\n        /* \"#utility.yul\":31114:31137   */\n      swap3\n      pop\n        /* \"#utility.yul\":31209:31210   */\n      dup3\n        /* \"#utility.yul\":31203:31207   */\n      0xff\n        /* \"#utility.yul\":31199:31211   */\n      sub\n        /* \"#utility.yul\":31196:31197   */\n      dup3\n        /* \"#utility.yul\":31193:31212   */\n      gt\n        /* \"#utility.yul\":31190:31235   */\n      iszero\n      tag_834\n      jumpi\n        /* \"#utility.yul\":31215:31233   */\n      tag_835\n      tag_829\n      jump\t// in\n    tag_835:\n        /* \"#utility.yul\":31190:31235   */\n    tag_834:\n        /* \"#utility.yul\":31259:31260   */\n      dup3\n        /* \"#utility.yul\":31256:31257   */\n      dup3\n        /* \"#utility.yul\":31252:31261   */\n      add\n        /* \"#utility.yul\":31245:31261   */\n      swap1\n      pop\n        /* \"#utility.yul\":31030:31267   */\n      swap3\n      swap2\n      pop\n      pop\n      jump\t// out\n        /* \"#utility.yul\":31273:31458   */\n    tag_380:\n        /* \"#utility.yul\":31313:31314   */\n      0x00\n        /* \"#utility.yul\":31330:31350   */\n      tag_837\n        /* \"#utility.yul\":31348:31349   */\n      dup3\n        /* \"#utility.yul\":31330:31350   */\n      tag_825\n      jump\t// in\n    tag_837:\n        /* \"#utility.yul\":31325:31350   */\n      swap2\n      pop\n        /* \"#utility.yul\":31364:31384   */\n      tag_838\n        /* \"#utility.yul\":31382:31383   */\n      dup4\n        /* \"#utility.yul\":31364:31384   */\n      tag_825\n      jump\t// in\n    tag_838:\n        /* \"#utility.yul\":31359:31384   */\n      swap3\n      pop\n        /* \"#utility.yul\":31403:31404   */\n      dup3\n        /* \"#utility.yul\":31393:31428   */\n      tag_839\n      jumpi\n        /* \"#utility.yul\":31408:31426   */\n      tag_840\n      tag_841\n      jump\t// in\n    tag_840:\n        /* \"#utility.yul\":31393:31428   */\n    tag_839:\n        /* \"#utility.yul\":31450:31451   */\n      dup3\n        /* \"#utility.yul\":31447:31448   */\n      dup3\n        /* \"#utility.yul\":31443:31452   */\n      div\n        /* \"#utility.yul\":31438:31452   */\n      swap1\n      pop\n        /* \"#utility.yul\":31273:31458   */\n      swap3\n      swap2\n      pop\n      pop\n      jump\t// out\n        /* \"#utility.yul\":31464:31812   */\n    tag_391:\n        /* \"#utility.yul\":31504:31511   */\n      0x00\n        /* \"#utility.yul\":31527:31547   */\n      tag_843\n        /* \"#utility.yul\":31545:31546   */\n      dup3\n        /* \"#utility.yul\":31527:31547   */\n      tag_825\n      jump\t// in\n    tag_843:\n        /* \"#utility.yul\":31522:31547   */\n      swap2\n      pop\n        /* \"#utility.yul\":31561:31581   */\n      tag_844\n        /* \"#utility.yul\":31579:31580   */\n      dup4\n        /* \"#utility.yul\":31561:31581   */\n      tag_825\n      jump\t// in\n    tag_844:\n        /* \"#utility.yul\":31556:31581   */\n      swap3\n      pop\n        /* \"#utility.yul\":31749:31750   */\n      dup2\n        /* \"#utility.yul\":31681:31747   */\n      0xffffffffffffffffffffffffffffffffffffffffffffffffffffffffffffffff\n        /* \"#utility.yul\":31677:31751   */\n      div\n        /* \"#utility.yul\":31674:31675   */\n      dup4\n        /* \"#utility.yul\":31671:31752   */\n      gt\n        /* \"#utility.yul\":31666:31667   */\n      dup3\n        /* \"#utility.yul\":31659:31668   */\n      iszero\n        /* \"#utility.yul\":31652:31669   */\n      iszero\n        /* \"#utility.yul\":31648:31753   */\n      and\n        /* \"#utility.yul\":31645:31776   */\n      iszero\n      tag_845\n      jumpi\n        /* \"#utility.yul\":31756:31774   */\n      tag_846\n      tag_829\n      jump\t// in\n    tag_846:\n        /* \"#utility.yul\":31645:31776   */\n    tag_845:\n        /* \"#utility.yul\":31804:31805   */\n      dup3\n        /* \"#utility.yul\":31801:31802   */\n      dup3\n        /* \"#utility.yul\":31797:31806   */\n      mul\n        /* \"#utility.yul\":31786:31806   */\n      swap1\n      pop\n        /* \"#utility.yul\":31464:31812   */\n      swap3\n      swap2\n      pop\n      pop\n      jump\t// out\n        /* \"#utility.yul\":31818:32009   */\n    tag_388:\n        /* \"#utility.yul\":31858:31862   */\n      0x00\n        /* \"#utility.yul\":31878:31898   */\n      tag_848\n        /* \"#utility.yul\":31896:31897   */\n      dup3\n        /* \"#utility.yul\":31878:31898   */\n      tag_825\n      jump\t// in\n    tag_848:\n        /* \"#utility.yul\":31873:31898   */\n      swap2\n      pop\n        /* \"#utility.yul\":31912:31932   */\n      tag_849\n        /* \"#utility.yul\":31930:31931   */\n      dup4\n        /* \"#utility.yul\":31912:31932   */\n      tag_825\n      jump\t// in\n    tag_849:\n        /* \"#utility.yul\":31907:31932   */\n      swap3\n      pop\n        /* \"#utility.yul\":31951:31952   */\n      dup3\n        /* \"#utility.yul\":31948:31949   */\n      dup3\n        /* \"#utility.yul\":31945:31953   */\n      lt\n        /* \"#utility.yul\":31942:31976   */\n      iszero\n      tag_850\n      jumpi\n        /* \"#utility.yul\":31956:31974   */\n      tag_851\n      tag_829\n      jump\t// in\n    tag_851:\n        /* \"#utility.yul\":31942:31976   */\n    tag_850:\n        /* \"#utility.yul\":32001:32002   */\n      dup3\n        /* \"#utility.yul\":31998:31999   */\n      dup3\n        /* \"#utility.yul\":31994:32003   */\n      sub\n        /* \"#utility.yul\":31986:32003   */\n      swap1\n      pop\n        /* \"#utility.yul\":31818:32009   */\n      swap3\n      swap2\n      pop\n      pop\n      jump\t// out\n        /* \"#utility.yul\":32015:32111   */\n    tag_593:\n        /* \"#utility.yul\":32052:32059   */\n      0x00\n        /* \"#utility.yul\":32081:32105   */\n      tag_853\n        /* \"#utility.yul\":32099:32104   */\n      dup3\n        /* \"#utility.yul\":32081:32105   */\n      tag_854\n      jump\t// in\n    tag_853:\n        /* \"#utility.yul\":32070:32105   */\n      swap1\n      pop\n        /* \"#utility.yul\":32015:32111   */\n      swap2\n      swap1\n      pop\n      jump\t// out\n        /* \"#utility.yul\":32117:32243   */\n    tag_854:\n        /* \"#utility.yul\":32154:32161   */\n      0x00\n        /* \"#utility.yul\":32194:32236   */\n      0xffffffffffffffffffffffffffffffffffffffff\n        /* \"#utility.yul\":32187:32192   */\n      dup3\n        /* \"#utility.yul\":32183:32237   */\n      and\n        /* \"#utility.yul\":32172:32237   */\n      swap1\n      pop\n        /* \"#utility.yul\":32117:32243   */\n      swap2\n      swap1\n      pop\n      jump\t// out\n        /* \"#utility.yul\":32249:32326   */\n    tag_825:\n        /* \"#utility.yul\":32286:32293   */\n      0x00\n        /* \"#utility.yul\":32315:32320   */\n      dup2\n        /* \"#utility.yul\":32304:32320   */\n      swap1\n      pop\n        /* \"#utility.yul\":32249:32326   */\n      swap2\n      swap1\n      pop\n      jump\t// out\n        /* \"#utility.yul\":32332:32418   */\n    tag_832:\n        /* \"#utility.yul\":32367:32374   */\n      0x00\n        /* \"#utility.yul\":32407:32411   */\n      0xff\n        /* \"#utility.yul\":32400:32405   */\n      dup3\n        /* \"#utility.yul\":32396:32412   */\n      and\n        /* \"#utility.yul\":32385:32412   */\n      swap1\n      pop\n        /* \"#utility.yul\":32332:32418   */\n      swap2\n      swap1\n      pop\n      jump\t// out\n        /* \"#utility.yul\":32424:32578   */\n    tag_541:\n        /* \"#utility.yul\":32508:32514   */\n      dup3\n        /* \"#utility.yul\":32503:32506   */\n      dup2\n        /* \"#utility.yul\":32498:32501   */\n      dup4\n        /* \"#utility.yul\":32485:32515   */\n      calldatacopy\n        /* \"#utility.yul\":32570:32571   */\n      0x00\n        /* \"#utility.yul\":32561:32567   */\n      dup4\n        /* \"#utility.yul\":32556:32559   */\n      dup4\n        /* \"#utility.yul\":32552:32568   */\n      add\n        /* \"#utility.yul\":32545:32572   */\n      mstore\n        /* \"#utility.yul\":32424:32578   */\n      pop\n      pop\n      pop\n      jump\t// out\n        /* \"#utility.yul\":32584:32891   */\n    tag_601:\n        /* \"#utility.yul\":32652:32653   */\n      0x00\n        /* \"#utility.yul\":32662:32775   */\n    tag_860:\n        /* \"#utility.yul\":32676:32682   */\n      dup4\n        /* \"#utility.yul\":32673:32674   */\n      dup2\n        /* \"#utility.yul\":32670:32683   */\n      lt\n        /* \"#utility.yul\":32662:32775   */\n      iszero\n      tag_862\n      jumpi\n        /* \"#utility.yul\":32761:32762   */\n      dup1\n        /* \"#utility.yul\":32756:32759   */\n      dup3\n        /* \"#utility.yul\":32752:32763   */\n      add\n        /* \"#utility.yul\":32746:32764   */\n      mload\n        /* \"#utility.yul\":32742:32743   */\n      dup2\n        /* \"#utility.yul\":32737:32740   */\n      dup5\n        /* \"#utility.yul\":32733:32744   */\n      add\n        /* \"#utility.yul\":32726:32765   */\n      mstore\n        /* \"#utility.yul\":32698:32700   */\n      0x20\n        /* \"#utility.yul\":32695:32696   */\n      dup2\n        /* \"#utility.yul\":32691:32701   */\n      add\n        /* \"#utility.yul\":32686:32701   */\n      swap1\n      pop\n        /* \"#utility.yul\":32662:32775   */\n      jump(tag_860)\n    tag_862:\n        /* \"#utility.yul\":32793:32799   */\n      dup4\n        /* \"#utility.yul\":32790:32791   */\n      dup2\n        /* \"#utility.yul\":32787:32800   */\n      gt\n        /* \"#utility.yul\":32784:32885   */\n      iszero\n      tag_863\n      jumpi\n        /* \"#utility.yul\":32873:32874   */\n      0x00\n        /* \"#utility.yul\":32864:32870   */\n      dup5\n        /* \"#utility.yul\":32859:32862   */\n      dup5\n        /* \"#utility.yul\":32855:32871   */\n      add\n        /* \"#utility.yul\":32848:32875   */\n      mstore\n        /* \"#utility.yul\":32784:32885   */\n    tag_863:\n        /* \"#utility.yul\":32633:32891   */\n      pop\n        /* \"#utility.yul\":32584:32891   */\n      pop\n      pop\n      pop\n      jump\t// out\n        /* \"#utility.yul\":32897:33217   */\n    tag_122:\n        /* \"#utility.yul\":32941:32947   */\n      0x00\n        /* \"#utility.yul\":32978:32979   */\n      0x02\n        /* \"#utility.yul\":32972:32976   */\n      dup3\n        /* \"#utility.yul\":32968:32980   */\n      div\n        /* \"#utility.yul\":32958:32980   */\n      swap1\n      pop\n        /* \"#utility.yul\":33025:33026   */\n      0x01\n        /* \"#utility.yul\":33019:33023   */\n      dup3\n        /* \"#utility.yul\":33015:33027   */\n      and\n        /* \"#utility.yul\":33046:33064   */\n      dup1\n        /* \"#utility.yul\":33036:33117   */\n      tag_865\n      jumpi\n        /* \"#utility.yul\":33102:33106   */\n      0x7f\n        /* \"#utility.yul\":33094:33100   */\n      dup3\n        /* \"#utility.yul\":33090:33107   */\n      and\n        /* \"#utility.yul\":33080:33107   */\n      swap2\n      pop\n        /* \"#utility.yul\":33036:33117   */\n    tag_865:\n        /* \"#utility.yul\":33164:33166   */\n      0x20\n        /* \"#utility.yul\":33156:33162   */\n      dup3\n        /* \"#utility.yul\":33153:33167   */\n      lt\n        /* \"#utility.yul\":33133:33151   */\n      dup2\n        /* \"#utility.yul\":33130:33168   */\n      eq\n        /* \"#utility.yul\":33127:33211   */\n      iszero\n      tag_866\n      jumpi\n        /* \"#utility.yul\":33183:33201   */\n      tag_867\n      tag_868\n      jump\t// in\n    tag_867:\n        /* \"#utility.yul\":33127:33211   */\n    tag_866:\n        /* \"#utility.yul\":32948:33217   */\n      pop\n        /* \"#utility.yul\":32897:33217   */\n      swap2\n      swap1\n      pop\n      jump\t// out\n        /* \"#utility.yul\":33223:33504   */\n    tag_807:\n        /* \"#utility.yul\":33306:33333   */\n      tag_870\n        /* \"#utility.yul\":33328:33332   */\n      dup3\n        /* \"#utility.yul\":33306:33333   */\n      tag_603\n      jump\t// in\n    tag_870:\n        /* \"#utility.yul\":33298:33304   */\n      dup2\n        /* \"#utility.yul\":33294:33334   */\n      add\n        /* \"#utility.yul\":33436:33442   */\n      dup2\n        /* \"#utility.yul\":33424:33434   */\n      dup2\n        /* \"#utility.yul\":33421:33443   */\n      lt\n        /* \"#utility.yul\":33400:33418   */\n      0xffffffffffffffff\n        /* \"#utility.yul\":33388:33398   */\n      dup3\n        /* \"#utility.yul\":33385:33419   */\n      gt\n        /* \"#utility.yul\":33382:33444   */\n      or\n        /* \"#utility.yul\":33379:33467   */\n      iszero\n      tag_871\n      jumpi\n        /* \"#utility.yul\":33447:33465   */\n      tag_872\n      tag_383\n      jump\t// in\n    tag_872:\n        /* \"#utility.yul\":33379:33467   */\n    tag_871:\n        /* \"#utility.yul\":33487:33497   */\n      dup1\n        /* \"#utility.yul\":33483:33485   */\n      0x40\n        /* \"#utility.yul\":33476:33498   */\n      mstore\n        /* \"#utility.yul\":33266:33504   */\n      pop\n        /* \"#utility.yul\":33223:33504   */\n      pop\n      pop\n      jump\t// out\n        /* \"#utility.yul\":33510:33743   */\n    tag_209:\n        /* \"#utility.yul\":33549:33552   */\n      0x00\n        /* \"#utility.yul\":33572:33596   */\n      tag_874\n        /* \"#utility.yul\":33590:33595   */\n      dup3\n        /* \"#utility.yul\":33572:33596   */\n      tag_825\n      jump\t// in\n    tag_874:\n        /* \"#utility.yul\":33563:33596   */\n      swap2\n      pop\n        /* \"#utility.yul\":33618:33684   */\n      0xffffffffffffffffffffffffffffffffffffffffffffffffffffffffffffffff\n        /* \"#utility.yul\":33611:33616   */\n      dup3\n        /* \"#utility.yul\":33608:33685   */\n      eq\n        /* \"#utility.yul\":33605:33708   */\n      iszero\n      tag_875\n      jumpi\n        /* \"#utility.yul\":33688:33706   */\n      tag_876\n      tag_829\n      jump\t// in\n    tag_876:\n        /* \"#utility.yul\":33605:33708   */\n    tag_875:\n        /* \"#utility.yul\":33735:33736   */\n      0x01\n        /* \"#utility.yul\":33728:33733   */\n      dup3\n        /* \"#utility.yul\":33724:33737   */\n      add\n        /* \"#utility.yul\":33717:33737   */\n      swap1\n      pop\n        /* \"#utility.yul\":33510:33743   */\n      swap2\n      swap1\n      pop\n      jump\t// out\n        /* \"#utility.yul\":33749:33929   */\n    tag_829:\n        /* \"#utility.yul\":33797:33874   */\n      0x4e487b7100000000000000000000000000000000000000000000000000000000\n        /* \"#utility.yul\":33794:33795   */\n      0x00\n        /* \"#utility.yul\":33787:33875   */\n      mstore\n        /* \"#utility.yul\":33894:33898   */\n      0x11\n        /* \"#utility.yul\":33891:33892   */\n      0x04\n        /* \"#utility.yul\":33884:33899   */\n      mstore\n        /* \"#utility.yul\":33918:33922   */\n      0x24\n        /* \"#utility.yul\":33915:33916   */\n      0x00\n        /* \"#utility.yul\":33908:33923   */\n      revert\n        /* \"#utility.yul\":33935:34115   */\n    tag_841:\n        /* \"#utility.yul\":33983:34060   */\n      0x4e487b7100000000000000000000000000000000000000000000000000000000\n        /* \"#utility.yul\":33980:33981   */\n      0x00\n        /* \"#utility.yul\":33973:34061   */\n      mstore\n        /* \"#utility.yul\":34080:34084   */\n      0x12\n        /* \"#utility.yul\":34077:34078   */\n      0x04\n        /* \"#utility.yul\":34070:34085   */\n      mstore\n        /* \"#utility.yul\":34104:34108   */\n      0x24\n        /* \"#utility.yul\":34101:34102   */\n      0x00\n        /* \"#utility.yul\":34094:34109   */\n      revert\n        /* \"#utility.yul\":34121:34301   */\n    tag_80:\n        /* \"#utility.yul\":34169:34246   */\n      0x4e487b7100000000000000000000000000000000000000000000000000000000\n        /* \"#utility.yul\":34166:34167   */\n      0x00\n        /* \"#utility.yul\":34159:34247   */\n      mstore\n        /* \"#utility.yul\":34266:34270   */\n      0x21\n        /* \"#utility.yul\":34263:34264   */\n      0x04\n        /* \"#utility.yul\":34256:34271   */\n      mstore\n        /* \"#utility.yul\":34290:34294   */\n      0x24\n        /* \"#utility.yul\":34287:34288   */\n      0x00\n        /* \"#utility.yul\":34280:34295   */\n      revert\n        /* \"#utility.yul\":34307:34487   */\n    tag_868:\n        /* \"#utility.yul\":34355:34432   */\n      0x4e487b7100000000000000000000000000000000000000000000000000000000\n        /* \"#utility.yul\":34352:34353   */\n      0x00\n        /* \"#utility.yul\":34345:34433   */\n      mstore\n        /* \"#utility.yul\":34452:34456   */\n      0x22\n        /* \"#utility.yul\":34449:34450   */\n      0x04\n        /* \"#utility.yul\":34442:34457   */\n      mstore\n        /* \"#utility.yul\":34476:34480   */\n      0x24\n        /* \"#utility.yul\":34473:34474   */\n      0x00\n        /* \"#utility.yul\":34466:34481   */\n      revert\n        /* \"#utility.yul\":34493:34673   */\n    tag_102:\n        /* \"#utility.yul\":34541:34618   */\n      0x4e487b7100000000000000000000000000000000000000000000000000000000\n        /* \"#utility.yul\":34538:34539   */\n      0x00\n        /* \"#utility.yul\":34531:34619   */\n      mstore\n        /* \"#utility.yul\":34638:34642   */\n      0x32\n        /* \"#utility.yul\":34635:34636   */\n      0x04\n        /* \"#utility.yul\":34628:34643   */\n      mstore\n        /* \"#utility.yul\":34662:34666   */\n      0x24\n        /* \"#utility.yul\":34659:34660   */\n      0x00\n        /* \"#utility.yul\":34652:34667   */\n      revert\n        /* \"#utility.yul\":34679:34859   */\n    tag_383:\n        /* \"#utility.yul\":34727:34804   */\n      0x4e487b7100000000000000000000000000000000000000000000000000000000\n        /* \"#utility.yul\":34724:34725   */\n      0x00\n        /* \"#utility.yul\":34717:34805   */\n      mstore\n        /* \"#utility.yul\":34824:34828   */\n      0x41\n        /* \"#utility.yul\":34821:34822   */\n      0x04\n        /* \"#utility.yul\":34814:34829   */\n      mstore\n        /* \"#utility.yul\":34848:34852   */\n      0x24\n        /* \"#utility.yul\":34845:34846   */\n      0x00\n        /* \"#utility.yul\":34838:34853   */\n      revert\n        /* \"#utility.yul\":34865:34982   */\n    tag_517:\n        /* \"#utility.yul\":34974:34975   */\n      0x00\n        /* \"#utility.yul\":34971:34972   */\n      dup1\n        /* \"#utility.yul\":34964:34976   */\n      revert\n        /* \"#utility.yul\":34988:35105   */\n    tag_511:\n        /* \"#utility.yul\":35097:35098   */\n      0x00\n        /* \"#utility.yul\":35094:35095   */\n      dup1\n        /* \"#utility.yul\":35087:35099   */\n      revert\n        /* \"#utility.yul\":35111:35228   */\n    tag_539:\n        /* \"#utility.yul\":35220:35221   */\n      0x00\n        /* \"#utility.yul\":35217:35218   */\n      dup1\n        /* \"#utility.yul\":35210:35222   */\n      revert\n        /* \"#utility.yul\":35234:35351   */\n    tag_565:\n        /* \"#utility.yul\":35343:35344   */\n      0x00\n        /* \"#utility.yul\":35340:35341   */\n      dup1\n        /* \"#utility.yul\":35333:35345   */\n      revert\n        /* \"#utility.yul\":35357:35474   */\n    tag_562:\n        /* \"#utility.yul\":35466:35467   */\n      0x00\n        /* \"#utility.yul\":35463:35464   */\n      dup1\n        /* \"#utility.yul\":35456:35468   */\n      revert\n        /* \"#utility.yul\":35480:35582   */\n    tag_603:\n        /* \"#utility.yul\":35521:35527   */\n      0x00\n        /* \"#utility.yul\":35572:35574   */\n      0x1f\n        /* \"#utility.yul\":35568:35575   */\n      not\n        /* \"#utility.yul\":35563:35565   */\n      0x1f\n        /* \"#utility.yul\":35556:35561   */\n      dup4\n        /* \"#utility.yul\":35552:35566   */\n      add\n        /* \"#utility.yul\":35548:35576   */\n      and\n        /* \"#utility.yul\":35538:35576   */\n      swap1\n      pop\n        /* \"#utility.yul\":35480:35582   */\n      swap2\n      swap1\n      pop\n      jump\t// out\n        /* \"#utility.yul\":35588:35818   */\n    tag_626:\n        /* \"#utility.yul\":35728:35762   */\n      0x43616e277420736574206361707461696e7320666f72207468652066616e7461\n        /* \"#utility.yul\":35724:35725   */\n      0x00\n        /* \"#utility.yul\":35716:35722   */\n      dup3\n        /* \"#utility.yul\":35712:35726   */\n      add\n        /* \"#utility.yul\":35705:35763   */\n      mstore\n        /* \"#utility.yul\":35797:35810   */\n      0x7379207465616d206e6f77000000000000000000000000000000000000000000\n        /* \"#utility.yul\":35792:35794   */\n      0x20\n        /* \"#utility.yul\":35784:35790   */\n      dup3\n        /* \"#utility.yul\":35780:35795   */\n      add\n        /* \"#utility.yul\":35773:35811   */\n      mstore\n        /* \"#utility.yul\":35588:35818   */\n      pop\n      jump\t// out\n        /* \"#utility.yul\":35824:36044   */\n    tag_631:\n        /* \"#utility.yul\":35964:35998   */\n      0x5465616d20646f6573206e6f742065786973747320666f722074686520757365\n        /* \"#utility.yul\":35960:35961   */\n      0x00\n        /* \"#utility.yul\":35952:35958   */\n      dup3\n        /* \"#utility.yul\":35948:35962   */\n      add\n        /* \"#utility.yul\":35941:35999   */\n      mstore\n        /* \"#utility.yul\":36033:36036   */\n      0x7200000000000000000000000000000000000000000000000000000000000000\n        /* \"#utility.yul\":36028:36030   */\n      0x20\n        /* \"#utility.yul\":36020:36026   */\n      dup3\n        /* \"#utility.yul\":36016:36031   */\n      add\n        /* \"#utility.yul\":36009:36037   */\n      mstore\n        /* \"#utility.yul\":35824:36044   */\n      pop\n      jump\t// out\n        /* \"#utility.yul\":36050:36232   */\n    tag_636:\n        /* \"#utility.yul\":36190:36224   */\n      0x5465616d20616c72656164792065786973747320666f72207468652075736572\n        /* \"#utility.yul\":36186:36187   */\n      0x00\n        /* \"#utility.yul\":36178:36184   */\n      dup3\n        /* \"#utility.yul\":36174:36188   */\n      add\n        /* \"#utility.yul\":36167:36225   */\n      mstore\n        /* \"#utility.yul\":36050:36232   */\n      pop\n      jump\t// out\n        /* \"#utility.yul\":36238:36452   */\n    tag_641:\n        /* \"#utility.yul\":36378:36444   */\n      0x0a00000000000000000000000000000000000000000000000000000000000000\n        /* \"#utility.yul\":36374:36375   */\n      0x00\n        /* \"#utility.yul\":36366:36372   */\n      dup3\n        /* \"#utility.yul\":36362:36376   */\n      add\n        /* \"#utility.yul\":36355:36445   */\n      mstore\n        /* \"#utility.yul\":36238:36452   */\n      pop\n      jump\t// out\n        /* \"#utility.yul\":36458:36628   */\n    tag_646:\n        /* \"#utility.yul\":36598:36620   */\n      0x47616d6520686173206e6f742073746f70706564000000000000000000000000\n        /* \"#utility.yul\":36594:36595   */\n      0x00\n        /* \"#utility.yul\":36586:36592   */\n      dup3\n        /* \"#utility.yul\":36582:36596   */\n      add\n        /* \"#utility.yul\":36575:36621   */\n      mstore\n        /* \"#utility.yul\":36458:36628   */\n      pop\n      jump\t// out\n        /* \"#utility.yul\":36634:36799   */\n    tag_651:\n        /* \"#utility.yul\":36774:36791   */\n      0x3b20506c61796572204e616d653a200000000000000000000000000000000000\n        /* \"#utility.yul\":36770:36771   */\n      0x00\n        /* \"#utility.yul\":36762:36768   */\n      dup3\n        /* \"#utility.yul\":36758:36772   */\n      add\n        /* \"#utility.yul\":36751:36792   */\n      mstore\n        /* \"#utility.yul\":36634:36799   */\n      pop\n      jump\t// out\n        /* \"#utility.yul\":36805:37053   */\n    tag_656:\n        /* \"#utility.yul\":36945:36979   */\n      0x4120706c617965722063616e206e6f74206265204361707461696e20616e6420\n        /* \"#utility.yul\":36941:36942   */\n      0x00\n        /* \"#utility.yul\":36933:36939   */\n      dup3\n        /* \"#utility.yul\":36929:36943   */\n      add\n        /* \"#utility.yul\":36922:36980   */\n      mstore\n        /* \"#utility.yul\":37014:37045   */\n      0x56696365204361707461696e206174207468652073616d652074696d65000000\n        /* \"#utility.yul\":37009:37011   */\n      0x20\n        /* \"#utility.yul\":37001:37007   */\n      dup3\n        /* \"#utility.yul\":36997:37012   */\n      add\n        /* \"#utility.yul\":36990:37046   */\n      mstore\n        /* \"#utility.yul\":36805:37053   */\n      pop\n      jump\t// out\n        /* \"#utility.yul\":37059:37288   */\n    tag_661:\n        /* \"#utility.yul\":37199:37233   */\n      0x506c61796572732063616e277420626520616464656420746f2066616e746173\n        /* \"#utility.yul\":37195:37196   */\n      0x00\n        /* \"#utility.yul\":37187:37193   */\n      dup3\n        /* \"#utility.yul\":37183:37197   */\n      add\n        /* \"#utility.yul\":37176:37234   */\n      mstore\n        /* \"#utility.yul\":37268:37280   */\n      0x79207465616d206e6f7700000000000000000000000000000000000000000000\n        /* \"#utility.yul\":37263:37265   */\n      0x20\n        /* \"#utility.yul\":37255:37261   */\n      dup3\n        /* \"#utility.yul\":37251:37266   */\n      add\n        /* \"#utility.yul\":37244:37281   */\n      mstore\n        /* \"#utility.yul\":37059:37288   */\n      pop\n      jump\t// out\n        /* \"#utility.yul\":37294:37470   */\n    tag_666:\n        /* \"#utility.yul\":37434:37462   */\n      0x506c6179657220616c726561647920696e20746865207465616d000000000000\n        /* \"#utility.yul\":37430:37431   */\n      0x00\n        /* \"#utility.yul\":37422:37428   */\n      dup3\n        /* \"#utility.yul\":37418:37432   */\n      add\n        /* \"#utility.yul\":37411:37463   */\n      mstore\n        /* \"#utility.yul\":37294:37470   */\n      pop\n      jump\t// out\n        /* \"#utility.yul\":37476:37654   */\n    tag_671:\n        /* \"#utility.yul\":37616:37646   */\n      0x43616e27742073657420706c617965722773207374617473206e6f7700000000\n        /* \"#utility.yul\":37612:37613   */\n      0x00\n        /* \"#utility.yul\":37604:37610   */\n      dup3\n        /* \"#utility.yul\":37600:37614   */\n      add\n        /* \"#utility.yul\":37593:37647   */\n      mstore\n        /* \"#utility.yul\":37476:37654   */\n      pop\n      jump\t// out\n        /* \"#utility.yul\":37660:37825   */\n    tag_676:\n        /* \"#utility.yul\":37800:37817   */\n      0x43616e27742062696420616761696e0000000000000000000000000000000000\n        /* \"#utility.yul\":37796:37797   */\n      0x00\n        /* \"#utility.yul\":37788:37794   */\n      dup3\n        /* \"#utility.yul\":37784:37798   */\n      add\n        /* \"#utility.yul\":37777:37818   */\n      mstore\n        /* \"#utility.yul\":37660:37825   */\n      pop\n      jump\t// out\n        /* \"#utility.yul\":37831:37992   */\n    tag_681:\n        /* \"#utility.yul\":37971:37984   */\n      0x506c617965722049443a20000000000000000000000000000000000000000000\n        /* \"#utility.yul\":37967:37968   */\n      0x00\n        /* \"#utility.yul\":37959:37965   */\n      dup3\n        /* \"#utility.yul\":37955:37969   */\n      add\n        /* \"#utility.yul\":37948:37985   */\n      mstore\n        /* \"#utility.yul\":37831:37992   */\n      pop\n      jump\t// out\n        /* \"#utility.yul\":37998:38175   */\n    tag_686:\n        /* \"#utility.yul\":38138:38167   */\n      0x506c61796572732063616e2774206265206c6973746564206e6f770000000000\n        /* \"#utility.yul\":38134:38135   */\n      0x00\n        /* \"#utility.yul\":38126:38132   */\n      dup3\n        /* \"#utility.yul\":38122:38136   */\n      add\n        /* \"#utility.yul\":38115:38168   */\n      mstore\n        /* \"#utility.yul\":37998:38175   */\n      pop\n      jump\t// out\n        /* \"#utility.yul\":38181:38355   */\n    tag_691:\n        /* \"#utility.yul\":38321:38347   */\n      0x426964732063616e277420626520706c61636564206e6f770000000000000000\n        /* \"#utility.yul\":38317:38318   */\n      0x00\n        /* \"#utility.yul\":38309:38315   */\n      dup3\n        /* \"#utility.yul\":38305:38319   */\n      add\n        /* \"#utility.yul\":38298:38348   */\n      mstore\n        /* \"#utility.yul\":38181:38355   */\n      pop\n      jump\t// out\n        /* \"#utility.yul\":38361:38533   */\n    tag_696:\n        /* \"#utility.yul\":38501:38525   */\n      0x56696365204361707461696e206e6f7420616464656400000000000000000000\n        /* \"#utility.yul\":38497:38498   */\n      0x00\n        /* \"#utility.yul\":38489:38495   */\n      dup3\n        /* \"#utility.yul\":38485:38499   */\n      add\n        /* \"#utility.yul\":38478:38526   */\n      mstore\n        /* \"#utility.yul\":38361:38533   */\n      pop\n      jump\t// out\n        /* \"#utility.yul\":38539:38710   */\n    tag_701:\n        /* \"#utility.yul\":38679:38702   */\n      0x506c6179657220646f6573206e6f742065786973740000000000000000000000\n        /* \"#utility.yul\":38675:38676   */\n      0x00\n        /* \"#utility.yul\":38667:38673   */\n      dup3\n        /* \"#utility.yul\":38663:38677   */\n      add\n        /* \"#utility.yul\":38656:38703   */\n      mstore\n        /* \"#utility.yul\":38539:38710   */\n      pop\n      jump\t// out\n        /* \"#utility.yul\":38716:38898   */\n    tag_706:\n        /* \"#utility.yul\":38856:38890   */\n      0x46616e74617379207465616d732063616e2774206265206164646564206e6f77\n        /* \"#utility.yul\":38852:38853   */\n      0x00\n        /* \"#utility.yul\":38844:38850   */\n      dup3\n        /* \"#utility.yul\":38840:38854   */\n      add\n        /* \"#utility.yul\":38833:38891   */\n      mstore\n        /* \"#utility.yul\":38716:38898   */\n      pop\n      jump\t// out\n        /* \"#utility.yul\":38904:39074   */\n    tag_711:\n        /* \"#utility.yul\":39044:39066   */\n      0x43616e27742061646420706c61796572206e6f77000000000000000000000000\n        /* \"#utility.yul\":39040:39041   */\n      0x00\n        /* \"#utility.yul\":39032:39038   */\n      dup3\n        /* \"#utility.yul\":39028:39042   */\n      add\n        /* \"#utility.yul\":39021:39067   */\n      mstore\n        /* \"#utility.yul\":38904:39074   */\n      pop\n      jump\t// out\n        /* \"#utility.yul\":39080:39254   */\n    tag_716:\n        /* \"#utility.yul\":39220:39246   */\n      0x47616d6520616c726561647920696e2070726f67726573730000000000000000\n        /* \"#utility.yul\":39216:39217   */\n      0x00\n        /* \"#utility.yul\":39208:39214   */\n      dup3\n        /* \"#utility.yul\":39204:39218   */\n      add\n        /* \"#utility.yul\":39197:39247   */\n      mstore\n        /* \"#utility.yul\":39080:39254   */\n      pop\n      jump\t// out\n        /* \"#utility.yul\":39260:39481   */\n    tag_721:\n        /* \"#utility.yul\":39400:39434   */\n      0x4d7573742062652061646d696e20746f2075736520746869732066756e636974\n        /* \"#utility.yul\":39396:39397   */\n      0x00\n        /* \"#utility.yul\":39388:39394   */\n      dup3\n        /* \"#utility.yul\":39384:39398   */\n      add\n        /* \"#utility.yul\":39377:39435   */\n      mstore\n        /* \"#utility.yul\":39469:39473   */\n      0x6f6e000000000000000000000000000000000000000000000000000000000000\n        /* \"#utility.yul\":39464:39466   */\n      0x20\n        /* \"#utility.yul\":39456:39462   */\n      dup3\n        /* \"#utility.yul\":39452:39467   */\n      add\n        /* \"#utility.yul\":39445:39474   */\n      mstore\n        /* \"#utility.yul\":39260:39481   */\n      pop\n      jump\t// out\n        /* \"#utility.yul\":39487:39654   */\n    tag_726:\n        /* \"#utility.yul\":39627:39646   */\n      0x4361707461696e206e6f74206164646564000000000000000000000000000000\n        /* \"#utility.yul\":39623:39624   */\n      0x00\n        /* \"#utility.yul\":39615:39621   */\n      dup3\n        /* \"#utility.yul\":39611:39625   */\n      add\n        /* \"#utility.yul\":39604:39647   */\n      mstore\n        /* \"#utility.yul\":39487:39654   */\n      pop\n      jump\t// out\n        /* \"#utility.yul\":39660:39827   */\n    tag_731:\n        /* \"#utility.yul\":39800:39819   */\n      0x5465616d20616c72656164792046756c6c000000000000000000000000000000\n        /* \"#utility.yul\":39796:39797   */\n      0x00\n        /* \"#utility.yul\":39788:39794   */\n      dup3\n        /* \"#utility.yul\":39784:39798   */\n      add\n        /* \"#utility.yul\":39777:39820   */\n      mstore\n        /* \"#utility.yul\":39660:39827   */\n      pop\n      jump\t// out\n        /* \"#utility.yul\":39833:40002   */\n    tag_736:\n        /* \"#utility.yul\":39973:39994   */\n      0x43616e2774206368616e67652073746174757300000000000000000000000000\n        /* \"#utility.yul\":39969:39970   */\n      0x00\n        /* \"#utility.yul\":39961:39967   */\n      dup3\n        /* \"#utility.yul\":39957:39971   */\n      add\n        /* \"#utility.yul\":39950:39995   */\n      mstore\n        /* \"#utility.yul\":39833:40002   */\n      pop\n      jump\t// out\n        /* \"#utility.yul\":40008:40173   */\n    tag_741:\n        /* \"#utility.yul\":40148:40165   */\n      0x5465616d20496e636f6d706c6574650000000000000000000000000000000000\n        /* \"#utility.yul\":40144:40145   */\n      0x00\n        /* \"#utility.yul\":40136:40142   */\n      dup3\n        /* \"#utility.yul\":40132:40146   */\n      add\n        /* \"#utility.yul\":40125:40166   */\n      mstore\n        /* \"#utility.yul\":40008:40173   */\n      pop\n      jump\t// out\n        /* \"#utility.yul\":40179:40301   */\n    tag_558:\n        /* \"#utility.yul\":40252:40276   */\n      tag_914\n        /* \"#utility.yul\":40270:40275   */\n      dup2\n        /* \"#utility.yul\":40252:40276   */\n      tag_825\n      jump\t// in\n    tag_914:\n        /* \"#utility.yul\":40245:40250   */\n      dup2\n        /* \"#utility.yul\":40242:40277   */\n      eq\n        /* \"#utility.yul\":40232:40295   */\n      tag_915\n      jumpi\n        /* \"#utility.yul\":40291:40292   */\n      0x00\n        /* \"#utility.yul\":40288:40289   */\n      dup1\n        /* \"#utility.yul\":40281:40293   */\n      revert\n        /* \"#utility.yul\":40232:40295   */\n    tag_915:\n        /* \"#utility.yul\":40179:40301   */\n      pop\n      jump\t// out\n\n    auxdata: 0xa26469706673582212209efe22143fbae335fcb5f306273e9634dfca8a776fa69d43cc0d3877883ede5f64736f6c63430008070033\n}\n",
				"bytecode": {
					"linkReferences": {},
					"object": "608060405260008060146101000a81548160ff021916908360048111156200002c576200002b62000094565b5b02179055506001600355600160045560326005553480156200004d57600080fd5b50336000806101000a81548173ffffffffffffffffffffffffffffffffffffffff021916908373ffffffffffffffffffffffffffffffffffffffff160217905550620000c3565b7f4e487b7100000000000000000000000000000000000000000000000000000000600052602160045260246000fd5b61371880620000d36000396000f3fe6080604052600436106100c25760003560e01c80634c4501c81161007f5780638791c0b4116100595780638791c0b4146101e75780638cc804801461021057806392506fae14610227578063af5af0ce14610250576100c2565b80634c4501c81461016857806364605d51146101915780636e9960c3146101bc576100c2565b8063106ecb0a146100c75780631998aeef146100f0578063219b596b146100fa5780632c31d085146101115780632f290bfd1461013a5780634526e08b14610151575b600080fd5b3480156100d357600080fd5b506100ee60048036038101906100e99190612526565b610279565b005b6100f86104c1565b005b34801561010657600080fd5b5061010f6107e3565b005b34801561011d57600080fd5b5061013860048036038101906101339190612566565b610914565b005b34801561014657600080fd5b5061014f610a79565b005b34801561015d57600080fd5b50610166610b1c565b005b34801561017457600080fd5b5061018f600480360381019061018a919061244b565b610c4d565b005b34801561019d57600080fd5b506101a6610d9b565b6040516101b39190612ac2565b60405180910390f35b3480156101c857600080fd5b506101d1610f51565b6040516101de9190612aa7565b60405180910390f35b3480156101f357600080fd5b5061020e60048036038101906102099190612494565b610f7a565b005b34801561021c57600080fd5b506102256111d2565b005b34801561023357600080fd5b5061024e600480360381019061024991906124dd565b611509565b005b34801561025c57600080fd5b5061027760048036038101906102729190612566565b61170e565b005b8160018054905081106102c1576040517f08c379a00000000000000000000000000000000000000000000000000000000081526004016102b890612c64565b60405180910390fd5b816001805490508110610309576040517f08c379a000000000000000000000000000000000000000000000000000000000815260040161030090612c64565b60405180910390fd5b6002600481111561031d5761031c61314f565b5b600060149054906101000a900460ff16600481111561033f5761033e61314f565b5b1461037f576040517f08c379a000000000000000000000000000000000000000000000000000000000815260040161037690612ae4565b60405180910390fd5b600061038a3361182c565b90506002805490508114156103d4576040517f08c379a00000000000000000000000000000000000000000000000000000000081526004016103cb90612b04565b60405180910390fd5b6103de85826118e5565b61041d576040517f08c379a000000000000000000000000000000000000000000000000000000000815260040161041490612d04565b60405180910390fd5b61042784826118e5565b610466576040517f08c379a000000000000000000000000000000000000000000000000000000000815260040161045d90612c44565b60405180910390fd5b846002828154811061047b5761047a6131ad565b5b90600052602060002090600702016003018190555083600282815481106104a5576104a46131ad565b5b9060005260206000209060070201600401819055505050505050565b600260048111156104d5576104d461314f565b5b600060149054906101000a900460ff1660048111156104f7576104f661314f565b5b14610537576040517f08c379a000000000000000000000000000000000000000000000000000000000815260040161052e90612c24565b60405180910390fd5b60006105423361182c565b905060028054905081141561058c576040517f08c379a000000000000000000000000000000000000000000000000000000000815260040161058390612b04565b60405180910390fd5b6000600282815481106105a2576105a16131ad565b5b90600052602060002090600702016040518060e00160405290816000820160009054906101000a900473ffffffffffffffffffffffffffffffffffffffff1673ffffffffffffffffffffffffffffffffffffffff1673ffffffffffffffffffffffffffffffffffffffff16815260200160018201805461062190613045565b80601f016020809104026020016040519081016040528092919081815260200182805461064d90613045565b801561069a5780601f1061066f5761010080835404028352916020019161069a565b820191906000526020600020905b81548152906001019060200180831161067d57829003601f168201915b50505050508152602001600282018054806020026020016040519081016040528092919081815260200182805480156106f257602002820191906000526020600020905b8154815260200190600101908083116106de575b5050505050815260200160038201548152602001600482015481526020016005820154815260200160068201548152505090506003548160400151511461076e576040517f08c379a000000000000000000000000000000000000000000000000000000000815260040161076590612d64565b60405180910390fd5b60008160a00151146107b5576040517f08c379a00000000000000000000000000000000000000000000000000000000081526004016107ac90612be4565b60405180910390fd5b34600283815481106107ca576107c96131ad565b5b9060005260206000209060070201600501819055505050565b60008054906101000a900473ffffffffffffffffffffffffffffffffffffffff1673ffffffffffffffffffffffffffffffffffffffff163373ffffffffffffffffffffffffffffffffffffffff1614610871576040517f08c379a000000000000000000000000000000000000000000000000000000000815260040161086890612ce4565b60405180910390fd5b600360048111156108855761088461314f565b5b600060149054906101000a900460ff1660048111156108a7576108a661314f565b5b146108e7576040517f08c379a00000000000000000000000000000000000000000000000000000000081526004016108de90612d44565b60405180910390fd5b6004600060146101000a81548160ff0219169083600481111561090d5761090c61314f565b5b0217905550565b60008054906101000a900473ffffffffffffffffffffffffffffffffffffffff1673ffffffffffffffffffffffffffffffffffffffff163373ffffffffffffffffffffffffffffffffffffffff16146109a2576040517f08c379a000000000000000000000000000000000000000000000000000000000815260040161099990612ce4565b60405180910390fd5b600060048111156109b6576109b561314f565b5b600060149054906101000a900460ff1660048111156109d8576109d761314f565b5b14610a18576040517f08c379a0000000000000000000000000000000000000000000000000000000008152600401610a0f90612cc4565b60405180910390fd5b60016000610a269190611f7b565b60026000610a349190611f9f565b6001600060146101000a81548160ff02191690836004811115610a5a57610a5961314f565b5b0217905550826003819055508160048190555080600581905550505050565b60016004811115610a8d57610a8c61314f565b5b600060149054906101000a900460ff166004811115610aaf57610aae61314f565b5b14610aef576040517f08c379a0000000000000000000000000000000000000000000000000000000008152600401610ae690612d44565b60405180910390fd5b6002600060146101000a81548160ff02191690836004811115610b1557610b1461314f565b5b0217905550565b60008054906101000a900473ffffffffffffffffffffffffffffffffffffffff1673ffffffffffffffffffffffffffffffffffffffff163373ffffffffffffffffffffffffffffffffffffffff1614610baa576040517f08c379a0000000000000000000000000000000000000000000000000000000008152600401610ba190612ce4565b60405180910390fd5b60026004811115610bbe57610bbd61314f565b5b600060149054906101000a900460ff166004811115610be057610bdf61314f565b5b14610c20576040517f08c379a0000000000000000000000000000000000000000000000000000000008152600401610c1790612d44565b60405180910390fd5b6003600060146101000a81548160ff02191690836004811115610c4657610c4561314f565b5b0217905550565b60016004811115610c6157610c6061314f565b5b600060149054906101000a900460ff166004811115610c8357610c8261314f565b5b14610cc3576040517f08c379a0000000000000000000000000000000000000000000000000000000008152600401610cba90612ca4565b60405180910390fd5b60005b8151811015610d97576000828281518110610ce457610ce36131ad565b5b60200260200101519050610cf6611fc3565b8181602001819052506001805490508160000181815250506001819080600181540180825580915050600190039060005260206000209060040201600090919091909150600082015181600001556020820151816001019080519060200190610d60929190611fea565b5060408201518160020160008201518160000155602082015181600101555050505050508080610d8f906130a8565b915050610cc6565b5050565b606060026004811115610db157610db061314f565b5b600060149054906101000a900460ff166004811115610dd357610dd261314f565b5b14610e13576040517f08c379a0000000000000000000000000000000000000000000000000000000008152600401610e0a90612c04565b60405180910390fd5b600060405180602001604052806000815250905060005b600180549050811015610f495781604051602001610e489190612a85565b604051602081830303815290604052915081610e8860018381548110610e7157610e706131ad565b5b9060005260206000209060040201600001546119b7565b604051602001610e999291906129f9565b604051602081830303815290604052915081604051602001610ebb9190612a63565b60405160208183030381529060405291508160018281548110610ee157610ee06131ad565b5b9060005260206000209060040201600101604051602001610f03929190612a1d565b604051602081830303815290604052915081604051602001610f259190612a41565b60405160208183030381529060405291508080610f41906130a8565b915050610e2a565b508091505090565b60008060009054906101000a900473ffffffffffffffffffffffffffffffffffffffff16905090565b60005b81518110156111ce576000828281518110610f9b57610f9a6131ad565b5b602002602001015190506001805490508110610fec576040517f08c379a0000000000000000000000000000000000000000000000000000000008152600401610fe390612c64565b60405180910390fd5b6002600481111561100057610fff61314f565b5b600060149054906101000a900460ff1660048111156110225761102161314f565b5b14611062576040517f08c379a000000000000000000000000000000000000000000000000000000000815260040161105990612b84565b60405180910390fd5b600061106d3361182c565b90506002805490508114156110b7576040517f08c379a00000000000000000000000000000000000000000000000000000000081526004016110ae90612b04565b60405180910390fd5b6110c182826118e5565b15611101576040517f08c379a00000000000000000000000000000000000000000000000000000000081526004016110f890612ba4565b60405180910390fd5b60035460028281548110611118576111176131ad565b5b9060005260206000209060070201600201805490501061116d576040517f08c379a000000000000000000000000000000000000000000000000000000000815260040161116490612d24565b60405180910390fd5b60028181548110611181576111806131ad565b5b9060005260206000209060070201600201829080600181540180825580915050600190039060005260206000200160009091909190915055505080806111c6906130a8565b915050610f7d565b5050565b6004808111156111e5576111e461314f565b5b600060149054906101000a900460ff1660048111156112075761120661314f565b5b14611247576040517f08c379a000000000000000000000000000000000000000000000000000000000815260040161123e90612b44565b60405180910390fd5b60005b6002805490508110156114d45760006002828154811061126d5761126c6131ad565b5b90600052602060002090600702016040518060e00160405290816000820160009054906101000a900473ffffffffffffffffffffffffffffffffffffffff1673ffffffffffffffffffffffffffffffffffffffff1673ffffffffffffffffffffffffffffffffffffffff1681526020016001820180546112ec90613045565b80601f016020809104026020016040519081016040528092919081815260200182805461131890613045565b80156113655780601f1061133a57610100808354040283529160200191611365565b820191906000526020600020905b81548152906001019060200180831161134857829003601f168201915b50505050508152602001600282018054806020026020016040519081016040528092919081815260200182805480156113bd57602002820191906000526020600020905b8154815260200190600101908083116113a9575b50505050508152602001600382015481526020016004820154815260200160058201548152602001600682015481525050905060005b8160400151518110156114bf576114718260400151828151811061141a576114196131ad565b5b602002602001015183604001518381518110611439576114386131ad565b5b60200260200101518460600151148460400151848151811061145e5761145d6131ad565b5b6020026020010151856080015114611b40565b60028481548110611485576114846131ad565b5b906000526020600020906007020160060160008282546114a59190612e6e565b9250508190555080806114b7906130a8565b9150506113f3565b505080806114cc906130a8565b91505061124a565b506114dd611c42565b60008060146101000a81548160ff021916908360048111156115025761150161314f565b5b0217905550565b6002600481111561151d5761151c61314f565b5b600060149054906101000a900460ff16600481111561153f5761153e61314f565b5b1461157f576040517f08c379a000000000000000000000000000000000000000000000000000000000815260040161157690612c84565b60405180910390fd5b600061158a3361182c565b905060028054905081146115d3576040517f08c379a00000000000000000000000000000000000000000000000000000000081526004016115ca90612b24565b60405180910390fd5b6115db612070565b82816020018190525033816000019073ffffffffffffffffffffffffffffffffffffffff16908173ffffffffffffffffffffffffffffffffffffffff168152505060008160600181815250506001816080018181525050600281908060018154018082558091505060019003906000526020600020906007020160009091909190915060008201518160000160006101000a81548173ffffffffffffffffffffffffffffffffffffffff021916908373ffffffffffffffffffffffffffffffffffffffff16021790555060208201518160010190805190602001906116c1929190611fea565b5060408201518160020190805190602001906116de9291906120c3565b50606082015181600301556080820151816004015560a0820151816005015560c082015181600601555050505050565b826001805490508110611756576040517f08c379a000000000000000000000000000000000000000000000000000000000815260040161174d90612c64565b60405180910390fd5b6003600481111561176a5761176961314f565b5b600060149054906101000a900460ff16600481111561178c5761178b61314f565b5b146117cc576040517f08c379a00000000000000000000000000000000000000000000000000000000081526004016117c390612bc4565b60405180910390fd5b82600185815481106117e1576117e06131ad565b5b906000526020600020906004020160020160000181905550816001858154811061180e5761180d6131ad565b5b90600052602060002090600402016002016001018190555050505050565b600080600090505b6002805490508110156118d6578273ffffffffffffffffffffffffffffffffffffffff166002828154811061186c5761186b6131ad565b5b906000526020600020906007020160000160009054906101000a900473ffffffffffffffffffffffffffffffffffffffff1673ffffffffffffffffffffffffffffffffffffffff1614156118c357809150506118e0565b80806118ce906130a8565b915050611834565b5060028054905090505b919050565b600080600283815481106118fc576118fb6131ad565b5b906000526020600020906007020160020180548060200260200160405190810160405280929190818152602001828054801561195757602002820191906000526020600020905b815481526020019060010190808311611943575b5050505050905060005b81518110156119aa578482828151811061197e5761197d6131ad565b5b60200260200101511415611997576001925050506119b1565b80806119a2906130a8565b915050611961565b5060009150505b92915050565b606060008214156119ff576040518060400160405280600181526020017f30000000000000000000000000000000000000000000000000000000000000008152509050611b3b565b600082905060005b60008214611a31578080611a1a906130a8565b915050600a82611a2a9190612efb565b9150611a07565b60008167ffffffffffffffff811115611a4d57611a4c6131dc565b5b6040519080825280601f01601f191660200182016040528015611a7f5781602001600182028036833780820191505090505b50905060008290505b60008614611b3357600181611a9d9190612f86565b90506000600a8088611aaf9190612efb565b611ab99190612f2c565b87611ac49190612f86565b6030611ad09190612ec4565b905060008160f81b905080848481518110611aee57611aed6131ad565b5b60200101907effffffffffffffffffffffffffffffffffffffffffffffffffffffffffffff1916908160001a905350600a88611b2a9190612efb565b97505050611a88565b819450505050505b919050565b6000828015611b4c5750815b15611b8c576040517f08c379a0000000000000000000000000000000000000000000000000000000008152600401611b8390612b64565b60405180910390fd5b600060055460018681548110611ba557611ba46131ad565b5b906000526020600020906004020160020160010154611bc49190612f2c565b60045460018781548110611bdb57611bda6131ad565b5b906000526020600020906004020160020160000154611bfa9190612f2c565b611c049190612e6e565b90508315611c2057600381611c199190612f2c565b9050611c37565b8215611c3657600281611c339190612f2c565b90505b5b809150509392505050565b60008054906101000a900473ffffffffffffffffffffffffffffffffffffffff1673ffffffffffffffffffffffffffffffffffffffff163373ffffffffffffffffffffffffffffffffffffffff1614611cd0576040517f08c379a0000000000000000000000000000000000000000000000000000000008152600401611cc790612ce4565b60405180910390fd5b60008060005b600280549050811015611d8c5760028181548110611cf757611cf66131ad565b5b90600052602060002090600702016006015460028281548110611d1d57611d1c6131ad565b5b906000526020600020906007020160050154611d399190612f2c565b83611d449190612e6e565b925060028181548110611d5a57611d596131ad565b5b90600052602060002090600702016005015482611d779190612e6e565b91508080611d84906130a8565b915050611cd6565b506000606482600a611d9e9190612f2c565b611da89190612efb565b90508082611db69190612f86565b915060008054906101000a900473ffffffffffffffffffffffffffffffffffffffff1673ffffffffffffffffffffffffffffffffffffffff166108fc829081150290604051600060405180830381858888f19350505050158015611e1e573d6000803e3d6000fd5b5060005b600280549050811015611f7557600080851415611e665760028281548110611e4d57611e4c6131ad565b5b9060005260206000209060070201600501549050611ed5565b848460028481548110611e7c57611e7b6131ad565b5b90600052602060002090600702016006015460028581548110611ea257611ea16131ad565b5b906000526020600020906007020160050154611ebe9190612f2c565b611ec89190612f2c565b611ed29190612efb565b90505b60028281548110611ee957611ee86131ad565b5b906000526020600020906007020160000160009054906101000a900473ffffffffffffffffffffffffffffffffffffffff1673ffffffffffffffffffffffffffffffffffffffff166108fc829081150290604051600060405180830381858888f19350505050158015611f60573d6000803e3d6000fd5b50508080611f6d906130a8565b915050611e22565b50505050565b5080546000825560040290600052602060002090810190611f9c9190612110565b50565b5080546000825560070290600052602060002090810190611fc09190612156565b50565b60405180606001604052806000815260200160608152602001611fe46121d4565b81525090565b828054611ff690613045565b90600052602060002090601f016020900481019282612018576000855561205f565b82601f1061203157805160ff191683800117855561205f565b8280016001018555821561205f579182015b8281111561205e578251825591602001919060010190612043565b5b50905061206c91906121ee565b5090565b6040518060e00160405280600073ffffffffffffffffffffffffffffffffffffffff1681526020016060815260200160608152602001600081526020016000815260200160008152602001600081525090565b8280548282559060005260206000209081019282156120ff579160200282015b828111156120fe5782518255916020019190600101906120e3565b5b50905061210c91906121ee565b5090565b5b8082111561215257600080820160009055600182016000612132919061220b565b600282016000808201600090556001820160009055505050600401612111565b5090565b5b808211156121d057600080820160006101000a81549073ffffffffffffffffffffffffffffffffffffffff0219169055600182016000612197919061220b565b6002820160006121a7919061224b565b600382016000905560048201600090556005820160009055600682016000905550600701612157565b5090565b604051806040016040528060008152602001600081525090565b5b808211156122075760008160009055506001016121ef565b5090565b50805461221790613045565b6000825580601f106122295750612248565b601f01602090049060005260206000209081019061224791906121ee565b5b50565b508054600082559060005260206000209081019061226991906121ee565b50565b600061227f61227a84612da9565b612d84565b905080838252602082019050828560208602820111156122a2576122a1613210565b5b60005b858110156122f057813567ffffffffffffffff8111156122c8576122c761320b565b5b8086016122d58982612408565b855260208501945060208401935050506001810190506122a5565b5050509392505050565b600061230d61230884612dd5565b612d84565b905080838252602082019050828560208602820111156123305761232f613210565b5b60005b8581101561236057816123468882612436565b845260208401935060208301925050600181019050612333565b5050509392505050565b600061237d61237884612e01565b612d84565b90508281526020810184848401111561239957612398613215565b5b6123a4848285613003565b509392505050565b600082601f8301126123c1576123c061320b565b5b81356123d184826020860161226c565b91505092915050565b600082601f8301126123ef576123ee61320b565b5b81356123ff8482602086016122fa565b91505092915050565b600082601f83011261241d5761241c61320b565b5b813561242d84826020860161236a565b91505092915050565b600081359050612445816136cb565b92915050565b6000602082840312156124615761246061321f565b5b600082013567ffffffffffffffff81111561247f5761247e61321a565b5b61248b848285016123ac565b91505092915050565b6000602082840312156124aa576124a961321f565b5b600082013567ffffffffffffffff8111156124c8576124c761321a565b5b6124d4848285016123da565b91505092915050565b6000602082840312156124f3576124f261321f565b5b600082013567ffffffffffffffff8111156125115761251061321a565b5b61251d84828501612408565b91505092915050565b6000806040838503121561253d5761253c61321f565b5b600061254b85828601612436565b925050602061255c85828601612436565b9150509250929050565b60008060006060848603121561257f5761257e61321f565b5b600061258d86828701612436565b935050602061259e86828701612436565b92505060406125af86828701612436565b9150509250925092565b6125c281612fba565b82525050565b60006125d382612e47565b6125dd8185612e52565b93506125ed818560208601613012565b6125f681613224565b840191505092915050565b600061260c82612e47565b6126168185612e63565b9350612626818560208601613012565b80840191505092915050565b6000815461263f81613045565b6126498186612e63565b945060018216600081146126645760018114612675576126a8565b60ff198316865281860193506126a8565b61267e85612e32565b60005b838110156126a057815481890152600182019150602081019050612681565b838801955050505b50505092915050565b60006126be602b83612e52565b91506126c982613235565b604082019050919050565b60006126e1602183612e52565b91506126ec82613284565b604082019050919050565b6000612704602083612e52565b915061270f826132d3565b602082019050919050565b6000612727600183612e63565b9150612732826132fc565b600182019050919050565b600061274a601483612e52565b915061275582613325565b602082019050919050565b600061276d600f83612e63565b91506127788261334e565b600f82019050919050565b6000612790603d83612e52565b915061279b82613377565b604082019050919050565b60006127b3602a83612e52565b91506127be826133c6565b604082019050919050565b60006127d6601a83612e52565b91506127e182613415565b602082019050919050565b60006127f9601c83612e52565b91506128048261343e565b602082019050919050565b600061281c600f83612e52565b915061282782613467565b602082019050919050565b600061283f600b83612e63565b915061284a82613490565b600b82019050919050565b6000612862601b83612e52565b915061286d826134b9565b602082019050919050565b6000612885601883612e52565b9150612890826134e2565b602082019050919050565b60006128a8601683612e52565b91506128b38261350b565b602082019050919050565b60006128cb601583612e52565b91506128d682613534565b602082019050919050565b60006128ee602083612e52565b91506128f98261355d565b602082019050919050565b6000612911601483612e52565b915061291c82613586565b602082019050919050565b6000612934601883612e52565b915061293f826135af565b602082019050919050565b6000612957602283612e52565b9150612962826135d8565b604082019050919050565b600061297a601183612e52565b915061298582613627565b602082019050919050565b600061299d601183612e52565b91506129a882613650565b602082019050919050565b60006129c0601383612e52565b91506129cb82613679565b602082019050919050565b60006129e3600f83612e52565b91506129ee826136a2565b602082019050919050565b6000612a058285612601565b9150612a118284612601565b91508190509392505050565b6000612a298285612601565b9150612a358284612632565b91508190509392505050565b6000612a4d8284612601565b9150612a588261271a565b915081905092915050565b6000612a6f8284612601565b9150612a7a82612760565b915081905092915050565b6000612a918284612601565b9150612a9c82612832565b915081905092915050565b6000602082019050612abc60008301846125b9565b92915050565b60006020820190508181036000830152612adc81846125c8565b905092915050565b60006020820190508181036000830152612afd816126b1565b9050919050565b60006020820190508181036000830152612b1d816126d4565b9050919050565b60006020820190508181036000830152612b3d816126f7565b9050919050565b60006020820190508181036000830152612b5d8161273d565b9050919050565b60006020820190508181036000830152612b7d81612783565b9050919050565b60006020820190508181036000830152612b9d816127a6565b9050919050565b60006020820190508181036000830152612bbd816127c9565b9050919050565b60006020820190508181036000830152612bdd816127ec565b9050919050565b60006020820190508181036000830152612bfd8161280f565b9050919050565b60006020820190508181036000830152612c1d81612855565b9050919050565b60006020820190508181036000830152612c3d81612878565b9050919050565b60006020820190508181036000830152612c5d8161289b565b9050919050565b60006020820190508181036000830152612c7d816128be565b9050919050565b60006020820190508181036000830152612c9d816128e1565b9050919050565b60006020820190508181036000830152612cbd81612904565b9050919050565b60006020820190508181036000830152612cdd81612927565b9050919050565b60006020820190508181036000830152612cfd8161294a565b9050919050565b60006020820190508181036000830152612d1d8161296d565b9050919050565b60006020820190508181036000830152612d3d81612990565b9050919050565b60006020820190508181036000830152612d5d816129b3565b9050919050565b60006020820190508181036000830152612d7d816129d6565b9050919050565b6000612d8e612d9f565b9050612d9a8282613077565b919050565b6000604051905090565b600067ffffffffffffffff821115612dc457612dc36131dc565b5b602082029050602081019050919050565b600067ffffffffffffffff821115612df057612def6131dc565b5b602082029050602081019050919050565b600067ffffffffffffffff821115612e1c57612e1b6131dc565b5b612e2582613224565b9050602081019050919050565b60008190508160005260206000209050919050565b600081519050919050565b600082825260208201905092915050565b600081905092915050565b6000612e7982612fec565b9150612e8483612fec565b9250827fffffffffffffffffffffffffffffffffffffffffffffffffffffffffffffffff03821115612eb957612eb86130f1565b5b828201905092915050565b6000612ecf82612ff6565b9150612eda83612ff6565b92508260ff03821115612ef057612eef6130f1565b5b828201905092915050565b6000612f0682612fec565b9150612f1183612fec565b925082612f2157612f20613120565b5b828204905092915050565b6000612f3782612fec565b9150612f4283612fec565b9250817fffffffffffffffffffffffffffffffffffffffffffffffffffffffffffffffff0483118215151615612f7b57612f7a6130f1565b5b828202905092915050565b6000612f9182612fec565b9150612f9c83612fec565b925082821015612faf57612fae6130f1565b5b828203905092915050565b6000612fc582612fcc565b9050919050565b600073ffffffffffffffffffffffffffffffffffffffff82169050919050565b6000819050919050565b600060ff82169050919050565b82818337600083830152505050565b60005b83811015613030578082015181840152602081019050613015565b8381111561303f576000848401525b50505050565b6000600282049050600182168061305d57607f821691505b602082108114156130715761307061317e565b5b50919050565b61308082613224565b810181811067ffffffffffffffff8211171561309f5761309e6131dc565b5b80604052505050565b60006130b382612fec565b91507fffffffffffffffffffffffffffffffffffffffffffffffffffffffffffffffff8214156130e6576130e56130f1565b5b600182019050919050565b7f4e487b7100000000000000000000000000000000000000000000000000000000600052601160045260246000fd5b7f4e487b7100000000000000000000000000000000000000000000000000000000600052601260045260246000fd5b7f4e487b7100000000000000000000000000000000000000000000000000000000600052602160045260246000fd5b7f4e487b7100000000000000000000000000000000000000000000000000000000600052602260045260246000fd5b7f4e487b7100000000000000000000000000000000000000000000000000000000600052603260045260246000fd5b7f4e487b7100000000000000000000000000000000000000000000000000000000600052604160045260246000fd5b600080fd5b600080fd5b600080fd5b600080fd5b600080fd5b6000601f19601f8301169050919050565b7f43616e277420736574206361707461696e7320666f72207468652066616e746160008201527f7379207465616d206e6f77000000000000000000000000000000000000000000602082015250565b7f5465616d20646f6573206e6f742065786973747320666f72207468652075736560008201527f7200000000000000000000000000000000000000000000000000000000000000602082015250565b7f5465616d20616c72656164792065786973747320666f72207468652075736572600082015250565b7f0a00000000000000000000000000000000000000000000000000000000000000600082015250565b7f47616d6520686173206e6f742073746f70706564000000000000000000000000600082015250565b7f3b20506c61796572204e616d653a200000000000000000000000000000000000600082015250565b7f4120706c617965722063616e206e6f74206265204361707461696e20616e642060008201527f56696365204361707461696e206174207468652073616d652074696d65000000602082015250565b7f506c61796572732063616e277420626520616464656420746f2066616e74617360008201527f79207465616d206e6f7700000000000000000000000000000000000000000000602082015250565b7f506c6179657220616c726561647920696e20746865207465616d000000000000600082015250565b7f43616e27742073657420706c617965722773207374617473206e6f7700000000600082015250565b7f43616e27742062696420616761696e0000000000000000000000000000000000600082015250565b7f506c617965722049443a20000000000000000000000000000000000000000000600082015250565b7f506c61796572732063616e2774206265206c6973746564206e6f770000000000600082015250565b7f426964732063616e277420626520706c61636564206e6f770000000000000000600082015250565b7f56696365204361707461696e206e6f7420616464656400000000000000000000600082015250565b7f506c6179657220646f6573206e6f742065786973740000000000000000000000600082015250565b7f46616e74617379207465616d732063616e2774206265206164646564206e6f77600082015250565b7f43616e27742061646420706c61796572206e6f77000000000000000000000000600082015250565b7f47616d6520616c726561647920696e2070726f67726573730000000000000000600082015250565b7f4d7573742062652061646d696e20746f2075736520746869732066756e63697460008201527f6f6e000000000000000000000000000000000000000000000000000000000000602082015250565b7f4361707461696e206e6f74206164646564000000000000000000000000000000600082015250565b7f5465616d20616c72656164792046756c6c000000000000000000000000000000600082015250565b7f43616e2774206368616e67652073746174757300000000000000000000000000600082015250565b7f5465616d20496e636f6d706c6574650000000000000000000000000000000000600082015250565b6136d481612fec565b81146136df57600080fd5b5056fea26469706673582212209efe22143fbae335fcb5f306273e9634dfca8a776fa69d43cc0d3877883ede5f64736f6c63430008070033",
					"opcodes": "PUSH1 0x80 PUSH1 0x40 MSTORE PUSH1 0x0 DUP1 PUSH1 0x14 PUSH2 0x100 EXP DUP2 SLOAD DUP2 PUSH1 0xFF MUL NOT AND SWAP1 DUP4 PUSH1 0x4 DUP2 GT ISZERO PUSH3 0x2C JUMPI PUSH3 0x2B PUSH3 0x94 JUMP JUMPDEST JUMPDEST MUL OR SWAP1 SSTORE POP PUSH1 0x1 PUSH1 0x3 SSTORE PUSH1 0x1 PUSH1 0x4 SSTORE PUSH1 0x32 PUSH1 0x5 SSTORE CALLVALUE DUP1 ISZERO PUSH3 0x4D JUMPI PUSH1 0x0 DUP1 REVERT JUMPDEST POP CALLER PUSH1 0x0 DUP1 PUSH2 0x100 EXP DUP2 SLOAD DUP2 PUSH20 0xFFFFFFFFFFFFFFFFFFFFFFFFFFFFFFFFFFFFFFFF MUL NOT AND SWAP1 DUP4 PUSH20 0xFFFFFFFFFFFFFFFFFFFFFFFFFFFFFFFFFFFFFFFF AND MUL OR SWAP1 SSTORE POP PUSH3 0xC3 JUMP JUMPDEST PUSH32 0x4E487B7100000000000000000000000000000000000000000000000000000000 PUSH1 0x0 MSTORE PUSH1 0x21 PUSH1 0x4 MSTORE PUSH1 0x24 PUSH1 0x0 REVERT JUMPDEST PUSH2 0x3718 DUP1 PUSH3 0xD3 PUSH1 0x0 CODECOPY PUSH1 0x0 RETURN INVALID PUSH1 0x80 PUSH1 0x40 MSTORE PUSH1 0x4 CALLDATASIZE LT PUSH2 0xC2 JUMPI PUSH1 0x0 CALLDATALOAD PUSH1 0xE0 SHR DUP1 PUSH4 0x4C4501C8 GT PUSH2 0x7F JUMPI DUP1 PUSH4 0x8791C0B4 GT PUSH2 0x59 JUMPI DUP1 PUSH4 0x8791C0B4 EQ PUSH2 0x1E7 JUMPI DUP1 PUSH4 0x8CC80480 EQ PUSH2 0x210 JUMPI DUP1 PUSH4 0x92506FAE EQ PUSH2 0x227 JUMPI DUP1 PUSH4 0xAF5AF0CE EQ PUSH2 0x250 JUMPI PUSH2 0xC2 JUMP JUMPDEST DUP1 PUSH4 0x4C4501C8 EQ PUSH2 0x168 JUMPI DUP1 PUSH4 0x64605D51 EQ PUSH2 0x191 JUMPI DUP1 PUSH4 0x6E9960C3 EQ PUSH2 0x1BC JUMPI PUSH2 0xC2 JUMP JUMPDEST DUP1 PUSH4 0x106ECB0A EQ PUSH2 0xC7 JUMPI DUP1 PUSH4 0x1998AEEF EQ PUSH2 0xF0 JUMPI DUP1 PUSH4 0x219B596B EQ PUSH2 0xFA JUMPI DUP1 PUSH4 0x2C31D085 EQ PUSH2 0x111 JUMPI DUP1 PUSH4 0x2F290BFD EQ PUSH2 0x13A JUMPI DUP1 PUSH4 0x4526E08B EQ PUSH2 0x151 JUMPI JUMPDEST PUSH1 0x0 DUP1 REVERT JUMPDEST CALLVALUE DUP1 ISZERO PUSH2 0xD3 JUMPI PUSH1 0x0 DUP1 REVERT JUMPDEST POP PUSH2 0xEE PUSH1 0x4 DUP1 CALLDATASIZE SUB DUP2 ADD SWAP1 PUSH2 0xE9 SWAP2 SWAP1 PUSH2 0x2526 JUMP JUMPDEST PUSH2 0x279 JUMP JUMPDEST STOP JUMPDEST PUSH2 0xF8 PUSH2 0x4C1 JUMP JUMPDEST STOP JUMPDEST CALLVALUE DUP1 ISZERO PUSH2 0x106 JUMPI PUSH1 0x0 DUP1 REVERT JUMPDEST POP PUSH2 0x10F PUSH2 0x7E3 JUMP JUMPDEST STOP JUMPDEST CALLVALUE DUP1 ISZERO PUSH2 0x11D JUMPI PUSH1 0x0 DUP1 REVERT JUMPDEST POP PUSH2 0x138 PUSH1 0x4 DUP1 CALLDATASIZE SUB DUP2 ADD SWAP1 PUSH2 0x133 SWAP2 SWAP1 PUSH2 0x2566 JUMP JUMPDEST PUSH2 0x914 JUMP JUMPDEST STOP JUMPDEST CALLVALUE DUP1 ISZERO PUSH2 0x146 JUMPI PUSH1 0x0 DUP1 REVERT JUMPDEST POP PUSH2 0x14F PUSH2 0xA79 JUMP JUMPDEST STOP JUMPDEST CALLVALUE DUP1 ISZERO PUSH2 0x15D JUMPI PUSH1 0x0 DUP1 REVERT JUMPDEST POP PUSH2 0x166 PUSH2 0xB1C JUMP JUMPDEST STOP JUMPDEST CALLVALUE DUP1 ISZERO PUSH2 0x174 JUMPI PUSH1 0x0 DUP1 REVERT JUMPDEST POP PUSH2 0x18F PUSH1 0x4 DUP1 CALLDATASIZE SUB DUP2 ADD SWAP1 PUSH2 0x18A SWAP2 SWAP1 PUSH2 0x244B JUMP JUMPDEST PUSH2 0xC4D JUMP JUMPDEST STOP JUMPDEST CALLVALUE DUP1 ISZERO PUSH2 0x19D JUMPI PUSH1 0x0 DUP1 REVERT JUMPDEST POP PUSH2 0x1A6 PUSH2 0xD9B JUMP JUMPDEST PUSH1 0x40 MLOAD PUSH2 0x1B3 SWAP2 SWAP1 PUSH2 0x2AC2 JUMP JUMPDEST PUSH1 0x40 MLOAD DUP1 SWAP2 SUB SWAP1 RETURN JUMPDEST CALLVALUE DUP1 ISZERO PUSH2 0x1C8 JUMPI PUSH1 0x0 DUP1 REVERT JUMPDEST POP PUSH2 0x1D1 PUSH2 0xF51 JUMP JUMPDEST PUSH1 0x40 MLOAD PUSH2 0x1DE SWAP2 SWAP1 PUSH2 0x2AA7 JUMP JUMPDEST PUSH1 0x40 MLOAD DUP1 SWAP2 SUB SWAP1 RETURN JUMPDEST CALLVALUE DUP1 ISZERO PUSH2 0x1F3 JUMPI PUSH1 0x0 DUP1 REVERT JUMPDEST POP PUSH2 0x20E PUSH1 0x4 DUP1 CALLDATASIZE SUB DUP2 ADD SWAP1 PUSH2 0x209 SWAP2 SWAP1 PUSH2 0x2494 JUMP JUMPDEST PUSH2 0xF7A JUMP JUMPDEST STOP JUMPDEST CALLVALUE DUP1 ISZERO PUSH2 0x21C JUMPI PUSH1 0x0 DUP1 REVERT JUMPDEST POP PUSH2 0x225 PUSH2 0x11D2 JUMP JUMPDEST STOP JUMPDEST CALLVALUE DUP1 ISZERO PUSH2 0x233 JUMPI PUSH1 0x0 DUP1 REVERT JUMPDEST POP PUSH2 0x24E PUSH1 0x4 DUP1 CALLDATASIZE SUB DUP2 ADD SWAP1 PUSH2 0x249 SWAP2 SWAP1 PUSH2 0x24DD JUMP JUMPDEST PUSH2 0x1509 JUMP JUMPDEST STOP JUMPDEST CALLVALUE DUP1 ISZERO PUSH2 0x25C JUMPI PUSH1 0x0 DUP1 REVERT JUMPDEST POP PUSH2 0x277 PUSH1 0x4 DUP1 CALLDATASIZE SUB DUP2 ADD SWAP1 PUSH2 0x272 SWAP2 SWAP1 PUSH2 0x2566 JUMP JUMPDEST PUSH2 0x170E JUMP JUMPDEST STOP JUMPDEST DUP2 PUSH1 0x1 DUP1 SLOAD SWAP1 POP DUP2 LT PUSH2 0x2C1 JUMPI PUSH1 0x40 MLOAD PUSH32 0x8C379A000000000000000000000000000000000000000000000000000000000 DUP2 MSTORE PUSH1 0x4 ADD PUSH2 0x2B8 SWAP1 PUSH2 0x2C64 JUMP JUMPDEST PUSH1 0x40 MLOAD DUP1 SWAP2 SUB SWAP1 REVERT JUMPDEST DUP2 PUSH1 0x1 DUP1 SLOAD SWAP1 POP DUP2 LT PUSH2 0x309 JUMPI PUSH1 0x40 MLOAD PUSH32 0x8C379A000000000000000000000000000000000000000000000000000000000 DUP2 MSTORE PUSH1 0x4 ADD PUSH2 0x300 SWAP1 PUSH2 0x2C64 JUMP JUMPDEST PUSH1 0x40 MLOAD DUP1 SWAP2 SUB SWAP1 REVERT JUMPDEST PUSH1 0x2 PUSH1 0x4 DUP2 GT ISZERO PUSH2 0x31D JUMPI PUSH2 0x31C PUSH2 0x314F JUMP JUMPDEST JUMPDEST PUSH1 0x0 PUSH1 0x14 SWAP1 SLOAD SWAP1 PUSH2 0x100 EXP SWAP1 DIV PUSH1 0xFF AND PUSH1 0x4 DUP2 GT ISZERO PUSH2 0x33F JUMPI PUSH2 0x33E PUSH2 0x314F JUMP JUMPDEST JUMPDEST EQ PUSH2 0x37F JUMPI PUSH1 0x40 MLOAD PUSH32 0x8C379A000000000000000000000000000000000000000000000000000000000 DUP2 MSTORE PUSH1 0x4 ADD PUSH2 0x376 SWAP1 PUSH2 0x2AE4 JUMP JUMPDEST PUSH1 0x40 MLOAD DUP1 SWAP2 SUB SWAP1 REVERT JUMPDEST PUSH1 0x0 PUSH2 0x38A CALLER PUSH2 0x182C JUMP JUMPDEST SWAP1 POP PUSH1 0x2 DUP1 SLOAD SWAP1 POP DUP2 EQ ISZERO PUSH2 0x3D4 JUMPI PUSH1 0x40 MLOAD PUSH32 0x8C379A000000000000000000000000000000000000000000000000000000000 DUP2 MSTORE PUSH1 0x4 ADD PUSH2 0x3CB SWAP1 PUSH2 0x2B04 JUMP JUMPDEST PUSH1 0x40 MLOAD DUP1 SWAP2 SUB SWAP1 REVERT JUMPDEST PUSH2 0x3DE DUP6 DUP3 PUSH2 0x18E5 JUMP JUMPDEST PUSH2 0x41D JUMPI PUSH1 0x40 MLOAD PUSH32 0x8C379A000000000000000000000000000000000000000000000000000000000 DUP2 MSTORE PUSH1 0x4 ADD PUSH2 0x414 SWAP1 PUSH2 0x2D04 JUMP JUMPDEST PUSH1 0x40 MLOAD DUP1 SWAP2 SUB SWAP1 REVERT JUMPDEST PUSH2 0x427 DUP5 DUP3 PUSH2 0x18E5 JUMP JUMPDEST PUSH2 0x466 JUMPI PUSH1 0x40 MLOAD PUSH32 0x8C379A000000000000000000000000000000000000000000000000000000000 DUP2 MSTORE PUSH1 0x4 ADD PUSH2 0x45D SWAP1 PUSH2 0x2C44 JUMP JUMPDEST PUSH1 0x40 MLOAD DUP1 SWAP2 SUB SWAP1 REVERT JUMPDEST DUP5 PUSH1 0x2 DUP3 DUP2 SLOAD DUP2 LT PUSH2 0x47B JUMPI PUSH2 0x47A PUSH2 0x31AD JUMP JUMPDEST JUMPDEST SWAP1 PUSH1 0x0 MSTORE PUSH1 0x20 PUSH1 0x0 KECCAK256 SWAP1 PUSH1 0x7 MUL ADD PUSH1 0x3 ADD DUP2 SWAP1 SSTORE POP DUP4 PUSH1 0x2 DUP3 DUP2 SLOAD DUP2 LT PUSH2 0x4A5 JUMPI PUSH2 0x4A4 PUSH2 0x31AD JUMP JUMPDEST JUMPDEST SWAP1 PUSH1 0x0 MSTORE PUSH1 0x20 PUSH1 0x0 KECCAK256 SWAP1 PUSH1 0x7 MUL ADD PUSH1 0x4 ADD DUP2 SWAP1 SSTORE POP POP POP POP POP POP JUMP JUMPDEST PUSH1 0x2 PUSH1 0x4 DUP2 GT ISZERO PUSH2 0x4D5 JUMPI PUSH2 0x4D4 PUSH2 0x314F JUMP JUMPDEST JUMPDEST PUSH1 0x0 PUSH1 0x14 SWAP1 SLOAD SWAP1 PUSH2 0x100 EXP SWAP1 DIV PUSH1 0xFF AND PUSH1 0x4 DUP2 GT ISZERO PUSH2 0x4F7 JUMPI PUSH2 0x4F6 PUSH2 0x314F JUMP JUMPDEST JUMPDEST EQ PUSH2 0x537 JUMPI PUSH1 0x40 MLOAD PUSH32 0x8C379A000000000000000000000000000000000000000000000000000000000 DUP2 MSTORE PUSH1 0x4 ADD PUSH2 0x52E SWAP1 PUSH2 0x2C24 JUMP JUMPDEST PUSH1 0x40 MLOAD DUP1 SWAP2 SUB SWAP1 REVERT JUMPDEST PUSH1 0x0 PUSH2 0x542 CALLER PUSH2 0x182C JUMP JUMPDEST SWAP1 POP PUSH1 0x2 DUP1 SLOAD SWAP1 POP DUP2 EQ ISZERO PUSH2 0x58C JUMPI PUSH1 0x40 MLOAD PUSH32 0x8C379A000000000000000000000000000000000000000000000000000000000 DUP2 MSTORE PUSH1 0x4 ADD PUSH2 0x583 SWAP1 PUSH2 0x2B04 JUMP JUMPDEST PUSH1 0x40 MLOAD DUP1 SWAP2 SUB SWAP1 REVERT JUMPDEST PUSH1 0x0 PUSH1 0x2 DUP3 DUP2 SLOAD DUP2 LT PUSH2 0x5A2 JUMPI PUSH2 0x5A1 PUSH2 0x31AD JUMP JUMPDEST JUMPDEST SWAP1 PUSH1 0x0 MSTORE PUSH1 0x20 PUSH1 0x0 KECCAK256 SWAP1 PUSH1 0x7 MUL ADD PUSH1 0x40 MLOAD DUP1 PUSH1 0xE0 ADD PUSH1 0x40 MSTORE SWAP1 DUP2 PUSH1 0x0 DUP3 ADD PUSH1 0x0 SWAP1 SLOAD SWAP1 PUSH2 0x100 EXP SWAP1 DIV PUSH20 0xFFFFFFFFFFFFFFFFFFFFFFFFFFFFFFFFFFFFFFFF AND PUSH20 0xFFFFFFFFFFFFFFFFFFFFFFFFFFFFFFFFFFFFFFFF AND PUSH20 0xFFFFFFFFFFFFFFFFFFFFFFFFFFFFFFFFFFFFFFFF AND DUP2 MSTORE PUSH1 0x20 ADD PUSH1 0x1 DUP3 ADD DUP1 SLOAD PUSH2 0x621 SWAP1 PUSH2 0x3045 JUMP JUMPDEST DUP1 PUSH1 0x1F ADD PUSH1 0x20 DUP1 SWAP2 DIV MUL PUSH1 0x20 ADD PUSH1 0x40 MLOAD SWAP1 DUP2 ADD PUSH1 0x40 MSTORE DUP1 SWAP3 SWAP2 SWAP1 DUP2 DUP2 MSTORE PUSH1 0x20 ADD DUP3 DUP1 SLOAD PUSH2 0x64D SWAP1 PUSH2 0x3045 JUMP JUMPDEST DUP1 ISZERO PUSH2 0x69A JUMPI DUP1 PUSH1 0x1F LT PUSH2 0x66F JUMPI PUSH2 0x100 DUP1 DUP4 SLOAD DIV MUL DUP4 MSTORE SWAP2 PUSH1 0x20 ADD SWAP2 PUSH2 0x69A JUMP JUMPDEST DUP3 ADD SWAP2 SWAP1 PUSH1 0x0 MSTORE PUSH1 0x20 PUSH1 0x0 KECCAK256 SWAP1 JUMPDEST DUP2 SLOAD DUP2 MSTORE SWAP1 PUSH1 0x1 ADD SWAP1 PUSH1 0x20 ADD DUP1 DUP4 GT PUSH2 0x67D JUMPI DUP3 SWAP1 SUB PUSH1 0x1F AND DUP3 ADD SWAP2 JUMPDEST POP POP POP POP POP DUP2 MSTORE PUSH1 0x20 ADD PUSH1 0x2 DUP3 ADD DUP1 SLOAD DUP1 PUSH1 0x20 MUL PUSH1 0x20 ADD PUSH1 0x40 MLOAD SWAP1 DUP2 ADD PUSH1 0x40 MSTORE DUP1 SWAP3 SWAP2 SWAP1 DUP2 DUP2 MSTORE PUSH1 0x20 ADD DUP3 DUP1 SLOAD DUP1 ISZERO PUSH2 0x6F2 JUMPI PUSH1 0x20 MUL DUP3 ADD SWAP2 SWAP1 PUSH1 0x0 MSTORE PUSH1 0x20 PUSH1 0x0 KECCAK256 SWAP1 JUMPDEST DUP2 SLOAD DUP2 MSTORE PUSH1 0x20 ADD SWAP1 PUSH1 0x1 ADD SWAP1 DUP1 DUP4 GT PUSH2 0x6DE JUMPI JUMPDEST POP POP POP POP POP DUP2 MSTORE PUSH1 0x20 ADD PUSH1 0x3 DUP3 ADD SLOAD DUP2 MSTORE PUSH1 0x20 ADD PUSH1 0x4 DUP3 ADD SLOAD DUP2 MSTORE PUSH1 0x20 ADD PUSH1 0x5 DUP3 ADD SLOAD DUP2 MSTORE PUSH1 0x20 ADD PUSH1 0x6 DUP3 ADD SLOAD DUP2 MSTORE POP POP SWAP1 POP PUSH1 0x3 SLOAD DUP2 PUSH1 0x40 ADD MLOAD MLOAD EQ PUSH2 0x76E JUMPI PUSH1 0x40 MLOAD PUSH32 0x8C379A000000000000000000000000000000000000000000000000000000000 DUP2 MSTORE PUSH1 0x4 ADD PUSH2 0x765 SWAP1 PUSH2 0x2D64 JUMP JUMPDEST PUSH1 0x40 MLOAD DUP1 SWAP2 SUB SWAP1 REVERT JUMPDEST PUSH1 0x0 DUP2 PUSH1 0xA0 ADD MLOAD EQ PUSH2 0x7B5 JUMPI PUSH1 0x40 MLOAD PUSH32 0x8C379A000000000000000000000000000000000000000000000000000000000 DUP2 MSTORE PUSH1 0x4 ADD PUSH2 0x7AC SWAP1 PUSH2 0x2BE4 JUMP JUMPDEST PUSH1 0x40 MLOAD DUP1 SWAP2 SUB SWAP1 REVERT JUMPDEST CALLVALUE PUSH1 0x2 DUP4 DUP2 SLOAD DUP2 LT PUSH2 0x7CA JUMPI PUSH2 0x7C9 PUSH2 0x31AD JUMP JUMPDEST JUMPDEST SWAP1 PUSH1 0x0 MSTORE PUSH1 0x20 PUSH1 0x0 KECCAK256 SWAP1 PUSH1 0x7 MUL ADD PUSH1 0x5 ADD DUP2 SWAP1 SSTORE POP POP POP JUMP JUMPDEST PUSH1 0x0 DUP1 SLOAD SWAP1 PUSH2 0x100 EXP SWAP1 DIV PUSH20 0xFFFFFFFFFFFFFFFFFFFFFFFFFFFFFFFFFFFFFFFF AND PUSH20 0xFFFFFFFFFFFFFFFFFFFFFFFFFFFFFFFFFFFFFFFF AND CALLER PUSH20 0xFFFFFFFFFFFFFFFFFFFFFFFFFFFFFFFFFFFFFFFF AND EQ PUSH2 0x871 JUMPI PUSH1 0x40 MLOAD PUSH32 0x8C379A000000000000000000000000000000000000000000000000000000000 DUP2 MSTORE PUSH1 0x4 ADD PUSH2 0x868 SWAP1 PUSH2 0x2CE4 JUMP JUMPDEST PUSH1 0x40 MLOAD DUP1 SWAP2 SUB SWAP1 REVERT JUMPDEST PUSH1 0x3 PUSH1 0x4 DUP2 GT ISZERO PUSH2 0x885 JUMPI PUSH2 0x884 PUSH2 0x314F JUMP JUMPDEST JUMPDEST PUSH1 0x0 PUSH1 0x14 SWAP1 SLOAD SWAP1 PUSH2 0x100 EXP SWAP1 DIV PUSH1 0xFF AND PUSH1 0x4 DUP2 GT ISZERO PUSH2 0x8A7 JUMPI PUSH2 0x8A6 PUSH2 0x314F JUMP JUMPDEST JUMPDEST EQ PUSH2 0x8E7 JUMPI PUSH1 0x40 MLOAD PUSH32 0x8C379A000000000000000000000000000000000000000000000000000000000 DUP2 MSTORE PUSH1 0x4 ADD PUSH2 0x8DE SWAP1 PUSH2 0x2D44 JUMP JUMPDEST PUSH1 0x40 MLOAD DUP1 SWAP2 SUB SWAP1 REVERT JUMPDEST PUSH1 0x4 PUSH1 0x0 PUSH1 0x14 PUSH2 0x100 EXP DUP2 SLOAD DUP2 PUSH1 0xFF MUL NOT AND SWAP1 DUP4 PUSH1 0x4 DUP2 GT ISZERO PUSH2 0x90D JUMPI PUSH2 0x90C PUSH2 0x314F JUMP JUMPDEST JUMPDEST MUL OR SWAP1 SSTORE POP JUMP JUMPDEST PUSH1 0x0 DUP1 SLOAD SWAP1 PUSH2 0x100 EXP SWAP1 DIV PUSH20 0xFFFFFFFFFFFFFFFFFFFFFFFFFFFFFFFFFFFFFFFF AND PUSH20 0xFFFFFFFFFFFFFFFFFFFFFFFFFFFFFFFFFFFFFFFF AND CALLER PUSH20 0xFFFFFFFFFFFFFFFFFFFFFFFFFFFFFFFFFFFFFFFF AND EQ PUSH2 0x9A2 JUMPI PUSH1 0x40 MLOAD PUSH32 0x8C379A000000000000000000000000000000000000000000000000000000000 DUP2 MSTORE PUSH1 0x4 ADD PUSH2 0x999 SWAP1 PUSH2 0x2CE4 JUMP JUMPDEST PUSH1 0x40 MLOAD DUP1 SWAP2 SUB SWAP1 REVERT JUMPDEST PUSH1 0x0 PUSH1 0x4 DUP2 GT ISZERO PUSH2 0x9B6 JUMPI PUSH2 0x9B5 PUSH2 0x314F JUMP JUMPDEST JUMPDEST PUSH1 0x0 PUSH1 0x14 SWAP1 SLOAD SWAP1 PUSH2 0x100 EXP SWAP1 DIV PUSH1 0xFF AND PUSH1 0x4 DUP2 GT ISZERO PUSH2 0x9D8 JUMPI PUSH2 0x9D7 PUSH2 0x314F JUMP JUMPDEST JUMPDEST EQ PUSH2 0xA18 JUMPI PUSH1 0x40 MLOAD PUSH32 0x8C379A000000000000000000000000000000000000000000000000000000000 DUP2 MSTORE PUSH1 0x4 ADD PUSH2 0xA0F SWAP1 PUSH2 0x2CC4 JUMP JUMPDEST PUSH1 0x40 MLOAD DUP1 SWAP2 SUB SWAP1 REVERT JUMPDEST PUSH1 0x1 PUSH1 0x0 PUSH2 0xA26 SWAP2 SWAP1 PUSH2 0x1F7B JUMP JUMPDEST PUSH1 0x2 PUSH1 0x0 PUSH2 0xA34 SWAP2 SWAP1 PUSH2 0x1F9F JUMP JUMPDEST PUSH1 0x1 PUSH1 0x0 PUSH1 0x14 PUSH2 0x100 EXP DUP2 SLOAD DUP2 PUSH1 0xFF MUL NOT AND SWAP1 DUP4 PUSH1 0x4 DUP2 GT ISZERO PUSH2 0xA5A JUMPI PUSH2 0xA59 PUSH2 0x314F JUMP JUMPDEST JUMPDEST MUL OR SWAP1 SSTORE POP DUP3 PUSH1 0x3 DUP2 SWAP1 SSTORE POP DUP2 PUSH1 0x4 DUP2 SWAP1 SSTORE POP DUP1 PUSH1 0x5 DUP2 SWAP1 SSTORE POP POP POP POP JUMP JUMPDEST PUSH1 0x1 PUSH1 0x4 DUP2 GT ISZERO PUSH2 0xA8D JUMPI PUSH2 0xA8C PUSH2 0x314F JUMP JUMPDEST JUMPDEST PUSH1 0x0 PUSH1 0x14 SWAP1 SLOAD SWAP1 PUSH2 0x100 EXP SWAP1 DIV PUSH1 0xFF AND PUSH1 0x4 DUP2 GT ISZERO PUSH2 0xAAF JUMPI PUSH2 0xAAE PUSH2 0x314F JUMP JUMPDEST JUMPDEST EQ PUSH2 0xAEF JUMPI PUSH1 0x40 MLOAD PUSH32 0x8C379A000000000000000000000000000000000000000000000000000000000 DUP2 MSTORE PUSH1 0x4 ADD PUSH2 0xAE6 SWAP1 PUSH2 0x2D44 JUMP JUMPDEST PUSH1 0x40 MLOAD DUP1 SWAP2 SUB SWAP1 REVERT JUMPDEST PUSH1 0x2 PUSH1 0x0 PUSH1 0x14 PUSH2 0x100 EXP DUP2 SLOAD DUP2 PUSH1 0xFF MUL NOT AND SWAP1 DUP4 PUSH1 0x4 DUP2 GT ISZERO PUSH2 0xB15 JUMPI PUSH2 0xB14 PUSH2 0x314F JUMP JUMPDEST JUMPDEST MUL OR SWAP1 SSTORE POP JUMP JUMPDEST PUSH1 0x0 DUP1 SLOAD SWAP1 PUSH2 0x100 EXP SWAP1 DIV PUSH20 0xFFFFFFFFFFFFFFFFFFFFFFFFFFFFFFFFFFFFFFFF AND PUSH20 0xFFFFFFFFFFFFFFFFFFFFFFFFFFFFFFFFFFFFFFFF AND CALLER PUSH20 0xFFFFFFFFFFFFFFFFFFFFFFFFFFFFFFFFFFFFFFFF AND EQ PUSH2 0xBAA JUMPI PUSH1 0x40 MLOAD PUSH32 0x8C379A000000000000000000000000000000000000000000000000000000000 DUP2 MSTORE PUSH1 0x4 ADD PUSH2 0xBA1 SWAP1 PUSH2 0x2CE4 JUMP JUMPDEST PUSH1 0x40 MLOAD DUP1 SWAP2 SUB SWAP1 REVERT JUMPDEST PUSH1 0x2 PUSH1 0x4 DUP2 GT ISZERO PUSH2 0xBBE JUMPI PUSH2 0xBBD PUSH2 0x314F JUMP JUMPDEST JUMPDEST PUSH1 0x0 PUSH1 0x14 SWAP1 SLOAD SWAP1 PUSH2 0x100 EXP SWAP1 DIV PUSH1 0xFF AND PUSH1 0x4 DUP2 GT ISZERO PUSH2 0xBE0 JUMPI PUSH2 0xBDF PUSH2 0x314F JUMP JUMPDEST JUMPDEST EQ PUSH2 0xC20 JUMPI PUSH1 0x40 MLOAD PUSH32 0x8C379A000000000000000000000000000000000000000000000000000000000 DUP2 MSTORE PUSH1 0x4 ADD PUSH2 0xC17 SWAP1 PUSH2 0x2D44 JUMP JUMPDEST PUSH1 0x40 MLOAD DUP1 SWAP2 SUB SWAP1 REVERT JUMPDEST PUSH1 0x3 PUSH1 0x0 PUSH1 0x14 PUSH2 0x100 EXP DUP2 SLOAD DUP2 PUSH1 0xFF MUL NOT AND SWAP1 DUP4 PUSH1 0x4 DUP2 GT ISZERO PUSH2 0xC46 JUMPI PUSH2 0xC45 PUSH2 0x314F JUMP JUMPDEST JUMPDEST MUL OR SWAP1 SSTORE POP JUMP JUMPDEST PUSH1 0x1 PUSH1 0x4 DUP2 GT ISZERO PUSH2 0xC61 JUMPI PUSH2 0xC60 PUSH2 0x314F JUMP JUMPDEST JUMPDEST PUSH1 0x0 PUSH1 0x14 SWAP1 SLOAD SWAP1 PUSH2 0x100 EXP SWAP1 DIV PUSH1 0xFF AND PUSH1 0x4 DUP2 GT ISZERO PUSH2 0xC83 JUMPI PUSH2 0xC82 PUSH2 0x314F JUMP JUMPDEST JUMPDEST EQ PUSH2 0xCC3 JUMPI PUSH1 0x40 MLOAD PUSH32 0x8C379A000000000000000000000000000000000000000000000000000000000 DUP2 MSTORE PUSH1 0x4 ADD PUSH2 0xCBA SWAP1 PUSH2 0x2CA4 JUMP JUMPDEST PUSH1 0x40 MLOAD DUP1 SWAP2 SUB SWAP1 REVERT JUMPDEST PUSH1 0x0 JUMPDEST DUP2 MLOAD DUP2 LT ISZERO PUSH2 0xD97 JUMPI PUSH1 0x0 DUP3 DUP3 DUP2 MLOAD DUP2 LT PUSH2 0xCE4 JUMPI PUSH2 0xCE3 PUSH2 0x31AD JUMP JUMPDEST JUMPDEST PUSH1 0x20 MUL PUSH1 0x20 ADD ADD MLOAD SWAP1 POP PUSH2 0xCF6 PUSH2 0x1FC3 JUMP JUMPDEST DUP2 DUP2 PUSH1 0x20 ADD DUP2 SWAP1 MSTORE POP PUSH1 0x1 DUP1 SLOAD SWAP1 POP DUP2 PUSH1 0x0 ADD DUP2 DUP2 MSTORE POP POP PUSH1 0x1 DUP2 SWAP1 DUP1 PUSH1 0x1 DUP2 SLOAD ADD DUP1 DUP3 SSTORE DUP1 SWAP2 POP POP PUSH1 0x1 SWAP1 SUB SWAP1 PUSH1 0x0 MSTORE PUSH1 0x20 PUSH1 0x0 KECCAK256 SWAP1 PUSH1 0x4 MUL ADD PUSH1 0x0 SWAP1 SWAP2 SWAP1 SWAP2 SWAP1 SWAP2 POP PUSH1 0x0 DUP3 ADD MLOAD DUP2 PUSH1 0x0 ADD SSTORE PUSH1 0x20 DUP3 ADD MLOAD DUP2 PUSH1 0x1 ADD SWAP1 DUP1 MLOAD SWAP1 PUSH1 0x20 ADD SWAP1 PUSH2 0xD60 SWAP3 SWAP2 SWAP1 PUSH2 0x1FEA JUMP JUMPDEST POP PUSH1 0x40 DUP3 ADD MLOAD DUP2 PUSH1 0x2 ADD PUSH1 0x0 DUP3 ADD MLOAD DUP2 PUSH1 0x0 ADD SSTORE PUSH1 0x20 DUP3 ADD MLOAD DUP2 PUSH1 0x1 ADD SSTORE POP POP POP POP POP POP DUP1 DUP1 PUSH2 0xD8F SWAP1 PUSH2 0x30A8 JUMP JUMPDEST SWAP2 POP POP PUSH2 0xCC6 JUMP JUMPDEST POP POP JUMP JUMPDEST PUSH1 0x60 PUSH1 0x2 PUSH1 0x4 DUP2 GT ISZERO PUSH2 0xDB1 JUMPI PUSH2 0xDB0 PUSH2 0x314F JUMP JUMPDEST JUMPDEST PUSH1 0x0 PUSH1 0x14 SWAP1 SLOAD SWAP1 PUSH2 0x100 EXP SWAP1 DIV PUSH1 0xFF AND PUSH1 0x4 DUP2 GT ISZERO PUSH2 0xDD3 JUMPI PUSH2 0xDD2 PUSH2 0x314F JUMP JUMPDEST JUMPDEST EQ PUSH2 0xE13 JUMPI PUSH1 0x40 MLOAD PUSH32 0x8C379A000000000000000000000000000000000000000000000000000000000 DUP2 MSTORE PUSH1 0x4 ADD PUSH2 0xE0A SWAP1 PUSH2 0x2C04 JUMP JUMPDEST PUSH1 0x40 MLOAD DUP1 SWAP2 SUB SWAP1 REVERT JUMPDEST PUSH1 0x0 PUSH1 0x40 MLOAD DUP1 PUSH1 0x20 ADD PUSH1 0x40 MSTORE DUP1 PUSH1 0x0 DUP2 MSTORE POP SWAP1 POP PUSH1 0x0 JUMPDEST PUSH1 0x1 DUP1 SLOAD SWAP1 POP DUP2 LT ISZERO PUSH2 0xF49 JUMPI DUP2 PUSH1 0x40 MLOAD PUSH1 0x20 ADD PUSH2 0xE48 SWAP2 SWAP1 PUSH2 0x2A85 JUMP JUMPDEST PUSH1 0x40 MLOAD PUSH1 0x20 DUP2 DUP4 SUB SUB DUP2 MSTORE SWAP1 PUSH1 0x40 MSTORE SWAP2 POP DUP2 PUSH2 0xE88 PUSH1 0x1 DUP4 DUP2 SLOAD DUP2 LT PUSH2 0xE71 JUMPI PUSH2 0xE70 PUSH2 0x31AD JUMP JUMPDEST JUMPDEST SWAP1 PUSH1 0x0 MSTORE PUSH1 0x20 PUSH1 0x0 KECCAK256 SWAP1 PUSH1 0x4 MUL ADD PUSH1 0x0 ADD SLOAD PUSH2 0x19B7 JUMP JUMPDEST PUSH1 0x40 MLOAD PUSH1 0x20 ADD PUSH2 0xE99 SWAP3 SWAP2 SWAP1 PUSH2 0x29F9 JUMP JUMPDEST PUSH1 0x40 MLOAD PUSH1 0x20 DUP2 DUP4 SUB SUB DUP2 MSTORE SWAP1 PUSH1 0x40 MSTORE SWAP2 POP DUP2 PUSH1 0x40 MLOAD PUSH1 0x20 ADD PUSH2 0xEBB SWAP2 SWAP1 PUSH2 0x2A63 JUMP JUMPDEST PUSH1 0x40 MLOAD PUSH1 0x20 DUP2 DUP4 SUB SUB DUP2 MSTORE SWAP1 PUSH1 0x40 MSTORE SWAP2 POP DUP2 PUSH1 0x1 DUP3 DUP2 SLOAD DUP2 LT PUSH2 0xEE1 JUMPI PUSH2 0xEE0 PUSH2 0x31AD JUMP JUMPDEST JUMPDEST SWAP1 PUSH1 0x0 MSTORE PUSH1 0x20 PUSH1 0x0 KECCAK256 SWAP1 PUSH1 0x4 MUL ADD PUSH1 0x1 ADD PUSH1 0x40 MLOAD PUSH1 0x20 ADD PUSH2 0xF03 SWAP3 SWAP2 SWAP1 PUSH2 0x2A1D JUMP JUMPDEST PUSH1 0x40 MLOAD PUSH1 0x20 DUP2 DUP4 SUB SUB DUP2 MSTORE SWAP1 PUSH1 0x40 MSTORE SWAP2 POP DUP2 PUSH1 0x40 MLOAD PUSH1 0x20 ADD PUSH2 0xF25 SWAP2 SWAP1 PUSH2 0x2A41 JUMP JUMPDEST PUSH1 0x40 MLOAD PUSH1 0x20 DUP2 DUP4 SUB SUB DUP2 MSTORE SWAP1 PUSH1 0x40 MSTORE SWAP2 POP DUP1 DUP1 PUSH2 0xF41 SWAP1 PUSH2 0x30A8 JUMP JUMPDEST SWAP2 POP POP PUSH2 0xE2A JUMP JUMPDEST POP DUP1 SWAP2 POP POP SWAP1 JUMP JUMPDEST PUSH1 0x0 DUP1 PUSH1 0x0 SWAP1 SLOAD SWAP1 PUSH2 0x100 EXP SWAP1 DIV PUSH20 0xFFFFFFFFFFFFFFFFFFFFFFFFFFFFFFFFFFFFFFFF AND SWAP1 POP SWAP1 JUMP JUMPDEST PUSH1 0x0 JUMPDEST DUP2 MLOAD DUP2 LT ISZERO PUSH2 0x11CE JUMPI PUSH1 0x0 DUP3 DUP3 DUP2 MLOAD DUP2 LT PUSH2 0xF9B JUMPI PUSH2 0xF9A PUSH2 0x31AD JUMP JUMPDEST JUMPDEST PUSH1 0x20 MUL PUSH1 0x20 ADD ADD MLOAD SWAP1 POP PUSH1 0x1 DUP1 SLOAD SWAP1 POP DUP2 LT PUSH2 0xFEC JUMPI PUSH1 0x40 MLOAD PUSH32 0x8C379A000000000000000000000000000000000000000000000000000000000 DUP2 MSTORE PUSH1 0x4 ADD PUSH2 0xFE3 SWAP1 PUSH2 0x2C64 JUMP JUMPDEST PUSH1 0x40 MLOAD DUP1 SWAP2 SUB SWAP1 REVERT JUMPDEST PUSH1 0x2 PUSH1 0x4 DUP2 GT ISZERO PUSH2 0x1000 JUMPI PUSH2 0xFFF PUSH2 0x314F JUMP JUMPDEST JUMPDEST PUSH1 0x0 PUSH1 0x14 SWAP1 SLOAD SWAP1 PUSH2 0x100 EXP SWAP1 DIV PUSH1 0xFF AND PUSH1 0x4 DUP2 GT ISZERO PUSH2 0x1022 JUMPI PUSH2 0x1021 PUSH2 0x314F JUMP JUMPDEST JUMPDEST EQ PUSH2 0x1062 JUMPI PUSH1 0x40 MLOAD PUSH32 0x8C379A000000000000000000000000000000000000000000000000000000000 DUP2 MSTORE PUSH1 0x4 ADD PUSH2 0x1059 SWAP1 PUSH2 0x2B84 JUMP JUMPDEST PUSH1 0x40 MLOAD DUP1 SWAP2 SUB SWAP1 REVERT JUMPDEST PUSH1 0x0 PUSH2 0x106D CALLER PUSH2 0x182C JUMP JUMPDEST SWAP1 POP PUSH1 0x2 DUP1 SLOAD SWAP1 POP DUP2 EQ ISZERO PUSH2 0x10B7 JUMPI PUSH1 0x40 MLOAD PUSH32 0x8C379A000000000000000000000000000000000000000000000000000000000 DUP2 MSTORE PUSH1 0x4 ADD PUSH2 0x10AE SWAP1 PUSH2 0x2B04 JUMP JUMPDEST PUSH1 0x40 MLOAD DUP1 SWAP2 SUB SWAP1 REVERT JUMPDEST PUSH2 0x10C1 DUP3 DUP3 PUSH2 0x18E5 JUMP JUMPDEST ISZERO PUSH2 0x1101 JUMPI PUSH1 0x40 MLOAD PUSH32 0x8C379A000000000000000000000000000000000000000000000000000000000 DUP2 MSTORE PUSH1 0x4 ADD PUSH2 0x10F8 SWAP1 PUSH2 0x2BA4 JUMP JUMPDEST PUSH1 0x40 MLOAD DUP1 SWAP2 SUB SWAP1 REVERT JUMPDEST PUSH1 0x3 SLOAD PUSH1 0x2 DUP3 DUP2 SLOAD DUP2 LT PUSH2 0x1118 JUMPI PUSH2 0x1117 PUSH2 0x31AD JUMP JUMPDEST JUMPDEST SWAP1 PUSH1 0x0 MSTORE PUSH1 0x20 PUSH1 0x0 KECCAK256 SWAP1 PUSH1 0x7 MUL ADD PUSH1 0x2 ADD DUP1 SLOAD SWAP1 POP LT PUSH2 0x116D JUMPI PUSH1 0x40 MLOAD PUSH32 0x8C379A000000000000000000000000000000000000000000000000000000000 DUP2 MSTORE PUSH1 0x4 ADD PUSH2 0x1164 SWAP1 PUSH2 0x2D24 JUMP JUMPDEST PUSH1 0x40 MLOAD DUP1 SWAP2 SUB SWAP1 REVERT JUMPDEST PUSH1 0x2 DUP2 DUP2 SLOAD DUP2 LT PUSH2 0x1181 JUMPI PUSH2 0x1180 PUSH2 0x31AD JUMP JUMPDEST JUMPDEST SWAP1 PUSH1 0x0 MSTORE PUSH1 0x20 PUSH1 0x0 KECCAK256 SWAP1 PUSH1 0x7 MUL ADD PUSH1 0x2 ADD DUP3 SWAP1 DUP1 PUSH1 0x1 DUP2 SLOAD ADD DUP1 DUP3 SSTORE DUP1 SWAP2 POP POP PUSH1 0x1 SWAP1 SUB SWAP1 PUSH1 0x0 MSTORE PUSH1 0x20 PUSH1 0x0 KECCAK256 ADD PUSH1 0x0 SWAP1 SWAP2 SWAP1 SWAP2 SWAP1 SWAP2 POP SSTORE POP POP DUP1 DUP1 PUSH2 0x11C6 SWAP1 PUSH2 0x30A8 JUMP JUMPDEST SWAP2 POP POP PUSH2 0xF7D JUMP JUMPDEST POP POP JUMP JUMPDEST PUSH1 0x4 DUP1 DUP2 GT ISZERO PUSH2 0x11E5 JUMPI PUSH2 0x11E4 PUSH2 0x314F JUMP JUMPDEST JUMPDEST PUSH1 0x0 PUSH1 0x14 SWAP1 SLOAD SWAP1 PUSH2 0x100 EXP SWAP1 DIV PUSH1 0xFF AND PUSH1 0x4 DUP2 GT ISZERO PUSH2 0x1207 JUMPI PUSH2 0x1206 PUSH2 0x314F JUMP JUMPDEST JUMPDEST EQ PUSH2 0x1247 JUMPI PUSH1 0x40 MLOAD PUSH32 0x8C379A000000000000000000000000000000000000000000000000000000000 DUP2 MSTORE PUSH1 0x4 ADD PUSH2 0x123E SWAP1 PUSH2 0x2B44 JUMP JUMPDEST PUSH1 0x40 MLOAD DUP1 SWAP2 SUB SWAP1 REVERT JUMPDEST PUSH1 0x0 JUMPDEST PUSH1 0x2 DUP1 SLOAD SWAP1 POP DUP2 LT ISZERO PUSH2 0x14D4 JUMPI PUSH1 0x0 PUSH1 0x2 DUP3 DUP2 SLOAD DUP2 LT PUSH2 0x126D JUMPI PUSH2 0x126C PUSH2 0x31AD JUMP JUMPDEST JUMPDEST SWAP1 PUSH1 0x0 MSTORE PUSH1 0x20 PUSH1 0x0 KECCAK256 SWAP1 PUSH1 0x7 MUL ADD PUSH1 0x40 MLOAD DUP1 PUSH1 0xE0 ADD PUSH1 0x40 MSTORE SWAP1 DUP2 PUSH1 0x0 DUP3 ADD PUSH1 0x0 SWAP1 SLOAD SWAP1 PUSH2 0x100 EXP SWAP1 DIV PUSH20 0xFFFFFFFFFFFFFFFFFFFFFFFFFFFFFFFFFFFFFFFF AND PUSH20 0xFFFFFFFFFFFFFFFFFFFFFFFFFFFFFFFFFFFFFFFF AND PUSH20 0xFFFFFFFFFFFFFFFFFFFFFFFFFFFFFFFFFFFFFFFF AND DUP2 MSTORE PUSH1 0x20 ADD PUSH1 0x1 DUP3 ADD DUP1 SLOAD PUSH2 0x12EC SWAP1 PUSH2 0x3045 JUMP JUMPDEST DUP1 PUSH1 0x1F ADD PUSH1 0x20 DUP1 SWAP2 DIV MUL PUSH1 0x20 ADD PUSH1 0x40 MLOAD SWAP1 DUP2 ADD PUSH1 0x40 MSTORE DUP1 SWAP3 SWAP2 SWAP1 DUP2 DUP2 MSTORE PUSH1 0x20 ADD DUP3 DUP1 SLOAD PUSH2 0x1318 SWAP1 PUSH2 0x3045 JUMP JUMPDEST DUP1 ISZERO PUSH2 0x1365 JUMPI DUP1 PUSH1 0x1F LT PUSH2 0x133A JUMPI PUSH2 0x100 DUP1 DUP4 SLOAD DIV MUL DUP4 MSTORE SWAP2 PUSH1 0x20 ADD SWAP2 PUSH2 0x1365 JUMP JUMPDEST DUP3 ADD SWAP2 SWAP1 PUSH1 0x0 MSTORE PUSH1 0x20 PUSH1 0x0 KECCAK256 SWAP1 JUMPDEST DUP2 SLOAD DUP2 MSTORE SWAP1 PUSH1 0x1 ADD SWAP1 PUSH1 0x20 ADD DUP1 DUP4 GT PUSH2 0x1348 JUMPI DUP3 SWAP1 SUB PUSH1 0x1F AND DUP3 ADD SWAP2 JUMPDEST POP POP POP POP POP DUP2 MSTORE PUSH1 0x20 ADD PUSH1 0x2 DUP3 ADD DUP1 SLOAD DUP1 PUSH1 0x20 MUL PUSH1 0x20 ADD PUSH1 0x40 MLOAD SWAP1 DUP2 ADD PUSH1 0x40 MSTORE DUP1 SWAP3 SWAP2 SWAP1 DUP2 DUP2 MSTORE PUSH1 0x20 ADD DUP3 DUP1 SLOAD DUP1 ISZERO PUSH2 0x13BD JUMPI PUSH1 0x20 MUL DUP3 ADD SWAP2 SWAP1 PUSH1 0x0 MSTORE PUSH1 0x20 PUSH1 0x0 KECCAK256 SWAP1 JUMPDEST DUP2 SLOAD DUP2 MSTORE PUSH1 0x20 ADD SWAP1 PUSH1 0x1 ADD SWAP1 DUP1 DUP4 GT PUSH2 0x13A9 JUMPI JUMPDEST POP POP POP POP POP DUP2 MSTORE PUSH1 0x20 ADD PUSH1 0x3 DUP3 ADD SLOAD DUP2 MSTORE PUSH1 0x20 ADD PUSH1 0x4 DUP3 ADD SLOAD DUP2 MSTORE PUSH1 0x20 ADD PUSH1 0x5 DUP3 ADD SLOAD DUP2 MSTORE PUSH1 0x20 ADD PUSH1 0x6 DUP3 ADD SLOAD DUP2 MSTORE POP POP SWAP1 POP PUSH1 0x0 JUMPDEST DUP2 PUSH1 0x40 ADD MLOAD MLOAD DUP2 LT ISZERO PUSH2 0x14BF JUMPI PUSH2 0x1471 DUP3 PUSH1 0x40 ADD MLOAD DUP3 DUP2 MLOAD DUP2 LT PUSH2 0x141A JUMPI PUSH2 0x1419 PUSH2 0x31AD JUMP JUMPDEST JUMPDEST PUSH1 0x20 MUL PUSH1 0x20 ADD ADD MLOAD DUP4 PUSH1 0x40 ADD MLOAD DUP4 DUP2 MLOAD DUP2 LT PUSH2 0x1439 JUMPI PUSH2 0x1438 PUSH2 0x31AD JUMP JUMPDEST JUMPDEST PUSH1 0x20 MUL PUSH1 0x20 ADD ADD MLOAD DUP5 PUSH1 0x60 ADD MLOAD EQ DUP5 PUSH1 0x40 ADD MLOAD DUP5 DUP2 MLOAD DUP2 LT PUSH2 0x145E JUMPI PUSH2 0x145D PUSH2 0x31AD JUMP JUMPDEST JUMPDEST PUSH1 0x20 MUL PUSH1 0x20 ADD ADD MLOAD DUP6 PUSH1 0x80 ADD MLOAD EQ PUSH2 0x1B40 JUMP JUMPDEST PUSH1 0x2 DUP5 DUP2 SLOAD DUP2 LT PUSH2 0x1485 JUMPI PUSH2 0x1484 PUSH2 0x31AD JUMP JUMPDEST JUMPDEST SWAP1 PUSH1 0x0 MSTORE PUSH1 0x20 PUSH1 0x0 KECCAK256 SWAP1 PUSH1 0x7 MUL ADD PUSH1 0x6 ADD PUSH1 0x0 DUP3 DUP3 SLOAD PUSH2 0x14A5 SWAP2 SWAP1 PUSH2 0x2E6E JUMP JUMPDEST SWAP3 POP POP DUP2 SWAP1 SSTORE POP DUP1 DUP1 PUSH2 0x14B7 SWAP1 PUSH2 0x30A8 JUMP JUMPDEST SWAP2 POP POP PUSH2 0x13F3 JUMP JUMPDEST POP POP DUP1 DUP1 PUSH2 0x14CC SWAP1 PUSH2 0x30A8 JUMP JUMPDEST SWAP2 POP POP PUSH2 0x124A JUMP JUMPDEST POP PUSH2 0x14DD PUSH2 0x1C42 JUMP JUMPDEST PUSH1 0x0 DUP1 PUSH1 0x14 PUSH2 0x100 EXP DUP2 SLOAD DUP2 PUSH1 0xFF MUL NOT AND SWAP1 DUP4 PUSH1 0x4 DUP2 GT ISZERO PUSH2 0x1502 JUMPI PUSH2 0x1501 PUSH2 0x314F JUMP JUMPDEST JUMPDEST MUL OR SWAP1 SSTORE POP JUMP JUMPDEST PUSH1 0x2 PUSH1 0x4 DUP2 GT ISZERO PUSH2 0x151D JUMPI PUSH2 0x151C PUSH2 0x314F JUMP JUMPDEST JUMPDEST PUSH1 0x0 PUSH1 0x14 SWAP1 SLOAD SWAP1 PUSH2 0x100 EXP SWAP1 DIV PUSH1 0xFF AND PUSH1 0x4 DUP2 GT ISZERO PUSH2 0x153F JUMPI PUSH2 0x153E PUSH2 0x314F JUMP JUMPDEST JUMPDEST EQ PUSH2 0x157F JUMPI PUSH1 0x40 MLOAD PUSH32 0x8C379A000000000000000000000000000000000000000000000000000000000 DUP2 MSTORE PUSH1 0x4 ADD PUSH2 0x1576 SWAP1 PUSH2 0x2C84 JUMP JUMPDEST PUSH1 0x40 MLOAD DUP1 SWAP2 SUB SWAP1 REVERT JUMPDEST PUSH1 0x0 PUSH2 0x158A CALLER PUSH2 0x182C JUMP JUMPDEST SWAP1 POP PUSH1 0x2 DUP1 SLOAD SWAP1 POP DUP2 EQ PUSH2 0x15D3 JUMPI PUSH1 0x40 MLOAD PUSH32 0x8C379A000000000000000000000000000000000000000000000000000000000 DUP2 MSTORE PUSH1 0x4 ADD PUSH2 0x15CA SWAP1 PUSH2 0x2B24 JUMP JUMPDEST PUSH1 0x40 MLOAD DUP1 SWAP2 SUB SWAP1 REVERT JUMPDEST PUSH2 0x15DB PUSH2 0x2070 JUMP JUMPDEST DUP3 DUP2 PUSH1 0x20 ADD DUP2 SWAP1 MSTORE POP CALLER DUP2 PUSH1 0x0 ADD SWAP1 PUSH20 0xFFFFFFFFFFFFFFFFFFFFFFFFFFFFFFFFFFFFFFFF AND SWAP1 DUP2 PUSH20 0xFFFFFFFFFFFFFFFFFFFFFFFFFFFFFFFFFFFFFFFF AND DUP2 MSTORE POP POP PUSH1 0x0 DUP2 PUSH1 0x60 ADD DUP2 DUP2 MSTORE POP POP PUSH1 0x1 DUP2 PUSH1 0x80 ADD DUP2 DUP2 MSTORE POP POP PUSH1 0x2 DUP2 SWAP1 DUP1 PUSH1 0x1 DUP2 SLOAD ADD DUP1 DUP3 SSTORE DUP1 SWAP2 POP POP PUSH1 0x1 SWAP1 SUB SWAP1 PUSH1 0x0 MSTORE PUSH1 0x20 PUSH1 0x0 KECCAK256 SWAP1 PUSH1 0x7 MUL ADD PUSH1 0x0 SWAP1 SWAP2 SWAP1 SWAP2 SWAP1 SWAP2 POP PUSH1 0x0 DUP3 ADD MLOAD DUP2 PUSH1 0x0 ADD PUSH1 0x0 PUSH2 0x100 EXP DUP2 SLOAD DUP2 PUSH20 0xFFFFFFFFFFFFFFFFFFFFFFFFFFFFFFFFFFFFFFFF MUL NOT AND SWAP1 DUP4 PUSH20 0xFFFFFFFFFFFFFFFFFFFFFFFFFFFFFFFFFFFFFFFF AND MUL OR SWAP1 SSTORE POP PUSH1 0x20 DUP3 ADD MLOAD DUP2 PUSH1 0x1 ADD SWAP1 DUP1 MLOAD SWAP1 PUSH1 0x20 ADD SWAP1 PUSH2 0x16C1 SWAP3 SWAP2 SWAP1 PUSH2 0x1FEA JUMP JUMPDEST POP PUSH1 0x40 DUP3 ADD MLOAD DUP2 PUSH1 0x2 ADD SWAP1 DUP1 MLOAD SWAP1 PUSH1 0x20 ADD SWAP1 PUSH2 0x16DE SWAP3 SWAP2 SWAP1 PUSH2 0x20C3 JUMP JUMPDEST POP PUSH1 0x60 DUP3 ADD MLOAD DUP2 PUSH1 0x3 ADD SSTORE PUSH1 0x80 DUP3 ADD MLOAD DUP2 PUSH1 0x4 ADD SSTORE PUSH1 0xA0 DUP3 ADD MLOAD DUP2 PUSH1 0x5 ADD SSTORE PUSH1 0xC0 DUP3 ADD MLOAD DUP2 PUSH1 0x6 ADD SSTORE POP POP POP POP POP JUMP JUMPDEST DUP3 PUSH1 0x1 DUP1 SLOAD SWAP1 POP DUP2 LT PUSH2 0x1756 JUMPI PUSH1 0x40 MLOAD PUSH32 0x8C379A000000000000000000000000000000000000000000000000000000000 DUP2 MSTORE PUSH1 0x4 ADD PUSH2 0x174D SWAP1 PUSH2 0x2C64 JUMP JUMPDEST PUSH1 0x40 MLOAD DUP1 SWAP2 SUB SWAP1 REVERT JUMPDEST PUSH1 0x3 PUSH1 0x4 DUP2 GT ISZERO PUSH2 0x176A JUMPI PUSH2 0x1769 PUSH2 0x314F JUMP JUMPDEST JUMPDEST PUSH1 0x0 PUSH1 0x14 SWAP1 SLOAD SWAP1 PUSH2 0x100 EXP SWAP1 DIV PUSH1 0xFF AND PUSH1 0x4 DUP2 GT ISZERO PUSH2 0x178C JUMPI PUSH2 0x178B PUSH2 0x314F JUMP JUMPDEST JUMPDEST EQ PUSH2 0x17CC JUMPI PUSH1 0x40 MLOAD PUSH32 0x8C379A000000000000000000000000000000000000000000000000000000000 DUP2 MSTORE PUSH1 0x4 ADD PUSH2 0x17C3 SWAP1 PUSH2 0x2BC4 JUMP JUMPDEST PUSH1 0x40 MLOAD DUP1 SWAP2 SUB SWAP1 REVERT JUMPDEST DUP3 PUSH1 0x1 DUP6 DUP2 SLOAD DUP2 LT PUSH2 0x17E1 JUMPI PUSH2 0x17E0 PUSH2 0x31AD JUMP JUMPDEST JUMPDEST SWAP1 PUSH1 0x0 MSTORE PUSH1 0x20 PUSH1 0x0 KECCAK256 SWAP1 PUSH1 0x4 MUL ADD PUSH1 0x2 ADD PUSH1 0x0 ADD DUP2 SWAP1 SSTORE POP DUP2 PUSH1 0x1 DUP6 DUP2 SLOAD DUP2 LT PUSH2 0x180E JUMPI PUSH2 0x180D PUSH2 0x31AD JUMP JUMPDEST JUMPDEST SWAP1 PUSH1 0x0 MSTORE PUSH1 0x20 PUSH1 0x0 KECCAK256 SWAP1 PUSH1 0x4 MUL ADD PUSH1 0x2 ADD PUSH1 0x1 ADD DUP2 SWAP1 SSTORE POP POP POP POP POP JUMP JUMPDEST PUSH1 0x0 DUP1 PUSH1 0x0 SWAP1 POP JUMPDEST PUSH1 0x2 DUP1 SLOAD SWAP1 POP DUP2 LT ISZERO PUSH2 0x18D6 JUMPI DUP3 PUSH20 0xFFFFFFFFFFFFFFFFFFFFFFFFFFFFFFFFFFFFFFFF AND PUSH1 0x2 DUP3 DUP2 SLOAD DUP2 LT PUSH2 0x186C JUMPI PUSH2 0x186B PUSH2 0x31AD JUMP JUMPDEST JUMPDEST SWAP1 PUSH1 0x0 MSTORE PUSH1 0x20 PUSH1 0x0 KECCAK256 SWAP1 PUSH1 0x7 MUL ADD PUSH1 0x0 ADD PUSH1 0x0 SWAP1 SLOAD SWAP1 PUSH2 0x100 EXP SWAP1 DIV PUSH20 0xFFFFFFFFFFFFFFFFFFFFFFFFFFFFFFFFFFFFFFFF AND PUSH20 0xFFFFFFFFFFFFFFFFFFFFFFFFFFFFFFFFFFFFFFFF AND EQ ISZERO PUSH2 0x18C3 JUMPI DUP1 SWAP2 POP POP PUSH2 0x18E0 JUMP JUMPDEST DUP1 DUP1 PUSH2 0x18CE SWAP1 PUSH2 0x30A8 JUMP JUMPDEST SWAP2 POP POP PUSH2 0x1834 JUMP JUMPDEST POP PUSH1 0x2 DUP1 SLOAD SWAP1 POP SWAP1 POP JUMPDEST SWAP2 SWAP1 POP JUMP JUMPDEST PUSH1 0x0 DUP1 PUSH1 0x2 DUP4 DUP2 SLOAD DUP2 LT PUSH2 0x18FC JUMPI PUSH2 0x18FB PUSH2 0x31AD JUMP JUMPDEST JUMPDEST SWAP1 PUSH1 0x0 MSTORE PUSH1 0x20 PUSH1 0x0 KECCAK256 SWAP1 PUSH1 0x7 MUL ADD PUSH1 0x2 ADD DUP1 SLOAD DUP1 PUSH1 0x20 MUL PUSH1 0x20 ADD PUSH1 0x40 MLOAD SWAP1 DUP2 ADD PUSH1 0x40 MSTORE DUP1 SWAP3 SWAP2 SWAP1 DUP2 DUP2 MSTORE PUSH1 0x20 ADD DUP3 DUP1 SLOAD DUP1 ISZERO PUSH2 0x1957 JUMPI PUSH1 0x20 MUL DUP3 ADD SWAP2 SWAP1 PUSH1 0x0 MSTORE PUSH1 0x20 PUSH1 0x0 KECCAK256 SWAP1 JUMPDEST DUP2 SLOAD DUP2 MSTORE PUSH1 0x20 ADD SWAP1 PUSH1 0x1 ADD SWAP1 DUP1 DUP4 GT PUSH2 0x1943 JUMPI JUMPDEST POP POP POP POP POP SWAP1 POP PUSH1 0x0 JUMPDEST DUP2 MLOAD DUP2 LT ISZERO PUSH2 0x19AA JUMPI DUP5 DUP3 DUP3 DUP2 MLOAD DUP2 LT PUSH2 0x197E JUMPI PUSH2 0x197D PUSH2 0x31AD JUMP JUMPDEST JUMPDEST PUSH1 0x20 MUL PUSH1 0x20 ADD ADD MLOAD EQ ISZERO PUSH2 0x1997 JUMPI PUSH1 0x1 SWAP3 POP POP POP PUSH2 0x19B1 JUMP JUMPDEST DUP1 DUP1 PUSH2 0x19A2 SWAP1 PUSH2 0x30A8 JUMP JUMPDEST SWAP2 POP POP PUSH2 0x1961 JUMP JUMPDEST POP PUSH1 0x0 SWAP2 POP POP JUMPDEST SWAP3 SWAP2 POP POP JUMP JUMPDEST PUSH1 0x60 PUSH1 0x0 DUP3 EQ ISZERO PUSH2 0x19FF JUMPI PUSH1 0x40 MLOAD DUP1 PUSH1 0x40 ADD PUSH1 0x40 MSTORE DUP1 PUSH1 0x1 DUP2 MSTORE PUSH1 0x20 ADD PUSH32 0x3000000000000000000000000000000000000000000000000000000000000000 DUP2 MSTORE POP SWAP1 POP PUSH2 0x1B3B JUMP JUMPDEST PUSH1 0x0 DUP3 SWAP1 POP PUSH1 0x0 JUMPDEST PUSH1 0x0 DUP3 EQ PUSH2 0x1A31 JUMPI DUP1 DUP1 PUSH2 0x1A1A SWAP1 PUSH2 0x30A8 JUMP JUMPDEST SWAP2 POP POP PUSH1 0xA DUP3 PUSH2 0x1A2A SWAP2 SWAP1 PUSH2 0x2EFB JUMP JUMPDEST SWAP2 POP PUSH2 0x1A07 JUMP JUMPDEST PUSH1 0x0 DUP2 PUSH8 0xFFFFFFFFFFFFFFFF DUP2 GT ISZERO PUSH2 0x1A4D JUMPI PUSH2 0x1A4C PUSH2 0x31DC JUMP JUMPDEST JUMPDEST PUSH1 0x40 MLOAD SWAP1 DUP1 DUP3 MSTORE DUP1 PUSH1 0x1F ADD PUSH1 0x1F NOT AND PUSH1 0x20 ADD DUP3 ADD PUSH1 0x40 MSTORE DUP1 ISZERO PUSH2 0x1A7F JUMPI DUP2 PUSH1 0x20 ADD PUSH1 0x1 DUP3 MUL DUP1 CALLDATASIZE DUP4 CALLDATACOPY DUP1 DUP3 ADD SWAP2 POP POP SWAP1 POP JUMPDEST POP SWAP1 POP PUSH1 0x0 DUP3 SWAP1 POP JUMPDEST PUSH1 0x0 DUP7 EQ PUSH2 0x1B33 JUMPI PUSH1 0x1 DUP2 PUSH2 0x1A9D SWAP2 SWAP1 PUSH2 0x2F86 JUMP JUMPDEST SWAP1 POP PUSH1 0x0 PUSH1 0xA DUP1 DUP9 PUSH2 0x1AAF SWAP2 SWAP1 PUSH2 0x2EFB JUMP JUMPDEST PUSH2 0x1AB9 SWAP2 SWAP1 PUSH2 0x2F2C JUMP JUMPDEST DUP8 PUSH2 0x1AC4 SWAP2 SWAP1 PUSH2 0x2F86 JUMP JUMPDEST PUSH1 0x30 PUSH2 0x1AD0 SWAP2 SWAP1 PUSH2 0x2EC4 JUMP JUMPDEST SWAP1 POP PUSH1 0x0 DUP2 PUSH1 0xF8 SHL SWAP1 POP DUP1 DUP5 DUP5 DUP2 MLOAD DUP2 LT PUSH2 0x1AEE JUMPI PUSH2 0x1AED PUSH2 0x31AD JUMP JUMPDEST JUMPDEST PUSH1 0x20 ADD ADD SWAP1 PUSH31 0xFFFFFFFFFFFFFFFFFFFFFFFFFFFFFFFFFFFFFFFFFFFFFFFFFFFFFFFFFFFFFF NOT AND SWAP1 DUP2 PUSH1 0x0 BYTE SWAP1 MSTORE8 POP PUSH1 0xA DUP9 PUSH2 0x1B2A SWAP2 SWAP1 PUSH2 0x2EFB JUMP JUMPDEST SWAP8 POP POP POP PUSH2 0x1A88 JUMP JUMPDEST DUP2 SWAP5 POP POP POP POP POP JUMPDEST SWAP2 SWAP1 POP JUMP JUMPDEST PUSH1 0x0 DUP3 DUP1 ISZERO PUSH2 0x1B4C JUMPI POP DUP2 JUMPDEST ISZERO PUSH2 0x1B8C JUMPI PUSH1 0x40 MLOAD PUSH32 0x8C379A000000000000000000000000000000000000000000000000000000000 DUP2 MSTORE PUSH1 0x4 ADD PUSH2 0x1B83 SWAP1 PUSH2 0x2B64 JUMP JUMPDEST PUSH1 0x40 MLOAD DUP1 SWAP2 SUB SWAP1 REVERT JUMPDEST PUSH1 0x0 PUSH1 0x5 SLOAD PUSH1 0x1 DUP7 DUP2 SLOAD DUP2 LT PUSH2 0x1BA5 JUMPI PUSH2 0x1BA4 PUSH2 0x31AD JUMP JUMPDEST JUMPDEST SWAP1 PUSH1 0x0 MSTORE PUSH1 0x20 PUSH1 0x0 KECCAK256 SWAP1 PUSH1 0x4 MUL ADD PUSH1 0x2 ADD PUSH1 0x1 ADD SLOAD PUSH2 0x1BC4 SWAP2 SWAP1 PUSH2 0x2F2C JUMP JUMPDEST PUSH1 0x4 SLOAD PUSH1 0x1 DUP8 DUP2 SLOAD DUP2 LT PUSH2 0x1BDB JUMPI PUSH2 0x1BDA PUSH2 0x31AD JUMP JUMPDEST JUMPDEST SWAP1 PUSH1 0x0 MSTORE PUSH1 0x20 PUSH1 0x0 KECCAK256 SWAP1 PUSH1 0x4 MUL ADD PUSH1 0x2 ADD PUSH1 0x0 ADD SLOAD PUSH2 0x1BFA SWAP2 SWAP1 PUSH2 0x2F2C JUMP JUMPDEST PUSH2 0x1C04 SWAP2 SWAP1 PUSH2 0x2E6E JUMP JUMPDEST SWAP1 POP DUP4 ISZERO PUSH2 0x1C20 JUMPI PUSH1 0x3 DUP2 PUSH2 0x1C19 SWAP2 SWAP1 PUSH2 0x2F2C JUMP JUMPDEST SWAP1 POP PUSH2 0x1C37 JUMP JUMPDEST DUP3 ISZERO PUSH2 0x1C36 JUMPI PUSH1 0x2 DUP2 PUSH2 0x1C33 SWAP2 SWAP1 PUSH2 0x2F2C JUMP JUMPDEST SWAP1 POP JUMPDEST JUMPDEST DUP1 SWAP2 POP POP SWAP4 SWAP3 POP POP POP JUMP JUMPDEST PUSH1 0x0 DUP1 SLOAD SWAP1 PUSH2 0x100 EXP SWAP1 DIV PUSH20 0xFFFFFFFFFFFFFFFFFFFFFFFFFFFFFFFFFFFFFFFF AND PUSH20 0xFFFFFFFFFFFFFFFFFFFFFFFFFFFFFFFFFFFFFFFF AND CALLER PUSH20 0xFFFFFFFFFFFFFFFFFFFFFFFFFFFFFFFFFFFFFFFF AND EQ PUSH2 0x1CD0 JUMPI PUSH1 0x40 MLOAD PUSH32 0x8C379A000000000000000000000000000000000000000000000000000000000 DUP2 MSTORE PUSH1 0x4 ADD PUSH2 0x1CC7 SWAP1 PUSH2 0x2CE4 JUMP JUMPDEST PUSH1 0x40 MLOAD DUP1 SWAP2 SUB SWAP1 REVERT JUMPDEST PUSH1 0x0 DUP1 PUSH1 0x0 JUMPDEST PUSH1 0x2 DUP1 SLOAD SWAP1 POP DUP2 LT ISZERO PUSH2 0x1D8C JUMPI PUSH1 0x2 DUP2 DUP2 SLOAD DUP2 LT PUSH2 0x1CF7 JUMPI PUSH2 0x1CF6 PUSH2 0x31AD JUMP JUMPDEST JUMPDEST SWAP1 PUSH1 0x0 MSTORE PUSH1 0x20 PUSH1 0x0 KECCAK256 SWAP1 PUSH1 0x7 MUL ADD PUSH1 0x6 ADD SLOAD PUSH1 0x2 DUP3 DUP2 SLOAD DUP2 LT PUSH2 0x1D1D JUMPI PUSH2 0x1D1C PUSH2 0x31AD JUMP JUMPDEST JUMPDEST SWAP1 PUSH1 0x0 MSTORE PUSH1 0x20 PUSH1 0x0 KECCAK256 SWAP1 PUSH1 0x7 MUL ADD PUSH1 0x5 ADD SLOAD PUSH2 0x1D39 SWAP2 SWAP1 PUSH2 0x2F2C JUMP JUMPDEST DUP4 PUSH2 0x1D44 SWAP2 SWAP1 PUSH2 0x2E6E JUMP JUMPDEST SWAP3 POP PUSH1 0x2 DUP2 DUP2 SLOAD DUP2 LT PUSH2 0x1D5A JUMPI PUSH2 0x1D59 PUSH2 0x31AD JUMP JUMPDEST JUMPDEST SWAP1 PUSH1 0x0 MSTORE PUSH1 0x20 PUSH1 0x0 KECCAK256 SWAP1 PUSH1 0x7 MUL ADD PUSH1 0x5 ADD SLOAD DUP3 PUSH2 0x1D77 SWAP2 SWAP1 PUSH2 0x2E6E JUMP JUMPDEST SWAP2 POP DUP1 DUP1 PUSH2 0x1D84 SWAP1 PUSH2 0x30A8 JUMP JUMPDEST SWAP2 POP POP PUSH2 0x1CD6 JUMP JUMPDEST POP PUSH1 0x0 PUSH1 0x64 DUP3 PUSH1 0xA PUSH2 0x1D9E SWAP2 SWAP1 PUSH2 0x2F2C JUMP JUMPDEST PUSH2 0x1DA8 SWAP2 SWAP1 PUSH2 0x2EFB JUMP JUMPDEST SWAP1 POP DUP1 DUP3 PUSH2 0x1DB6 SWAP2 SWAP1 PUSH2 0x2F86 JUMP JUMPDEST SWAP2 POP PUSH1 0x0 DUP1 SLOAD SWAP1 PUSH2 0x100 EXP SWAP1 DIV PUSH20 0xFFFFFFFFFFFFFFFFFFFFFFFFFFFFFFFFFFFFFFFF AND PUSH20 0xFFFFFFFFFFFFFFFFFFFFFFFFFFFFFFFFFFFFFFFF AND PUSH2 0x8FC DUP3 SWAP1 DUP2 ISZERO MUL SWAP1 PUSH1 0x40 MLOAD PUSH1 0x0 PUSH1 0x40 MLOAD DUP1 DUP4 SUB DUP2 DUP6 DUP9 DUP9 CALL SWAP4 POP POP POP POP ISZERO DUP1 ISZERO PUSH2 0x1E1E JUMPI RETURNDATASIZE PUSH1 0x0 DUP1 RETURNDATACOPY RETURNDATASIZE PUSH1 0x0 REVERT JUMPDEST POP PUSH1 0x0 JUMPDEST PUSH1 0x2 DUP1 SLOAD SWAP1 POP DUP2 LT ISZERO PUSH2 0x1F75 JUMPI PUSH1 0x0 DUP1 DUP6 EQ ISZERO PUSH2 0x1E66 JUMPI PUSH1 0x2 DUP3 DUP2 SLOAD DUP2 LT PUSH2 0x1E4D JUMPI PUSH2 0x1E4C PUSH2 0x31AD JUMP JUMPDEST JUMPDEST SWAP1 PUSH1 0x0 MSTORE PUSH1 0x20 PUSH1 0x0 KECCAK256 SWAP1 PUSH1 0x7 MUL ADD PUSH1 0x5 ADD SLOAD SWAP1 POP PUSH2 0x1ED5 JUMP JUMPDEST DUP5 DUP5 PUSH1 0x2 DUP5 DUP2 SLOAD DUP2 LT PUSH2 0x1E7C JUMPI PUSH2 0x1E7B PUSH2 0x31AD JUMP JUMPDEST JUMPDEST SWAP1 PUSH1 0x0 MSTORE PUSH1 0x20 PUSH1 0x0 KECCAK256 SWAP1 PUSH1 0x7 MUL ADD PUSH1 0x6 ADD SLOAD PUSH1 0x2 DUP6 DUP2 SLOAD DUP2 LT PUSH2 0x1EA2 JUMPI PUSH2 0x1EA1 PUSH2 0x31AD JUMP JUMPDEST JUMPDEST SWAP1 PUSH1 0x0 MSTORE PUSH1 0x20 PUSH1 0x0 KECCAK256 SWAP1 PUSH1 0x7 MUL ADD PUSH1 0x5 ADD SLOAD PUSH2 0x1EBE SWAP2 SWAP1 PUSH2 0x2F2C JUMP JUMPDEST PUSH2 0x1EC8 SWAP2 SWAP1 PUSH2 0x2F2C JUMP JUMPDEST PUSH2 0x1ED2 SWAP2 SWAP1 PUSH2 0x2EFB JUMP JUMPDEST SWAP1 POP JUMPDEST PUSH1 0x2 DUP3 DUP2 SLOAD DUP2 LT PUSH2 0x1EE9 JUMPI PUSH2 0x1EE8 PUSH2 0x31AD JUMP JUMPDEST JUMPDEST SWAP1 PUSH1 0x0 MSTORE PUSH1 0x20 PUSH1 0x0 KECCAK256 SWAP1 PUSH1 0x7 MUL ADD PUSH1 0x0 ADD PUSH1 0x0 SWAP1 SLOAD SWAP1 PUSH2 0x100 EXP SWAP1 DIV PUSH20 0xFFFFFFFFFFFFFFFFFFFFFFFFFFFFFFFFFFFFFFFF AND PUSH20 0xFFFFFFFFFFFFFFFFFFFFFFFFFFFFFFFFFFFFFFFF AND PUSH2 0x8FC DUP3 SWAP1 DUP2 ISZERO MUL SWAP1 PUSH1 0x40 MLOAD PUSH1 0x0 PUSH1 0x40 MLOAD DUP1 DUP4 SUB DUP2 DUP6 DUP9 DUP9 CALL SWAP4 POP POP POP POP ISZERO DUP1 ISZERO PUSH2 0x1F60 JUMPI RETURNDATASIZE PUSH1 0x0 DUP1 RETURNDATACOPY RETURNDATASIZE PUSH1 0x0 REVERT JUMPDEST POP POP DUP1 DUP1 PUSH2 0x1F6D SWAP1 PUSH2 0x30A8 JUMP JUMPDEST SWAP2 POP POP PUSH2 0x1E22 JUMP JUMPDEST POP POP POP POP JUMP JUMPDEST POP DUP1 SLOAD PUSH1 0x0 DUP3 SSTORE PUSH1 0x4 MUL SWAP1 PUSH1 0x0 MSTORE PUSH1 0x20 PUSH1 0x0 KECCAK256 SWAP1 DUP2 ADD SWAP1 PUSH2 0x1F9C SWAP2 SWAP1 PUSH2 0x2110 JUMP JUMPDEST POP JUMP JUMPDEST POP DUP1 SLOAD PUSH1 0x0 DUP3 SSTORE PUSH1 0x7 MUL SWAP1 PUSH1 0x0 MSTORE PUSH1 0x20 PUSH1 0x0 KECCAK256 SWAP1 DUP2 ADD SWAP1 PUSH2 0x1FC0 SWAP2 SWAP1 PUSH2 0x2156 JUMP JUMPDEST POP JUMP JUMPDEST PUSH1 0x40 MLOAD DUP1 PUSH1 0x60 ADD PUSH1 0x40 MSTORE DUP1 PUSH1 0x0 DUP2 MSTORE PUSH1 0x20 ADD PUSH1 0x60 DUP2 MSTORE PUSH1 0x20 ADD PUSH2 0x1FE4 PUSH2 0x21D4 JUMP JUMPDEST DUP2 MSTORE POP SWAP1 JUMP JUMPDEST DUP3 DUP1 SLOAD PUSH2 0x1FF6 SWAP1 PUSH2 0x3045 JUMP JUMPDEST SWAP1 PUSH1 0x0 MSTORE PUSH1 0x20 PUSH1 0x0 KECCAK256 SWAP1 PUSH1 0x1F ADD PUSH1 0x20 SWAP1 DIV DUP2 ADD SWAP3 DUP3 PUSH2 0x2018 JUMPI PUSH1 0x0 DUP6 SSTORE PUSH2 0x205F JUMP JUMPDEST DUP3 PUSH1 0x1F LT PUSH2 0x2031 JUMPI DUP1 MLOAD PUSH1 0xFF NOT AND DUP4 DUP1 ADD OR DUP6 SSTORE PUSH2 0x205F JUMP JUMPDEST DUP3 DUP1 ADD PUSH1 0x1 ADD DUP6 SSTORE DUP3 ISZERO PUSH2 0x205F JUMPI SWAP2 DUP3 ADD JUMPDEST DUP3 DUP2 GT ISZERO PUSH2 0x205E JUMPI DUP3 MLOAD DUP3 SSTORE SWAP2 PUSH1 0x20 ADD SWAP2 SWAP1 PUSH1 0x1 ADD SWAP1 PUSH2 0x2043 JUMP JUMPDEST JUMPDEST POP SWAP1 POP PUSH2 0x206C SWAP2 SWAP1 PUSH2 0x21EE JUMP JUMPDEST POP SWAP1 JUMP JUMPDEST PUSH1 0x40 MLOAD DUP1 PUSH1 0xE0 ADD PUSH1 0x40 MSTORE DUP1 PUSH1 0x0 PUSH20 0xFFFFFFFFFFFFFFFFFFFFFFFFFFFFFFFFFFFFFFFF AND DUP2 MSTORE PUSH1 0x20 ADD PUSH1 0x60 DUP2 MSTORE PUSH1 0x20 ADD PUSH1 0x60 DUP2 MSTORE PUSH1 0x20 ADD PUSH1 0x0 DUP2 MSTORE PUSH1 0x20 ADD PUSH1 0x0 DUP2 MSTORE PUSH1 0x20 ADD PUSH1 0x0 DUP2 MSTORE PUSH1 0x20 ADD PUSH1 0x0 DUP2 MSTORE POP SWAP1 JUMP JUMPDEST DUP3 DUP1 SLOAD DUP3 DUP3 SSTORE SWAP1 PUSH1 0x0 MSTORE PUSH1 0x20 PUSH1 0x0 KECCAK256 SWAP1 DUP2 ADD SWAP3 DUP3 ISZERO PUSH2 0x20FF JUMPI SWAP2 PUSH1 0x20 MUL DUP3 ADD JUMPDEST DUP3 DUP2 GT ISZERO PUSH2 0x20FE JUMPI DUP3 MLOAD DUP3 SSTORE SWAP2 PUSH1 0x20 ADD SWAP2 SWAP1 PUSH1 0x1 ADD SWAP1 PUSH2 0x20E3 JUMP JUMPDEST JUMPDEST POP SWAP1 POP PUSH2 0x210C SWAP2 SWAP1 PUSH2 0x21EE JUMP JUMPDEST POP SWAP1 JUMP JUMPDEST JUMPDEST DUP1 DUP3 GT ISZERO PUSH2 0x2152 JUMPI PUSH1 0x0 DUP1 DUP3 ADD PUSH1 0x0 SWAP1 SSTORE PUSH1 0x1 DUP3 ADD PUSH1 0x0 PUSH2 0x2132 SWAP2 SWAP1 PUSH2 0x220B JUMP JUMPDEST PUSH1 0x2 DUP3 ADD PUSH1 0x0 DUP1 DUP3 ADD PUSH1 0x0 SWAP1 SSTORE PUSH1 0x1 DUP3 ADD PUSH1 0x0 SWAP1 SSTORE POP POP POP PUSH1 0x4 ADD PUSH2 0x2111 JUMP JUMPDEST POP SWAP1 JUMP JUMPDEST JUMPDEST DUP1 DUP3 GT ISZERO PUSH2 0x21D0 JUMPI PUSH1 0x0 DUP1 DUP3 ADD PUSH1 0x0 PUSH2 0x100 EXP DUP2 SLOAD SWAP1 PUSH20 0xFFFFFFFFFFFFFFFFFFFFFFFFFFFFFFFFFFFFFFFF MUL NOT AND SWAP1 SSTORE PUSH1 0x1 DUP3 ADD PUSH1 0x0 PUSH2 0x2197 SWAP2 SWAP1 PUSH2 0x220B JUMP JUMPDEST PUSH1 0x2 DUP3 ADD PUSH1 0x0 PUSH2 0x21A7 SWAP2 SWAP1 PUSH2 0x224B JUMP JUMPDEST PUSH1 0x3 DUP3 ADD PUSH1 0x0 SWAP1 SSTORE PUSH1 0x4 DUP3 ADD PUSH1 0x0 SWAP1 SSTORE PUSH1 0x5 DUP3 ADD PUSH1 0x0 SWAP1 SSTORE PUSH1 0x6 DUP3 ADD PUSH1 0x0 SWAP1 SSTORE POP PUSH1 0x7 ADD PUSH2 0x2157 JUMP JUMPDEST POP SWAP1 JUMP JUMPDEST PUSH1 0x40 MLOAD DUP1 PUSH1 0x40 ADD PUSH1 0x40 MSTORE DUP1 PUSH1 0x0 DUP2 MSTORE PUSH1 0x20 ADD PUSH1 0x0 DUP2 MSTORE POP SWAP1 JUMP JUMPDEST JUMPDEST DUP1 DUP3 GT ISZERO PUSH2 0x2207 JUMPI PUSH1 0x0 DUP2 PUSH1 0x0 SWAP1 SSTORE POP PUSH1 0x1 ADD PUSH2 0x21EF JUMP JUMPDEST POP SWAP1 JUMP JUMPDEST POP DUP1 SLOAD PUSH2 0x2217 SWAP1 PUSH2 0x3045 JUMP JUMPDEST PUSH1 0x0 DUP3 SSTORE DUP1 PUSH1 0x1F LT PUSH2 0x2229 JUMPI POP PUSH2 0x2248 JUMP JUMPDEST PUSH1 0x1F ADD PUSH1 0x20 SWAP1 DIV SWAP1 PUSH1 0x0 MSTORE PUSH1 0x20 PUSH1 0x0 KECCAK256 SWAP1 DUP2 ADD SWAP1 PUSH2 0x2247 SWAP2 SWAP1 PUSH2 0x21EE JUMP JUMPDEST JUMPDEST POP JUMP JUMPDEST POP DUP1 SLOAD PUSH1 0x0 DUP3 SSTORE SWAP1 PUSH1 0x0 MSTORE PUSH1 0x20 PUSH1 0x0 KECCAK256 SWAP1 DUP2 ADD SWAP1 PUSH2 0x2269 SWAP2 SWAP1 PUSH2 0x21EE JUMP JUMPDEST POP JUMP JUMPDEST PUSH1 0x0 PUSH2 0x227F PUSH2 0x227A DUP5 PUSH2 0x2DA9 JUMP JUMPDEST PUSH2 0x2D84 JUMP JUMPDEST SWAP1 POP DUP1 DUP4 DUP3 MSTORE PUSH1 0x20 DUP3 ADD SWAP1 POP DUP3 DUP6 PUSH1 0x20 DUP7 MUL DUP3 ADD GT ISZERO PUSH2 0x22A2 JUMPI PUSH2 0x22A1 PUSH2 0x3210 JUMP JUMPDEST JUMPDEST PUSH1 0x0 JUMPDEST DUP6 DUP2 LT ISZERO PUSH2 0x22F0 JUMPI DUP2 CALLDATALOAD PUSH8 0xFFFFFFFFFFFFFFFF DUP2 GT ISZERO PUSH2 0x22C8 JUMPI PUSH2 0x22C7 PUSH2 0x320B JUMP JUMPDEST JUMPDEST DUP1 DUP7 ADD PUSH2 0x22D5 DUP10 DUP3 PUSH2 0x2408 JUMP JUMPDEST DUP6 MSTORE PUSH1 0x20 DUP6 ADD SWAP5 POP PUSH1 0x20 DUP5 ADD SWAP4 POP POP POP PUSH1 0x1 DUP2 ADD SWAP1 POP PUSH2 0x22A5 JUMP JUMPDEST POP POP POP SWAP4 SWAP3 POP POP POP JUMP JUMPDEST PUSH1 0x0 PUSH2 0x230D PUSH2 0x2308 DUP5 PUSH2 0x2DD5 JUMP JUMPDEST PUSH2 0x2D84 JUMP JUMPDEST SWAP1 POP DUP1 DUP4 DUP3 MSTORE PUSH1 0x20 DUP3 ADD SWAP1 POP DUP3 DUP6 PUSH1 0x20 DUP7 MUL DUP3 ADD GT ISZERO PUSH2 0x2330 JUMPI PUSH2 0x232F PUSH2 0x3210 JUMP JUMPDEST JUMPDEST PUSH1 0x0 JUMPDEST DUP6 DUP2 LT ISZERO PUSH2 0x2360 JUMPI DUP2 PUSH2 0x2346 DUP9 DUP3 PUSH2 0x2436 JUMP JUMPDEST DUP5 MSTORE PUSH1 0x20 DUP5 ADD SWAP4 POP PUSH1 0x20 DUP4 ADD SWAP3 POP POP PUSH1 0x1 DUP2 ADD SWAP1 POP PUSH2 0x2333 JUMP JUMPDEST POP POP POP SWAP4 SWAP3 POP POP POP JUMP JUMPDEST PUSH1 0x0 PUSH2 0x237D PUSH2 0x2378 DUP5 PUSH2 0x2E01 JUMP JUMPDEST PUSH2 0x2D84 JUMP JUMPDEST SWAP1 POP DUP3 DUP2 MSTORE PUSH1 0x20 DUP2 ADD DUP5 DUP5 DUP5 ADD GT ISZERO PUSH2 0x2399 JUMPI PUSH2 0x2398 PUSH2 0x3215 JUMP JUMPDEST JUMPDEST PUSH2 0x23A4 DUP5 DUP3 DUP6 PUSH2 0x3003 JUMP JUMPDEST POP SWAP4 SWAP3 POP POP POP JUMP JUMPDEST PUSH1 0x0 DUP3 PUSH1 0x1F DUP4 ADD SLT PUSH2 0x23C1 JUMPI PUSH2 0x23C0 PUSH2 0x320B JUMP JUMPDEST JUMPDEST DUP2 CALLDATALOAD PUSH2 0x23D1 DUP5 DUP3 PUSH1 0x20 DUP7 ADD PUSH2 0x226C JUMP JUMPDEST SWAP2 POP POP SWAP3 SWAP2 POP POP JUMP JUMPDEST PUSH1 0x0 DUP3 PUSH1 0x1F DUP4 ADD SLT PUSH2 0x23EF JUMPI PUSH2 0x23EE PUSH2 0x320B JUMP JUMPDEST JUMPDEST DUP2 CALLDATALOAD PUSH2 0x23FF DUP5 DUP3 PUSH1 0x20 DUP7 ADD PUSH2 0x22FA JUMP JUMPDEST SWAP2 POP POP SWAP3 SWAP2 POP POP JUMP JUMPDEST PUSH1 0x0 DUP3 PUSH1 0x1F DUP4 ADD SLT PUSH2 0x241D JUMPI PUSH2 0x241C PUSH2 0x320B JUMP JUMPDEST JUMPDEST DUP2 CALLDATALOAD PUSH2 0x242D DUP5 DUP3 PUSH1 0x20 DUP7 ADD PUSH2 0x236A JUMP JUMPDEST SWAP2 POP POP SWAP3 SWAP2 POP POP JUMP JUMPDEST PUSH1 0x0 DUP2 CALLDATALOAD SWAP1 POP PUSH2 0x2445 DUP2 PUSH2 0x36CB JUMP JUMPDEST SWAP3 SWAP2 POP POP JUMP JUMPDEST PUSH1 0x0 PUSH1 0x20 DUP3 DUP5 SUB SLT ISZERO PUSH2 0x2461 JUMPI PUSH2 0x2460 PUSH2 0x321F JUMP JUMPDEST JUMPDEST PUSH1 0x0 DUP3 ADD CALLDATALOAD PUSH8 0xFFFFFFFFFFFFFFFF DUP2 GT ISZERO PUSH2 0x247F JUMPI PUSH2 0x247E PUSH2 0x321A JUMP JUMPDEST JUMPDEST PUSH2 0x248B DUP5 DUP3 DUP6 ADD PUSH2 0x23AC JUMP JUMPDEST SWAP2 POP POP SWAP3 SWAP2 POP POP JUMP JUMPDEST PUSH1 0x0 PUSH1 0x20 DUP3 DUP5 SUB SLT ISZERO PUSH2 0x24AA JUMPI PUSH2 0x24A9 PUSH2 0x321F JUMP JUMPDEST JUMPDEST PUSH1 0x0 DUP3 ADD CALLDATALOAD PUSH8 0xFFFFFFFFFFFFFFFF DUP2 GT ISZERO PUSH2 0x24C8 JUMPI PUSH2 0x24C7 PUSH2 0x321A JUMP JUMPDEST JUMPDEST PUSH2 0x24D4 DUP5 DUP3 DUP6 ADD PUSH2 0x23DA JUMP JUMPDEST SWAP2 POP POP SWAP3 SWAP2 POP POP JUMP JUMPDEST PUSH1 0x0 PUSH1 0x20 DUP3 DUP5 SUB SLT ISZERO PUSH2 0x24F3 JUMPI PUSH2 0x24F2 PUSH2 0x321F JUMP JUMPDEST JUMPDEST PUSH1 0x0 DUP3 ADD CALLDATALOAD PUSH8 0xFFFFFFFFFFFFFFFF DUP2 GT ISZERO PUSH2 0x2511 JUMPI PUSH2 0x2510 PUSH2 0x321A JUMP JUMPDEST JUMPDEST PUSH2 0x251D DUP5 DUP3 DUP6 ADD PUSH2 0x2408 JUMP JUMPDEST SWAP2 POP POP SWAP3 SWAP2 POP POP JUMP JUMPDEST PUSH1 0x0 DUP1 PUSH1 0x40 DUP4 DUP6 SUB SLT ISZERO PUSH2 0x253D JUMPI PUSH2 0x253C PUSH2 0x321F JUMP JUMPDEST JUMPDEST PUSH1 0x0 PUSH2 0x254B DUP6 DUP3 DUP7 ADD PUSH2 0x2436 JUMP JUMPDEST SWAP3 POP POP PUSH1 0x20 PUSH2 0x255C DUP6 DUP3 DUP7 ADD PUSH2 0x2436 JUMP JUMPDEST SWAP2 POP POP SWAP3 POP SWAP3 SWAP1 POP JUMP JUMPDEST PUSH1 0x0 DUP1 PUSH1 0x0 PUSH1 0x60 DUP5 DUP7 SUB SLT ISZERO PUSH2 0x257F JUMPI PUSH2 0x257E PUSH2 0x321F JUMP JUMPDEST JUMPDEST PUSH1 0x0 PUSH2 0x258D DUP7 DUP3 DUP8 ADD PUSH2 0x2436 JUMP JUMPDEST SWAP4 POP POP PUSH1 0x20 PUSH2 0x259E DUP7 DUP3 DUP8 ADD PUSH2 0x2436 JUMP JUMPDEST SWAP3 POP POP PUSH1 0x40 PUSH2 0x25AF DUP7 DUP3 DUP8 ADD PUSH2 0x2436 JUMP JUMPDEST SWAP2 POP POP SWAP3 POP SWAP3 POP SWAP3 JUMP JUMPDEST PUSH2 0x25C2 DUP2 PUSH2 0x2FBA JUMP JUMPDEST DUP3 MSTORE POP POP JUMP JUMPDEST PUSH1 0x0 PUSH2 0x25D3 DUP3 PUSH2 0x2E47 JUMP JUMPDEST PUSH2 0x25DD DUP2 DUP6 PUSH2 0x2E52 JUMP JUMPDEST SWAP4 POP PUSH2 0x25ED DUP2 DUP6 PUSH1 0x20 DUP7 ADD PUSH2 0x3012 JUMP JUMPDEST PUSH2 0x25F6 DUP2 PUSH2 0x3224 JUMP JUMPDEST DUP5 ADD SWAP2 POP POP SWAP3 SWAP2 POP POP JUMP JUMPDEST PUSH1 0x0 PUSH2 0x260C DUP3 PUSH2 0x2E47 JUMP JUMPDEST PUSH2 0x2616 DUP2 DUP6 PUSH2 0x2E63 JUMP JUMPDEST SWAP4 POP PUSH2 0x2626 DUP2 DUP6 PUSH1 0x20 DUP7 ADD PUSH2 0x3012 JUMP JUMPDEST DUP1 DUP5 ADD SWAP2 POP POP SWAP3 SWAP2 POP POP JUMP JUMPDEST PUSH1 0x0 DUP2 SLOAD PUSH2 0x263F DUP2 PUSH2 0x3045 JUMP JUMPDEST PUSH2 0x2649 DUP2 DUP7 PUSH2 0x2E63 JUMP JUMPDEST SWAP5 POP PUSH1 0x1 DUP3 AND PUSH1 0x0 DUP2 EQ PUSH2 0x2664 JUMPI PUSH1 0x1 DUP2 EQ PUSH2 0x2675 JUMPI PUSH2 0x26A8 JUMP JUMPDEST PUSH1 0xFF NOT DUP4 AND DUP7 MSTORE DUP2 DUP7 ADD SWAP4 POP PUSH2 0x26A8 JUMP JUMPDEST PUSH2 0x267E DUP6 PUSH2 0x2E32 JUMP JUMPDEST PUSH1 0x0 JUMPDEST DUP4 DUP2 LT ISZERO PUSH2 0x26A0 JUMPI DUP2 SLOAD DUP2 DUP10 ADD MSTORE PUSH1 0x1 DUP3 ADD SWAP2 POP PUSH1 0x20 DUP2 ADD SWAP1 POP PUSH2 0x2681 JUMP JUMPDEST DUP4 DUP9 ADD SWAP6 POP POP POP JUMPDEST POP POP POP SWAP3 SWAP2 POP POP JUMP JUMPDEST PUSH1 0x0 PUSH2 0x26BE PUSH1 0x2B DUP4 PUSH2 0x2E52 JUMP JUMPDEST SWAP2 POP PUSH2 0x26C9 DUP3 PUSH2 0x3235 JUMP JUMPDEST PUSH1 0x40 DUP3 ADD SWAP1 POP SWAP2 SWAP1 POP JUMP JUMPDEST PUSH1 0x0 PUSH2 0x26E1 PUSH1 0x21 DUP4 PUSH2 0x2E52 JUMP JUMPDEST SWAP2 POP PUSH2 0x26EC DUP3 PUSH2 0x3284 JUMP JUMPDEST PUSH1 0x40 DUP3 ADD SWAP1 POP SWAP2 SWAP1 POP JUMP JUMPDEST PUSH1 0x0 PUSH2 0x2704 PUSH1 0x20 DUP4 PUSH2 0x2E52 JUMP JUMPDEST SWAP2 POP PUSH2 0x270F DUP3 PUSH2 0x32D3 JUMP JUMPDEST PUSH1 0x20 DUP3 ADD SWAP1 POP SWAP2 SWAP1 POP JUMP JUMPDEST PUSH1 0x0 PUSH2 0x2727 PUSH1 0x1 DUP4 PUSH2 0x2E63 JUMP JUMPDEST SWAP2 POP PUSH2 0x2732 DUP3 PUSH2 0x32FC JUMP JUMPDEST PUSH1 0x1 DUP3 ADD SWAP1 POP SWAP2 SWAP1 POP JUMP JUMPDEST PUSH1 0x0 PUSH2 0x274A PUSH1 0x14 DUP4 PUSH2 0x2E52 JUMP JUMPDEST SWAP2 POP PUSH2 0x2755 DUP3 PUSH2 0x3325 JUMP JUMPDEST PUSH1 0x20 DUP3 ADD SWAP1 POP SWAP2 SWAP1 POP JUMP JUMPDEST PUSH1 0x0 PUSH2 0x276D PUSH1 0xF DUP4 PUSH2 0x2E63 JUMP JUMPDEST SWAP2 POP PUSH2 0x2778 DUP3 PUSH2 0x334E JUMP JUMPDEST PUSH1 0xF DUP3 ADD SWAP1 POP SWAP2 SWAP1 POP JUMP JUMPDEST PUSH1 0x0 PUSH2 0x2790 PUSH1 0x3D DUP4 PUSH2 0x2E52 JUMP JUMPDEST SWAP2 POP PUSH2 0x279B DUP3 PUSH2 0x3377 JUMP JUMPDEST PUSH1 0x40 DUP3 ADD SWAP1 POP SWAP2 SWAP1 POP JUMP JUMPDEST PUSH1 0x0 PUSH2 0x27B3 PUSH1 0x2A DUP4 PUSH2 0x2E52 JUMP JUMPDEST SWAP2 POP PUSH2 0x27BE DUP3 PUSH2 0x33C6 JUMP JUMPDEST PUSH1 0x40 DUP3 ADD SWAP1 POP SWAP2 SWAP1 POP JUMP JUMPDEST PUSH1 0x0 PUSH2 0x27D6 PUSH1 0x1A DUP4 PUSH2 0x2E52 JUMP JUMPDEST SWAP2 POP PUSH2 0x27E1 DUP3 PUSH2 0x3415 JUMP JUMPDEST PUSH1 0x20 DUP3 ADD SWAP1 POP SWAP2 SWAP1 POP JUMP JUMPDEST PUSH1 0x0 PUSH2 0x27F9 PUSH1 0x1C DUP4 PUSH2 0x2E52 JUMP JUMPDEST SWAP2 POP PUSH2 0x2804 DUP3 PUSH2 0x343E JUMP JUMPDEST PUSH1 0x20 DUP3 ADD SWAP1 POP SWAP2 SWAP1 POP JUMP JUMPDEST PUSH1 0x0 PUSH2 0x281C PUSH1 0xF DUP4 PUSH2 0x2E52 JUMP JUMPDEST SWAP2 POP PUSH2 0x2827 DUP3 PUSH2 0x3467 JUMP JUMPDEST PUSH1 0x20 DUP3 ADD SWAP1 POP SWAP2 SWAP1 POP JUMP JUMPDEST PUSH1 0x0 PUSH2 0x283F PUSH1 0xB DUP4 PUSH2 0x2E63 JUMP JUMPDEST SWAP2 POP PUSH2 0x284A DUP3 PUSH2 0x3490 JUMP JUMPDEST PUSH1 0xB DUP3 ADD SWAP1 POP SWAP2 SWAP1 POP JUMP JUMPDEST PUSH1 0x0 PUSH2 0x2862 PUSH1 0x1B DUP4 PUSH2 0x2E52 JUMP JUMPDEST SWAP2 POP PUSH2 0x286D DUP3 PUSH2 0x34B9 JUMP JUMPDEST PUSH1 0x20 DUP3 ADD SWAP1 POP SWAP2 SWAP1 POP JUMP JUMPDEST PUSH1 0x0 PUSH2 0x2885 PUSH1 0x18 DUP4 PUSH2 0x2E52 JUMP JUMPDEST SWAP2 POP PUSH2 0x2890 DUP3 PUSH2 0x34E2 JUMP JUMPDEST PUSH1 0x20 DUP3 ADD SWAP1 POP SWAP2 SWAP1 POP JUMP JUMPDEST PUSH1 0x0 PUSH2 0x28A8 PUSH1 0x16 DUP4 PUSH2 0x2E52 JUMP JUMPDEST SWAP2 POP PUSH2 0x28B3 DUP3 PUSH2 0x350B JUMP JUMPDEST PUSH1 0x20 DUP3 ADD SWAP1 POP SWAP2 SWAP1 POP JUMP JUMPDEST PUSH1 0x0 PUSH2 0x28CB PUSH1 0x15 DUP4 PUSH2 0x2E52 JUMP JUMPDEST SWAP2 POP PUSH2 0x28D6 DUP3 PUSH2 0x3534 JUMP JUMPDEST PUSH1 0x20 DUP3 ADD SWAP1 POP SWAP2 SWAP1 POP JUMP JUMPDEST PUSH1 0x0 PUSH2 0x28EE PUSH1 0x20 DUP4 PUSH2 0x2E52 JUMP JUMPDEST SWAP2 POP PUSH2 0x28F9 DUP3 PUSH2 0x355D JUMP JUMPDEST PUSH1 0x20 DUP3 ADD SWAP1 POP SWAP2 SWAP1 POP JUMP JUMPDEST PUSH1 0x0 PUSH2 0x2911 PUSH1 0x14 DUP4 PUSH2 0x2E52 JUMP JUMPDEST SWAP2 POP PUSH2 0x291C DUP3 PUSH2 0x3586 JUMP JUMPDEST PUSH1 0x20 DUP3 ADD SWAP1 POP SWAP2 SWAP1 POP JUMP JUMPDEST PUSH1 0x0 PUSH2 0x2934 PUSH1 0x18 DUP4 PUSH2 0x2E52 JUMP JUMPDEST SWAP2 POP PUSH2 0x293F DUP3 PUSH2 0x35AF JUMP JUMPDEST PUSH1 0x20 DUP3 ADD SWAP1 POP SWAP2 SWAP1 POP JUMP JUMPDEST PUSH1 0x0 PUSH2 0x2957 PUSH1 0x22 DUP4 PUSH2 0x2E52 JUMP JUMPDEST SWAP2 POP PUSH2 0x2962 DUP3 PUSH2 0x35D8 JUMP JUMPDEST PUSH1 0x40 DUP3 ADD SWAP1 POP SWAP2 SWAP1 POP JUMP JUMPDEST PUSH1 0x0 PUSH2 0x297A PUSH1 0x11 DUP4 PUSH2 0x2E52 JUMP JUMPDEST SWAP2 POP PUSH2 0x2985 DUP3 PUSH2 0x3627 JUMP JUMPDEST PUSH1 0x20 DUP3 ADD SWAP1 POP SWAP2 SWAP1 POP JUMP JUMPDEST PUSH1 0x0 PUSH2 0x299D PUSH1 0x11 DUP4 PUSH2 0x2E52 JUMP JUMPDEST SWAP2 POP PUSH2 0x29A8 DUP3 PUSH2 0x3650 JUMP JUMPDEST PUSH1 0x20 DUP3 ADD SWAP1 POP SWAP2 SWAP1 POP JUMP JUMPDEST PUSH1 0x0 PUSH2 0x29C0 PUSH1 0x13 DUP4 PUSH2 0x2E52 JUMP JUMPDEST SWAP2 POP PUSH2 0x29CB DUP3 PUSH2 0x3679 JUMP JUMPDEST PUSH1 0x20 DUP3 ADD SWAP1 POP SWAP2 SWAP1 POP JUMP JUMPDEST PUSH1 0x0 PUSH2 0x29E3 PUSH1 0xF DUP4 PUSH2 0x2E52 JUMP JUMPDEST SWAP2 POP PUSH2 0x29EE DUP3 PUSH2 0x36A2 JUMP JUMPDEST PUSH1 0x20 DUP3 ADD SWAP1 POP SWAP2 SWAP1 POP JUMP JUMPDEST PUSH1 0x0 PUSH2 0x2A05 DUP3 DUP6 PUSH2 0x2601 JUMP JUMPDEST SWAP2 POP PUSH2 0x2A11 DUP3 DUP5 PUSH2 0x2601 JUMP JUMPDEST SWAP2 POP DUP2 SWAP1 POP SWAP4 SWAP3 POP POP POP JUMP JUMPDEST PUSH1 0x0 PUSH2 0x2A29 DUP3 DUP6 PUSH2 0x2601 JUMP JUMPDEST SWAP2 POP PUSH2 0x2A35 DUP3 DUP5 PUSH2 0x2632 JUMP JUMPDEST SWAP2 POP DUP2 SWAP1 POP SWAP4 SWAP3 POP POP POP JUMP JUMPDEST PUSH1 0x0 PUSH2 0x2A4D DUP3 DUP5 PUSH2 0x2601 JUMP JUMPDEST SWAP2 POP PUSH2 0x2A58 DUP3 PUSH2 0x271A JUMP JUMPDEST SWAP2 POP DUP2 SWAP1 POP SWAP3 SWAP2 POP POP JUMP JUMPDEST PUSH1 0x0 PUSH2 0x2A6F DUP3 DUP5 PUSH2 0x2601 JUMP JUMPDEST SWAP2 POP PUSH2 0x2A7A DUP3 PUSH2 0x2760 JUMP JUMPDEST SWAP2 POP DUP2 SWAP1 POP SWAP3 SWAP2 POP POP JUMP JUMPDEST PUSH1 0x0 PUSH2 0x2A91 DUP3 DUP5 PUSH2 0x2601 JUMP JUMPDEST SWAP2 POP PUSH2 0x2A9C DUP3 PUSH2 0x2832 JUMP JUMPDEST SWAP2 POP DUP2 SWAP1 POP SWAP3 SWAP2 POP POP JUMP JUMPDEST PUSH1 0x0 PUSH1 0x20 DUP3 ADD SWAP1 POP PUSH2 0x2ABC PUSH1 0x0 DUP4 ADD DUP5 PUSH2 0x25B9 JUMP JUMPDEST SWAP3 SWAP2 POP POP JUMP JUMPDEST PUSH1 0x0 PUSH1 0x20 DUP3 ADD SWAP1 POP DUP2 DUP2 SUB PUSH1 0x0 DUP4 ADD MSTORE PUSH2 0x2ADC DUP2 DUP5 PUSH2 0x25C8 JUMP JUMPDEST SWAP1 POP SWAP3 SWAP2 POP POP JUMP JUMPDEST PUSH1 0x0 PUSH1 0x20 DUP3 ADD SWAP1 POP DUP2 DUP2 SUB PUSH1 0x0 DUP4 ADD MSTORE PUSH2 0x2AFD DUP2 PUSH2 0x26B1 JUMP JUMPDEST SWAP1 POP SWAP2 SWAP1 POP JUMP JUMPDEST PUSH1 0x0 PUSH1 0x20 DUP3 ADD SWAP1 POP DUP2 DUP2 SUB PUSH1 0x0 DUP4 ADD MSTORE PUSH2 0x2B1D DUP2 PUSH2 0x26D4 JUMP JUMPDEST SWAP1 POP SWAP2 SWAP1 POP JUMP JUMPDEST PUSH1 0x0 PUSH1 0x20 DUP3 ADD SWAP1 POP DUP2 DUP2 SUB PUSH1 0x0 DUP4 ADD MSTORE PUSH2 0x2B3D DUP2 PUSH2 0x26F7 JUMP JUMPDEST SWAP1 POP SWAP2 SWAP1 POP JUMP JUMPDEST PUSH1 0x0 PUSH1 0x20 DUP3 ADD SWAP1 POP DUP2 DUP2 SUB PUSH1 0x0 DUP4 ADD MSTORE PUSH2 0x2B5D DUP2 PUSH2 0x273D JUMP JUMPDEST SWAP1 POP SWAP2 SWAP1 POP JUMP JUMPDEST PUSH1 0x0 PUSH1 0x20 DUP3 ADD SWAP1 POP DUP2 DUP2 SUB PUSH1 0x0 DUP4 ADD MSTORE PUSH2 0x2B7D DUP2 PUSH2 0x2783 JUMP JUMPDEST SWAP1 POP SWAP2 SWAP1 POP JUMP JUMPDEST PUSH1 0x0 PUSH1 0x20 DUP3 ADD SWAP1 POP DUP2 DUP2 SUB PUSH1 0x0 DUP4 ADD MSTORE PUSH2 0x2B9D DUP2 PUSH2 0x27A6 JUMP JUMPDEST SWAP1 POP SWAP2 SWAP1 POP JUMP JUMPDEST PUSH1 0x0 PUSH1 0x20 DUP3 ADD SWAP1 POP DUP2 DUP2 SUB PUSH1 0x0 DUP4 ADD MSTORE PUSH2 0x2BBD DUP2 PUSH2 0x27C9 JUMP JUMPDEST SWAP1 POP SWAP2 SWAP1 POP JUMP JUMPDEST PUSH1 0x0 PUSH1 0x20 DUP3 ADD SWAP1 POP DUP2 DUP2 SUB PUSH1 0x0 DUP4 ADD MSTORE PUSH2 0x2BDD DUP2 PUSH2 0x27EC JUMP JUMPDEST SWAP1 POP SWAP2 SWAP1 POP JUMP JUMPDEST PUSH1 0x0 PUSH1 0x20 DUP3 ADD SWAP1 POP DUP2 DUP2 SUB PUSH1 0x0 DUP4 ADD MSTORE PUSH2 0x2BFD DUP2 PUSH2 0x280F JUMP JUMPDEST SWAP1 POP SWAP2 SWAP1 POP JUMP JUMPDEST PUSH1 0x0 PUSH1 0x20 DUP3 ADD SWAP1 POP DUP2 DUP2 SUB PUSH1 0x0 DUP4 ADD MSTORE PUSH2 0x2C1D DUP2 PUSH2 0x2855 JUMP JUMPDEST SWAP1 POP SWAP2 SWAP1 POP JUMP JUMPDEST PUSH1 0x0 PUSH1 0x20 DUP3 ADD SWAP1 POP DUP2 DUP2 SUB PUSH1 0x0 DUP4 ADD MSTORE PUSH2 0x2C3D DUP2 PUSH2 0x2878 JUMP JUMPDEST SWAP1 POP SWAP2 SWAP1 POP JUMP JUMPDEST PUSH1 0x0 PUSH1 0x20 DUP3 ADD SWAP1 POP DUP2 DUP2 SUB PUSH1 0x0 DUP4 ADD MSTORE PUSH2 0x2C5D DUP2 PUSH2 0x289B JUMP JUMPDEST SWAP1 POP SWAP2 SWAP1 POP JUMP JUMPDEST PUSH1 0x0 PUSH1 0x20 DUP3 ADD SWAP1 POP DUP2 DUP2 SUB PUSH1 0x0 DUP4 ADD MSTORE PUSH2 0x2C7D DUP2 PUSH2 0x28BE JUMP JUMPDEST SWAP1 POP SWAP2 SWAP1 POP JUMP JUMPDEST PUSH1 0x0 PUSH1 0x20 DUP3 ADD SWAP1 POP DUP2 DUP2 SUB PUSH1 0x0 DUP4 ADD MSTORE PUSH2 0x2C9D DUP2 PUSH2 0x28E1 JUMP JUMPDEST SWAP1 POP SWAP2 SWAP1 POP JUMP JUMPDEST PUSH1 0x0 PUSH1 0x20 DUP3 ADD SWAP1 POP DUP2 DUP2 SUB PUSH1 0x0 DUP4 ADD MSTORE PUSH2 0x2CBD DUP2 PUSH2 0x2904 JUMP JUMPDEST SWAP1 POP SWAP2 SWAP1 POP JUMP JUMPDEST PUSH1 0x0 PUSH1 0x20 DUP3 ADD SWAP1 POP DUP2 DUP2 SUB PUSH1 0x0 DUP4 ADD MSTORE PUSH2 0x2CDD DUP2 PUSH2 0x2927 JUMP JUMPDEST SWAP1 POP SWAP2 SWAP1 POP JUMP JUMPDEST PUSH1 0x0 PUSH1 0x20 DUP3 ADD SWAP1 POP DUP2 DUP2 SUB PUSH1 0x0 DUP4 ADD MSTORE PUSH2 0x2CFD DUP2 PUSH2 0x294A JUMP JUMPDEST SWAP1 POP SWAP2 SWAP1 POP JUMP JUMPDEST PUSH1 0x0 PUSH1 0x20 DUP3 ADD SWAP1 POP DUP2 DUP2 SUB PUSH1 0x0 DUP4 ADD MSTORE PUSH2 0x2D1D DUP2 PUSH2 0x296D JUMP JUMPDEST SWAP1 POP SWAP2 SWAP1 POP JUMP JUMPDEST PUSH1 0x0 PUSH1 0x20 DUP3 ADD SWAP1 POP DUP2 DUP2 SUB PUSH1 0x0 DUP4 ADD MSTORE PUSH2 0x2D3D DUP2 PUSH2 0x2990 JUMP JUMPDEST SWAP1 POP SWAP2 SWAP1 POP JUMP JUMPDEST PUSH1 0x0 PUSH1 0x20 DUP3 ADD SWAP1 POP DUP2 DUP2 SUB PUSH1 0x0 DUP4 ADD MSTORE PUSH2 0x2D5D DUP2 PUSH2 0x29B3 JUMP JUMPDEST SWAP1 POP SWAP2 SWAP1 POP JUMP JUMPDEST PUSH1 0x0 PUSH1 0x20 DUP3 ADD SWAP1 POP DUP2 DUP2 SUB PUSH1 0x0 DUP4 ADD MSTORE PUSH2 0x2D7D DUP2 PUSH2 0x29D6 JUMP JUMPDEST SWAP1 POP SWAP2 SWAP1 POP JUMP JUMPDEST PUSH1 0x0 PUSH2 0x2D8E PUSH2 0x2D9F JUMP JUMPDEST SWAP1 POP PUSH2 0x2D9A DUP3 DUP3 PUSH2 0x3077 JUMP JUMPDEST SWAP2 SWAP1 POP JUMP JUMPDEST PUSH1 0x0 PUSH1 0x40 MLOAD SWAP1 POP SWAP1 JUMP JUMPDEST PUSH1 0x0 PUSH8 0xFFFFFFFFFFFFFFFF DUP3 GT ISZERO PUSH2 0x2DC4 JUMPI PUSH2 0x2DC3 PUSH2 0x31DC JUMP JUMPDEST JUMPDEST PUSH1 0x20 DUP3 MUL SWAP1 POP PUSH1 0x20 DUP2 ADD SWAP1 POP SWAP2 SWAP1 POP JUMP JUMPDEST PUSH1 0x0 PUSH8 0xFFFFFFFFFFFFFFFF DUP3 GT ISZERO PUSH2 0x2DF0 JUMPI PUSH2 0x2DEF PUSH2 0x31DC JUMP JUMPDEST JUMPDEST PUSH1 0x20 DUP3 MUL SWAP1 POP PUSH1 0x20 DUP2 ADD SWAP1 POP SWAP2 SWAP1 POP JUMP JUMPDEST PUSH1 0x0 PUSH8 0xFFFFFFFFFFFFFFFF DUP3 GT ISZERO PUSH2 0x2E1C JUMPI PUSH2 0x2E1B PUSH2 0x31DC JUMP JUMPDEST JUMPDEST PUSH2 0x2E25 DUP3 PUSH2 0x3224 JUMP JUMPDEST SWAP1 POP PUSH1 0x20 DUP2 ADD SWAP1 POP SWAP2 SWAP1 POP JUMP JUMPDEST PUSH1 0x0 DUP2 SWAP1 POP DUP2 PUSH1 0x0 MSTORE PUSH1 0x20 PUSH1 0x0 KECCAK256 SWAP1 POP SWAP2 SWAP1 POP JUMP JUMPDEST PUSH1 0x0 DUP2 MLOAD SWAP1 POP SWAP2 SWAP1 POP JUMP JUMPDEST PUSH1 0x0 DUP3 DUP3 MSTORE PUSH1 0x20 DUP3 ADD SWAP1 POP SWAP3 SWAP2 POP POP JUMP JUMPDEST PUSH1 0x0 DUP2 SWAP1 POP SWAP3 SWAP2 POP POP JUMP JUMPDEST PUSH1 0x0 PUSH2 0x2E79 DUP3 PUSH2 0x2FEC JUMP JUMPDEST SWAP2 POP PUSH2 0x2E84 DUP4 PUSH2 0x2FEC JUMP JUMPDEST SWAP3 POP DUP3 PUSH32 0xFFFFFFFFFFFFFFFFFFFFFFFFFFFFFFFFFFFFFFFFFFFFFFFFFFFFFFFFFFFFFFFF SUB DUP3 GT ISZERO PUSH2 0x2EB9 JUMPI PUSH2 0x2EB8 PUSH2 0x30F1 JUMP JUMPDEST JUMPDEST DUP3 DUP3 ADD SWAP1 POP SWAP3 SWAP2 POP POP JUMP JUMPDEST PUSH1 0x0 PUSH2 0x2ECF DUP3 PUSH2 0x2FF6 JUMP JUMPDEST SWAP2 POP PUSH2 0x2EDA DUP4 PUSH2 0x2FF6 JUMP JUMPDEST SWAP3 POP DUP3 PUSH1 0xFF SUB DUP3 GT ISZERO PUSH2 0x2EF0 JUMPI PUSH2 0x2EEF PUSH2 0x30F1 JUMP JUMPDEST JUMPDEST DUP3 DUP3 ADD SWAP1 POP SWAP3 SWAP2 POP POP JUMP JUMPDEST PUSH1 0x0 PUSH2 0x2F06 DUP3 PUSH2 0x2FEC JUMP JUMPDEST SWAP2 POP PUSH2 0x2F11 DUP4 PUSH2 0x2FEC JUMP JUMPDEST SWAP3 POP DUP3 PUSH2 0x2F21 JUMPI PUSH2 0x2F20 PUSH2 0x3120 JUMP JUMPDEST JUMPDEST DUP3 DUP3 DIV SWAP1 POP SWAP3 SWAP2 POP POP JUMP JUMPDEST PUSH1 0x0 PUSH2 0x2F37 DUP3 PUSH2 0x2FEC JUMP JUMPDEST SWAP2 POP PUSH2 0x2F42 DUP4 PUSH2 0x2FEC JUMP JUMPDEST SWAP3 POP DUP2 PUSH32 0xFFFFFFFFFFFFFFFFFFFFFFFFFFFFFFFFFFFFFFFFFFFFFFFFFFFFFFFFFFFFFFFF DIV DUP4 GT DUP3 ISZERO ISZERO AND ISZERO PUSH2 0x2F7B JUMPI PUSH2 0x2F7A PUSH2 0x30F1 JUMP JUMPDEST JUMPDEST DUP3 DUP3 MUL SWAP1 POP SWAP3 SWAP2 POP POP JUMP JUMPDEST PUSH1 0x0 PUSH2 0x2F91 DUP3 PUSH2 0x2FEC JUMP JUMPDEST SWAP2 POP PUSH2 0x2F9C DUP4 PUSH2 0x2FEC JUMP JUMPDEST SWAP3 POP DUP3 DUP3 LT ISZERO PUSH2 0x2FAF JUMPI PUSH2 0x2FAE PUSH2 0x30F1 JUMP JUMPDEST JUMPDEST DUP3 DUP3 SUB SWAP1 POP SWAP3 SWAP2 POP POP JUMP JUMPDEST PUSH1 0x0 PUSH2 0x2FC5 DUP3 PUSH2 0x2FCC JUMP JUMPDEST SWAP1 POP SWAP2 SWAP1 POP JUMP JUMPDEST PUSH1 0x0 PUSH20 0xFFFFFFFFFFFFFFFFFFFFFFFFFFFFFFFFFFFFFFFF DUP3 AND SWAP1 POP SWAP2 SWAP1 POP JUMP JUMPDEST PUSH1 0x0 DUP2 SWAP1 POP SWAP2 SWAP1 POP JUMP JUMPDEST PUSH1 0x0 PUSH1 0xFF DUP3 AND SWAP1 POP SWAP2 SWAP1 POP JUMP JUMPDEST DUP3 DUP2 DUP4 CALLDATACOPY PUSH1 0x0 DUP4 DUP4 ADD MSTORE POP POP POP JUMP JUMPDEST PUSH1 0x0 JUMPDEST DUP4 DUP2 LT ISZERO PUSH2 0x3030 JUMPI DUP1 DUP3 ADD MLOAD DUP2 DUP5 ADD MSTORE PUSH1 0x20 DUP2 ADD SWAP1 POP PUSH2 0x3015 JUMP JUMPDEST DUP4 DUP2 GT ISZERO PUSH2 0x303F JUMPI PUSH1 0x0 DUP5 DUP5 ADD MSTORE JUMPDEST POP POP POP POP JUMP JUMPDEST PUSH1 0x0 PUSH1 0x2 DUP3 DIV SWAP1 POP PUSH1 0x1 DUP3 AND DUP1 PUSH2 0x305D JUMPI PUSH1 0x7F DUP3 AND SWAP2 POP JUMPDEST PUSH1 0x20 DUP3 LT DUP2 EQ ISZERO PUSH2 0x3071 JUMPI PUSH2 0x3070 PUSH2 0x317E JUMP JUMPDEST JUMPDEST POP SWAP2 SWAP1 POP JUMP JUMPDEST PUSH2 0x3080 DUP3 PUSH2 0x3224 JUMP JUMPDEST DUP2 ADD DUP2 DUP2 LT PUSH8 0xFFFFFFFFFFFFFFFF DUP3 GT OR ISZERO PUSH2 0x309F JUMPI PUSH2 0x309E PUSH2 0x31DC JUMP JUMPDEST JUMPDEST DUP1 PUSH1 0x40 MSTORE POP POP POP JUMP JUMPDEST PUSH1 0x0 PUSH2 0x30B3 DUP3 PUSH2 0x2FEC JUMP JUMPDEST SWAP2 POP PUSH32 0xFFFFFFFFFFFFFFFFFFFFFFFFFFFFFFFFFFFFFFFFFFFFFFFFFFFFFFFFFFFFFFFF DUP3 EQ ISZERO PUSH2 0x30E6 JUMPI PUSH2 0x30E5 PUSH2 0x30F1 JUMP JUMPDEST JUMPDEST PUSH1 0x1 DUP3 ADD SWAP1 POP SWAP2 SWAP1 POP JUMP JUMPDEST PUSH32 0x4E487B7100000000000000000000000000000000000000000000000000000000 PUSH1 0x0 MSTORE PUSH1 0x11 PUSH1 0x4 MSTORE PUSH1 0x24 PUSH1 0x0 REVERT JUMPDEST PUSH32 0x4E487B7100000000000000000000000000000000000000000000000000000000 PUSH1 0x0 MSTORE PUSH1 0x12 PUSH1 0x4 MSTORE PUSH1 0x24 PUSH1 0x0 REVERT JUMPDEST PUSH32 0x4E487B7100000000000000000000000000000000000000000000000000000000 PUSH1 0x0 MSTORE PUSH1 0x21 PUSH1 0x4 MSTORE PUSH1 0x24 PUSH1 0x0 REVERT JUMPDEST PUSH32 0x4E487B7100000000000000000000000000000000000000000000000000000000 PUSH1 0x0 MSTORE PUSH1 0x22 PUSH1 0x4 MSTORE PUSH1 0x24 PUSH1 0x0 REVERT JUMPDEST PUSH32 0x4E487B7100000000000000000000000000000000000000000000000000000000 PUSH1 0x0 MSTORE PUSH1 0x32 PUSH1 0x4 MSTORE PUSH1 0x24 PUSH1 0x0 REVERT JUMPDEST PUSH32 0x4E487B7100000000000000000000000000000000000000000000000000000000 PUSH1 0x0 MSTORE PUSH1 0x41 PUSH1 0x4 MSTORE PUSH1 0x24 PUSH1 0x0 REVERT JUMPDEST PUSH1 0x0 DUP1 REVERT JUMPDEST PUSH1 0x0 DUP1 REVERT JUMPDEST PUSH1 0x0 DUP1 REVERT JUMPDEST PUSH1 0x0 DUP1 REVERT JUMPDEST PUSH1 0x0 DUP1 REVERT JUMPDEST PUSH1 0x0 PUSH1 0x1F NOT PUSH1 0x1F DUP4 ADD AND SWAP1 POP SWAP2 SWAP1 POP JUMP JUMPDEST PUSH32 0x43616E277420736574206361707461696E7320666F72207468652066616E7461 PUSH1 0x0 DUP3 ADD MSTORE PUSH32 0x7379207465616D206E6F77000000000000000000000000000000000000000000 PUSH1 0x20 DUP3 ADD MSTORE POP JUMP JUMPDEST PUSH32 0x5465616D20646F6573206E6F742065786973747320666F722074686520757365 PUSH1 0x0 DUP3 ADD MSTORE PUSH32 0x7200000000000000000000000000000000000000000000000000000000000000 PUSH1 0x20 DUP3 ADD MSTORE POP JUMP JUMPDEST PUSH32 0x5465616D20616C72656164792065786973747320666F72207468652075736572 PUSH1 0x0 DUP3 ADD MSTORE POP JUMP JUMPDEST PUSH32 0xA00000000000000000000000000000000000000000000000000000000000000 PUSH1 0x0 DUP3 ADD MSTORE POP JUMP JUMPDEST PUSH32 0x47616D6520686173206E6F742073746F70706564000000000000000000000000 PUSH1 0x0 DUP3 ADD MSTORE POP JUMP JUMPDEST PUSH32 0x3B20506C61796572204E616D653A200000000000000000000000000000000000 PUSH1 0x0 DUP3 ADD MSTORE POP JUMP JUMPDEST PUSH32 0x4120706C617965722063616E206E6F74206265204361707461696E20616E6420 PUSH1 0x0 DUP3 ADD MSTORE PUSH32 0x56696365204361707461696E206174207468652073616D652074696D65000000 PUSH1 0x20 DUP3 ADD MSTORE POP JUMP JUMPDEST PUSH32 0x506C61796572732063616E277420626520616464656420746F2066616E746173 PUSH1 0x0 DUP3 ADD MSTORE PUSH32 0x79207465616D206E6F7700000000000000000000000000000000000000000000 PUSH1 0x20 DUP3 ADD MSTORE POP JUMP JUMPDEST PUSH32 0x506C6179657220616C726561647920696E20746865207465616D000000000000 PUSH1 0x0 DUP3 ADD MSTORE POP JUMP JUMPDEST PUSH32 0x43616E27742073657420706C617965722773207374617473206E6F7700000000 PUSH1 0x0 DUP3 ADD MSTORE POP JUMP JUMPDEST PUSH32 0x43616E27742062696420616761696E0000000000000000000000000000000000 PUSH1 0x0 DUP3 ADD MSTORE POP JUMP JUMPDEST PUSH32 0x506C617965722049443A20000000000000000000000000000000000000000000 PUSH1 0x0 DUP3 ADD MSTORE POP JUMP JUMPDEST PUSH32 0x506C61796572732063616E2774206265206C6973746564206E6F770000000000 PUSH1 0x0 DUP3 ADD MSTORE POP JUMP JUMPDEST PUSH32 0x426964732063616E277420626520706C61636564206E6F770000000000000000 PUSH1 0x0 DUP3 ADD MSTORE POP JUMP JUMPDEST PUSH32 0x56696365204361707461696E206E6F7420616464656400000000000000000000 PUSH1 0x0 DUP3 ADD MSTORE POP JUMP JUMPDEST PUSH32 0x506C6179657220646F6573206E6F742065786973740000000000000000000000 PUSH1 0x0 DUP3 ADD MSTORE POP JUMP JUMPDEST PUSH32 0x46616E74617379207465616D732063616E2774206265206164646564206E6F77 PUSH1 0x0 DUP3 ADD MSTORE POP JUMP JUMPDEST PUSH32 0x43616E27742061646420706C61796572206E6F77000000000000000000000000 PUSH1 0x0 DUP3 ADD MSTORE POP JUMP JUMPDEST PUSH32 0x47616D6520616C726561647920696E2070726F67726573730000000000000000 PUSH1 0x0 DUP3 ADD MSTORE POP JUMP JUMPDEST PUSH32 0x4D7573742062652061646D696E20746F2075736520746869732066756E636974 PUSH1 0x0 DUP3 ADD MSTORE PUSH32 0x6F6E000000000000000000000000000000000000000000000000000000000000 PUSH1 0x20 DUP3 ADD MSTORE POP JUMP JUMPDEST PUSH32 0x4361707461696E206E6F74206164646564000000000000000000000000000000 PUSH1 0x0 DUP3 ADD MSTORE POP JUMP JUMPDEST PUSH32 0x5465616D20616C72656164792046756C6C000000000000000000000000000000 PUSH1 0x0 DUP3 ADD MSTORE POP JUMP JUMPDEST PUSH32 0x43616E2774206368616E67652073746174757300000000000000000000000000 PUSH1 0x0 DUP3 ADD MSTORE POP JUMP JUMPDEST PUSH32 0x5465616D20496E636F6D706C6574650000000000000000000000000000000000 PUSH1 0x0 DUP3 ADD MSTORE POP JUMP JUMPDEST PUSH2 0x36D4 DUP2 PUSH2 0x2FEC JUMP JUMPDEST DUP2 EQ PUSH2 0x36DF JUMPI PUSH1 0x0 DUP1 REVERT JUMPDEST POP JUMP INVALID LOG2 PUSH5 0x6970667358 0x22 SLT KECCAK256 SWAP15 INVALID 0x22 EQ EXTCODEHASH 0xBA 0xE3 CALLDATALOAD 0xFC 0xB5 RETURN MOD 0x27 RETURNDATACOPY SWAP7 CALLVALUE 0xDF 0xCA DUP11 PUSH24 0x6FA69D43CC0D3877883EDE5F64736F6C6343000807003300 "
				},
				"gasEstimates": {
					"creation": {
						"codeDepositCost": "2820800",
						"executionCost": "118009",
						"totalCost": "2938809"
					},
					"external": {
						"addFantasyTeam(string)": "infinite",
						"addPlayerToFantasyTeam(uint256[])": "infinite",
						"addPlayerToGame(string[])": "infinite",
						"bid()": "infinite",
						"calculateTeamsScore()": "infinite",
						"gameBegins()": "29020",
						"gameStops()": "28954",
						"getAdmin()": "2589",
						"listPlayers()": "infinite",
						"playersAddedToGame()": "26831",
						"setCaptains(uint256,uint256)": "infinite",
						"setplayerStats(uint256,uint256,uint256)": "infinite",
						"startGame(uint256,uint256,uint256)": "infinite"
					},
					"internal": {
						"calculatePlayerScore(uint256,bool,bool)": "infinite",
						"char(bytes1)": "infinite",
						"distributeRewards()": "infinite",
						"existsPlayerIdInFantasyTeam(uint256,uint256)": "infinite",
						"getFantasyTeamID(address)": "infinite",
						"toAsciiString(address)": "infinite",
						"uint2str(uint256)": "infinite"
					}
				},
				"methodIdentifiers": {
					"addFantasyTeam(string)": "92506fae",
					"addPlayerToFantasyTeam(uint256[])": "8791c0b4",
					"addPlayerToGame(string[])": "4c4501c8",
					"bid()": "1998aeef",
					"calculateTeamsScore()": "8cc80480",
					"gameBegins()": "4526e08b",
					"gameStops()": "219b596b",
					"getAdmin()": "6e9960c3",
					"listPlayers()": "64605d51",
					"playersAddedToGame()": "2f290bfd",
					"setCaptains(uint256,uint256)": "106ecb0a",
					"setplayerStats(uint256,uint256,uint256)": "af5af0ce",
					"startGame(uint256,uint256,uint256)": "2c31d085"
				}
			},
			"storageLayout": {
				"storage": [
					{
						"astId": 3,
						"contract": "contracts/Buidl11.sol:BUIDL11",
						"label": "owner",
						"offset": 0,
						"slot": "0",
						"type": "t_address"
					},
					{
						"astId": 64,
						"contract": "contracts/Buidl11.sol:BUIDL11",
						"label": "gameStatus",
						"offset": 20,
						"slot": "0",
						"type": "t_enum(Status)30"
					},
					{
						"astId": 68,
						"contract": "contracts/Buidl11.sol:BUIDL11",
						"label": "players",
						"offset": 0,
						"slot": "1",
						"type": "t_array(t_struct(Player)43_storage)dyn_storage"
					},
					{
						"astId": 72,
						"contract": "contracts/Buidl11.sol:BUIDL11",
						"label": "fantasyTeams",
						"offset": 0,
						"slot": "2",
						"type": "t_array(t_struct(FantasyTeam)59_storage)dyn_storage"
					},
					{
						"astId": 75,
						"contract": "contracts/Buidl11.sol:BUIDL11",
						"label": "TEAM_SIZE",
						"offset": 0,
						"slot": "3",
						"type": "t_uint256"
					},
					{
						"astId": 78,
						"contract": "contracts/Buidl11.sol:BUIDL11",
						"label": "RUN_MUL",
						"offset": 0,
						"slot": "4",
						"type": "t_uint256"
					},
					{
						"astId": 81,
						"contract": "contracts/Buidl11.sol:BUIDL11",
						"label": "WICKET_MUL",
						"offset": 0,
						"slot": "5",
						"type": "t_uint256"
					}
				],
				"types": {
					"t_address": {
						"encoding": "inplace",
						"label": "address",
						"numberOfBytes": "20"
					},
					"t_array(t_struct(FantasyTeam)59_storage)dyn_storage": {
						"base": "t_struct(FantasyTeam)59_storage",
						"encoding": "dynamic_array",
						"label": "struct BUIDL11.FantasyTeam[]",
						"numberOfBytes": "32"
					},
					"t_array(t_struct(Player)43_storage)dyn_storage": {
						"base": "t_struct(Player)43_storage",
						"encoding": "dynamic_array",
						"label": "struct BUIDL11.Player[]",
						"numberOfBytes": "32"
					},
					"t_array(t_uint256)dyn_storage": {
						"base": "t_uint256",
						"encoding": "dynamic_array",
						"label": "uint256[]",
						"numberOfBytes": "32"
					},
					"t_enum(Status)30": {
						"encoding": "inplace",
						"label": "enum BUIDL11.Status",
						"numberOfBytes": "1"
					},
					"t_string_storage": {
						"encoding": "bytes",
						"label": "string",
						"numberOfBytes": "32"
					},
					"t_struct(FantasyTeam)59_storage": {
						"encoding": "inplace",
						"label": "struct BUIDL11.FantasyTeam",
						"members": [
							{
								"astId": 45,
								"contract": "contracts/Buidl11.sol:BUIDL11",
								"label": "ownerId",
								"offset": 0,
								"slot": "0",
								"type": "t_address"
							},
							{
								"astId": 47,
								"contract": "contracts/Buidl11.sol:BUIDL11",
								"label": "name",
								"offset": 0,
								"slot": "1",
								"type": "t_string_storage"
							},
							{
								"astId": 50,
								"contract": "contracts/Buidl11.sol:BUIDL11",
								"label": "playerIds",
								"offset": 0,
								"slot": "2",
								"type": "t_array(t_uint256)dyn_storage"
							},
							{
								"astId": 52,
								"contract": "contracts/Buidl11.sol:BUIDL11",
								"label": "captainId",
								"offset": 0,
								"slot": "3",
								"type": "t_uint256"
							},
							{
								"astId": 54,
								"contract": "contracts/Buidl11.sol:BUIDL11",
								"label": "viceCaptainId",
								"offset": 0,
								"slot": "4",
								"type": "t_uint256"
							},
							{
								"astId": 56,
								"contract": "contracts/Buidl11.sol:BUIDL11",
								"label": "bid",
								"offset": 0,
								"slot": "5",
								"type": "t_uint256"
							},
							{
								"astId": 58,
								"contract": "contracts/Buidl11.sol:BUIDL11",
								"label": "score",
								"offset": 0,
								"slot": "6",
								"type": "t_uint256"
							}
						],
						"numberOfBytes": "224"
					},
					"t_struct(Player)43_storage": {
						"encoding": "inplace",
						"label": "struct BUIDL11.Player",
						"members": [
							{
								"astId": 37,
								"contract": "contracts/Buidl11.sol:BUIDL11",
								"label": "id",
								"offset": 0,
								"slot": "0",
								"type": "t_uint256"
							},
							{
								"astId": 39,
								"contract": "contracts/Buidl11.sol:BUIDL11",
								"label": "name",
								"offset": 0,
								"slot": "1",
								"type": "t_string_storage"
							},
							{
								"astId": 42,
								"contract": "contracts/Buidl11.sol:BUIDL11",
								"label": "stats",
								"offset": 0,
								"slot": "2",
								"type": "t_struct(PlayerStats)35_storage"
							}
						],
						"numberOfBytes": "128"
					},
					"t_struct(PlayerStats)35_storage": {
						"encoding": "inplace",
						"label": "struct BUIDL11.PlayerStats",
						"members": [
							{
								"astId": 32,
								"contract": "contracts/Buidl11.sol:BUIDL11",
								"label": "runs",
								"offset": 0,
								"slot": "0",
								"type": "t_uint256"
							},
							{
								"astId": 34,
								"contract": "contracts/Buidl11.sol:BUIDL11",
								"label": "wickets",
								"offset": 0,
								"slot": "1",
								"type": "t_uint256"
							}
						],
						"numberOfBytes": "64"
					},
					"t_uint256": {
						"encoding": "inplace",
						"label": "uint256",
						"numberOfBytes": "32"
					}
				}
			},
			"userdoc": {
				"kind": "user",
				"methods": {},
				"version": 1
			}
		}
	}
}