{
	"contracts/Buidl11.sol": {
		"BUIDL11": {
			"abi": [
				{
					"inputs": [],
					"stateMutability": "nonpayable",
					"type": "constructor"
				},
				{
					"inputs": [
						{
							"internalType": "string",
							"name": "teamName",
							"type": "string"
						}
					],
					"name": "addFantasyTeam",
					"outputs": [],
					"stateMutability": "nonpayable",
					"type": "function"
				},
				{
					"inputs": [
						{
							"internalType": "uint256[]",
							"name": "_playerIDs",
							"type": "uint256[]"
						}
					],
					"name": "addPlayerToFantasyTeam",
					"outputs": [],
					"stateMutability": "nonpayable",
					"type": "function"
				},
				{
					"inputs": [
						{
							"internalType": "string",
							"name": "playerName",
							"type": "string"
						}
					],
					"name": "addPlayerToGame",
					"outputs": [],
					"stateMutability": "nonpayable",
					"type": "function"
				},
				{
					"inputs": [],
					"name": "bid",
					"outputs": [],
					"stateMutability": "payable",
					"type": "function"
				},
				{
					"inputs": [],
					"name": "calculateTeamsScore",
					"outputs": [],
					"stateMutability": "nonpayable",
					"type": "function"
				},
				{
					"inputs": [],
					"name": "gameBegins",
					"outputs": [],
					"stateMutability": "nonpayable",
					"type": "function"
				},
				{
					"inputs": [],
					"name": "gameStops",
					"outputs": [],
					"stateMutability": "nonpayable",
					"type": "function"
				},
				{
					"inputs": [],
					"name": "getAdmin",
					"outputs": [
						{
							"internalType": "address",
							"name": "",
							"type": "address"
						}
					],
					"stateMutability": "view",
					"type": "function"
				},
				{
					"inputs": [],
					"name": "listPlayers",
					"outputs": [
						{
							"internalType": "string",
							"name": "",
							"type": "string"
						}
					],
					"stateMutability": "view",
					"type": "function"
				},
				{
					"inputs": [],
					"name": "playersAddedToGame",
					"outputs": [],
					"stateMutability": "nonpayable",
					"type": "function"
				},
				{
					"inputs": [
						{
							"internalType": "uint256",
							"name": "captainID",
							"type": "uint256"
						},
						{
							"internalType": "uint256",
							"name": "viceCaptainID",
							"type": "uint256"
						}
					],
					"name": "setCaptains",
					"outputs": [],
					"stateMutability": "nonpayable",
					"type": "function"
				},
				{
					"inputs": [
						{
							"internalType": "uint256",
							"name": "playerID",
							"type": "uint256"
						},
						{
							"internalType": "uint256",
							"name": "runs",
							"type": "uint256"
						},
						{
							"internalType": "uint256",
							"name": "wickets",
							"type": "uint256"
						}
					],
					"name": "setplayerStats",
					"outputs": [],
					"stateMutability": "nonpayable",
					"type": "function"
				},
				{
					"inputs": [
						{
							"internalType": "uint256",
							"name": "teamSize",
							"type": "uint256"
						},
						{
							"internalType": "uint256",
							"name": "runMul",
							"type": "uint256"
						},
						{
							"internalType": "uint256",
							"name": "wicketMul",
							"type": "uint256"
						}
					],
					"name": "startGame",
					"outputs": [],
					"stateMutability": "nonpayable",
					"type": "function"
				}
			],
			"devdoc": {
				"kind": "dev",
				"methods": {},
				"version": 1
			},
			"evm": {
				"assembly": "    /* \"contracts/Buidl11.sol\":64:10994  contract BUIDL11 {\r... */\n  mstore(0x40, 0x80)\n    /* \"contracts/Buidl11.sol\":873:899  Status.NO_GAME_IN_PROGRESS */\n  0x00\n    /* \"contracts/Buidl11.sol\":853:899  Status gameStatus = Status.NO_GAME_IN_PROGRESS */\n  dup1\n  exp(0x0100, 0x14)\n  dup2\n  sload\n  dup2\n  0xff\n  mul\n  not\n  and\n  swap1\n  dup4\n  0x04\n  dup2\n  gt\n  iszero\n  tag_1\n  jumpi\n  tag_2\n  tag_3\n  jump\t// in\ntag_2:\ntag_1:\n  mul\n  or\n  swap1\n  sstore\n  pop\n    /* \"contracts/Buidl11.sol\":982:983  1 */\n  0x01\n    /* \"contracts/Buidl11.sol\":962:983  uint256 TEAM_SIZE = 1 */\n  0x03\n  sstore\n    /* \"contracts/Buidl11.sol\":1008:1009  1 */\n  0x01\n    /* \"contracts/Buidl11.sol\":990:1009  uint256 RUN_MUL = 1 */\n  0x04\n  sstore\n    /* \"contracts/Buidl11.sol\":1037:1039  50 */\n  0x32\n    /* \"contracts/Buidl11.sol\":1016:1039  uint256 WICKET_MUL = 50 */\n  0x05\n  sstore\n    /* \"contracts/Buidl11.sol\":113:170  constructor() public{\r... */\n  callvalue\n  dup1\n  iszero\n  tag_4\n  jumpi\n  0x00\n  dup1\n  revert\ntag_4:\n  pop\n    /* \"contracts/Buidl11.sol\":152:162  msg.sender */\n  caller\n    /* \"contracts/Buidl11.sol\":144:149  owner */\n  0x00\n  dup1\n    /* \"contracts/Buidl11.sol\":144:162  owner = msg.sender */\n  0x0100\n  exp\n  dup2\n  sload\n  dup2\n  0xffffffffffffffffffffffffffffffffffffffff\n  mul\n  not\n  and\n  swap1\n  dup4\n  0xffffffffffffffffffffffffffffffffffffffff\n  and\n  mul\n  or\n  swap1\n  sstore\n  pop\n    /* \"contracts/Buidl11.sol\":64:10994  contract BUIDL11 {\r... */\n  jump(tag_7)\n    /* \"#utility.yul\":7:187   */\ntag_3:\n    /* \"#utility.yul\":55:132   */\n  0x4e487b7100000000000000000000000000000000000000000000000000000000\n    /* \"#utility.yul\":52:53   */\n  0x00\n    /* \"#utility.yul\":45:133   */\n  mstore\n    /* \"#utility.yul\":152:156   */\n  0x21\n    /* \"#utility.yul\":149:150   */\n  0x04\n    /* \"#utility.yul\":142:157   */\n  mstore\n    /* \"#utility.yul\":176:180   */\n  0x24\n    /* \"#utility.yul\":173:174   */\n  0x00\n    /* \"#utility.yul\":166:181   */\n  revert\n    /* \"contracts/Buidl11.sol\":64:10994  contract BUIDL11 {\r... */\ntag_7:\n  dataSize(sub_0)\n  dup1\n  dataOffset(sub_0)\n  0x00\n  codecopy\n  0x00\n  return\nstop\n\nsub_0: assembly {\n        /* \"contracts/Buidl11.sol\":64:10994  contract BUIDL11 {\r... */\n      mstore(0x40, 0x80)\n      jumpi(tag_1, lt(calldatasize, 0x04))\n      shr(0xe0, calldataload(0x00))\n      dup1\n      0x64605d51\n      gt\n      tag_15\n      jumpi\n      dup1\n      0x8791c0b4\n      gt\n      tag_16\n      jumpi\n      dup1\n      0x8791c0b4\n      eq\n      tag_11\n      jumpi\n      dup1\n      0x8cc80480\n      eq\n      tag_12\n      jumpi\n      dup1\n      0x92506fae\n      eq\n      tag_13\n      jumpi\n      dup1\n      0xaf5af0ce\n      eq\n      tag_14\n      jumpi\n      jump(tag_1)\n    tag_16:\n      dup1\n      0x64605d51\n      eq\n      tag_8\n      jumpi\n      dup1\n      0x6e23d858\n      eq\n      tag_9\n      jumpi\n      dup1\n      0x6e9960c3\n      eq\n      tag_10\n      jumpi\n      jump(tag_1)\n    tag_15:\n      dup1\n      0x106ecb0a\n      eq\n      tag_2\n      jumpi\n      dup1\n      0x1998aeef\n      eq\n      tag_3\n      jumpi\n      dup1\n      0x219b596b\n      eq\n      tag_4\n      jumpi\n      dup1\n      0x2c31d085\n      eq\n      tag_5\n      jumpi\n      dup1\n      0x2f290bfd\n      eq\n      tag_6\n      jumpi\n      dup1\n      0x4526e08b\n      eq\n      tag_7\n      jumpi\n    tag_1:\n      0x00\n      dup1\n      revert\n        /* \"contracts/Buidl11.sol\":4461:5351  function setCaptains(uint256 captainID, uint256 viceCaptainID) public \r... */\n    tag_2:\n      callvalue\n      dup1\n      iszero\n      tag_17\n      jumpi\n      0x00\n      dup1\n      revert\n    tag_17:\n      pop\n      tag_18\n      0x04\n      dup1\n      calldatasize\n      sub\n      dup2\n      add\n      swap1\n      tag_19\n      swap2\n      swap1\n      tag_20\n      jump\t// in\n    tag_19:\n      tag_21\n      jump\t// in\n    tag_18:\n      stop\n        /* \"contracts/Buidl11.sol\":5364:5924  function bid() public payable {\r... */\n    tag_3:\n      tag_22\n      tag_23\n      jump\t// in\n    tag_22:\n      stop\n        /* \"contracts/Buidl11.sol\":6504:6663  function gameStops() public isOwner{\r... */\n    tag_4:\n      callvalue\n      dup1\n      iszero\n      tag_24\n      jumpi\n      0x00\n      dup1\n      revert\n    tag_24:\n      pop\n      tag_25\n      tag_26\n      jump\t// in\n    tag_25:\n      stop\n        /* \"contracts/Buidl11.sol\":1197:1607  function startGame(uint256 teamSize, uint256 runMul, uint256 wicketMul) public isOwner{\r... */\n    tag_5:\n      callvalue\n      dup1\n      iszero\n      tag_27\n      jumpi\n      0x00\n      dup1\n      revert\n    tag_27:\n      pop\n      tag_28\n      0x04\n      dup1\n      calldatasize\n      sub\n      dup2\n      add\n      swap1\n      tag_29\n      swap2\n      swap1\n      tag_30\n      jump\t// in\n    tag_29:\n      tag_31\n      jump\t// in\n    tag_28:\n      stop\n        /* \"contracts/Buidl11.sol\":2719:2884  function playersAddedToGame() public {\r... */\n    tag_6:\n      callvalue\n      dup1\n      iszero\n      tag_32\n      jumpi\n      0x00\n      dup1\n      revert\n    tag_32:\n      pop\n      tag_33\n      tag_34\n      jump\t// in\n    tag_33:\n      stop\n        /* \"contracts/Buidl11.sol\":5937:6100  function gameBegins() public isOwner{\r... */\n    tag_7:\n      callvalue\n      dup1\n      iszero\n      tag_35\n      jumpi\n      0x00\n      dup1\n      revert\n    tag_35:\n      pop\n      tag_36\n      tag_37\n      jump\t// in\n    tag_36:\n      stop\n        /* \"contracts/Buidl11.sol\":10155:10991  function listPlayers() public view returns (string memory) {\r... */\n    tag_8:\n      callvalue\n      dup1\n      iszero\n      tag_38\n      jumpi\n      0x00\n      dup1\n      revert\n    tag_38:\n      pop\n      tag_39\n      tag_40\n      jump\t// in\n    tag_39:\n      mload(0x40)\n      tag_41\n      swap2\n      swap1\n      tag_42\n      jump\t// in\n    tag_41:\n      mload(0x40)\n      dup1\n      swap2\n      sub\n      swap1\n      return\n        /* \"contracts/Buidl11.sol\":1701:1992  function addPlayerToGame(string memory playerName) public {\r... */\n    tag_9:\n      callvalue\n      dup1\n      iszero\n      tag_43\n      jumpi\n      0x00\n      dup1\n      revert\n    tag_43:\n      pop\n      tag_44\n      0x04\n      dup1\n      calldatasize\n      sub\n      dup2\n      add\n      swap1\n      tag_45\n      swap2\n      swap1\n      tag_46\n      jump\t// in\n    tag_45:\n      tag_47\n      jump\t// in\n    tag_44:\n      stop\n        /* \"contracts/Buidl11.sol\":1613:1692  function getAdmin() public view returns(address){\r... */\n    tag_10:\n      callvalue\n      dup1\n      iszero\n      tag_48\n      jumpi\n      0x00\n      dup1\n      revert\n    tag_48:\n      pop\n      tag_49\n      tag_50\n      jump\t// in\n    tag_49:\n      mload(0x40)\n      tag_51\n      swap2\n      swap1\n      tag_52\n      jump\t// in\n    tag_51:\n      mload(0x40)\n      dup1\n      swap2\n      sub\n      swap1\n      return\n        /* \"contracts/Buidl11.sol\":3508:4447  function addPlayerToFantasyTeam(uint256[] memory _playerIDs) public \r... */\n    tag_11:\n      callvalue\n      dup1\n      iszero\n      tag_53\n      jumpi\n      0x00\n      dup1\n      revert\n    tag_53:\n      pop\n      tag_54\n      0x04\n      dup1\n      calldatasize\n      sub\n      dup2\n      add\n      swap1\n      tag_55\n      swap2\n      swap1\n      tag_56\n      jump\t// in\n    tag_55:\n      tag_57\n      jump\t// in\n    tag_54:\n      stop\n        /* \"contracts/Buidl11.sol\":8205:8861  function calculateTeamsScore() public {\r... */\n    tag_12:\n      callvalue\n      dup1\n      iszero\n      tag_58\n      jumpi\n      0x00\n      dup1\n      revert\n    tag_58:\n      pop\n      tag_59\n      tag_60\n      jump\t// in\n    tag_59:\n      stop\n        /* \"contracts/Buidl11.sol\":2897:3498  function addFantasyTeam(string memory teamName) public {\r... */\n    tag_13:\n      callvalue\n      dup1\n      iszero\n      tag_61\n      jumpi\n      0x00\n      dup1\n      revert\n    tag_61:\n      pop\n      tag_62\n      0x04\n      dup1\n      calldatasize\n      sub\n      dup2\n      add\n      swap1\n      tag_63\n      swap2\n      swap1\n      tag_46\n      jump\t// in\n    tag_63:\n      tag_64\n      jump\t// in\n    tag_62:\n      stop\n        /* \"contracts/Buidl11.sol\":6114:6496  function setplayerStats(\r... */\n    tag_14:\n      callvalue\n      dup1\n      iszero\n      tag_65\n      jumpi\n      0x00\n      dup1\n      revert\n    tag_65:\n      pop\n      tag_66\n      0x04\n      dup1\n      calldatasize\n      sub\n      dup2\n      add\n      swap1\n      tag_67\n      swap2\n      swap1\n      tag_30\n      jump\t// in\n    tag_67:\n      tag_68\n      jump\t// in\n    tag_66:\n      stop\n        /* \"contracts/Buidl11.sol\":4461:5351  function setCaptains(uint256 captainID, uint256 viceCaptainID) public \r... */\n    tag_21:\n        /* \"contracts/Buidl11.sol\":4555:4564  captainID */\n      dup2\n        /* \"contracts/Buidl11.sol\":1129:1136  players */\n      0x01\n        /* \"contracts/Buidl11.sol\":1129:1143  players.length */\n      dup1\n      sload\n      swap1\n      pop\n        /* \"contracts/Buidl11.sol\":1118:1126  playerID */\n      dup2\n        /* \"contracts/Buidl11.sol\":1118:1143  playerID < players.length */\n      lt\n        /* \"contracts/Buidl11.sol\":1110:1169  require(playerID < players.length, \"Player does not exist\") */\n      tag_70\n      jumpi\n      mload(0x40)\n      0x08c379a000000000000000000000000000000000000000000000000000000000\n      dup2\n      mstore\n      0x04\n      add\n      tag_71\n      swap1\n      tag_72\n      jump\t// in\n    tag_71:\n      mload(0x40)\n      dup1\n      swap2\n      sub\n      swap1\n      revert\n    tag_70:\n        /* \"contracts/Buidl11.sol\":4589:4602  viceCaptainID */\n      dup2\n        /* \"contracts/Buidl11.sol\":1129:1136  players */\n      0x01\n        /* \"contracts/Buidl11.sol\":1129:1143  players.length */\n      dup1\n      sload\n      swap1\n      pop\n        /* \"contracts/Buidl11.sol\":1118:1126  playerID */\n      dup2\n        /* \"contracts/Buidl11.sol\":1118:1143  playerID < players.length */\n      lt\n        /* \"contracts/Buidl11.sol\":1110:1169  require(playerID < players.length, \"Player does not exist\") */\n      tag_74\n      jumpi\n      mload(0x40)\n      0x08c379a000000000000000000000000000000000000000000000000000000000\n      dup2\n      mstore\n      0x04\n      add\n      tag_75\n      swap1\n      tag_72\n      jump\t// in\n    tag_75:\n      mload(0x40)\n      dup1\n      swap2\n      sub\n      swap1\n      revert\n    tag_74:\n        /* \"contracts/Buidl11.sol\":4656:4676  Status.PRE_GAME_USER */\n      0x02\n        /* \"contracts/Buidl11.sol\":4642:4676  gameStatus == Status.PRE_GAME_USER */\n      0x04\n      dup2\n      gt\n      iszero\n      tag_77\n      jumpi\n      tag_78\n      tag_79\n      jump\t// in\n    tag_78:\n    tag_77:\n        /* \"contracts/Buidl11.sol\":4642:4652  gameStatus */\n      0x00\n      0x14\n      swap1\n      sload\n      swap1\n      0x0100\n      exp\n      swap1\n      div\n      0xff\n      and\n        /* \"contracts/Buidl11.sol\":4642:4676  gameStatus == Status.PRE_GAME_USER */\n      0x04\n      dup2\n      gt\n      iszero\n      tag_80\n      jumpi\n      tag_81\n      tag_79\n      jump\t// in\n    tag_81:\n    tag_80:\n      eq\n        /* \"contracts/Buidl11.sol\":4620:4747  require(\r... */\n      tag_82\n      jumpi\n      mload(0x40)\n      0x08c379a000000000000000000000000000000000000000000000000000000000\n      dup2\n      mstore\n      0x04\n      add\n      tag_83\n      swap1\n      tag_84\n      jump\t// in\n    tag_83:\n      mload(0x40)\n      dup1\n      swap2\n      sub\n      swap1\n      revert\n    tag_82:\n        /* \"contracts/Buidl11.sol\":4760:4781  uint256 fantasyTeamID */\n      0x00\n        /* \"contracts/Buidl11.sol\":4784:4812  getFantasyTeamID(msg.sender) */\n      tag_85\n        /* \"contracts/Buidl11.sol\":4801:4811  msg.sender */\n      caller\n        /* \"contracts/Buidl11.sol\":4784:4800  getFantasyTeamID */\n      tag_86\n        /* \"contracts/Buidl11.sol\":4784:4812  getFantasyTeamID(msg.sender) */\n      jump\t// in\n    tag_85:\n        /* \"contracts/Buidl11.sol\":4760:4812  uint256 fantasyTeamID = getFantasyTeamID(msg.sender) */\n      swap1\n      pop\n        /* \"contracts/Buidl11.sol\":4862:4874  fantasyTeams */\n      0x02\n        /* \"contracts/Buidl11.sol\":4862:4881  fantasyTeams.length */\n      dup1\n      sload\n      swap1\n      pop\n        /* \"contracts/Buidl11.sol\":4845:4858  fantasyTeamID */\n      dup2\n        /* \"contracts/Buidl11.sol\":4845:4881  fantasyTeamID != fantasyTeams.length */\n      eq\n      iszero\n        /* \"contracts/Buidl11.sol\":4823:4942  require(\r... */\n      tag_87\n      jumpi\n      mload(0x40)\n      0x08c379a000000000000000000000000000000000000000000000000000000000\n      dup2\n      mstore\n      0x04\n      add\n      tag_88\n      swap1\n      tag_89\n      jump\t// in\n    tag_88:\n      mload(0x40)\n      dup1\n      swap2\n      sub\n      swap1\n      revert\n    tag_87:\n        /* \"contracts/Buidl11.sol\":4975:5028  existsPlayerIdInFantasyTeam(captainID, fantasyTeamID) */\n      tag_90\n        /* \"contracts/Buidl11.sol\":5003:5012  captainID */\n      dup6\n        /* \"contracts/Buidl11.sol\":5014:5027  fantasyTeamID */\n      dup3\n        /* \"contracts/Buidl11.sol\":4975:5002  existsPlayerIdInFantasyTeam */\n      tag_91\n        /* \"contracts/Buidl11.sol\":4975:5028  existsPlayerIdInFantasyTeam(captainID, fantasyTeamID) */\n      jump\t// in\n    tag_90:\n        /* \"contracts/Buidl11.sol\":4953:5073  require(\r... */\n      tag_92\n      jumpi\n      mload(0x40)\n      0x08c379a000000000000000000000000000000000000000000000000000000000\n      dup2\n      mstore\n      0x04\n      add\n      tag_93\n      swap1\n      tag_94\n      jump\t// in\n    tag_93:\n      mload(0x40)\n      dup1\n      swap2\n      sub\n      swap1\n      revert\n    tag_92:\n        /* \"contracts/Buidl11.sol\":5106:5163  existsPlayerIdInFantasyTeam(viceCaptainID, fantasyTeamID) */\n      tag_95\n        /* \"contracts/Buidl11.sol\":5134:5147  viceCaptainID */\n      dup5\n        /* \"contracts/Buidl11.sol\":5149:5162  fantasyTeamID */\n      dup3\n        /* \"contracts/Buidl11.sol\":5106:5133  existsPlayerIdInFantasyTeam */\n      tag_91\n        /* \"contracts/Buidl11.sol\":5106:5163  existsPlayerIdInFantasyTeam(viceCaptainID, fantasyTeamID) */\n      jump\t// in\n    tag_95:\n        /* \"contracts/Buidl11.sol\":5084:5213  require(\r... */\n      tag_96\n      jumpi\n      mload(0x40)\n      0x08c379a000000000000000000000000000000000000000000000000000000000\n      dup2\n      mstore\n      0x04\n      add\n      tag_97\n      swap1\n      tag_98\n      jump\t// in\n    tag_97:\n      mload(0x40)\n      dup1\n      swap2\n      sub\n      swap1\n      revert\n    tag_96:\n        /* \"contracts/Buidl11.sol\":5266:5275  captainID */\n      dup5\n        /* \"contracts/Buidl11.sol\":5226:5238  fantasyTeams */\n      0x02\n        /* \"contracts/Buidl11.sol\":5239:5252  fantasyTeamID */\n      dup3\n        /* \"contracts/Buidl11.sol\":5226:5253  fantasyTeams[fantasyTeamID] */\n      dup2\n      sload\n      dup2\n      lt\n      tag_99\n      jumpi\n      tag_100\n      tag_101\n      jump\t// in\n    tag_100:\n    tag_99:\n      swap1\n      0x00\n      mstore\n      keccak256(0x00, 0x20)\n      swap1\n      0x07\n      mul\n      add\n        /* \"contracts/Buidl11.sol\":5226:5263  fantasyTeams[fantasyTeamID].captainId */\n      0x03\n      add\n        /* \"contracts/Buidl11.sol\":5226:5275  fantasyTeams[fantasyTeamID].captainId = captainID */\n      dup2\n      swap1\n      sstore\n      pop\n        /* \"contracts/Buidl11.sol\":5330:5343  viceCaptainID */\n      dup4\n        /* \"contracts/Buidl11.sol\":5286:5298  fantasyTeams */\n      0x02\n        /* \"contracts/Buidl11.sol\":5299:5312  fantasyTeamID */\n      dup3\n        /* \"contracts/Buidl11.sol\":5286:5313  fantasyTeams[fantasyTeamID] */\n      dup2\n      sload\n      dup2\n      lt\n      tag_103\n      jumpi\n      tag_104\n      tag_101\n      jump\t// in\n    tag_104:\n    tag_103:\n      swap1\n      0x00\n      mstore\n      keccak256(0x00, 0x20)\n      swap1\n      0x07\n      mul\n      add\n        /* \"contracts/Buidl11.sol\":5286:5327  fantasyTeams[fantasyTeamID].viceCaptainId */\n      0x04\n      add\n        /* \"contracts/Buidl11.sol\":5286:5343  fantasyTeams[fantasyTeamID].viceCaptainId = viceCaptainID */\n      dup2\n      swap1\n      sstore\n      pop\n        /* \"contracts/Buidl11.sol\":4609:5351  {\r... */\n      pop\n        /* \"contracts/Buidl11.sol\":1180:1181  _ */\n      pop\n        /* \"contracts/Buidl11.sol\":4461:5351  function setCaptains(uint256 captainID, uint256 viceCaptainID) public \r... */\n      pop\n      pop\n      pop\n      jump\t// out\n        /* \"contracts/Buidl11.sol\":5364:5924  function bid() public payable {\r... */\n    tag_23:\n        /* \"contracts/Buidl11.sol\":5427:5447  Status.PRE_GAME_USER */\n      0x02\n        /* \"contracts/Buidl11.sol\":5413:5447  gameStatus == Status.PRE_GAME_USER */\n      0x04\n      dup2\n      gt\n      iszero\n      tag_107\n      jumpi\n      tag_108\n      tag_79\n      jump\t// in\n    tag_108:\n    tag_107:\n        /* \"contracts/Buidl11.sol\":5413:5423  gameStatus */\n      0x00\n      0x14\n      swap1\n      sload\n      swap1\n      0x0100\n      exp\n      swap1\n      div\n      0xff\n      and\n        /* \"contracts/Buidl11.sol\":5413:5447  gameStatus == Status.PRE_GAME_USER */\n      0x04\n      dup2\n      gt\n      iszero\n      tag_109\n      jumpi\n      tag_110\n      tag_79\n      jump\t// in\n    tag_110:\n    tag_109:\n      eq\n        /* \"contracts/Buidl11.sol\":5405:5476  require(gameStatus == Status.PRE_GAME_USER, \"Bids can't be placed now\") */\n      tag_111\n      jumpi\n      mload(0x40)\n      0x08c379a000000000000000000000000000000000000000000000000000000000\n      dup2\n      mstore\n      0x04\n      add\n      tag_112\n      swap1\n      tag_113\n      jump\t// in\n    tag_112:\n      mload(0x40)\n      dup1\n      swap2\n      sub\n      swap1\n      revert\n    tag_111:\n        /* \"contracts/Buidl11.sol\":5489:5510  uint256 fantasyTeamID */\n      0x00\n        /* \"contracts/Buidl11.sol\":5513:5541  getFantasyTeamID(msg.sender) */\n      tag_114\n        /* \"contracts/Buidl11.sol\":5530:5540  msg.sender */\n      caller\n        /* \"contracts/Buidl11.sol\":5513:5529  getFantasyTeamID */\n      tag_86\n        /* \"contracts/Buidl11.sol\":5513:5541  getFantasyTeamID(msg.sender) */\n      jump\t// in\n    tag_114:\n        /* \"contracts/Buidl11.sol\":5489:5541  uint256 fantasyTeamID = getFantasyTeamID(msg.sender) */\n      swap1\n      pop\n        /* \"contracts/Buidl11.sol\":5591:5603  fantasyTeams */\n      0x02\n        /* \"contracts/Buidl11.sol\":5591:5610  fantasyTeams.length */\n      dup1\n      sload\n      swap1\n      pop\n        /* \"contracts/Buidl11.sol\":5574:5587  fantasyTeamID */\n      dup2\n        /* \"contracts/Buidl11.sol\":5574:5610  fantasyTeamID != fantasyTeams.length */\n      eq\n      iszero\n        /* \"contracts/Buidl11.sol\":5552:5671  require(\r... */\n      tag_115\n      jumpi\n      mload(0x40)\n      0x08c379a000000000000000000000000000000000000000000000000000000000\n      dup2\n      mstore\n      0x04\n      add\n      tag_116\n      swap1\n      tag_89\n      jump\t// in\n    tag_116:\n      mload(0x40)\n      dup1\n      swap2\n      sub\n      swap1\n      revert\n    tag_115:\n        /* \"contracts/Buidl11.sol\":5684:5707  FantasyTeam memory team */\n      0x00\n        /* \"contracts/Buidl11.sol\":5710:5722  fantasyTeams */\n      0x02\n        /* \"contracts/Buidl11.sol\":5723:5736  fantasyTeamID */\n      dup3\n        /* \"contracts/Buidl11.sol\":5710:5737  fantasyTeams[fantasyTeamID] */\n      dup2\n      sload\n      dup2\n      lt\n      tag_117\n      jumpi\n      tag_118\n      tag_101\n      jump\t// in\n    tag_118:\n    tag_117:\n      swap1\n      0x00\n      mstore\n      keccak256(0x00, 0x20)\n      swap1\n      0x07\n      mul\n      add\n        /* \"contracts/Buidl11.sol\":5684:5737  FantasyTeam memory team = fantasyTeams[fantasyTeamID] */\n      mload(0x40)\n      dup1\n      0xe0\n      add\n      0x40\n      mstore\n      swap1\n      dup2\n      0x00\n      dup3\n      add\n      0x00\n      swap1\n      sload\n      swap1\n      0x0100\n      exp\n      swap1\n      div\n      0xffffffffffffffffffffffffffffffffffffffff\n      and\n      0xffffffffffffffffffffffffffffffffffffffff\n      and\n      0xffffffffffffffffffffffffffffffffffffffff\n      and\n      dup2\n      mstore\n      0x20\n      add\n      0x01\n      dup3\n      add\n      dup1\n      sload\n      tag_120\n      swap1\n      tag_121\n      jump\t// in\n    tag_120:\n      dup1\n      0x1f\n      add\n      0x20\n      dup1\n      swap2\n      div\n      mul\n      0x20\n      add\n      mload(0x40)\n      swap1\n      dup2\n      add\n      0x40\n      mstore\n      dup1\n      swap3\n      swap2\n      swap1\n      dup2\n      dup2\n      mstore\n      0x20\n      add\n      dup3\n      dup1\n      sload\n      tag_122\n      swap1\n      tag_121\n      jump\t// in\n    tag_122:\n      dup1\n      iszero\n      tag_123\n      jumpi\n      dup1\n      0x1f\n      lt\n      tag_124\n      jumpi\n      0x0100\n      dup1\n      dup4\n      sload\n      div\n      mul\n      dup4\n      mstore\n      swap2\n      0x20\n      add\n      swap2\n      jump(tag_123)\n    tag_124:\n      dup3\n      add\n      swap2\n      swap1\n      0x00\n      mstore\n      keccak256(0x00, 0x20)\n      swap1\n    tag_125:\n      dup2\n      sload\n      dup2\n      mstore\n      swap1\n      0x01\n      add\n      swap1\n      0x20\n      add\n      dup1\n      dup4\n      gt\n      tag_125\n      jumpi\n      dup3\n      swap1\n      sub\n      0x1f\n      and\n      dup3\n      add\n      swap2\n    tag_123:\n      pop\n      pop\n      pop\n      pop\n      pop\n      dup2\n      mstore\n      0x20\n      add\n      0x02\n      dup3\n      add\n      dup1\n      sload\n      dup1\n      0x20\n      mul\n      0x20\n      add\n      mload(0x40)\n      swap1\n      dup2\n      add\n      0x40\n      mstore\n      dup1\n      swap3\n      swap2\n      swap1\n      dup2\n      dup2\n      mstore\n      0x20\n      add\n      dup3\n      dup1\n      sload\n      dup1\n      iszero\n      tag_126\n      jumpi\n      0x20\n      mul\n      dup3\n      add\n      swap2\n      swap1\n      0x00\n      mstore\n      keccak256(0x00, 0x20)\n      swap1\n    tag_127:\n      dup2\n      sload\n      dup2\n      mstore\n      0x20\n      add\n      swap1\n      0x01\n      add\n      swap1\n      dup1\n      dup4\n      gt\n      tag_127\n      jumpi\n    tag_126:\n      pop\n      pop\n      pop\n      pop\n      pop\n      dup2\n      mstore\n      0x20\n      add\n      0x03\n      dup3\n      add\n      sload\n      dup2\n      mstore\n      0x20\n      add\n      0x04\n      dup3\n      add\n      sload\n      dup2\n      mstore\n      0x20\n      add\n      0x05\n      dup3\n      add\n      sload\n      dup2\n      mstore\n      0x20\n      add\n      0x06\n      dup3\n      add\n      sload\n      dup2\n      mstore\n      pop\n      pop\n      swap1\n      pop\n        /* \"contracts/Buidl11.sol\":5781:5790  TEAM_SIZE */\n      sload(0x03)\n        /* \"contracts/Buidl11.sol\":5756:5760  team */\n      dup2\n        /* \"contracts/Buidl11.sol\":5756:5770  team.playerIds */\n      0x40\n      add\n      mload\n        /* \"contracts/Buidl11.sol\":5756:5777  team.playerIds.length */\n      mload\n        /* \"contracts/Buidl11.sol\":5756:5790  team.playerIds.length == TEAM_SIZE */\n      eq\n        /* \"contracts/Buidl11.sol\":5748:5810  require(team.playerIds.length == TEAM_SIZE, \"Team Incomplete\") */\n      tag_128\n      jumpi\n      mload(0x40)\n      0x08c379a000000000000000000000000000000000000000000000000000000000\n      dup2\n      mstore\n      0x04\n      add\n      tag_129\n      swap1\n      tag_130\n      jump\t// in\n    tag_129:\n      mload(0x40)\n      dup1\n      swap2\n      sub\n      swap1\n      revert\n    tag_128:\n        /* \"contracts/Buidl11.sol\":5841:5842  0 */\n      0x00\n        /* \"contracts/Buidl11.sol\":5829:5833  team */\n      dup2\n        /* \"contracts/Buidl11.sol\":5829:5837  team.bid */\n      0xa0\n      add\n      mload\n        /* \"contracts/Buidl11.sol\":5829:5842  team.bid == 0 */\n      eq\n        /* \"contracts/Buidl11.sol\":5821:5862  require(team.bid == 0, \"Can't bid again\") */\n      tag_131\n      jumpi\n      mload(0x40)\n      0x08c379a000000000000000000000000000000000000000000000000000000000\n      dup2\n      mstore\n      0x04\n      add\n      tag_132\n      swap1\n      tag_133\n      jump\t// in\n    tag_132:\n      mload(0x40)\n      dup1\n      swap2\n      sub\n      swap1\n      revert\n    tag_131:\n        /* \"contracts/Buidl11.sol\":5907:5916  msg.value */\n      callvalue\n        /* \"contracts/Buidl11.sol\":5873:5885  fantasyTeams */\n      0x02\n        /* \"contracts/Buidl11.sol\":5886:5899  fantasyTeamID */\n      dup4\n        /* \"contracts/Buidl11.sol\":5873:5900  fantasyTeams[fantasyTeamID] */\n      dup2\n      sload\n      dup2\n      lt\n      tag_134\n      jumpi\n      tag_135\n      tag_101\n      jump\t// in\n    tag_135:\n    tag_134:\n      swap1\n      0x00\n      mstore\n      keccak256(0x00, 0x20)\n      swap1\n      0x07\n      mul\n      add\n        /* \"contracts/Buidl11.sol\":5873:5904  fantasyTeams[fantasyTeamID].bid */\n      0x05\n      add\n        /* \"contracts/Buidl11.sol\":5873:5916  fantasyTeams[fantasyTeamID].bid = msg.value */\n      dup2\n      swap1\n      sstore\n      pop\n        /* \"contracts/Buidl11.sol\":5394:5924  {\r... */\n      pop\n      pop\n        /* \"contracts/Buidl11.sol\":5364:5924  function bid() public payable {\r... */\n      jump\t// out\n        /* \"contracts/Buidl11.sol\":6504:6663  function gameStops() public isOwner{\r... */\n    tag_26:\n        /* \"contracts/Buidl11.sol\":225:230  owner */\n      0x00\n      dup1\n      sload\n      swap1\n      0x0100\n      exp\n      swap1\n      div\n      0xffffffffffffffffffffffffffffffffffffffff\n      and\n        /* \"contracts/Buidl11.sol\":213:230  msg.sender==owner */\n      0xffffffffffffffffffffffffffffffffffffffff\n      and\n        /* \"contracts/Buidl11.sol\":213:223  msg.sender */\n      caller\n        /* \"contracts/Buidl11.sol\":213:230  msg.sender==owner */\n      0xffffffffffffffffffffffffffffffffffffffff\n      and\n      eq\n        /* \"contracts/Buidl11.sol\":205:268  require(msg.sender==owner,\"Must be admin to use this funciton\") */\n      tag_138\n      jumpi\n      mload(0x40)\n      0x08c379a000000000000000000000000000000000000000000000000000000000\n      dup2\n      mstore\n      0x04\n      add\n      tag_139\n      swap1\n      tag_140\n      jump\t// in\n    tag_139:\n      mload(0x40)\n      dup1\n      swap2\n      sub\n      swap1\n      revert\n    tag_138:\n        /* \"contracts/Buidl11.sol\":6572:6590  Status.GAME_BEGINS */\n      0x03\n        /* \"contracts/Buidl11.sol\":6558:6590  gameStatus == Status.GAME_BEGINS */\n      0x04\n      dup2\n      gt\n      iszero\n      tag_142\n      jumpi\n      tag_143\n      tag_79\n      jump\t// in\n    tag_143:\n    tag_142:\n        /* \"contracts/Buidl11.sol\":6558:6568  gameStatus */\n      0x00\n      0x14\n      swap1\n      sload\n      swap1\n      0x0100\n      exp\n      swap1\n      div\n      0xff\n      and\n        /* \"contracts/Buidl11.sol\":6558:6590  gameStatus == Status.GAME_BEGINS */\n      0x04\n      dup2\n      gt\n      iszero\n      tag_144\n      jumpi\n      tag_145\n      tag_79\n      jump\t// in\n    tag_145:\n    tag_144:\n      eq\n        /* \"contracts/Buidl11.sol\":6550:6614  require(gameStatus == Status.GAME_BEGINS, \"Can't change status\") */\n      tag_146\n      jumpi\n      mload(0x40)\n      0x08c379a000000000000000000000000000000000000000000000000000000000\n      dup2\n      mstore\n      0x04\n      add\n      tag_147\n      swap1\n      tag_148\n      jump\t// in\n    tag_147:\n      mload(0x40)\n      dup1\n      swap2\n      sub\n      swap1\n      revert\n    tag_146:\n        /* \"contracts/Buidl11.sol\":6638:6655  Status.GAME_STOPS */\n      0x04\n        /* \"contracts/Buidl11.sol\":6625:6635  gameStatus */\n      0x00\n      0x14\n        /* \"contracts/Buidl11.sol\":6625:6655  gameStatus = Status.GAME_STOPS */\n      0x0100\n      exp\n      dup2\n      sload\n      dup2\n      0xff\n      mul\n      not\n      and\n      swap1\n      dup4\n      0x04\n      dup2\n      gt\n      iszero\n      tag_149\n      jumpi\n      tag_150\n      tag_79\n      jump\t// in\n    tag_150:\n    tag_149:\n      mul\n      or\n      swap1\n      sstore\n      pop\n        /* \"contracts/Buidl11.sol\":6504:6663  function gameStops() public isOwner{\r... */\n      jump\t// out\n        /* \"contracts/Buidl11.sol\":1197:1607  function startGame(uint256 teamSize, uint256 runMul, uint256 wicketMul) public isOwner{\r... */\n    tag_31:\n        /* \"contracts/Buidl11.sol\":225:230  owner */\n      0x00\n      dup1\n      sload\n      swap1\n      0x0100\n      exp\n      swap1\n      div\n      0xffffffffffffffffffffffffffffffffffffffff\n      and\n        /* \"contracts/Buidl11.sol\":213:230  msg.sender==owner */\n      0xffffffffffffffffffffffffffffffffffffffff\n      and\n        /* \"contracts/Buidl11.sol\":213:223  msg.sender */\n      caller\n        /* \"contracts/Buidl11.sol\":213:230  msg.sender==owner */\n      0xffffffffffffffffffffffffffffffffffffffff\n      and\n      eq\n        /* \"contracts/Buidl11.sol\":205:268  require(msg.sender==owner,\"Must be admin to use this funciton\") */\n      tag_152\n      jumpi\n      mload(0x40)\n      0x08c379a000000000000000000000000000000000000000000000000000000000\n      dup2\n      mstore\n      0x04\n      add\n      tag_153\n      swap1\n      tag_140\n      jump\t// in\n    tag_153:\n      mload(0x40)\n      dup1\n      swap2\n      sub\n      swap1\n      revert\n    tag_152:\n        /* \"contracts/Buidl11.sol\":1330:1356  Status.NO_GAME_IN_PROGRESS */\n      0x00\n        /* \"contracts/Buidl11.sol\":1316:1356  gameStatus == Status.NO_GAME_IN_PROGRESS */\n      0x04\n      dup2\n      gt\n      iszero\n      tag_155\n      jumpi\n      tag_156\n      tag_79\n      jump\t// in\n    tag_156:\n    tag_155:\n        /* \"contracts/Buidl11.sol\":1316:1326  gameStatus */\n      0x00\n      0x14\n      swap1\n      sload\n      swap1\n      0x0100\n      exp\n      swap1\n      div\n      0xff\n      and\n        /* \"contracts/Buidl11.sol\":1316:1356  gameStatus == Status.NO_GAME_IN_PROGRESS */\n      0x04\n      dup2\n      gt\n      iszero\n      tag_157\n      jumpi\n      tag_158\n      tag_79\n      jump\t// in\n    tag_158:\n    tag_157:\n      eq\n        /* \"contracts/Buidl11.sol\":1294:1408  require(\r... */\n      tag_159\n      jumpi\n      mload(0x40)\n      0x08c379a000000000000000000000000000000000000000000000000000000000\n      dup2\n      mstore\n      0x04\n      add\n      tag_160\n      swap1\n      tag_161\n      jump\t// in\n    tag_160:\n      mload(0x40)\n      dup1\n      swap2\n      sub\n      swap1\n      revert\n    tag_159:\n        /* \"contracts/Buidl11.sol\":1428:1435  players */\n      0x01\n      0x00\n        /* \"contracts/Buidl11.sol\":1421:1435  delete players */\n      tag_162\n      swap2\n      swap1\n      tag_163\n      jump\t// in\n    tag_162:\n        /* \"contracts/Buidl11.sol\":1453:1465  fantasyTeams */\n      0x02\n      0x00\n        /* \"contracts/Buidl11.sol\":1446:1465  delete fantasyTeams */\n      tag_164\n      swap2\n      swap1\n      tag_165\n      jump\t// in\n    tag_164:\n        /* \"contracts/Buidl11.sol\":1489:1508  Status.PRE_GAME_API */\n      0x01\n        /* \"contracts/Buidl11.sol\":1476:1486  gameStatus */\n      0x00\n      0x14\n        /* \"contracts/Buidl11.sol\":1476:1508  gameStatus = Status.PRE_GAME_API */\n      0x0100\n      exp\n      dup2\n      sload\n      dup2\n      0xff\n      mul\n      not\n      and\n      swap1\n      dup4\n      0x04\n      dup2\n      gt\n      iszero\n      tag_166\n      jumpi\n      tag_167\n      tag_79\n      jump\t// in\n    tag_167:\n    tag_166:\n      mul\n      or\n      swap1\n      sstore\n      pop\n        /* \"contracts/Buidl11.sol\":1531:1539  teamSize */\n      dup3\n        /* \"contracts/Buidl11.sol\":1519:1528  TEAM_SIZE */\n      0x03\n        /* \"contracts/Buidl11.sol\":1519:1539  TEAM_SIZE = teamSize */\n      dup2\n      swap1\n      sstore\n      pop\n        /* \"contracts/Buidl11.sol\":1560:1566  runMul */\n      dup2\n        /* \"contracts/Buidl11.sol\":1550:1557  RUN_MUL */\n      0x04\n        /* \"contracts/Buidl11.sol\":1550:1566  RUN_MUL = runMul */\n      dup2\n      swap1\n      sstore\n      pop\n        /* \"contracts/Buidl11.sol\":1590:1599  wicketMul */\n      dup1\n        /* \"contracts/Buidl11.sol\":1577:1587  WICKET_MUL */\n      0x05\n        /* \"contracts/Buidl11.sol\":1577:1599  WICKET_MUL = wicketMul */\n      dup2\n      swap1\n      sstore\n      pop\n        /* \"contracts/Buidl11.sol\":1197:1607  function startGame(uint256 teamSize, uint256 runMul, uint256 wicketMul) public isOwner{\r... */\n      pop\n      pop\n      pop\n      jump\t// out\n        /* \"contracts/Buidl11.sol\":2719:2884  function playersAddedToGame() public {\r... */\n    tag_34:\n        /* \"contracts/Buidl11.sol\":2789:2808  Status.PRE_GAME_API */\n      0x01\n        /* \"contracts/Buidl11.sol\":2775:2808  gameStatus == Status.PRE_GAME_API */\n      0x04\n      dup2\n      gt\n      iszero\n      tag_169\n      jumpi\n      tag_170\n      tag_79\n      jump\t// in\n    tag_170:\n    tag_169:\n        /* \"contracts/Buidl11.sol\":2775:2785  gameStatus */\n      0x00\n      0x14\n      swap1\n      sload\n      swap1\n      0x0100\n      exp\n      swap1\n      div\n      0xff\n      and\n        /* \"contracts/Buidl11.sol\":2775:2808  gameStatus == Status.PRE_GAME_API */\n      0x04\n      dup2\n      gt\n      iszero\n      tag_171\n      jumpi\n      tag_172\n      tag_79\n      jump\t// in\n    tag_172:\n    tag_171:\n      eq\n        /* \"contracts/Buidl11.sol\":2767:2832  require(gameStatus == Status.PRE_GAME_API, \"Can't change status\") */\n      tag_173\n      jumpi\n      mload(0x40)\n      0x08c379a000000000000000000000000000000000000000000000000000000000\n      dup2\n      mstore\n      0x04\n      add\n      tag_174\n      swap1\n      tag_148\n      jump\t// in\n    tag_174:\n      mload(0x40)\n      dup1\n      swap2\n      sub\n      swap1\n      revert\n    tag_173:\n        /* \"contracts/Buidl11.sol\":2856:2876  Status.PRE_GAME_USER */\n      0x02\n        /* \"contracts/Buidl11.sol\":2843:2853  gameStatus */\n      0x00\n      0x14\n        /* \"contracts/Buidl11.sol\":2843:2876  gameStatus = Status.PRE_GAME_USER */\n      0x0100\n      exp\n      dup2\n      sload\n      dup2\n      0xff\n      mul\n      not\n      and\n      swap1\n      dup4\n      0x04\n      dup2\n      gt\n      iszero\n      tag_175\n      jumpi\n      tag_176\n      tag_79\n      jump\t// in\n    tag_176:\n    tag_175:\n      mul\n      or\n      swap1\n      sstore\n      pop\n        /* \"contracts/Buidl11.sol\":2719:2884  function playersAddedToGame() public {\r... */\n      jump\t// out\n        /* \"contracts/Buidl11.sol\":5937:6100  function gameBegins() public isOwner{\r... */\n    tag_37:\n        /* \"contracts/Buidl11.sol\":225:230  owner */\n      0x00\n      dup1\n      sload\n      swap1\n      0x0100\n      exp\n      swap1\n      div\n      0xffffffffffffffffffffffffffffffffffffffff\n      and\n        /* \"contracts/Buidl11.sol\":213:230  msg.sender==owner */\n      0xffffffffffffffffffffffffffffffffffffffff\n      and\n        /* \"contracts/Buidl11.sol\":213:223  msg.sender */\n      caller\n        /* \"contracts/Buidl11.sol\":213:230  msg.sender==owner */\n      0xffffffffffffffffffffffffffffffffffffffff\n      and\n      eq\n        /* \"contracts/Buidl11.sol\":205:268  require(msg.sender==owner,\"Must be admin to use this funciton\") */\n      tag_178\n      jumpi\n      mload(0x40)\n      0x08c379a000000000000000000000000000000000000000000000000000000000\n      dup2\n      mstore\n      0x04\n      add\n      tag_179\n      swap1\n      tag_140\n      jump\t// in\n    tag_179:\n      mload(0x40)\n      dup1\n      swap2\n      sub\n      swap1\n      revert\n    tag_178:\n        /* \"contracts/Buidl11.sol\":6006:6026  Status.PRE_GAME_USER */\n      0x02\n        /* \"contracts/Buidl11.sol\":5992:6026  gameStatus == Status.PRE_GAME_USER */\n      0x04\n      dup2\n      gt\n      iszero\n      tag_181\n      jumpi\n      tag_182\n      tag_79\n      jump\t// in\n    tag_182:\n    tag_181:\n        /* \"contracts/Buidl11.sol\":5992:6002  gameStatus */\n      0x00\n      0x14\n      swap1\n      sload\n      swap1\n      0x0100\n      exp\n      swap1\n      div\n      0xff\n      and\n        /* \"contracts/Buidl11.sol\":5992:6026  gameStatus == Status.PRE_GAME_USER */\n      0x04\n      dup2\n      gt\n      iszero\n      tag_183\n      jumpi\n      tag_184\n      tag_79\n      jump\t// in\n    tag_184:\n    tag_183:\n      eq\n        /* \"contracts/Buidl11.sol\":5984:6050  require(gameStatus == Status.PRE_GAME_USER, \"Can't change status\") */\n      tag_185\n      jumpi\n      mload(0x40)\n      0x08c379a000000000000000000000000000000000000000000000000000000000\n      dup2\n      mstore\n      0x04\n      add\n      tag_186\n      swap1\n      tag_148\n      jump\t// in\n    tag_186:\n      mload(0x40)\n      dup1\n      swap2\n      sub\n      swap1\n      revert\n    tag_185:\n        /* \"contracts/Buidl11.sol\":6074:6092  Status.GAME_BEGINS */\n      0x03\n        /* \"contracts/Buidl11.sol\":6061:6071  gameStatus */\n      0x00\n      0x14\n        /* \"contracts/Buidl11.sol\":6061:6092  gameStatus = Status.GAME_BEGINS */\n      0x0100\n      exp\n      dup2\n      sload\n      dup2\n      0xff\n      mul\n      not\n      and\n      swap1\n      dup4\n      0x04\n      dup2\n      gt\n      iszero\n      tag_187\n      jumpi\n      tag_188\n      tag_79\n      jump\t// in\n    tag_188:\n    tag_187:\n      mul\n      or\n      swap1\n      sstore\n      pop\n        /* \"contracts/Buidl11.sol\":5937:6100  function gameBegins() public isOwner{\r... */\n      jump\t// out\n        /* \"contracts/Buidl11.sol\":10155:10991  function listPlayers() public view returns (string memory) {\r... */\n    tag_40:\n        /* \"contracts/Buidl11.sol\":10199:10212  string memory */\n      0x60\n        /* \"contracts/Buidl11.sol\":10261:10281  Status.PRE_GAME_USER */\n      0x02\n        /* \"contracts/Buidl11.sol\":10247:10281  gameStatus == Status.PRE_GAME_USER */\n      0x04\n      dup2\n      gt\n      iszero\n      tag_190\n      jumpi\n      tag_191\n      tag_79\n      jump\t// in\n    tag_191:\n    tag_190:\n        /* \"contracts/Buidl11.sol\":10247:10257  gameStatus */\n      0x00\n      0x14\n      swap1\n      sload\n      swap1\n      0x0100\n      exp\n      swap1\n      div\n      0xff\n      and\n        /* \"contracts/Buidl11.sol\":10247:10281  gameStatus == Status.PRE_GAME_USER */\n      0x04\n      dup2\n      gt\n      iszero\n      tag_192\n      jumpi\n      tag_193\n      tag_79\n      jump\t// in\n    tag_193:\n    tag_192:\n      eq\n        /* \"contracts/Buidl11.sol\":10225:10336  require(\r... */\n      tag_194\n      jumpi\n      mload(0x40)\n      0x08c379a000000000000000000000000000000000000000000000000000000000\n      dup2\n      mstore\n      0x04\n      add\n      tag_195\n      swap1\n      tag_196\n      jump\t// in\n    tag_195:\n      mload(0x40)\n      dup1\n      swap2\n      sub\n      swap1\n      revert\n    tag_194:\n        /* \"contracts/Buidl11.sol\":10349:10374  string memory playersList */\n      0x00\n        /* \"contracts/Buidl11.sol\":10349:10379  string memory playersList = \"\" */\n      mload(0x40)\n      dup1\n      0x20\n      add\n      0x40\n      mstore\n      dup1\n      0x00\n      dup2\n      mstore\n      pop\n      swap1\n      pop\n        /* \"contracts/Buidl11.sol\":10395:10404  uint256 i */\n      0x00\n        /* \"contracts/Buidl11.sol\":10390:10955  for (uint256 i = 0; i < players.length; i++) {\r... */\n    tag_197:\n        /* \"contracts/Buidl11.sol\":10414:10421  players */\n      0x01\n        /* \"contracts/Buidl11.sol\":10414:10428  players.length */\n      dup1\n      sload\n      swap1\n      pop\n        /* \"contracts/Buidl11.sol\":10410:10411  i */\n      dup2\n        /* \"contracts/Buidl11.sol\":10410:10428  i < players.length */\n      lt\n        /* \"contracts/Buidl11.sol\":10390:10955  for (uint256 i = 0; i < players.length; i++) {\r... */\n      iszero\n      tag_198\n      jumpi\n        /* \"contracts/Buidl11.sol\":10488:10499  playersList */\n      dup2\n        /* \"contracts/Buidl11.sol\":10471:10515  abi.encodePacked(playersList, \"Player ID: \") */\n      add(0x20, mload(0x40))\n      tag_200\n      swap2\n      swap1\n      tag_201\n      jump\t// in\n    tag_200:\n      mload(0x40)\n      0x20\n      dup2\n      dup4\n      sub\n      sub\n      dup2\n      mstore\n      swap1\n      0x40\n      mstore\n        /* \"contracts/Buidl11.sol\":10450:10516  playersList = string(abi.encodePacked(playersList, \"Player ID: \")) */\n      swap2\n      pop\n        /* \"contracts/Buidl11.sol\":10587:10598  playersList */\n      dup2\n        /* \"contracts/Buidl11.sol\":10600:10623  uint2str(players[i].id) */\n      tag_202\n        /* \"contracts/Buidl11.sol\":10609:10616  players */\n      0x01\n        /* \"contracts/Buidl11.sol\":10617:10618  i */\n      dup4\n        /* \"contracts/Buidl11.sol\":10609:10619  players[i] */\n      dup2\n      sload\n      dup2\n      lt\n      tag_203\n      jumpi\n      tag_204\n      tag_101\n      jump\t// in\n    tag_204:\n    tag_203:\n      swap1\n      0x00\n      mstore\n      keccak256(0x00, 0x20)\n      swap1\n      0x04\n      mul\n      add\n        /* \"contracts/Buidl11.sol\":10609:10622  players[i].id */\n      0x00\n      add\n      sload\n        /* \"contracts/Buidl11.sol\":10600:10608  uint2str */\n      tag_206\n        /* \"contracts/Buidl11.sol\":10600:10623  uint2str(players[i].id) */\n      jump\t// in\n    tag_202:\n        /* \"contracts/Buidl11.sol\":10570:10624  abi.encodePacked(playersList, uint2str(players[i].id)) */\n      add(0x20, mload(0x40))\n      tag_207\n      swap3\n      swap2\n      swap1\n      tag_208\n      jump\t// in\n    tag_207:\n      mload(0x40)\n      0x20\n      dup2\n      dup4\n      sub\n      sub\n      dup2\n      mstore\n      swap1\n      0x40\n      mstore\n        /* \"contracts/Buidl11.sol\":10531:10639  playersList = string(\r... */\n      swap2\n      pop\n        /* \"contracts/Buidl11.sol\":10710:10721  playersList */\n      dup2\n        /* \"contracts/Buidl11.sol\":10693:10741  abi.encodePacked(playersList, \"; Player Name: \") */\n      add(0x20, mload(0x40))\n      tag_209\n      swap2\n      swap1\n      tag_210\n      jump\t// in\n    tag_209:\n      mload(0x40)\n      0x20\n      dup2\n      dup4\n      sub\n      sub\n      dup2\n      mstore\n      swap1\n      0x40\n      mstore\n        /* \"contracts/Buidl11.sol\":10654:10756  playersList = string(\r... */\n      swap2\n      pop\n        /* \"contracts/Buidl11.sol\":10827:10838  playersList */\n      dup2\n        /* \"contracts/Buidl11.sol\":10840:10847  players */\n      0x01\n        /* \"contracts/Buidl11.sol\":10848:10849  i */\n      dup3\n        /* \"contracts/Buidl11.sol\":10840:10850  players[i] */\n      dup2\n      sload\n      dup2\n      lt\n      tag_211\n      jumpi\n      tag_212\n      tag_101\n      jump\t// in\n    tag_212:\n    tag_211:\n      swap1\n      0x00\n      mstore\n      keccak256(0x00, 0x20)\n      swap1\n      0x04\n      mul\n      add\n        /* \"contracts/Buidl11.sol\":10840:10855  players[i].name */\n      0x01\n      add\n        /* \"contracts/Buidl11.sol\":10810:10856  abi.encodePacked(playersList, players[i].name) */\n      add(0x20, mload(0x40))\n      tag_214\n      swap3\n      swap2\n      swap1\n      tag_215\n      jump\t// in\n    tag_214:\n      mload(0x40)\n      0x20\n      dup2\n      dup4\n      sub\n      sub\n      dup2\n      mstore\n      swap1\n      0x40\n      mstore\n        /* \"contracts/Buidl11.sol\":10771:10871  playersList = string(\r... */\n      swap2\n      pop\n        /* \"contracts/Buidl11.sol\":10924:10935  playersList */\n      dup2\n        /* \"contracts/Buidl11.sol\":10907:10942  abi.encodePacked(playersList, \"\\n\") */\n      add(0x20, mload(0x40))\n      tag_216\n      swap2\n      swap1\n      tag_217\n      jump\t// in\n    tag_216:\n      mload(0x40)\n      0x20\n      dup2\n      dup4\n      sub\n      sub\n      dup2\n      mstore\n      swap1\n      0x40\n      mstore\n        /* \"contracts/Buidl11.sol\":10886:10943  playersList = string(abi.encodePacked(playersList, \"\\n\")) */\n      swap2\n      pop\n        /* \"contracts/Buidl11.sol\":10430:10433  i++ */\n      dup1\n      dup1\n      tag_218\n      swap1\n      tag_219\n      jump\t// in\n    tag_218:\n      swap2\n      pop\n      pop\n        /* \"contracts/Buidl11.sol\":10390:10955  for (uint256 i = 0; i < players.length; i++) {\r... */\n      jump(tag_197)\n    tag_198:\n      pop\n        /* \"contracts/Buidl11.sol\":10972:10983  playersList */\n      dup1\n        /* \"contracts/Buidl11.sol\":10965:10983  return playersList */\n      swap2\n      pop\n      pop\n        /* \"contracts/Buidl11.sol\":10155:10991  function listPlayers() public view returns (string memory) {\r... */\n      swap1\n      jump\t// out\n        /* \"contracts/Buidl11.sol\":1701:1992  function addPlayerToGame(string memory playerName) public {\r... */\n    tag_47:\n        /* \"contracts/Buidl11.sol\":1792:1811  Status.PRE_GAME_API */\n      0x01\n        /* \"contracts/Buidl11.sol\":1778:1811  gameStatus == Status.PRE_GAME_API */\n      0x04\n      dup2\n      gt\n      iszero\n      tag_221\n      jumpi\n      tag_222\n      tag_79\n      jump\t// in\n    tag_222:\n    tag_221:\n        /* \"contracts/Buidl11.sol\":1778:1788  gameStatus */\n      0x00\n      0x14\n      swap1\n      sload\n      swap1\n      0x0100\n      exp\n      swap1\n      div\n      0xff\n      and\n        /* \"contracts/Buidl11.sol\":1778:1811  gameStatus == Status.PRE_GAME_API */\n      0x04\n      dup2\n      gt\n      iszero\n      tag_223\n      jumpi\n      tag_224\n      tag_79\n      jump\t// in\n    tag_224:\n    tag_223:\n      eq\n        /* \"contracts/Buidl11.sol\":1770:1836  require(gameStatus == Status.PRE_GAME_API, \"Can't add player now\") */\n      tag_225\n      jumpi\n      mload(0x40)\n      0x08c379a000000000000000000000000000000000000000000000000000000000\n      dup2\n      mstore\n      0x04\n      add\n      tag_226\n      swap1\n      tag_227\n      jump\t// in\n    tag_226:\n      mload(0x40)\n      dup1\n      swap2\n      sub\n      swap1\n      revert\n    tag_225:\n        /* \"contracts/Buidl11.sol\":1849:1872  Player memory newPlayer */\n      tag_228\n      tag_229\n      jump\t// in\n    tag_228:\n        /* \"contracts/Buidl11.sol\":1900:1910  playerName */\n      dup2\n        /* \"contracts/Buidl11.sol\":1883:1892  newPlayer */\n      dup2\n        /* \"contracts/Buidl11.sol\":1883:1897  newPlayer.name */\n      0x20\n      add\n        /* \"contracts/Buidl11.sol\":1883:1910  newPlayer.name = playerName */\n      dup2\n      swap1\n      mstore\n      pop\n        /* \"contracts/Buidl11.sol\":1936:1943  players */\n      0x01\n        /* \"contracts/Buidl11.sol\":1936:1950  players.length */\n      dup1\n      sload\n      swap1\n      pop\n        /* \"contracts/Buidl11.sol\":1921:1930  newPlayer */\n      dup2\n        /* \"contracts/Buidl11.sol\":1921:1933  newPlayer.id */\n      0x00\n      add\n        /* \"contracts/Buidl11.sol\":1921:1950  newPlayer.id = players.length */\n      dup2\n      dup2\n      mstore\n      pop\n      pop\n        /* \"contracts/Buidl11.sol\":1961:1968  players */\n      0x01\n        /* \"contracts/Buidl11.sol\":1974:1983  newPlayer */\n      dup2\n        /* \"contracts/Buidl11.sol\":1961:1984  players.push(newPlayer) */\n      swap1\n      dup1\n      0x01\n      dup2\n      sload\n      add\n      dup1\n      dup3\n      sstore\n      dup1\n      swap2\n      pop\n      pop\n      0x01\n      swap1\n      sub\n      swap1\n      0x00\n      mstore\n      keccak256(0x00, 0x20)\n      swap1\n      0x04\n      mul\n      add\n      0x00\n      swap1\n      swap2\n      swap1\n      swap2\n      swap1\n      swap2\n      pop\n      0x00\n      dup3\n      add\n      mload\n      dup2\n      0x00\n      add\n      sstore\n      0x20\n      dup3\n      add\n      mload\n      dup2\n      0x01\n      add\n      swap1\n      dup1\n      mload\n      swap1\n      0x20\n      add\n      swap1\n      tag_231\n      swap3\n      swap2\n      swap1\n      tag_232\n      jump\t// in\n    tag_231:\n      pop\n      0x40\n      dup3\n      add\n      mload\n      dup2\n      0x02\n      add\n      0x00\n      dup3\n      add\n      mload\n      dup2\n      0x00\n      add\n      sstore\n      0x20\n      dup3\n      add\n      mload\n      dup2\n      0x01\n      add\n      sstore\n      pop\n      pop\n      pop\n      pop\n        /* \"contracts/Buidl11.sol\":1759:1992  {\r... */\n      pop\n        /* \"contracts/Buidl11.sol\":1701:1992  function addPlayerToGame(string memory playerName) public {\r... */\n      pop\n      jump\t// out\n        /* \"contracts/Buidl11.sol\":1613:1692  function getAdmin() public view returns(address){\r... */\n    tag_50:\n        /* \"contracts/Buidl11.sol\":1653:1660  address */\n      0x00\n        /* \"contracts/Buidl11.sol\":1679:1684  owner */\n      dup1\n      0x00\n      swap1\n      sload\n      swap1\n      0x0100\n      exp\n      swap1\n      div\n      0xffffffffffffffffffffffffffffffffffffffff\n      and\n        /* \"contracts/Buidl11.sol\":1672:1684  return owner */\n      swap1\n      pop\n        /* \"contracts/Buidl11.sol\":1613:1692  function getAdmin() public view returns(address){\r... */\n      swap1\n      jump\t// out\n        /* \"contracts/Buidl11.sol\":3508:4447  function addPlayerToFantasyTeam(uint256[] memory _playerIDs) public \r... */\n    tag_57:\n        /* \"contracts/Buidl11.sol\":3597:3603  uint i */\n      0x00\n        /* \"contracts/Buidl11.sol\":3593:4440  for(uint i=0;i<_playerIDs.length;i++){\r... */\n    tag_235:\n        /* \"contracts/Buidl11.sol\":3608:3618  _playerIDs */\n      dup2\n        /* \"contracts/Buidl11.sol\":3608:3625  _playerIDs.length */\n      mload\n        /* \"contracts/Buidl11.sol\":3606:3607  i */\n      dup2\n        /* \"contracts/Buidl11.sol\":3606:3625  i<_playerIDs.length */\n      lt\n        /* \"contracts/Buidl11.sol\":3593:4440  for(uint i=0;i<_playerIDs.length;i++){\r... */\n      iszero\n      tag_236\n      jumpi\n        /* \"contracts/Buidl11.sol\":3647:3663  uint256 playerID */\n      0x00\n        /* \"contracts/Buidl11.sol\":3666:3676  _playerIDs */\n      dup3\n        /* \"contracts/Buidl11.sol\":3677:3678  i */\n      dup3\n        /* \"contracts/Buidl11.sol\":3666:3679  _playerIDs[i] */\n      dup2\n      mload\n      dup2\n      lt\n      tag_238\n      jumpi\n      tag_239\n      tag_101\n      jump\t// in\n    tag_239:\n    tag_238:\n      0x20\n      mul\n      0x20\n      add\n      add\n      mload\n        /* \"contracts/Buidl11.sol\":3647:3679  uint256 playerID = _playerIDs[i] */\n      swap1\n      pop\n        /* \"contracts/Buidl11.sol\":3713:3720  players */\n      0x01\n        /* \"contracts/Buidl11.sol\":3713:3727  players.length */\n      dup1\n      sload\n      swap1\n      pop\n        /* \"contracts/Buidl11.sol\":3702:3710  playerID */\n      dup2\n        /* \"contracts/Buidl11.sol\":3702:3727  playerID < players.length */\n      lt\n        /* \"contracts/Buidl11.sol\":3694:3753  require(playerID < players.length, \"Player does not exist\") */\n      tag_240\n      jumpi\n      mload(0x40)\n      0x08c379a000000000000000000000000000000000000000000000000000000000\n      dup2\n      mstore\n      0x04\n      add\n      tag_241\n      swap1\n      tag_72\n      jump\t// in\n    tag_241:\n      mload(0x40)\n      dup1\n      swap2\n      sub\n      swap1\n      revert\n    tag_240:\n        /* \"contracts/Buidl11.sol\":3804:3824  Status.PRE_GAME_USER */\n      0x02\n        /* \"contracts/Buidl11.sol\":3790:3824  gameStatus == Status.PRE_GAME_USER */\n      0x04\n      dup2\n      gt\n      iszero\n      tag_242\n      jumpi\n      tag_243\n      tag_79\n      jump\t// in\n    tag_243:\n    tag_242:\n        /* \"contracts/Buidl11.sol\":3790:3800  gameStatus */\n      0x00\n      0x14\n      swap1\n      sload\n      swap1\n      0x0100\n      exp\n      swap1\n      div\n      0xff\n      and\n        /* \"contracts/Buidl11.sol\":3790:3824  gameStatus == Status.PRE_GAME_USER */\n      0x04\n      dup2\n      gt\n      iszero\n      tag_244\n      jumpi\n      tag_245\n      tag_79\n      jump\t// in\n    tag_245:\n    tag_244:\n      eq\n        /* \"contracts/Buidl11.sol\":3768:3894  require(\r... */\n      tag_246\n      jumpi\n      mload(0x40)\n      0x08c379a000000000000000000000000000000000000000000000000000000000\n      dup2\n      mstore\n      0x04\n      add\n      tag_247\n      swap1\n      tag_248\n      jump\t// in\n    tag_247:\n      mload(0x40)\n      dup1\n      swap2\n      sub\n      swap1\n      revert\n    tag_246:\n        /* \"contracts/Buidl11.sol\":3907:3928  uint256 fantasyTeamID */\n      0x00\n        /* \"contracts/Buidl11.sol\":3931:3959  getFantasyTeamID(msg.sender) */\n      tag_249\n        /* \"contracts/Buidl11.sol\":3948:3958  msg.sender */\n      caller\n        /* \"contracts/Buidl11.sol\":3931:3947  getFantasyTeamID */\n      tag_86\n        /* \"contracts/Buidl11.sol\":3931:3959  getFantasyTeamID(msg.sender) */\n      jump\t// in\n    tag_249:\n        /* \"contracts/Buidl11.sol\":3907:3959  uint256 fantasyTeamID = getFantasyTeamID(msg.sender) */\n      swap1\n      pop\n        /* \"contracts/Buidl11.sol\":4009:4021  fantasyTeams */\n      0x02\n        /* \"contracts/Buidl11.sol\":4009:4028  fantasyTeams.length */\n      dup1\n      sload\n      swap1\n      pop\n        /* \"contracts/Buidl11.sol\":3992:4005  fantasyTeamID */\n      dup2\n        /* \"contracts/Buidl11.sol\":3992:4028  fantasyTeamID != fantasyTeams.length */\n      eq\n      iszero\n        /* \"contracts/Buidl11.sol\":3970:4089  require(\r... */\n      tag_250\n      jumpi\n      mload(0x40)\n      0x08c379a000000000000000000000000000000000000000000000000000000000\n      dup2\n      mstore\n      0x04\n      add\n      tag_251\n      swap1\n      tag_89\n      jump\t// in\n    tag_251:\n      mload(0x40)\n      dup1\n      swap2\n      sub\n      swap1\n      revert\n    tag_250:\n        /* \"contracts/Buidl11.sol\":4123:4175  existsPlayerIdInFantasyTeam(playerID, fantasyTeamID) */\n      tag_252\n        /* \"contracts/Buidl11.sol\":4151:4159  playerID */\n      dup3\n        /* \"contracts/Buidl11.sol\":4161:4174  fantasyTeamID */\n      dup3\n        /* \"contracts/Buidl11.sol\":4123:4150  existsPlayerIdInFantasyTeam */\n      tag_91\n        /* \"contracts/Buidl11.sol\":4123:4175  existsPlayerIdInFantasyTeam(playerID, fantasyTeamID) */\n      jump\t// in\n    tag_252:\n        /* \"contracts/Buidl11.sol\":4122:4175  !existsPlayerIdInFantasyTeam(playerID, fantasyTeamID) */\n      iszero\n        /* \"contracts/Buidl11.sol\":4100:4229  require(\r... */\n      tag_253\n      jumpi\n      mload(0x40)\n      0x08c379a000000000000000000000000000000000000000000000000000000000\n      dup2\n      mstore\n      0x04\n      add\n      tag_254\n      swap1\n      tag_255\n      jump\t// in\n    tag_254:\n      mload(0x40)\n      dup1\n      swap2\n      sub\n      swap1\n      revert\n    tag_253:\n        /* \"contracts/Buidl11.sol\":4309:4318  TEAM_SIZE */\n      sload(0x03)\n        /* \"contracts/Buidl11.sol\":4262:4274  fantasyTeams */\n      0x02\n        /* \"contracts/Buidl11.sol\":4275:4288  fantasyTeamID */\n      dup3\n        /* \"contracts/Buidl11.sol\":4262:4289  fantasyTeams[fantasyTeamID] */\n      dup2\n      sload\n      dup2\n      lt\n      tag_256\n      jumpi\n      tag_257\n      tag_101\n      jump\t// in\n    tag_257:\n    tag_256:\n      swap1\n      0x00\n      mstore\n      keccak256(0x00, 0x20)\n      swap1\n      0x07\n      mul\n      add\n        /* \"contracts/Buidl11.sol\":4262:4299  fantasyTeams[fantasyTeamID].playerIds */\n      0x02\n      add\n        /* \"contracts/Buidl11.sol\":4262:4306  fantasyTeams[fantasyTeamID].playerIds.length */\n      dup1\n      sload\n      swap1\n      pop\n        /* \"contracts/Buidl11.sol\":4262:4318  fantasyTeams[fantasyTeamID].playerIds.length < TEAM_SIZE */\n      lt\n        /* \"contracts/Buidl11.sol\":4240:4363  require(\r... */\n      tag_259\n      jumpi\n      mload(0x40)\n      0x08c379a000000000000000000000000000000000000000000000000000000000\n      dup2\n      mstore\n      0x04\n      add\n      tag_260\n      swap1\n      tag_261\n      jump\t// in\n    tag_260:\n      mload(0x40)\n      dup1\n      swap2\n      sub\n      swap1\n      revert\n    tag_259:\n        /* \"contracts/Buidl11.sol\":4376:4388  fantasyTeams */\n      0x02\n        /* \"contracts/Buidl11.sol\":4389:4402  fantasyTeamID */\n      dup2\n        /* \"contracts/Buidl11.sol\":4376:4403  fantasyTeams[fantasyTeamID] */\n      dup2\n      sload\n      dup2\n      lt\n      tag_262\n      jumpi\n      tag_263\n      tag_101\n      jump\t// in\n    tag_263:\n    tag_262:\n      swap1\n      0x00\n      mstore\n      keccak256(0x00, 0x20)\n      swap1\n      0x07\n      mul\n      add\n        /* \"contracts/Buidl11.sol\":4376:4413  fantasyTeams[fantasyTeamID].playerIds */\n      0x02\n      add\n        /* \"contracts/Buidl11.sol\":4419:4427  playerID */\n      dup3\n        /* \"contracts/Buidl11.sol\":4376:4428  fantasyTeams[fantasyTeamID].playerIds.push(playerID) */\n      swap1\n      dup1\n      0x01\n      dup2\n      sload\n      add\n      dup1\n      dup3\n      sstore\n      dup1\n      swap2\n      pop\n      pop\n      0x01\n      swap1\n      sub\n      swap1\n      0x00\n      mstore\n      keccak256(0x00, 0x20)\n      add\n      0x00\n      swap1\n      swap2\n      swap1\n      swap2\n      swap1\n      swap2\n      pop\n      sstore\n        /* \"contracts/Buidl11.sol\":3630:4440  {\r... */\n      pop\n      pop\n        /* \"contracts/Buidl11.sol\":3626:3629  i++ */\n      dup1\n      dup1\n      tag_266\n      swap1\n      tag_219\n      jump\t// in\n    tag_266:\n      swap2\n      pop\n      pop\n        /* \"contracts/Buidl11.sol\":3593:4440  for(uint i=0;i<_playerIDs.length;i++){\r... */\n      jump(tag_235)\n    tag_236:\n      pop\n        /* \"contracts/Buidl11.sol\":3508:4447  function addPlayerToFantasyTeam(uint256[] memory _playerIDs) public \r... */\n      pop\n      jump\t// out\n        /* \"contracts/Buidl11.sol\":8205:8861  function calculateTeamsScore() public {\r... */\n    tag_60:\n        /* \"contracts/Buidl11.sol\":8276:8293  Status.GAME_STOPS */\n      0x04\n        /* \"contracts/Buidl11.sol\":8262:8293  gameStatus == Status.GAME_STOPS */\n      dup1\n      dup2\n      gt\n      iszero\n      tag_268\n      jumpi\n      tag_269\n      tag_79\n      jump\t// in\n    tag_269:\n    tag_268:\n        /* \"contracts/Buidl11.sol\":8262:8272  gameStatus */\n      0x00\n      0x14\n      swap1\n      sload\n      swap1\n      0x0100\n      exp\n      swap1\n      div\n      0xff\n      and\n        /* \"contracts/Buidl11.sol\":8262:8293  gameStatus == Status.GAME_STOPS */\n      0x04\n      dup2\n      gt\n      iszero\n      tag_270\n      jumpi\n      tag_271\n      tag_79\n      jump\t// in\n    tag_271:\n    tag_270:\n      eq\n        /* \"contracts/Buidl11.sol\":8254:8318  require(gameStatus == Status.GAME_STOPS, \"Game has not stopped\") */\n      tag_272\n      jumpi\n      mload(0x40)\n      0x08c379a000000000000000000000000000000000000000000000000000000000\n      dup2\n      mstore\n      0x04\n      add\n      tag_273\n      swap1\n      tag_274\n      jump\t// in\n    tag_273:\n      mload(0x40)\n      dup1\n      swap2\n      sub\n      swap1\n      revert\n    tag_272:\n        /* \"contracts/Buidl11.sol\":8336:8345  uint256 i */\n      0x00\n        /* \"contracts/Buidl11.sol\":8331:8774  for (uint256 i = 0; i < fantasyTeams.length; i++) {\r... */\n    tag_275:\n        /* \"contracts/Buidl11.sol\":8355:8367  fantasyTeams */\n      0x02\n        /* \"contracts/Buidl11.sol\":8355:8374  fantasyTeams.length */\n      dup1\n      sload\n      swap1\n      pop\n        /* \"contracts/Buidl11.sol\":8351:8352  i */\n      dup2\n        /* \"contracts/Buidl11.sol\":8351:8374  i < fantasyTeams.length */\n      lt\n        /* \"contracts/Buidl11.sol\":8331:8774  for (uint256 i = 0; i < fantasyTeams.length; i++) {\r... */\n      iszero\n      tag_276\n      jumpi\n        /* \"contracts/Buidl11.sol\":8396:8419  FantasyTeam memory team */\n      0x00\n        /* \"contracts/Buidl11.sol\":8422:8434  fantasyTeams */\n      0x02\n        /* \"contracts/Buidl11.sol\":8435:8436  i */\n      dup3\n        /* \"contracts/Buidl11.sol\":8422:8437  fantasyTeams[i] */\n      dup2\n      sload\n      dup2\n      lt\n      tag_278\n      jumpi\n      tag_279\n      tag_101\n      jump\t// in\n    tag_279:\n    tag_278:\n      swap1\n      0x00\n      mstore\n      keccak256(0x00, 0x20)\n      swap1\n      0x07\n      mul\n      add\n        /* \"contracts/Buidl11.sol\":8396:8437  FantasyTeam memory team = fantasyTeams[i] */\n      mload(0x40)\n      dup1\n      0xe0\n      add\n      0x40\n      mstore\n      swap1\n      dup2\n      0x00\n      dup3\n      add\n      0x00\n      swap1\n      sload\n      swap1\n      0x0100\n      exp\n      swap1\n      div\n      0xffffffffffffffffffffffffffffffffffffffff\n      and\n      0xffffffffffffffffffffffffffffffffffffffff\n      and\n      0xffffffffffffffffffffffffffffffffffffffff\n      and\n      dup2\n      mstore\n      0x20\n      add\n      0x01\n      dup3\n      add\n      dup1\n      sload\n      tag_281\n      swap1\n      tag_121\n      jump\t// in\n    tag_281:\n      dup1\n      0x1f\n      add\n      0x20\n      dup1\n      swap2\n      div\n      mul\n      0x20\n      add\n      mload(0x40)\n      swap1\n      dup2\n      add\n      0x40\n      mstore\n      dup1\n      swap3\n      swap2\n      swap1\n      dup2\n      dup2\n      mstore\n      0x20\n      add\n      dup3\n      dup1\n      sload\n      tag_282\n      swap1\n      tag_121\n      jump\t// in\n    tag_282:\n      dup1\n      iszero\n      tag_283\n      jumpi\n      dup1\n      0x1f\n      lt\n      tag_284\n      jumpi\n      0x0100\n      dup1\n      dup4\n      sload\n      div\n      mul\n      dup4\n      mstore\n      swap2\n      0x20\n      add\n      swap2\n      jump(tag_283)\n    tag_284:\n      dup3\n      add\n      swap2\n      swap1\n      0x00\n      mstore\n      keccak256(0x00, 0x20)\n      swap1\n    tag_285:\n      dup2\n      sload\n      dup2\n      mstore\n      swap1\n      0x01\n      add\n      swap1\n      0x20\n      add\n      dup1\n      dup4\n      gt\n      tag_285\n      jumpi\n      dup3\n      swap1\n      sub\n      0x1f\n      and\n      dup3\n      add\n      swap2\n    tag_283:\n      pop\n      pop\n      pop\n      pop\n      pop\n      dup2\n      mstore\n      0x20\n      add\n      0x02\n      dup3\n      add\n      dup1\n      sload\n      dup1\n      0x20\n      mul\n      0x20\n      add\n      mload(0x40)\n      swap1\n      dup2\n      add\n      0x40\n      mstore\n      dup1\n      swap3\n      swap2\n      swap1\n      dup2\n      dup2\n      mstore\n      0x20\n      add\n      dup3\n      dup1\n      sload\n      dup1\n      iszero\n      tag_286\n      jumpi\n      0x20\n      mul\n      dup3\n      add\n      swap2\n      swap1\n      0x00\n      mstore\n      keccak256(0x00, 0x20)\n      swap1\n    tag_287:\n      dup2\n      sload\n      dup2\n      mstore\n      0x20\n      add\n      swap1\n      0x01\n      add\n      swap1\n      dup1\n      dup4\n      gt\n      tag_287\n      jumpi\n    tag_286:\n      pop\n      pop\n      pop\n      pop\n      pop\n      dup2\n      mstore\n      0x20\n      add\n      0x03\n      dup3\n      add\n      sload\n      dup2\n      mstore\n      0x20\n      add\n      0x04\n      dup3\n      add\n      sload\n      dup2\n      mstore\n      0x20\n      add\n      0x05\n      dup3\n      add\n      sload\n      dup2\n      mstore\n      0x20\n      add\n      0x06\n      dup3\n      add\n      sload\n      dup2\n      mstore\n      pop\n      pop\n      swap1\n      pop\n        /* \"contracts/Buidl11.sol\":8457:8466  uint256 j */\n      0x00\n        /* \"contracts/Buidl11.sol\":8452:8763  for (uint256 j = 0; j < team.playerIds.length; j++) {\r... */\n    tag_288:\n        /* \"contracts/Buidl11.sol\":8476:8480  team */\n      dup2\n        /* \"contracts/Buidl11.sol\":8476:8490  team.playerIds */\n      0x40\n      add\n      mload\n        /* \"contracts/Buidl11.sol\":8476:8497  team.playerIds.length */\n      mload\n        /* \"contracts/Buidl11.sol\":8472:8473  j */\n      dup2\n        /* \"contracts/Buidl11.sol\":8472:8497  j < team.playerIds.length */\n      lt\n        /* \"contracts/Buidl11.sol\":8452:8763  for (uint256 j = 0; j < team.playerIds.length; j++) {\r... */\n      iszero\n      tag_289\n      jumpi\n        /* \"contracts/Buidl11.sol\":8548:8747  calculatePlayerScore(\r... */\n      tag_291\n        /* \"contracts/Buidl11.sol\":8591:8595  team */\n      dup3\n        /* \"contracts/Buidl11.sol\":8591:8605  team.playerIds */\n      0x40\n      add\n      mload\n        /* \"contracts/Buidl11.sol\":8606:8607  j */\n      dup3\n        /* \"contracts/Buidl11.sol\":8591:8608  team.playerIds[j] */\n      dup2\n      mload\n      dup2\n      lt\n      tag_292\n      jumpi\n      tag_293\n      tag_101\n      jump\t// in\n    tag_293:\n    tag_292:\n      0x20\n      mul\n      0x20\n      add\n      add\n      mload\n        /* \"contracts/Buidl11.sol\":8649:8653  team */\n      dup4\n        /* \"contracts/Buidl11.sol\":8649:8663  team.playerIds */\n      0x40\n      add\n      mload\n        /* \"contracts/Buidl11.sol\":8664:8665  j */\n      dup4\n        /* \"contracts/Buidl11.sol\":8649:8666  team.playerIds[j] */\n      dup2\n      mload\n      dup2\n      lt\n      tag_294\n      jumpi\n      tag_295\n      tag_101\n      jump\t// in\n    tag_295:\n    tag_294:\n      0x20\n      mul\n      0x20\n      add\n      add\n      mload\n        /* \"contracts/Buidl11.sol\":8631:8635  team */\n      dup5\n        /* \"contracts/Buidl11.sol\":8631:8645  team.captainId */\n      0x60\n      add\n      mload\n        /* \"contracts/Buidl11.sol\":8631:8666  team.captainId == team.playerIds[j] */\n      eq\n        /* \"contracts/Buidl11.sol\":8711:8715  team */\n      dup5\n        /* \"contracts/Buidl11.sol\":8711:8725  team.playerIds */\n      0x40\n      add\n      mload\n        /* \"contracts/Buidl11.sol\":8726:8727  j */\n      dup5\n        /* \"contracts/Buidl11.sol\":8711:8728  team.playerIds[j] */\n      dup2\n      mload\n      dup2\n      lt\n      tag_296\n      jumpi\n      tag_297\n      tag_101\n      jump\t// in\n    tag_297:\n    tag_296:\n      0x20\n      mul\n      0x20\n      add\n      add\n      mload\n        /* \"contracts/Buidl11.sol\":8689:8693  team */\n      dup6\n        /* \"contracts/Buidl11.sol\":8689:8707  team.viceCaptainId */\n      0x80\n      add\n      mload\n        /* \"contracts/Buidl11.sol\":8689:8728  team.viceCaptainId == team.playerIds[j] */\n      eq\n        /* \"contracts/Buidl11.sol\":8548:8568  calculatePlayerScore */\n      tag_298\n        /* \"contracts/Buidl11.sol\":8548:8747  calculatePlayerScore(\r... */\n      jump\t// in\n    tag_291:\n        /* \"contracts/Buidl11.sol\":8523:8535  fantasyTeams */\n      0x02\n        /* \"contracts/Buidl11.sol\":8536:8537  i */\n      dup5\n        /* \"contracts/Buidl11.sol\":8523:8538  fantasyTeams[i] */\n      dup2\n      sload\n      dup2\n      lt\n      tag_299\n      jumpi\n      tag_300\n      tag_101\n      jump\t// in\n    tag_300:\n    tag_299:\n      swap1\n      0x00\n      mstore\n      keccak256(0x00, 0x20)\n      swap1\n      0x07\n      mul\n      add\n        /* \"contracts/Buidl11.sol\":8523:8544  fantasyTeams[i].score */\n      0x06\n      add\n      0x00\n        /* \"contracts/Buidl11.sol\":8523:8747  fantasyTeams[i].score += calculatePlayerScore(\r... */\n      dup3\n      dup3\n      sload\n      tag_302\n      swap2\n      swap1\n      tag_303\n      jump\t// in\n    tag_302:\n      swap3\n      pop\n      pop\n      dup2\n      swap1\n      sstore\n      pop\n        /* \"contracts/Buidl11.sol\":8499:8502  j++ */\n      dup1\n      dup1\n      tag_304\n      swap1\n      tag_219\n      jump\t// in\n    tag_304:\n      swap2\n      pop\n      pop\n        /* \"contracts/Buidl11.sol\":8452:8763  for (uint256 j = 0; j < team.playerIds.length; j++) {\r... */\n      jump(tag_288)\n    tag_289:\n      pop\n        /* \"contracts/Buidl11.sol\":8381:8774  {\r... */\n      pop\n        /* \"contracts/Buidl11.sol\":8376:8379  i++ */\n      dup1\n      dup1\n      tag_305\n      swap1\n      tag_219\n      jump\t// in\n    tag_305:\n      swap2\n      pop\n      pop\n        /* \"contracts/Buidl11.sol\":8331:8774  for (uint256 i = 0; i < fantasyTeams.length; i++) {\r... */\n      jump(tag_275)\n    tag_276:\n      pop\n        /* \"contracts/Buidl11.sol\":8784:8803  distributeRewards() */\n      tag_306\n        /* \"contracts/Buidl11.sol\":8784:8801  distributeRewards */\n      tag_307\n        /* \"contracts/Buidl11.sol\":8784:8803  distributeRewards() */\n      jump\t// in\n    tag_306:\n        /* \"contracts/Buidl11.sol\":8827:8853  Status.NO_GAME_IN_PROGRESS */\n      0x00\n        /* \"contracts/Buidl11.sol\":8814:8824  gameStatus */\n      dup1\n      0x14\n        /* \"contracts/Buidl11.sol\":8814:8853  gameStatus = Status.NO_GAME_IN_PROGRESS */\n      0x0100\n      exp\n      dup2\n      sload\n      dup2\n      0xff\n      mul\n      not\n      and\n      swap1\n      dup4\n      0x04\n      dup2\n      gt\n      iszero\n      tag_308\n      jumpi\n      tag_309\n      tag_79\n      jump\t// in\n    tag_309:\n    tag_308:\n      mul\n      or\n      swap1\n      sstore\n      pop\n        /* \"contracts/Buidl11.sol\":8205:8861  function calculateTeamsScore() public {\r... */\n      jump\t// out\n        /* \"contracts/Buidl11.sol\":2897:3498  function addFantasyTeam(string memory teamName) public {\r... */\n    tag_64:\n        /* \"contracts/Buidl11.sol\":2999:3019  Status.PRE_GAME_USER */\n      0x02\n        /* \"contracts/Buidl11.sol\":2985:3019  gameStatus == Status.PRE_GAME_USER */\n      0x04\n      dup2\n      gt\n      iszero\n      tag_311\n      jumpi\n      tag_312\n      tag_79\n      jump\t// in\n    tag_312:\n    tag_311:\n        /* \"contracts/Buidl11.sol\":2985:2995  gameStatus */\n      0x00\n      0x14\n      swap1\n      sload\n      swap1\n      0x0100\n      exp\n      swap1\n      div\n      0xff\n      and\n        /* \"contracts/Buidl11.sol\":2985:3019  gameStatus == Status.PRE_GAME_USER */\n      0x04\n      dup2\n      gt\n      iszero\n      tag_313\n      jumpi\n      tag_314\n      tag_79\n      jump\t// in\n    tag_314:\n    tag_313:\n      eq\n        /* \"contracts/Buidl11.sol\":2963:3079  require(\r... */\n      tag_315\n      jumpi\n      mload(0x40)\n      0x08c379a000000000000000000000000000000000000000000000000000000000\n      dup2\n      mstore\n      0x04\n      add\n      tag_316\n      swap1\n      tag_317\n      jump\t// in\n    tag_316:\n      mload(0x40)\n      dup1\n      swap2\n      sub\n      swap1\n      revert\n    tag_315:\n        /* \"contracts/Buidl11.sol\":3092:3113  uint256 fantasyTeamID */\n      0x00\n        /* \"contracts/Buidl11.sol\":3116:3144  getFantasyTeamID(msg.sender) */\n      tag_318\n        /* \"contracts/Buidl11.sol\":3133:3143  msg.sender */\n      caller\n        /* \"contracts/Buidl11.sol\":3116:3132  getFantasyTeamID */\n      tag_86\n        /* \"contracts/Buidl11.sol\":3116:3144  getFantasyTeamID(msg.sender) */\n      jump\t// in\n    tag_318:\n        /* \"contracts/Buidl11.sol\":3092:3144  uint256 fantasyTeamID = getFantasyTeamID(msg.sender) */\n      swap1\n      pop\n        /* \"contracts/Buidl11.sol\":3194:3206  fantasyTeams */\n      0x02\n        /* \"contracts/Buidl11.sol\":3194:3213  fantasyTeams.length */\n      dup1\n      sload\n      swap1\n      pop\n        /* \"contracts/Buidl11.sol\":3177:3190  fantasyTeamID */\n      dup2\n        /* \"contracts/Buidl11.sol\":3177:3213  fantasyTeamID == fantasyTeams.length */\n      eq\n        /* \"contracts/Buidl11.sol\":3155:3273  require(\r... */\n      tag_319\n      jumpi\n      mload(0x40)\n      0x08c379a000000000000000000000000000000000000000000000000000000000\n      dup2\n      mstore\n      0x04\n      add\n      tag_320\n      swap1\n      tag_321\n      jump\t// in\n    tag_320:\n      mload(0x40)\n      dup1\n      swap2\n      sub\n      swap1\n      revert\n    tag_319:\n        /* \"contracts/Buidl11.sol\":3286:3312  FantasyTeam memory newTeam */\n      tag_322\n      tag_323\n      jump\t// in\n    tag_322:\n        /* \"contracts/Buidl11.sol\":3338:3346  teamName */\n      dup3\n        /* \"contracts/Buidl11.sol\":3323:3330  newTeam */\n      dup2\n        /* \"contracts/Buidl11.sol\":3323:3335  newTeam.name */\n      0x20\n      add\n        /* \"contracts/Buidl11.sol\":3323:3346  newTeam.name = teamName */\n      dup2\n      swap1\n      mstore\n      pop\n        /* \"contracts/Buidl11.sol\":3375:3385  msg.sender */\n      caller\n        /* \"contracts/Buidl11.sol\":3357:3364  newTeam */\n      dup2\n        /* \"contracts/Buidl11.sol\":3357:3372  newTeam.ownerId */\n      0x00\n      add\n        /* \"contracts/Buidl11.sol\":3357:3385  newTeam.ownerId = msg.sender */\n      swap1\n      0xffffffffffffffffffffffffffffffffffffffff\n      and\n      swap1\n      dup2\n      0xffffffffffffffffffffffffffffffffffffffff\n      and\n      dup2\n      mstore\n      pop\n      pop\n        /* \"contracts/Buidl11.sol\":3416:3417  0 */\n      0x00\n        /* \"contracts/Buidl11.sol\":3396:3403  newTeam */\n      dup2\n        /* \"contracts/Buidl11.sol\":3396:3413  newTeam.captainId */\n      0x60\n      add\n        /* \"contracts/Buidl11.sol\":3396:3417  newTeam.captainId = 0 */\n      dup2\n      dup2\n      mstore\n      pop\n      pop\n        /* \"contracts/Buidl11.sol\":3452:3453  1 */\n      0x01\n        /* \"contracts/Buidl11.sol\":3428:3435  newTeam */\n      dup2\n        /* \"contracts/Buidl11.sol\":3428:3449  newTeam.viceCaptainId */\n      0x80\n      add\n        /* \"contracts/Buidl11.sol\":3428:3453  newTeam.viceCaptainId = 1 */\n      dup2\n      dup2\n      mstore\n      pop\n      pop\n        /* \"contracts/Buidl11.sol\":3464:3476  fantasyTeams */\n      0x02\n        /* \"contracts/Buidl11.sol\":3482:3489  newTeam */\n      dup2\n        /* \"contracts/Buidl11.sol\":3464:3490  fantasyTeams.push(newTeam) */\n      swap1\n      dup1\n      0x01\n      dup2\n      sload\n      add\n      dup1\n      dup3\n      sstore\n      dup1\n      swap2\n      pop\n      pop\n      0x01\n      swap1\n      sub\n      swap1\n      0x00\n      mstore\n      keccak256(0x00, 0x20)\n      swap1\n      0x07\n      mul\n      add\n      0x00\n      swap1\n      swap2\n      swap1\n      swap2\n      swap1\n      swap2\n      pop\n      0x00\n      dup3\n      add\n      mload\n      dup2\n      0x00\n      add\n      exp(0x0100, 0x00)\n      dup2\n      sload\n      dup2\n      0xffffffffffffffffffffffffffffffffffffffff\n      mul\n      not\n      and\n      swap1\n      dup4\n      0xffffffffffffffffffffffffffffffffffffffff\n      and\n      mul\n      or\n      swap1\n      sstore\n      pop\n      0x20\n      dup3\n      add\n      mload\n      dup2\n      0x01\n      add\n      swap1\n      dup1\n      mload\n      swap1\n      0x20\n      add\n      swap1\n      tag_325\n      swap3\n      swap2\n      swap1\n      tag_232\n      jump\t// in\n    tag_325:\n      pop\n      0x40\n      dup3\n      add\n      mload\n      dup2\n      0x02\n      add\n      swap1\n      dup1\n      mload\n      swap1\n      0x20\n      add\n      swap1\n      tag_326\n      swap3\n      swap2\n      swap1\n      tag_327\n      jump\t// in\n    tag_326:\n      pop\n      0x60\n      dup3\n      add\n      mload\n      dup2\n      0x03\n      add\n      sstore\n      0x80\n      dup3\n      add\n      mload\n      dup2\n      0x04\n      add\n      sstore\n      0xa0\n      dup3\n      add\n      mload\n      dup2\n      0x05\n      add\n      sstore\n      0xc0\n      dup3\n      add\n      mload\n      dup2\n      0x06\n      add\n      sstore\n      pop\n      pop\n        /* \"contracts/Buidl11.sol\":2952:3498  {\r... */\n      pop\n      pop\n        /* \"contracts/Buidl11.sol\":2897:3498  function addFantasyTeam(string memory teamName) public {\r... */\n      pop\n      jump\t// out\n        /* \"contracts/Buidl11.sol\":6114:6496  function setplayerStats(\r... */\n    tag_68:\n        /* \"contracts/Buidl11.sol\":6252:6260  playerID */\n      dup3\n        /* \"contracts/Buidl11.sol\":1129:1136  players */\n      0x01\n        /* \"contracts/Buidl11.sol\":1129:1143  players.length */\n      dup1\n      sload\n      swap1\n      pop\n        /* \"contracts/Buidl11.sol\":1118:1126  playerID */\n      dup2\n        /* \"contracts/Buidl11.sol\":1118:1143  playerID < players.length */\n      lt\n        /* \"contracts/Buidl11.sol\":1110:1169  require(playerID < players.length, \"Player does not exist\") */\n      tag_329\n      jumpi\n      mload(0x40)\n      0x08c379a000000000000000000000000000000000000000000000000000000000\n      dup2\n      mstore\n      0x04\n      add\n      tag_330\n      swap1\n      tag_72\n      jump\t// in\n    tag_330:\n      mload(0x40)\n      dup1\n      swap2\n      sub\n      swap1\n      revert\n    tag_329:\n        /* \"contracts/Buidl11.sol\":6314:6332  Status.GAME_BEGINS */\n      0x03\n        /* \"contracts/Buidl11.sol\":6300:6332  gameStatus == Status.GAME_BEGINS */\n      0x04\n      dup2\n      gt\n      iszero\n      tag_332\n      jumpi\n      tag_333\n      tag_79\n      jump\t// in\n    tag_333:\n    tag_332:\n        /* \"contracts/Buidl11.sol\":6300:6310  gameStatus */\n      0x00\n      0x14\n      swap1\n      sload\n      swap1\n      0x0100\n      exp\n      swap1\n      div\n      0xff\n      and\n        /* \"contracts/Buidl11.sol\":6300:6332  gameStatus == Status.GAME_BEGINS */\n      0x04\n      dup2\n      gt\n      iszero\n      tag_334\n      jumpi\n      tag_335\n      tag_79\n      jump\t// in\n    tag_335:\n    tag_334:\n      eq\n        /* \"contracts/Buidl11.sol\":6278:6388  require(\r... */\n      tag_336\n      jumpi\n      mload(0x40)\n      0x08c379a000000000000000000000000000000000000000000000000000000000\n      dup2\n      mstore\n      0x04\n      add\n      tag_337\n      swap1\n      tag_338\n      jump\t// in\n    tag_337:\n      mload(0x40)\n      dup1\n      swap2\n      sub\n      swap1\n      revert\n    tag_336:\n        /* \"contracts/Buidl11.sol\":6432:6436  runs */\n      dup3\n        /* \"contracts/Buidl11.sol\":6401:6408  players */\n      0x01\n        /* \"contracts/Buidl11.sol\":6409:6417  playerID */\n      dup6\n        /* \"contracts/Buidl11.sol\":6401:6418  players[playerID] */\n      dup2\n      sload\n      dup2\n      lt\n      tag_339\n      jumpi\n      tag_340\n      tag_101\n      jump\t// in\n    tag_340:\n    tag_339:\n      swap1\n      0x00\n      mstore\n      keccak256(0x00, 0x20)\n      swap1\n      0x04\n      mul\n      add\n        /* \"contracts/Buidl11.sol\":6401:6424  players[playerID].stats */\n      0x02\n      add\n        /* \"contracts/Buidl11.sol\":6401:6429  players[playerID].stats.runs */\n      0x00\n      add\n        /* \"contracts/Buidl11.sol\":6401:6436  players[playerID].stats.runs = runs */\n      dup2\n      swap1\n      sstore\n      pop\n        /* \"contracts/Buidl11.sol\":6481:6488  wickets */\n      dup2\n        /* \"contracts/Buidl11.sol\":6447:6454  players */\n      0x01\n        /* \"contracts/Buidl11.sol\":6455:6463  playerID */\n      dup6\n        /* \"contracts/Buidl11.sol\":6447:6464  players[playerID] */\n      dup2\n      sload\n      dup2\n      lt\n      tag_342\n      jumpi\n      tag_343\n      tag_101\n      jump\t// in\n    tag_343:\n    tag_342:\n      swap1\n      0x00\n      mstore\n      keccak256(0x00, 0x20)\n      swap1\n      0x04\n      mul\n      add\n        /* \"contracts/Buidl11.sol\":6447:6470  players[playerID].stats */\n      0x02\n      add\n        /* \"contracts/Buidl11.sol\":6447:6478  players[playerID].stats.wickets */\n      0x01\n      add\n        /* \"contracts/Buidl11.sol\":6447:6488  players[playerID].stats.wickets = wickets */\n      dup2\n      swap1\n      sstore\n      pop\n        /* \"contracts/Buidl11.sol\":6114:6496  function setplayerStats(\r... */\n      pop\n      pop\n      pop\n      pop\n      jump\t// out\n        /* \"contracts/Buidl11.sol\":2006:2294  function getFantasyTeamID(address ownerId) private view returns (uint256) {\r... */\n    tag_86:\n        /* \"contracts/Buidl11.sol\":2071:2078  uint256 */\n      0x00\n        /* \"contracts/Buidl11.sol\":2096:2105  uint256 i */\n      dup1\n        /* \"contracts/Buidl11.sol\":2108:2109  0 */\n      0x00\n        /* \"contracts/Buidl11.sol\":2096:2109  uint256 i = 0 */\n      swap1\n      pop\n        /* \"contracts/Buidl11.sol\":2091:2250  for (uint256 i = 0; i < fantasyTeams.length; i++) {\r... */\n    tag_346:\n        /* \"contracts/Buidl11.sol\":2115:2127  fantasyTeams */\n      0x02\n        /* \"contracts/Buidl11.sol\":2115:2134  fantasyTeams.length */\n      dup1\n      sload\n      swap1\n      pop\n        /* \"contracts/Buidl11.sol\":2111:2112  i */\n      dup2\n        /* \"contracts/Buidl11.sol\":2111:2134  i < fantasyTeams.length */\n      lt\n        /* \"contracts/Buidl11.sol\":2091:2250  for (uint256 i = 0; i < fantasyTeams.length; i++) {\r... */\n      iszero\n      tag_347\n      jumpi\n        /* \"contracts/Buidl11.sol\":2187:2194  ownerId */\n      dup3\n        /* \"contracts/Buidl11.sol\":2160:2194  fantasyTeams[i].ownerId == ownerId */\n      0xffffffffffffffffffffffffffffffffffffffff\n      and\n        /* \"contracts/Buidl11.sol\":2160:2172  fantasyTeams */\n      0x02\n        /* \"contracts/Buidl11.sol\":2173:2174  i */\n      dup3\n        /* \"contracts/Buidl11.sol\":2160:2175  fantasyTeams[i] */\n      dup2\n      sload\n      dup2\n      lt\n      tag_349\n      jumpi\n      tag_350\n      tag_101\n      jump\t// in\n    tag_350:\n    tag_349:\n      swap1\n      0x00\n      mstore\n      keccak256(0x00, 0x20)\n      swap1\n      0x07\n      mul\n      add\n        /* \"contracts/Buidl11.sol\":2160:2183  fantasyTeams[i].ownerId */\n      0x00\n      add\n      0x00\n      swap1\n      sload\n      swap1\n      0x0100\n      exp\n      swap1\n      div\n      0xffffffffffffffffffffffffffffffffffffffff\n      and\n        /* \"contracts/Buidl11.sol\":2160:2194  fantasyTeams[i].ownerId == ownerId */\n      0xffffffffffffffffffffffffffffffffffffffff\n      and\n      eq\n        /* \"contracts/Buidl11.sol\":2156:2239  if (fantasyTeams[i].ownerId == ownerId) {\r... */\n      iszero\n      tag_352\n      jumpi\n        /* \"contracts/Buidl11.sol\":2222:2223  i */\n      dup1\n        /* \"contracts/Buidl11.sol\":2215:2223  return i */\n      swap2\n      pop\n      pop\n      jump(tag_345)\n        /* \"contracts/Buidl11.sol\":2156:2239  if (fantasyTeams[i].ownerId == ownerId) {\r... */\n    tag_352:\n        /* \"contracts/Buidl11.sol\":2136:2139  i++ */\n      dup1\n      dup1\n      tag_353\n      swap1\n      tag_219\n      jump\t// in\n    tag_353:\n      swap2\n      pop\n      pop\n        /* \"contracts/Buidl11.sol\":2091:2250  for (uint256 i = 0; i < fantasyTeams.length; i++) {\r... */\n      jump(tag_346)\n    tag_347:\n      pop\n        /* \"contracts/Buidl11.sol\":2267:2279  fantasyTeams */\n      0x02\n        /* \"contracts/Buidl11.sol\":2267:2286  fantasyTeams.length */\n      dup1\n      sload\n      swap1\n      pop\n        /* \"contracts/Buidl11.sol\":2260:2286  return fantasyTeams.length */\n      swap1\n      pop\n        /* \"contracts/Buidl11.sol\":2006:2294  function getFantasyTeamID(address ownerId) private view returns (uint256) {\r... */\n    tag_345:\n      swap2\n      swap1\n      pop\n      jump\t// out\n        /* \"contracts/Buidl11.sol\":2307:2705  function existsPlayerIdInFantasyTeam(\r... */\n    tag_91:\n        /* \"contracts/Buidl11.sol\":2432:2436  bool */\n      0x00\n        /* \"contracts/Buidl11.sol\":2449:2475  uint256[] memory playerIds */\n      dup1\n        /* \"contracts/Buidl11.sol\":2478:2490  fantasyTeams */\n      0x02\n        /* \"contracts/Buidl11.sol\":2491:2504  fantasyTeamID */\n      dup4\n        /* \"contracts/Buidl11.sol\":2478:2505  fantasyTeams[fantasyTeamID] */\n      dup2\n      sload\n      dup2\n      lt\n      tag_355\n      jumpi\n      tag_356\n      tag_101\n      jump\t// in\n    tag_356:\n    tag_355:\n      swap1\n      0x00\n      mstore\n      keccak256(0x00, 0x20)\n      swap1\n      0x07\n      mul\n      add\n        /* \"contracts/Buidl11.sol\":2478:2515  fantasyTeams[fantasyTeamID].playerIds */\n      0x02\n      add\n        /* \"contracts/Buidl11.sol\":2449:2515  uint256[] memory playerIds = fantasyTeams[fantasyTeamID].playerIds */\n      dup1\n      sload\n      dup1\n      0x20\n      mul\n      0x20\n      add\n      mload(0x40)\n      swap1\n      dup2\n      add\n      0x40\n      mstore\n      dup1\n      swap3\n      swap2\n      swap1\n      dup2\n      dup2\n      mstore\n      0x20\n      add\n      dup3\n      dup1\n      sload\n      dup1\n      iszero\n      tag_358\n      jumpi\n      0x20\n      mul\n      dup3\n      add\n      swap2\n      swap1\n      0x00\n      mstore\n      keccak256(0x00, 0x20)\n      swap1\n    tag_359:\n      dup2\n      sload\n      dup2\n      mstore\n      0x20\n      add\n      swap1\n      0x01\n      add\n      swap1\n      dup1\n      dup4\n      gt\n      tag_359\n      jumpi\n    tag_358:\n      pop\n      pop\n      pop\n      pop\n      pop\n      swap1\n      pop\n        /* \"contracts/Buidl11.sol\":2531:2540  uint256 i */\n      0x00\n        /* \"contracts/Buidl11.sol\":2526:2675  for (uint256 i = 0; i < playerIds.length; i++) {\r... */\n    tag_360:\n        /* \"contracts/Buidl11.sol\":2550:2559  playerIds */\n      dup2\n        /* \"contracts/Buidl11.sol\":2550:2566  playerIds.length */\n      mload\n        /* \"contracts/Buidl11.sol\":2546:2547  i */\n      dup2\n        /* \"contracts/Buidl11.sol\":2546:2566  i < playerIds.length */\n      lt\n        /* \"contracts/Buidl11.sol\":2526:2675  for (uint256 i = 0; i < playerIds.length; i++) {\r... */\n      iszero\n      tag_361\n      jumpi\n        /* \"contracts/Buidl11.sol\":2608:2616  playerID */\n      dup5\n        /* \"contracts/Buidl11.sol\":2592:2601  playerIds */\n      dup3\n        /* \"contracts/Buidl11.sol\":2602:2603  i */\n      dup3\n        /* \"contracts/Buidl11.sol\":2592:2604  playerIds[i] */\n      dup2\n      mload\n      dup2\n      lt\n      tag_363\n      jumpi\n      tag_364\n      tag_101\n      jump\t// in\n    tag_364:\n    tag_363:\n      0x20\n      mul\n      0x20\n      add\n      add\n      mload\n        /* \"contracts/Buidl11.sol\":2592:2616  playerIds[i] == playerID */\n      eq\n        /* \"contracts/Buidl11.sol\":2588:2664  if (playerIds[i] == playerID) {\r... */\n      iszero\n      tag_365\n      jumpi\n        /* \"contracts/Buidl11.sol\":2644:2648  true */\n      0x01\n        /* \"contracts/Buidl11.sol\":2637:2648  return true */\n      swap3\n      pop\n      pop\n      pop\n      jump(tag_354)\n        /* \"contracts/Buidl11.sol\":2588:2664  if (playerIds[i] == playerID) {\r... */\n    tag_365:\n        /* \"contracts/Buidl11.sol\":2568:2571  i++ */\n      dup1\n      dup1\n      tag_366\n      swap1\n      tag_219\n      jump\t// in\n    tag_366:\n      swap2\n      pop\n      pop\n        /* \"contracts/Buidl11.sol\":2526:2675  for (uint256 i = 0; i < playerIds.length; i++) {\r... */\n      jump(tag_360)\n    tag_361:\n      pop\n        /* \"contracts/Buidl11.sol\":2692:2697  false */\n      0x00\n        /* \"contracts/Buidl11.sol\":2685:2697  return false */\n      swap2\n      pop\n      pop\n        /* \"contracts/Buidl11.sol\":2307:2705  function existsPlayerIdInFantasyTeam(\r... */\n    tag_354:\n      swap3\n      swap2\n      pop\n      pop\n      jump\t// out\n        /* \"contracts/Buidl11.sol\":8869:9490  function uint2str(uint256 _i)\r... */\n    tag_206:\n        /* \"contracts/Buidl11.sol\":8949:8976  string memory _uintAsString */\n      0x60\n        /* \"contracts/Buidl11.sol\":9004:9005  0 */\n      0x00\n        /* \"contracts/Buidl11.sol\":8998:9000  _i */\n      dup3\n        /* \"contracts/Buidl11.sol\":8998:9005  _i == 0 */\n      eq\n        /* \"contracts/Buidl11.sol\":8994:9044  if (_i == 0) {\r... */\n      iszero\n      tag_368\n      jumpi\n        /* \"contracts/Buidl11.sol\":9022:9032  return \"0\" */\n      mload(0x40)\n      dup1\n      0x40\n      add\n      0x40\n      mstore\n      dup1\n      0x01\n      dup2\n      mstore\n      0x20\n      add\n      0x3000000000000000000000000000000000000000000000000000000000000000\n      dup2\n      mstore\n      pop\n      swap1\n      pop\n      jump(tag_367)\n        /* \"contracts/Buidl11.sol\":8994:9044  if (_i == 0) {\r... */\n    tag_368:\n        /* \"contracts/Buidl11.sol\":9054:9063  uint256 j */\n      0x00\n        /* \"contracts/Buidl11.sol\":9066:9068  _i */\n      dup3\n        /* \"contracts/Buidl11.sol\":9054:9068  uint256 j = _i */\n      swap1\n      pop\n        /* \"contracts/Buidl11.sol\":9079:9090  uint256 len */\n      0x00\n        /* \"contracts/Buidl11.sol\":9101:9170  while (j != 0) {\r... */\n    tag_369:\n        /* \"contracts/Buidl11.sol\":9113:9114  0 */\n      0x00\n        /* \"contracts/Buidl11.sol\":9108:9109  j */\n      dup3\n        /* \"contracts/Buidl11.sol\":9108:9114  j != 0 */\n      eq\n        /* \"contracts/Buidl11.sol\":9101:9170  while (j != 0) {\r... */\n      tag_370\n      jumpi\n        /* \"contracts/Buidl11.sol\":9131:9136  len++ */\n      dup1\n      dup1\n      tag_371\n      swap1\n      tag_219\n      jump\t// in\n    tag_371:\n      swap2\n      pop\n      pop\n        /* \"contracts/Buidl11.sol\":9156:9158  10 */\n      0x0a\n        /* \"contracts/Buidl11.sol\":9151:9158  j /= 10 */\n      dup3\n      tag_372\n      swap2\n      swap1\n      tag_373\n      jump\t// in\n    tag_372:\n      swap2\n      pop\n        /* \"contracts/Buidl11.sol\":9101:9170  while (j != 0) {\r... */\n      jump(tag_369)\n    tag_370:\n        /* \"contracts/Buidl11.sol\":9180:9197  bytes memory bstr */\n      0x00\n        /* \"contracts/Buidl11.sol\":9210:9213  len */\n      dup2\n        /* \"contracts/Buidl11.sol\":9200:9214  new bytes(len) */\n      0xffffffffffffffff\n      dup2\n      gt\n      iszero\n      tag_374\n      jumpi\n      tag_375\n      tag_376\n      jump\t// in\n    tag_375:\n    tag_374:\n      mload(0x40)\n      swap1\n      dup1\n      dup3\n      mstore\n      dup1\n      0x1f\n      add\n      not(0x1f)\n      and\n      0x20\n      add\n      dup3\n      add\n      0x40\n      mstore\n      dup1\n      iszero\n      tag_377\n      jumpi\n      dup2\n      0x20\n      add\n      0x01\n      dup3\n      mul\n      dup1\n      calldatasize\n      dup4\n      calldatacopy\n      dup1\n      dup3\n      add\n      swap2\n      pop\n      pop\n      swap1\n      pop\n    tag_377:\n      pop\n        /* \"contracts/Buidl11.sol\":9180:9214  bytes memory bstr = new bytes(len) */\n      swap1\n      pop\n        /* \"contracts/Buidl11.sol\":9225:9234  uint256 k */\n      0x00\n        /* \"contracts/Buidl11.sol\":9237:9240  len */\n      dup3\n        /* \"contracts/Buidl11.sol\":9225:9240  uint256 k = len */\n      swap1\n      pop\n        /* \"contracts/Buidl11.sol\":9251:9453  while (_i != 0) {\r... */\n    tag_378:\n        /* \"contracts/Buidl11.sol\":9264:9265  0 */\n      0x00\n        /* \"contracts/Buidl11.sol\":9258:9260  _i */\n      dup7\n        /* \"contracts/Buidl11.sol\":9258:9265  _i != 0 */\n      eq\n        /* \"contracts/Buidl11.sol\":9251:9453  while (_i != 0) {\r... */\n      tag_379\n      jumpi\n        /* \"contracts/Buidl11.sol\":9290:9291  1 */\n      0x01\n        /* \"contracts/Buidl11.sol\":9286:9287  k */\n      dup2\n        /* \"contracts/Buidl11.sol\":9286:9291  k - 1 */\n      tag_380\n      swap2\n      swap1\n      tag_381\n      jump\t// in\n    tag_380:\n        /* \"contracts/Buidl11.sol\":9282:9291  k = k - 1 */\n      swap1\n      pop\n        /* \"contracts/Buidl11.sol\":9306:9316  uint8 temp */\n      0x00\n        /* \"contracts/Buidl11.sol\":9348:9350  10 */\n      0x0a\n        /* \"contracts/Buidl11.sol\":9342:9344  10 */\n      dup1\n        /* \"contracts/Buidl11.sol\":9337:9339  _i */\n      dup9\n        /* \"contracts/Buidl11.sol\":9337:9344  _i / 10 */\n      tag_382\n      swap2\n      swap1\n      tag_373\n      jump\t// in\n    tag_382:\n        /* \"contracts/Buidl11.sol\":9336:9350  (_i / 10) * 10 */\n      tag_383\n      swap2\n      swap1\n      tag_384\n      jump\t// in\n    tag_383:\n        /* \"contracts/Buidl11.sol\":9331:9333  _i */\n      dup8\n        /* \"contracts/Buidl11.sol\":9331:9350  _i - (_i / 10) * 10 */\n      tag_385\n      swap2\n      swap1\n      tag_381\n      jump\t// in\n    tag_385:\n        /* \"contracts/Buidl11.sol\":9320:9322  48 */\n      0x30\n        /* \"contracts/Buidl11.sol\":9320:9351  48 + uint8(_i - (_i / 10) * 10) */\n      tag_386\n      swap2\n      swap1\n      tag_387\n      jump\t// in\n    tag_386:\n        /* \"contracts/Buidl11.sol\":9306:9352  uint8 temp = (48 + uint8(_i - (_i / 10) * 10)) */\n      swap1\n      pop\n        /* \"contracts/Buidl11.sol\":9367:9376  bytes1 b1 */\n      0x00\n        /* \"contracts/Buidl11.sol\":9386:9390  temp */\n      dup2\n        /* \"contracts/Buidl11.sol\":9379:9391  bytes1(temp) */\n      0xf8\n      shl\n        /* \"contracts/Buidl11.sol\":9367:9391  bytes1 b1 = bytes1(temp) */\n      swap1\n      pop\n        /* \"contracts/Buidl11.sol\":9416:9418  b1 */\n      dup1\n        /* \"contracts/Buidl11.sol\":9406:9410  bstr */\n      dup5\n        /* \"contracts/Buidl11.sol\":9411:9412  k */\n      dup5\n        /* \"contracts/Buidl11.sol\":9406:9413  bstr[k] */\n      dup2\n      mload\n      dup2\n      lt\n      tag_388\n      jumpi\n      tag_389\n      tag_101\n      jump\t// in\n    tag_389:\n    tag_388:\n      0x20\n      add\n      add\n        /* \"contracts/Buidl11.sol\":9406:9418  bstr[k] = b1 */\n      swap1\n      not(0xffffffffffffffffffffffffffffffffffffffffffffffffffffffffffffff)\n      and\n      swap1\n      dup2\n      0x00\n      byte\n      swap1\n      mstore8\n      pop\n        /* \"contracts/Buidl11.sol\":9439:9441  10 */\n      0x0a\n        /* \"contracts/Buidl11.sol\":9433:9441  _i /= 10 */\n      dup9\n      tag_390\n      swap2\n      swap1\n      tag_373\n      jump\t// in\n    tag_390:\n      swap8\n      pop\n        /* \"contracts/Buidl11.sol\":9267:9453  {\r... */\n      pop\n      pop\n        /* \"contracts/Buidl11.sol\":9251:9453  while (_i != 0) {\r... */\n      jump(tag_378)\n    tag_379:\n        /* \"contracts/Buidl11.sol\":9477:9481  bstr */\n      dup2\n        /* \"contracts/Buidl11.sol\":9463:9482  return string(bstr) */\n      swap5\n      pop\n      pop\n      pop\n      pop\n      pop\n        /* \"contracts/Buidl11.sol\":8869:9490  function uint2str(uint256 _i)\r... */\n    tag_367:\n      swap2\n      swap1\n      pop\n      jump\t// out\n        /* \"contracts/Buidl11.sol\":6671:7281  function calculatePlayerScore(\r... */\n    tag_298:\n        /* \"contracts/Buidl11.sol\":6811:6818  uint256 */\n      0x00\n        /* \"contracts/Buidl11.sol\":6855:6864  isCaptain */\n      dup3\n        /* \"contracts/Buidl11.sol\":6855:6881  isCaptain && isViceCaptain */\n      dup1\n      iszero\n      tag_392\n      jumpi\n      pop\n        /* \"contracts/Buidl11.sol\":6868:6881  isViceCaptain */\n      dup2\n        /* \"contracts/Buidl11.sol\":6855:6881  isCaptain && isViceCaptain */\n    tag_392:\n        /* \"contracts/Buidl11.sol\":6853:6882  !(isCaptain && isViceCaptain) */\n      iszero\n        /* \"contracts/Buidl11.sol\":6831:6971  require(\r... */\n      tag_393\n      jumpi\n      mload(0x40)\n      0x08c379a000000000000000000000000000000000000000000000000000000000\n      dup2\n      mstore\n      0x04\n      add\n      tag_394\n      swap1\n      tag_395\n      jump\t// in\n    tag_394:\n      mload(0x40)\n      dup1\n      swap2\n      sub\n      swap1\n      revert\n    tag_393:\n        /* \"contracts/Buidl11.sol\":6984:6997  uint256 score */\n      0x00\n        /* \"contracts/Buidl11.sol\":7114:7124  WICKET_MUL */\n      sload(0x05)\n        /* \"contracts/Buidl11.sol\":7067:7074  players */\n      0x01\n        /* \"contracts/Buidl11.sol\":7075:7083  playerID */\n      dup7\n        /* \"contracts/Buidl11.sol\":7067:7084  players[playerID] */\n      dup2\n      sload\n      dup2\n      lt\n      tag_396\n      jumpi\n      tag_397\n      tag_101\n      jump\t// in\n    tag_397:\n    tag_396:\n      swap1\n      0x00\n      mstore\n      keccak256(0x00, 0x20)\n      swap1\n      0x04\n      mul\n      add\n        /* \"contracts/Buidl11.sol\":7067:7090  players[playerID].stats */\n      0x02\n      add\n        /* \"contracts/Buidl11.sol\":7067:7098  players[playerID].stats.wickets */\n      0x01\n      add\n      sload\n        /* \"contracts/Buidl11.sol\":7067:7124  players[playerID].stats.wickets *\r... */\n      tag_399\n      swap2\n      swap1\n      tag_384\n      jump\t// in\n    tag_399:\n        /* \"contracts/Buidl11.sol\":7044:7051  RUN_MUL */\n      sload(0x04)\n        /* \"contracts/Buidl11.sol\":7000:7007  players */\n      0x01\n        /* \"contracts/Buidl11.sol\":7008:7016  playerID */\n      dup8\n        /* \"contracts/Buidl11.sol\":7000:7017  players[playerID] */\n      dup2\n      sload\n      dup2\n      lt\n      tag_400\n      jumpi\n      tag_401\n      tag_101\n      jump\t// in\n    tag_401:\n    tag_400:\n      swap1\n      0x00\n      mstore\n      keccak256(0x00, 0x20)\n      swap1\n      0x04\n      mul\n      add\n        /* \"contracts/Buidl11.sol\":7000:7023  players[playerID].stats */\n      0x02\n      add\n        /* \"contracts/Buidl11.sol\":7000:7028  players[playerID].stats.runs */\n      0x00\n      add\n      sload\n        /* \"contracts/Buidl11.sol\":7000:7051  players[playerID].stats.runs *\r... */\n      tag_403\n      swap2\n      swap1\n      tag_384\n      jump\t// in\n    tag_403:\n        /* \"contracts/Buidl11.sol\":7000:7124  players[playerID].stats.runs *\r... */\n      tag_404\n      swap2\n      swap1\n      tag_303\n      jump\t// in\n    tag_404:\n        /* \"contracts/Buidl11.sol\":6984:7124  uint256 score = players[playerID].stats.runs *\r... */\n      swap1\n      pop\n        /* \"contracts/Buidl11.sol\":7139:7148  isCaptain */\n      dup4\n        /* \"contracts/Buidl11.sol\":7135:7249  if (isCaptain) {\r... */\n      iszero\n      tag_405\n      jumpi\n        /* \"contracts/Buidl11.sol\":7174:7175  3 */\n      0x03\n        /* \"contracts/Buidl11.sol\":7165:7175  score *= 3 */\n      dup2\n      tag_406\n      swap2\n      swap1\n      tag_384\n      jump\t// in\n    tag_406:\n      swap1\n      pop\n        /* \"contracts/Buidl11.sol\":7135:7249  if (isCaptain) {\r... */\n      jump(tag_407)\n    tag_405:\n        /* \"contracts/Buidl11.sol\":7197:7210  isViceCaptain */\n      dup3\n        /* \"contracts/Buidl11.sol\":7193:7249  if (isViceCaptain) {\r... */\n      iszero\n      tag_408\n      jumpi\n        /* \"contracts/Buidl11.sol\":7236:7237  2 */\n      0x02\n        /* \"contracts/Buidl11.sol\":7227:7237  score *= 2 */\n      dup2\n      tag_409\n      swap2\n      swap1\n      tag_384\n      jump\t// in\n    tag_409:\n      swap1\n      pop\n        /* \"contracts/Buidl11.sol\":7193:7249  if (isViceCaptain) {\r... */\n    tag_408:\n        /* \"contracts/Buidl11.sol\":7135:7249  if (isCaptain) {\r... */\n    tag_407:\n        /* \"contracts/Buidl11.sol\":7266:7271  score */\n      dup1\n        /* \"contracts/Buidl11.sol\":7259:7271  return score */\n      swap2\n      pop\n      pop\n        /* \"contracts/Buidl11.sol\":6671:7281  function calculatePlayerScore(\r... */\n      swap4\n      swap3\n      pop\n      pop\n      pop\n      jump\t// out\n        /* \"contracts/Buidl11.sol\":7293:8195  function distributeRewards() private isOwner{\r... */\n    tag_307:\n        /* \"contracts/Buidl11.sol\":225:230  owner */\n      0x00\n      dup1\n      sload\n      swap1\n      0x0100\n      exp\n      swap1\n      div\n      0xffffffffffffffffffffffffffffffffffffffff\n      and\n        /* \"contracts/Buidl11.sol\":213:230  msg.sender==owner */\n      0xffffffffffffffffffffffffffffffffffffffff\n      and\n        /* \"contracts/Buidl11.sol\":213:223  msg.sender */\n      caller\n        /* \"contracts/Buidl11.sol\":213:230  msg.sender==owner */\n      0xffffffffffffffffffffffffffffffffffffffff\n      and\n      eq\n        /* \"contracts/Buidl11.sol\":205:268  require(msg.sender==owner,\"Must be admin to use this funciton\") */\n      tag_411\n      jumpi\n      mload(0x40)\n      0x08c379a000000000000000000000000000000000000000000000000000000000\n      dup2\n      mstore\n      0x04\n      add\n      tag_412\n      swap1\n      tag_140\n      jump\t// in\n    tag_412:\n      mload(0x40)\n      dup1\n      swap2\n      sub\n      swap1\n      revert\n    tag_411:\n        /* \"contracts/Buidl11.sol\":7348:7359  uint256 sum */\n      0x00\n        /* \"contracts/Buidl11.sol\":7374:7390  uint256 totalBid */\n      dup1\n        /* \"contracts/Buidl11.sol\":7410:7419  uint256 i */\n      0x00\n        /* \"contracts/Buidl11.sol\":7405:7592  for (uint256 i = 0; i < fantasyTeams.length; i++) {\r... */\n    tag_414:\n        /* \"contracts/Buidl11.sol\":7429:7441  fantasyTeams */\n      0x02\n        /* \"contracts/Buidl11.sol\":7429:7448  fantasyTeams.length */\n      dup1\n      sload\n      swap1\n      pop\n        /* \"contracts/Buidl11.sol\":7425:7426  i */\n      dup2\n        /* \"contracts/Buidl11.sol\":7425:7448  i < fantasyTeams.length */\n      lt\n        /* \"contracts/Buidl11.sol\":7405:7592  for (uint256 i = 0; i < fantasyTeams.length; i++) {\r... */\n      iszero\n      tag_415\n      jumpi\n        /* \"contracts/Buidl11.sol\":7499:7511  fantasyTeams */\n      0x02\n        /* \"contracts/Buidl11.sol\":7512:7513  i */\n      dup2\n        /* \"contracts/Buidl11.sol\":7499:7514  fantasyTeams[i] */\n      dup2\n      sload\n      dup2\n      lt\n      tag_417\n      jumpi\n      tag_418\n      tag_101\n      jump\t// in\n    tag_418:\n    tag_417:\n      swap1\n      0x00\n      mstore\n      keccak256(0x00, 0x20)\n      swap1\n      0x07\n      mul\n      add\n        /* \"contracts/Buidl11.sol\":7499:7520  fantasyTeams[i].score */\n      0x06\n      add\n      sload\n        /* \"contracts/Buidl11.sol\":7477:7489  fantasyTeams */\n      0x02\n        /* \"contracts/Buidl11.sol\":7490:7491  i */\n      dup3\n        /* \"contracts/Buidl11.sol\":7477:7492  fantasyTeams[i] */\n      dup2\n      sload\n      dup2\n      lt\n      tag_420\n      jumpi\n      tag_421\n      tag_101\n      jump\t// in\n    tag_421:\n    tag_420:\n      swap1\n      0x00\n      mstore\n      keccak256(0x00, 0x20)\n      swap1\n      0x07\n      mul\n      add\n        /* \"contracts/Buidl11.sol\":7477:7496  fantasyTeams[i].bid */\n      0x05\n      add\n      sload\n        /* \"contracts/Buidl11.sol\":7477:7520  fantasyTeams[i].bid * fantasyTeams[i].score */\n      tag_423\n      swap2\n      swap1\n      tag_384\n      jump\t// in\n    tag_423:\n        /* \"contracts/Buidl11.sol\":7470:7520  sum += fantasyTeams[i].bid * fantasyTeams[i].score */\n      dup4\n      tag_424\n      swap2\n      swap1\n      tag_303\n      jump\t// in\n    tag_424:\n      swap3\n      pop\n        /* \"contracts/Buidl11.sol\":7547:7559  fantasyTeams */\n      0x02\n        /* \"contracts/Buidl11.sol\":7560:7561  i */\n      dup2\n        /* \"contracts/Buidl11.sol\":7547:7562  fantasyTeams[i] */\n      dup2\n      sload\n      dup2\n      lt\n      tag_425\n      jumpi\n      tag_426\n      tag_101\n      jump\t// in\n    tag_426:\n    tag_425:\n      swap1\n      0x00\n      mstore\n      keccak256(0x00, 0x20)\n      swap1\n      0x07\n      mul\n      add\n        /* \"contracts/Buidl11.sol\":7547:7566  fantasyTeams[i].bid */\n      0x05\n      add\n      sload\n        /* \"contracts/Buidl11.sol\":7535:7566  totalBid += fantasyTeams[i].bid */\n      dup3\n      tag_428\n      swap2\n      swap1\n      tag_303\n      jump\t// in\n    tag_428:\n      swap2\n      pop\n        /* \"contracts/Buidl11.sol\":7450:7453  i++ */\n      dup1\n      dup1\n      tag_429\n      swap1\n      tag_219\n      jump\t// in\n    tag_429:\n      swap2\n      pop\n      pop\n        /* \"contracts/Buidl11.sol\":7405:7592  for (uint256 i = 0; i < fantasyTeams.length; i++) {\r... */\n      jump(tag_414)\n    tag_415:\n      pop\n        /* \"contracts/Buidl11.sol\":7602:7614  uint percent */\n      0x00\n        /* \"contracts/Buidl11.sol\":7631:7634  100 */\n      0x64\n        /* \"contracts/Buidl11.sol\":7621:7629  totalBid */\n      dup3\n        /* \"contracts/Buidl11.sol\":7618:7620  10 */\n      0x0a\n        /* \"contracts/Buidl11.sol\":7618:7629  10*totalBid */\n      tag_430\n      swap2\n      swap1\n      tag_384\n      jump\t// in\n    tag_430:\n        /* \"contracts/Buidl11.sol\":7617:7634  (10*totalBid)/100 */\n      tag_431\n      swap2\n      swap1\n      tag_373\n      jump\t// in\n    tag_431:\n        /* \"contracts/Buidl11.sol\":7602:7634  uint percent = (10*totalBid)/100 */\n      swap1\n      pop\n        /* \"contracts/Buidl11.sol\":7663:7670  percent */\n      dup1\n        /* \"contracts/Buidl11.sol\":7654:7662  totalBid */\n      dup3\n        /* \"contracts/Buidl11.sol\":7654:7670  totalBid-percent */\n      tag_432\n      swap2\n      swap1\n      tag_381\n      jump\t// in\n    tag_432:\n        /* \"contracts/Buidl11.sol\":7645:7670  totalBid=totalBid-percent */\n      swap2\n      pop\n        /* \"contracts/Buidl11.sol\":7689:7694  owner */\n      0x00\n      dup1\n      sload\n      swap1\n      0x0100\n      exp\n      swap1\n      div\n      0xffffffffffffffffffffffffffffffffffffffff\n      and\n        /* \"contracts/Buidl11.sol\":7681:7704  payable(owner).transfer */\n      0xffffffffffffffffffffffffffffffffffffffff\n      and\n        /* \"contracts/Buidl11.sol\":7681:7713  payable(owner).transfer(percent) */\n      0x08fc\n        /* \"contracts/Buidl11.sol\":7705:7712  percent */\n      dup3\n        /* \"contracts/Buidl11.sol\":7681:7713  payable(owner).transfer(percent) */\n      swap1\n      dup2\n      iszero\n      mul\n      swap1\n      mload(0x40)\n      0x00\n      mload(0x40)\n      dup1\n      dup4\n      sub\n      dup2\n      dup6\n      dup9\n      dup9\n      call\n      swap4\n      pop\n      pop\n      pop\n      pop\n      iszero\n      dup1\n      iszero\n      tag_434\n      jumpi\n      returndatasize\n      0x00\n      dup1\n      returndatacopy\n      revert(0x00, returndatasize)\n    tag_434:\n      pop\n        /* \"contracts/Buidl11.sol\":7739:7748  uint256 i */\n      0x00\n        /* \"contracts/Buidl11.sol\":7734:8188  for (uint256 i = 0; i < fantasyTeams.length; i++) {\r... */\n    tag_435:\n        /* \"contracts/Buidl11.sol\":7758:7770  fantasyTeams */\n      0x02\n        /* \"contracts/Buidl11.sol\":7758:7777  fantasyTeams.length */\n      dup1\n      sload\n      swap1\n      pop\n        /* \"contracts/Buidl11.sol\":7754:7755  i */\n      dup2\n        /* \"contracts/Buidl11.sol\":7754:7777  i < fantasyTeams.length */\n      lt\n        /* \"contracts/Buidl11.sol\":7734:8188  for (uint256 i = 0; i < fantasyTeams.length; i++) {\r... */\n      iszero\n      tag_436\n      jumpi\n        /* \"contracts/Buidl11.sol\":7813:7827  uint256 reward */\n      0x00\n        /* \"contracts/Buidl11.sol\":7851:7852  0 */\n      dup1\n        /* \"contracts/Buidl11.sol\":7846:7849  sum */\n      dup6\n        /* \"contracts/Buidl11.sol\":7846:7852  sum==0 */\n      eq\n        /* \"contracts/Buidl11.sol\":7843:8113  if(sum==0)\r... */\n      iszero\n      tag_438\n      jumpi\n        /* \"contracts/Buidl11.sol\":7895:7907  fantasyTeams */\n      0x02\n        /* \"contracts/Buidl11.sol\":7908:7909  i */\n      dup3\n        /* \"contracts/Buidl11.sol\":7895:7910  fantasyTeams[i] */\n      dup2\n      sload\n      dup2\n      lt\n      tag_439\n      jumpi\n      tag_440\n      tag_101\n      jump\t// in\n    tag_440:\n    tag_439:\n      swap1\n      0x00\n      mstore\n      keccak256(0x00, 0x20)\n      swap1\n      0x07\n      mul\n      add\n        /* \"contracts/Buidl11.sol\":7895:7914  fantasyTeams[i].bid */\n      0x05\n      add\n      sload\n        /* \"contracts/Buidl11.sol\":7886:7914  reward = fantasyTeams[i].bid */\n      swap1\n      pop\n        /* \"contracts/Buidl11.sol\":7843:8113  if(sum==0)\r... */\n      jump(tag_442)\n    tag_438:\n        /* \"contracts/Buidl11.sol\":8092:8095  sum */\n      dup5\n        /* \"contracts/Buidl11.sol\":8080:8088  totalBid */\n      dup5\n        /* \"contracts/Buidl11.sol\":8035:8047  fantasyTeams */\n      0x02\n        /* \"contracts/Buidl11.sol\":8048:8049  i */\n      dup5\n        /* \"contracts/Buidl11.sol\":8035:8050  fantasyTeams[i] */\n      dup2\n      sload\n      dup2\n      lt\n      tag_443\n      jumpi\n      tag_444\n      tag_101\n      jump\t// in\n    tag_444:\n    tag_443:\n      swap1\n      0x00\n      mstore\n      keccak256(0x00, 0x20)\n      swap1\n      0x07\n      mul\n      add\n        /* \"contracts/Buidl11.sol\":8035:8056  fantasyTeams[i].score */\n      0x06\n      add\n      sload\n        /* \"contracts/Buidl11.sol\":7992:8004  fantasyTeams */\n      0x02\n        /* \"contracts/Buidl11.sol\":8005:8006  i */\n      dup6\n        /* \"contracts/Buidl11.sol\":7992:8007  fantasyTeams[i] */\n      dup2\n      sload\n      dup2\n      lt\n      tag_446\n      jumpi\n      tag_447\n      tag_101\n      jump\t// in\n    tag_447:\n    tag_446:\n      swap1\n      0x00\n      mstore\n      keccak256(0x00, 0x20)\n      swap1\n      0x07\n      mul\n      add\n        /* \"contracts/Buidl11.sol\":7992:8011  fantasyTeams[i].bid */\n      0x05\n      add\n      sload\n        /* \"contracts/Buidl11.sol\":7992:8056  fantasyTeams[i].bid *\r... */\n      tag_449\n      swap2\n      swap1\n      tag_384\n      jump\t// in\n    tag_449:\n        /* \"contracts/Buidl11.sol\":7992:8088  fantasyTeams[i].bid *\r... */\n      tag_450\n      swap2\n      swap1\n      tag_384\n      jump\t// in\n    tag_450:\n        /* \"contracts/Buidl11.sol\":7991:8095  (fantasyTeams[i].bid *\r... */\n      tag_451\n      swap2\n      swap1\n      tag_373\n      jump\t// in\n    tag_451:\n        /* \"contracts/Buidl11.sol\":7982:8095  reward = (fantasyTeams[i].bid *\r... */\n      swap1\n      pop\n        /* \"contracts/Buidl11.sol\":7843:8113  if(sum==0)\r... */\n    tag_442:\n        /* \"contracts/Buidl11.sol\":8135:8147  fantasyTeams */\n      0x02\n        /* \"contracts/Buidl11.sol\":8148:8149  i */\n      dup3\n        /* \"contracts/Buidl11.sol\":8135:8150  fantasyTeams[i] */\n      dup2\n      sload\n      dup2\n      lt\n      tag_452\n      jumpi\n      tag_453\n      tag_101\n      jump\t// in\n    tag_453:\n    tag_452:\n      swap1\n      0x00\n      mstore\n      keccak256(0x00, 0x20)\n      swap1\n      0x07\n      mul\n      add\n        /* \"contracts/Buidl11.sol\":8135:8158  fantasyTeams[i].ownerId */\n      0x00\n      add\n      0x00\n      swap1\n      sload\n      swap1\n      0x0100\n      exp\n      swap1\n      div\n      0xffffffffffffffffffffffffffffffffffffffff\n      and\n        /* \"contracts/Buidl11.sol\":8127:8168  payable(fantasyTeams[i].ownerId).transfer */\n      0xffffffffffffffffffffffffffffffffffffffff\n      and\n        /* \"contracts/Buidl11.sol\":8127:8176  payable(fantasyTeams[i].ownerId).transfer(reward) */\n      0x08fc\n        /* \"contracts/Buidl11.sol\":8169:8175  reward */\n      dup3\n        /* \"contracts/Buidl11.sol\":8127:8176  payable(fantasyTeams[i].ownerId).transfer(reward) */\n      swap1\n      dup2\n      iszero\n      mul\n      swap1\n      mload(0x40)\n      0x00\n      mload(0x40)\n      dup1\n      dup4\n      sub\n      dup2\n      dup6\n      dup9\n      dup9\n      call\n      swap4\n      pop\n      pop\n      pop\n      pop\n      iszero\n      dup1\n      iszero\n      tag_456\n      jumpi\n      returndatasize\n      0x00\n      dup1\n      returndatacopy\n      revert(0x00, returndatasize)\n    tag_456:\n      pop\n        /* \"contracts/Buidl11.sol\":7784:8188  {\r... */\n      pop\n        /* \"contracts/Buidl11.sol\":7779:7782  i++ */\n      dup1\n      dup1\n      tag_457\n      swap1\n      tag_219\n      jump\t// in\n    tag_457:\n      swap2\n      pop\n      pop\n        /* \"contracts/Buidl11.sol\":7734:8188  for (uint256 i = 0; i < fantasyTeams.length; i++) {\r... */\n      jump(tag_435)\n    tag_436:\n      pop\n        /* \"contracts/Buidl11.sol\":7337:8195  {\r... */\n      pop\n      pop\n      pop\n        /* \"contracts/Buidl11.sol\":7293:8195  function distributeRewards() private isOwner{\r... */\n      jump\t// out\n    tag_163:\n      pop\n      dup1\n      sload\n      0x00\n      dup3\n      sstore\n      0x04\n      mul\n      swap1\n      0x00\n      mstore\n      keccak256(0x00, 0x20)\n      swap1\n      dup2\n      add\n      swap1\n      tag_459\n      swap2\n      swap1\n      tag_460\n      jump\t// in\n    tag_459:\n      pop\n      jump\t// out\n    tag_165:\n      pop\n      dup1\n      sload\n      0x00\n      dup3\n      sstore\n      0x07\n      mul\n      swap1\n      0x00\n      mstore\n      keccak256(0x00, 0x20)\n      swap1\n      dup2\n      add\n      swap1\n      tag_462\n      swap2\n      swap1\n      tag_463\n      jump\t// in\n    tag_462:\n      pop\n      jump\t// out\n    tag_229:\n      mload(0x40)\n      dup1\n      0x60\n      add\n      0x40\n      mstore\n      dup1\n      0x00\n      dup2\n      mstore\n      0x20\n      add\n      0x60\n      dup2\n      mstore\n      0x20\n      add\n      tag_464\n      tag_465\n      jump\t// in\n    tag_464:\n      dup2\n      mstore\n      pop\n      swap1\n      jump\t// out\n    tag_232:\n      dup3\n      dup1\n      sload\n      tag_466\n      swap1\n      tag_121\n      jump\t// in\n    tag_466:\n      swap1\n      0x00\n      mstore\n      keccak256(0x00, 0x20)\n      swap1\n      0x1f\n      add\n      0x20\n      swap1\n      div\n      dup2\n      add\n      swap3\n      dup3\n      tag_468\n      jumpi\n      0x00\n      dup6\n      sstore\n      jump(tag_467)\n    tag_468:\n      dup3\n      0x1f\n      lt\n      tag_469\n      jumpi\n      dup1\n      mload\n      not(0xff)\n      and\n      dup4\n      dup1\n      add\n      or\n      dup6\n      sstore\n      jump(tag_467)\n    tag_469:\n      dup3\n      dup1\n      add\n      0x01\n      add\n      dup6\n      sstore\n      dup3\n      iszero\n      tag_467\n      jumpi\n      swap2\n      dup3\n      add\n    tag_470:\n      dup3\n      dup2\n      gt\n      iszero\n      tag_471\n      jumpi\n      dup3\n      mload\n      dup3\n      sstore\n      swap2\n      0x20\n      add\n      swap2\n      swap1\n      0x01\n      add\n      swap1\n      jump(tag_470)\n    tag_471:\n    tag_467:\n      pop\n      swap1\n      pop\n      tag_472\n      swap2\n      swap1\n      tag_473\n      jump\t// in\n    tag_472:\n      pop\n      swap1\n      jump\t// out\n    tag_323:\n      mload(0x40)\n      dup1\n      0xe0\n      add\n      0x40\n      mstore\n      dup1\n      and(0xffffffffffffffffffffffffffffffffffffffff, 0x00)\n      dup2\n      mstore\n      0x20\n      add\n      0x60\n      dup2\n      mstore\n      0x20\n      add\n      0x60\n      dup2\n      mstore\n      0x20\n      add\n      0x00\n      dup2\n      mstore\n      0x20\n      add\n      0x00\n      dup2\n      mstore\n      0x20\n      add\n      0x00\n      dup2\n      mstore\n      0x20\n      add\n      0x00\n      dup2\n      mstore\n      pop\n      swap1\n      jump\t// out\n    tag_327:\n      dup3\n      dup1\n      sload\n      dup3\n      dup3\n      sstore\n      swap1\n      0x00\n      mstore\n      keccak256(0x00, 0x20)\n      swap1\n      dup2\n      add\n      swap3\n      dup3\n      iszero\n      tag_474\n      jumpi\n      swap2\n      0x20\n      mul\n      dup3\n      add\n    tag_475:\n      dup3\n      dup2\n      gt\n      iszero\n      tag_476\n      jumpi\n      dup3\n      mload\n      dup3\n      sstore\n      swap2\n      0x20\n      add\n      swap2\n      swap1\n      0x01\n      add\n      swap1\n      jump(tag_475)\n    tag_476:\n    tag_474:\n      pop\n      swap1\n      pop\n      tag_477\n      swap2\n      swap1\n      tag_473\n      jump\t// in\n    tag_477:\n      pop\n      swap1\n      jump\t// out\n    tag_460:\n    tag_478:\n      dup1\n      dup3\n      gt\n      iszero\n      tag_479\n      jumpi\n      0x00\n      dup1\n      dup3\n      add\n      0x00\n      swap1\n      sstore\n      0x01\n      dup3\n      add\n      0x00\n      tag_480\n      swap2\n      swap1\n      tag_481\n      jump\t// in\n    tag_480:\n      0x02\n      dup3\n      add\n      0x00\n      dup1\n      dup3\n      add\n      0x00\n      swap1\n      sstore\n      0x01\n      dup3\n      add\n      0x00\n      swap1\n      sstore\n      pop\n      pop\n      pop\n      0x04\n      add\n      jump(tag_478)\n    tag_479:\n      pop\n      swap1\n      jump\t// out\n    tag_463:\n    tag_482:\n      dup1\n      dup3\n      gt\n      iszero\n      tag_483\n      jumpi\n      0x00\n      dup1\n      dup3\n      add\n      exp(0x0100, 0x00)\n      dup2\n      sload\n      swap1\n      0xffffffffffffffffffffffffffffffffffffffff\n      mul\n      not\n      and\n      swap1\n      sstore\n      0x01\n      dup3\n      add\n      0x00\n      tag_484\n      swap2\n      swap1\n      tag_481\n      jump\t// in\n    tag_484:\n      0x02\n      dup3\n      add\n      0x00\n      tag_485\n      swap2\n      swap1\n      tag_486\n      jump\t// in\n    tag_485:\n      0x03\n      dup3\n      add\n      0x00\n      swap1\n      sstore\n      0x04\n      dup3\n      add\n      0x00\n      swap1\n      sstore\n      0x05\n      dup3\n      add\n      0x00\n      swap1\n      sstore\n      0x06\n      dup3\n      add\n      0x00\n      swap1\n      sstore\n      pop\n      0x07\n      add\n      jump(tag_482)\n    tag_483:\n      pop\n      swap1\n      jump\t// out\n    tag_465:\n      mload(0x40)\n      dup1\n      0x40\n      add\n      0x40\n      mstore\n      dup1\n      0x00\n      dup2\n      mstore\n      0x20\n      add\n      0x00\n      dup2\n      mstore\n      pop\n      swap1\n      jump\t// out\n    tag_473:\n    tag_487:\n      dup1\n      dup3\n      gt\n      iszero\n      tag_488\n      jumpi\n      0x00\n      dup2\n      0x00\n      swap1\n      sstore\n      pop\n      0x01\n      add\n      jump(tag_487)\n    tag_488:\n      pop\n      swap1\n      jump\t// out\n    tag_481:\n      pop\n      dup1\n      sload\n      tag_489\n      swap1\n      tag_121\n      jump\t// in\n    tag_489:\n      0x00\n      dup3\n      sstore\n      dup1\n      0x1f\n      lt\n      tag_491\n      jumpi\n      pop\n      jump(tag_490)\n    tag_491:\n      0x1f\n      add\n      0x20\n      swap1\n      div\n      swap1\n      0x00\n      mstore\n      keccak256(0x00, 0x20)\n      swap1\n      dup2\n      add\n      swap1\n      tag_492\n      swap2\n      swap1\n      tag_473\n      jump\t// in\n    tag_492:\n    tag_490:\n      pop\n      jump\t// out\n    tag_486:\n      pop\n      dup1\n      sload\n      0x00\n      dup3\n      sstore\n      swap1\n      0x00\n      mstore\n      keccak256(0x00, 0x20)\n      swap1\n      dup2\n      add\n      swap1\n      tag_494\n      swap2\n      swap1\n      tag_473\n      jump\t// in\n    tag_494:\n      pop\n      jump\t// out\n        /* \"#utility.yul\":24:746   */\n    tag_496:\n        /* \"#utility.yul\":120:125   */\n      0x00\n        /* \"#utility.yul\":145:226   */\n      tag_498\n        /* \"#utility.yul\":161:225   */\n      tag_499\n        /* \"#utility.yul\":218:224   */\n      dup5\n        /* \"#utility.yul\":161:225   */\n      tag_500\n      jump\t// in\n    tag_499:\n        /* \"#utility.yul\":145:226   */\n      tag_501\n      jump\t// in\n    tag_498:\n        /* \"#utility.yul\":136:226   */\n      swap1\n      pop\n        /* \"#utility.yul\":246:251   */\n      dup1\n        /* \"#utility.yul\":275:281   */\n      dup4\n        /* \"#utility.yul\":268:273   */\n      dup3\n        /* \"#utility.yul\":261:282   */\n      mstore\n        /* \"#utility.yul\":309:313   */\n      0x20\n        /* \"#utility.yul\":302:307   */\n      dup3\n        /* \"#utility.yul\":298:314   */\n      add\n        /* \"#utility.yul\":291:314   */\n      swap1\n      pop\n        /* \"#utility.yul\":335:341   */\n      dup3\n        /* \"#utility.yul\":385:388   */\n      dup6\n        /* \"#utility.yul\":377:381   */\n      0x20\n        /* \"#utility.yul\":369:375   */\n      dup7\n        /* \"#utility.yul\":365:382   */\n      mul\n        /* \"#utility.yul\":360:363   */\n      dup3\n        /* \"#utility.yul\":356:383   */\n      add\n        /* \"#utility.yul\":353:389   */\n      gt\n        /* \"#utility.yul\":350:493   */\n      iszero\n      tag_502\n      jumpi\n        /* \"#utility.yul\":404:483   */\n      tag_503\n      tag_504\n      jump\t// in\n    tag_503:\n        /* \"#utility.yul\":350:493   */\n    tag_502:\n        /* \"#utility.yul\":517:518   */\n      0x00\n        /* \"#utility.yul\":502:740   */\n    tag_505:\n        /* \"#utility.yul\":527:533   */\n      dup6\n        /* \"#utility.yul\":524:525   */\n      dup2\n        /* \"#utility.yul\":521:534   */\n      lt\n        /* \"#utility.yul\":502:740   */\n      iszero\n      tag_507\n      jumpi\n        /* \"#utility.yul\":595:598   */\n      dup2\n        /* \"#utility.yul\":624:661   */\n      tag_508\n        /* \"#utility.yul\":657:660   */\n      dup9\n        /* \"#utility.yul\":645:655   */\n      dup3\n        /* \"#utility.yul\":624:661   */\n      tag_509\n      jump\t// in\n    tag_508:\n        /* \"#utility.yul\":619:622   */\n      dup5\n        /* \"#utility.yul\":612:662   */\n      mstore\n        /* \"#utility.yul\":691:695   */\n      0x20\n        /* \"#utility.yul\":686:689   */\n      dup5\n        /* \"#utility.yul\":682:696   */\n      add\n        /* \"#utility.yul\":675:696   */\n      swap4\n      pop\n        /* \"#utility.yul\":725:729   */\n      0x20\n        /* \"#utility.yul\":720:723   */\n      dup4\n        /* \"#utility.yul\":716:730   */\n      add\n        /* \"#utility.yul\":709:730   */\n      swap3\n      pop\n        /* \"#utility.yul\":562:740   */\n      pop\n        /* \"#utility.yul\":549:550   */\n      0x01\n        /* \"#utility.yul\":546:547   */\n      dup2\n        /* \"#utility.yul\":542:551   */\n      add\n        /* \"#utility.yul\":537:551   */\n      swap1\n      pop\n        /* \"#utility.yul\":502:740   */\n      jump(tag_505)\n    tag_507:\n        /* \"#utility.yul\":506:520   */\n      pop\n        /* \"#utility.yul\":126:746   */\n      pop\n      pop\n        /* \"#utility.yul\":24:746   */\n      swap4\n      swap3\n      pop\n      pop\n      pop\n      jump\t// out\n        /* \"#utility.yul\":752:1164   */\n    tag_510:\n        /* \"#utility.yul\":830:835   */\n      0x00\n        /* \"#utility.yul\":855:921   */\n      tag_512\n        /* \"#utility.yul\":871:920   */\n      tag_513\n        /* \"#utility.yul\":913:919   */\n      dup5\n        /* \"#utility.yul\":871:920   */\n      tag_514\n      jump\t// in\n    tag_513:\n        /* \"#utility.yul\":855:921   */\n      tag_501\n      jump\t// in\n    tag_512:\n        /* \"#utility.yul\":846:921   */\n      swap1\n      pop\n        /* \"#utility.yul\":944:950   */\n      dup3\n        /* \"#utility.yul\":937:942   */\n      dup2\n        /* \"#utility.yul\":930:951   */\n      mstore\n        /* \"#utility.yul\":982:986   */\n      0x20\n        /* \"#utility.yul\":975:980   */\n      dup2\n        /* \"#utility.yul\":971:987   */\n      add\n        /* \"#utility.yul\":1020:1023   */\n      dup5\n        /* \"#utility.yul\":1011:1017   */\n      dup5\n        /* \"#utility.yul\":1006:1009   */\n      dup5\n        /* \"#utility.yul\":1002:1018   */\n      add\n        /* \"#utility.yul\":999:1024   */\n      gt\n        /* \"#utility.yul\":996:1108   */\n      iszero\n      tag_515\n      jumpi\n        /* \"#utility.yul\":1027:1106   */\n      tag_516\n      tag_517\n      jump\t// in\n    tag_516:\n        /* \"#utility.yul\":996:1108   */\n    tag_515:\n        /* \"#utility.yul\":1117:1158   */\n      tag_518\n        /* \"#utility.yul\":1151:1157   */\n      dup5\n        /* \"#utility.yul\":1146:1149   */\n      dup3\n        /* \"#utility.yul\":1141:1144   */\n      dup6\n        /* \"#utility.yul\":1117:1158   */\n      tag_519\n      jump\t// in\n    tag_518:\n        /* \"#utility.yul\":836:1164   */\n      pop\n        /* \"#utility.yul\":752:1164   */\n      swap4\n      swap3\n      pop\n      pop\n      pop\n      jump\t// out\n        /* \"#utility.yul\":1187:1557   */\n    tag_520:\n        /* \"#utility.yul\":1258:1263   */\n      0x00\n        /* \"#utility.yul\":1307:1310   */\n      dup3\n        /* \"#utility.yul\":1300:1304   */\n      0x1f\n        /* \"#utility.yul\":1292:1298   */\n      dup4\n        /* \"#utility.yul\":1288:1305   */\n      add\n        /* \"#utility.yul\":1284:1311   */\n      slt\n        /* \"#utility.yul\":1274:1396   */\n      tag_522\n      jumpi\n        /* \"#utility.yul\":1315:1394   */\n      tag_523\n      tag_524\n      jump\t// in\n    tag_523:\n        /* \"#utility.yul\":1274:1396   */\n    tag_522:\n        /* \"#utility.yul\":1432:1438   */\n      dup2\n        /* \"#utility.yul\":1419:1439   */\n      calldataload\n        /* \"#utility.yul\":1457:1551   */\n      tag_525\n        /* \"#utility.yul\":1547:1550   */\n      dup5\n        /* \"#utility.yul\":1539:1545   */\n      dup3\n        /* \"#utility.yul\":1532:1536   */\n      0x20\n        /* \"#utility.yul\":1524:1530   */\n      dup7\n        /* \"#utility.yul\":1520:1537   */\n      add\n        /* \"#utility.yul\":1457:1551   */\n      tag_496\n      jump\t// in\n    tag_525:\n        /* \"#utility.yul\":1448:1551   */\n      swap2\n      pop\n        /* \"#utility.yul\":1264:1557   */\n      pop\n        /* \"#utility.yul\":1187:1557   */\n      swap3\n      swap2\n      pop\n      pop\n      jump\t// out\n        /* \"#utility.yul\":1577:1917   */\n    tag_526:\n        /* \"#utility.yul\":1633:1638   */\n      0x00\n        /* \"#utility.yul\":1682:1685   */\n      dup3\n        /* \"#utility.yul\":1675:1679   */\n      0x1f\n        /* \"#utility.yul\":1667:1673   */\n      dup4\n        /* \"#utility.yul\":1663:1680   */\n      add\n        /* \"#utility.yul\":1659:1686   */\n      slt\n        /* \"#utility.yul\":1649:1771   */\n      tag_528\n      jumpi\n        /* \"#utility.yul\":1690:1769   */\n      tag_529\n      tag_524\n      jump\t// in\n    tag_529:\n        /* \"#utility.yul\":1649:1771   */\n    tag_528:\n        /* \"#utility.yul\":1807:1813   */\n      dup2\n        /* \"#utility.yul\":1794:1814   */\n      calldataload\n        /* \"#utility.yul\":1832:1911   */\n      tag_530\n        /* \"#utility.yul\":1907:1910   */\n      dup5\n        /* \"#utility.yul\":1899:1905   */\n      dup3\n        /* \"#utility.yul\":1892:1896   */\n      0x20\n        /* \"#utility.yul\":1884:1890   */\n      dup7\n        /* \"#utility.yul\":1880:1897   */\n      add\n        /* \"#utility.yul\":1832:1911   */\n      tag_510\n      jump\t// in\n    tag_530:\n        /* \"#utility.yul\":1823:1911   */\n      swap2\n      pop\n        /* \"#utility.yul\":1639:1917   */\n      pop\n        /* \"#utility.yul\":1577:1917   */\n      swap3\n      swap2\n      pop\n      pop\n      jump\t// out\n        /* \"#utility.yul\":1923:2062   */\n    tag_509:\n        /* \"#utility.yul\":1969:1974   */\n      0x00\n        /* \"#utility.yul\":2007:2013   */\n      dup2\n        /* \"#utility.yul\":1994:2014   */\n      calldataload\n        /* \"#utility.yul\":1985:2014   */\n      swap1\n      pop\n        /* \"#utility.yul\":2023:2056   */\n      tag_532\n        /* \"#utility.yul\":2050:2055   */\n      dup2\n        /* \"#utility.yul\":2023:2056   */\n      tag_533\n      jump\t// in\n    tag_532:\n        /* \"#utility.yul\":1923:2062   */\n      swap3\n      swap2\n      pop\n      pop\n      jump\t// out\n        /* \"#utility.yul\":2068:2607   */\n    tag_56:\n        /* \"#utility.yul\":2152:2158   */\n      0x00\n        /* \"#utility.yul\":2201:2203   */\n      0x20\n        /* \"#utility.yul\":2189:2198   */\n      dup3\n        /* \"#utility.yul\":2180:2187   */\n      dup5\n        /* \"#utility.yul\":2176:2199   */\n      sub\n        /* \"#utility.yul\":2172:2204   */\n      slt\n        /* \"#utility.yul\":2169:2288   */\n      iszero\n      tag_535\n      jumpi\n        /* \"#utility.yul\":2207:2286   */\n      tag_536\n      tag_537\n      jump\t// in\n    tag_536:\n        /* \"#utility.yul\":2169:2288   */\n    tag_535:\n        /* \"#utility.yul\":2355:2356   */\n      0x00\n        /* \"#utility.yul\":2344:2353   */\n      dup3\n        /* \"#utility.yul\":2340:2357   */\n      add\n        /* \"#utility.yul\":2327:2358   */\n      calldataload\n        /* \"#utility.yul\":2385:2403   */\n      0xffffffffffffffff\n        /* \"#utility.yul\":2377:2383   */\n      dup2\n        /* \"#utility.yul\":2374:2404   */\n      gt\n        /* \"#utility.yul\":2371:2488   */\n      iszero\n      tag_538\n      jumpi\n        /* \"#utility.yul\":2407:2486   */\n      tag_539\n      tag_540\n      jump\t// in\n    tag_539:\n        /* \"#utility.yul\":2371:2488   */\n    tag_538:\n        /* \"#utility.yul\":2512:2590   */\n      tag_541\n        /* \"#utility.yul\":2582:2589   */\n      dup5\n        /* \"#utility.yul\":2573:2579   */\n      dup3\n        /* \"#utility.yul\":2562:2571   */\n      dup6\n        /* \"#utility.yul\":2558:2580   */\n      add\n        /* \"#utility.yul\":2512:2590   */\n      tag_520\n      jump\t// in\n    tag_541:\n        /* \"#utility.yul\":2502:2590   */\n      swap2\n      pop\n        /* \"#utility.yul\":2298:2600   */\n      pop\n        /* \"#utility.yul\":2068:2607   */\n      swap3\n      swap2\n      pop\n      pop\n      jump\t// out\n        /* \"#utility.yul\":2613:3122   */\n    tag_46:\n        /* \"#utility.yul\":2682:2688   */\n      0x00\n        /* \"#utility.yul\":2731:2733   */\n      0x20\n        /* \"#utility.yul\":2719:2728   */\n      dup3\n        /* \"#utility.yul\":2710:2717   */\n      dup5\n        /* \"#utility.yul\":2706:2729   */\n      sub\n        /* \"#utility.yul\":2702:2734   */\n      slt\n        /* \"#utility.yul\":2699:2818   */\n      iszero\n      tag_543\n      jumpi\n        /* \"#utility.yul\":2737:2816   */\n      tag_544\n      tag_537\n      jump\t// in\n    tag_544:\n        /* \"#utility.yul\":2699:2818   */\n    tag_543:\n        /* \"#utility.yul\":2885:2886   */\n      0x00\n        /* \"#utility.yul\":2874:2883   */\n      dup3\n        /* \"#utility.yul\":2870:2887   */\n      add\n        /* \"#utility.yul\":2857:2888   */\n      calldataload\n        /* \"#utility.yul\":2915:2933   */\n      0xffffffffffffffff\n        /* \"#utility.yul\":2907:2913   */\n      dup2\n        /* \"#utility.yul\":2904:2934   */\n      gt\n        /* \"#utility.yul\":2901:3018   */\n      iszero\n      tag_545\n      jumpi\n        /* \"#utility.yul\":2937:3016   */\n      tag_546\n      tag_540\n      jump\t// in\n    tag_546:\n        /* \"#utility.yul\":2901:3018   */\n    tag_545:\n        /* \"#utility.yul\":3042:3105   */\n      tag_547\n        /* \"#utility.yul\":3097:3104   */\n      dup5\n        /* \"#utility.yul\":3088:3094   */\n      dup3\n        /* \"#utility.yul\":3077:3086   */\n      dup6\n        /* \"#utility.yul\":3073:3095   */\n      add\n        /* \"#utility.yul\":3042:3105   */\n      tag_526\n      jump\t// in\n    tag_547:\n        /* \"#utility.yul\":3032:3105   */\n      swap2\n      pop\n        /* \"#utility.yul\":2828:3115   */\n      pop\n        /* \"#utility.yul\":2613:3122   */\n      swap3\n      swap2\n      pop\n      pop\n      jump\t// out\n        /* \"#utility.yul\":3128:3602   */\n    tag_20:\n        /* \"#utility.yul\":3196:3202   */\n      0x00\n        /* \"#utility.yul\":3204:3210   */\n      dup1\n        /* \"#utility.yul\":3253:3255   */\n      0x40\n        /* \"#utility.yul\":3241:3250   */\n      dup4\n        /* \"#utility.yul\":3232:3239   */\n      dup6\n        /* \"#utility.yul\":3228:3251   */\n      sub\n        /* \"#utility.yul\":3224:3256   */\n      slt\n        /* \"#utility.yul\":3221:3340   */\n      iszero\n      tag_549\n      jumpi\n        /* \"#utility.yul\":3259:3338   */\n      tag_550\n      tag_537\n      jump\t// in\n    tag_550:\n        /* \"#utility.yul\":3221:3340   */\n    tag_549:\n        /* \"#utility.yul\":3379:3380   */\n      0x00\n        /* \"#utility.yul\":3404:3457   */\n      tag_551\n        /* \"#utility.yul\":3449:3456   */\n      dup6\n        /* \"#utility.yul\":3440:3446   */\n      dup3\n        /* \"#utility.yul\":3429:3438   */\n      dup7\n        /* \"#utility.yul\":3425:3447   */\n      add\n        /* \"#utility.yul\":3404:3457   */\n      tag_509\n      jump\t// in\n    tag_551:\n        /* \"#utility.yul\":3394:3457   */\n      swap3\n      pop\n        /* \"#utility.yul\":3350:3467   */\n      pop\n        /* \"#utility.yul\":3506:3508   */\n      0x20\n        /* \"#utility.yul\":3532:3585   */\n      tag_552\n        /* \"#utility.yul\":3577:3584   */\n      dup6\n        /* \"#utility.yul\":3568:3574   */\n      dup3\n        /* \"#utility.yul\":3557:3566   */\n      dup7\n        /* \"#utility.yul\":3553:3575   */\n      add\n        /* \"#utility.yul\":3532:3585   */\n      tag_509\n      jump\t// in\n    tag_552:\n        /* \"#utility.yul\":3522:3585   */\n      swap2\n      pop\n        /* \"#utility.yul\":3477:3595   */\n      pop\n        /* \"#utility.yul\":3128:3602   */\n      swap3\n      pop\n      swap3\n      swap1\n      pop\n      jump\t// out\n        /* \"#utility.yul\":3608:4227   */\n    tag_30:\n        /* \"#utility.yul\":3685:3691   */\n      0x00\n        /* \"#utility.yul\":3693:3699   */\n      dup1\n        /* \"#utility.yul\":3701:3707   */\n      0x00\n        /* \"#utility.yul\":3750:3752   */\n      0x60\n        /* \"#utility.yul\":3738:3747   */\n      dup5\n        /* \"#utility.yul\":3729:3736   */\n      dup7\n        /* \"#utility.yul\":3725:3748   */\n      sub\n        /* \"#utility.yul\":3721:3753   */\n      slt\n        /* \"#utility.yul\":3718:3837   */\n      iszero\n      tag_554\n      jumpi\n        /* \"#utility.yul\":3756:3835   */\n      tag_555\n      tag_537\n      jump\t// in\n    tag_555:\n        /* \"#utility.yul\":3718:3837   */\n    tag_554:\n        /* \"#utility.yul\":3876:3877   */\n      0x00\n        /* \"#utility.yul\":3901:3954   */\n      tag_556\n        /* \"#utility.yul\":3946:3953   */\n      dup7\n        /* \"#utility.yul\":3937:3943   */\n      dup3\n        /* \"#utility.yul\":3926:3935   */\n      dup8\n        /* \"#utility.yul\":3922:3944   */\n      add\n        /* \"#utility.yul\":3901:3954   */\n      tag_509\n      jump\t// in\n    tag_556:\n        /* \"#utility.yul\":3891:3954   */\n      swap4\n      pop\n        /* \"#utility.yul\":3847:3964   */\n      pop\n        /* \"#utility.yul\":4003:4005   */\n      0x20\n        /* \"#utility.yul\":4029:4082   */\n      tag_557\n        /* \"#utility.yul\":4074:4081   */\n      dup7\n        /* \"#utility.yul\":4065:4071   */\n      dup3\n        /* \"#utility.yul\":4054:4063   */\n      dup8\n        /* \"#utility.yul\":4050:4072   */\n      add\n        /* \"#utility.yul\":4029:4082   */\n      tag_509\n      jump\t// in\n    tag_557:\n        /* \"#utility.yul\":4019:4082   */\n      swap3\n      pop\n        /* \"#utility.yul\":3974:4092   */\n      pop\n        /* \"#utility.yul\":4131:4133   */\n      0x40\n        /* \"#utility.yul\":4157:4210   */\n      tag_558\n        /* \"#utility.yul\":4202:4209   */\n      dup7\n        /* \"#utility.yul\":4193:4199   */\n      dup3\n        /* \"#utility.yul\":4182:4191   */\n      dup8\n        /* \"#utility.yul\":4178:4200   */\n      add\n        /* \"#utility.yul\":4157:4210   */\n      tag_509\n      jump\t// in\n    tag_558:\n        /* \"#utility.yul\":4147:4210   */\n      swap2\n      pop\n        /* \"#utility.yul\":4102:4220   */\n      pop\n        /* \"#utility.yul\":3608:4227   */\n      swap3\n      pop\n      swap3\n      pop\n      swap3\n      jump\t// out\n        /* \"#utility.yul\":4233:4351   */\n    tag_559:\n        /* \"#utility.yul\":4320:4344   */\n      tag_561\n        /* \"#utility.yul\":4338:4343   */\n      dup2\n        /* \"#utility.yul\":4320:4344   */\n      tag_562\n      jump\t// in\n    tag_561:\n        /* \"#utility.yul\":4315:4318   */\n      dup3\n        /* \"#utility.yul\":4308:4345   */\n      mstore\n        /* \"#utility.yul\":4233:4351   */\n      pop\n      pop\n      jump\t// out\n        /* \"#utility.yul\":4357:4721   */\n    tag_563:\n        /* \"#utility.yul\":4445:4448   */\n      0x00\n        /* \"#utility.yul\":4473:4512   */\n      tag_565\n        /* \"#utility.yul\":4506:4511   */\n      dup3\n        /* \"#utility.yul\":4473:4512   */\n      tag_566\n      jump\t// in\n    tag_565:\n        /* \"#utility.yul\":4528:4599   */\n      tag_567\n        /* \"#utility.yul\":4592:4598   */\n      dup2\n        /* \"#utility.yul\":4587:4590   */\n      dup6\n        /* \"#utility.yul\":4528:4599   */\n      tag_568\n      jump\t// in\n    tag_567:\n        /* \"#utility.yul\":4521:4599   */\n      swap4\n      pop\n        /* \"#utility.yul\":4608:4660   */\n      tag_569\n        /* \"#utility.yul\":4653:4659   */\n      dup2\n        /* \"#utility.yul\":4648:4651   */\n      dup6\n        /* \"#utility.yul\":4641:4645   */\n      0x20\n        /* \"#utility.yul\":4634:4639   */\n      dup7\n        /* \"#utility.yul\":4630:4646   */\n      add\n        /* \"#utility.yul\":4608:4660   */\n      tag_570\n      jump\t// in\n    tag_569:\n        /* \"#utility.yul\":4685:4714   */\n      tag_571\n        /* \"#utility.yul\":4707:4713   */\n      dup2\n        /* \"#utility.yul\":4685:4714   */\n      tag_572\n      jump\t// in\n    tag_571:\n        /* \"#utility.yul\":4680:4683   */\n      dup5\n        /* \"#utility.yul\":4676:4715   */\n      add\n        /* \"#utility.yul\":4669:4715   */\n      swap2\n      pop\n        /* \"#utility.yul\":4449:4721   */\n      pop\n        /* \"#utility.yul\":4357:4721   */\n      swap3\n      swap2\n      pop\n      pop\n      jump\t// out\n        /* \"#utility.yul\":4727:5104   */\n    tag_573:\n        /* \"#utility.yul\":4833:4836   */\n      0x00\n        /* \"#utility.yul\":4861:4900   */\n      tag_575\n        /* \"#utility.yul\":4894:4899   */\n      dup3\n        /* \"#utility.yul\":4861:4900   */\n      tag_566\n      jump\t// in\n    tag_575:\n        /* \"#utility.yul\":4916:5005   */\n      tag_576\n        /* \"#utility.yul\":4998:5004   */\n      dup2\n        /* \"#utility.yul\":4993:4996   */\n      dup6\n        /* \"#utility.yul\":4916:5005   */\n      tag_577\n      jump\t// in\n    tag_576:\n        /* \"#utility.yul\":4909:5005   */\n      swap4\n      pop\n        /* \"#utility.yul\":5014:5066   */\n      tag_578\n        /* \"#utility.yul\":5059:5065   */\n      dup2\n        /* \"#utility.yul\":5054:5057   */\n      dup6\n        /* \"#utility.yul\":5047:5051   */\n      0x20\n        /* \"#utility.yul\":5040:5045   */\n      dup7\n        /* \"#utility.yul\":5036:5052   */\n      add\n        /* \"#utility.yul\":5014:5066   */\n      tag_570\n      jump\t// in\n    tag_578:\n        /* \"#utility.yul\":5091:5097   */\n      dup1\n        /* \"#utility.yul\":5086:5089   */\n      dup5\n        /* \"#utility.yul\":5082:5098   */\n      add\n        /* \"#utility.yul\":5075:5098   */\n      swap2\n      pop\n        /* \"#utility.yul\":4837:5104   */\n      pop\n        /* \"#utility.yul\":4727:5104   */\n      swap3\n      swap2\n      pop\n      pop\n      jump\t// out\n        /* \"#utility.yul\":5134:5979   */\n    tag_579:\n        /* \"#utility.yul\":5237:5240   */\n      0x00\n        /* \"#utility.yul\":5274:5279   */\n      dup2\n        /* \"#utility.yul\":5268:5280   */\n      sload\n        /* \"#utility.yul\":5303:5339   */\n      tag_581\n        /* \"#utility.yul\":5329:5338   */\n      dup2\n        /* \"#utility.yul\":5303:5339   */\n      tag_121\n      jump\t// in\n    tag_581:\n        /* \"#utility.yul\":5355:5444   */\n      tag_582\n        /* \"#utility.yul\":5437:5443   */\n      dup2\n        /* \"#utility.yul\":5432:5435   */\n      dup7\n        /* \"#utility.yul\":5355:5444   */\n      tag_577\n      jump\t// in\n    tag_582:\n        /* \"#utility.yul\":5348:5444   */\n      swap5\n      pop\n        /* \"#utility.yul\":5475:5476   */\n      0x01\n        /* \"#utility.yul\":5464:5473   */\n      dup3\n        /* \"#utility.yul\":5460:5477   */\n      and\n        /* \"#utility.yul\":5491:5492   */\n      0x00\n        /* \"#utility.yul\":5486:5623   */\n      dup2\n      eq\n      tag_584\n      jumpi\n        /* \"#utility.yul\":5637:5638   */\n      0x01\n        /* \"#utility.yul\":5632:5973   */\n      dup2\n      eq\n      tag_585\n      jumpi\n        /* \"#utility.yul\":5453:5973   */\n      jump(tag_583)\n        /* \"#utility.yul\":5486:5623   */\n    tag_584:\n        /* \"#utility.yul\":5570:5574   */\n      0xff\n        /* \"#utility.yul\":5566:5575   */\n      not\n        /* \"#utility.yul\":5555:5564   */\n      dup4\n        /* \"#utility.yul\":5551:5576   */\n      and\n        /* \"#utility.yul\":5546:5549   */\n      dup7\n        /* \"#utility.yul\":5539:5577   */\n      mstore\n        /* \"#utility.yul\":5606:5612   */\n      dup2\n        /* \"#utility.yul\":5601:5604   */\n      dup7\n        /* \"#utility.yul\":5597:5613   */\n      add\n        /* \"#utility.yul\":5590:5613   */\n      swap4\n      pop\n        /* \"#utility.yul\":5486:5623   */\n      jump(tag_583)\n        /* \"#utility.yul\":5632:5973   */\n    tag_585:\n        /* \"#utility.yul\":5699:5737   */\n      tag_586\n        /* \"#utility.yul\":5731:5736   */\n      dup6\n        /* \"#utility.yul\":5699:5737   */\n      tag_587\n      jump\t// in\n    tag_586:\n        /* \"#utility.yul\":5759:5760   */\n      0x00\n        /* \"#utility.yul\":5773:5927   */\n    tag_588:\n        /* \"#utility.yul\":5787:5793   */\n      dup4\n        /* \"#utility.yul\":5784:5785   */\n      dup2\n        /* \"#utility.yul\":5781:5794   */\n      lt\n        /* \"#utility.yul\":5773:5927   */\n      iszero\n      tag_590\n      jumpi\n        /* \"#utility.yul\":5861:5868   */\n      dup2\n        /* \"#utility.yul\":5855:5869   */\n      sload\n        /* \"#utility.yul\":5851:5852   */\n      dup2\n        /* \"#utility.yul\":5846:5849   */\n      dup10\n        /* \"#utility.yul\":5842:5853   */\n      add\n        /* \"#utility.yul\":5835:5870   */\n      mstore\n        /* \"#utility.yul\":5911:5912   */\n      0x01\n        /* \"#utility.yul\":5902:5909   */\n      dup3\n        /* \"#utility.yul\":5898:5913   */\n      add\n        /* \"#utility.yul\":5887:5913   */\n      swap2\n      pop\n        /* \"#utility.yul\":5809:5813   */\n      0x20\n        /* \"#utility.yul\":5806:5807   */\n      dup2\n        /* \"#utility.yul\":5802:5814   */\n      add\n        /* \"#utility.yul\":5797:5814   */\n      swap1\n      pop\n        /* \"#utility.yul\":5773:5927   */\n      jump(tag_588)\n    tag_590:\n        /* \"#utility.yul\":5956:5962   */\n      dup4\n        /* \"#utility.yul\":5951:5954   */\n      dup9\n        /* \"#utility.yul\":5947:5963   */\n      add\n        /* \"#utility.yul\":5940:5963   */\n      swap6\n      pop\n        /* \"#utility.yul\":5639:5973   */\n      pop\n      pop\n        /* \"#utility.yul\":5453:5973   */\n    tag_583:\n      pop\n        /* \"#utility.yul\":5241:5979   */\n      pop\n      pop\n        /* \"#utility.yul\":5134:5979   */\n      swap3\n      swap2\n      pop\n      pop\n      jump\t// out\n        /* \"#utility.yul\":5985:6351   */\n    tag_591:\n        /* \"#utility.yul\":6127:6130   */\n      0x00\n        /* \"#utility.yul\":6148:6215   */\n      tag_593\n        /* \"#utility.yul\":6212:6214   */\n      0x2b\n        /* \"#utility.yul\":6207:6210   */\n      dup4\n        /* \"#utility.yul\":6148:6215   */\n      tag_568\n      jump\t// in\n    tag_593:\n        /* \"#utility.yul\":6141:6215   */\n      swap2\n      pop\n        /* \"#utility.yul\":6224:6317   */\n      tag_594\n        /* \"#utility.yul\":6313:6316   */\n      dup3\n        /* \"#utility.yul\":6224:6317   */\n      tag_595\n      jump\t// in\n    tag_594:\n        /* \"#utility.yul\":6342:6344   */\n      0x40\n        /* \"#utility.yul\":6337:6340   */\n      dup3\n        /* \"#utility.yul\":6333:6345   */\n      add\n        /* \"#utility.yul\":6326:6345   */\n      swap1\n      pop\n        /* \"#utility.yul\":5985:6351   */\n      swap2\n      swap1\n      pop\n      jump\t// out\n        /* \"#utility.yul\":6357:6723   */\n    tag_596:\n        /* \"#utility.yul\":6499:6502   */\n      0x00\n        /* \"#utility.yul\":6520:6587   */\n      tag_598\n        /* \"#utility.yul\":6584:6586   */\n      0x21\n        /* \"#utility.yul\":6579:6582   */\n      dup4\n        /* \"#utility.yul\":6520:6587   */\n      tag_568\n      jump\t// in\n    tag_598:\n        /* \"#utility.yul\":6513:6587   */\n      swap2\n      pop\n        /* \"#utility.yul\":6596:6689   */\n      tag_599\n        /* \"#utility.yul\":6685:6688   */\n      dup3\n        /* \"#utility.yul\":6596:6689   */\n      tag_600\n      jump\t// in\n    tag_599:\n        /* \"#utility.yul\":6714:6716   */\n      0x40\n        /* \"#utility.yul\":6709:6712   */\n      dup3\n        /* \"#utility.yul\":6705:6717   */\n      add\n        /* \"#utility.yul\":6698:6717   */\n      swap1\n      pop\n        /* \"#utility.yul\":6357:6723   */\n      swap2\n      swap1\n      pop\n      jump\t// out\n        /* \"#utility.yul\":6729:7095   */\n    tag_601:\n        /* \"#utility.yul\":6871:6874   */\n      0x00\n        /* \"#utility.yul\":6892:6959   */\n      tag_603\n        /* \"#utility.yul\":6956:6958   */\n      0x20\n        /* \"#utility.yul\":6951:6954   */\n      dup4\n        /* \"#utility.yul\":6892:6959   */\n      tag_568\n      jump\t// in\n    tag_603:\n        /* \"#utility.yul\":6885:6959   */\n      swap2\n      pop\n        /* \"#utility.yul\":6968:7061   */\n      tag_604\n        /* \"#utility.yul\":7057:7060   */\n      dup3\n        /* \"#utility.yul\":6968:7061   */\n      tag_605\n      jump\t// in\n    tag_604:\n        /* \"#utility.yul\":7086:7088   */\n      0x20\n        /* \"#utility.yul\":7081:7084   */\n      dup3\n        /* \"#utility.yul\":7077:7089   */\n      add\n        /* \"#utility.yul\":7070:7089   */\n      swap1\n      pop\n        /* \"#utility.yul\":6729:7095   */\n      swap2\n      swap1\n      pop\n      jump\t// out\n        /* \"#utility.yul\":7101:7501   */\n    tag_606:\n        /* \"#utility.yul\":7261:7264   */\n      0x00\n        /* \"#utility.yul\":7282:7366   */\n      tag_608\n        /* \"#utility.yul\":7364:7365   */\n      0x01\n        /* \"#utility.yul\":7359:7362   */\n      dup4\n        /* \"#utility.yul\":7282:7366   */\n      tag_577\n      jump\t// in\n    tag_608:\n        /* \"#utility.yul\":7275:7366   */\n      swap2\n      pop\n        /* \"#utility.yul\":7375:7468   */\n      tag_609\n        /* \"#utility.yul\":7464:7467   */\n      dup3\n        /* \"#utility.yul\":7375:7468   */\n      tag_610\n      jump\t// in\n    tag_609:\n        /* \"#utility.yul\":7493:7494   */\n      0x01\n        /* \"#utility.yul\":7488:7491   */\n      dup3\n        /* \"#utility.yul\":7484:7495   */\n      add\n        /* \"#utility.yul\":7477:7495   */\n      swap1\n      pop\n        /* \"#utility.yul\":7101:7501   */\n      swap2\n      swap1\n      pop\n      jump\t// out\n        /* \"#utility.yul\":7507:7873   */\n    tag_611:\n        /* \"#utility.yul\":7649:7652   */\n      0x00\n        /* \"#utility.yul\":7670:7737   */\n      tag_613\n        /* \"#utility.yul\":7734:7736   */\n      0x14\n        /* \"#utility.yul\":7729:7732   */\n      dup4\n        /* \"#utility.yul\":7670:7737   */\n      tag_568\n      jump\t// in\n    tag_613:\n        /* \"#utility.yul\":7663:7737   */\n      swap2\n      pop\n        /* \"#utility.yul\":7746:7839   */\n      tag_614\n        /* \"#utility.yul\":7835:7838   */\n      dup3\n        /* \"#utility.yul\":7746:7839   */\n      tag_615\n      jump\t// in\n    tag_614:\n        /* \"#utility.yul\":7864:7866   */\n      0x20\n        /* \"#utility.yul\":7859:7862   */\n      dup3\n        /* \"#utility.yul\":7855:7867   */\n      add\n        /* \"#utility.yul\":7848:7867   */\n      swap1\n      pop\n        /* \"#utility.yul\":7507:7873   */\n      swap2\n      swap1\n      pop\n      jump\t// out\n        /* \"#utility.yul\":7879:8281   */\n    tag_616:\n        /* \"#utility.yul\":8039:8042   */\n      0x00\n        /* \"#utility.yul\":8060:8145   */\n      tag_618\n        /* \"#utility.yul\":8142:8144   */\n      0x0f\n        /* \"#utility.yul\":8137:8140   */\n      dup4\n        /* \"#utility.yul\":8060:8145   */\n      tag_577\n      jump\t// in\n    tag_618:\n        /* \"#utility.yul\":8053:8145   */\n      swap2\n      pop\n        /* \"#utility.yul\":8154:8247   */\n      tag_619\n        /* \"#utility.yul\":8243:8246   */\n      dup3\n        /* \"#utility.yul\":8154:8247   */\n      tag_620\n      jump\t// in\n    tag_619:\n        /* \"#utility.yul\":8272:8274   */\n      0x0f\n        /* \"#utility.yul\":8267:8270   */\n      dup3\n        /* \"#utility.yul\":8263:8275   */\n      add\n        /* \"#utility.yul\":8256:8275   */\n      swap1\n      pop\n        /* \"#utility.yul\":7879:8281   */\n      swap2\n      swap1\n      pop\n      jump\t// out\n        /* \"#utility.yul\":8287:8653   */\n    tag_621:\n        /* \"#utility.yul\":8429:8432   */\n      0x00\n        /* \"#utility.yul\":8450:8517   */\n      tag_623\n        /* \"#utility.yul\":8514:8516   */\n      0x3d\n        /* \"#utility.yul\":8509:8512   */\n      dup4\n        /* \"#utility.yul\":8450:8517   */\n      tag_568\n      jump\t// in\n    tag_623:\n        /* \"#utility.yul\":8443:8517   */\n      swap2\n      pop\n        /* \"#utility.yul\":8526:8619   */\n      tag_624\n        /* \"#utility.yul\":8615:8618   */\n      dup3\n        /* \"#utility.yul\":8526:8619   */\n      tag_625\n      jump\t// in\n    tag_624:\n        /* \"#utility.yul\":8644:8646   */\n      0x40\n        /* \"#utility.yul\":8639:8642   */\n      dup3\n        /* \"#utility.yul\":8635:8647   */\n      add\n        /* \"#utility.yul\":8628:8647   */\n      swap1\n      pop\n        /* \"#utility.yul\":8287:8653   */\n      swap2\n      swap1\n      pop\n      jump\t// out\n        /* \"#utility.yul\":8659:9025   */\n    tag_626:\n        /* \"#utility.yul\":8801:8804   */\n      0x00\n        /* \"#utility.yul\":8822:8889   */\n      tag_628\n        /* \"#utility.yul\":8886:8888   */\n      0x2a\n        /* \"#utility.yul\":8881:8884   */\n      dup4\n        /* \"#utility.yul\":8822:8889   */\n      tag_568\n      jump\t// in\n    tag_628:\n        /* \"#utility.yul\":8815:8889   */\n      swap2\n      pop\n        /* \"#utility.yul\":8898:8991   */\n      tag_629\n        /* \"#utility.yul\":8987:8990   */\n      dup3\n        /* \"#utility.yul\":8898:8991   */\n      tag_630\n      jump\t// in\n    tag_629:\n        /* \"#utility.yul\":9016:9018   */\n      0x40\n        /* \"#utility.yul\":9011:9014   */\n      dup3\n        /* \"#utility.yul\":9007:9019   */\n      add\n        /* \"#utility.yul\":9000:9019   */\n      swap1\n      pop\n        /* \"#utility.yul\":8659:9025   */\n      swap2\n      swap1\n      pop\n      jump\t// out\n        /* \"#utility.yul\":9031:9397   */\n    tag_631:\n        /* \"#utility.yul\":9173:9176   */\n      0x00\n        /* \"#utility.yul\":9194:9261   */\n      tag_633\n        /* \"#utility.yul\":9258:9260   */\n      0x1a\n        /* \"#utility.yul\":9253:9256   */\n      dup4\n        /* \"#utility.yul\":9194:9261   */\n      tag_568\n      jump\t// in\n    tag_633:\n        /* \"#utility.yul\":9187:9261   */\n      swap2\n      pop\n        /* \"#utility.yul\":9270:9363   */\n      tag_634\n        /* \"#utility.yul\":9359:9362   */\n      dup3\n        /* \"#utility.yul\":9270:9363   */\n      tag_635\n      jump\t// in\n    tag_634:\n        /* \"#utility.yul\":9388:9390   */\n      0x20\n        /* \"#utility.yul\":9383:9386   */\n      dup3\n        /* \"#utility.yul\":9379:9391   */\n      add\n        /* \"#utility.yul\":9372:9391   */\n      swap1\n      pop\n        /* \"#utility.yul\":9031:9397   */\n      swap2\n      swap1\n      pop\n      jump\t// out\n        /* \"#utility.yul\":9403:9769   */\n    tag_636:\n        /* \"#utility.yul\":9545:9548   */\n      0x00\n        /* \"#utility.yul\":9566:9633   */\n      tag_638\n        /* \"#utility.yul\":9630:9632   */\n      0x1c\n        /* \"#utility.yul\":9625:9628   */\n      dup4\n        /* \"#utility.yul\":9566:9633   */\n      tag_568\n      jump\t// in\n    tag_638:\n        /* \"#utility.yul\":9559:9633   */\n      swap2\n      pop\n        /* \"#utility.yul\":9642:9735   */\n      tag_639\n        /* \"#utility.yul\":9731:9734   */\n      dup3\n        /* \"#utility.yul\":9642:9735   */\n      tag_640\n      jump\t// in\n    tag_639:\n        /* \"#utility.yul\":9760:9762   */\n      0x20\n        /* \"#utility.yul\":9755:9758   */\n      dup3\n        /* \"#utility.yul\":9751:9763   */\n      add\n        /* \"#utility.yul\":9744:9763   */\n      swap1\n      pop\n        /* \"#utility.yul\":9403:9769   */\n      swap2\n      swap1\n      pop\n      jump\t// out\n        /* \"#utility.yul\":9775:10141   */\n    tag_641:\n        /* \"#utility.yul\":9917:9920   */\n      0x00\n        /* \"#utility.yul\":9938:10005   */\n      tag_643\n        /* \"#utility.yul\":10002:10004   */\n      0x0f\n        /* \"#utility.yul\":9997:10000   */\n      dup4\n        /* \"#utility.yul\":9938:10005   */\n      tag_568\n      jump\t// in\n    tag_643:\n        /* \"#utility.yul\":9931:10005   */\n      swap2\n      pop\n        /* \"#utility.yul\":10014:10107   */\n      tag_644\n        /* \"#utility.yul\":10103:10106   */\n      dup3\n        /* \"#utility.yul\":10014:10107   */\n      tag_645\n      jump\t// in\n    tag_644:\n        /* \"#utility.yul\":10132:10134   */\n      0x20\n        /* \"#utility.yul\":10127:10130   */\n      dup3\n        /* \"#utility.yul\":10123:10135   */\n      add\n        /* \"#utility.yul\":10116:10135   */\n      swap1\n      pop\n        /* \"#utility.yul\":9775:10141   */\n      swap2\n      swap1\n      pop\n      jump\t// out\n        /* \"#utility.yul\":10147:10549   */\n    tag_646:\n        /* \"#utility.yul\":10307:10310   */\n      0x00\n        /* \"#utility.yul\":10328:10413   */\n      tag_648\n        /* \"#utility.yul\":10410:10412   */\n      0x0b\n        /* \"#utility.yul\":10405:10408   */\n      dup4\n        /* \"#utility.yul\":10328:10413   */\n      tag_577\n      jump\t// in\n    tag_648:\n        /* \"#utility.yul\":10321:10413   */\n      swap2\n      pop\n        /* \"#utility.yul\":10422:10515   */\n      tag_649\n        /* \"#utility.yul\":10511:10514   */\n      dup3\n        /* \"#utility.yul\":10422:10515   */\n      tag_650\n      jump\t// in\n    tag_649:\n        /* \"#utility.yul\":10540:10542   */\n      0x0b\n        /* \"#utility.yul\":10535:10538   */\n      dup3\n        /* \"#utility.yul\":10531:10543   */\n      add\n        /* \"#utility.yul\":10524:10543   */\n      swap1\n      pop\n        /* \"#utility.yul\":10147:10549   */\n      swap2\n      swap1\n      pop\n      jump\t// out\n        /* \"#utility.yul\":10555:10921   */\n    tag_651:\n        /* \"#utility.yul\":10697:10700   */\n      0x00\n        /* \"#utility.yul\":10718:10785   */\n      tag_653\n        /* \"#utility.yul\":10782:10784   */\n      0x1b\n        /* \"#utility.yul\":10777:10780   */\n      dup4\n        /* \"#utility.yul\":10718:10785   */\n      tag_568\n      jump\t// in\n    tag_653:\n        /* \"#utility.yul\":10711:10785   */\n      swap2\n      pop\n        /* \"#utility.yul\":10794:10887   */\n      tag_654\n        /* \"#utility.yul\":10883:10886   */\n      dup3\n        /* \"#utility.yul\":10794:10887   */\n      tag_655\n      jump\t// in\n    tag_654:\n        /* \"#utility.yul\":10912:10914   */\n      0x20\n        /* \"#utility.yul\":10907:10910   */\n      dup3\n        /* \"#utility.yul\":10903:10915   */\n      add\n        /* \"#utility.yul\":10896:10915   */\n      swap1\n      pop\n        /* \"#utility.yul\":10555:10921   */\n      swap2\n      swap1\n      pop\n      jump\t// out\n        /* \"#utility.yul\":10927:11293   */\n    tag_656:\n        /* \"#utility.yul\":11069:11072   */\n      0x00\n        /* \"#utility.yul\":11090:11157   */\n      tag_658\n        /* \"#utility.yul\":11154:11156   */\n      0x18\n        /* \"#utility.yul\":11149:11152   */\n      dup4\n        /* \"#utility.yul\":11090:11157   */\n      tag_568\n      jump\t// in\n    tag_658:\n        /* \"#utility.yul\":11083:11157   */\n      swap2\n      pop\n        /* \"#utility.yul\":11166:11259   */\n      tag_659\n        /* \"#utility.yul\":11255:11258   */\n      dup3\n        /* \"#utility.yul\":11166:11259   */\n      tag_660\n      jump\t// in\n    tag_659:\n        /* \"#utility.yul\":11284:11286   */\n      0x20\n        /* \"#utility.yul\":11279:11282   */\n      dup3\n        /* \"#utility.yul\":11275:11287   */\n      add\n        /* \"#utility.yul\":11268:11287   */\n      swap1\n      pop\n        /* \"#utility.yul\":10927:11293   */\n      swap2\n      swap1\n      pop\n      jump\t// out\n        /* \"#utility.yul\":11299:11665   */\n    tag_661:\n        /* \"#utility.yul\":11441:11444   */\n      0x00\n        /* \"#utility.yul\":11462:11529   */\n      tag_663\n        /* \"#utility.yul\":11526:11528   */\n      0x16\n        /* \"#utility.yul\":11521:11524   */\n      dup4\n        /* \"#utility.yul\":11462:11529   */\n      tag_568\n      jump\t// in\n    tag_663:\n        /* \"#utility.yul\":11455:11529   */\n      swap2\n      pop\n        /* \"#utility.yul\":11538:11631   */\n      tag_664\n        /* \"#utility.yul\":11627:11630   */\n      dup3\n        /* \"#utility.yul\":11538:11631   */\n      tag_665\n      jump\t// in\n    tag_664:\n        /* \"#utility.yul\":11656:11658   */\n      0x20\n        /* \"#utility.yul\":11651:11654   */\n      dup3\n        /* \"#utility.yul\":11647:11659   */\n      add\n        /* \"#utility.yul\":11640:11659   */\n      swap1\n      pop\n        /* \"#utility.yul\":11299:11665   */\n      swap2\n      swap1\n      pop\n      jump\t// out\n        /* \"#utility.yul\":11671:12037   */\n    tag_666:\n        /* \"#utility.yul\":11813:11816   */\n      0x00\n        /* \"#utility.yul\":11834:11901   */\n      tag_668\n        /* \"#utility.yul\":11898:11900   */\n      0x15\n        /* \"#utility.yul\":11893:11896   */\n      dup4\n        /* \"#utility.yul\":11834:11901   */\n      tag_568\n      jump\t// in\n    tag_668:\n        /* \"#utility.yul\":11827:11901   */\n      swap2\n      pop\n        /* \"#utility.yul\":11910:12003   */\n      tag_669\n        /* \"#utility.yul\":11999:12002   */\n      dup3\n        /* \"#utility.yul\":11910:12003   */\n      tag_670\n      jump\t// in\n    tag_669:\n        /* \"#utility.yul\":12028:12030   */\n      0x20\n        /* \"#utility.yul\":12023:12026   */\n      dup3\n        /* \"#utility.yul\":12019:12031   */\n      add\n        /* \"#utility.yul\":12012:12031   */\n      swap1\n      pop\n        /* \"#utility.yul\":11671:12037   */\n      swap2\n      swap1\n      pop\n      jump\t// out\n        /* \"#utility.yul\":12043:12409   */\n    tag_671:\n        /* \"#utility.yul\":12185:12188   */\n      0x00\n        /* \"#utility.yul\":12206:12273   */\n      tag_673\n        /* \"#utility.yul\":12270:12272   */\n      0x20\n        /* \"#utility.yul\":12265:12268   */\n      dup4\n        /* \"#utility.yul\":12206:12273   */\n      tag_568\n      jump\t// in\n    tag_673:\n        /* \"#utility.yul\":12199:12273   */\n      swap2\n      pop\n        /* \"#utility.yul\":12282:12375   */\n      tag_674\n        /* \"#utility.yul\":12371:12374   */\n      dup3\n        /* \"#utility.yul\":12282:12375   */\n      tag_675\n      jump\t// in\n    tag_674:\n        /* \"#utility.yul\":12400:12402   */\n      0x20\n        /* \"#utility.yul\":12395:12398   */\n      dup3\n        /* \"#utility.yul\":12391:12403   */\n      add\n        /* \"#utility.yul\":12384:12403   */\n      swap1\n      pop\n        /* \"#utility.yul\":12043:12409   */\n      swap2\n      swap1\n      pop\n      jump\t// out\n        /* \"#utility.yul\":12415:12781   */\n    tag_676:\n        /* \"#utility.yul\":12557:12560   */\n      0x00\n        /* \"#utility.yul\":12578:12645   */\n      tag_678\n        /* \"#utility.yul\":12642:12644   */\n      0x14\n        /* \"#utility.yul\":12637:12640   */\n      dup4\n        /* \"#utility.yul\":12578:12645   */\n      tag_568\n      jump\t// in\n    tag_678:\n        /* \"#utility.yul\":12571:12645   */\n      swap2\n      pop\n        /* \"#utility.yul\":12654:12747   */\n      tag_679\n        /* \"#utility.yul\":12743:12746   */\n      dup3\n        /* \"#utility.yul\":12654:12747   */\n      tag_680\n      jump\t// in\n    tag_679:\n        /* \"#utility.yul\":12772:12774   */\n      0x20\n        /* \"#utility.yul\":12767:12770   */\n      dup3\n        /* \"#utility.yul\":12763:12775   */\n      add\n        /* \"#utility.yul\":12756:12775   */\n      swap1\n      pop\n        /* \"#utility.yul\":12415:12781   */\n      swap2\n      swap1\n      pop\n      jump\t// out\n        /* \"#utility.yul\":12787:13153   */\n    tag_681:\n        /* \"#utility.yul\":12929:12932   */\n      0x00\n        /* \"#utility.yul\":12950:13017   */\n      tag_683\n        /* \"#utility.yul\":13014:13016   */\n      0x18\n        /* \"#utility.yul\":13009:13012   */\n      dup4\n        /* \"#utility.yul\":12950:13017   */\n      tag_568\n      jump\t// in\n    tag_683:\n        /* \"#utility.yul\":12943:13017   */\n      swap2\n      pop\n        /* \"#utility.yul\":13026:13119   */\n      tag_684\n        /* \"#utility.yul\":13115:13118   */\n      dup3\n        /* \"#utility.yul\":13026:13119   */\n      tag_685\n      jump\t// in\n    tag_684:\n        /* \"#utility.yul\":13144:13146   */\n      0x20\n        /* \"#utility.yul\":13139:13142   */\n      dup3\n        /* \"#utility.yul\":13135:13147   */\n      add\n        /* \"#utility.yul\":13128:13147   */\n      swap1\n      pop\n        /* \"#utility.yul\":12787:13153   */\n      swap2\n      swap1\n      pop\n      jump\t// out\n        /* \"#utility.yul\":13159:13525   */\n    tag_686:\n        /* \"#utility.yul\":13301:13304   */\n      0x00\n        /* \"#utility.yul\":13322:13389   */\n      tag_688\n        /* \"#utility.yul\":13386:13388   */\n      0x22\n        /* \"#utility.yul\":13381:13384   */\n      dup4\n        /* \"#utility.yul\":13322:13389   */\n      tag_568\n      jump\t// in\n    tag_688:\n        /* \"#utility.yul\":13315:13389   */\n      swap2\n      pop\n        /* \"#utility.yul\":13398:13491   */\n      tag_689\n        /* \"#utility.yul\":13487:13490   */\n      dup3\n        /* \"#utility.yul\":13398:13491   */\n      tag_690\n      jump\t// in\n    tag_689:\n        /* \"#utility.yul\":13516:13518   */\n      0x40\n        /* \"#utility.yul\":13511:13514   */\n      dup3\n        /* \"#utility.yul\":13507:13519   */\n      add\n        /* \"#utility.yul\":13500:13519   */\n      swap1\n      pop\n        /* \"#utility.yul\":13159:13525   */\n      swap2\n      swap1\n      pop\n      jump\t// out\n        /* \"#utility.yul\":13531:13897   */\n    tag_691:\n        /* \"#utility.yul\":13673:13676   */\n      0x00\n        /* \"#utility.yul\":13694:13761   */\n      tag_693\n        /* \"#utility.yul\":13758:13760   */\n      0x11\n        /* \"#utility.yul\":13753:13756   */\n      dup4\n        /* \"#utility.yul\":13694:13761   */\n      tag_568\n      jump\t// in\n    tag_693:\n        /* \"#utility.yul\":13687:13761   */\n      swap2\n      pop\n        /* \"#utility.yul\":13770:13863   */\n      tag_694\n        /* \"#utility.yul\":13859:13862   */\n      dup3\n        /* \"#utility.yul\":13770:13863   */\n      tag_695\n      jump\t// in\n    tag_694:\n        /* \"#utility.yul\":13888:13890   */\n      0x20\n        /* \"#utility.yul\":13883:13886   */\n      dup3\n        /* \"#utility.yul\":13879:13891   */\n      add\n        /* \"#utility.yul\":13872:13891   */\n      swap1\n      pop\n        /* \"#utility.yul\":13531:13897   */\n      swap2\n      swap1\n      pop\n      jump\t// out\n        /* \"#utility.yul\":13903:14269   */\n    tag_696:\n        /* \"#utility.yul\":14045:14048   */\n      0x00\n        /* \"#utility.yul\":14066:14133   */\n      tag_698\n        /* \"#utility.yul\":14130:14132   */\n      0x11\n        /* \"#utility.yul\":14125:14128   */\n      dup4\n        /* \"#utility.yul\":14066:14133   */\n      tag_568\n      jump\t// in\n    tag_698:\n        /* \"#utility.yul\":14059:14133   */\n      swap2\n      pop\n        /* \"#utility.yul\":14142:14235   */\n      tag_699\n        /* \"#utility.yul\":14231:14234   */\n      dup3\n        /* \"#utility.yul\":14142:14235   */\n      tag_700\n      jump\t// in\n    tag_699:\n        /* \"#utility.yul\":14260:14262   */\n      0x20\n        /* \"#utility.yul\":14255:14258   */\n      dup3\n        /* \"#utility.yul\":14251:14263   */\n      add\n        /* \"#utility.yul\":14244:14263   */\n      swap1\n      pop\n        /* \"#utility.yul\":13903:14269   */\n      swap2\n      swap1\n      pop\n      jump\t// out\n        /* \"#utility.yul\":14275:14641   */\n    tag_701:\n        /* \"#utility.yul\":14417:14420   */\n      0x00\n        /* \"#utility.yul\":14438:14505   */\n      tag_703\n        /* \"#utility.yul\":14502:14504   */\n      0x13\n        /* \"#utility.yul\":14497:14500   */\n      dup4\n        /* \"#utility.yul\":14438:14505   */\n      tag_568\n      jump\t// in\n    tag_703:\n        /* \"#utility.yul\":14431:14505   */\n      swap2\n      pop\n        /* \"#utility.yul\":14514:14607   */\n      tag_704\n        /* \"#utility.yul\":14603:14606   */\n      dup3\n        /* \"#utility.yul\":14514:14607   */\n      tag_705\n      jump\t// in\n    tag_704:\n        /* \"#utility.yul\":14632:14634   */\n      0x20\n        /* \"#utility.yul\":14627:14630   */\n      dup3\n        /* \"#utility.yul\":14623:14635   */\n      add\n        /* \"#utility.yul\":14616:14635   */\n      swap1\n      pop\n        /* \"#utility.yul\":14275:14641   */\n      swap2\n      swap1\n      pop\n      jump\t// out\n        /* \"#utility.yul\":14647:15013   */\n    tag_706:\n        /* \"#utility.yul\":14789:14792   */\n      0x00\n        /* \"#utility.yul\":14810:14877   */\n      tag_708\n        /* \"#utility.yul\":14874:14876   */\n      0x0f\n        /* \"#utility.yul\":14869:14872   */\n      dup4\n        /* \"#utility.yul\":14810:14877   */\n      tag_568\n      jump\t// in\n    tag_708:\n        /* \"#utility.yul\":14803:14877   */\n      swap2\n      pop\n        /* \"#utility.yul\":14886:14979   */\n      tag_709\n        /* \"#utility.yul\":14975:14978   */\n      dup3\n        /* \"#utility.yul\":14886:14979   */\n      tag_710\n      jump\t// in\n    tag_709:\n        /* \"#utility.yul\":15004:15006   */\n      0x20\n        /* \"#utility.yul\":14999:15002   */\n      dup3\n        /* \"#utility.yul\":14995:15007   */\n      add\n        /* \"#utility.yul\":14988:15007   */\n      swap1\n      pop\n        /* \"#utility.yul\":14647:15013   */\n      swap2\n      swap1\n      pop\n      jump\t// out\n        /* \"#utility.yul\":15019:15454   */\n    tag_208:\n        /* \"#utility.yul\":15199:15202   */\n      0x00\n        /* \"#utility.yul\":15221:15316   */\n      tag_712\n        /* \"#utility.yul\":15312:15315   */\n      dup3\n        /* \"#utility.yul\":15303:15309   */\n      dup6\n        /* \"#utility.yul\":15221:15316   */\n      tag_573\n      jump\t// in\n    tag_712:\n        /* \"#utility.yul\":15214:15316   */\n      swap2\n      pop\n        /* \"#utility.yul\":15333:15428   */\n      tag_713\n        /* \"#utility.yul\":15424:15427   */\n      dup3\n        /* \"#utility.yul\":15415:15421   */\n      dup5\n        /* \"#utility.yul\":15333:15428   */\n      tag_573\n      jump\t// in\n    tag_713:\n        /* \"#utility.yul\":15326:15428   */\n      swap2\n      pop\n        /* \"#utility.yul\":15445:15448   */\n      dup2\n        /* \"#utility.yul\":15438:15448   */\n      swap1\n      pop\n        /* \"#utility.yul\":15019:15454   */\n      swap4\n      swap3\n      pop\n      pop\n      pop\n      jump\t// out\n        /* \"#utility.yul\":15460:15889   */\n    tag_215:\n        /* \"#utility.yul\":15637:15640   */\n      0x00\n        /* \"#utility.yul\":15659:15754   */\n      tag_715\n        /* \"#utility.yul\":15750:15753   */\n      dup3\n        /* \"#utility.yul\":15741:15747   */\n      dup6\n        /* \"#utility.yul\":15659:15754   */\n      tag_573\n      jump\t// in\n    tag_715:\n        /* \"#utility.yul\":15652:15754   */\n      swap2\n      pop\n        /* \"#utility.yul\":15771:15863   */\n      tag_716\n        /* \"#utility.yul\":15859:15862   */\n      dup3\n        /* \"#utility.yul\":15850:15856   */\n      dup5\n        /* \"#utility.yul\":15771:15863   */\n      tag_579\n      jump\t// in\n    tag_716:\n        /* \"#utility.yul\":15764:15863   */\n      swap2\n      pop\n        /* \"#utility.yul\":15880:15883   */\n      dup2\n        /* \"#utility.yul\":15873:15883   */\n      swap1\n      pop\n        /* \"#utility.yul\":15460:15889   */\n      swap4\n      swap3\n      pop\n      pop\n      pop\n      jump\t// out\n        /* \"#utility.yul\":15895:16436   */\n    tag_217:\n        /* \"#utility.yul\":16128:16131   */\n      0x00\n        /* \"#utility.yul\":16150:16245   */\n      tag_718\n        /* \"#utility.yul\":16241:16244   */\n      dup3\n        /* \"#utility.yul\":16232:16238   */\n      dup5\n        /* \"#utility.yul\":16150:16245   */\n      tag_573\n      jump\t// in\n    tag_718:\n        /* \"#utility.yul\":16143:16245   */\n      swap2\n      pop\n        /* \"#utility.yul\":16262:16410   */\n      tag_719\n        /* \"#utility.yul\":16406:16409   */\n      dup3\n        /* \"#utility.yul\":16262:16410   */\n      tag_606\n      jump\t// in\n    tag_719:\n        /* \"#utility.yul\":16255:16410   */\n      swap2\n      pop\n        /* \"#utility.yul\":16427:16430   */\n      dup2\n        /* \"#utility.yul\":16420:16430   */\n      swap1\n      pop\n        /* \"#utility.yul\":15895:16436   */\n      swap3\n      swap2\n      pop\n      pop\n      jump\t// out\n        /* \"#utility.yul\":16442:16983   */\n    tag_210:\n        /* \"#utility.yul\":16675:16678   */\n      0x00\n        /* \"#utility.yul\":16697:16792   */\n      tag_721\n        /* \"#utility.yul\":16788:16791   */\n      dup3\n        /* \"#utility.yul\":16779:16785   */\n      dup5\n        /* \"#utility.yul\":16697:16792   */\n      tag_573\n      jump\t// in\n    tag_721:\n        /* \"#utility.yul\":16690:16792   */\n      swap2\n      pop\n        /* \"#utility.yul\":16809:16957   */\n      tag_722\n        /* \"#utility.yul\":16953:16956   */\n      dup3\n        /* \"#utility.yul\":16809:16957   */\n      tag_616\n      jump\t// in\n    tag_722:\n        /* \"#utility.yul\":16802:16957   */\n      swap2\n      pop\n        /* \"#utility.yul\":16974:16977   */\n      dup2\n        /* \"#utility.yul\":16967:16977   */\n      swap1\n      pop\n        /* \"#utility.yul\":16442:16983   */\n      swap3\n      swap2\n      pop\n      pop\n      jump\t// out\n        /* \"#utility.yul\":16989:17530   */\n    tag_201:\n        /* \"#utility.yul\":17222:17225   */\n      0x00\n        /* \"#utility.yul\":17244:17339   */\n      tag_724\n        /* \"#utility.yul\":17335:17338   */\n      dup3\n        /* \"#utility.yul\":17326:17332   */\n      dup5\n        /* \"#utility.yul\":17244:17339   */\n      tag_573\n      jump\t// in\n    tag_724:\n        /* \"#utility.yul\":17237:17339   */\n      swap2\n      pop\n        /* \"#utility.yul\":17356:17504   */\n      tag_725\n        /* \"#utility.yul\":17500:17503   */\n      dup3\n        /* \"#utility.yul\":17356:17504   */\n      tag_646\n      jump\t// in\n    tag_725:\n        /* \"#utility.yul\":17349:17504   */\n      swap2\n      pop\n        /* \"#utility.yul\":17521:17524   */\n      dup2\n        /* \"#utility.yul\":17514:17524   */\n      swap1\n      pop\n        /* \"#utility.yul\":16989:17530   */\n      swap3\n      swap2\n      pop\n      pop\n      jump\t// out\n        /* \"#utility.yul\":17536:17758   */\n    tag_52:\n        /* \"#utility.yul\":17629:17633   */\n      0x00\n        /* \"#utility.yul\":17667:17669   */\n      0x20\n        /* \"#utility.yul\":17656:17665   */\n      dup3\n        /* \"#utility.yul\":17652:17670   */\n      add\n        /* \"#utility.yul\":17644:17670   */\n      swap1\n      pop\n        /* \"#utility.yul\":17680:17751   */\n      tag_727\n        /* \"#utility.yul\":17748:17749   */\n      0x00\n        /* \"#utility.yul\":17737:17746   */\n      dup4\n        /* \"#utility.yul\":17733:17750   */\n      add\n        /* \"#utility.yul\":17724:17730   */\n      dup5\n        /* \"#utility.yul\":17680:17751   */\n      tag_559\n      jump\t// in\n    tag_727:\n        /* \"#utility.yul\":17536:17758   */\n      swap3\n      swap2\n      pop\n      pop\n      jump\t// out\n        /* \"#utility.yul\":17764:18077   */\n    tag_42:\n        /* \"#utility.yul\":17877:17881   */\n      0x00\n        /* \"#utility.yul\":17915:17917   */\n      0x20\n        /* \"#utility.yul\":17904:17913   */\n      dup3\n        /* \"#utility.yul\":17900:17918   */\n      add\n        /* \"#utility.yul\":17892:17918   */\n      swap1\n      pop\n        /* \"#utility.yul\":17964:17973   */\n      dup2\n        /* \"#utility.yul\":17958:17962   */\n      dup2\n        /* \"#utility.yul\":17954:17974   */\n      sub\n        /* \"#utility.yul\":17950:17951   */\n      0x00\n        /* \"#utility.yul\":17939:17948   */\n      dup4\n        /* \"#utility.yul\":17935:17952   */\n      add\n        /* \"#utility.yul\":17928:17975   */\n      mstore\n        /* \"#utility.yul\":17992:18070   */\n      tag_729\n        /* \"#utility.yul\":18065:18069   */\n      dup2\n        /* \"#utility.yul\":18056:18062   */\n      dup5\n        /* \"#utility.yul\":17992:18070   */\n      tag_563\n      jump\t// in\n    tag_729:\n        /* \"#utility.yul\":17984:18070   */\n      swap1\n      pop\n        /* \"#utility.yul\":17764:18077   */\n      swap3\n      swap2\n      pop\n      pop\n      jump\t// out\n        /* \"#utility.yul\":18083:18502   */\n    tag_84:\n        /* \"#utility.yul\":18249:18253   */\n      0x00\n        /* \"#utility.yul\":18287:18289   */\n      0x20\n        /* \"#utility.yul\":18276:18285   */\n      dup3\n        /* \"#utility.yul\":18272:18290   */\n      add\n        /* \"#utility.yul\":18264:18290   */\n      swap1\n      pop\n        /* \"#utility.yul\":18336:18345   */\n      dup2\n        /* \"#utility.yul\":18330:18334   */\n      dup2\n        /* \"#utility.yul\":18326:18346   */\n      sub\n        /* \"#utility.yul\":18322:18323   */\n      0x00\n        /* \"#utility.yul\":18311:18320   */\n      dup4\n        /* \"#utility.yul\":18307:18324   */\n      add\n        /* \"#utility.yul\":18300:18347   */\n      mstore\n        /* \"#utility.yul\":18364:18495   */\n      tag_731\n        /* \"#utility.yul\":18490:18494   */\n      dup2\n        /* \"#utility.yul\":18364:18495   */\n      tag_591\n      jump\t// in\n    tag_731:\n        /* \"#utility.yul\":18356:18495   */\n      swap1\n      pop\n        /* \"#utility.yul\":18083:18502   */\n      swap2\n      swap1\n      pop\n      jump\t// out\n        /* \"#utility.yul\":18508:18927   */\n    tag_89:\n        /* \"#utility.yul\":18674:18678   */\n      0x00\n        /* \"#utility.yul\":18712:18714   */\n      0x20\n        /* \"#utility.yul\":18701:18710   */\n      dup3\n        /* \"#utility.yul\":18697:18715   */\n      add\n        /* \"#utility.yul\":18689:18715   */\n      swap1\n      pop\n        /* \"#utility.yul\":18761:18770   */\n      dup2\n        /* \"#utility.yul\":18755:18759   */\n      dup2\n        /* \"#utility.yul\":18751:18771   */\n      sub\n        /* \"#utility.yul\":18747:18748   */\n      0x00\n        /* \"#utility.yul\":18736:18745   */\n      dup4\n        /* \"#utility.yul\":18732:18749   */\n      add\n        /* \"#utility.yul\":18725:18772   */\n      mstore\n        /* \"#utility.yul\":18789:18920   */\n      tag_733\n        /* \"#utility.yul\":18915:18919   */\n      dup2\n        /* \"#utility.yul\":18789:18920   */\n      tag_596\n      jump\t// in\n    tag_733:\n        /* \"#utility.yul\":18781:18920   */\n      swap1\n      pop\n        /* \"#utility.yul\":18508:18927   */\n      swap2\n      swap1\n      pop\n      jump\t// out\n        /* \"#utility.yul\":18933:19352   */\n    tag_321:\n        /* \"#utility.yul\":19099:19103   */\n      0x00\n        /* \"#utility.yul\":19137:19139   */\n      0x20\n        /* \"#utility.yul\":19126:19135   */\n      dup3\n        /* \"#utility.yul\":19122:19140   */\n      add\n        /* \"#utility.yul\":19114:19140   */\n      swap1\n      pop\n        /* \"#utility.yul\":19186:19195   */\n      dup2\n        /* \"#utility.yul\":19180:19184   */\n      dup2\n        /* \"#utility.yul\":19176:19196   */\n      sub\n        /* \"#utility.yul\":19172:19173   */\n      0x00\n        /* \"#utility.yul\":19161:19170   */\n      dup4\n        /* \"#utility.yul\":19157:19174   */\n      add\n        /* \"#utility.yul\":19150:19197   */\n      mstore\n        /* \"#utility.yul\":19214:19345   */\n      tag_735\n        /* \"#utility.yul\":19340:19344   */\n      dup2\n        /* \"#utility.yul\":19214:19345   */\n      tag_601\n      jump\t// in\n    tag_735:\n        /* \"#utility.yul\":19206:19345   */\n      swap1\n      pop\n        /* \"#utility.yul\":18933:19352   */\n      swap2\n      swap1\n      pop\n      jump\t// out\n        /* \"#utility.yul\":19358:19777   */\n    tag_274:\n        /* \"#utility.yul\":19524:19528   */\n      0x00\n        /* \"#utility.yul\":19562:19564   */\n      0x20\n        /* \"#utility.yul\":19551:19560   */\n      dup3\n        /* \"#utility.yul\":19547:19565   */\n      add\n        /* \"#utility.yul\":19539:19565   */\n      swap1\n      pop\n        /* \"#utility.yul\":19611:19620   */\n      dup2\n        /* \"#utility.yul\":19605:19609   */\n      dup2\n        /* \"#utility.yul\":19601:19621   */\n      sub\n        /* \"#utility.yul\":19597:19598   */\n      0x00\n        /* \"#utility.yul\":19586:19595   */\n      dup4\n        /* \"#utility.yul\":19582:19599   */\n      add\n        /* \"#utility.yul\":19575:19622   */\n      mstore\n        /* \"#utility.yul\":19639:19770   */\n      tag_737\n        /* \"#utility.yul\":19765:19769   */\n      dup2\n        /* \"#utility.yul\":19639:19770   */\n      tag_611\n      jump\t// in\n    tag_737:\n        /* \"#utility.yul\":19631:19770   */\n      swap1\n      pop\n        /* \"#utility.yul\":19358:19777   */\n      swap2\n      swap1\n      pop\n      jump\t// out\n        /* \"#utility.yul\":19783:20202   */\n    tag_395:\n        /* \"#utility.yul\":19949:19953   */\n      0x00\n        /* \"#utility.yul\":19987:19989   */\n      0x20\n        /* \"#utility.yul\":19976:19985   */\n      dup3\n        /* \"#utility.yul\":19972:19990   */\n      add\n        /* \"#utility.yul\":19964:19990   */\n      swap1\n      pop\n        /* \"#utility.yul\":20036:20045   */\n      dup2\n        /* \"#utility.yul\":20030:20034   */\n      dup2\n        /* \"#utility.yul\":20026:20046   */\n      sub\n        /* \"#utility.yul\":20022:20023   */\n      0x00\n        /* \"#utility.yul\":20011:20020   */\n      dup4\n        /* \"#utility.yul\":20007:20024   */\n      add\n        /* \"#utility.yul\":20000:20047   */\n      mstore\n        /* \"#utility.yul\":20064:20195   */\n      tag_739\n        /* \"#utility.yul\":20190:20194   */\n      dup2\n        /* \"#utility.yul\":20064:20195   */\n      tag_621\n      jump\t// in\n    tag_739:\n        /* \"#utility.yul\":20056:20195   */\n      swap1\n      pop\n        /* \"#utility.yul\":19783:20202   */\n      swap2\n      swap1\n      pop\n      jump\t// out\n        /* \"#utility.yul\":20208:20627   */\n    tag_248:\n        /* \"#utility.yul\":20374:20378   */\n      0x00\n        /* \"#utility.yul\":20412:20414   */\n      0x20\n        /* \"#utility.yul\":20401:20410   */\n      dup3\n        /* \"#utility.yul\":20397:20415   */\n      add\n        /* \"#utility.yul\":20389:20415   */\n      swap1\n      pop\n        /* \"#utility.yul\":20461:20470   */\n      dup2\n        /* \"#utility.yul\":20455:20459   */\n      dup2\n        /* \"#utility.yul\":20451:20471   */\n      sub\n        /* \"#utility.yul\":20447:20448   */\n      0x00\n        /* \"#utility.yul\":20436:20445   */\n      dup4\n        /* \"#utility.yul\":20432:20449   */\n      add\n        /* \"#utility.yul\":20425:20472   */\n      mstore\n        /* \"#utility.yul\":20489:20620   */\n      tag_741\n        /* \"#utility.yul\":20615:20619   */\n      dup2\n        /* \"#utility.yul\":20489:20620   */\n      tag_626\n      jump\t// in\n    tag_741:\n        /* \"#utility.yul\":20481:20620   */\n      swap1\n      pop\n        /* \"#utility.yul\":20208:20627   */\n      swap2\n      swap1\n      pop\n      jump\t// out\n        /* \"#utility.yul\":20633:21052   */\n    tag_255:\n        /* \"#utility.yul\":20799:20803   */\n      0x00\n        /* \"#utility.yul\":20837:20839   */\n      0x20\n        /* \"#utility.yul\":20826:20835   */\n      dup3\n        /* \"#utility.yul\":20822:20840   */\n      add\n        /* \"#utility.yul\":20814:20840   */\n      swap1\n      pop\n        /* \"#utility.yul\":20886:20895   */\n      dup2\n        /* \"#utility.yul\":20880:20884   */\n      dup2\n        /* \"#utility.yul\":20876:20896   */\n      sub\n        /* \"#utility.yul\":20872:20873   */\n      0x00\n        /* \"#utility.yul\":20861:20870   */\n      dup4\n        /* \"#utility.yul\":20857:20874   */\n      add\n        /* \"#utility.yul\":20850:20897   */\n      mstore\n        /* \"#utility.yul\":20914:21045   */\n      tag_743\n        /* \"#utility.yul\":21040:21044   */\n      dup2\n        /* \"#utility.yul\":20914:21045   */\n      tag_631\n      jump\t// in\n    tag_743:\n        /* \"#utility.yul\":20906:21045   */\n      swap1\n      pop\n        /* \"#utility.yul\":20633:21052   */\n      swap2\n      swap1\n      pop\n      jump\t// out\n        /* \"#utility.yul\":21058:21477   */\n    tag_338:\n        /* \"#utility.yul\":21224:21228   */\n      0x00\n        /* \"#utility.yul\":21262:21264   */\n      0x20\n        /* \"#utility.yul\":21251:21260   */\n      dup3\n        /* \"#utility.yul\":21247:21265   */\n      add\n        /* \"#utility.yul\":21239:21265   */\n      swap1\n      pop\n        /* \"#utility.yul\":21311:21320   */\n      dup2\n        /* \"#utility.yul\":21305:21309   */\n      dup2\n        /* \"#utility.yul\":21301:21321   */\n      sub\n        /* \"#utility.yul\":21297:21298   */\n      0x00\n        /* \"#utility.yul\":21286:21295   */\n      dup4\n        /* \"#utility.yul\":21282:21299   */\n      add\n        /* \"#utility.yul\":21275:21322   */\n      mstore\n        /* \"#utility.yul\":21339:21470   */\n      tag_745\n        /* \"#utility.yul\":21465:21469   */\n      dup2\n        /* \"#utility.yul\":21339:21470   */\n      tag_636\n      jump\t// in\n    tag_745:\n        /* \"#utility.yul\":21331:21470   */\n      swap1\n      pop\n        /* \"#utility.yul\":21058:21477   */\n      swap2\n      swap1\n      pop\n      jump\t// out\n        /* \"#utility.yul\":21483:21902   */\n    tag_133:\n        /* \"#utility.yul\":21649:21653   */\n      0x00\n        /* \"#utility.yul\":21687:21689   */\n      0x20\n        /* \"#utility.yul\":21676:21685   */\n      dup3\n        /* \"#utility.yul\":21672:21690   */\n      add\n        /* \"#utility.yul\":21664:21690   */\n      swap1\n      pop\n        /* \"#utility.yul\":21736:21745   */\n      dup2\n        /* \"#utility.yul\":21730:21734   */\n      dup2\n        /* \"#utility.yul\":21726:21746   */\n      sub\n        /* \"#utility.yul\":21722:21723   */\n      0x00\n        /* \"#utility.yul\":21711:21720   */\n      dup4\n        /* \"#utility.yul\":21707:21724   */\n      add\n        /* \"#utility.yul\":21700:21747   */\n      mstore\n        /* \"#utility.yul\":21764:21895   */\n      tag_747\n        /* \"#utility.yul\":21890:21894   */\n      dup2\n        /* \"#utility.yul\":21764:21895   */\n      tag_641\n      jump\t// in\n    tag_747:\n        /* \"#utility.yul\":21756:21895   */\n      swap1\n      pop\n        /* \"#utility.yul\":21483:21902   */\n      swap2\n      swap1\n      pop\n      jump\t// out\n        /* \"#utility.yul\":21908:22327   */\n    tag_196:\n        /* \"#utility.yul\":22074:22078   */\n      0x00\n        /* \"#utility.yul\":22112:22114   */\n      0x20\n        /* \"#utility.yul\":22101:22110   */\n      dup3\n        /* \"#utility.yul\":22097:22115   */\n      add\n        /* \"#utility.yul\":22089:22115   */\n      swap1\n      pop\n        /* \"#utility.yul\":22161:22170   */\n      dup2\n        /* \"#utility.yul\":22155:22159   */\n      dup2\n        /* \"#utility.yul\":22151:22171   */\n      sub\n        /* \"#utility.yul\":22147:22148   */\n      0x00\n        /* \"#utility.yul\":22136:22145   */\n      dup4\n        /* \"#utility.yul\":22132:22149   */\n      add\n        /* \"#utility.yul\":22125:22172   */\n      mstore\n        /* \"#utility.yul\":22189:22320   */\n      tag_749\n        /* \"#utility.yul\":22315:22319   */\n      dup2\n        /* \"#utility.yul\":22189:22320   */\n      tag_651\n      jump\t// in\n    tag_749:\n        /* \"#utility.yul\":22181:22320   */\n      swap1\n      pop\n        /* \"#utility.yul\":21908:22327   */\n      swap2\n      swap1\n      pop\n      jump\t// out\n        /* \"#utility.yul\":22333:22752   */\n    tag_113:\n        /* \"#utility.yul\":22499:22503   */\n      0x00\n        /* \"#utility.yul\":22537:22539   */\n      0x20\n        /* \"#utility.yul\":22526:22535   */\n      dup3\n        /* \"#utility.yul\":22522:22540   */\n      add\n        /* \"#utility.yul\":22514:22540   */\n      swap1\n      pop\n        /* \"#utility.yul\":22586:22595   */\n      dup2\n        /* \"#utility.yul\":22580:22584   */\n      dup2\n        /* \"#utility.yul\":22576:22596   */\n      sub\n        /* \"#utility.yul\":22572:22573   */\n      0x00\n        /* \"#utility.yul\":22561:22570   */\n      dup4\n        /* \"#utility.yul\":22557:22574   */\n      add\n        /* \"#utility.yul\":22550:22597   */\n      mstore\n        /* \"#utility.yul\":22614:22745   */\n      tag_751\n        /* \"#utility.yul\":22740:22744   */\n      dup2\n        /* \"#utility.yul\":22614:22745   */\n      tag_656\n      jump\t// in\n    tag_751:\n        /* \"#utility.yul\":22606:22745   */\n      swap1\n      pop\n        /* \"#utility.yul\":22333:22752   */\n      swap2\n      swap1\n      pop\n      jump\t// out\n        /* \"#utility.yul\":22758:23177   */\n    tag_98:\n        /* \"#utility.yul\":22924:22928   */\n      0x00\n        /* \"#utility.yul\":22962:22964   */\n      0x20\n        /* \"#utility.yul\":22951:22960   */\n      dup3\n        /* \"#utility.yul\":22947:22965   */\n      add\n        /* \"#utility.yul\":22939:22965   */\n      swap1\n      pop\n        /* \"#utility.yul\":23011:23020   */\n      dup2\n        /* \"#utility.yul\":23005:23009   */\n      dup2\n        /* \"#utility.yul\":23001:23021   */\n      sub\n        /* \"#utility.yul\":22997:22998   */\n      0x00\n        /* \"#utility.yul\":22986:22995   */\n      dup4\n        /* \"#utility.yul\":22982:22999   */\n      add\n        /* \"#utility.yul\":22975:23022   */\n      mstore\n        /* \"#utility.yul\":23039:23170   */\n      tag_753\n        /* \"#utility.yul\":23165:23169   */\n      dup2\n        /* \"#utility.yul\":23039:23170   */\n      tag_661\n      jump\t// in\n    tag_753:\n        /* \"#utility.yul\":23031:23170   */\n      swap1\n      pop\n        /* \"#utility.yul\":22758:23177   */\n      swap2\n      swap1\n      pop\n      jump\t// out\n        /* \"#utility.yul\":23183:23602   */\n    tag_72:\n        /* \"#utility.yul\":23349:23353   */\n      0x00\n        /* \"#utility.yul\":23387:23389   */\n      0x20\n        /* \"#utility.yul\":23376:23385   */\n      dup3\n        /* \"#utility.yul\":23372:23390   */\n      add\n        /* \"#utility.yul\":23364:23390   */\n      swap1\n      pop\n        /* \"#utility.yul\":23436:23445   */\n      dup2\n        /* \"#utility.yul\":23430:23434   */\n      dup2\n        /* \"#utility.yul\":23426:23446   */\n      sub\n        /* \"#utility.yul\":23422:23423   */\n      0x00\n        /* \"#utility.yul\":23411:23420   */\n      dup4\n        /* \"#utility.yul\":23407:23424   */\n      add\n        /* \"#utility.yul\":23400:23447   */\n      mstore\n        /* \"#utility.yul\":23464:23595   */\n      tag_755\n        /* \"#utility.yul\":23590:23594   */\n      dup2\n        /* \"#utility.yul\":23464:23595   */\n      tag_666\n      jump\t// in\n    tag_755:\n        /* \"#utility.yul\":23456:23595   */\n      swap1\n      pop\n        /* \"#utility.yul\":23183:23602   */\n      swap2\n      swap1\n      pop\n      jump\t// out\n        /* \"#utility.yul\":23608:24027   */\n    tag_317:\n        /* \"#utility.yul\":23774:23778   */\n      0x00\n        /* \"#utility.yul\":23812:23814   */\n      0x20\n        /* \"#utility.yul\":23801:23810   */\n      dup3\n        /* \"#utility.yul\":23797:23815   */\n      add\n        /* \"#utility.yul\":23789:23815   */\n      swap1\n      pop\n        /* \"#utility.yul\":23861:23870   */\n      dup2\n        /* \"#utility.yul\":23855:23859   */\n      dup2\n        /* \"#utility.yul\":23851:23871   */\n      sub\n        /* \"#utility.yul\":23847:23848   */\n      0x00\n        /* \"#utility.yul\":23836:23845   */\n      dup4\n        /* \"#utility.yul\":23832:23849   */\n      add\n        /* \"#utility.yul\":23825:23872   */\n      mstore\n        /* \"#utility.yul\":23889:24020   */\n      tag_757\n        /* \"#utility.yul\":24015:24019   */\n      dup2\n        /* \"#utility.yul\":23889:24020   */\n      tag_671\n      jump\t// in\n    tag_757:\n        /* \"#utility.yul\":23881:24020   */\n      swap1\n      pop\n        /* \"#utility.yul\":23608:24027   */\n      swap2\n      swap1\n      pop\n      jump\t// out\n        /* \"#utility.yul\":24033:24452   */\n    tag_227:\n        /* \"#utility.yul\":24199:24203   */\n      0x00\n        /* \"#utility.yul\":24237:24239   */\n      0x20\n        /* \"#utility.yul\":24226:24235   */\n      dup3\n        /* \"#utility.yul\":24222:24240   */\n      add\n        /* \"#utility.yul\":24214:24240   */\n      swap1\n      pop\n        /* \"#utility.yul\":24286:24295   */\n      dup2\n        /* \"#utility.yul\":24280:24284   */\n      dup2\n        /* \"#utility.yul\":24276:24296   */\n      sub\n        /* \"#utility.yul\":24272:24273   */\n      0x00\n        /* \"#utility.yul\":24261:24270   */\n      dup4\n        /* \"#utility.yul\":24257:24274   */\n      add\n        /* \"#utility.yul\":24250:24297   */\n      mstore\n        /* \"#utility.yul\":24314:24445   */\n      tag_759\n        /* \"#utility.yul\":24440:24444   */\n      dup2\n        /* \"#utility.yul\":24314:24445   */\n      tag_676\n      jump\t// in\n    tag_759:\n        /* \"#utility.yul\":24306:24445   */\n      swap1\n      pop\n        /* \"#utility.yul\":24033:24452   */\n      swap2\n      swap1\n      pop\n      jump\t// out\n        /* \"#utility.yul\":24458:24877   */\n    tag_161:\n        /* \"#utility.yul\":24624:24628   */\n      0x00\n        /* \"#utility.yul\":24662:24664   */\n      0x20\n        /* \"#utility.yul\":24651:24660   */\n      dup3\n        /* \"#utility.yul\":24647:24665   */\n      add\n        /* \"#utility.yul\":24639:24665   */\n      swap1\n      pop\n        /* \"#utility.yul\":24711:24720   */\n      dup2\n        /* \"#utility.yul\":24705:24709   */\n      dup2\n        /* \"#utility.yul\":24701:24721   */\n      sub\n        /* \"#utility.yul\":24697:24698   */\n      0x00\n        /* \"#utility.yul\":24686:24695   */\n      dup4\n        /* \"#utility.yul\":24682:24699   */\n      add\n        /* \"#utility.yul\":24675:24722   */\n      mstore\n        /* \"#utility.yul\":24739:24870   */\n      tag_761\n        /* \"#utility.yul\":24865:24869   */\n      dup2\n        /* \"#utility.yul\":24739:24870   */\n      tag_681\n      jump\t// in\n    tag_761:\n        /* \"#utility.yul\":24731:24870   */\n      swap1\n      pop\n        /* \"#utility.yul\":24458:24877   */\n      swap2\n      swap1\n      pop\n      jump\t// out\n        /* \"#utility.yul\":24883:25302   */\n    tag_140:\n        /* \"#utility.yul\":25049:25053   */\n      0x00\n        /* \"#utility.yul\":25087:25089   */\n      0x20\n        /* \"#utility.yul\":25076:25085   */\n      dup3\n        /* \"#utility.yul\":25072:25090   */\n      add\n        /* \"#utility.yul\":25064:25090   */\n      swap1\n      pop\n        /* \"#utility.yul\":25136:25145   */\n      dup2\n        /* \"#utility.yul\":25130:25134   */\n      dup2\n        /* \"#utility.yul\":25126:25146   */\n      sub\n        /* \"#utility.yul\":25122:25123   */\n      0x00\n        /* \"#utility.yul\":25111:25120   */\n      dup4\n        /* \"#utility.yul\":25107:25124   */\n      add\n        /* \"#utility.yul\":25100:25147   */\n      mstore\n        /* \"#utility.yul\":25164:25295   */\n      tag_763\n        /* \"#utility.yul\":25290:25294   */\n      dup2\n        /* \"#utility.yul\":25164:25295   */\n      tag_686\n      jump\t// in\n    tag_763:\n        /* \"#utility.yul\":25156:25295   */\n      swap1\n      pop\n        /* \"#utility.yul\":24883:25302   */\n      swap2\n      swap1\n      pop\n      jump\t// out\n        /* \"#utility.yul\":25308:25727   */\n    tag_94:\n        /* \"#utility.yul\":25474:25478   */\n      0x00\n        /* \"#utility.yul\":25512:25514   */\n      0x20\n        /* \"#utility.yul\":25501:25510   */\n      dup3\n        /* \"#utility.yul\":25497:25515   */\n      add\n        /* \"#utility.yul\":25489:25515   */\n      swap1\n      pop\n        /* \"#utility.yul\":25561:25570   */\n      dup2\n        /* \"#utility.yul\":25555:25559   */\n      dup2\n        /* \"#utility.yul\":25551:25571   */\n      sub\n        /* \"#utility.yul\":25547:25548   */\n      0x00\n        /* \"#utility.yul\":25536:25545   */\n      dup4\n        /* \"#utility.yul\":25532:25549   */\n      add\n        /* \"#utility.yul\":25525:25572   */\n      mstore\n        /* \"#utility.yul\":25589:25720   */\n      tag_765\n        /* \"#utility.yul\":25715:25719   */\n      dup2\n        /* \"#utility.yul\":25589:25720   */\n      tag_691\n      jump\t// in\n    tag_765:\n        /* \"#utility.yul\":25581:25720   */\n      swap1\n      pop\n        /* \"#utility.yul\":25308:25727   */\n      swap2\n      swap1\n      pop\n      jump\t// out\n        /* \"#utility.yul\":25733:26152   */\n    tag_261:\n        /* \"#utility.yul\":25899:25903   */\n      0x00\n        /* \"#utility.yul\":25937:25939   */\n      0x20\n        /* \"#utility.yul\":25926:25935   */\n      dup3\n        /* \"#utility.yul\":25922:25940   */\n      add\n        /* \"#utility.yul\":25914:25940   */\n      swap1\n      pop\n        /* \"#utility.yul\":25986:25995   */\n      dup2\n        /* \"#utility.yul\":25980:25984   */\n      dup2\n        /* \"#utility.yul\":25976:25996   */\n      sub\n        /* \"#utility.yul\":25972:25973   */\n      0x00\n        /* \"#utility.yul\":25961:25970   */\n      dup4\n        /* \"#utility.yul\":25957:25974   */\n      add\n        /* \"#utility.yul\":25950:25997   */\n      mstore\n        /* \"#utility.yul\":26014:26145   */\n      tag_767\n        /* \"#utility.yul\":26140:26144   */\n      dup2\n        /* \"#utility.yul\":26014:26145   */\n      tag_696\n      jump\t// in\n    tag_767:\n        /* \"#utility.yul\":26006:26145   */\n      swap1\n      pop\n        /* \"#utility.yul\":25733:26152   */\n      swap2\n      swap1\n      pop\n      jump\t// out\n        /* \"#utility.yul\":26158:26577   */\n    tag_148:\n        /* \"#utility.yul\":26324:26328   */\n      0x00\n        /* \"#utility.yul\":26362:26364   */\n      0x20\n        /* \"#utility.yul\":26351:26360   */\n      dup3\n        /* \"#utility.yul\":26347:26365   */\n      add\n        /* \"#utility.yul\":26339:26365   */\n      swap1\n      pop\n        /* \"#utility.yul\":26411:26420   */\n      dup2\n        /* \"#utility.yul\":26405:26409   */\n      dup2\n        /* \"#utility.yul\":26401:26421   */\n      sub\n        /* \"#utility.yul\":26397:26398   */\n      0x00\n        /* \"#utility.yul\":26386:26395   */\n      dup4\n        /* \"#utility.yul\":26382:26399   */\n      add\n        /* \"#utility.yul\":26375:26422   */\n      mstore\n        /* \"#utility.yul\":26439:26570   */\n      tag_769\n        /* \"#utility.yul\":26565:26569   */\n      dup2\n        /* \"#utility.yul\":26439:26570   */\n      tag_701\n      jump\t// in\n    tag_769:\n        /* \"#utility.yul\":26431:26570   */\n      swap1\n      pop\n        /* \"#utility.yul\":26158:26577   */\n      swap2\n      swap1\n      pop\n      jump\t// out\n        /* \"#utility.yul\":26583:27002   */\n    tag_130:\n        /* \"#utility.yul\":26749:26753   */\n      0x00\n        /* \"#utility.yul\":26787:26789   */\n      0x20\n        /* \"#utility.yul\":26776:26785   */\n      dup3\n        /* \"#utility.yul\":26772:26790   */\n      add\n        /* \"#utility.yul\":26764:26790   */\n      swap1\n      pop\n        /* \"#utility.yul\":26836:26845   */\n      dup2\n        /* \"#utility.yul\":26830:26834   */\n      dup2\n        /* \"#utility.yul\":26826:26846   */\n      sub\n        /* \"#utility.yul\":26822:26823   */\n      0x00\n        /* \"#utility.yul\":26811:26820   */\n      dup4\n        /* \"#utility.yul\":26807:26824   */\n      add\n        /* \"#utility.yul\":26800:26847   */\n      mstore\n        /* \"#utility.yul\":26864:26995   */\n      tag_771\n        /* \"#utility.yul\":26990:26994   */\n      dup2\n        /* \"#utility.yul\":26864:26995   */\n      tag_706\n      jump\t// in\n    tag_771:\n        /* \"#utility.yul\":26856:26995   */\n      swap1\n      pop\n        /* \"#utility.yul\":26583:27002   */\n      swap2\n      swap1\n      pop\n      jump\t// out\n        /* \"#utility.yul\":27008:27137   */\n    tag_501:\n        /* \"#utility.yul\":27042:27048   */\n      0x00\n        /* \"#utility.yul\":27069:27089   */\n      tag_773\n      tag_774\n      jump\t// in\n    tag_773:\n        /* \"#utility.yul\":27059:27089   */\n      swap1\n      pop\n        /* \"#utility.yul\":27098:27131   */\n      tag_775\n        /* \"#utility.yul\":27126:27130   */\n      dup3\n        /* \"#utility.yul\":27118:27124   */\n      dup3\n        /* \"#utility.yul\":27098:27131   */\n      tag_776\n      jump\t// in\n    tag_775:\n        /* \"#utility.yul\":27008:27137   */\n      swap2\n      swap1\n      pop\n      jump\t// out\n        /* \"#utility.yul\":27143:27218   */\n    tag_774:\n        /* \"#utility.yul\":27176:27182   */\n      0x00\n        /* \"#utility.yul\":27209:27211   */\n      0x40\n        /* \"#utility.yul\":27203:27212   */\n      mload\n        /* \"#utility.yul\":27193:27212   */\n      swap1\n      pop\n        /* \"#utility.yul\":27143:27218   */\n      swap1\n      jump\t// out\n        /* \"#utility.yul\":27224:27535   */\n    tag_500:\n        /* \"#utility.yul\":27301:27305   */\n      0x00\n        /* \"#utility.yul\":27391:27409   */\n      0xffffffffffffffff\n        /* \"#utility.yul\":27383:27389   */\n      dup3\n        /* \"#utility.yul\":27380:27410   */\n      gt\n        /* \"#utility.yul\":27377:27433   */\n      iszero\n      tag_779\n      jumpi\n        /* \"#utility.yul\":27413:27431   */\n      tag_780\n      tag_376\n      jump\t// in\n    tag_780:\n        /* \"#utility.yul\":27377:27433   */\n    tag_779:\n        /* \"#utility.yul\":27463:27467   */\n      0x20\n        /* \"#utility.yul\":27455:27461   */\n      dup3\n        /* \"#utility.yul\":27451:27468   */\n      mul\n        /* \"#utility.yul\":27443:27468   */\n      swap1\n      pop\n        /* \"#utility.yul\":27523:27527   */\n      0x20\n        /* \"#utility.yul\":27517:27521   */\n      dup2\n        /* \"#utility.yul\":27513:27528   */\n      add\n        /* \"#utility.yul\":27505:27528   */\n      swap1\n      pop\n        /* \"#utility.yul\":27224:27535   */\n      swap2\n      swap1\n      pop\n      jump\t// out\n        /* \"#utility.yul\":27541:27849   */\n    tag_514:\n        /* \"#utility.yul\":27603:27607   */\n      0x00\n        /* \"#utility.yul\":27693:27711   */\n      0xffffffffffffffff\n        /* \"#utility.yul\":27685:27691   */\n      dup3\n        /* \"#utility.yul\":27682:27712   */\n      gt\n        /* \"#utility.yul\":27679:27735   */\n      iszero\n      tag_782\n      jumpi\n        /* \"#utility.yul\":27715:27733   */\n      tag_783\n      tag_376\n      jump\t// in\n    tag_783:\n        /* \"#utility.yul\":27679:27735   */\n    tag_782:\n        /* \"#utility.yul\":27753:27782   */\n      tag_784\n        /* \"#utility.yul\":27775:27781   */\n      dup3\n        /* \"#utility.yul\":27753:27782   */\n      tag_572\n      jump\t// in\n    tag_784:\n        /* \"#utility.yul\":27745:27782   */\n      swap1\n      pop\n        /* \"#utility.yul\":27837:27841   */\n      0x20\n        /* \"#utility.yul\":27831:27835   */\n      dup2\n        /* \"#utility.yul\":27827:27842   */\n      add\n        /* \"#utility.yul\":27819:27842   */\n      swap1\n      pop\n        /* \"#utility.yul\":27541:27849   */\n      swap2\n      swap1\n      pop\n      jump\t// out\n        /* \"#utility.yul\":27855:27996   */\n    tag_587:\n        /* \"#utility.yul\":27904:27908   */\n      0x00\n        /* \"#utility.yul\":27927:27930   */\n      dup2\n        /* \"#utility.yul\":27919:27930   */\n      swap1\n      pop\n        /* \"#utility.yul\":27950:27953   */\n      dup2\n        /* \"#utility.yul\":27947:27948   */\n      0x00\n        /* \"#utility.yul\":27940:27954   */\n      mstore\n        /* \"#utility.yul\":27984:27988   */\n      0x20\n        /* \"#utility.yul\":27981:27982   */\n      0x00\n        /* \"#utility.yul\":27971:27989   */\n      keccak256\n        /* \"#utility.yul\":27963:27989   */\n      swap1\n      pop\n        /* \"#utility.yul\":27855:27996   */\n      swap2\n      swap1\n      pop\n      jump\t// out\n        /* \"#utility.yul\":28002:28101   */\n    tag_566:\n        /* \"#utility.yul\":28054:28060   */\n      0x00\n        /* \"#utility.yul\":28088:28093   */\n      dup2\n        /* \"#utility.yul\":28082:28094   */\n      mload\n        /* \"#utility.yul\":28072:28094   */\n      swap1\n      pop\n        /* \"#utility.yul\":28002:28101   */\n      swap2\n      swap1\n      pop\n      jump\t// out\n        /* \"#utility.yul\":28107:28276   */\n    tag_568:\n        /* \"#utility.yul\":28191:28202   */\n      0x00\n        /* \"#utility.yul\":28225:28231   */\n      dup3\n        /* \"#utility.yul\":28220:28223   */\n      dup3\n        /* \"#utility.yul\":28213:28232   */\n      mstore\n        /* \"#utility.yul\":28265:28269   */\n      0x20\n        /* \"#utility.yul\":28260:28263   */\n      dup3\n        /* \"#utility.yul\":28256:28270   */\n      add\n        /* \"#utility.yul\":28241:28270   */\n      swap1\n      pop\n        /* \"#utility.yul\":28107:28276   */\n      swap3\n      swap2\n      pop\n      pop\n      jump\t// out\n        /* \"#utility.yul\":28282:28430   */\n    tag_577:\n        /* \"#utility.yul\":28384:28395   */\n      0x00\n        /* \"#utility.yul\":28421:28424   */\n      dup2\n        /* \"#utility.yul\":28406:28424   */\n      swap1\n      pop\n        /* \"#utility.yul\":28282:28430   */\n      swap3\n      swap2\n      pop\n      pop\n      jump\t// out\n        /* \"#utility.yul\":28436:28741   */\n    tag_303:\n        /* \"#utility.yul\":28476:28479   */\n      0x00\n        /* \"#utility.yul\":28495:28515   */\n      tag_790\n        /* \"#utility.yul\":28513:28514   */\n      dup3\n        /* \"#utility.yul\":28495:28515   */\n      tag_791\n      jump\t// in\n    tag_790:\n        /* \"#utility.yul\":28490:28515   */\n      swap2\n      pop\n        /* \"#utility.yul\":28529:28549   */\n      tag_792\n        /* \"#utility.yul\":28547:28548   */\n      dup4\n        /* \"#utility.yul\":28529:28549   */\n      tag_791\n      jump\t// in\n    tag_792:\n        /* \"#utility.yul\":28524:28549   */\n      swap3\n      pop\n        /* \"#utility.yul\":28683:28684   */\n      dup3\n        /* \"#utility.yul\":28615:28681   */\n      0xffffffffffffffffffffffffffffffffffffffffffffffffffffffffffffffff\n        /* \"#utility.yul\":28611:28685   */\n      sub\n        /* \"#utility.yul\":28608:28609   */\n      dup3\n        /* \"#utility.yul\":28605:28686   */\n      gt\n        /* \"#utility.yul\":28602:28709   */\n      iszero\n      tag_793\n      jumpi\n        /* \"#utility.yul\":28689:28707   */\n      tag_794\n      tag_795\n      jump\t// in\n    tag_794:\n        /* \"#utility.yul\":28602:28709   */\n    tag_793:\n        /* \"#utility.yul\":28733:28734   */\n      dup3\n        /* \"#utility.yul\":28730:28731   */\n      dup3\n        /* \"#utility.yul\":28726:28735   */\n      add\n        /* \"#utility.yul\":28719:28735   */\n      swap1\n      pop\n        /* \"#utility.yul\":28436:28741   */\n      swap3\n      swap2\n      pop\n      pop\n      jump\t// out\n        /* \"#utility.yul\":28747:28984   */\n    tag_387:\n        /* \"#utility.yul\":28785:28788   */\n      0x00\n        /* \"#utility.yul\":28804:28822   */\n      tag_797\n        /* \"#utility.yul\":28820:28821   */\n      dup3\n        /* \"#utility.yul\":28804:28822   */\n      tag_798\n      jump\t// in\n    tag_797:\n        /* \"#utility.yul\":28799:28822   */\n      swap2\n      pop\n        /* \"#utility.yul\":28836:28854   */\n      tag_799\n        /* \"#utility.yul\":28852:28853   */\n      dup4\n        /* \"#utility.yul\":28836:28854   */\n      tag_798\n      jump\t// in\n    tag_799:\n        /* \"#utility.yul\":28831:28854   */\n      swap3\n      pop\n        /* \"#utility.yul\":28926:28927   */\n      dup3\n        /* \"#utility.yul\":28920:28924   */\n      0xff\n        /* \"#utility.yul\":28916:28928   */\n      sub\n        /* \"#utility.yul\":28913:28914   */\n      dup3\n        /* \"#utility.yul\":28910:28929   */\n      gt\n        /* \"#utility.yul\":28907:28952   */\n      iszero\n      tag_800\n      jumpi\n        /* \"#utility.yul\":28932:28950   */\n      tag_801\n      tag_795\n      jump\t// in\n    tag_801:\n        /* \"#utility.yul\":28907:28952   */\n    tag_800:\n        /* \"#utility.yul\":28976:28977   */\n      dup3\n        /* \"#utility.yul\":28973:28974   */\n      dup3\n        /* \"#utility.yul\":28969:28978   */\n      add\n        /* \"#utility.yul\":28962:28978   */\n      swap1\n      pop\n        /* \"#utility.yul\":28747:28984   */\n      swap3\n      swap2\n      pop\n      pop\n      jump\t// out\n        /* \"#utility.yul\":28990:29175   */\n    tag_373:\n        /* \"#utility.yul\":29030:29031   */\n      0x00\n        /* \"#utility.yul\":29047:29067   */\n      tag_803\n        /* \"#utility.yul\":29065:29066   */\n      dup3\n        /* \"#utility.yul\":29047:29067   */\n      tag_791\n      jump\t// in\n    tag_803:\n        /* \"#utility.yul\":29042:29067   */\n      swap2\n      pop\n        /* \"#utility.yul\":29081:29101   */\n      tag_804\n        /* \"#utility.yul\":29099:29100   */\n      dup4\n        /* \"#utility.yul\":29081:29101   */\n      tag_791\n      jump\t// in\n    tag_804:\n        /* \"#utility.yul\":29076:29101   */\n      swap3\n      pop\n        /* \"#utility.yul\":29120:29121   */\n      dup3\n        /* \"#utility.yul\":29110:29145   */\n      tag_805\n      jumpi\n        /* \"#utility.yul\":29125:29143   */\n      tag_806\n      tag_807\n      jump\t// in\n    tag_806:\n        /* \"#utility.yul\":29110:29145   */\n    tag_805:\n        /* \"#utility.yul\":29167:29168   */\n      dup3\n        /* \"#utility.yul\":29164:29165   */\n      dup3\n        /* \"#utility.yul\":29160:29169   */\n      div\n        /* \"#utility.yul\":29155:29169   */\n      swap1\n      pop\n        /* \"#utility.yul\":28990:29175   */\n      swap3\n      swap2\n      pop\n      pop\n      jump\t// out\n        /* \"#utility.yul\":29181:29529   */\n    tag_384:\n        /* \"#utility.yul\":29221:29228   */\n      0x00\n        /* \"#utility.yul\":29244:29264   */\n      tag_809\n        /* \"#utility.yul\":29262:29263   */\n      dup3\n        /* \"#utility.yul\":29244:29264   */\n      tag_791\n      jump\t// in\n    tag_809:\n        /* \"#utility.yul\":29239:29264   */\n      swap2\n      pop\n        /* \"#utility.yul\":29278:29298   */\n      tag_810\n        /* \"#utility.yul\":29296:29297   */\n      dup4\n        /* \"#utility.yul\":29278:29298   */\n      tag_791\n      jump\t// in\n    tag_810:\n        /* \"#utility.yul\":29273:29298   */\n      swap3\n      pop\n        /* \"#utility.yul\":29466:29467   */\n      dup2\n        /* \"#utility.yul\":29398:29464   */\n      0xffffffffffffffffffffffffffffffffffffffffffffffffffffffffffffffff\n        /* \"#utility.yul\":29394:29468   */\n      div\n        /* \"#utility.yul\":29391:29392   */\n      dup4\n        /* \"#utility.yul\":29388:29469   */\n      gt\n        /* \"#utility.yul\":29383:29384   */\n      dup3\n        /* \"#utility.yul\":29376:29385   */\n      iszero\n        /* \"#utility.yul\":29369:29386   */\n      iszero\n        /* \"#utility.yul\":29365:29470   */\n      and\n        /* \"#utility.yul\":29362:29493   */\n      iszero\n      tag_811\n      jumpi\n        /* \"#utility.yul\":29473:29491   */\n      tag_812\n      tag_795\n      jump\t// in\n    tag_812:\n        /* \"#utility.yul\":29362:29493   */\n    tag_811:\n        /* \"#utility.yul\":29521:29522   */\n      dup3\n        /* \"#utility.yul\":29518:29519   */\n      dup3\n        /* \"#utility.yul\":29514:29523   */\n      mul\n        /* \"#utility.yul\":29503:29523   */\n      swap1\n      pop\n        /* \"#utility.yul\":29181:29529   */\n      swap3\n      swap2\n      pop\n      pop\n      jump\t// out\n        /* \"#utility.yul\":29535:29726   */\n    tag_381:\n        /* \"#utility.yul\":29575:29579   */\n      0x00\n        /* \"#utility.yul\":29595:29615   */\n      tag_814\n        /* \"#utility.yul\":29613:29614   */\n      dup3\n        /* \"#utility.yul\":29595:29615   */\n      tag_791\n      jump\t// in\n    tag_814:\n        /* \"#utility.yul\":29590:29615   */\n      swap2\n      pop\n        /* \"#utility.yul\":29629:29649   */\n      tag_815\n        /* \"#utility.yul\":29647:29648   */\n      dup4\n        /* \"#utility.yul\":29629:29649   */\n      tag_791\n      jump\t// in\n    tag_815:\n        /* \"#utility.yul\":29624:29649   */\n      swap3\n      pop\n        /* \"#utility.yul\":29668:29669   */\n      dup3\n        /* \"#utility.yul\":29665:29666   */\n      dup3\n        /* \"#utility.yul\":29662:29670   */\n      lt\n        /* \"#utility.yul\":29659:29693   */\n      iszero\n      tag_816\n      jumpi\n        /* \"#utility.yul\":29673:29691   */\n      tag_817\n      tag_795\n      jump\t// in\n    tag_817:\n        /* \"#utility.yul\":29659:29693   */\n    tag_816:\n        /* \"#utility.yul\":29718:29719   */\n      dup3\n        /* \"#utility.yul\":29715:29716   */\n      dup3\n        /* \"#utility.yul\":29711:29720   */\n      sub\n        /* \"#utility.yul\":29703:29720   */\n      swap1\n      pop\n        /* \"#utility.yul\":29535:29726   */\n      swap3\n      swap2\n      pop\n      pop\n      jump\t// out\n        /* \"#utility.yul\":29732:29828   */\n    tag_562:\n        /* \"#utility.yul\":29769:29776   */\n      0x00\n        /* \"#utility.yul\":29798:29822   */\n      tag_819\n        /* \"#utility.yul\":29816:29821   */\n      dup3\n        /* \"#utility.yul\":29798:29822   */\n      tag_820\n      jump\t// in\n    tag_819:\n        /* \"#utility.yul\":29787:29822   */\n      swap1\n      pop\n        /* \"#utility.yul\":29732:29828   */\n      swap2\n      swap1\n      pop\n      jump\t// out\n        /* \"#utility.yul\":29834:29960   */\n    tag_820:\n        /* \"#utility.yul\":29871:29878   */\n      0x00\n        /* \"#utility.yul\":29911:29953   */\n      0xffffffffffffffffffffffffffffffffffffffff\n        /* \"#utility.yul\":29904:29909   */\n      dup3\n        /* \"#utility.yul\":29900:29954   */\n      and\n        /* \"#utility.yul\":29889:29954   */\n      swap1\n      pop\n        /* \"#utility.yul\":29834:29960   */\n      swap2\n      swap1\n      pop\n      jump\t// out\n        /* \"#utility.yul\":29966:30043   */\n    tag_791:\n        /* \"#utility.yul\":30003:30010   */\n      0x00\n        /* \"#utility.yul\":30032:30037   */\n      dup2\n        /* \"#utility.yul\":30021:30037   */\n      swap1\n      pop\n        /* \"#utility.yul\":29966:30043   */\n      swap2\n      swap1\n      pop\n      jump\t// out\n        /* \"#utility.yul\":30049:30135   */\n    tag_798:\n        /* \"#utility.yul\":30084:30091   */\n      0x00\n        /* \"#utility.yul\":30124:30128   */\n      0xff\n        /* \"#utility.yul\":30117:30122   */\n      dup3\n        /* \"#utility.yul\":30113:30129   */\n      and\n        /* \"#utility.yul\":30102:30129   */\n      swap1\n      pop\n        /* \"#utility.yul\":30049:30135   */\n      swap2\n      swap1\n      pop\n      jump\t// out\n        /* \"#utility.yul\":30141:30295   */\n    tag_519:\n        /* \"#utility.yul\":30225:30231   */\n      dup3\n        /* \"#utility.yul\":30220:30223   */\n      dup2\n        /* \"#utility.yul\":30215:30218   */\n      dup4\n        /* \"#utility.yul\":30202:30232   */\n      calldatacopy\n        /* \"#utility.yul\":30287:30288   */\n      0x00\n        /* \"#utility.yul\":30278:30284   */\n      dup4\n        /* \"#utility.yul\":30273:30276   */\n      dup4\n        /* \"#utility.yul\":30269:30285   */\n      add\n        /* \"#utility.yul\":30262:30289   */\n      mstore\n        /* \"#utility.yul\":30141:30295   */\n      pop\n      pop\n      pop\n      jump\t// out\n        /* \"#utility.yul\":30301:30608   */\n    tag_570:\n        /* \"#utility.yul\":30369:30370   */\n      0x00\n        /* \"#utility.yul\":30379:30492   */\n    tag_826:\n        /* \"#utility.yul\":30393:30399   */\n      dup4\n        /* \"#utility.yul\":30390:30391   */\n      dup2\n        /* \"#utility.yul\":30387:30400   */\n      lt\n        /* \"#utility.yul\":30379:30492   */\n      iszero\n      tag_828\n      jumpi\n        /* \"#utility.yul\":30478:30479   */\n      dup1\n        /* \"#utility.yul\":30473:30476   */\n      dup3\n        /* \"#utility.yul\":30469:30480   */\n      add\n        /* \"#utility.yul\":30463:30481   */\n      mload\n        /* \"#utility.yul\":30459:30460   */\n      dup2\n        /* \"#utility.yul\":30454:30457   */\n      dup5\n        /* \"#utility.yul\":30450:30461   */\n      add\n        /* \"#utility.yul\":30443:30482   */\n      mstore\n        /* \"#utility.yul\":30415:30417   */\n      0x20\n        /* \"#utility.yul\":30412:30413   */\n      dup2\n        /* \"#utility.yul\":30408:30418   */\n      add\n        /* \"#utility.yul\":30403:30418   */\n      swap1\n      pop\n        /* \"#utility.yul\":30379:30492   */\n      jump(tag_826)\n    tag_828:\n        /* \"#utility.yul\":30510:30516   */\n      dup4\n        /* \"#utility.yul\":30507:30508   */\n      dup2\n        /* \"#utility.yul\":30504:30517   */\n      gt\n        /* \"#utility.yul\":30501:30602   */\n      iszero\n      tag_829\n      jumpi\n        /* \"#utility.yul\":30590:30591   */\n      0x00\n        /* \"#utility.yul\":30581:30587   */\n      dup5\n        /* \"#utility.yul\":30576:30579   */\n      dup5\n        /* \"#utility.yul\":30572:30588   */\n      add\n        /* \"#utility.yul\":30565:30592   */\n      mstore\n        /* \"#utility.yul\":30501:30602   */\n    tag_829:\n        /* \"#utility.yul\":30350:30608   */\n      pop\n        /* \"#utility.yul\":30301:30608   */\n      pop\n      pop\n      pop\n      jump\t// out\n        /* \"#utility.yul\":30614:30934   */\n    tag_121:\n        /* \"#utility.yul\":30658:30664   */\n      0x00\n        /* \"#utility.yul\":30695:30696   */\n      0x02\n        /* \"#utility.yul\":30689:30693   */\n      dup3\n        /* \"#utility.yul\":30685:30697   */\n      div\n        /* \"#utility.yul\":30675:30697   */\n      swap1\n      pop\n        /* \"#utility.yul\":30742:30743   */\n      0x01\n        /* \"#utility.yul\":30736:30740   */\n      dup3\n        /* \"#utility.yul\":30732:30744   */\n      and\n        /* \"#utility.yul\":30763:30781   */\n      dup1\n        /* \"#utility.yul\":30753:30834   */\n      tag_831\n      jumpi\n        /* \"#utility.yul\":30819:30823   */\n      0x7f\n        /* \"#utility.yul\":30811:30817   */\n      dup3\n        /* \"#utility.yul\":30807:30824   */\n      and\n        /* \"#utility.yul\":30797:30824   */\n      swap2\n      pop\n        /* \"#utility.yul\":30753:30834   */\n    tag_831:\n        /* \"#utility.yul\":30881:30883   */\n      0x20\n        /* \"#utility.yul\":30873:30879   */\n      dup3\n        /* \"#utility.yul\":30870:30884   */\n      lt\n        /* \"#utility.yul\":30850:30868   */\n      dup2\n        /* \"#utility.yul\":30847:30885   */\n      eq\n        /* \"#utility.yul\":30844:30928   */\n      iszero\n      tag_832\n      jumpi\n        /* \"#utility.yul\":30900:30918   */\n      tag_833\n      tag_834\n      jump\t// in\n    tag_833:\n        /* \"#utility.yul\":30844:30928   */\n    tag_832:\n        /* \"#utility.yul\":30665:30934   */\n      pop\n        /* \"#utility.yul\":30614:30934   */\n      swap2\n      swap1\n      pop\n      jump\t// out\n        /* \"#utility.yul\":30940:31221   */\n    tag_776:\n        /* \"#utility.yul\":31023:31050   */\n      tag_836\n        /* \"#utility.yul\":31045:31049   */\n      dup3\n        /* \"#utility.yul\":31023:31050   */\n      tag_572\n      jump\t// in\n    tag_836:\n        /* \"#utility.yul\":31015:31021   */\n      dup2\n        /* \"#utility.yul\":31011:31051   */\n      add\n        /* \"#utility.yul\":31153:31159   */\n      dup2\n        /* \"#utility.yul\":31141:31151   */\n      dup2\n        /* \"#utility.yul\":31138:31160   */\n      lt\n        /* \"#utility.yul\":31117:31135   */\n      0xffffffffffffffff\n        /* \"#utility.yul\":31105:31115   */\n      dup3\n        /* \"#utility.yul\":31102:31136   */\n      gt\n        /* \"#utility.yul\":31099:31161   */\n      or\n        /* \"#utility.yul\":31096:31184   */\n      iszero\n      tag_837\n      jumpi\n        /* \"#utility.yul\":31164:31182   */\n      tag_838\n      tag_376\n      jump\t// in\n    tag_838:\n        /* \"#utility.yul\":31096:31184   */\n    tag_837:\n        /* \"#utility.yul\":31204:31214   */\n      dup1\n        /* \"#utility.yul\":31200:31202   */\n      0x40\n        /* \"#utility.yul\":31193:31215   */\n      mstore\n        /* \"#utility.yul\":30983:31221   */\n      pop\n        /* \"#utility.yul\":30940:31221   */\n      pop\n      pop\n      jump\t// out\n        /* \"#utility.yul\":31227:31460   */\n    tag_219:\n        /* \"#utility.yul\":31266:31269   */\n      0x00\n        /* \"#utility.yul\":31289:31313   */\n      tag_840\n        /* \"#utility.yul\":31307:31312   */\n      dup3\n        /* \"#utility.yul\":31289:31313   */\n      tag_791\n      jump\t// in\n    tag_840:\n        /* \"#utility.yul\":31280:31313   */\n      swap2\n      pop\n        /* \"#utility.yul\":31335:31401   */\n      0xffffffffffffffffffffffffffffffffffffffffffffffffffffffffffffffff\n        /* \"#utility.yul\":31328:31333   */\n      dup3\n        /* \"#utility.yul\":31325:31402   */\n      eq\n        /* \"#utility.yul\":31322:31425   */\n      iszero\n      tag_841\n      jumpi\n        /* \"#utility.yul\":31405:31423   */\n      tag_842\n      tag_795\n      jump\t// in\n    tag_842:\n        /* \"#utility.yul\":31322:31425   */\n    tag_841:\n        /* \"#utility.yul\":31452:31453   */\n      0x01\n        /* \"#utility.yul\":31445:31450   */\n      dup3\n        /* \"#utility.yul\":31441:31454   */\n      add\n        /* \"#utility.yul\":31434:31454   */\n      swap1\n      pop\n        /* \"#utility.yul\":31227:31460   */\n      swap2\n      swap1\n      pop\n      jump\t// out\n        /* \"#utility.yul\":31466:31646   */\n    tag_795:\n        /* \"#utility.yul\":31514:31591   */\n      0x4e487b7100000000000000000000000000000000000000000000000000000000\n        /* \"#utility.yul\":31511:31512   */\n      0x00\n        /* \"#utility.yul\":31504:31592   */\n      mstore\n        /* \"#utility.yul\":31611:31615   */\n      0x11\n        /* \"#utility.yul\":31608:31609   */\n      0x04\n        /* \"#utility.yul\":31601:31616   */\n      mstore\n        /* \"#utility.yul\":31635:31639   */\n      0x24\n        /* \"#utility.yul\":31632:31633   */\n      0x00\n        /* \"#utility.yul\":31625:31640   */\n      revert\n        /* \"#utility.yul\":31652:31832   */\n    tag_807:\n        /* \"#utility.yul\":31700:31777   */\n      0x4e487b7100000000000000000000000000000000000000000000000000000000\n        /* \"#utility.yul\":31697:31698   */\n      0x00\n        /* \"#utility.yul\":31690:31778   */\n      mstore\n        /* \"#utility.yul\":31797:31801   */\n      0x12\n        /* \"#utility.yul\":31794:31795   */\n      0x04\n        /* \"#utility.yul\":31787:31802   */\n      mstore\n        /* \"#utility.yul\":31821:31825   */\n      0x24\n        /* \"#utility.yul\":31818:31819   */\n      0x00\n        /* \"#utility.yul\":31811:31826   */\n      revert\n        /* \"#utility.yul\":31838:32018   */\n    tag_79:\n        /* \"#utility.yul\":31886:31963   */\n      0x4e487b7100000000000000000000000000000000000000000000000000000000\n        /* \"#utility.yul\":31883:31884   */\n      0x00\n        /* \"#utility.yul\":31876:31964   */\n      mstore\n        /* \"#utility.yul\":31983:31987   */\n      0x21\n        /* \"#utility.yul\":31980:31981   */\n      0x04\n        /* \"#utility.yul\":31973:31988   */\n      mstore\n        /* \"#utility.yul\":32007:32011   */\n      0x24\n        /* \"#utility.yul\":32004:32005   */\n      0x00\n        /* \"#utility.yul\":31997:32012   */\n      revert\n        /* \"#utility.yul\":32024:32204   */\n    tag_834:\n        /* \"#utility.yul\":32072:32149   */\n      0x4e487b7100000000000000000000000000000000000000000000000000000000\n        /* \"#utility.yul\":32069:32070   */\n      0x00\n        /* \"#utility.yul\":32062:32150   */\n      mstore\n        /* \"#utility.yul\":32169:32173   */\n      0x22\n        /* \"#utility.yul\":32166:32167   */\n      0x04\n        /* \"#utility.yul\":32159:32174   */\n      mstore\n        /* \"#utility.yul\":32193:32197   */\n      0x24\n        /* \"#utility.yul\":32190:32191   */\n      0x00\n        /* \"#utility.yul\":32183:32198   */\n      revert\n        /* \"#utility.yul\":32210:32390   */\n    tag_101:\n        /* \"#utility.yul\":32258:32335   */\n      0x4e487b7100000000000000000000000000000000000000000000000000000000\n        /* \"#utility.yul\":32255:32256   */\n      0x00\n        /* \"#utility.yul\":32248:32336   */\n      mstore\n        /* \"#utility.yul\":32355:32359   */\n      0x32\n        /* \"#utility.yul\":32352:32353   */\n      0x04\n        /* \"#utility.yul\":32345:32360   */\n      mstore\n        /* \"#utility.yul\":32379:32383   */\n      0x24\n        /* \"#utility.yul\":32376:32377   */\n      0x00\n        /* \"#utility.yul\":32369:32384   */\n      revert\n        /* \"#utility.yul\":32396:32576   */\n    tag_376:\n        /* \"#utility.yul\":32444:32521   */\n      0x4e487b7100000000000000000000000000000000000000000000000000000000\n        /* \"#utility.yul\":32441:32442   */\n      0x00\n        /* \"#utility.yul\":32434:32522   */\n      mstore\n        /* \"#utility.yul\":32541:32545   */\n      0x41\n        /* \"#utility.yul\":32538:32539   */\n      0x04\n        /* \"#utility.yul\":32531:32546   */\n      mstore\n        /* \"#utility.yul\":32565:32569   */\n      0x24\n        /* \"#utility.yul\":32562:32563   */\n      0x00\n        /* \"#utility.yul\":32555:32570   */\n      revert\n        /* \"#utility.yul\":32582:32699   */\n    tag_524:\n        /* \"#utility.yul\":32691:32692   */\n      0x00\n        /* \"#utility.yul\":32688:32689   */\n      dup1\n        /* \"#utility.yul\":32681:32693   */\n      revert\n        /* \"#utility.yul\":32705:32822   */\n    tag_504:\n        /* \"#utility.yul\":32814:32815   */\n      0x00\n        /* \"#utility.yul\":32811:32812   */\n      dup1\n        /* \"#utility.yul\":32804:32816   */\n      revert\n        /* \"#utility.yul\":32828:32945   */\n    tag_517:\n        /* \"#utility.yul\":32937:32938   */\n      0x00\n        /* \"#utility.yul\":32934:32935   */\n      dup1\n        /* \"#utility.yul\":32927:32939   */\n      revert\n        /* \"#utility.yul\":32951:33068   */\n    tag_540:\n        /* \"#utility.yul\":33060:33061   */\n      0x00\n        /* \"#utility.yul\":33057:33058   */\n      dup1\n        /* \"#utility.yul\":33050:33062   */\n      revert\n        /* \"#utility.yul\":33074:33191   */\n    tag_537:\n        /* \"#utility.yul\":33183:33184   */\n      0x00\n        /* \"#utility.yul\":33180:33181   */\n      dup1\n        /* \"#utility.yul\":33173:33185   */\n      revert\n        /* \"#utility.yul\":33197:33299   */\n    tag_572:\n        /* \"#utility.yul\":33238:33244   */\n      0x00\n        /* \"#utility.yul\":33289:33291   */\n      0x1f\n        /* \"#utility.yul\":33285:33292   */\n      not\n        /* \"#utility.yul\":33280:33282   */\n      0x1f\n        /* \"#utility.yul\":33273:33278   */\n      dup4\n        /* \"#utility.yul\":33269:33283   */\n      add\n        /* \"#utility.yul\":33265:33293   */\n      and\n        /* \"#utility.yul\":33255:33293   */\n      swap1\n      pop\n        /* \"#utility.yul\":33197:33299   */\n      swap2\n      swap1\n      pop\n      jump\t// out\n        /* \"#utility.yul\":33305:33535   */\n    tag_595:\n        /* \"#utility.yul\":33445:33479   */\n      0x43616e277420736574206361707461696e7320666f72207468652066616e7461\n        /* \"#utility.yul\":33441:33442   */\n      0x00\n        /* \"#utility.yul\":33433:33439   */\n      dup3\n        /* \"#utility.yul\":33429:33443   */\n      add\n        /* \"#utility.yul\":33422:33480   */\n      mstore\n        /* \"#utility.yul\":33514:33527   */\n      0x7379207465616d206e6f77000000000000000000000000000000000000000000\n        /* \"#utility.yul\":33509:33511   */\n      0x20\n        /* \"#utility.yul\":33501:33507   */\n      dup3\n        /* \"#utility.yul\":33497:33512   */\n      add\n        /* \"#utility.yul\":33490:33528   */\n      mstore\n        /* \"#utility.yul\":33305:33535   */\n      pop\n      jump\t// out\n        /* \"#utility.yul\":33541:33761   */\n    tag_600:\n        /* \"#utility.yul\":33681:33715   */\n      0x5465616d20646f6573206e6f742065786973747320666f722074686520757365\n        /* \"#utility.yul\":33677:33678   */\n      0x00\n        /* \"#utility.yul\":33669:33675   */\n      dup3\n        /* \"#utility.yul\":33665:33679   */\n      add\n        /* \"#utility.yul\":33658:33716   */\n      mstore\n        /* \"#utility.yul\":33750:33753   */\n      0x7200000000000000000000000000000000000000000000000000000000000000\n        /* \"#utility.yul\":33745:33747   */\n      0x20\n        /* \"#utility.yul\":33737:33743   */\n      dup3\n        /* \"#utility.yul\":33733:33748   */\n      add\n        /* \"#utility.yul\":33726:33754   */\n      mstore\n        /* \"#utility.yul\":33541:33761   */\n      pop\n      jump\t// out\n        /* \"#utility.yul\":33767:33949   */\n    tag_605:\n        /* \"#utility.yul\":33907:33941   */\n      0x5465616d20616c72656164792065786973747320666f72207468652075736572\n        /* \"#utility.yul\":33903:33904   */\n      0x00\n        /* \"#utility.yul\":33895:33901   */\n      dup3\n        /* \"#utility.yul\":33891:33905   */\n      add\n        /* \"#utility.yul\":33884:33942   */\n      mstore\n        /* \"#utility.yul\":33767:33949   */\n      pop\n      jump\t// out\n        /* \"#utility.yul\":33955:34169   */\n    tag_610:\n        /* \"#utility.yul\":34095:34161   */\n      0x0a00000000000000000000000000000000000000000000000000000000000000\n        /* \"#utility.yul\":34091:34092   */\n      0x00\n        /* \"#utility.yul\":34083:34089   */\n      dup3\n        /* \"#utility.yul\":34079:34093   */\n      add\n        /* \"#utility.yul\":34072:34162   */\n      mstore\n        /* \"#utility.yul\":33955:34169   */\n      pop\n      jump\t// out\n        /* \"#utility.yul\":34175:34345   */\n    tag_615:\n        /* \"#utility.yul\":34315:34337   */\n      0x47616d6520686173206e6f742073746f70706564000000000000000000000000\n        /* \"#utility.yul\":34311:34312   */\n      0x00\n        /* \"#utility.yul\":34303:34309   */\n      dup3\n        /* \"#utility.yul\":34299:34313   */\n      add\n        /* \"#utility.yul\":34292:34338   */\n      mstore\n        /* \"#utility.yul\":34175:34345   */\n      pop\n      jump\t// out\n        /* \"#utility.yul\":34351:34516   */\n    tag_620:\n        /* \"#utility.yul\":34491:34508   */\n      0x3b20506c61796572204e616d653a200000000000000000000000000000000000\n        /* \"#utility.yul\":34487:34488   */\n      0x00\n        /* \"#utility.yul\":34479:34485   */\n      dup3\n        /* \"#utility.yul\":34475:34489   */\n      add\n        /* \"#utility.yul\":34468:34509   */\n      mstore\n        /* \"#utility.yul\":34351:34516   */\n      pop\n      jump\t// out\n        /* \"#utility.yul\":34522:34770   */\n    tag_625:\n        /* \"#utility.yul\":34662:34696   */\n      0x4120706c617965722063616e206e6f74206265204361707461696e20616e6420\n        /* \"#utility.yul\":34658:34659   */\n      0x00\n        /* \"#utility.yul\":34650:34656   */\n      dup3\n        /* \"#utility.yul\":34646:34660   */\n      add\n        /* \"#utility.yul\":34639:34697   */\n      mstore\n        /* \"#utility.yul\":34731:34762   */\n      0x56696365204361707461696e206174207468652073616d652074696d65000000\n        /* \"#utility.yul\":34726:34728   */\n      0x20\n        /* \"#utility.yul\":34718:34724   */\n      dup3\n        /* \"#utility.yul\":34714:34729   */\n      add\n        /* \"#utility.yul\":34707:34763   */\n      mstore\n        /* \"#utility.yul\":34522:34770   */\n      pop\n      jump\t// out\n        /* \"#utility.yul\":34776:35005   */\n    tag_630:\n        /* \"#utility.yul\":34916:34950   */\n      0x506c61796572732063616e277420626520616464656420746f2066616e746173\n        /* \"#utility.yul\":34912:34913   */\n      0x00\n        /* \"#utility.yul\":34904:34910   */\n      dup3\n        /* \"#utility.yul\":34900:34914   */\n      add\n        /* \"#utility.yul\":34893:34951   */\n      mstore\n        /* \"#utility.yul\":34985:34997   */\n      0x79207465616d206e6f7700000000000000000000000000000000000000000000\n        /* \"#utility.yul\":34980:34982   */\n      0x20\n        /* \"#utility.yul\":34972:34978   */\n      dup3\n        /* \"#utility.yul\":34968:34983   */\n      add\n        /* \"#utility.yul\":34961:34998   */\n      mstore\n        /* \"#utility.yul\":34776:35005   */\n      pop\n      jump\t// out\n        /* \"#utility.yul\":35011:35187   */\n    tag_635:\n        /* \"#utility.yul\":35151:35179   */\n      0x506c6179657220616c726561647920696e20746865207465616d000000000000\n        /* \"#utility.yul\":35147:35148   */\n      0x00\n        /* \"#utility.yul\":35139:35145   */\n      dup3\n        /* \"#utility.yul\":35135:35149   */\n      add\n        /* \"#utility.yul\":35128:35180   */\n      mstore\n        /* \"#utility.yul\":35011:35187   */\n      pop\n      jump\t// out\n        /* \"#utility.yul\":35193:35371   */\n    tag_640:\n        /* \"#utility.yul\":35333:35363   */\n      0x43616e27742073657420706c617965722773207374617473206e6f7700000000\n        /* \"#utility.yul\":35329:35330   */\n      0x00\n        /* \"#utility.yul\":35321:35327   */\n      dup3\n        /* \"#utility.yul\":35317:35331   */\n      add\n        /* \"#utility.yul\":35310:35364   */\n      mstore\n        /* \"#utility.yul\":35193:35371   */\n      pop\n      jump\t// out\n        /* \"#utility.yul\":35377:35542   */\n    tag_645:\n        /* \"#utility.yul\":35517:35534   */\n      0x43616e27742062696420616761696e0000000000000000000000000000000000\n        /* \"#utility.yul\":35513:35514   */\n      0x00\n        /* \"#utility.yul\":35505:35511   */\n      dup3\n        /* \"#utility.yul\":35501:35515   */\n      add\n        /* \"#utility.yul\":35494:35535   */\n      mstore\n        /* \"#utility.yul\":35377:35542   */\n      pop\n      jump\t// out\n        /* \"#utility.yul\":35548:35709   */\n    tag_650:\n        /* \"#utility.yul\":35688:35701   */\n      0x506c617965722049443a20000000000000000000000000000000000000000000\n        /* \"#utility.yul\":35684:35685   */\n      0x00\n        /* \"#utility.yul\":35676:35682   */\n      dup3\n        /* \"#utility.yul\":35672:35686   */\n      add\n        /* \"#utility.yul\":35665:35702   */\n      mstore\n        /* \"#utility.yul\":35548:35709   */\n      pop\n      jump\t// out\n        /* \"#utility.yul\":35715:35892   */\n    tag_655:\n        /* \"#utility.yul\":35855:35884   */\n      0x506c61796572732063616e2774206265206c6973746564206e6f770000000000\n        /* \"#utility.yul\":35851:35852   */\n      0x00\n        /* \"#utility.yul\":35843:35849   */\n      dup3\n        /* \"#utility.yul\":35839:35853   */\n      add\n        /* \"#utility.yul\":35832:35885   */\n      mstore\n        /* \"#utility.yul\":35715:35892   */\n      pop\n      jump\t// out\n        /* \"#utility.yul\":35898:36072   */\n    tag_660:\n        /* \"#utility.yul\":36038:36064   */\n      0x426964732063616e277420626520706c61636564206e6f770000000000000000\n        /* \"#utility.yul\":36034:36035   */\n      0x00\n        /* \"#utility.yul\":36026:36032   */\n      dup3\n        /* \"#utility.yul\":36022:36036   */\n      add\n        /* \"#utility.yul\":36015:36065   */\n      mstore\n        /* \"#utility.yul\":35898:36072   */\n      pop\n      jump\t// out\n        /* \"#utility.yul\":36078:36250   */\n    tag_665:\n        /* \"#utility.yul\":36218:36242   */\n      0x56696365204361707461696e206e6f7420616464656400000000000000000000\n        /* \"#utility.yul\":36214:36215   */\n      0x00\n        /* \"#utility.yul\":36206:36212   */\n      dup3\n        /* \"#utility.yul\":36202:36216   */\n      add\n        /* \"#utility.yul\":36195:36243   */\n      mstore\n        /* \"#utility.yul\":36078:36250   */\n      pop\n      jump\t// out\n        /* \"#utility.yul\":36256:36427   */\n    tag_670:\n        /* \"#utility.yul\":36396:36419   */\n      0x506c6179657220646f6573206e6f742065786973740000000000000000000000\n        /* \"#utility.yul\":36392:36393   */\n      0x00\n        /* \"#utility.yul\":36384:36390   */\n      dup3\n        /* \"#utility.yul\":36380:36394   */\n      add\n        /* \"#utility.yul\":36373:36420   */\n      mstore\n        /* \"#utility.yul\":36256:36427   */\n      pop\n      jump\t// out\n        /* \"#utility.yul\":36433:36615   */\n    tag_675:\n        /* \"#utility.yul\":36573:36607   */\n      0x46616e74617379207465616d732063616e2774206265206164646564206e6f77\n        /* \"#utility.yul\":36569:36570   */\n      0x00\n        /* \"#utility.yul\":36561:36567   */\n      dup3\n        /* \"#utility.yul\":36557:36571   */\n      add\n        /* \"#utility.yul\":36550:36608   */\n      mstore\n        /* \"#utility.yul\":36433:36615   */\n      pop\n      jump\t// out\n        /* \"#utility.yul\":36621:36791   */\n    tag_680:\n        /* \"#utility.yul\":36761:36783   */\n      0x43616e27742061646420706c61796572206e6f77000000000000000000000000\n        /* \"#utility.yul\":36757:36758   */\n      0x00\n        /* \"#utility.yul\":36749:36755   */\n      dup3\n        /* \"#utility.yul\":36745:36759   */\n      add\n        /* \"#utility.yul\":36738:36784   */\n      mstore\n        /* \"#utility.yul\":36621:36791   */\n      pop\n      jump\t// out\n        /* \"#utility.yul\":36797:36971   */\n    tag_685:\n        /* \"#utility.yul\":36937:36963   */\n      0x47616d6520616c726561647920696e2070726f67726573730000000000000000\n        /* \"#utility.yul\":36933:36934   */\n      0x00\n        /* \"#utility.yul\":36925:36931   */\n      dup3\n        /* \"#utility.yul\":36921:36935   */\n      add\n        /* \"#utility.yul\":36914:36964   */\n      mstore\n        /* \"#utility.yul\":36797:36971   */\n      pop\n      jump\t// out\n        /* \"#utility.yul\":36977:37198   */\n    tag_690:\n        /* \"#utility.yul\":37117:37151   */\n      0x4d7573742062652061646d696e20746f2075736520746869732066756e636974\n        /* \"#utility.yul\":37113:37114   */\n      0x00\n        /* \"#utility.yul\":37105:37111   */\n      dup3\n        /* \"#utility.yul\":37101:37115   */\n      add\n        /* \"#utility.yul\":37094:37152   */\n      mstore\n        /* \"#utility.yul\":37186:37190   */\n      0x6f6e000000000000000000000000000000000000000000000000000000000000\n        /* \"#utility.yul\":37181:37183   */\n      0x20\n        /* \"#utility.yul\":37173:37179   */\n      dup3\n        /* \"#utility.yul\":37169:37184   */\n      add\n        /* \"#utility.yul\":37162:37191   */\n      mstore\n        /* \"#utility.yul\":36977:37198   */\n      pop\n      jump\t// out\n        /* \"#utility.yul\":37204:37371   */\n    tag_695:\n        /* \"#utility.yul\":37344:37363   */\n      0x4361707461696e206e6f74206164646564000000000000000000000000000000\n        /* \"#utility.yul\":37340:37341   */\n      0x00\n        /* \"#utility.yul\":37332:37338   */\n      dup3\n        /* \"#utility.yul\":37328:37342   */\n      add\n        /* \"#utility.yul\":37321:37364   */\n      mstore\n        /* \"#utility.yul\":37204:37371   */\n      pop\n      jump\t// out\n        /* \"#utility.yul\":37377:37544   */\n    tag_700:\n        /* \"#utility.yul\":37517:37536   */\n      0x5465616d20616c72656164792046756c6c000000000000000000000000000000\n        /* \"#utility.yul\":37513:37514   */\n      0x00\n        /* \"#utility.yul\":37505:37511   */\n      dup3\n        /* \"#utility.yul\":37501:37515   */\n      add\n        /* \"#utility.yul\":37494:37537   */\n      mstore\n        /* \"#utility.yul\":37377:37544   */\n      pop\n      jump\t// out\n        /* \"#utility.yul\":37550:37719   */\n    tag_705:\n        /* \"#utility.yul\":37690:37711   */\n      0x43616e2774206368616e67652073746174757300000000000000000000000000\n        /* \"#utility.yul\":37686:37687   */\n      0x00\n        /* \"#utility.yul\":37678:37684   */\n      dup3\n        /* \"#utility.yul\":37674:37688   */\n      add\n        /* \"#utility.yul\":37667:37712   */\n      mstore\n        /* \"#utility.yul\":37550:37719   */\n      pop\n      jump\t// out\n        /* \"#utility.yul\":37725:37890   */\n    tag_710:\n        /* \"#utility.yul\":37865:37882   */\n      0x5465616d20496e636f6d706c6574650000000000000000000000000000000000\n        /* \"#utility.yul\":37861:37862   */\n      0x00\n        /* \"#utility.yul\":37853:37859   */\n      dup3\n        /* \"#utility.yul\":37849:37863   */\n      add\n        /* \"#utility.yul\":37842:37883   */\n      mstore\n        /* \"#utility.yul\":37725:37890   */\n      pop\n      jump\t// out\n        /* \"#utility.yul\":37896:38018   */\n    tag_533:\n        /* \"#utility.yul\":37969:37993   */\n      tag_880\n        /* \"#utility.yul\":37987:37992   */\n      dup2\n        /* \"#utility.yul\":37969:37993   */\n      tag_791\n      jump\t// in\n    tag_880:\n        /* \"#utility.yul\":37962:37967   */\n      dup2\n        /* \"#utility.yul\":37959:37994   */\n      eq\n        /* \"#utility.yul\":37949:38012   */\n      tag_881\n      jumpi\n        /* \"#utility.yul\":38008:38009   */\n      0x00\n        /* \"#utility.yul\":38005:38006   */\n      dup1\n        /* \"#utility.yul\":37998:38010   */\n      revert\n        /* \"#utility.yul\":37949:38012   */\n    tag_881:\n        /* \"#utility.yul\":37896:38018   */\n      pop\n      jump\t// out\n\n    auxdata: 0xa26469706673582212205c44ee1d6d7e7e0b8db8aac6a3aeb5141cb0e165f24a4640fd75a9b19f8d10da64736f6c63430008070033\n}\n",
				"bytecode": {
					"linkReferences": {},
					"object": "608060405260008060146101000a81548160ff021916908360048111156200002c576200002b62000094565b5b02179055506001600355600160045560326005553480156200004d57600080fd5b50336000806101000a81548173ffffffffffffffffffffffffffffffffffffffff021916908373ffffffffffffffffffffffffffffffffffffffff160217905550620000c3565b7f4e487b7100000000000000000000000000000000000000000000000000000000600052602160045260246000fd5b6135a780620000d36000396000f3fe6080604052600436106100c25760003560e01c806364605d511161007f5780638791c0b4116100595780638791c0b4146101e75780638cc804801461021057806392506fae14610227578063af5af0ce14610250576100c2565b806364605d51146101685780636e23d858146101935780636e9960c3146101bc576100c2565b8063106ecb0a146100c75780631998aeef146100f0578063219b596b146100fa5780632c31d085146101115780632f290bfd1461013a5780634526e08b14610151575b600080fd5b3480156100d357600080fd5b506100ee60048036038101906100e991906123e1565b610279565b005b6100f86104c1565b005b34801561010657600080fd5b5061010f6107e3565b005b34801561011d57600080fd5b5061013860048036038101906101339190612421565b610914565b005b34801561014657600080fd5b5061014f610a79565b005b34801561015d57600080fd5b50610166610b1c565b005b34801561017457600080fd5b5061017d610c4d565b60405161018a919061297d565b60405180910390f35b34801561019f57600080fd5b506101ba60048036038101906101b59190612398565b610e03565b005b3480156101c857600080fd5b506101d1610f11565b6040516101de9190612962565b60405180910390f35b3480156101f357600080fd5b5061020e6004803603810190610209919061234f565b610f3a565b005b34801561021c57600080fd5b50610225611192565b005b34801561023357600080fd5b5061024e60048036038101906102499190612398565b6114c9565b005b34801561025c57600080fd5b5061027760048036038101906102729190612421565b6116ce565b005b8160018054905081106102c1576040517f08c379a00000000000000000000000000000000000000000000000000000000081526004016102b890612b1f565b60405180910390fd5b816001805490508110610309576040517f08c379a000000000000000000000000000000000000000000000000000000000815260040161030090612b1f565b60405180910390fd5b6002600481111561031d5761031c612fde565b5b600060149054906101000a900460ff16600481111561033f5761033e612fde565b5b1461037f576040517f08c379a00000000000000000000000000000000000000000000000000000000081526004016103769061299f565b60405180910390fd5b600061038a336117ec565b90506002805490508114156103d4576040517f08c379a00000000000000000000000000000000000000000000000000000000081526004016103cb906129bf565b60405180910390fd5b6103de85826118a5565b61041d576040517f08c379a000000000000000000000000000000000000000000000000000000000815260040161041490612bbf565b60405180910390fd5b61042784826118a5565b610466576040517f08c379a000000000000000000000000000000000000000000000000000000000815260040161045d90612aff565b60405180910390fd5b846002828154811061047b5761047a61303c565b5b90600052602060002090600702016003018190555083600282815481106104a5576104a461303c565b5b9060005260206000209060070201600401819055505050505050565b600260048111156104d5576104d4612fde565b5b600060149054906101000a900460ff1660048111156104f7576104f6612fde565b5b14610537576040517f08c379a000000000000000000000000000000000000000000000000000000000815260040161052e90612adf565b60405180910390fd5b6000610542336117ec565b905060028054905081141561058c576040517f08c379a0000000000000000000000000000000000000000000000000000000008152600401610583906129bf565b60405180910390fd5b6000600282815481106105a2576105a161303c565b5b90600052602060002090600702016040518060e00160405290816000820160009054906101000a900473ffffffffffffffffffffffffffffffffffffffff1673ffffffffffffffffffffffffffffffffffffffff1673ffffffffffffffffffffffffffffffffffffffff16815260200160018201805461062190612ed4565b80601f016020809104026020016040519081016040528092919081815260200182805461064d90612ed4565b801561069a5780601f1061066f5761010080835404028352916020019161069a565b820191906000526020600020905b81548152906001019060200180831161067d57829003601f168201915b50505050508152602001600282018054806020026020016040519081016040528092919081815260200182805480156106f257602002820191906000526020600020905b8154815260200190600101908083116106de575b5050505050815260200160038201548152602001600482015481526020016005820154815260200160068201548152505090506003548160400151511461076e576040517f08c379a000000000000000000000000000000000000000000000000000000000815260040161076590612c1f565b60405180910390fd5b60008160a00151146107b5576040517f08c379a00000000000000000000000000000000000000000000000000000000081526004016107ac90612a9f565b60405180910390fd5b34600283815481106107ca576107c961303c565b5b9060005260206000209060070201600501819055505050565b60008054906101000a900473ffffffffffffffffffffffffffffffffffffffff1673ffffffffffffffffffffffffffffffffffffffff163373ffffffffffffffffffffffffffffffffffffffff1614610871576040517f08c379a000000000000000000000000000000000000000000000000000000000815260040161086890612b9f565b60405180910390fd5b6003600481111561088557610884612fde565b5b600060149054906101000a900460ff1660048111156108a7576108a6612fde565b5b146108e7576040517f08c379a00000000000000000000000000000000000000000000000000000000081526004016108de90612bff565b60405180910390fd5b6004600060146101000a81548160ff0219169083600481111561090d5761090c612fde565b5b0217905550565b60008054906101000a900473ffffffffffffffffffffffffffffffffffffffff1673ffffffffffffffffffffffffffffffffffffffff163373ffffffffffffffffffffffffffffffffffffffff16146109a2576040517f08c379a000000000000000000000000000000000000000000000000000000000815260040161099990612b9f565b60405180910390fd5b600060048111156109b6576109b5612fde565b5b600060149054906101000a900460ff1660048111156109d8576109d7612fde565b5b14610a18576040517f08c379a0000000000000000000000000000000000000000000000000000000008152600401610a0f90612b7f565b60405180910390fd5b60016000610a269190611f3b565b60026000610a349190611f5f565b6001600060146101000a81548160ff02191690836004811115610a5a57610a59612fde565b5b0217905550826003819055508160048190555080600581905550505050565b60016004811115610a8d57610a8c612fde565b5b600060149054906101000a900460ff166004811115610aaf57610aae612fde565b5b14610aef576040517f08c379a0000000000000000000000000000000000000000000000000000000008152600401610ae690612bff565b60405180910390fd5b6002600060146101000a81548160ff02191690836004811115610b1557610b14612fde565b5b0217905550565b60008054906101000a900473ffffffffffffffffffffffffffffffffffffffff1673ffffffffffffffffffffffffffffffffffffffff163373ffffffffffffffffffffffffffffffffffffffff1614610baa576040517f08c379a0000000000000000000000000000000000000000000000000000000008152600401610ba190612b9f565b60405180910390fd5b60026004811115610bbe57610bbd612fde565b5b600060149054906101000a900460ff166004811115610be057610bdf612fde565b5b14610c20576040517f08c379a0000000000000000000000000000000000000000000000000000000008152600401610c1790612bff565b60405180910390fd5b6003600060146101000a81548160ff02191690836004811115610c4657610c45612fde565b5b0217905550565b606060026004811115610c6357610c62612fde565b5b600060149054906101000a900460ff166004811115610c8557610c84612fde565b5b14610cc5576040517f08c379a0000000000000000000000000000000000000000000000000000000008152600401610cbc90612abf565b60405180910390fd5b600060405180602001604052806000815250905060005b600180549050811015610dfb5781604051602001610cfa9190612940565b604051602081830303815290604052915081610d3a60018381548110610d2357610d2261303c565b5b906000526020600020906004020160000154611977565b604051602001610d4b9291906128b4565b604051602081830303815290604052915081604051602001610d6d919061291e565b60405160208183030381529060405291508160018281548110610d9357610d9261303c565b5b9060005260206000209060040201600101604051602001610db59291906128d8565b604051602081830303815290604052915081604051602001610dd791906128fc565b60405160208183030381529060405291508080610df390612f37565b915050610cdc565b508091505090565b60016004811115610e1757610e16612fde565b5b600060149054906101000a900460ff166004811115610e3957610e38612fde565b5b14610e79576040517f08c379a0000000000000000000000000000000000000000000000000000000008152600401610e7090612b5f565b60405180910390fd5b610e81611f83565b8181602001819052506001805490508160000181815250506001819080600181540180825580915050600190039060005260206000209060040201600090919091909150600082015181600001556020820151816001019080519060200190610eeb929190611faa565b506040820151816002016000820151816000015560208201518160010155505050505050565b60008060009054906101000a900473ffffffffffffffffffffffffffffffffffffffff16905090565b60005b815181101561118e576000828281518110610f5b57610f5a61303c565b5b602002602001015190506001805490508110610fac576040517f08c379a0000000000000000000000000000000000000000000000000000000008152600401610fa390612b1f565b60405180910390fd5b60026004811115610fc057610fbf612fde565b5b600060149054906101000a900460ff166004811115610fe257610fe1612fde565b5b14611022576040517f08c379a000000000000000000000000000000000000000000000000000000000815260040161101990612a3f565b60405180910390fd5b600061102d336117ec565b9050600280549050811415611077576040517f08c379a000000000000000000000000000000000000000000000000000000000815260040161106e906129bf565b60405180910390fd5b61108182826118a5565b156110c1576040517f08c379a00000000000000000000000000000000000000000000000000000000081526004016110b890612a5f565b60405180910390fd5b600354600282815481106110d8576110d761303c565b5b9060005260206000209060070201600201805490501061112d576040517f08c379a000000000000000000000000000000000000000000000000000000000815260040161112490612bdf565b60405180910390fd5b600281815481106111415761114061303c565b5b90600052602060002090600702016002018290806001815401808255809150506001900390600052602060002001600090919091909150555050808061118690612f37565b915050610f3d565b5050565b6004808111156111a5576111a4612fde565b5b600060149054906101000a900460ff1660048111156111c7576111c6612fde565b5b14611207576040517f08c379a00000000000000000000000000000000000000000000000000000000081526004016111fe906129ff565b60405180910390fd5b60005b6002805490508110156114945760006002828154811061122d5761122c61303c565b5b90600052602060002090600702016040518060e00160405290816000820160009054906101000a900473ffffffffffffffffffffffffffffffffffffffff1673ffffffffffffffffffffffffffffffffffffffff1673ffffffffffffffffffffffffffffffffffffffff1681526020016001820180546112ac90612ed4565b80601f01602080910402602001604051908101604052809291908181526020018280546112d890612ed4565b80156113255780601f106112fa57610100808354040283529160200191611325565b820191906000526020600020905b81548152906001019060200180831161130857829003601f168201915b505050505081526020016002820180548060200260200160405190810160405280929190818152602001828054801561137d57602002820191906000526020600020905b815481526020019060010190808311611369575b50505050508152602001600382015481526020016004820154815260200160058201548152602001600682015481525050905060005b81604001515181101561147f57611431826040015182815181106113da576113d961303c565b5b6020026020010151836040015183815181106113f9576113f861303c565b5b60200260200101518460600151148460400151848151811061141e5761141d61303c565b5b6020026020010151856080015114611b00565b600284815481106114455761144461303c565b5b906000526020600020906007020160060160008282546114659190612cfd565b92505081905550808061147790612f37565b9150506113b3565b5050808061148c90612f37565b91505061120a565b5061149d611c02565b60008060146101000a81548160ff021916908360048111156114c2576114c1612fde565b5b0217905550565b600260048111156114dd576114dc612fde565b5b600060149054906101000a900460ff1660048111156114ff576114fe612fde565b5b1461153f576040517f08c379a000000000000000000000000000000000000000000000000000000000815260040161153690612b3f565b60405180910390fd5b600061154a336117ec565b90506002805490508114611593576040517f08c379a000000000000000000000000000000000000000000000000000000000815260040161158a906129df565b60405180910390fd5b61159b612030565b82816020018190525033816000019073ffffffffffffffffffffffffffffffffffffffff16908173ffffffffffffffffffffffffffffffffffffffff168152505060008160600181815250506001816080018181525050600281908060018154018082558091505060019003906000526020600020906007020160009091909190915060008201518160000160006101000a81548173ffffffffffffffffffffffffffffffffffffffff021916908373ffffffffffffffffffffffffffffffffffffffff1602179055506020820151816001019080519060200190611681929190611faa565b50604082015181600201908051906020019061169e929190612083565b50606082015181600301556080820151816004015560a0820151816005015560c082015181600601555050505050565b826001805490508110611716576040517f08c379a000000000000000000000000000000000000000000000000000000000815260040161170d90612b1f565b60405180910390fd5b6003600481111561172a57611729612fde565b5b600060149054906101000a900460ff16600481111561174c5761174b612fde565b5b1461178c576040517f08c379a000000000000000000000000000000000000000000000000000000000815260040161178390612a7f565b60405180910390fd5b82600185815481106117a1576117a061303c565b5b90600052602060002090600402016002016000018190555081600185815481106117ce576117cd61303c565b5b90600052602060002090600402016002016001018190555050505050565b600080600090505b600280549050811015611896578273ffffffffffffffffffffffffffffffffffffffff166002828154811061182c5761182b61303c565b5b906000526020600020906007020160000160009054906101000a900473ffffffffffffffffffffffffffffffffffffffff1673ffffffffffffffffffffffffffffffffffffffff16141561188357809150506118a0565b808061188e90612f37565b9150506117f4565b5060028054905090505b919050565b600080600283815481106118bc576118bb61303c565b5b906000526020600020906007020160020180548060200260200160405190810160405280929190818152602001828054801561191757602002820191906000526020600020905b815481526020019060010190808311611903575b5050505050905060005b815181101561196a578482828151811061193e5761193d61303c565b5b6020026020010151141561195757600192505050611971565b808061196290612f37565b915050611921565b5060009150505b92915050565b606060008214156119bf576040518060400160405280600181526020017f30000000000000000000000000000000000000000000000000000000000000008152509050611afb565b600082905060005b600082146119f15780806119da90612f37565b915050600a826119ea9190612d8a565b91506119c7565b60008167ffffffffffffffff811115611a0d57611a0c61306b565b5b6040519080825280601f01601f191660200182016040528015611a3f5781602001600182028036833780820191505090505b50905060008290505b60008614611af357600181611a5d9190612e15565b90506000600a8088611a6f9190612d8a565b611a799190612dbb565b87611a849190612e15565b6030611a909190612d53565b905060008160f81b905080848481518110611aae57611aad61303c565b5b60200101907effffffffffffffffffffffffffffffffffffffffffffffffffffffffffffff1916908160001a905350600a88611aea9190612d8a565b97505050611a48565b819450505050505b919050565b6000828015611b0c5750815b15611b4c576040517f08c379a0000000000000000000000000000000000000000000000000000000008152600401611b4390612a1f565b60405180910390fd5b600060055460018681548110611b6557611b6461303c565b5b906000526020600020906004020160020160010154611b849190612dbb565b60045460018781548110611b9b57611b9a61303c565b5b906000526020600020906004020160020160000154611bba9190612dbb565b611bc49190612cfd565b90508315611be057600381611bd99190612dbb565b9050611bf7565b8215611bf657600281611bf39190612dbb565b90505b5b809150509392505050565b60008054906101000a900473ffffffffffffffffffffffffffffffffffffffff1673ffffffffffffffffffffffffffffffffffffffff163373ffffffffffffffffffffffffffffffffffffffff1614611c90576040517f08c379a0000000000000000000000000000000000000000000000000000000008152600401611c8790612b9f565b60405180910390fd5b60008060005b600280549050811015611d4c5760028181548110611cb757611cb661303c565b5b90600052602060002090600702016006015460028281548110611cdd57611cdc61303c565b5b906000526020600020906007020160050154611cf99190612dbb565b83611d049190612cfd565b925060028181548110611d1a57611d1961303c565b5b90600052602060002090600702016005015482611d379190612cfd565b91508080611d4490612f37565b915050611c96565b506000606482600a611d5e9190612dbb565b611d689190612d8a565b90508082611d769190612e15565b915060008054906101000a900473ffffffffffffffffffffffffffffffffffffffff1673ffffffffffffffffffffffffffffffffffffffff166108fc829081150290604051600060405180830381858888f19350505050158015611dde573d6000803e3d6000fd5b5060005b600280549050811015611f3557600080851415611e265760028281548110611e0d57611e0c61303c565b5b9060005260206000209060070201600501549050611e95565b848460028481548110611e3c57611e3b61303c565b5b90600052602060002090600702016006015460028581548110611e6257611e6161303c565b5b906000526020600020906007020160050154611e7e9190612dbb565b611e889190612dbb565b611e929190612d8a565b90505b60028281548110611ea957611ea861303c565b5b906000526020600020906007020160000160009054906101000a900473ffffffffffffffffffffffffffffffffffffffff1673ffffffffffffffffffffffffffffffffffffffff166108fc829081150290604051600060405180830381858888f19350505050158015611f20573d6000803e3d6000fd5b50508080611f2d90612f37565b915050611de2565b50505050565b5080546000825560040290600052602060002090810190611f5c91906120d0565b50565b5080546000825560070290600052602060002090810190611f809190612116565b50565b60405180606001604052806000815260200160608152602001611fa4612194565b81525090565b828054611fb690612ed4565b90600052602060002090601f016020900481019282611fd8576000855561201f565b82601f10611ff157805160ff191683800117855561201f565b8280016001018555821561201f579182015b8281111561201e578251825591602001919060010190612003565b5b50905061202c91906121ae565b5090565b6040518060e00160405280600073ffffffffffffffffffffffffffffffffffffffff1681526020016060815260200160608152602001600081526020016000815260200160008152602001600081525090565b8280548282559060005260206000209081019282156120bf579160200282015b828111156120be5782518255916020019190600101906120a3565b5b5090506120cc91906121ae565b5090565b5b80821115612112576000808201600090556001820160006120f291906121cb565b6002820160008082016000905560018201600090555050506004016120d1565b5090565b5b8082111561219057600080820160006101000a81549073ffffffffffffffffffffffffffffffffffffffff021916905560018201600061215791906121cb565b600282016000612167919061220b565b600382016000905560048201600090556005820160009055600682016000905550600701612117565b5090565b604051806040016040528060008152602001600081525090565b5b808211156121c75760008160009055506001016121af565b5090565b5080546121d790612ed4565b6000825580601f106121e95750612208565b601f01602090049060005260206000209081019061220791906121ae565b5b50565b508054600082559060005260206000209081019061222991906121ae565b50565b600061223f61223a84612c64565b612c3f565b905080838252602082019050828560208602820111156122625761226161309f565b5b60005b858110156122925781612278888261233a565b845260208401935060208301925050600181019050612265565b5050509392505050565b60006122af6122aa84612c90565b612c3f565b9050828152602081018484840111156122cb576122ca6130a4565b5b6122d6848285612e92565b509392505050565b600082601f8301126122f3576122f261309a565b5b813561230384826020860161222c565b91505092915050565b600082601f8301126123215761232061309a565b5b813561233184826020860161229c565b91505092915050565b6000813590506123498161355a565b92915050565b600060208284031215612365576123646130ae565b5b600082013567ffffffffffffffff811115612383576123826130a9565b5b61238f848285016122de565b91505092915050565b6000602082840312156123ae576123ad6130ae565b5b600082013567ffffffffffffffff8111156123cc576123cb6130a9565b5b6123d88482850161230c565b91505092915050565b600080604083850312156123f8576123f76130ae565b5b60006124068582860161233a565b92505060206124178582860161233a565b9150509250929050565b60008060006060848603121561243a576124396130ae565b5b60006124488682870161233a565b93505060206124598682870161233a565b925050604061246a8682870161233a565b9150509250925092565b61247d81612e49565b82525050565b600061248e82612cd6565b6124988185612ce1565b93506124a8818560208601612ea1565b6124b1816130b3565b840191505092915050565b60006124c782612cd6565b6124d18185612cf2565b93506124e1818560208601612ea1565b80840191505092915050565b600081546124fa81612ed4565b6125048186612cf2565b9450600182166000811461251f576001811461253057612563565b60ff19831686528186019350612563565b61253985612cc1565b60005b8381101561255b5781548189015260018201915060208101905061253c565b838801955050505b50505092915050565b6000612579602b83612ce1565b9150612584826130c4565b604082019050919050565b600061259c602183612ce1565b91506125a782613113565b604082019050919050565b60006125bf602083612ce1565b91506125ca82613162565b602082019050919050565b60006125e2600183612cf2565b91506125ed8261318b565b600182019050919050565b6000612605601483612ce1565b9150612610826131b4565b602082019050919050565b6000612628600f83612cf2565b9150612633826131dd565b600f82019050919050565b600061264b603d83612ce1565b915061265682613206565b604082019050919050565b600061266e602a83612ce1565b915061267982613255565b604082019050919050565b6000612691601a83612ce1565b915061269c826132a4565b602082019050919050565b60006126b4601c83612ce1565b91506126bf826132cd565b602082019050919050565b60006126d7600f83612ce1565b91506126e2826132f6565b602082019050919050565b60006126fa600b83612cf2565b91506127058261331f565b600b82019050919050565b600061271d601b83612ce1565b915061272882613348565b602082019050919050565b6000612740601883612ce1565b915061274b82613371565b602082019050919050565b6000612763601683612ce1565b915061276e8261339a565b602082019050919050565b6000612786601583612ce1565b9150612791826133c3565b602082019050919050565b60006127a9602083612ce1565b91506127b4826133ec565b602082019050919050565b60006127cc601483612ce1565b91506127d782613415565b602082019050919050565b60006127ef601883612ce1565b91506127fa8261343e565b602082019050919050565b6000612812602283612ce1565b915061281d82613467565b604082019050919050565b6000612835601183612ce1565b9150612840826134b6565b602082019050919050565b6000612858601183612ce1565b9150612863826134df565b602082019050919050565b600061287b601383612ce1565b915061288682613508565b602082019050919050565b600061289e600f83612ce1565b91506128a982613531565b602082019050919050565b60006128c082856124bc565b91506128cc82846124bc565b91508190509392505050565b60006128e482856124bc565b91506128f082846124ed565b91508190509392505050565b600061290882846124bc565b9150612913826125d5565b915081905092915050565b600061292a82846124bc565b91506129358261261b565b915081905092915050565b600061294c82846124bc565b9150612957826126ed565b915081905092915050565b60006020820190506129776000830184612474565b92915050565b600060208201905081810360008301526129978184612483565b905092915050565b600060208201905081810360008301526129b88161256c565b9050919050565b600060208201905081810360008301526129d88161258f565b9050919050565b600060208201905081810360008301526129f8816125b2565b9050919050565b60006020820190508181036000830152612a18816125f8565b9050919050565b60006020820190508181036000830152612a388161263e565b9050919050565b60006020820190508181036000830152612a5881612661565b9050919050565b60006020820190508181036000830152612a7881612684565b9050919050565b60006020820190508181036000830152612a98816126a7565b9050919050565b60006020820190508181036000830152612ab8816126ca565b9050919050565b60006020820190508181036000830152612ad881612710565b9050919050565b60006020820190508181036000830152612af881612733565b9050919050565b60006020820190508181036000830152612b1881612756565b9050919050565b60006020820190508181036000830152612b3881612779565b9050919050565b60006020820190508181036000830152612b588161279c565b9050919050565b60006020820190508181036000830152612b78816127bf565b9050919050565b60006020820190508181036000830152612b98816127e2565b9050919050565b60006020820190508181036000830152612bb881612805565b9050919050565b60006020820190508181036000830152612bd881612828565b9050919050565b60006020820190508181036000830152612bf88161284b565b9050919050565b60006020820190508181036000830152612c188161286e565b9050919050565b60006020820190508181036000830152612c3881612891565b9050919050565b6000612c49612c5a565b9050612c558282612f06565b919050565b6000604051905090565b600067ffffffffffffffff821115612c7f57612c7e61306b565b5b602082029050602081019050919050565b600067ffffffffffffffff821115612cab57612caa61306b565b5b612cb4826130b3565b9050602081019050919050565b60008190508160005260206000209050919050565b600081519050919050565b600082825260208201905092915050565b600081905092915050565b6000612d0882612e7b565b9150612d1383612e7b565b9250827fffffffffffffffffffffffffffffffffffffffffffffffffffffffffffffffff03821115612d4857612d47612f80565b5b828201905092915050565b6000612d5e82612e85565b9150612d6983612e85565b92508260ff03821115612d7f57612d7e612f80565b5b828201905092915050565b6000612d9582612e7b565b9150612da083612e7b565b925082612db057612daf612faf565b5b828204905092915050565b6000612dc682612e7b565b9150612dd183612e7b565b9250817fffffffffffffffffffffffffffffffffffffffffffffffffffffffffffffffff0483118215151615612e0a57612e09612f80565b5b828202905092915050565b6000612e2082612e7b565b9150612e2b83612e7b565b925082821015612e3e57612e3d612f80565b5b828203905092915050565b6000612e5482612e5b565b9050919050565b600073ffffffffffffffffffffffffffffffffffffffff82169050919050565b6000819050919050565b600060ff82169050919050565b82818337600083830152505050565b60005b83811015612ebf578082015181840152602081019050612ea4565b83811115612ece576000848401525b50505050565b60006002820490506001821680612eec57607f821691505b60208210811415612f0057612eff61300d565b5b50919050565b612f0f826130b3565b810181811067ffffffffffffffff82111715612f2e57612f2d61306b565b5b80604052505050565b6000612f4282612e7b565b91507fffffffffffffffffffffffffffffffffffffffffffffffffffffffffffffffff821415612f7557612f74612f80565b5b600182019050919050565b7f4e487b7100000000000000000000000000000000000000000000000000000000600052601160045260246000fd5b7f4e487b7100000000000000000000000000000000000000000000000000000000600052601260045260246000fd5b7f4e487b7100000000000000000000000000000000000000000000000000000000600052602160045260246000fd5b7f4e487b7100000000000000000000000000000000000000000000000000000000600052602260045260246000fd5b7f4e487b7100000000000000000000000000000000000000000000000000000000600052603260045260246000fd5b7f4e487b7100000000000000000000000000000000000000000000000000000000600052604160045260246000fd5b600080fd5b600080fd5b600080fd5b600080fd5b600080fd5b6000601f19601f8301169050919050565b7f43616e277420736574206361707461696e7320666f72207468652066616e746160008201527f7379207465616d206e6f77000000000000000000000000000000000000000000602082015250565b7f5465616d20646f6573206e6f742065786973747320666f72207468652075736560008201527f7200000000000000000000000000000000000000000000000000000000000000602082015250565b7f5465616d20616c72656164792065786973747320666f72207468652075736572600082015250565b7f0a00000000000000000000000000000000000000000000000000000000000000600082015250565b7f47616d6520686173206e6f742073746f70706564000000000000000000000000600082015250565b7f3b20506c61796572204e616d653a200000000000000000000000000000000000600082015250565b7f4120706c617965722063616e206e6f74206265204361707461696e20616e642060008201527f56696365204361707461696e206174207468652073616d652074696d65000000602082015250565b7f506c61796572732063616e277420626520616464656420746f2066616e74617360008201527f79207465616d206e6f7700000000000000000000000000000000000000000000602082015250565b7f506c6179657220616c726561647920696e20746865207465616d000000000000600082015250565b7f43616e27742073657420706c617965722773207374617473206e6f7700000000600082015250565b7f43616e27742062696420616761696e0000000000000000000000000000000000600082015250565b7f506c617965722049443a20000000000000000000000000000000000000000000600082015250565b7f506c61796572732063616e2774206265206c6973746564206e6f770000000000600082015250565b7f426964732063616e277420626520706c61636564206e6f770000000000000000600082015250565b7f56696365204361707461696e206e6f7420616464656400000000000000000000600082015250565b7f506c6179657220646f6573206e6f742065786973740000000000000000000000600082015250565b7f46616e74617379207465616d732063616e2774206265206164646564206e6f77600082015250565b7f43616e27742061646420706c61796572206e6f77000000000000000000000000600082015250565b7f47616d6520616c726561647920696e2070726f67726573730000000000000000600082015250565b7f4d7573742062652061646d696e20746f2075736520746869732066756e63697460008201527f6f6e000000000000000000000000000000000000000000000000000000000000602082015250565b7f4361707461696e206e6f74206164646564000000000000000000000000000000600082015250565b7f5465616d20616c72656164792046756c6c000000000000000000000000000000600082015250565b7f43616e2774206368616e67652073746174757300000000000000000000000000600082015250565b7f5465616d20496e636f6d706c6574650000000000000000000000000000000000600082015250565b61356381612e7b565b811461356e57600080fd5b5056fea26469706673582212205c44ee1d6d7e7e0b8db8aac6a3aeb5141cb0e165f24a4640fd75a9b19f8d10da64736f6c63430008070033",
					"opcodes": "PUSH1 0x80 PUSH1 0x40 MSTORE PUSH1 0x0 DUP1 PUSH1 0x14 PUSH2 0x100 EXP DUP2 SLOAD DUP2 PUSH1 0xFF MUL NOT AND SWAP1 DUP4 PUSH1 0x4 DUP2 GT ISZERO PUSH3 0x2C JUMPI PUSH3 0x2B PUSH3 0x94 JUMP JUMPDEST JUMPDEST MUL OR SWAP1 SSTORE POP PUSH1 0x1 PUSH1 0x3 SSTORE PUSH1 0x1 PUSH1 0x4 SSTORE PUSH1 0x32 PUSH1 0x5 SSTORE CALLVALUE DUP1 ISZERO PUSH3 0x4D JUMPI PUSH1 0x0 DUP1 REVERT JUMPDEST POP CALLER PUSH1 0x0 DUP1 PUSH2 0x100 EXP DUP2 SLOAD DUP2 PUSH20 0xFFFFFFFFFFFFFFFFFFFFFFFFFFFFFFFFFFFFFFFF MUL NOT AND SWAP1 DUP4 PUSH20 0xFFFFFFFFFFFFFFFFFFFFFFFFFFFFFFFFFFFFFFFF AND MUL OR SWAP1 SSTORE POP PUSH3 0xC3 JUMP JUMPDEST PUSH32 0x4E487B7100000000000000000000000000000000000000000000000000000000 PUSH1 0x0 MSTORE PUSH1 0x21 PUSH1 0x4 MSTORE PUSH1 0x24 PUSH1 0x0 REVERT JUMPDEST PUSH2 0x35A7 DUP1 PUSH3 0xD3 PUSH1 0x0 CODECOPY PUSH1 0x0 RETURN INVALID PUSH1 0x80 PUSH1 0x40 MSTORE PUSH1 0x4 CALLDATASIZE LT PUSH2 0xC2 JUMPI PUSH1 0x0 CALLDATALOAD PUSH1 0xE0 SHR DUP1 PUSH4 0x64605D51 GT PUSH2 0x7F JUMPI DUP1 PUSH4 0x8791C0B4 GT PUSH2 0x59 JUMPI DUP1 PUSH4 0x8791C0B4 EQ PUSH2 0x1E7 JUMPI DUP1 PUSH4 0x8CC80480 EQ PUSH2 0x210 JUMPI DUP1 PUSH4 0x92506FAE EQ PUSH2 0x227 JUMPI DUP1 PUSH4 0xAF5AF0CE EQ PUSH2 0x250 JUMPI PUSH2 0xC2 JUMP JUMPDEST DUP1 PUSH4 0x64605D51 EQ PUSH2 0x168 JUMPI DUP1 PUSH4 0x6E23D858 EQ PUSH2 0x193 JUMPI DUP1 PUSH4 0x6E9960C3 EQ PUSH2 0x1BC JUMPI PUSH2 0xC2 JUMP JUMPDEST DUP1 PUSH4 0x106ECB0A EQ PUSH2 0xC7 JUMPI DUP1 PUSH4 0x1998AEEF EQ PUSH2 0xF0 JUMPI DUP1 PUSH4 0x219B596B EQ PUSH2 0xFA JUMPI DUP1 PUSH4 0x2C31D085 EQ PUSH2 0x111 JUMPI DUP1 PUSH4 0x2F290BFD EQ PUSH2 0x13A JUMPI DUP1 PUSH4 0x4526E08B EQ PUSH2 0x151 JUMPI JUMPDEST PUSH1 0x0 DUP1 REVERT JUMPDEST CALLVALUE DUP1 ISZERO PUSH2 0xD3 JUMPI PUSH1 0x0 DUP1 REVERT JUMPDEST POP PUSH2 0xEE PUSH1 0x4 DUP1 CALLDATASIZE SUB DUP2 ADD SWAP1 PUSH2 0xE9 SWAP2 SWAP1 PUSH2 0x23E1 JUMP JUMPDEST PUSH2 0x279 JUMP JUMPDEST STOP JUMPDEST PUSH2 0xF8 PUSH2 0x4C1 JUMP JUMPDEST STOP JUMPDEST CALLVALUE DUP1 ISZERO PUSH2 0x106 JUMPI PUSH1 0x0 DUP1 REVERT JUMPDEST POP PUSH2 0x10F PUSH2 0x7E3 JUMP JUMPDEST STOP JUMPDEST CALLVALUE DUP1 ISZERO PUSH2 0x11D JUMPI PUSH1 0x0 DUP1 REVERT JUMPDEST POP PUSH2 0x138 PUSH1 0x4 DUP1 CALLDATASIZE SUB DUP2 ADD SWAP1 PUSH2 0x133 SWAP2 SWAP1 PUSH2 0x2421 JUMP JUMPDEST PUSH2 0x914 JUMP JUMPDEST STOP JUMPDEST CALLVALUE DUP1 ISZERO PUSH2 0x146 JUMPI PUSH1 0x0 DUP1 REVERT JUMPDEST POP PUSH2 0x14F PUSH2 0xA79 JUMP JUMPDEST STOP JUMPDEST CALLVALUE DUP1 ISZERO PUSH2 0x15D JUMPI PUSH1 0x0 DUP1 REVERT JUMPDEST POP PUSH2 0x166 PUSH2 0xB1C JUMP JUMPDEST STOP JUMPDEST CALLVALUE DUP1 ISZERO PUSH2 0x174 JUMPI PUSH1 0x0 DUP1 REVERT JUMPDEST POP PUSH2 0x17D PUSH2 0xC4D JUMP JUMPDEST PUSH1 0x40 MLOAD PUSH2 0x18A SWAP2 SWAP1 PUSH2 0x297D JUMP JUMPDEST PUSH1 0x40 MLOAD DUP1 SWAP2 SUB SWAP1 RETURN JUMPDEST CALLVALUE DUP1 ISZERO PUSH2 0x19F JUMPI PUSH1 0x0 DUP1 REVERT JUMPDEST POP PUSH2 0x1BA PUSH1 0x4 DUP1 CALLDATASIZE SUB DUP2 ADD SWAP1 PUSH2 0x1B5 SWAP2 SWAP1 PUSH2 0x2398 JUMP JUMPDEST PUSH2 0xE03 JUMP JUMPDEST STOP JUMPDEST CALLVALUE DUP1 ISZERO PUSH2 0x1C8 JUMPI PUSH1 0x0 DUP1 REVERT JUMPDEST POP PUSH2 0x1D1 PUSH2 0xF11 JUMP JUMPDEST PUSH1 0x40 MLOAD PUSH2 0x1DE SWAP2 SWAP1 PUSH2 0x2962 JUMP JUMPDEST PUSH1 0x40 MLOAD DUP1 SWAP2 SUB SWAP1 RETURN JUMPDEST CALLVALUE DUP1 ISZERO PUSH2 0x1F3 JUMPI PUSH1 0x0 DUP1 REVERT JUMPDEST POP PUSH2 0x20E PUSH1 0x4 DUP1 CALLDATASIZE SUB DUP2 ADD SWAP1 PUSH2 0x209 SWAP2 SWAP1 PUSH2 0x234F JUMP JUMPDEST PUSH2 0xF3A JUMP JUMPDEST STOP JUMPDEST CALLVALUE DUP1 ISZERO PUSH2 0x21C JUMPI PUSH1 0x0 DUP1 REVERT JUMPDEST POP PUSH2 0x225 PUSH2 0x1192 JUMP JUMPDEST STOP JUMPDEST CALLVALUE DUP1 ISZERO PUSH2 0x233 JUMPI PUSH1 0x0 DUP1 REVERT JUMPDEST POP PUSH2 0x24E PUSH1 0x4 DUP1 CALLDATASIZE SUB DUP2 ADD SWAP1 PUSH2 0x249 SWAP2 SWAP1 PUSH2 0x2398 JUMP JUMPDEST PUSH2 0x14C9 JUMP JUMPDEST STOP JUMPDEST CALLVALUE DUP1 ISZERO PUSH2 0x25C JUMPI PUSH1 0x0 DUP1 REVERT JUMPDEST POP PUSH2 0x277 PUSH1 0x4 DUP1 CALLDATASIZE SUB DUP2 ADD SWAP1 PUSH2 0x272 SWAP2 SWAP1 PUSH2 0x2421 JUMP JUMPDEST PUSH2 0x16CE JUMP JUMPDEST STOP JUMPDEST DUP2 PUSH1 0x1 DUP1 SLOAD SWAP1 POP DUP2 LT PUSH2 0x2C1 JUMPI PUSH1 0x40 MLOAD PUSH32 0x8C379A000000000000000000000000000000000000000000000000000000000 DUP2 MSTORE PUSH1 0x4 ADD PUSH2 0x2B8 SWAP1 PUSH2 0x2B1F JUMP JUMPDEST PUSH1 0x40 MLOAD DUP1 SWAP2 SUB SWAP1 REVERT JUMPDEST DUP2 PUSH1 0x1 DUP1 SLOAD SWAP1 POP DUP2 LT PUSH2 0x309 JUMPI PUSH1 0x40 MLOAD PUSH32 0x8C379A000000000000000000000000000000000000000000000000000000000 DUP2 MSTORE PUSH1 0x4 ADD PUSH2 0x300 SWAP1 PUSH2 0x2B1F JUMP JUMPDEST PUSH1 0x40 MLOAD DUP1 SWAP2 SUB SWAP1 REVERT JUMPDEST PUSH1 0x2 PUSH1 0x4 DUP2 GT ISZERO PUSH2 0x31D JUMPI PUSH2 0x31C PUSH2 0x2FDE JUMP JUMPDEST JUMPDEST PUSH1 0x0 PUSH1 0x14 SWAP1 SLOAD SWAP1 PUSH2 0x100 EXP SWAP1 DIV PUSH1 0xFF AND PUSH1 0x4 DUP2 GT ISZERO PUSH2 0x33F JUMPI PUSH2 0x33E PUSH2 0x2FDE JUMP JUMPDEST JUMPDEST EQ PUSH2 0x37F JUMPI PUSH1 0x40 MLOAD PUSH32 0x8C379A000000000000000000000000000000000000000000000000000000000 DUP2 MSTORE PUSH1 0x4 ADD PUSH2 0x376 SWAP1 PUSH2 0x299F JUMP JUMPDEST PUSH1 0x40 MLOAD DUP1 SWAP2 SUB SWAP1 REVERT JUMPDEST PUSH1 0x0 PUSH2 0x38A CALLER PUSH2 0x17EC JUMP JUMPDEST SWAP1 POP PUSH1 0x2 DUP1 SLOAD SWAP1 POP DUP2 EQ ISZERO PUSH2 0x3D4 JUMPI PUSH1 0x40 MLOAD PUSH32 0x8C379A000000000000000000000000000000000000000000000000000000000 DUP2 MSTORE PUSH1 0x4 ADD PUSH2 0x3CB SWAP1 PUSH2 0x29BF JUMP JUMPDEST PUSH1 0x40 MLOAD DUP1 SWAP2 SUB SWAP1 REVERT JUMPDEST PUSH2 0x3DE DUP6 DUP3 PUSH2 0x18A5 JUMP JUMPDEST PUSH2 0x41D JUMPI PUSH1 0x40 MLOAD PUSH32 0x8C379A000000000000000000000000000000000000000000000000000000000 DUP2 MSTORE PUSH1 0x4 ADD PUSH2 0x414 SWAP1 PUSH2 0x2BBF JUMP JUMPDEST PUSH1 0x40 MLOAD DUP1 SWAP2 SUB SWAP1 REVERT JUMPDEST PUSH2 0x427 DUP5 DUP3 PUSH2 0x18A5 JUMP JUMPDEST PUSH2 0x466 JUMPI PUSH1 0x40 MLOAD PUSH32 0x8C379A000000000000000000000000000000000000000000000000000000000 DUP2 MSTORE PUSH1 0x4 ADD PUSH2 0x45D SWAP1 PUSH2 0x2AFF JUMP JUMPDEST PUSH1 0x40 MLOAD DUP1 SWAP2 SUB SWAP1 REVERT JUMPDEST DUP5 PUSH1 0x2 DUP3 DUP2 SLOAD DUP2 LT PUSH2 0x47B JUMPI PUSH2 0x47A PUSH2 0x303C JUMP JUMPDEST JUMPDEST SWAP1 PUSH1 0x0 MSTORE PUSH1 0x20 PUSH1 0x0 KECCAK256 SWAP1 PUSH1 0x7 MUL ADD PUSH1 0x3 ADD DUP2 SWAP1 SSTORE POP DUP4 PUSH1 0x2 DUP3 DUP2 SLOAD DUP2 LT PUSH2 0x4A5 JUMPI PUSH2 0x4A4 PUSH2 0x303C JUMP JUMPDEST JUMPDEST SWAP1 PUSH1 0x0 MSTORE PUSH1 0x20 PUSH1 0x0 KECCAK256 SWAP1 PUSH1 0x7 MUL ADD PUSH1 0x4 ADD DUP2 SWAP1 SSTORE POP POP POP POP POP POP JUMP JUMPDEST PUSH1 0x2 PUSH1 0x4 DUP2 GT ISZERO PUSH2 0x4D5 JUMPI PUSH2 0x4D4 PUSH2 0x2FDE JUMP JUMPDEST JUMPDEST PUSH1 0x0 PUSH1 0x14 SWAP1 SLOAD SWAP1 PUSH2 0x100 EXP SWAP1 DIV PUSH1 0xFF AND PUSH1 0x4 DUP2 GT ISZERO PUSH2 0x4F7 JUMPI PUSH2 0x4F6 PUSH2 0x2FDE JUMP JUMPDEST JUMPDEST EQ PUSH2 0x537 JUMPI PUSH1 0x40 MLOAD PUSH32 0x8C379A000000000000000000000000000000000000000000000000000000000 DUP2 MSTORE PUSH1 0x4 ADD PUSH2 0x52E SWAP1 PUSH2 0x2ADF JUMP JUMPDEST PUSH1 0x40 MLOAD DUP1 SWAP2 SUB SWAP1 REVERT JUMPDEST PUSH1 0x0 PUSH2 0x542 CALLER PUSH2 0x17EC JUMP JUMPDEST SWAP1 POP PUSH1 0x2 DUP1 SLOAD SWAP1 POP DUP2 EQ ISZERO PUSH2 0x58C JUMPI PUSH1 0x40 MLOAD PUSH32 0x8C379A000000000000000000000000000000000000000000000000000000000 DUP2 MSTORE PUSH1 0x4 ADD PUSH2 0x583 SWAP1 PUSH2 0x29BF JUMP JUMPDEST PUSH1 0x40 MLOAD DUP1 SWAP2 SUB SWAP1 REVERT JUMPDEST PUSH1 0x0 PUSH1 0x2 DUP3 DUP2 SLOAD DUP2 LT PUSH2 0x5A2 JUMPI PUSH2 0x5A1 PUSH2 0x303C JUMP JUMPDEST JUMPDEST SWAP1 PUSH1 0x0 MSTORE PUSH1 0x20 PUSH1 0x0 KECCAK256 SWAP1 PUSH1 0x7 MUL ADD PUSH1 0x40 MLOAD DUP1 PUSH1 0xE0 ADD PUSH1 0x40 MSTORE SWAP1 DUP2 PUSH1 0x0 DUP3 ADD PUSH1 0x0 SWAP1 SLOAD SWAP1 PUSH2 0x100 EXP SWAP1 DIV PUSH20 0xFFFFFFFFFFFFFFFFFFFFFFFFFFFFFFFFFFFFFFFF AND PUSH20 0xFFFFFFFFFFFFFFFFFFFFFFFFFFFFFFFFFFFFFFFF AND PUSH20 0xFFFFFFFFFFFFFFFFFFFFFFFFFFFFFFFFFFFFFFFF AND DUP2 MSTORE PUSH1 0x20 ADD PUSH1 0x1 DUP3 ADD DUP1 SLOAD PUSH2 0x621 SWAP1 PUSH2 0x2ED4 JUMP JUMPDEST DUP1 PUSH1 0x1F ADD PUSH1 0x20 DUP1 SWAP2 DIV MUL PUSH1 0x20 ADD PUSH1 0x40 MLOAD SWAP1 DUP2 ADD PUSH1 0x40 MSTORE DUP1 SWAP3 SWAP2 SWAP1 DUP2 DUP2 MSTORE PUSH1 0x20 ADD DUP3 DUP1 SLOAD PUSH2 0x64D SWAP1 PUSH2 0x2ED4 JUMP JUMPDEST DUP1 ISZERO PUSH2 0x69A JUMPI DUP1 PUSH1 0x1F LT PUSH2 0x66F JUMPI PUSH2 0x100 DUP1 DUP4 SLOAD DIV MUL DUP4 MSTORE SWAP2 PUSH1 0x20 ADD SWAP2 PUSH2 0x69A JUMP JUMPDEST DUP3 ADD SWAP2 SWAP1 PUSH1 0x0 MSTORE PUSH1 0x20 PUSH1 0x0 KECCAK256 SWAP1 JUMPDEST DUP2 SLOAD DUP2 MSTORE SWAP1 PUSH1 0x1 ADD SWAP1 PUSH1 0x20 ADD DUP1 DUP4 GT PUSH2 0x67D JUMPI DUP3 SWAP1 SUB PUSH1 0x1F AND DUP3 ADD SWAP2 JUMPDEST POP POP POP POP POP DUP2 MSTORE PUSH1 0x20 ADD PUSH1 0x2 DUP3 ADD DUP1 SLOAD DUP1 PUSH1 0x20 MUL PUSH1 0x20 ADD PUSH1 0x40 MLOAD SWAP1 DUP2 ADD PUSH1 0x40 MSTORE DUP1 SWAP3 SWAP2 SWAP1 DUP2 DUP2 MSTORE PUSH1 0x20 ADD DUP3 DUP1 SLOAD DUP1 ISZERO PUSH2 0x6F2 JUMPI PUSH1 0x20 MUL DUP3 ADD SWAP2 SWAP1 PUSH1 0x0 MSTORE PUSH1 0x20 PUSH1 0x0 KECCAK256 SWAP1 JUMPDEST DUP2 SLOAD DUP2 MSTORE PUSH1 0x20 ADD SWAP1 PUSH1 0x1 ADD SWAP1 DUP1 DUP4 GT PUSH2 0x6DE JUMPI JUMPDEST POP POP POP POP POP DUP2 MSTORE PUSH1 0x20 ADD PUSH1 0x3 DUP3 ADD SLOAD DUP2 MSTORE PUSH1 0x20 ADD PUSH1 0x4 DUP3 ADD SLOAD DUP2 MSTORE PUSH1 0x20 ADD PUSH1 0x5 DUP3 ADD SLOAD DUP2 MSTORE PUSH1 0x20 ADD PUSH1 0x6 DUP3 ADD SLOAD DUP2 MSTORE POP POP SWAP1 POP PUSH1 0x3 SLOAD DUP2 PUSH1 0x40 ADD MLOAD MLOAD EQ PUSH2 0x76E JUMPI PUSH1 0x40 MLOAD PUSH32 0x8C379A000000000000000000000000000000000000000000000000000000000 DUP2 MSTORE PUSH1 0x4 ADD PUSH2 0x765 SWAP1 PUSH2 0x2C1F JUMP JUMPDEST PUSH1 0x40 MLOAD DUP1 SWAP2 SUB SWAP1 REVERT JUMPDEST PUSH1 0x0 DUP2 PUSH1 0xA0 ADD MLOAD EQ PUSH2 0x7B5 JUMPI PUSH1 0x40 MLOAD PUSH32 0x8C379A000000000000000000000000000000000000000000000000000000000 DUP2 MSTORE PUSH1 0x4 ADD PUSH2 0x7AC SWAP1 PUSH2 0x2A9F JUMP JUMPDEST PUSH1 0x40 MLOAD DUP1 SWAP2 SUB SWAP1 REVERT JUMPDEST CALLVALUE PUSH1 0x2 DUP4 DUP2 SLOAD DUP2 LT PUSH2 0x7CA JUMPI PUSH2 0x7C9 PUSH2 0x303C JUMP JUMPDEST JUMPDEST SWAP1 PUSH1 0x0 MSTORE PUSH1 0x20 PUSH1 0x0 KECCAK256 SWAP1 PUSH1 0x7 MUL ADD PUSH1 0x5 ADD DUP2 SWAP1 SSTORE POP POP POP JUMP JUMPDEST PUSH1 0x0 DUP1 SLOAD SWAP1 PUSH2 0x100 EXP SWAP1 DIV PUSH20 0xFFFFFFFFFFFFFFFFFFFFFFFFFFFFFFFFFFFFFFFF AND PUSH20 0xFFFFFFFFFFFFFFFFFFFFFFFFFFFFFFFFFFFFFFFF AND CALLER PUSH20 0xFFFFFFFFFFFFFFFFFFFFFFFFFFFFFFFFFFFFFFFF AND EQ PUSH2 0x871 JUMPI PUSH1 0x40 MLOAD PUSH32 0x8C379A000000000000000000000000000000000000000000000000000000000 DUP2 MSTORE PUSH1 0x4 ADD PUSH2 0x868 SWAP1 PUSH2 0x2B9F JUMP JUMPDEST PUSH1 0x40 MLOAD DUP1 SWAP2 SUB SWAP1 REVERT JUMPDEST PUSH1 0x3 PUSH1 0x4 DUP2 GT ISZERO PUSH2 0x885 JUMPI PUSH2 0x884 PUSH2 0x2FDE JUMP JUMPDEST JUMPDEST PUSH1 0x0 PUSH1 0x14 SWAP1 SLOAD SWAP1 PUSH2 0x100 EXP SWAP1 DIV PUSH1 0xFF AND PUSH1 0x4 DUP2 GT ISZERO PUSH2 0x8A7 JUMPI PUSH2 0x8A6 PUSH2 0x2FDE JUMP JUMPDEST JUMPDEST EQ PUSH2 0x8E7 JUMPI PUSH1 0x40 MLOAD PUSH32 0x8C379A000000000000000000000000000000000000000000000000000000000 DUP2 MSTORE PUSH1 0x4 ADD PUSH2 0x8DE SWAP1 PUSH2 0x2BFF JUMP JUMPDEST PUSH1 0x40 MLOAD DUP1 SWAP2 SUB SWAP1 REVERT JUMPDEST PUSH1 0x4 PUSH1 0x0 PUSH1 0x14 PUSH2 0x100 EXP DUP2 SLOAD DUP2 PUSH1 0xFF MUL NOT AND SWAP1 DUP4 PUSH1 0x4 DUP2 GT ISZERO PUSH2 0x90D JUMPI PUSH2 0x90C PUSH2 0x2FDE JUMP JUMPDEST JUMPDEST MUL OR SWAP1 SSTORE POP JUMP JUMPDEST PUSH1 0x0 DUP1 SLOAD SWAP1 PUSH2 0x100 EXP SWAP1 DIV PUSH20 0xFFFFFFFFFFFFFFFFFFFFFFFFFFFFFFFFFFFFFFFF AND PUSH20 0xFFFFFFFFFFFFFFFFFFFFFFFFFFFFFFFFFFFFFFFF AND CALLER PUSH20 0xFFFFFFFFFFFFFFFFFFFFFFFFFFFFFFFFFFFFFFFF AND EQ PUSH2 0x9A2 JUMPI PUSH1 0x40 MLOAD PUSH32 0x8C379A000000000000000000000000000000000000000000000000000000000 DUP2 MSTORE PUSH1 0x4 ADD PUSH2 0x999 SWAP1 PUSH2 0x2B9F JUMP JUMPDEST PUSH1 0x40 MLOAD DUP1 SWAP2 SUB SWAP1 REVERT JUMPDEST PUSH1 0x0 PUSH1 0x4 DUP2 GT ISZERO PUSH2 0x9B6 JUMPI PUSH2 0x9B5 PUSH2 0x2FDE JUMP JUMPDEST JUMPDEST PUSH1 0x0 PUSH1 0x14 SWAP1 SLOAD SWAP1 PUSH2 0x100 EXP SWAP1 DIV PUSH1 0xFF AND PUSH1 0x4 DUP2 GT ISZERO PUSH2 0x9D8 JUMPI PUSH2 0x9D7 PUSH2 0x2FDE JUMP JUMPDEST JUMPDEST EQ PUSH2 0xA18 JUMPI PUSH1 0x40 MLOAD PUSH32 0x8C379A000000000000000000000000000000000000000000000000000000000 DUP2 MSTORE PUSH1 0x4 ADD PUSH2 0xA0F SWAP1 PUSH2 0x2B7F JUMP JUMPDEST PUSH1 0x40 MLOAD DUP1 SWAP2 SUB SWAP1 REVERT JUMPDEST PUSH1 0x1 PUSH1 0x0 PUSH2 0xA26 SWAP2 SWAP1 PUSH2 0x1F3B JUMP JUMPDEST PUSH1 0x2 PUSH1 0x0 PUSH2 0xA34 SWAP2 SWAP1 PUSH2 0x1F5F JUMP JUMPDEST PUSH1 0x1 PUSH1 0x0 PUSH1 0x14 PUSH2 0x100 EXP DUP2 SLOAD DUP2 PUSH1 0xFF MUL NOT AND SWAP1 DUP4 PUSH1 0x4 DUP2 GT ISZERO PUSH2 0xA5A JUMPI PUSH2 0xA59 PUSH2 0x2FDE JUMP JUMPDEST JUMPDEST MUL OR SWAP1 SSTORE POP DUP3 PUSH1 0x3 DUP2 SWAP1 SSTORE POP DUP2 PUSH1 0x4 DUP2 SWAP1 SSTORE POP DUP1 PUSH1 0x5 DUP2 SWAP1 SSTORE POP POP POP POP JUMP JUMPDEST PUSH1 0x1 PUSH1 0x4 DUP2 GT ISZERO PUSH2 0xA8D JUMPI PUSH2 0xA8C PUSH2 0x2FDE JUMP JUMPDEST JUMPDEST PUSH1 0x0 PUSH1 0x14 SWAP1 SLOAD SWAP1 PUSH2 0x100 EXP SWAP1 DIV PUSH1 0xFF AND PUSH1 0x4 DUP2 GT ISZERO PUSH2 0xAAF JUMPI PUSH2 0xAAE PUSH2 0x2FDE JUMP JUMPDEST JUMPDEST EQ PUSH2 0xAEF JUMPI PUSH1 0x40 MLOAD PUSH32 0x8C379A000000000000000000000000000000000000000000000000000000000 DUP2 MSTORE PUSH1 0x4 ADD PUSH2 0xAE6 SWAP1 PUSH2 0x2BFF JUMP JUMPDEST PUSH1 0x40 MLOAD DUP1 SWAP2 SUB SWAP1 REVERT JUMPDEST PUSH1 0x2 PUSH1 0x0 PUSH1 0x14 PUSH2 0x100 EXP DUP2 SLOAD DUP2 PUSH1 0xFF MUL NOT AND SWAP1 DUP4 PUSH1 0x4 DUP2 GT ISZERO PUSH2 0xB15 JUMPI PUSH2 0xB14 PUSH2 0x2FDE JUMP JUMPDEST JUMPDEST MUL OR SWAP1 SSTORE POP JUMP JUMPDEST PUSH1 0x0 DUP1 SLOAD SWAP1 PUSH2 0x100 EXP SWAP1 DIV PUSH20 0xFFFFFFFFFFFFFFFFFFFFFFFFFFFFFFFFFFFFFFFF AND PUSH20 0xFFFFFFFFFFFFFFFFFFFFFFFFFFFFFFFFFFFFFFFF AND CALLER PUSH20 0xFFFFFFFFFFFFFFFFFFFFFFFFFFFFFFFFFFFFFFFF AND EQ PUSH2 0xBAA JUMPI PUSH1 0x40 MLOAD PUSH32 0x8C379A000000000000000000000000000000000000000000000000000000000 DUP2 MSTORE PUSH1 0x4 ADD PUSH2 0xBA1 SWAP1 PUSH2 0x2B9F JUMP JUMPDEST PUSH1 0x40 MLOAD DUP1 SWAP2 SUB SWAP1 REVERT JUMPDEST PUSH1 0x2 PUSH1 0x4 DUP2 GT ISZERO PUSH2 0xBBE JUMPI PUSH2 0xBBD PUSH2 0x2FDE JUMP JUMPDEST JUMPDEST PUSH1 0x0 PUSH1 0x14 SWAP1 SLOAD SWAP1 PUSH2 0x100 EXP SWAP1 DIV PUSH1 0xFF AND PUSH1 0x4 DUP2 GT ISZERO PUSH2 0xBE0 JUMPI PUSH2 0xBDF PUSH2 0x2FDE JUMP JUMPDEST JUMPDEST EQ PUSH2 0xC20 JUMPI PUSH1 0x40 MLOAD PUSH32 0x8C379A000000000000000000000000000000000000000000000000000000000 DUP2 MSTORE PUSH1 0x4 ADD PUSH2 0xC17 SWAP1 PUSH2 0x2BFF JUMP JUMPDEST PUSH1 0x40 MLOAD DUP1 SWAP2 SUB SWAP1 REVERT JUMPDEST PUSH1 0x3 PUSH1 0x0 PUSH1 0x14 PUSH2 0x100 EXP DUP2 SLOAD DUP2 PUSH1 0xFF MUL NOT AND SWAP1 DUP4 PUSH1 0x4 DUP2 GT ISZERO PUSH2 0xC46 JUMPI PUSH2 0xC45 PUSH2 0x2FDE JUMP JUMPDEST JUMPDEST MUL OR SWAP1 SSTORE POP JUMP JUMPDEST PUSH1 0x60 PUSH1 0x2 PUSH1 0x4 DUP2 GT ISZERO PUSH2 0xC63 JUMPI PUSH2 0xC62 PUSH2 0x2FDE JUMP JUMPDEST JUMPDEST PUSH1 0x0 PUSH1 0x14 SWAP1 SLOAD SWAP1 PUSH2 0x100 EXP SWAP1 DIV PUSH1 0xFF AND PUSH1 0x4 DUP2 GT ISZERO PUSH2 0xC85 JUMPI PUSH2 0xC84 PUSH2 0x2FDE JUMP JUMPDEST JUMPDEST EQ PUSH2 0xCC5 JUMPI PUSH1 0x40 MLOAD PUSH32 0x8C379A000000000000000000000000000000000000000000000000000000000 DUP2 MSTORE PUSH1 0x4 ADD PUSH2 0xCBC SWAP1 PUSH2 0x2ABF JUMP JUMPDEST PUSH1 0x40 MLOAD DUP1 SWAP2 SUB SWAP1 REVERT JUMPDEST PUSH1 0x0 PUSH1 0x40 MLOAD DUP1 PUSH1 0x20 ADD PUSH1 0x40 MSTORE DUP1 PUSH1 0x0 DUP2 MSTORE POP SWAP1 POP PUSH1 0x0 JUMPDEST PUSH1 0x1 DUP1 SLOAD SWAP1 POP DUP2 LT ISZERO PUSH2 0xDFB JUMPI DUP2 PUSH1 0x40 MLOAD PUSH1 0x20 ADD PUSH2 0xCFA SWAP2 SWAP1 PUSH2 0x2940 JUMP JUMPDEST PUSH1 0x40 MLOAD PUSH1 0x20 DUP2 DUP4 SUB SUB DUP2 MSTORE SWAP1 PUSH1 0x40 MSTORE SWAP2 POP DUP2 PUSH2 0xD3A PUSH1 0x1 DUP4 DUP2 SLOAD DUP2 LT PUSH2 0xD23 JUMPI PUSH2 0xD22 PUSH2 0x303C JUMP JUMPDEST JUMPDEST SWAP1 PUSH1 0x0 MSTORE PUSH1 0x20 PUSH1 0x0 KECCAK256 SWAP1 PUSH1 0x4 MUL ADD PUSH1 0x0 ADD SLOAD PUSH2 0x1977 JUMP JUMPDEST PUSH1 0x40 MLOAD PUSH1 0x20 ADD PUSH2 0xD4B SWAP3 SWAP2 SWAP1 PUSH2 0x28B4 JUMP JUMPDEST PUSH1 0x40 MLOAD PUSH1 0x20 DUP2 DUP4 SUB SUB DUP2 MSTORE SWAP1 PUSH1 0x40 MSTORE SWAP2 POP DUP2 PUSH1 0x40 MLOAD PUSH1 0x20 ADD PUSH2 0xD6D SWAP2 SWAP1 PUSH2 0x291E JUMP JUMPDEST PUSH1 0x40 MLOAD PUSH1 0x20 DUP2 DUP4 SUB SUB DUP2 MSTORE SWAP1 PUSH1 0x40 MSTORE SWAP2 POP DUP2 PUSH1 0x1 DUP3 DUP2 SLOAD DUP2 LT PUSH2 0xD93 JUMPI PUSH2 0xD92 PUSH2 0x303C JUMP JUMPDEST JUMPDEST SWAP1 PUSH1 0x0 MSTORE PUSH1 0x20 PUSH1 0x0 KECCAK256 SWAP1 PUSH1 0x4 MUL ADD PUSH1 0x1 ADD PUSH1 0x40 MLOAD PUSH1 0x20 ADD PUSH2 0xDB5 SWAP3 SWAP2 SWAP1 PUSH2 0x28D8 JUMP JUMPDEST PUSH1 0x40 MLOAD PUSH1 0x20 DUP2 DUP4 SUB SUB DUP2 MSTORE SWAP1 PUSH1 0x40 MSTORE SWAP2 POP DUP2 PUSH1 0x40 MLOAD PUSH1 0x20 ADD PUSH2 0xDD7 SWAP2 SWAP1 PUSH2 0x28FC JUMP JUMPDEST PUSH1 0x40 MLOAD PUSH1 0x20 DUP2 DUP4 SUB SUB DUP2 MSTORE SWAP1 PUSH1 0x40 MSTORE SWAP2 POP DUP1 DUP1 PUSH2 0xDF3 SWAP1 PUSH2 0x2F37 JUMP JUMPDEST SWAP2 POP POP PUSH2 0xCDC JUMP JUMPDEST POP DUP1 SWAP2 POP POP SWAP1 JUMP JUMPDEST PUSH1 0x1 PUSH1 0x4 DUP2 GT ISZERO PUSH2 0xE17 JUMPI PUSH2 0xE16 PUSH2 0x2FDE JUMP JUMPDEST JUMPDEST PUSH1 0x0 PUSH1 0x14 SWAP1 SLOAD SWAP1 PUSH2 0x100 EXP SWAP1 DIV PUSH1 0xFF AND PUSH1 0x4 DUP2 GT ISZERO PUSH2 0xE39 JUMPI PUSH2 0xE38 PUSH2 0x2FDE JUMP JUMPDEST JUMPDEST EQ PUSH2 0xE79 JUMPI PUSH1 0x40 MLOAD PUSH32 0x8C379A000000000000000000000000000000000000000000000000000000000 DUP2 MSTORE PUSH1 0x4 ADD PUSH2 0xE70 SWAP1 PUSH2 0x2B5F JUMP JUMPDEST PUSH1 0x40 MLOAD DUP1 SWAP2 SUB SWAP1 REVERT JUMPDEST PUSH2 0xE81 PUSH2 0x1F83 JUMP JUMPDEST DUP2 DUP2 PUSH1 0x20 ADD DUP2 SWAP1 MSTORE POP PUSH1 0x1 DUP1 SLOAD SWAP1 POP DUP2 PUSH1 0x0 ADD DUP2 DUP2 MSTORE POP POP PUSH1 0x1 DUP2 SWAP1 DUP1 PUSH1 0x1 DUP2 SLOAD ADD DUP1 DUP3 SSTORE DUP1 SWAP2 POP POP PUSH1 0x1 SWAP1 SUB SWAP1 PUSH1 0x0 MSTORE PUSH1 0x20 PUSH1 0x0 KECCAK256 SWAP1 PUSH1 0x4 MUL ADD PUSH1 0x0 SWAP1 SWAP2 SWAP1 SWAP2 SWAP1 SWAP2 POP PUSH1 0x0 DUP3 ADD MLOAD DUP2 PUSH1 0x0 ADD SSTORE PUSH1 0x20 DUP3 ADD MLOAD DUP2 PUSH1 0x1 ADD SWAP1 DUP1 MLOAD SWAP1 PUSH1 0x20 ADD SWAP1 PUSH2 0xEEB SWAP3 SWAP2 SWAP1 PUSH2 0x1FAA JUMP JUMPDEST POP PUSH1 0x40 DUP3 ADD MLOAD DUP2 PUSH1 0x2 ADD PUSH1 0x0 DUP3 ADD MLOAD DUP2 PUSH1 0x0 ADD SSTORE PUSH1 0x20 DUP3 ADD MLOAD DUP2 PUSH1 0x1 ADD SSTORE POP POP POP POP POP POP JUMP JUMPDEST PUSH1 0x0 DUP1 PUSH1 0x0 SWAP1 SLOAD SWAP1 PUSH2 0x100 EXP SWAP1 DIV PUSH20 0xFFFFFFFFFFFFFFFFFFFFFFFFFFFFFFFFFFFFFFFF AND SWAP1 POP SWAP1 JUMP JUMPDEST PUSH1 0x0 JUMPDEST DUP2 MLOAD DUP2 LT ISZERO PUSH2 0x118E JUMPI PUSH1 0x0 DUP3 DUP3 DUP2 MLOAD DUP2 LT PUSH2 0xF5B JUMPI PUSH2 0xF5A PUSH2 0x303C JUMP JUMPDEST JUMPDEST PUSH1 0x20 MUL PUSH1 0x20 ADD ADD MLOAD SWAP1 POP PUSH1 0x1 DUP1 SLOAD SWAP1 POP DUP2 LT PUSH2 0xFAC JUMPI PUSH1 0x40 MLOAD PUSH32 0x8C379A000000000000000000000000000000000000000000000000000000000 DUP2 MSTORE PUSH1 0x4 ADD PUSH2 0xFA3 SWAP1 PUSH2 0x2B1F JUMP JUMPDEST PUSH1 0x40 MLOAD DUP1 SWAP2 SUB SWAP1 REVERT JUMPDEST PUSH1 0x2 PUSH1 0x4 DUP2 GT ISZERO PUSH2 0xFC0 JUMPI PUSH2 0xFBF PUSH2 0x2FDE JUMP JUMPDEST JUMPDEST PUSH1 0x0 PUSH1 0x14 SWAP1 SLOAD SWAP1 PUSH2 0x100 EXP SWAP1 DIV PUSH1 0xFF AND PUSH1 0x4 DUP2 GT ISZERO PUSH2 0xFE2 JUMPI PUSH2 0xFE1 PUSH2 0x2FDE JUMP JUMPDEST JUMPDEST EQ PUSH2 0x1022 JUMPI PUSH1 0x40 MLOAD PUSH32 0x8C379A000000000000000000000000000000000000000000000000000000000 DUP2 MSTORE PUSH1 0x4 ADD PUSH2 0x1019 SWAP1 PUSH2 0x2A3F JUMP JUMPDEST PUSH1 0x40 MLOAD DUP1 SWAP2 SUB SWAP1 REVERT JUMPDEST PUSH1 0x0 PUSH2 0x102D CALLER PUSH2 0x17EC JUMP JUMPDEST SWAP1 POP PUSH1 0x2 DUP1 SLOAD SWAP1 POP DUP2 EQ ISZERO PUSH2 0x1077 JUMPI PUSH1 0x40 MLOAD PUSH32 0x8C379A000000000000000000000000000000000000000000000000000000000 DUP2 MSTORE PUSH1 0x4 ADD PUSH2 0x106E SWAP1 PUSH2 0x29BF JUMP JUMPDEST PUSH1 0x40 MLOAD DUP1 SWAP2 SUB SWAP1 REVERT JUMPDEST PUSH2 0x1081 DUP3 DUP3 PUSH2 0x18A5 JUMP JUMPDEST ISZERO PUSH2 0x10C1 JUMPI PUSH1 0x40 MLOAD PUSH32 0x8C379A000000000000000000000000000000000000000000000000000000000 DUP2 MSTORE PUSH1 0x4 ADD PUSH2 0x10B8 SWAP1 PUSH2 0x2A5F JUMP JUMPDEST PUSH1 0x40 MLOAD DUP1 SWAP2 SUB SWAP1 REVERT JUMPDEST PUSH1 0x3 SLOAD PUSH1 0x2 DUP3 DUP2 SLOAD DUP2 LT PUSH2 0x10D8 JUMPI PUSH2 0x10D7 PUSH2 0x303C JUMP JUMPDEST JUMPDEST SWAP1 PUSH1 0x0 MSTORE PUSH1 0x20 PUSH1 0x0 KECCAK256 SWAP1 PUSH1 0x7 MUL ADD PUSH1 0x2 ADD DUP1 SLOAD SWAP1 POP LT PUSH2 0x112D JUMPI PUSH1 0x40 MLOAD PUSH32 0x8C379A000000000000000000000000000000000000000000000000000000000 DUP2 MSTORE PUSH1 0x4 ADD PUSH2 0x1124 SWAP1 PUSH2 0x2BDF JUMP JUMPDEST PUSH1 0x40 MLOAD DUP1 SWAP2 SUB SWAP1 REVERT JUMPDEST PUSH1 0x2 DUP2 DUP2 SLOAD DUP2 LT PUSH2 0x1141 JUMPI PUSH2 0x1140 PUSH2 0x303C JUMP JUMPDEST JUMPDEST SWAP1 PUSH1 0x0 MSTORE PUSH1 0x20 PUSH1 0x0 KECCAK256 SWAP1 PUSH1 0x7 MUL ADD PUSH1 0x2 ADD DUP3 SWAP1 DUP1 PUSH1 0x1 DUP2 SLOAD ADD DUP1 DUP3 SSTORE DUP1 SWAP2 POP POP PUSH1 0x1 SWAP1 SUB SWAP1 PUSH1 0x0 MSTORE PUSH1 0x20 PUSH1 0x0 KECCAK256 ADD PUSH1 0x0 SWAP1 SWAP2 SWAP1 SWAP2 SWAP1 SWAP2 POP SSTORE POP POP DUP1 DUP1 PUSH2 0x1186 SWAP1 PUSH2 0x2F37 JUMP JUMPDEST SWAP2 POP POP PUSH2 0xF3D JUMP JUMPDEST POP POP JUMP JUMPDEST PUSH1 0x4 DUP1 DUP2 GT ISZERO PUSH2 0x11A5 JUMPI PUSH2 0x11A4 PUSH2 0x2FDE JUMP JUMPDEST JUMPDEST PUSH1 0x0 PUSH1 0x14 SWAP1 SLOAD SWAP1 PUSH2 0x100 EXP SWAP1 DIV PUSH1 0xFF AND PUSH1 0x4 DUP2 GT ISZERO PUSH2 0x11C7 JUMPI PUSH2 0x11C6 PUSH2 0x2FDE JUMP JUMPDEST JUMPDEST EQ PUSH2 0x1207 JUMPI PUSH1 0x40 MLOAD PUSH32 0x8C379A000000000000000000000000000000000000000000000000000000000 DUP2 MSTORE PUSH1 0x4 ADD PUSH2 0x11FE SWAP1 PUSH2 0x29FF JUMP JUMPDEST PUSH1 0x40 MLOAD DUP1 SWAP2 SUB SWAP1 REVERT JUMPDEST PUSH1 0x0 JUMPDEST PUSH1 0x2 DUP1 SLOAD SWAP1 POP DUP2 LT ISZERO PUSH2 0x1494 JUMPI PUSH1 0x0 PUSH1 0x2 DUP3 DUP2 SLOAD DUP2 LT PUSH2 0x122D JUMPI PUSH2 0x122C PUSH2 0x303C JUMP JUMPDEST JUMPDEST SWAP1 PUSH1 0x0 MSTORE PUSH1 0x20 PUSH1 0x0 KECCAK256 SWAP1 PUSH1 0x7 MUL ADD PUSH1 0x40 MLOAD DUP1 PUSH1 0xE0 ADD PUSH1 0x40 MSTORE SWAP1 DUP2 PUSH1 0x0 DUP3 ADD PUSH1 0x0 SWAP1 SLOAD SWAP1 PUSH2 0x100 EXP SWAP1 DIV PUSH20 0xFFFFFFFFFFFFFFFFFFFFFFFFFFFFFFFFFFFFFFFF AND PUSH20 0xFFFFFFFFFFFFFFFFFFFFFFFFFFFFFFFFFFFFFFFF AND PUSH20 0xFFFFFFFFFFFFFFFFFFFFFFFFFFFFFFFFFFFFFFFF AND DUP2 MSTORE PUSH1 0x20 ADD PUSH1 0x1 DUP3 ADD DUP1 SLOAD PUSH2 0x12AC SWAP1 PUSH2 0x2ED4 JUMP JUMPDEST DUP1 PUSH1 0x1F ADD PUSH1 0x20 DUP1 SWAP2 DIV MUL PUSH1 0x20 ADD PUSH1 0x40 MLOAD SWAP1 DUP2 ADD PUSH1 0x40 MSTORE DUP1 SWAP3 SWAP2 SWAP1 DUP2 DUP2 MSTORE PUSH1 0x20 ADD DUP3 DUP1 SLOAD PUSH2 0x12D8 SWAP1 PUSH2 0x2ED4 JUMP JUMPDEST DUP1 ISZERO PUSH2 0x1325 JUMPI DUP1 PUSH1 0x1F LT PUSH2 0x12FA JUMPI PUSH2 0x100 DUP1 DUP4 SLOAD DIV MUL DUP4 MSTORE SWAP2 PUSH1 0x20 ADD SWAP2 PUSH2 0x1325 JUMP JUMPDEST DUP3 ADD SWAP2 SWAP1 PUSH1 0x0 MSTORE PUSH1 0x20 PUSH1 0x0 KECCAK256 SWAP1 JUMPDEST DUP2 SLOAD DUP2 MSTORE SWAP1 PUSH1 0x1 ADD SWAP1 PUSH1 0x20 ADD DUP1 DUP4 GT PUSH2 0x1308 JUMPI DUP3 SWAP1 SUB PUSH1 0x1F AND DUP3 ADD SWAP2 JUMPDEST POP POP POP POP POP DUP2 MSTORE PUSH1 0x20 ADD PUSH1 0x2 DUP3 ADD DUP1 SLOAD DUP1 PUSH1 0x20 MUL PUSH1 0x20 ADD PUSH1 0x40 MLOAD SWAP1 DUP2 ADD PUSH1 0x40 MSTORE DUP1 SWAP3 SWAP2 SWAP1 DUP2 DUP2 MSTORE PUSH1 0x20 ADD DUP3 DUP1 SLOAD DUP1 ISZERO PUSH2 0x137D JUMPI PUSH1 0x20 MUL DUP3 ADD SWAP2 SWAP1 PUSH1 0x0 MSTORE PUSH1 0x20 PUSH1 0x0 KECCAK256 SWAP1 JUMPDEST DUP2 SLOAD DUP2 MSTORE PUSH1 0x20 ADD SWAP1 PUSH1 0x1 ADD SWAP1 DUP1 DUP4 GT PUSH2 0x1369 JUMPI JUMPDEST POP POP POP POP POP DUP2 MSTORE PUSH1 0x20 ADD PUSH1 0x3 DUP3 ADD SLOAD DUP2 MSTORE PUSH1 0x20 ADD PUSH1 0x4 DUP3 ADD SLOAD DUP2 MSTORE PUSH1 0x20 ADD PUSH1 0x5 DUP3 ADD SLOAD DUP2 MSTORE PUSH1 0x20 ADD PUSH1 0x6 DUP3 ADD SLOAD DUP2 MSTORE POP POP SWAP1 POP PUSH1 0x0 JUMPDEST DUP2 PUSH1 0x40 ADD MLOAD MLOAD DUP2 LT ISZERO PUSH2 0x147F JUMPI PUSH2 0x1431 DUP3 PUSH1 0x40 ADD MLOAD DUP3 DUP2 MLOAD DUP2 LT PUSH2 0x13DA JUMPI PUSH2 0x13D9 PUSH2 0x303C JUMP JUMPDEST JUMPDEST PUSH1 0x20 MUL PUSH1 0x20 ADD ADD MLOAD DUP4 PUSH1 0x40 ADD MLOAD DUP4 DUP2 MLOAD DUP2 LT PUSH2 0x13F9 JUMPI PUSH2 0x13F8 PUSH2 0x303C JUMP JUMPDEST JUMPDEST PUSH1 0x20 MUL PUSH1 0x20 ADD ADD MLOAD DUP5 PUSH1 0x60 ADD MLOAD EQ DUP5 PUSH1 0x40 ADD MLOAD DUP5 DUP2 MLOAD DUP2 LT PUSH2 0x141E JUMPI PUSH2 0x141D PUSH2 0x303C JUMP JUMPDEST JUMPDEST PUSH1 0x20 MUL PUSH1 0x20 ADD ADD MLOAD DUP6 PUSH1 0x80 ADD MLOAD EQ PUSH2 0x1B00 JUMP JUMPDEST PUSH1 0x2 DUP5 DUP2 SLOAD DUP2 LT PUSH2 0x1445 JUMPI PUSH2 0x1444 PUSH2 0x303C JUMP JUMPDEST JUMPDEST SWAP1 PUSH1 0x0 MSTORE PUSH1 0x20 PUSH1 0x0 KECCAK256 SWAP1 PUSH1 0x7 MUL ADD PUSH1 0x6 ADD PUSH1 0x0 DUP3 DUP3 SLOAD PUSH2 0x1465 SWAP2 SWAP1 PUSH2 0x2CFD JUMP JUMPDEST SWAP3 POP POP DUP2 SWAP1 SSTORE POP DUP1 DUP1 PUSH2 0x1477 SWAP1 PUSH2 0x2F37 JUMP JUMPDEST SWAP2 POP POP PUSH2 0x13B3 JUMP JUMPDEST POP POP DUP1 DUP1 PUSH2 0x148C SWAP1 PUSH2 0x2F37 JUMP JUMPDEST SWAP2 POP POP PUSH2 0x120A JUMP JUMPDEST POP PUSH2 0x149D PUSH2 0x1C02 JUMP JUMPDEST PUSH1 0x0 DUP1 PUSH1 0x14 PUSH2 0x100 EXP DUP2 SLOAD DUP2 PUSH1 0xFF MUL NOT AND SWAP1 DUP4 PUSH1 0x4 DUP2 GT ISZERO PUSH2 0x14C2 JUMPI PUSH2 0x14C1 PUSH2 0x2FDE JUMP JUMPDEST JUMPDEST MUL OR SWAP1 SSTORE POP JUMP JUMPDEST PUSH1 0x2 PUSH1 0x4 DUP2 GT ISZERO PUSH2 0x14DD JUMPI PUSH2 0x14DC PUSH2 0x2FDE JUMP JUMPDEST JUMPDEST PUSH1 0x0 PUSH1 0x14 SWAP1 SLOAD SWAP1 PUSH2 0x100 EXP SWAP1 DIV PUSH1 0xFF AND PUSH1 0x4 DUP2 GT ISZERO PUSH2 0x14FF JUMPI PUSH2 0x14FE PUSH2 0x2FDE JUMP JUMPDEST JUMPDEST EQ PUSH2 0x153F JUMPI PUSH1 0x40 MLOAD PUSH32 0x8C379A000000000000000000000000000000000000000000000000000000000 DUP2 MSTORE PUSH1 0x4 ADD PUSH2 0x1536 SWAP1 PUSH2 0x2B3F JUMP JUMPDEST PUSH1 0x40 MLOAD DUP1 SWAP2 SUB SWAP1 REVERT JUMPDEST PUSH1 0x0 PUSH2 0x154A CALLER PUSH2 0x17EC JUMP JUMPDEST SWAP1 POP PUSH1 0x2 DUP1 SLOAD SWAP1 POP DUP2 EQ PUSH2 0x1593 JUMPI PUSH1 0x40 MLOAD PUSH32 0x8C379A000000000000000000000000000000000000000000000000000000000 DUP2 MSTORE PUSH1 0x4 ADD PUSH2 0x158A SWAP1 PUSH2 0x29DF JUMP JUMPDEST PUSH1 0x40 MLOAD DUP1 SWAP2 SUB SWAP1 REVERT JUMPDEST PUSH2 0x159B PUSH2 0x2030 JUMP JUMPDEST DUP3 DUP2 PUSH1 0x20 ADD DUP2 SWAP1 MSTORE POP CALLER DUP2 PUSH1 0x0 ADD SWAP1 PUSH20 0xFFFFFFFFFFFFFFFFFFFFFFFFFFFFFFFFFFFFFFFF AND SWAP1 DUP2 PUSH20 0xFFFFFFFFFFFFFFFFFFFFFFFFFFFFFFFFFFFFFFFF AND DUP2 MSTORE POP POP PUSH1 0x0 DUP2 PUSH1 0x60 ADD DUP2 DUP2 MSTORE POP POP PUSH1 0x1 DUP2 PUSH1 0x80 ADD DUP2 DUP2 MSTORE POP POP PUSH1 0x2 DUP2 SWAP1 DUP1 PUSH1 0x1 DUP2 SLOAD ADD DUP1 DUP3 SSTORE DUP1 SWAP2 POP POP PUSH1 0x1 SWAP1 SUB SWAP1 PUSH1 0x0 MSTORE PUSH1 0x20 PUSH1 0x0 KECCAK256 SWAP1 PUSH1 0x7 MUL ADD PUSH1 0x0 SWAP1 SWAP2 SWAP1 SWAP2 SWAP1 SWAP2 POP PUSH1 0x0 DUP3 ADD MLOAD DUP2 PUSH1 0x0 ADD PUSH1 0x0 PUSH2 0x100 EXP DUP2 SLOAD DUP2 PUSH20 0xFFFFFFFFFFFFFFFFFFFFFFFFFFFFFFFFFFFFFFFF MUL NOT AND SWAP1 DUP4 PUSH20 0xFFFFFFFFFFFFFFFFFFFFFFFFFFFFFFFFFFFFFFFF AND MUL OR SWAP1 SSTORE POP PUSH1 0x20 DUP3 ADD MLOAD DUP2 PUSH1 0x1 ADD SWAP1 DUP1 MLOAD SWAP1 PUSH1 0x20 ADD SWAP1 PUSH2 0x1681 SWAP3 SWAP2 SWAP1 PUSH2 0x1FAA JUMP JUMPDEST POP PUSH1 0x40 DUP3 ADD MLOAD DUP2 PUSH1 0x2 ADD SWAP1 DUP1 MLOAD SWAP1 PUSH1 0x20 ADD SWAP1 PUSH2 0x169E SWAP3 SWAP2 SWAP1 PUSH2 0x2083 JUMP JUMPDEST POP PUSH1 0x60 DUP3 ADD MLOAD DUP2 PUSH1 0x3 ADD SSTORE PUSH1 0x80 DUP3 ADD MLOAD DUP2 PUSH1 0x4 ADD SSTORE PUSH1 0xA0 DUP3 ADD MLOAD DUP2 PUSH1 0x5 ADD SSTORE PUSH1 0xC0 DUP3 ADD MLOAD DUP2 PUSH1 0x6 ADD SSTORE POP POP POP POP POP JUMP JUMPDEST DUP3 PUSH1 0x1 DUP1 SLOAD SWAP1 POP DUP2 LT PUSH2 0x1716 JUMPI PUSH1 0x40 MLOAD PUSH32 0x8C379A000000000000000000000000000000000000000000000000000000000 DUP2 MSTORE PUSH1 0x4 ADD PUSH2 0x170D SWAP1 PUSH2 0x2B1F JUMP JUMPDEST PUSH1 0x40 MLOAD DUP1 SWAP2 SUB SWAP1 REVERT JUMPDEST PUSH1 0x3 PUSH1 0x4 DUP2 GT ISZERO PUSH2 0x172A JUMPI PUSH2 0x1729 PUSH2 0x2FDE JUMP JUMPDEST JUMPDEST PUSH1 0x0 PUSH1 0x14 SWAP1 SLOAD SWAP1 PUSH2 0x100 EXP SWAP1 DIV PUSH1 0xFF AND PUSH1 0x4 DUP2 GT ISZERO PUSH2 0x174C JUMPI PUSH2 0x174B PUSH2 0x2FDE JUMP JUMPDEST JUMPDEST EQ PUSH2 0x178C JUMPI PUSH1 0x40 MLOAD PUSH32 0x8C379A000000000000000000000000000000000000000000000000000000000 DUP2 MSTORE PUSH1 0x4 ADD PUSH2 0x1783 SWAP1 PUSH2 0x2A7F JUMP JUMPDEST PUSH1 0x40 MLOAD DUP1 SWAP2 SUB SWAP1 REVERT JUMPDEST DUP3 PUSH1 0x1 DUP6 DUP2 SLOAD DUP2 LT PUSH2 0x17A1 JUMPI PUSH2 0x17A0 PUSH2 0x303C JUMP JUMPDEST JUMPDEST SWAP1 PUSH1 0x0 MSTORE PUSH1 0x20 PUSH1 0x0 KECCAK256 SWAP1 PUSH1 0x4 MUL ADD PUSH1 0x2 ADD PUSH1 0x0 ADD DUP2 SWAP1 SSTORE POP DUP2 PUSH1 0x1 DUP6 DUP2 SLOAD DUP2 LT PUSH2 0x17CE JUMPI PUSH2 0x17CD PUSH2 0x303C JUMP JUMPDEST JUMPDEST SWAP1 PUSH1 0x0 MSTORE PUSH1 0x20 PUSH1 0x0 KECCAK256 SWAP1 PUSH1 0x4 MUL ADD PUSH1 0x2 ADD PUSH1 0x1 ADD DUP2 SWAP1 SSTORE POP POP POP POP POP JUMP JUMPDEST PUSH1 0x0 DUP1 PUSH1 0x0 SWAP1 POP JUMPDEST PUSH1 0x2 DUP1 SLOAD SWAP1 POP DUP2 LT ISZERO PUSH2 0x1896 JUMPI DUP3 PUSH20 0xFFFFFFFFFFFFFFFFFFFFFFFFFFFFFFFFFFFFFFFF AND PUSH1 0x2 DUP3 DUP2 SLOAD DUP2 LT PUSH2 0x182C JUMPI PUSH2 0x182B PUSH2 0x303C JUMP JUMPDEST JUMPDEST SWAP1 PUSH1 0x0 MSTORE PUSH1 0x20 PUSH1 0x0 KECCAK256 SWAP1 PUSH1 0x7 MUL ADD PUSH1 0x0 ADD PUSH1 0x0 SWAP1 SLOAD SWAP1 PUSH2 0x100 EXP SWAP1 DIV PUSH20 0xFFFFFFFFFFFFFFFFFFFFFFFFFFFFFFFFFFFFFFFF AND PUSH20 0xFFFFFFFFFFFFFFFFFFFFFFFFFFFFFFFFFFFFFFFF AND EQ ISZERO PUSH2 0x1883 JUMPI DUP1 SWAP2 POP POP PUSH2 0x18A0 JUMP JUMPDEST DUP1 DUP1 PUSH2 0x188E SWAP1 PUSH2 0x2F37 JUMP JUMPDEST SWAP2 POP POP PUSH2 0x17F4 JUMP JUMPDEST POP PUSH1 0x2 DUP1 SLOAD SWAP1 POP SWAP1 POP JUMPDEST SWAP2 SWAP1 POP JUMP JUMPDEST PUSH1 0x0 DUP1 PUSH1 0x2 DUP4 DUP2 SLOAD DUP2 LT PUSH2 0x18BC JUMPI PUSH2 0x18BB PUSH2 0x303C JUMP JUMPDEST JUMPDEST SWAP1 PUSH1 0x0 MSTORE PUSH1 0x20 PUSH1 0x0 KECCAK256 SWAP1 PUSH1 0x7 MUL ADD PUSH1 0x2 ADD DUP1 SLOAD DUP1 PUSH1 0x20 MUL PUSH1 0x20 ADD PUSH1 0x40 MLOAD SWAP1 DUP2 ADD PUSH1 0x40 MSTORE DUP1 SWAP3 SWAP2 SWAP1 DUP2 DUP2 MSTORE PUSH1 0x20 ADD DUP3 DUP1 SLOAD DUP1 ISZERO PUSH2 0x1917 JUMPI PUSH1 0x20 MUL DUP3 ADD SWAP2 SWAP1 PUSH1 0x0 MSTORE PUSH1 0x20 PUSH1 0x0 KECCAK256 SWAP1 JUMPDEST DUP2 SLOAD DUP2 MSTORE PUSH1 0x20 ADD SWAP1 PUSH1 0x1 ADD SWAP1 DUP1 DUP4 GT PUSH2 0x1903 JUMPI JUMPDEST POP POP POP POP POP SWAP1 POP PUSH1 0x0 JUMPDEST DUP2 MLOAD DUP2 LT ISZERO PUSH2 0x196A JUMPI DUP5 DUP3 DUP3 DUP2 MLOAD DUP2 LT PUSH2 0x193E JUMPI PUSH2 0x193D PUSH2 0x303C JUMP JUMPDEST JUMPDEST PUSH1 0x20 MUL PUSH1 0x20 ADD ADD MLOAD EQ ISZERO PUSH2 0x1957 JUMPI PUSH1 0x1 SWAP3 POP POP POP PUSH2 0x1971 JUMP JUMPDEST DUP1 DUP1 PUSH2 0x1962 SWAP1 PUSH2 0x2F37 JUMP JUMPDEST SWAP2 POP POP PUSH2 0x1921 JUMP JUMPDEST POP PUSH1 0x0 SWAP2 POP POP JUMPDEST SWAP3 SWAP2 POP POP JUMP JUMPDEST PUSH1 0x60 PUSH1 0x0 DUP3 EQ ISZERO PUSH2 0x19BF JUMPI PUSH1 0x40 MLOAD DUP1 PUSH1 0x40 ADD PUSH1 0x40 MSTORE DUP1 PUSH1 0x1 DUP2 MSTORE PUSH1 0x20 ADD PUSH32 0x3000000000000000000000000000000000000000000000000000000000000000 DUP2 MSTORE POP SWAP1 POP PUSH2 0x1AFB JUMP JUMPDEST PUSH1 0x0 DUP3 SWAP1 POP PUSH1 0x0 JUMPDEST PUSH1 0x0 DUP3 EQ PUSH2 0x19F1 JUMPI DUP1 DUP1 PUSH2 0x19DA SWAP1 PUSH2 0x2F37 JUMP JUMPDEST SWAP2 POP POP PUSH1 0xA DUP3 PUSH2 0x19EA SWAP2 SWAP1 PUSH2 0x2D8A JUMP JUMPDEST SWAP2 POP PUSH2 0x19C7 JUMP JUMPDEST PUSH1 0x0 DUP2 PUSH8 0xFFFFFFFFFFFFFFFF DUP2 GT ISZERO PUSH2 0x1A0D JUMPI PUSH2 0x1A0C PUSH2 0x306B JUMP JUMPDEST JUMPDEST PUSH1 0x40 MLOAD SWAP1 DUP1 DUP3 MSTORE DUP1 PUSH1 0x1F ADD PUSH1 0x1F NOT AND PUSH1 0x20 ADD DUP3 ADD PUSH1 0x40 MSTORE DUP1 ISZERO PUSH2 0x1A3F JUMPI DUP2 PUSH1 0x20 ADD PUSH1 0x1 DUP3 MUL DUP1 CALLDATASIZE DUP4 CALLDATACOPY DUP1 DUP3 ADD SWAP2 POP POP SWAP1 POP JUMPDEST POP SWAP1 POP PUSH1 0x0 DUP3 SWAP1 POP JUMPDEST PUSH1 0x0 DUP7 EQ PUSH2 0x1AF3 JUMPI PUSH1 0x1 DUP2 PUSH2 0x1A5D SWAP2 SWAP1 PUSH2 0x2E15 JUMP JUMPDEST SWAP1 POP PUSH1 0x0 PUSH1 0xA DUP1 DUP9 PUSH2 0x1A6F SWAP2 SWAP1 PUSH2 0x2D8A JUMP JUMPDEST PUSH2 0x1A79 SWAP2 SWAP1 PUSH2 0x2DBB JUMP JUMPDEST DUP8 PUSH2 0x1A84 SWAP2 SWAP1 PUSH2 0x2E15 JUMP JUMPDEST PUSH1 0x30 PUSH2 0x1A90 SWAP2 SWAP1 PUSH2 0x2D53 JUMP JUMPDEST SWAP1 POP PUSH1 0x0 DUP2 PUSH1 0xF8 SHL SWAP1 POP DUP1 DUP5 DUP5 DUP2 MLOAD DUP2 LT PUSH2 0x1AAE JUMPI PUSH2 0x1AAD PUSH2 0x303C JUMP JUMPDEST JUMPDEST PUSH1 0x20 ADD ADD SWAP1 PUSH31 0xFFFFFFFFFFFFFFFFFFFFFFFFFFFFFFFFFFFFFFFFFFFFFFFFFFFFFFFFFFFFFF NOT AND SWAP1 DUP2 PUSH1 0x0 BYTE SWAP1 MSTORE8 POP PUSH1 0xA DUP9 PUSH2 0x1AEA SWAP2 SWAP1 PUSH2 0x2D8A JUMP JUMPDEST SWAP8 POP POP POP PUSH2 0x1A48 JUMP JUMPDEST DUP2 SWAP5 POP POP POP POP POP JUMPDEST SWAP2 SWAP1 POP JUMP JUMPDEST PUSH1 0x0 DUP3 DUP1 ISZERO PUSH2 0x1B0C JUMPI POP DUP2 JUMPDEST ISZERO PUSH2 0x1B4C JUMPI PUSH1 0x40 MLOAD PUSH32 0x8C379A000000000000000000000000000000000000000000000000000000000 DUP2 MSTORE PUSH1 0x4 ADD PUSH2 0x1B43 SWAP1 PUSH2 0x2A1F JUMP JUMPDEST PUSH1 0x40 MLOAD DUP1 SWAP2 SUB SWAP1 REVERT JUMPDEST PUSH1 0x0 PUSH1 0x5 SLOAD PUSH1 0x1 DUP7 DUP2 SLOAD DUP2 LT PUSH2 0x1B65 JUMPI PUSH2 0x1B64 PUSH2 0x303C JUMP JUMPDEST JUMPDEST SWAP1 PUSH1 0x0 MSTORE PUSH1 0x20 PUSH1 0x0 KECCAK256 SWAP1 PUSH1 0x4 MUL ADD PUSH1 0x2 ADD PUSH1 0x1 ADD SLOAD PUSH2 0x1B84 SWAP2 SWAP1 PUSH2 0x2DBB JUMP JUMPDEST PUSH1 0x4 SLOAD PUSH1 0x1 DUP8 DUP2 SLOAD DUP2 LT PUSH2 0x1B9B JUMPI PUSH2 0x1B9A PUSH2 0x303C JUMP JUMPDEST JUMPDEST SWAP1 PUSH1 0x0 MSTORE PUSH1 0x20 PUSH1 0x0 KECCAK256 SWAP1 PUSH1 0x4 MUL ADD PUSH1 0x2 ADD PUSH1 0x0 ADD SLOAD PUSH2 0x1BBA SWAP2 SWAP1 PUSH2 0x2DBB JUMP JUMPDEST PUSH2 0x1BC4 SWAP2 SWAP1 PUSH2 0x2CFD JUMP JUMPDEST SWAP1 POP DUP4 ISZERO PUSH2 0x1BE0 JUMPI PUSH1 0x3 DUP2 PUSH2 0x1BD9 SWAP2 SWAP1 PUSH2 0x2DBB JUMP JUMPDEST SWAP1 POP PUSH2 0x1BF7 JUMP JUMPDEST DUP3 ISZERO PUSH2 0x1BF6 JUMPI PUSH1 0x2 DUP2 PUSH2 0x1BF3 SWAP2 SWAP1 PUSH2 0x2DBB JUMP JUMPDEST SWAP1 POP JUMPDEST JUMPDEST DUP1 SWAP2 POP POP SWAP4 SWAP3 POP POP POP JUMP JUMPDEST PUSH1 0x0 DUP1 SLOAD SWAP1 PUSH2 0x100 EXP SWAP1 DIV PUSH20 0xFFFFFFFFFFFFFFFFFFFFFFFFFFFFFFFFFFFFFFFF AND PUSH20 0xFFFFFFFFFFFFFFFFFFFFFFFFFFFFFFFFFFFFFFFF AND CALLER PUSH20 0xFFFFFFFFFFFFFFFFFFFFFFFFFFFFFFFFFFFFFFFF AND EQ PUSH2 0x1C90 JUMPI PUSH1 0x40 MLOAD PUSH32 0x8C379A000000000000000000000000000000000000000000000000000000000 DUP2 MSTORE PUSH1 0x4 ADD PUSH2 0x1C87 SWAP1 PUSH2 0x2B9F JUMP JUMPDEST PUSH1 0x40 MLOAD DUP1 SWAP2 SUB SWAP1 REVERT JUMPDEST PUSH1 0x0 DUP1 PUSH1 0x0 JUMPDEST PUSH1 0x2 DUP1 SLOAD SWAP1 POP DUP2 LT ISZERO PUSH2 0x1D4C JUMPI PUSH1 0x2 DUP2 DUP2 SLOAD DUP2 LT PUSH2 0x1CB7 JUMPI PUSH2 0x1CB6 PUSH2 0x303C JUMP JUMPDEST JUMPDEST SWAP1 PUSH1 0x0 MSTORE PUSH1 0x20 PUSH1 0x0 KECCAK256 SWAP1 PUSH1 0x7 MUL ADD PUSH1 0x6 ADD SLOAD PUSH1 0x2 DUP3 DUP2 SLOAD DUP2 LT PUSH2 0x1CDD JUMPI PUSH2 0x1CDC PUSH2 0x303C JUMP JUMPDEST JUMPDEST SWAP1 PUSH1 0x0 MSTORE PUSH1 0x20 PUSH1 0x0 KECCAK256 SWAP1 PUSH1 0x7 MUL ADD PUSH1 0x5 ADD SLOAD PUSH2 0x1CF9 SWAP2 SWAP1 PUSH2 0x2DBB JUMP JUMPDEST DUP4 PUSH2 0x1D04 SWAP2 SWAP1 PUSH2 0x2CFD JUMP JUMPDEST SWAP3 POP PUSH1 0x2 DUP2 DUP2 SLOAD DUP2 LT PUSH2 0x1D1A JUMPI PUSH2 0x1D19 PUSH2 0x303C JUMP JUMPDEST JUMPDEST SWAP1 PUSH1 0x0 MSTORE PUSH1 0x20 PUSH1 0x0 KECCAK256 SWAP1 PUSH1 0x7 MUL ADD PUSH1 0x5 ADD SLOAD DUP3 PUSH2 0x1D37 SWAP2 SWAP1 PUSH2 0x2CFD JUMP JUMPDEST SWAP2 POP DUP1 DUP1 PUSH2 0x1D44 SWAP1 PUSH2 0x2F37 JUMP JUMPDEST SWAP2 POP POP PUSH2 0x1C96 JUMP JUMPDEST POP PUSH1 0x0 PUSH1 0x64 DUP3 PUSH1 0xA PUSH2 0x1D5E SWAP2 SWAP1 PUSH2 0x2DBB JUMP JUMPDEST PUSH2 0x1D68 SWAP2 SWAP1 PUSH2 0x2D8A JUMP JUMPDEST SWAP1 POP DUP1 DUP3 PUSH2 0x1D76 SWAP2 SWAP1 PUSH2 0x2E15 JUMP JUMPDEST SWAP2 POP PUSH1 0x0 DUP1 SLOAD SWAP1 PUSH2 0x100 EXP SWAP1 DIV PUSH20 0xFFFFFFFFFFFFFFFFFFFFFFFFFFFFFFFFFFFFFFFF AND PUSH20 0xFFFFFFFFFFFFFFFFFFFFFFFFFFFFFFFFFFFFFFFF AND PUSH2 0x8FC DUP3 SWAP1 DUP2 ISZERO MUL SWAP1 PUSH1 0x40 MLOAD PUSH1 0x0 PUSH1 0x40 MLOAD DUP1 DUP4 SUB DUP2 DUP6 DUP9 DUP9 CALL SWAP4 POP POP POP POP ISZERO DUP1 ISZERO PUSH2 0x1DDE JUMPI RETURNDATASIZE PUSH1 0x0 DUP1 RETURNDATACOPY RETURNDATASIZE PUSH1 0x0 REVERT JUMPDEST POP PUSH1 0x0 JUMPDEST PUSH1 0x2 DUP1 SLOAD SWAP1 POP DUP2 LT ISZERO PUSH2 0x1F35 JUMPI PUSH1 0x0 DUP1 DUP6 EQ ISZERO PUSH2 0x1E26 JUMPI PUSH1 0x2 DUP3 DUP2 SLOAD DUP2 LT PUSH2 0x1E0D JUMPI PUSH2 0x1E0C PUSH2 0x303C JUMP JUMPDEST JUMPDEST SWAP1 PUSH1 0x0 MSTORE PUSH1 0x20 PUSH1 0x0 KECCAK256 SWAP1 PUSH1 0x7 MUL ADD PUSH1 0x5 ADD SLOAD SWAP1 POP PUSH2 0x1E95 JUMP JUMPDEST DUP5 DUP5 PUSH1 0x2 DUP5 DUP2 SLOAD DUP2 LT PUSH2 0x1E3C JUMPI PUSH2 0x1E3B PUSH2 0x303C JUMP JUMPDEST JUMPDEST SWAP1 PUSH1 0x0 MSTORE PUSH1 0x20 PUSH1 0x0 KECCAK256 SWAP1 PUSH1 0x7 MUL ADD PUSH1 0x6 ADD SLOAD PUSH1 0x2 DUP6 DUP2 SLOAD DUP2 LT PUSH2 0x1E62 JUMPI PUSH2 0x1E61 PUSH2 0x303C JUMP JUMPDEST JUMPDEST SWAP1 PUSH1 0x0 MSTORE PUSH1 0x20 PUSH1 0x0 KECCAK256 SWAP1 PUSH1 0x7 MUL ADD PUSH1 0x5 ADD SLOAD PUSH2 0x1E7E SWAP2 SWAP1 PUSH2 0x2DBB JUMP JUMPDEST PUSH2 0x1E88 SWAP2 SWAP1 PUSH2 0x2DBB JUMP JUMPDEST PUSH2 0x1E92 SWAP2 SWAP1 PUSH2 0x2D8A JUMP JUMPDEST SWAP1 POP JUMPDEST PUSH1 0x2 DUP3 DUP2 SLOAD DUP2 LT PUSH2 0x1EA9 JUMPI PUSH2 0x1EA8 PUSH2 0x303C JUMP JUMPDEST JUMPDEST SWAP1 PUSH1 0x0 MSTORE PUSH1 0x20 PUSH1 0x0 KECCAK256 SWAP1 PUSH1 0x7 MUL ADD PUSH1 0x0 ADD PUSH1 0x0 SWAP1 SLOAD SWAP1 PUSH2 0x100 EXP SWAP1 DIV PUSH20 0xFFFFFFFFFFFFFFFFFFFFFFFFFFFFFFFFFFFFFFFF AND PUSH20 0xFFFFFFFFFFFFFFFFFFFFFFFFFFFFFFFFFFFFFFFF AND PUSH2 0x8FC DUP3 SWAP1 DUP2 ISZERO MUL SWAP1 PUSH1 0x40 MLOAD PUSH1 0x0 PUSH1 0x40 MLOAD DUP1 DUP4 SUB DUP2 DUP6 DUP9 DUP9 CALL SWAP4 POP POP POP POP ISZERO DUP1 ISZERO PUSH2 0x1F20 JUMPI RETURNDATASIZE PUSH1 0x0 DUP1 RETURNDATACOPY RETURNDATASIZE PUSH1 0x0 REVERT JUMPDEST POP POP DUP1 DUP1 PUSH2 0x1F2D SWAP1 PUSH2 0x2F37 JUMP JUMPDEST SWAP2 POP POP PUSH2 0x1DE2 JUMP JUMPDEST POP POP POP POP JUMP JUMPDEST POP DUP1 SLOAD PUSH1 0x0 DUP3 SSTORE PUSH1 0x4 MUL SWAP1 PUSH1 0x0 MSTORE PUSH1 0x20 PUSH1 0x0 KECCAK256 SWAP1 DUP2 ADD SWAP1 PUSH2 0x1F5C SWAP2 SWAP1 PUSH2 0x20D0 JUMP JUMPDEST POP JUMP JUMPDEST POP DUP1 SLOAD PUSH1 0x0 DUP3 SSTORE PUSH1 0x7 MUL SWAP1 PUSH1 0x0 MSTORE PUSH1 0x20 PUSH1 0x0 KECCAK256 SWAP1 DUP2 ADD SWAP1 PUSH2 0x1F80 SWAP2 SWAP1 PUSH2 0x2116 JUMP JUMPDEST POP JUMP JUMPDEST PUSH1 0x40 MLOAD DUP1 PUSH1 0x60 ADD PUSH1 0x40 MSTORE DUP1 PUSH1 0x0 DUP2 MSTORE PUSH1 0x20 ADD PUSH1 0x60 DUP2 MSTORE PUSH1 0x20 ADD PUSH2 0x1FA4 PUSH2 0x2194 JUMP JUMPDEST DUP2 MSTORE POP SWAP1 JUMP JUMPDEST DUP3 DUP1 SLOAD PUSH2 0x1FB6 SWAP1 PUSH2 0x2ED4 JUMP JUMPDEST SWAP1 PUSH1 0x0 MSTORE PUSH1 0x20 PUSH1 0x0 KECCAK256 SWAP1 PUSH1 0x1F ADD PUSH1 0x20 SWAP1 DIV DUP2 ADD SWAP3 DUP3 PUSH2 0x1FD8 JUMPI PUSH1 0x0 DUP6 SSTORE PUSH2 0x201F JUMP JUMPDEST DUP3 PUSH1 0x1F LT PUSH2 0x1FF1 JUMPI DUP1 MLOAD PUSH1 0xFF NOT AND DUP4 DUP1 ADD OR DUP6 SSTORE PUSH2 0x201F JUMP JUMPDEST DUP3 DUP1 ADD PUSH1 0x1 ADD DUP6 SSTORE DUP3 ISZERO PUSH2 0x201F JUMPI SWAP2 DUP3 ADD JUMPDEST DUP3 DUP2 GT ISZERO PUSH2 0x201E JUMPI DUP3 MLOAD DUP3 SSTORE SWAP2 PUSH1 0x20 ADD SWAP2 SWAP1 PUSH1 0x1 ADD SWAP1 PUSH2 0x2003 JUMP JUMPDEST JUMPDEST POP SWAP1 POP PUSH2 0x202C SWAP2 SWAP1 PUSH2 0x21AE JUMP JUMPDEST POP SWAP1 JUMP JUMPDEST PUSH1 0x40 MLOAD DUP1 PUSH1 0xE0 ADD PUSH1 0x40 MSTORE DUP1 PUSH1 0x0 PUSH20 0xFFFFFFFFFFFFFFFFFFFFFFFFFFFFFFFFFFFFFFFF AND DUP2 MSTORE PUSH1 0x20 ADD PUSH1 0x60 DUP2 MSTORE PUSH1 0x20 ADD PUSH1 0x60 DUP2 MSTORE PUSH1 0x20 ADD PUSH1 0x0 DUP2 MSTORE PUSH1 0x20 ADD PUSH1 0x0 DUP2 MSTORE PUSH1 0x20 ADD PUSH1 0x0 DUP2 MSTORE PUSH1 0x20 ADD PUSH1 0x0 DUP2 MSTORE POP SWAP1 JUMP JUMPDEST DUP3 DUP1 SLOAD DUP3 DUP3 SSTORE SWAP1 PUSH1 0x0 MSTORE PUSH1 0x20 PUSH1 0x0 KECCAK256 SWAP1 DUP2 ADD SWAP3 DUP3 ISZERO PUSH2 0x20BF JUMPI SWAP2 PUSH1 0x20 MUL DUP3 ADD JUMPDEST DUP3 DUP2 GT ISZERO PUSH2 0x20BE JUMPI DUP3 MLOAD DUP3 SSTORE SWAP2 PUSH1 0x20 ADD SWAP2 SWAP1 PUSH1 0x1 ADD SWAP1 PUSH2 0x20A3 JUMP JUMPDEST JUMPDEST POP SWAP1 POP PUSH2 0x20CC SWAP2 SWAP1 PUSH2 0x21AE JUMP JUMPDEST POP SWAP1 JUMP JUMPDEST JUMPDEST DUP1 DUP3 GT ISZERO PUSH2 0x2112 JUMPI PUSH1 0x0 DUP1 DUP3 ADD PUSH1 0x0 SWAP1 SSTORE PUSH1 0x1 DUP3 ADD PUSH1 0x0 PUSH2 0x20F2 SWAP2 SWAP1 PUSH2 0x21CB JUMP JUMPDEST PUSH1 0x2 DUP3 ADD PUSH1 0x0 DUP1 DUP3 ADD PUSH1 0x0 SWAP1 SSTORE PUSH1 0x1 DUP3 ADD PUSH1 0x0 SWAP1 SSTORE POP POP POP PUSH1 0x4 ADD PUSH2 0x20D1 JUMP JUMPDEST POP SWAP1 JUMP JUMPDEST JUMPDEST DUP1 DUP3 GT ISZERO PUSH2 0x2190 JUMPI PUSH1 0x0 DUP1 DUP3 ADD PUSH1 0x0 PUSH2 0x100 EXP DUP2 SLOAD SWAP1 PUSH20 0xFFFFFFFFFFFFFFFFFFFFFFFFFFFFFFFFFFFFFFFF MUL NOT AND SWAP1 SSTORE PUSH1 0x1 DUP3 ADD PUSH1 0x0 PUSH2 0x2157 SWAP2 SWAP1 PUSH2 0x21CB JUMP JUMPDEST PUSH1 0x2 DUP3 ADD PUSH1 0x0 PUSH2 0x2167 SWAP2 SWAP1 PUSH2 0x220B JUMP JUMPDEST PUSH1 0x3 DUP3 ADD PUSH1 0x0 SWAP1 SSTORE PUSH1 0x4 DUP3 ADD PUSH1 0x0 SWAP1 SSTORE PUSH1 0x5 DUP3 ADD PUSH1 0x0 SWAP1 SSTORE PUSH1 0x6 DUP3 ADD PUSH1 0x0 SWAP1 SSTORE POP PUSH1 0x7 ADD PUSH2 0x2117 JUMP JUMPDEST POP SWAP1 JUMP JUMPDEST PUSH1 0x40 MLOAD DUP1 PUSH1 0x40 ADD PUSH1 0x40 MSTORE DUP1 PUSH1 0x0 DUP2 MSTORE PUSH1 0x20 ADD PUSH1 0x0 DUP2 MSTORE POP SWAP1 JUMP JUMPDEST JUMPDEST DUP1 DUP3 GT ISZERO PUSH2 0x21C7 JUMPI PUSH1 0x0 DUP2 PUSH1 0x0 SWAP1 SSTORE POP PUSH1 0x1 ADD PUSH2 0x21AF JUMP JUMPDEST POP SWAP1 JUMP JUMPDEST POP DUP1 SLOAD PUSH2 0x21D7 SWAP1 PUSH2 0x2ED4 JUMP JUMPDEST PUSH1 0x0 DUP3 SSTORE DUP1 PUSH1 0x1F LT PUSH2 0x21E9 JUMPI POP PUSH2 0x2208 JUMP JUMPDEST PUSH1 0x1F ADD PUSH1 0x20 SWAP1 DIV SWAP1 PUSH1 0x0 MSTORE PUSH1 0x20 PUSH1 0x0 KECCAK256 SWAP1 DUP2 ADD SWAP1 PUSH2 0x2207 SWAP2 SWAP1 PUSH2 0x21AE JUMP JUMPDEST JUMPDEST POP JUMP JUMPDEST POP DUP1 SLOAD PUSH1 0x0 DUP3 SSTORE SWAP1 PUSH1 0x0 MSTORE PUSH1 0x20 PUSH1 0x0 KECCAK256 SWAP1 DUP2 ADD SWAP1 PUSH2 0x2229 SWAP2 SWAP1 PUSH2 0x21AE JUMP JUMPDEST POP JUMP JUMPDEST PUSH1 0x0 PUSH2 0x223F PUSH2 0x223A DUP5 PUSH2 0x2C64 JUMP JUMPDEST PUSH2 0x2C3F JUMP JUMPDEST SWAP1 POP DUP1 DUP4 DUP3 MSTORE PUSH1 0x20 DUP3 ADD SWAP1 POP DUP3 DUP6 PUSH1 0x20 DUP7 MUL DUP3 ADD GT ISZERO PUSH2 0x2262 JUMPI PUSH2 0x2261 PUSH2 0x309F JUMP JUMPDEST JUMPDEST PUSH1 0x0 JUMPDEST DUP6 DUP2 LT ISZERO PUSH2 0x2292 JUMPI DUP2 PUSH2 0x2278 DUP9 DUP3 PUSH2 0x233A JUMP JUMPDEST DUP5 MSTORE PUSH1 0x20 DUP5 ADD SWAP4 POP PUSH1 0x20 DUP4 ADD SWAP3 POP POP PUSH1 0x1 DUP2 ADD SWAP1 POP PUSH2 0x2265 JUMP JUMPDEST POP POP POP SWAP4 SWAP3 POP POP POP JUMP JUMPDEST PUSH1 0x0 PUSH2 0x22AF PUSH2 0x22AA DUP5 PUSH2 0x2C90 JUMP JUMPDEST PUSH2 0x2C3F JUMP JUMPDEST SWAP1 POP DUP3 DUP2 MSTORE PUSH1 0x20 DUP2 ADD DUP5 DUP5 DUP5 ADD GT ISZERO PUSH2 0x22CB JUMPI PUSH2 0x22CA PUSH2 0x30A4 JUMP JUMPDEST JUMPDEST PUSH2 0x22D6 DUP5 DUP3 DUP6 PUSH2 0x2E92 JUMP JUMPDEST POP SWAP4 SWAP3 POP POP POP JUMP JUMPDEST PUSH1 0x0 DUP3 PUSH1 0x1F DUP4 ADD SLT PUSH2 0x22F3 JUMPI PUSH2 0x22F2 PUSH2 0x309A JUMP JUMPDEST JUMPDEST DUP2 CALLDATALOAD PUSH2 0x2303 DUP5 DUP3 PUSH1 0x20 DUP7 ADD PUSH2 0x222C JUMP JUMPDEST SWAP2 POP POP SWAP3 SWAP2 POP POP JUMP JUMPDEST PUSH1 0x0 DUP3 PUSH1 0x1F DUP4 ADD SLT PUSH2 0x2321 JUMPI PUSH2 0x2320 PUSH2 0x309A JUMP JUMPDEST JUMPDEST DUP2 CALLDATALOAD PUSH2 0x2331 DUP5 DUP3 PUSH1 0x20 DUP7 ADD PUSH2 0x229C JUMP JUMPDEST SWAP2 POP POP SWAP3 SWAP2 POP POP JUMP JUMPDEST PUSH1 0x0 DUP2 CALLDATALOAD SWAP1 POP PUSH2 0x2349 DUP2 PUSH2 0x355A JUMP JUMPDEST SWAP3 SWAP2 POP POP JUMP JUMPDEST PUSH1 0x0 PUSH1 0x20 DUP3 DUP5 SUB SLT ISZERO PUSH2 0x2365 JUMPI PUSH2 0x2364 PUSH2 0x30AE JUMP JUMPDEST JUMPDEST PUSH1 0x0 DUP3 ADD CALLDATALOAD PUSH8 0xFFFFFFFFFFFFFFFF DUP2 GT ISZERO PUSH2 0x2383 JUMPI PUSH2 0x2382 PUSH2 0x30A9 JUMP JUMPDEST JUMPDEST PUSH2 0x238F DUP5 DUP3 DUP6 ADD PUSH2 0x22DE JUMP JUMPDEST SWAP2 POP POP SWAP3 SWAP2 POP POP JUMP JUMPDEST PUSH1 0x0 PUSH1 0x20 DUP3 DUP5 SUB SLT ISZERO PUSH2 0x23AE JUMPI PUSH2 0x23AD PUSH2 0x30AE JUMP JUMPDEST JUMPDEST PUSH1 0x0 DUP3 ADD CALLDATALOAD PUSH8 0xFFFFFFFFFFFFFFFF DUP2 GT ISZERO PUSH2 0x23CC JUMPI PUSH2 0x23CB PUSH2 0x30A9 JUMP JUMPDEST JUMPDEST PUSH2 0x23D8 DUP5 DUP3 DUP6 ADD PUSH2 0x230C JUMP JUMPDEST SWAP2 POP POP SWAP3 SWAP2 POP POP JUMP JUMPDEST PUSH1 0x0 DUP1 PUSH1 0x40 DUP4 DUP6 SUB SLT ISZERO PUSH2 0x23F8 JUMPI PUSH2 0x23F7 PUSH2 0x30AE JUMP JUMPDEST JUMPDEST PUSH1 0x0 PUSH2 0x2406 DUP6 DUP3 DUP7 ADD PUSH2 0x233A JUMP JUMPDEST SWAP3 POP POP PUSH1 0x20 PUSH2 0x2417 DUP6 DUP3 DUP7 ADD PUSH2 0x233A JUMP JUMPDEST SWAP2 POP POP SWAP3 POP SWAP3 SWAP1 POP JUMP JUMPDEST PUSH1 0x0 DUP1 PUSH1 0x0 PUSH1 0x60 DUP5 DUP7 SUB SLT ISZERO PUSH2 0x243A JUMPI PUSH2 0x2439 PUSH2 0x30AE JUMP JUMPDEST JUMPDEST PUSH1 0x0 PUSH2 0x2448 DUP7 DUP3 DUP8 ADD PUSH2 0x233A JUMP JUMPDEST SWAP4 POP POP PUSH1 0x20 PUSH2 0x2459 DUP7 DUP3 DUP8 ADD PUSH2 0x233A JUMP JUMPDEST SWAP3 POP POP PUSH1 0x40 PUSH2 0x246A DUP7 DUP3 DUP8 ADD PUSH2 0x233A JUMP JUMPDEST SWAP2 POP POP SWAP3 POP SWAP3 POP SWAP3 JUMP JUMPDEST PUSH2 0x247D DUP2 PUSH2 0x2E49 JUMP JUMPDEST DUP3 MSTORE POP POP JUMP JUMPDEST PUSH1 0x0 PUSH2 0x248E DUP3 PUSH2 0x2CD6 JUMP JUMPDEST PUSH2 0x2498 DUP2 DUP6 PUSH2 0x2CE1 JUMP JUMPDEST SWAP4 POP PUSH2 0x24A8 DUP2 DUP6 PUSH1 0x20 DUP7 ADD PUSH2 0x2EA1 JUMP JUMPDEST PUSH2 0x24B1 DUP2 PUSH2 0x30B3 JUMP JUMPDEST DUP5 ADD SWAP2 POP POP SWAP3 SWAP2 POP POP JUMP JUMPDEST PUSH1 0x0 PUSH2 0x24C7 DUP3 PUSH2 0x2CD6 JUMP JUMPDEST PUSH2 0x24D1 DUP2 DUP6 PUSH2 0x2CF2 JUMP JUMPDEST SWAP4 POP PUSH2 0x24E1 DUP2 DUP6 PUSH1 0x20 DUP7 ADD PUSH2 0x2EA1 JUMP JUMPDEST DUP1 DUP5 ADD SWAP2 POP POP SWAP3 SWAP2 POP POP JUMP JUMPDEST PUSH1 0x0 DUP2 SLOAD PUSH2 0x24FA DUP2 PUSH2 0x2ED4 JUMP JUMPDEST PUSH2 0x2504 DUP2 DUP7 PUSH2 0x2CF2 JUMP JUMPDEST SWAP5 POP PUSH1 0x1 DUP3 AND PUSH1 0x0 DUP2 EQ PUSH2 0x251F JUMPI PUSH1 0x1 DUP2 EQ PUSH2 0x2530 JUMPI PUSH2 0x2563 JUMP JUMPDEST PUSH1 0xFF NOT DUP4 AND DUP7 MSTORE DUP2 DUP7 ADD SWAP4 POP PUSH2 0x2563 JUMP JUMPDEST PUSH2 0x2539 DUP6 PUSH2 0x2CC1 JUMP JUMPDEST PUSH1 0x0 JUMPDEST DUP4 DUP2 LT ISZERO PUSH2 0x255B JUMPI DUP2 SLOAD DUP2 DUP10 ADD MSTORE PUSH1 0x1 DUP3 ADD SWAP2 POP PUSH1 0x20 DUP2 ADD SWAP1 POP PUSH2 0x253C JUMP JUMPDEST DUP4 DUP9 ADD SWAP6 POP POP POP JUMPDEST POP POP POP SWAP3 SWAP2 POP POP JUMP JUMPDEST PUSH1 0x0 PUSH2 0x2579 PUSH1 0x2B DUP4 PUSH2 0x2CE1 JUMP JUMPDEST SWAP2 POP PUSH2 0x2584 DUP3 PUSH2 0x30C4 JUMP JUMPDEST PUSH1 0x40 DUP3 ADD SWAP1 POP SWAP2 SWAP1 POP JUMP JUMPDEST PUSH1 0x0 PUSH2 0x259C PUSH1 0x21 DUP4 PUSH2 0x2CE1 JUMP JUMPDEST SWAP2 POP PUSH2 0x25A7 DUP3 PUSH2 0x3113 JUMP JUMPDEST PUSH1 0x40 DUP3 ADD SWAP1 POP SWAP2 SWAP1 POP JUMP JUMPDEST PUSH1 0x0 PUSH2 0x25BF PUSH1 0x20 DUP4 PUSH2 0x2CE1 JUMP JUMPDEST SWAP2 POP PUSH2 0x25CA DUP3 PUSH2 0x3162 JUMP JUMPDEST PUSH1 0x20 DUP3 ADD SWAP1 POP SWAP2 SWAP1 POP JUMP JUMPDEST PUSH1 0x0 PUSH2 0x25E2 PUSH1 0x1 DUP4 PUSH2 0x2CF2 JUMP JUMPDEST SWAP2 POP PUSH2 0x25ED DUP3 PUSH2 0x318B JUMP JUMPDEST PUSH1 0x1 DUP3 ADD SWAP1 POP SWAP2 SWAP1 POP JUMP JUMPDEST PUSH1 0x0 PUSH2 0x2605 PUSH1 0x14 DUP4 PUSH2 0x2CE1 JUMP JUMPDEST SWAP2 POP PUSH2 0x2610 DUP3 PUSH2 0x31B4 JUMP JUMPDEST PUSH1 0x20 DUP3 ADD SWAP1 POP SWAP2 SWAP1 POP JUMP JUMPDEST PUSH1 0x0 PUSH2 0x2628 PUSH1 0xF DUP4 PUSH2 0x2CF2 JUMP JUMPDEST SWAP2 POP PUSH2 0x2633 DUP3 PUSH2 0x31DD JUMP JUMPDEST PUSH1 0xF DUP3 ADD SWAP1 POP SWAP2 SWAP1 POP JUMP JUMPDEST PUSH1 0x0 PUSH2 0x264B PUSH1 0x3D DUP4 PUSH2 0x2CE1 JUMP JUMPDEST SWAP2 POP PUSH2 0x2656 DUP3 PUSH2 0x3206 JUMP JUMPDEST PUSH1 0x40 DUP3 ADD SWAP1 POP SWAP2 SWAP1 POP JUMP JUMPDEST PUSH1 0x0 PUSH2 0x266E PUSH1 0x2A DUP4 PUSH2 0x2CE1 JUMP JUMPDEST SWAP2 POP PUSH2 0x2679 DUP3 PUSH2 0x3255 JUMP JUMPDEST PUSH1 0x40 DUP3 ADD SWAP1 POP SWAP2 SWAP1 POP JUMP JUMPDEST PUSH1 0x0 PUSH2 0x2691 PUSH1 0x1A DUP4 PUSH2 0x2CE1 JUMP JUMPDEST SWAP2 POP PUSH2 0x269C DUP3 PUSH2 0x32A4 JUMP JUMPDEST PUSH1 0x20 DUP3 ADD SWAP1 POP SWAP2 SWAP1 POP JUMP JUMPDEST PUSH1 0x0 PUSH2 0x26B4 PUSH1 0x1C DUP4 PUSH2 0x2CE1 JUMP JUMPDEST SWAP2 POP PUSH2 0x26BF DUP3 PUSH2 0x32CD JUMP JUMPDEST PUSH1 0x20 DUP3 ADD SWAP1 POP SWAP2 SWAP1 POP JUMP JUMPDEST PUSH1 0x0 PUSH2 0x26D7 PUSH1 0xF DUP4 PUSH2 0x2CE1 JUMP JUMPDEST SWAP2 POP PUSH2 0x26E2 DUP3 PUSH2 0x32F6 JUMP JUMPDEST PUSH1 0x20 DUP3 ADD SWAP1 POP SWAP2 SWAP1 POP JUMP JUMPDEST PUSH1 0x0 PUSH2 0x26FA PUSH1 0xB DUP4 PUSH2 0x2CF2 JUMP JUMPDEST SWAP2 POP PUSH2 0x2705 DUP3 PUSH2 0x331F JUMP JUMPDEST PUSH1 0xB DUP3 ADD SWAP1 POP SWAP2 SWAP1 POP JUMP JUMPDEST PUSH1 0x0 PUSH2 0x271D PUSH1 0x1B DUP4 PUSH2 0x2CE1 JUMP JUMPDEST SWAP2 POP PUSH2 0x2728 DUP3 PUSH2 0x3348 JUMP JUMPDEST PUSH1 0x20 DUP3 ADD SWAP1 POP SWAP2 SWAP1 POP JUMP JUMPDEST PUSH1 0x0 PUSH2 0x2740 PUSH1 0x18 DUP4 PUSH2 0x2CE1 JUMP JUMPDEST SWAP2 POP PUSH2 0x274B DUP3 PUSH2 0x3371 JUMP JUMPDEST PUSH1 0x20 DUP3 ADD SWAP1 POP SWAP2 SWAP1 POP JUMP JUMPDEST PUSH1 0x0 PUSH2 0x2763 PUSH1 0x16 DUP4 PUSH2 0x2CE1 JUMP JUMPDEST SWAP2 POP PUSH2 0x276E DUP3 PUSH2 0x339A JUMP JUMPDEST PUSH1 0x20 DUP3 ADD SWAP1 POP SWAP2 SWAP1 POP JUMP JUMPDEST PUSH1 0x0 PUSH2 0x2786 PUSH1 0x15 DUP4 PUSH2 0x2CE1 JUMP JUMPDEST SWAP2 POP PUSH2 0x2791 DUP3 PUSH2 0x33C3 JUMP JUMPDEST PUSH1 0x20 DUP3 ADD SWAP1 POP SWAP2 SWAP1 POP JUMP JUMPDEST PUSH1 0x0 PUSH2 0x27A9 PUSH1 0x20 DUP4 PUSH2 0x2CE1 JUMP JUMPDEST SWAP2 POP PUSH2 0x27B4 DUP3 PUSH2 0x33EC JUMP JUMPDEST PUSH1 0x20 DUP3 ADD SWAP1 POP SWAP2 SWAP1 POP JUMP JUMPDEST PUSH1 0x0 PUSH2 0x27CC PUSH1 0x14 DUP4 PUSH2 0x2CE1 JUMP JUMPDEST SWAP2 POP PUSH2 0x27D7 DUP3 PUSH2 0x3415 JUMP JUMPDEST PUSH1 0x20 DUP3 ADD SWAP1 POP SWAP2 SWAP1 POP JUMP JUMPDEST PUSH1 0x0 PUSH2 0x27EF PUSH1 0x18 DUP4 PUSH2 0x2CE1 JUMP JUMPDEST SWAP2 POP PUSH2 0x27FA DUP3 PUSH2 0x343E JUMP JUMPDEST PUSH1 0x20 DUP3 ADD SWAP1 POP SWAP2 SWAP1 POP JUMP JUMPDEST PUSH1 0x0 PUSH2 0x2812 PUSH1 0x22 DUP4 PUSH2 0x2CE1 JUMP JUMPDEST SWAP2 POP PUSH2 0x281D DUP3 PUSH2 0x3467 JUMP JUMPDEST PUSH1 0x40 DUP3 ADD SWAP1 POP SWAP2 SWAP1 POP JUMP JUMPDEST PUSH1 0x0 PUSH2 0x2835 PUSH1 0x11 DUP4 PUSH2 0x2CE1 JUMP JUMPDEST SWAP2 POP PUSH2 0x2840 DUP3 PUSH2 0x34B6 JUMP JUMPDEST PUSH1 0x20 DUP3 ADD SWAP1 POP SWAP2 SWAP1 POP JUMP JUMPDEST PUSH1 0x0 PUSH2 0x2858 PUSH1 0x11 DUP4 PUSH2 0x2CE1 JUMP JUMPDEST SWAP2 POP PUSH2 0x2863 DUP3 PUSH2 0x34DF JUMP JUMPDEST PUSH1 0x20 DUP3 ADD SWAP1 POP SWAP2 SWAP1 POP JUMP JUMPDEST PUSH1 0x0 PUSH2 0x287B PUSH1 0x13 DUP4 PUSH2 0x2CE1 JUMP JUMPDEST SWAP2 POP PUSH2 0x2886 DUP3 PUSH2 0x3508 JUMP JUMPDEST PUSH1 0x20 DUP3 ADD SWAP1 POP SWAP2 SWAP1 POP JUMP JUMPDEST PUSH1 0x0 PUSH2 0x289E PUSH1 0xF DUP4 PUSH2 0x2CE1 JUMP JUMPDEST SWAP2 POP PUSH2 0x28A9 DUP3 PUSH2 0x3531 JUMP JUMPDEST PUSH1 0x20 DUP3 ADD SWAP1 POP SWAP2 SWAP1 POP JUMP JUMPDEST PUSH1 0x0 PUSH2 0x28C0 DUP3 DUP6 PUSH2 0x24BC JUMP JUMPDEST SWAP2 POP PUSH2 0x28CC DUP3 DUP5 PUSH2 0x24BC JUMP JUMPDEST SWAP2 POP DUP2 SWAP1 POP SWAP4 SWAP3 POP POP POP JUMP JUMPDEST PUSH1 0x0 PUSH2 0x28E4 DUP3 DUP6 PUSH2 0x24BC JUMP JUMPDEST SWAP2 POP PUSH2 0x28F0 DUP3 DUP5 PUSH2 0x24ED JUMP JUMPDEST SWAP2 POP DUP2 SWAP1 POP SWAP4 SWAP3 POP POP POP JUMP JUMPDEST PUSH1 0x0 PUSH2 0x2908 DUP3 DUP5 PUSH2 0x24BC JUMP JUMPDEST SWAP2 POP PUSH2 0x2913 DUP3 PUSH2 0x25D5 JUMP JUMPDEST SWAP2 POP DUP2 SWAP1 POP SWAP3 SWAP2 POP POP JUMP JUMPDEST PUSH1 0x0 PUSH2 0x292A DUP3 DUP5 PUSH2 0x24BC JUMP JUMPDEST SWAP2 POP PUSH2 0x2935 DUP3 PUSH2 0x261B JUMP JUMPDEST SWAP2 POP DUP2 SWAP1 POP SWAP3 SWAP2 POP POP JUMP JUMPDEST PUSH1 0x0 PUSH2 0x294C DUP3 DUP5 PUSH2 0x24BC JUMP JUMPDEST SWAP2 POP PUSH2 0x2957 DUP3 PUSH2 0x26ED JUMP JUMPDEST SWAP2 POP DUP2 SWAP1 POP SWAP3 SWAP2 POP POP JUMP JUMPDEST PUSH1 0x0 PUSH1 0x20 DUP3 ADD SWAP1 POP PUSH2 0x2977 PUSH1 0x0 DUP4 ADD DUP5 PUSH2 0x2474 JUMP JUMPDEST SWAP3 SWAP2 POP POP JUMP JUMPDEST PUSH1 0x0 PUSH1 0x20 DUP3 ADD SWAP1 POP DUP2 DUP2 SUB PUSH1 0x0 DUP4 ADD MSTORE PUSH2 0x2997 DUP2 DUP5 PUSH2 0x2483 JUMP JUMPDEST SWAP1 POP SWAP3 SWAP2 POP POP JUMP JUMPDEST PUSH1 0x0 PUSH1 0x20 DUP3 ADD SWAP1 POP DUP2 DUP2 SUB PUSH1 0x0 DUP4 ADD MSTORE PUSH2 0x29B8 DUP2 PUSH2 0x256C JUMP JUMPDEST SWAP1 POP SWAP2 SWAP1 POP JUMP JUMPDEST PUSH1 0x0 PUSH1 0x20 DUP3 ADD SWAP1 POP DUP2 DUP2 SUB PUSH1 0x0 DUP4 ADD MSTORE PUSH2 0x29D8 DUP2 PUSH2 0x258F JUMP JUMPDEST SWAP1 POP SWAP2 SWAP1 POP JUMP JUMPDEST PUSH1 0x0 PUSH1 0x20 DUP3 ADD SWAP1 POP DUP2 DUP2 SUB PUSH1 0x0 DUP4 ADD MSTORE PUSH2 0x29F8 DUP2 PUSH2 0x25B2 JUMP JUMPDEST SWAP1 POP SWAP2 SWAP1 POP JUMP JUMPDEST PUSH1 0x0 PUSH1 0x20 DUP3 ADD SWAP1 POP DUP2 DUP2 SUB PUSH1 0x0 DUP4 ADD MSTORE PUSH2 0x2A18 DUP2 PUSH2 0x25F8 JUMP JUMPDEST SWAP1 POP SWAP2 SWAP1 POP JUMP JUMPDEST PUSH1 0x0 PUSH1 0x20 DUP3 ADD SWAP1 POP DUP2 DUP2 SUB PUSH1 0x0 DUP4 ADD MSTORE PUSH2 0x2A38 DUP2 PUSH2 0x263E JUMP JUMPDEST SWAP1 POP SWAP2 SWAP1 POP JUMP JUMPDEST PUSH1 0x0 PUSH1 0x20 DUP3 ADD SWAP1 POP DUP2 DUP2 SUB PUSH1 0x0 DUP4 ADD MSTORE PUSH2 0x2A58 DUP2 PUSH2 0x2661 JUMP JUMPDEST SWAP1 POP SWAP2 SWAP1 POP JUMP JUMPDEST PUSH1 0x0 PUSH1 0x20 DUP3 ADD SWAP1 POP DUP2 DUP2 SUB PUSH1 0x0 DUP4 ADD MSTORE PUSH2 0x2A78 DUP2 PUSH2 0x2684 JUMP JUMPDEST SWAP1 POP SWAP2 SWAP1 POP JUMP JUMPDEST PUSH1 0x0 PUSH1 0x20 DUP3 ADD SWAP1 POP DUP2 DUP2 SUB PUSH1 0x0 DUP4 ADD MSTORE PUSH2 0x2A98 DUP2 PUSH2 0x26A7 JUMP JUMPDEST SWAP1 POP SWAP2 SWAP1 POP JUMP JUMPDEST PUSH1 0x0 PUSH1 0x20 DUP3 ADD SWAP1 POP DUP2 DUP2 SUB PUSH1 0x0 DUP4 ADD MSTORE PUSH2 0x2AB8 DUP2 PUSH2 0x26CA JUMP JUMPDEST SWAP1 POP SWAP2 SWAP1 POP JUMP JUMPDEST PUSH1 0x0 PUSH1 0x20 DUP3 ADD SWAP1 POP DUP2 DUP2 SUB PUSH1 0x0 DUP4 ADD MSTORE PUSH2 0x2AD8 DUP2 PUSH2 0x2710 JUMP JUMPDEST SWAP1 POP SWAP2 SWAP1 POP JUMP JUMPDEST PUSH1 0x0 PUSH1 0x20 DUP3 ADD SWAP1 POP DUP2 DUP2 SUB PUSH1 0x0 DUP4 ADD MSTORE PUSH2 0x2AF8 DUP2 PUSH2 0x2733 JUMP JUMPDEST SWAP1 POP SWAP2 SWAP1 POP JUMP JUMPDEST PUSH1 0x0 PUSH1 0x20 DUP3 ADD SWAP1 POP DUP2 DUP2 SUB PUSH1 0x0 DUP4 ADD MSTORE PUSH2 0x2B18 DUP2 PUSH2 0x2756 JUMP JUMPDEST SWAP1 POP SWAP2 SWAP1 POP JUMP JUMPDEST PUSH1 0x0 PUSH1 0x20 DUP3 ADD SWAP1 POP DUP2 DUP2 SUB PUSH1 0x0 DUP4 ADD MSTORE PUSH2 0x2B38 DUP2 PUSH2 0x2779 JUMP JUMPDEST SWAP1 POP SWAP2 SWAP1 POP JUMP JUMPDEST PUSH1 0x0 PUSH1 0x20 DUP3 ADD SWAP1 POP DUP2 DUP2 SUB PUSH1 0x0 DUP4 ADD MSTORE PUSH2 0x2B58 DUP2 PUSH2 0x279C JUMP JUMPDEST SWAP1 POP SWAP2 SWAP1 POP JUMP JUMPDEST PUSH1 0x0 PUSH1 0x20 DUP3 ADD SWAP1 POP DUP2 DUP2 SUB PUSH1 0x0 DUP4 ADD MSTORE PUSH2 0x2B78 DUP2 PUSH2 0x27BF JUMP JUMPDEST SWAP1 POP SWAP2 SWAP1 POP JUMP JUMPDEST PUSH1 0x0 PUSH1 0x20 DUP3 ADD SWAP1 POP DUP2 DUP2 SUB PUSH1 0x0 DUP4 ADD MSTORE PUSH2 0x2B98 DUP2 PUSH2 0x27E2 JUMP JUMPDEST SWAP1 POP SWAP2 SWAP1 POP JUMP JUMPDEST PUSH1 0x0 PUSH1 0x20 DUP3 ADD SWAP1 POP DUP2 DUP2 SUB PUSH1 0x0 DUP4 ADD MSTORE PUSH2 0x2BB8 DUP2 PUSH2 0x2805 JUMP JUMPDEST SWAP1 POP SWAP2 SWAP1 POP JUMP JUMPDEST PUSH1 0x0 PUSH1 0x20 DUP3 ADD SWAP1 POP DUP2 DUP2 SUB PUSH1 0x0 DUP4 ADD MSTORE PUSH2 0x2BD8 DUP2 PUSH2 0x2828 JUMP JUMPDEST SWAP1 POP SWAP2 SWAP1 POP JUMP JUMPDEST PUSH1 0x0 PUSH1 0x20 DUP3 ADD SWAP1 POP DUP2 DUP2 SUB PUSH1 0x0 DUP4 ADD MSTORE PUSH2 0x2BF8 DUP2 PUSH2 0x284B JUMP JUMPDEST SWAP1 POP SWAP2 SWAP1 POP JUMP JUMPDEST PUSH1 0x0 PUSH1 0x20 DUP3 ADD SWAP1 POP DUP2 DUP2 SUB PUSH1 0x0 DUP4 ADD MSTORE PUSH2 0x2C18 DUP2 PUSH2 0x286E JUMP JUMPDEST SWAP1 POP SWAP2 SWAP1 POP JUMP JUMPDEST PUSH1 0x0 PUSH1 0x20 DUP3 ADD SWAP1 POP DUP2 DUP2 SUB PUSH1 0x0 DUP4 ADD MSTORE PUSH2 0x2C38 DUP2 PUSH2 0x2891 JUMP JUMPDEST SWAP1 POP SWAP2 SWAP1 POP JUMP JUMPDEST PUSH1 0x0 PUSH2 0x2C49 PUSH2 0x2C5A JUMP JUMPDEST SWAP1 POP PUSH2 0x2C55 DUP3 DUP3 PUSH2 0x2F06 JUMP JUMPDEST SWAP2 SWAP1 POP JUMP JUMPDEST PUSH1 0x0 PUSH1 0x40 MLOAD SWAP1 POP SWAP1 JUMP JUMPDEST PUSH1 0x0 PUSH8 0xFFFFFFFFFFFFFFFF DUP3 GT ISZERO PUSH2 0x2C7F JUMPI PUSH2 0x2C7E PUSH2 0x306B JUMP JUMPDEST JUMPDEST PUSH1 0x20 DUP3 MUL SWAP1 POP PUSH1 0x20 DUP2 ADD SWAP1 POP SWAP2 SWAP1 POP JUMP JUMPDEST PUSH1 0x0 PUSH8 0xFFFFFFFFFFFFFFFF DUP3 GT ISZERO PUSH2 0x2CAB JUMPI PUSH2 0x2CAA PUSH2 0x306B JUMP JUMPDEST JUMPDEST PUSH2 0x2CB4 DUP3 PUSH2 0x30B3 JUMP JUMPDEST SWAP1 POP PUSH1 0x20 DUP2 ADD SWAP1 POP SWAP2 SWAP1 POP JUMP JUMPDEST PUSH1 0x0 DUP2 SWAP1 POP DUP2 PUSH1 0x0 MSTORE PUSH1 0x20 PUSH1 0x0 KECCAK256 SWAP1 POP SWAP2 SWAP1 POP JUMP JUMPDEST PUSH1 0x0 DUP2 MLOAD SWAP1 POP SWAP2 SWAP1 POP JUMP JUMPDEST PUSH1 0x0 DUP3 DUP3 MSTORE PUSH1 0x20 DUP3 ADD SWAP1 POP SWAP3 SWAP2 POP POP JUMP JUMPDEST PUSH1 0x0 DUP2 SWAP1 POP SWAP3 SWAP2 POP POP JUMP JUMPDEST PUSH1 0x0 PUSH2 0x2D08 DUP3 PUSH2 0x2E7B JUMP JUMPDEST SWAP2 POP PUSH2 0x2D13 DUP4 PUSH2 0x2E7B JUMP JUMPDEST SWAP3 POP DUP3 PUSH32 0xFFFFFFFFFFFFFFFFFFFFFFFFFFFFFFFFFFFFFFFFFFFFFFFFFFFFFFFFFFFFFFFF SUB DUP3 GT ISZERO PUSH2 0x2D48 JUMPI PUSH2 0x2D47 PUSH2 0x2F80 JUMP JUMPDEST JUMPDEST DUP3 DUP3 ADD SWAP1 POP SWAP3 SWAP2 POP POP JUMP JUMPDEST PUSH1 0x0 PUSH2 0x2D5E DUP3 PUSH2 0x2E85 JUMP JUMPDEST SWAP2 POP PUSH2 0x2D69 DUP4 PUSH2 0x2E85 JUMP JUMPDEST SWAP3 POP DUP3 PUSH1 0xFF SUB DUP3 GT ISZERO PUSH2 0x2D7F JUMPI PUSH2 0x2D7E PUSH2 0x2F80 JUMP JUMPDEST JUMPDEST DUP3 DUP3 ADD SWAP1 POP SWAP3 SWAP2 POP POP JUMP JUMPDEST PUSH1 0x0 PUSH2 0x2D95 DUP3 PUSH2 0x2E7B JUMP JUMPDEST SWAP2 POP PUSH2 0x2DA0 DUP4 PUSH2 0x2E7B JUMP JUMPDEST SWAP3 POP DUP3 PUSH2 0x2DB0 JUMPI PUSH2 0x2DAF PUSH2 0x2FAF JUMP JUMPDEST JUMPDEST DUP3 DUP3 DIV SWAP1 POP SWAP3 SWAP2 POP POP JUMP JUMPDEST PUSH1 0x0 PUSH2 0x2DC6 DUP3 PUSH2 0x2E7B JUMP JUMPDEST SWAP2 POP PUSH2 0x2DD1 DUP4 PUSH2 0x2E7B JUMP JUMPDEST SWAP3 POP DUP2 PUSH32 0xFFFFFFFFFFFFFFFFFFFFFFFFFFFFFFFFFFFFFFFFFFFFFFFFFFFFFFFFFFFFFFFF DIV DUP4 GT DUP3 ISZERO ISZERO AND ISZERO PUSH2 0x2E0A JUMPI PUSH2 0x2E09 PUSH2 0x2F80 JUMP JUMPDEST JUMPDEST DUP3 DUP3 MUL SWAP1 POP SWAP3 SWAP2 POP POP JUMP JUMPDEST PUSH1 0x0 PUSH2 0x2E20 DUP3 PUSH2 0x2E7B JUMP JUMPDEST SWAP2 POP PUSH2 0x2E2B DUP4 PUSH2 0x2E7B JUMP JUMPDEST SWAP3 POP DUP3 DUP3 LT ISZERO PUSH2 0x2E3E JUMPI PUSH2 0x2E3D PUSH2 0x2F80 JUMP JUMPDEST JUMPDEST DUP3 DUP3 SUB SWAP1 POP SWAP3 SWAP2 POP POP JUMP JUMPDEST PUSH1 0x0 PUSH2 0x2E54 DUP3 PUSH2 0x2E5B JUMP JUMPDEST SWAP1 POP SWAP2 SWAP1 POP JUMP JUMPDEST PUSH1 0x0 PUSH20 0xFFFFFFFFFFFFFFFFFFFFFFFFFFFFFFFFFFFFFFFF DUP3 AND SWAP1 POP SWAP2 SWAP1 POP JUMP JUMPDEST PUSH1 0x0 DUP2 SWAP1 POP SWAP2 SWAP1 POP JUMP JUMPDEST PUSH1 0x0 PUSH1 0xFF DUP3 AND SWAP1 POP SWAP2 SWAP1 POP JUMP JUMPDEST DUP3 DUP2 DUP4 CALLDATACOPY PUSH1 0x0 DUP4 DUP4 ADD MSTORE POP POP POP JUMP JUMPDEST PUSH1 0x0 JUMPDEST DUP4 DUP2 LT ISZERO PUSH2 0x2EBF JUMPI DUP1 DUP3 ADD MLOAD DUP2 DUP5 ADD MSTORE PUSH1 0x20 DUP2 ADD SWAP1 POP PUSH2 0x2EA4 JUMP JUMPDEST DUP4 DUP2 GT ISZERO PUSH2 0x2ECE JUMPI PUSH1 0x0 DUP5 DUP5 ADD MSTORE JUMPDEST POP POP POP POP JUMP JUMPDEST PUSH1 0x0 PUSH1 0x2 DUP3 DIV SWAP1 POP PUSH1 0x1 DUP3 AND DUP1 PUSH2 0x2EEC JUMPI PUSH1 0x7F DUP3 AND SWAP2 POP JUMPDEST PUSH1 0x20 DUP3 LT DUP2 EQ ISZERO PUSH2 0x2F00 JUMPI PUSH2 0x2EFF PUSH2 0x300D JUMP JUMPDEST JUMPDEST POP SWAP2 SWAP1 POP JUMP JUMPDEST PUSH2 0x2F0F DUP3 PUSH2 0x30B3 JUMP JUMPDEST DUP2 ADD DUP2 DUP2 LT PUSH8 0xFFFFFFFFFFFFFFFF DUP3 GT OR ISZERO PUSH2 0x2F2E JUMPI PUSH2 0x2F2D PUSH2 0x306B JUMP JUMPDEST JUMPDEST DUP1 PUSH1 0x40 MSTORE POP POP POP JUMP JUMPDEST PUSH1 0x0 PUSH2 0x2F42 DUP3 PUSH2 0x2E7B JUMP JUMPDEST SWAP2 POP PUSH32 0xFFFFFFFFFFFFFFFFFFFFFFFFFFFFFFFFFFFFFFFFFFFFFFFFFFFFFFFFFFFFFFFF DUP3 EQ ISZERO PUSH2 0x2F75 JUMPI PUSH2 0x2F74 PUSH2 0x2F80 JUMP JUMPDEST JUMPDEST PUSH1 0x1 DUP3 ADD SWAP1 POP SWAP2 SWAP1 POP JUMP JUMPDEST PUSH32 0x4E487B7100000000000000000000000000000000000000000000000000000000 PUSH1 0x0 MSTORE PUSH1 0x11 PUSH1 0x4 MSTORE PUSH1 0x24 PUSH1 0x0 REVERT JUMPDEST PUSH32 0x4E487B7100000000000000000000000000000000000000000000000000000000 PUSH1 0x0 MSTORE PUSH1 0x12 PUSH1 0x4 MSTORE PUSH1 0x24 PUSH1 0x0 REVERT JUMPDEST PUSH32 0x4E487B7100000000000000000000000000000000000000000000000000000000 PUSH1 0x0 MSTORE PUSH1 0x21 PUSH1 0x4 MSTORE PUSH1 0x24 PUSH1 0x0 REVERT JUMPDEST PUSH32 0x4E487B7100000000000000000000000000000000000000000000000000000000 PUSH1 0x0 MSTORE PUSH1 0x22 PUSH1 0x4 MSTORE PUSH1 0x24 PUSH1 0x0 REVERT JUMPDEST PUSH32 0x4E487B7100000000000000000000000000000000000000000000000000000000 PUSH1 0x0 MSTORE PUSH1 0x32 PUSH1 0x4 MSTORE PUSH1 0x24 PUSH1 0x0 REVERT JUMPDEST PUSH32 0x4E487B7100000000000000000000000000000000000000000000000000000000 PUSH1 0x0 MSTORE PUSH1 0x41 PUSH1 0x4 MSTORE PUSH1 0x24 PUSH1 0x0 REVERT JUMPDEST PUSH1 0x0 DUP1 REVERT JUMPDEST PUSH1 0x0 DUP1 REVERT JUMPDEST PUSH1 0x0 DUP1 REVERT JUMPDEST PUSH1 0x0 DUP1 REVERT JUMPDEST PUSH1 0x0 DUP1 REVERT JUMPDEST PUSH1 0x0 PUSH1 0x1F NOT PUSH1 0x1F DUP4 ADD AND SWAP1 POP SWAP2 SWAP1 POP JUMP JUMPDEST PUSH32 0x43616E277420736574206361707461696E7320666F72207468652066616E7461 PUSH1 0x0 DUP3 ADD MSTORE PUSH32 0x7379207465616D206E6F77000000000000000000000000000000000000000000 PUSH1 0x20 DUP3 ADD MSTORE POP JUMP JUMPDEST PUSH32 0x5465616D20646F6573206E6F742065786973747320666F722074686520757365 PUSH1 0x0 DUP3 ADD MSTORE PUSH32 0x7200000000000000000000000000000000000000000000000000000000000000 PUSH1 0x20 DUP3 ADD MSTORE POP JUMP JUMPDEST PUSH32 0x5465616D20616C72656164792065786973747320666F72207468652075736572 PUSH1 0x0 DUP3 ADD MSTORE POP JUMP JUMPDEST PUSH32 0xA00000000000000000000000000000000000000000000000000000000000000 PUSH1 0x0 DUP3 ADD MSTORE POP JUMP JUMPDEST PUSH32 0x47616D6520686173206E6F742073746F70706564000000000000000000000000 PUSH1 0x0 DUP3 ADD MSTORE POP JUMP JUMPDEST PUSH32 0x3B20506C61796572204E616D653A200000000000000000000000000000000000 PUSH1 0x0 DUP3 ADD MSTORE POP JUMP JUMPDEST PUSH32 0x4120706C617965722063616E206E6F74206265204361707461696E20616E6420 PUSH1 0x0 DUP3 ADD MSTORE PUSH32 0x56696365204361707461696E206174207468652073616D652074696D65000000 PUSH1 0x20 DUP3 ADD MSTORE POP JUMP JUMPDEST PUSH32 0x506C61796572732063616E277420626520616464656420746F2066616E746173 PUSH1 0x0 DUP3 ADD MSTORE PUSH32 0x79207465616D206E6F7700000000000000000000000000000000000000000000 PUSH1 0x20 DUP3 ADD MSTORE POP JUMP JUMPDEST PUSH32 0x506C6179657220616C726561647920696E20746865207465616D000000000000 PUSH1 0x0 DUP3 ADD MSTORE POP JUMP JUMPDEST PUSH32 0x43616E27742073657420706C617965722773207374617473206E6F7700000000 PUSH1 0x0 DUP3 ADD MSTORE POP JUMP JUMPDEST PUSH32 0x43616E27742062696420616761696E0000000000000000000000000000000000 PUSH1 0x0 DUP3 ADD MSTORE POP JUMP JUMPDEST PUSH32 0x506C617965722049443A20000000000000000000000000000000000000000000 PUSH1 0x0 DUP3 ADD MSTORE POP JUMP JUMPDEST PUSH32 0x506C61796572732063616E2774206265206C6973746564206E6F770000000000 PUSH1 0x0 DUP3 ADD MSTORE POP JUMP JUMPDEST PUSH32 0x426964732063616E277420626520706C61636564206E6F770000000000000000 PUSH1 0x0 DUP3 ADD MSTORE POP JUMP JUMPDEST PUSH32 0x56696365204361707461696E206E6F7420616464656400000000000000000000 PUSH1 0x0 DUP3 ADD MSTORE POP JUMP JUMPDEST PUSH32 0x506C6179657220646F6573206E6F742065786973740000000000000000000000 PUSH1 0x0 DUP3 ADD MSTORE POP JUMP JUMPDEST PUSH32 0x46616E74617379207465616D732063616E2774206265206164646564206E6F77 PUSH1 0x0 DUP3 ADD MSTORE POP JUMP JUMPDEST PUSH32 0x43616E27742061646420706C61796572206E6F77000000000000000000000000 PUSH1 0x0 DUP3 ADD MSTORE POP JUMP JUMPDEST PUSH32 0x47616D6520616C726561647920696E2070726F67726573730000000000000000 PUSH1 0x0 DUP3 ADD MSTORE POP JUMP JUMPDEST PUSH32 0x4D7573742062652061646D696E20746F2075736520746869732066756E636974 PUSH1 0x0 DUP3 ADD MSTORE PUSH32 0x6F6E000000000000000000000000000000000000000000000000000000000000 PUSH1 0x20 DUP3 ADD MSTORE POP JUMP JUMPDEST PUSH32 0x4361707461696E206E6F74206164646564000000000000000000000000000000 PUSH1 0x0 DUP3 ADD MSTORE POP JUMP JUMPDEST PUSH32 0x5465616D20616C72656164792046756C6C000000000000000000000000000000 PUSH1 0x0 DUP3 ADD MSTORE POP JUMP JUMPDEST PUSH32 0x43616E2774206368616E67652073746174757300000000000000000000000000 PUSH1 0x0 DUP3 ADD MSTORE POP JUMP JUMPDEST PUSH32 0x5465616D20496E636F6D706C6574650000000000000000000000000000000000 PUSH1 0x0 DUP3 ADD MSTORE POP JUMP JUMPDEST PUSH2 0x3563 DUP2 PUSH2 0x2E7B JUMP JUMPDEST DUP2 EQ PUSH2 0x356E JUMPI PUSH1 0x0 DUP1 REVERT JUMPDEST POP JUMP INVALID LOG2 PUSH5 0x6970667358 0x22 SLT KECCAK256 0x5C DIFFICULTY 0xEE SAR PUSH14 0x7E7E0B8DB8AAC6A3AEB5141CB0E1 PUSH6 0xF24A4640FD75 0xA9 0xB1 SWAP16 DUP14 LT 0xDA PUSH5 0x736F6C6343 STOP ADDMOD SMOD STOP CALLER "
				},
				"gasEstimates": {
					"creation": {
						"codeDepositCost": "2747000",
						"executionCost": "117925",
						"totalCost": "2864925"
					},
					"external": {
						"addFantasyTeam(string)": "infinite",
						"addPlayerToFantasyTeam(uint256[])": "infinite",
						"addPlayerToGame(string)": "infinite",
						"bid()": "infinite",
						"calculateTeamsScore()": "infinite",
						"gameBegins()": "29020",
						"gameStops()": "28954",
						"getAdmin()": "2589",
						"listPlayers()": "infinite",
						"playersAddedToGame()": "26831",
						"setCaptains(uint256,uint256)": "infinite",
						"setplayerStats(uint256,uint256,uint256)": "infinite",
						"startGame(uint256,uint256,uint256)": "infinite"
					},
					"internal": {
						"calculatePlayerScore(uint256,bool,bool)": "infinite",
						"char(bytes1)": "infinite",
						"distributeRewards()": "infinite",
						"existsPlayerIdInFantasyTeam(uint256,uint256)": "infinite",
						"getFantasyTeamID(address)": "infinite",
						"toAsciiString(address)": "infinite",
						"uint2str(uint256)": "infinite"
					}
				},
				"methodIdentifiers": {
					"addFantasyTeam(string)": "92506fae",
					"addPlayerToFantasyTeam(uint256[])": "8791c0b4",
					"addPlayerToGame(string)": "6e23d858",
					"bid()": "1998aeef",
					"calculateTeamsScore()": "8cc80480",
					"gameBegins()": "4526e08b",
					"gameStops()": "219b596b",
					"getAdmin()": "6e9960c3",
					"listPlayers()": "64605d51",
					"playersAddedToGame()": "2f290bfd",
					"setCaptains(uint256,uint256)": "106ecb0a",
					"setplayerStats(uint256,uint256,uint256)": "af5af0ce",
					"startGame(uint256,uint256,uint256)": "2c31d085"
				}
			},
			"storageLayout": {
				"storage": [
					{
						"astId": 3,
						"contract": "contracts/Buidl11.sol:BUIDL11",
						"label": "owner",
						"offset": 0,
						"slot": "0",
						"type": "t_address"
					},
					{
						"astId": 64,
						"contract": "contracts/Buidl11.sol:BUIDL11",
						"label": "gameStatus",
						"offset": 20,
						"slot": "0",
						"type": "t_enum(Status)30"
					},
					{
						"astId": 68,
						"contract": "contracts/Buidl11.sol:BUIDL11",
						"label": "players",
						"offset": 0,
						"slot": "1",
						"type": "t_array(t_struct(Player)43_storage)dyn_storage"
					},
					{
						"astId": 72,
						"contract": "contracts/Buidl11.sol:BUIDL11",
						"label": "fantasyTeams",
						"offset": 0,
						"slot": "2",
						"type": "t_array(t_struct(FantasyTeam)59_storage)dyn_storage"
					},
					{
						"astId": 75,
						"contract": "contracts/Buidl11.sol:BUIDL11",
						"label": "TEAM_SIZE",
						"offset": 0,
						"slot": "3",
						"type": "t_uint256"
					},
					{
						"astId": 78,
						"contract": "contracts/Buidl11.sol:BUIDL11",
						"label": "RUN_MUL",
						"offset": 0,
						"slot": "4",
						"type": "t_uint256"
					},
					{
						"astId": 81,
						"contract": "contracts/Buidl11.sol:BUIDL11",
						"label": "WICKET_MUL",
						"offset": 0,
						"slot": "5",
						"type": "t_uint256"
					}
				],
				"types": {
					"t_address": {
						"encoding": "inplace",
						"label": "address",
						"numberOfBytes": "20"
					},
					"t_array(t_struct(FantasyTeam)59_storage)dyn_storage": {
						"base": "t_struct(FantasyTeam)59_storage",
						"encoding": "dynamic_array",
						"label": "struct BUIDL11.FantasyTeam[]",
						"numberOfBytes": "32"
					},
					"t_array(t_struct(Player)43_storage)dyn_storage": {
						"base": "t_struct(Player)43_storage",
						"encoding": "dynamic_array",
						"label": "struct BUIDL11.Player[]",
						"numberOfBytes": "32"
					},
					"t_array(t_uint256)dyn_storage": {
						"base": "t_uint256",
						"encoding": "dynamic_array",
						"label": "uint256[]",
						"numberOfBytes": "32"
					},
					"t_enum(Status)30": {
						"encoding": "inplace",
						"label": "enum BUIDL11.Status",
						"numberOfBytes": "1"
					},
					"t_string_storage": {
						"encoding": "bytes",
						"label": "string",
						"numberOfBytes": "32"
					},
					"t_struct(FantasyTeam)59_storage": {
						"encoding": "inplace",
						"label": "struct BUIDL11.FantasyTeam",
						"members": [
							{
								"astId": 45,
								"contract": "contracts/Buidl11.sol:BUIDL11",
								"label": "ownerId",
								"offset": 0,
								"slot": "0",
								"type": "t_address"
							},
							{
								"astId": 47,
								"contract": "contracts/Buidl11.sol:BUIDL11",
								"label": "name",
								"offset": 0,
								"slot": "1",
								"type": "t_string_storage"
							},
							{
								"astId": 50,
								"contract": "contracts/Buidl11.sol:BUIDL11",
								"label": "playerIds",
								"offset": 0,
								"slot": "2",
								"type": "t_array(t_uint256)dyn_storage"
							},
							{
								"astId": 52,
								"contract": "contracts/Buidl11.sol:BUIDL11",
								"label": "captainId",
								"offset": 0,
								"slot": "3",
								"type": "t_uint256"
							},
							{
								"astId": 54,
								"contract": "contracts/Buidl11.sol:BUIDL11",
								"label": "viceCaptainId",
								"offset": 0,
								"slot": "4",
								"type": "t_uint256"
							},
							{
								"astId": 56,
								"contract": "contracts/Buidl11.sol:BUIDL11",
								"label": "bid",
								"offset": 0,
								"slot": "5",
								"type": "t_uint256"
							},
							{
								"astId": 58,
								"contract": "contracts/Buidl11.sol:BUIDL11",
								"label": "score",
								"offset": 0,
								"slot": "6",
								"type": "t_uint256"
							}
						],
						"numberOfBytes": "224"
					},
					"t_struct(Player)43_storage": {
						"encoding": "inplace",
						"label": "struct BUIDL11.Player",
						"members": [
							{
								"astId": 37,
								"contract": "contracts/Buidl11.sol:BUIDL11",
								"label": "id",
								"offset": 0,
								"slot": "0",
								"type": "t_uint256"
							},
							{
								"astId": 39,
								"contract": "contracts/Buidl11.sol:BUIDL11",
								"label": "name",
								"offset": 0,
								"slot": "1",
								"type": "t_string_storage"
							},
							{
								"astId": 42,
								"contract": "contracts/Buidl11.sol:BUIDL11",
								"label": "stats",
								"offset": 0,
								"slot": "2",
								"type": "t_struct(PlayerStats)35_storage"
							}
						],
						"numberOfBytes": "128"
					},
					"t_struct(PlayerStats)35_storage": {
						"encoding": "inplace",
						"label": "struct BUIDL11.PlayerStats",
						"members": [
							{
								"astId": 32,
								"contract": "contracts/Buidl11.sol:BUIDL11",
								"label": "runs",
								"offset": 0,
								"slot": "0",
								"type": "t_uint256"
							},
							{
								"astId": 34,
								"contract": "contracts/Buidl11.sol:BUIDL11",
								"label": "wickets",
								"offset": 0,
								"slot": "1",
								"type": "t_uint256"
							}
						],
						"numberOfBytes": "64"
					},
					"t_uint256": {
						"encoding": "inplace",
						"label": "uint256",
						"numberOfBytes": "32"
					}
				}
			},
			"userdoc": {
				"kind": "user",
				"methods": {},
				"version": 1
			}
		}
	}
}